S010000068616C666D6F7573652E6D6F74AD
S315080000000000022075940008998E0008A98E000841
S31508000010B18E0008B98E0008C18E000800000000E5
S31508000020000000000000000000000000C98E000863
S31508000030D98E000800000000E98E0008F98E000835
S31508000040C5940008C5940008C5940008C59400081E
S31508000050C5940008C5940008C5940008C59400080E
S31508000060C5940008C5940008C5940008C5940008FE
S31508000070C5940008C5940008C5940008C5940008EE
S31508000080C5940008C5940008C5940008C5940008DE
S31508000090C5940008C5940008C5940008C5940008CE
S315080000A0C5940008C5940008C5940008C5940008BE
S315080000B0C5940008C5940008C5940008C5940008AE
S315080000C0C5940008C5940008C5940008C59400089E
S315080000D0C5940008C5940008C5940008C59400088E
S315080000E0C5940008C5940008C5940008C59400087E
S315080000F0C5940008C5940008C5940008C59400086E
S31508000100C5940008C5940008C5940008C59400085D
S31508000110C5940008C5940008C5940008C59400084D
S31508000120C5940008C5940008C5940008C59400083D
S31508000130C59400080000000000000000C5940008EF
S31508000140C5940008C5940008C5940008C59400081D
S31508000150C5940008C5940008C5940008C59400080D
S31508000160C5940008C5940008C5940008C5940008FD
S31508000170C5940008C59400080000000000000000AF
S30D08000180C5940008C5940008A7
S315080001C0044B05481B1A062B02D9044B03B11847E2
S315080001D0704700BFA7080020A40800200000000000
S315080001E005490648091A891001EBD171491002D050
S315080001F0034B03B118477047A4080020A408002041
S315080002000000000010B5064C237843B9FFF7D8FF65
S31508000210044B13B10448AFF300800123237010BDCB
S31508000220A40800200000000094E2000808B5084B66
S315080002301BB108490848AFF300800848036813B99A
S31508000240BDE80840CCE7064B002BF9D09847F7E7FE
S3150800025000000000A808002094E20008A408002076
S315080002600000000081F0004102E000BF83F0004377
S3150800027030B54FEA41044FEA430594EA050F08BF33
S3150800028090EA020F1FBF54EA000C55EA020C7FEAF7
S31508000290645C7FEA655C00F0E2804FEA5454D4EB74
S315080002A05555B8BF6D420CDD2C4480EA020281EA3E
S315080002B0030382EA000083EA010180EA020281EA76
S315080002C00303362D88BF30BD11F0004F4FEA0131C8
S315080002D04FF4801C4CEA113102D0404261EB4101D7
S315080002E013F0004F4FEA03334CEA133302D052425D
S315080002F063EB430394EA050F00F0A780A4F1010419
S31508000300D5F1200E0DDB02FA0EFC22FA05F2801852
S3150800031041F1000103FA0EF2801843FA05F3594138
S315080003200EE0A5F120050EF1200E012A03FA0EFCB7
S3150800033028BF4CF0020C43FA05F3C01851EBE371E1
S3150800034001F0004507D54FF0000EDCF1000C7EEBFE
S3150800035000006EEB0101B1F5801F1BD3B1F5001F3C
S315080003600CD349085FEA30004FEA3C0C04F101045B
S315080003704FEA445212F5800F80F09A80BCF1004F84
S3150800038008BF5FEA500C50F1000041EB045141EA06
S31508000390050130BD5FEA4C0C404141EB010111F407
S315080003A0801FA4F10104E9D191F0000F04BF0146B2
S315080003B00020B1FA81F308BF2033A3F10B03B3F190
S315080003C020020CDA0C3208DD02F1140CC2F10C0220
S315080003D001FA0CF021FA02F10CE002F11402D8BF7E
S315080003E0C2F1200C01FA02F120FA0CFCDCBF41EA4A
S315080003F00C019040E41AA2BF01EB0451294330BD19
S315080004006FEA04041F3C1CDA0C340EDC04F11404F5
S31508000410C4F1200220FA04F001FA02F340EA0300CC
S3150800042021FA04F345EA030130BDC4F10C04C4F112
S31508000430200220FA02F001FA04F340EA03002946F2
S3150800044030BD21FA04F0294630BD94F0000F83F43C
S31508000450801306BF81F480110134013D4EE77FEA1F
S31508000460645C18BF7FEA655C29D094EA050F08BF6B
S3150800047090EA020F05D054EA000C04BF194610464C
S3150800048030BD91EA030F1EBF0021002030BD5FEA90
S31508000490545C05D14000494128BF41F0004130BDB8
S315080004A014F580043CBF01F5801130BD01F000450C
S315080004B045F0FE4141F470014FF0000030BD7FEA7F
S315080004C0645C1ABF194610467FEA655C1CBF0B467A
S315080004D0024650EA013406BF52EA033591EA030F91
S315080004E041F4002130BD00BF90F0000F04BF002189
S315080004F0704730B54FF4806404F132044FF00005BC
S315080005004FF0000150E700BF90F0000F04BF002134
S31508000510704730B54FF4806404F1320410F000459A
S3150800052048BF40424FF000013EE700BF42004FEA95
S31508000530E2014FEA31014FEA02701FBF12F07F4312
S3150800054093F07F4F81F06051704792F0000F14BF0F
S3150800055093F07F4F704730B54FF4607401F0004553
S3150800056021F0004120E700BF50EA010208BF7047AA
S3150800057030B54FF000050AE050EA010208BF70479F
S3150800058030B511F0004502D5404261EB41014FF408
S31508000590806404F132045FEA915C3FF4DCAE4FF00C
S315080005A003025FEADC0C18BF03325FEADC0C18BFF3
S315080005B0033202EBDC02C2F1200300FA03FC20FA44
S315080005C002F001FA03FE40EA0E0021FA02F1144491
S315080005D0C1E600BF70B54FF0FF0C4CF4E06C1CEAA6
S315080005E011541DBF1CEA135594EA0C0F95EA0C0F1B
S315080005F000F0DEF82C4481EA030621EA4C5123EA8E
S315080006004C5350EA013518BF52EA033541F48011BC
S3150800061043F4801338D0A0FB02CE4FF00005E1FB6F
S3150800062002E506F00042E0FB03E54FF00006E1FBB9
S3150800063003569CF0000F18BF4EF0010EA4F1FF04FC
S31508000640B6F5007F64F5407404D25FEA4E0E6D413C
S3150800065046EB060642EAC62141EA55514FEAC5204D
S3150800066040EA5E504FEACE2EB4F1FD0C88BFBCF5C9
S31508000670E06F1ED8BEF1004F08BF5FEA500E50F17A
S31508000680000041EB045170BD06F0004646EA010140
S3150800069040EA020081EA0301B4EB5C04C2BFD4EB72
S315080006A00C0541EA045170BD41F480114FF0000E6B
S315080006B0013C00F3AB8014F1360FDEBF002001F0D9
S315080006C0004170BDC4F10004203C35DA0C341BDC53
S315080006D004F11404C4F1200500FA05F320FA04F025
S315080006E001FA05F240EA020001F0004221F0004159
S315080006F010EBD37021FA04F642EB06015EEA430ECC
S3150800070008BF20EAD37070BDC4F10C04C4F12005FB
S3150800071000FA04F320FA05F001FA04F240EA0200AE
S3150800072001F0004110EBD37041F100015EEA430E7F
S3150800073008BF20EAD37070BDC4F1200500FA05F29F
S315080007404EEA020E20FA04F301FA05F243EA02031E
S3150800075021FA04F001F0004121FA04F220EA02002D
S3150800076000EBD3705EEA430E08BF20EAD37070BD73
S3150800077094F0000F0FD101F00046400041EB010153
S3150800078011F4801F08BF013CF7D041EA060195F035
S31508000790000F18BF704703F00046520043EB0303EF
S315080007A013F4801F08BF013DF7D043EA06037047DC
S315080007B094EA0C0F0CEA135518BF95EA0C0F0CD0E7
S315080007C050EA410618BF52EA4306D1D181EA03012D
S315080007D001F000414FF0000070BD50EA410606BF27
S315080007E01046194652EA430619D094EA0C0F02D16C
S315080007F050EA013613D195EA0C0F05D152EA0336B1
S315080008001CBF104619460AD181EA030101F00041CE
S3150800081041F0FE4141F470014FF0000070BD41F017
S31508000820FE4141F4780170BD70B54FF0FF0C4CF4F1
S31508000830E06C1CEA11541DBF1CEA135594EA0C0F10
S3150800084095EA0C0F00F0A7F8A4EB050481EA030E5D
S3150800085052EA03354FEA013100F088804FEA033344
S315080008604FF0805545EA131343EA12634FEA022212
S3150800087045EA111545EA10654FEA00260EF00041D3
S315080008809D4208BF964244F1FD0404F5407402D225
S315080008905B084FEA3202B61A65EB03055B084FEAB6
S315080008A032024FF480104FF4002CB6EB020E75EBB3
S315080008B0030E22BFB61A754640EA0C005B084FEADB
S315080008C03202B6EB020E75EB030E22BFB61A754658
S315080008D040EA5C005B084FEA3202B6EB020E75EBA3
S315080008E0030E22BFB61A754640EA9C005B084FEA1B
S315080008F03202B6EB020E75EB030E22BFB61A754628
S3150800090040EADC0055EA060E18D04FEA051545EA16
S3150800091016754FEA06164FEAC30343EA52734FEABF
S31508000920C2025FEA1C1CC0D111F4801F0BD141EA38
S3150800093000014FF000004FF0004CB6E711F4801F9D
S3150800094004BF01430020B4F1FD0C88BFBCF5E06F7D
S315080009503FF6AFAEB5EB030C04BFB6EB020C5FEA8D
S31508000960500C50F1000041EB045170BD0EF0004EE2
S315080009704EEA113114EB5C04C2BFD4EB0C0541EA14
S31508000980045170BD41F480114FF0000E013C90E611
S3150800099045EA060E8DE60CEA135594EA0C0F08BFD5
S315080009A095EA0C0F3FF43BAF94EA0C0F0AD150EAD4
S315080009B001347FF434AF95EA0C0F7FF425AF104667
S315080009C019462CE795EA0C0F06D152EA03353FF48F
S315080009D0FDAE1046194622E750EA410618BF52EA0C
S315080009E043067FF4C5AE50EA41047FF40DAF52EAE0
S315080009F043057FF4EBAE12E74FF0FF3C06E000BF7D
S31508000A004FF0010C02E000BF4FF0010C4DF804CD89
S31508000A104FEA410C7FEA6C5C4FEA430C18BF7FEA49
S31508000A206C5C1BD001B050EA410C0CBF52EA430C77
S31508000A3091EA030F02BF90EA020F0020704710F1F7
S31508000A40000F91EA030F58BF994208BF90422CBF86
S31508000A50D8176FEAE37040F0010070474FEA410C7F
S31508000A607FEA6C5C02D150EA013C07D14FEA430C9D
S31508000A707FEA6C5CD6D152EA033CD3D05DF8040B0E
S31508000A80704700BF8446104662468C461946634640
S31508000A9000E000BF01B5FFF7B7FF002848BF10F117
S31508000AA0000F01BD4DF808EDFFF7F4FF0CBF01205C
S31508000AB000205DF808FB00BF4DF808EDFFF7EAFFD8
S31508000AC034BF012000205DF808FB00BF4DF808ED93
S31508000AD0FFF7E0FF94BF012000205DF808FB00BF88
S31508000AE04DF808EDFFF7CEFF94BF012000205DF812
S31508000AF008FB00BF4DF808EDFFF7C4FF34BF01201F
S31508000B0000205DF808FB00BF4A0011D212F500125A
S31508000B1011D20DD56FF47873B3EB62520ED44FEA47
S31508000B20C12343F0004343EA505323FA02F07047C7
S31508000B304FF00000704750EA013002D14FF0FF3005
S31508000B4070474FF0000070474FEA4102B2F1E043A8
S31508000B5024BFB3F5001CDCF1FE5C0DD901F0004C96
S31508000B604FEAC0024CEA5070B2F1004F40EB8300E6
S31508000B7008BF20F00100704711F0804F21D113F112
S31508000B803872BCBF01F00040704741F480114FEA4B
S31508000B905252C2F11802C2F1200C10FA0CF320FAD4
S31508000BA002F018BF40F001004FEAC1234FEAD323F1
S31508000BB003FA0CFC40EA0C0023FA02F34FEA43035B
S31508000BC0CCE77FEA625307D150EA01331EBF4FF0E4
S31508000BD0FE4040F44000704701F0004040F0FE40FF
S31508000BE040F40000704700BF00000000000000004D
S31508000BF001F0FF01102A2BDB10F0070F08D010F8C0
S31508000C00013B013A8B422DD010F0070F42B3F6D1C3
S31508000C10F0B441EA012141EA014122F007047FF0DC
S31508000C2000070023F0E80256083C85EA010586EA33
S31508000C30010685FA47F5A3FA87F586FA47F6A5FA6F
S31508000C4087F68EB9EED1F0BC01F0FF0102F007027B
S31508000C5032B110F8013B013A83EA010313B1F8D126
S31508000C600020704701387047002D06BF3546033807
S31508000C70073815F0010F07D1013015F4807F02BF40
S31508000C80013015F4C03F0130F0BC0138704700BF91
S31508000C90844641EA000313F003036DD1403A41D379
S31508000CA051F8043B40F8043B51F8043B40F8043B38
S31508000CB051F8043B40F8043B51F8043B40F8043B28
S31508000CC051F8043B40F8043B51F8043B40F8043B18
S31508000CD051F8043B40F8043B51F8043B40F8043B08
S31508000CE051F8043B40F8043B51F8043B40F8043BF8
S31508000CF051F8043B40F8043B51F8043B40F8043BE8
S31508000D0051F8043B40F8043B51F8043B40F8043BD7
S31508000D1051F8043B40F8043B51F8043B40F8043BC7
S31508000D20403ABDD2303211D351F8043B40F8043B67
S31508000D3051F8043B40F8043B51F8043B40F8043BA7
S31508000D4051F8043B40F8043B103AEDD20C3205D377
S31508000D5051F8043B40F8043B043AF9D2043208D06F
S31508000D60D2071CBF11F8013B00F8013B01D30B88E1
S31508000D7003806046704700BF082A13D38B078DD0BF
S31508000D8010F003038AD0C3F10403D21ADB071CBF91
S31508000D9011F8013B00F8013B80D331F8023B20F8FB
S31508000DA0023B7BE7043AD9D3013A11F8013B00F834
S31508000DB0013BF9D20B7803704B7843708B788370BC
S31508000DC060467047000000000000000000000000B8
S31508000DD00000000000000000000000000000000005
S31508000DE000000000000000000000000000000000F5
S31508000DF000000000000000000000000000000000E5
S31508000E0090F800F06DE9024520F007016FF0000C3C
S31508000E1010F0070491F820F040F049804FF00004E4
S31508000E206FF00700D1E9002391F840F000F10800BF
S31508000E3082FA4CF2A4FA8CF283FA4CF3A2FA8CF3F7
S31508000E404BBBD1E9022382FA4CF200F10800A4FA5E
S31508000E508CF283FA4CF3A2FA8CF3E3B9D1E90423B2
S31508000E6082FA4CF200F10800A4FA8CF283FA4CF3E9
S31508000E70A2FA8CF37BB9D1E9062301F1200182FAA3
S31508000E804CF200F10800A4FA8CF283FA4CF3A2FAA9
S31508000E908CF3002BC6D0002A04BF04301A4612BAB7
S31508000EA0B2FA82F2FDE8024500EBD2007047D1E9BA
S31508000EB0002304F00305C4F100004FEAC50514F049
S31508000EC0040F91F840F00CFA05F562EA05021CBF1A
S31508000ED063EA050362464FF00004A9E74FEA4102B8
S31508000EE012F5001215D211D56FF47873B3EB62526E
S31508000EF012D94FEAC12343F0004343EA505311F095
S31508000F00004F23FA02F018BF404270474FF0000026
S31508000F10704750EA013005D111F0004008BF6FF064
S31508000F20004070474FF00000704700BF53B94AB9F8
S31508000F30002908BF00281CBF4FF0FF314FF0FF30D3
S31508000F4000F07EB9ADF1080C6DE904CE00F006F8A4
S31508000F50DDF804E0DDE9022304B070472DE9F04727
S31508000F608C460E460446089D002B50D18A421746E9
S31508000F706CD9B2FA82FEBEF1000F0BD0CEF1200476
S31508000F8020FA04F401FA0EF644EA060C02FA0EF701
S31508000F9000FA0EF44FEA1749220CBCFBF9F01FFAC7
S31508000FA087F809FB10C642EA064600FB08F3B34277
S31508000FB009D9F61900F1FF3280F02281B34240F2D6
S31508000FC01F8102383E44F61AA2B2B6FBF9F309FBB2
S31508000FD0136642EA064403FB08F8A04509D9E41952
S31508000FE003F1FF3280F00A81A04540F20781023BF7
S31508000FF03C44C8EB040443EA00400021002D62D0BB
S3150800100024FA0EF400232C606B60BDE8F0878B424F
S3150800101007D9002D55D0002185E841000846BDE8CE
S31508001020F087B3FA83F1002940F09080B34202D3E7
S31508001030824200F2F880841A66EB03060120B44661
S31508001040002D40D085E81010BDE8F08712B90127B9
S31508001050B7FBF2F7B7FA87FEBEF1000F35D1F31BDF
S315080010604FEA17481FFA87FC0121B3FBF8F0220C58
S3150800107008FB103642EA06460CFB00F3B34207D9D2
S31508001080F61900F1FF3202D2B34200F2CE801046C2
S31508001090F61AA2B2B6FBF8F308FB136642EA064450
S315080010A00CFB03FCA44507D9E41903F1FF3202D26D
S315080010B0A44500F2B5801346CCEB040443EA00408D
S315080010C09CE729462846BDE8F087CEF1200106FAB6
S315080010D00EF307FA0EF720FA01F94FEA1748CE4041
S315080010E049EA0309B6FBF8FA4FEA194408FB1A66F7
S315080010F01FFA87FC44EA06430AFB0CF29A4200FAF6
S315080011000EF40AD9DB190AF1FF3180F087809A427A
S3150800111040F28480AAF1020A3B449B1A1FFA89F915
S31508001120B3FBF8F108FB113349EA034301FB0CF65C
S315080011309E4207D9DB1901F1FF326BD29E4269D96B
S3150800114002393B449B1B41EA0A418EE7C1F1200E56
S3150800115022FA0EF48B40234320FA0EF706FA01F41E
S315080011604FEA134C26FA0EF63C43B6FBFCF9270C5D
S315080011700CFB19661FFA83F847EA064609FB08F7C7
S31508001180B74202FA01F200FA01FA08D9F61809F18B
S31508001190FF3041D2B7423FD9A9F102091E44F61BD6
S315080011A0A0B2B6FBFCF40CFB146640EA064704FB47
S315080011B008F8B84507D9FF1804F1FF3028D2B84512
S315080011C026D9023C1F4444EA0940C8EB0707A0FB9E
S315080011D002894F4544464E4614D329D065B3BAEB27
S315080011E0040367EB060707FA0EFECB40CF404EEA2C
S315080011F0030385E888000021BDE8F0871346F8E672
S315080012001046E0E6B8EB020469EB03060138E5E7A9
S315080012100446D8E7114695E78146C0E78A467CE743
S31508001220023B3C4448E708460AE702383E442FE7B3
S31508001230C245E7D33E46D1E72946BDE8F08700BF59
S31508001240704700BF80B500AF0221104808F002FBC6
S315080012500023012209210D4808F0DEF90B4808F0A1
S31508001260A5FA0221094808F0DBFA0346002B0CBF51
S3150800127001230023DBB2002B00D0F2E7034808F075
S31508001280A5FA03461B119BB2184680BD00200140F3
S3150800129080B582B000AF4FF000037B604FF48053F7
S315080012A03B60FFF7CFFF034607EE903AF8EEE77A82
S315080012B09FED0B7A67EE876A3B6807EE903AB8EEC1
S315080012C0677AC6EE877A77EEA77AC7ED017A7B68E2
S315080012D007EE903AB0EE670A0837BD4680BD00BFF4
S315080012E03333534080B582B000AF0346FB71FB79B8
S315080012F0022B14D0032B07D0002B00D019E00121B4
S315080013000E4808F089FB14E04FF480410C4808F0B9
S3150800131083FB4FF400410A4808F07EFB09E04FF4CE
S315080013208051084808F078FB0221044808F074FB4D
S3150800133000BF00BF0837BD4680BD00BF001C024085
S31508001340000802400004024080B582B000AF0346A0
S31508001350FB71FB79092B02D900F0BCF982E1FB7914
S31508001360092B00F27F8101A252F823F09513000899
S31508001370DD130008251400086D140008B5140008CC
S31508001380FD140008451500088D150008D515000838
S315080013901D1600081021B54808F02EFB4FF48051A1
S315080013A0B24808F039FB0421B14808F035FB08219A
S315080013B0AF4808F031FB4FF48041AD4808F02CFBEC
S315080013C04FF40041AA4808F027FB0121A94808F074
S315080013D023FB0221A74808F01FFB43E11021A3487D
S315080013E008F00AFB4FF48051A04808F015FB0421C9
S315080013F09F4808F001FB08219D4808F00DFB4FF4B3
S3150800140080419B4808F0F8FA4FF40041984808F0E4
S31508001410F3FA0121974808F0EFFA0221954808F0F7
S31508001420FBFA1FE11021914808F0F6FA4FF48051B3
S315080014308E4808F0E1FA04218D4808F0EDFA0821F3
S315080014408B4808F0E9FA4FF48041894808F0E4FA35
S315080014504FF40041864808F0CFFA0121854808F084
S31508001460DBFA0221834808F0D7FAFBE010217F480F
S3150800147008F0D2FA4FF480517C4808F0CDFA0421DE
S315080014807B4808F0C9FA0821794808F0C5FA4FF4EC
S315080014908041774808F0B0FA4FF40041744808F0E4
S315080014A0ABFA0121734808F0B7FA0221714808F02F
S315080014B0B3FAD7E010216D4808F0AEFA4FF4805120
S315080014C06A4808F0A9FA0421694808F095FA08213B
S315080014D0674808F0A1FA4FF48041654808F08CFA8D
S315080014E04FF40041624808F097FA0121614808F074
S315080014F083FA02215F4808F08FFAB3E010215B48AF
S3150800150008F08AFA4FF48051584808F085FA042101
S31508001510574808F081FA0821554808F07DFA4FF433
S315080015208041534808F068FA4FF40041504808F0E3
S3150800153073FA01214F4808F06FFA02214D4808F066
S315080015405BFA8FE01021494808F066FA4FF480519B
S31508001550464808F061FA0421454808F05DFA082172
S31508001560434808F059FA4FF48041414808F054FAC4
S315080015704FF400413E4808F04FFA01213D4808F073
S315080015804BFA02213B4808F037FA6BE0102137483E
S3150800159008F032FA4FF48051344808F03DFA042135
S315080015A0334808F029FA0821314808F035FA4FF48B
S315080015B080412F4808F020FA4FF400412C4808F0E3
S315080015C02BFA01212B4808F027FA0221294808F0AE
S315080015D023FA47E01021254808F01EFA4FF48051F7
S315080015E0224808F019FA0421214808F015FA0821BA
S315080015F01F4808F011FA4FF480411D4808F00CFA0C
S315080016004FF400411A4808F007FA0121194808F072
S3150800161003FA0221174808F0FFF923E010211348BE
S3150800162008F0FAF94FF48051104808F0F5F904214A
S315080016300F4808F0F1F908210D4808F0EDF94FF4C4
S3150800164080410B4808F0D8F94FF40041084808F0E3
S31508001650E3F90121074808F0DFF90221054808F0F7
S31508001660DBF900BF0837BD4680BD00BF0004024055
S3150800167000080240001C024080B500AF1021124845
S3150800168008F0BAF94FF480510F4808F0B5F904216B
S315080016900E4808F0B1F908210C4808F0ADF94FF4E6
S315080016A080410A4808F0A8F94FF40041074808F0B5
S315080016B0A3F90121064808F09FF90221044808F019
S315080016C09BF900BF80BD00BF00040240000802402D
S315080016D0001C024080B500AF1021124808F09CF9A2
S315080016E04FF480510F4808F087F904210E4808F096
S315080016F093F908210C4808F08FF94FF480410A48FD
S3150800170008F08AF94FF40041074808F085F90121E5
S31508001710064808F081F90221044808F06DF900BF6F
S3150800172080BD00BF0004024000080240001C0240C1
S3150800173080B584B000AF0346FB710B46BB801346E9
S315080017407B800023FB607A88FB689A4211DDFB796F
S315080017501846FFF7F9FDBB88184607F007FDFFF79F
S315080017608BFFBB88184607F001FDFB680133FB6059
S31508001770E9E700BF1037BD4680BD00BF80B584B01D
S3150800178000AF03460A46FB711346BB80FB79FB6034
S31508001790FB68002B0CDDFB68DBB21846FFF7D4FDAF
S315080017A0BB88184607F0E2FCFB68013BFB60EFE7E5
S315080017B00020FFF7C9FD00BF1037BD4680BD00BF3A
S315080017C090B587B000AF034687ED020AFB73002386
S315080017D0FB82D7ED027AF5EEC07AF1EE10FA0AD559
S315080017E0D7ED027AF1EE677AFDEEE77AC7ED017A70
S315080017F0BB889BB207E0D7ED027AFDEEE77AC7ED24
S31508001800017ABB889BB2FB82D7ED027A9FED507AAC
S31508001810F4EEC77AF1EE10FA01DD6423FB824D4B34
S3150800182060221A804B4B00229A814A4B01225A8029
S31508001830494B1B881A46B7F9163003FB02F31846BC
S31508001840FEF762FE40A3D3E90023FEF7C3FE034674
S315080018500C4618462146FFF757F902463D4B9A6053
S31508001860FB7B012B34D1D7ED027AF5EE407AF1EE07
S3150800187010FA0BD1374B00229A603649374808F0E0
S31508001880A7FB3449354808F01DFC1DE0D7ED027A60
S31508001890F5EEC07AF1EE10FA0BDD2E492F4808F066
S315080018A097FB2C4B00229A602A492C4808F00AFC20
S315080018B00AE02849294808F005FC264B00229A60C8
S315080018C02449264808F084FBFB8ADAB2244B1A70AE
S315080018D0FB7B002B34D1D7ED027AF5EE407AF1EE98
S315080018E010FA0BD11B4B00229A601A491D4808F0C2
S315080018F06FFB18491B4808F0E5FB1DE0D7ED027A97
S31508001900F5EEC07AF1EE10FA0BDD1249154808F02B
S315080019105FFB104B00229A600E49124808F0D2FB72
S315080019200AE00C490F4808F0CDFB0A4B00229A60E2
S3150800193008490C4808F04CFBFB8ADAB20A4B1A70C5
S3150800194000BF1C37BD4690BD7B14AE47E17A843F85
S315080019500000C842A80A0020B0E2000800080040BB
S31508001960C0080020000C0040C108002080B500AF68
S3150800197004210D4808F050F800210C4808F008FB2F
S3150800198000210B4808F004FB9FED0A0A0020FFF728
S3150800199017FF9FED080A0120FFF712FF064B0022EA
S315080019A01A7000BF80BD00BF00000240000800405A
S315080019B0000C004000000000C208002080B500AFFF
S315080019C00421084808F018F80121074808F0E0FA49
S315080019D00121064808F0DCFA054B01221A7000BFFF
S315080019E080BD00BF0000024000080040000C004017
S315080019F0C208002080B400AF034B1B781846BD46CA
S31508001A005DF8047B704700BFC208002080B584B02B
S31508001A1000AF0346FB8000237B81FB8843F08003ED
S31508001A203B81404B1B681021184607F0F5FF3E4BDB
S31508001A301B680221184608F0F5F90346002B0CBF6F
S31508001A4001230023DBB2002B00D0F0E7364B1B68DE
S31508001A503A891146184608F0D5F9334B1B68012117
S31508001A60184608F0DFF90346002B0CBF01230023B4
S31508001A70DBB2002B00D0F0E72B4B1B68184608F0AA
S31508001A80B3F903467B81284B1B680221184608F0E8
S31508001A90C9F90346002B0CBF01230023DBB2002B38
S31508001AA000D0F0E7204B1B680021184608F0AAF979
S31508001AB01D4B1B680121184608F0B4F90346002B94
S31508001AC00CBF01230023DBB2002B00D0F0E7164B36
S31508001AD01B68184608F088F903467B81124B1B6879
S31508001AE00221184608F09EF90346002B0CBF012375
S31508001AF00023DBB2002B00D0F0E70A4B1B6810214D
S31508001B00184607F079FF0023FB60FB68042B03DC0B
S31508001B10FB680133FB60F8E77B8918461037BD463A
S31508001B2080BD00BF040000200000002080B584B0FE
S31508001B3000AF03460A46FB801346BB803D4B1B6835
S31508001B401021184607F068FF3B4B1B680221184610
S31508001B5008F068F90346002B0CBF01230023DBB20B
S31508001B60002B00D0F0E7344B1B68FA88114618465C
S31508001B7008F048F9304B1B680121184608F052F95D
S31508001B800346002B0CBF01230023DBB2002B00D039
S31508001B90F0E7294B1B68184608F026F9264B1B6800
S31508001BA00221184608F03EF90346002B0CBF012314
S31508001BB00023DBB2002B00D0F0E71F4B1B68BA8866
S31508001BC01146184608F01EF91B4B1B6801211846DA
S31508001BD008F028F90346002B0CBF01230023DBB2CB
S31508001BE0002B00D0F0E7144B1B68184608F0FCF8E9
S31508001BF0114B1B680221184608F014F90346002BFE
S31508001C000CBF01230023DBB2002B00D0F0E7094B01
S31508001C101B681021184607F0EFFE0023FB60FB68DF
S31508001C20092B03DCFB680133FB60F8E700BF1037BC
S31508001C30BD4680BD040000200000002090B585B098
S31508001C4000AF03460A46FB711346BB7100237B812E
S31508001C500023FB810023BB81FB79002B02D0032BD9
S31508001C6018D02FE0BB79012B09D0022B0CD0002B02
S31508001C7000D029E04323FB814423BB8109E04523A7
S31508001C80FB814623BB8104E04723FB814823BB81B4
S31508001C9000BF19E0BB79012B09D0022B0CD0002B11
S31508001CA000D011E03B23FB813C23BB8109E03D23A7
S31508001CB0FB813E23BB8104E03F23FB814023BB819C
S31508001CC000BF01E07B890FE0FB891846FFF79EFEFF
S31508001CD003461B029CB2BB891846FFF797FE0346CC
S31508001CE023449BB27B817B891BB218461437BD46B9
S31508001CF090BD00BF80B500AF00216B20FFF716FF2F
S31508001D00EE216C20FFF712FF10216A20FFF70EFF65
S31508001D1006216820FFF70AFF00211A20FFF706FFB1
S31508001D2018211B20FFF702FF18211C20FFF7FEFED3
S31508001D3000BF80BD0000000090B583B000AF4FF033
S31508001D4000037B600023FB70FB780133132B1ADC3E
S31508001D50FB78FA7801322E4992000A4412682C4917
S31508001D609B000B441A60FB78294A9B001344D3ED69
S31508001D70007A97ED017A77EE277AC7ED017AFB7834
S31508001D800133FB70E0E701210320FFF757FF034605
S31508001D9007EE903AF8EEE77A1D4BC3ED137A1C4B23
S31508001DA0D3ED137A97ED017A77EE277AC7ED017AA4
S31508001DB097ED017AF3EE046AC7EE267A154BC3ED62
S31508001DC0007A144B93ED007A134BD3ED007A77EE35
S31508001DD0677A9FED127AC7EE876A16EE900AFEF7C3
S31508001DE0A5FB09A3D3E90023FEF71EFD03460C460F
S31508001DF018462146FEF7A8FE0246094B1A6000BFA0
S31508001E000C37BD4690BD00BF9A9999999999234078
S31508001E10BC0A0020C4080020C808002000000045AD
S31508001E20CC08002080B582B000AF4FF000037B607D
S31508001E3000233B60F7EE006A9FED167AC6EE877AB6
S31508001E40FDEEE77A17EE902A3B689A4210DD00F01D
S31508001E5023F8B0EE407AD7ED017A77EE877AC7EDA8
S31508001E60017A012007F082F93B6801333B60E1E71C
S31508001E703B68013307EE903AF8EEE77A97ED017A78
S31508001E80C7EE276AF0EE667AB0EE670A0837BD46EF
S31508001E9080BD00BF6F12833A80B400AF044B1B6845
S31508001EA007EE903AB0EE670ABD465DF8047B7047C8
S31508001EB0C408002080B500AFFFF7B4FFF0EE407A03
S31508001EC0024BC3ED007A00BF80BD00BFC8080020E2
S31508001ED080B400AF044B1B6807EE903AB0EE670A71
S31508001EE0BD465DF8047B7047CC08002080B500AF7E
S31508001EF002210020FFF7A2FE03469BB25B429BB27B
S31508001F009AB2044B1A8000F093F800F065F800BF07
S31508001F1080BD00BFD008002080B400AF034B1B88EB
S31508001F201BB21846BD465DF8047B7047D0080020F2
S31508001F3080B582B000AF00237B6000233B60F0EEE3
S31508001F40006A9FED137AC6EE877AFDEEE77A17EEFA
S31508001F50902A3B689A420DDDFFF7DEFF03461A46D4
S31508001F607B6813447B60012007F000F93B68013366
S31508001F703B60E4E73B6801337A6892FBF3F307EECC
S31508001F80903AF8EEE77AB0EE670A0837BD4680BDA4
S31508001F906F12833A80B500AFFFF7CAFFF0EE407ABA
S31508001FA0024BC3ED007A00BF80BD00BFDC080020ED
S31508001FB080B400AF064B4FF000021A60054B4FF095
S31508001FC000021A6000BFBD465DF8047B704700BF7B
S31508001FD0D4080020D808002080B400AF094BD3ED00
S31508001FE0007A9FED097A27EE877A084BD3ED007AB7
S31508001FF077EE277A054BC3ED007A00BFBD465DF83C
S31508002000047B7047E00800206F12833AD808002046
S3150800201080B400AF044B1B6807EE903AB0EE670A2F
S31508002020BD465DF8047B7047D80800200000000014
S3150800203098B500AF164B1B881BB207EE903AB8EE60
S31508002040E77A144BD3ED007A77EE677A17EE900AA3
S31508002050FEF76CFA0CA3D3E90023FEF7E5FB03466B
S315080020600C4618462146FEF76FFD034600EE103A69
S3150800207007F02AF8F0EE407A074BC3ED007A00BF66
S3150800208098BD00BFAFF30080666666666666304038
S31508002090D0080020DC080020E008002080B400AF4B
S315080020A0044B1B6807EE903AB0EE670ABD465DF82A
S315080020B0047B7047E008002090B585B000AF4FF06C
S315080020C00003FB604FF00003BB600023FB71FB7944
S315080020D00133132B31DCFB79FA7901326C49920012
S315080020E00A4412686A499B000B441A60FB79684ADD
S315080020F09B001344D3ED007A97ED037A77EE277A9F
S31508002100C7ED037AFB79FA790132624992000A44EB
S31508002110126860499B000B441A60FB795D4A9B0074
S315080021201344D3ED007A97ED027A77EE277AC7ED56
S31508002130027AFB790133FB71C9E7574B5B6A07EEF5
S31508002140903AF8EE677A9FED557A77EE677A17EE4A
S31508002150900AFEF7EBF948A3D3E90023FEF73AFA0B
S3150800216003460C461846214645A3D3E90023FEF745
S315080021705BFB03460C461846214643A3D3E90023D6
S31508002180FEF728FA03460C4618462146FEF7DCFCFD
S3150800219002463F4BDA644FF080435B6A07EE903A9B
S315080021A0F8EE677A9FED3D7A77EEC77A17EE900AD2
S315080021B0FEF7BCF930A3D3E90023FEF70BFA034672
S315080021C00C46184621462EA3D3E90023FEF72CFB1E
S315080021D003460C46184621462BA3D3E90023FEF7EF
S315080021E0F9F903460C4618462146FEF7ADFC0246A9
S315080021F0284BDA644FF0804347F6FA725A62264B48
S3150800220047F6FA725A62224BD3ED137A97ED037AA0
S3150800221077EE277AC7ED037A1D4BD3ED137A97ED40
S31508002220027A77EE277AC7ED027A97ED037AF3EE0C
S31508002230046AC7EE267A1A4BC3ED007A97ED027A3E
S31508002240F3EE046AC7EE267A164BC3ED007A144BF2
S3150800225093ED007A134BD3ED007A37EE277AF0EE3A
S31508002260006AC7EE267A104BC3ED007A00BF143712
S31508002270BD4690BDAFF300805D8940F50F22593FFA
S31508002280FCA9F1D24D62503F32E6AE25E4837E3F8B
S315080022900C0B00205C0B00200004004000F4FF46F5
S315080022A0EC080020E8080020F008002080B500AF00
S315080022B0FFF70EFEB0EE407AF3EE047A67EE277A61
S315080022C09FED077A67EE877AF0EE006A87EEA67AC0
S315080022D0044BD3ED007A77EE277AB0EE670A80BD15
S315080022E06F12833AF008002080B584B000AF034629
S315080022F00A46FB711346BB71FB79042B23D801A24E
S3150800230052F823F01923000819230008232300088C
S315080023102F2300083B230008144BFB6004237B8112
S3150800232011E0134BFB604FF400637B810BE0104B0D
S31508002330FB604FF480637B8105E00D4BFB604FF437
S3150800234080537B8100BFBB79002B05D07B8919465A
S31508002350F86807F051FB04E07B891946F86807F02E
S315080023605BFB00BF1037BD4680BD00BF000C0240B6
S315080023700008024080B584B000AF0346FB71FB79C4
S31508002380042B26D801A252F823F000BFA123000887
S31508002390AB230008B5230008BF230008C92300089B
S315080023A01E4BBB600F23FB7313E01C4BBB600B2358
S315080023B0FB730EE0194BBB600823FB7309E0174B50
S315080023C0BB600A23FB7304E0144BBB600E23FB734C
S315080023D000BF0221B86807F03DFAF97B0023012205
S315080023E0B86807F019F9B86807F0E0F90221B86883
S315080023F007F016FA0346002B0CBF01230023DBB2B5
S31508002400002B00D0F2E7B86807F0E0F903461B1185
S315080024109BB218461037BD4680BD00BF002001405C
S3150800242080B582B000AF0346FB71FB7901211846DF
S31508002430FFF75AFF00BF0837BD4680BD80B582B09A
S3150800244000AF0346FB71FB7900211846FFF74CFFE6
S3150800245000BF0837BD4680BD80B500AF0020FFF736
S31508002460EDFF0120FFF7EAFF0220FFF7E7FF032051
S31508002470FFF7E4FF00BF80BDB0B586B000AF0346E6
S315080024800A46FB711346BB800023FB824FF000030C
S315080024903B610023FB73FB7B0133092B00F385802B
S315080024A0FA79F87BF979FB7B5C1C824D0B469B001D
S315080024B00B445B00234435F813407E4913469B00C2
S315080024C013445B000344224621F81320FA79F97B6A
S315080024D0784813469B0013445B000B4430F81330CE
S315080024E09AB2FB8A13449BB2FB82FB7B0133092B0E
S315080024F057DCFA79F87BF979FB7B5C1C6E4D0B4649
S315080025009B000B445B00234435F813406A49134685
S315080025109B0013445B000344224621F81320FA79F2
S31508002520F87BF979FB7B5C1C644D0B469B000B44DE
S315080025305B0023449B002B441968604C13469B00A0
S3150800254013445B0003449B0023441960FA79F87B23
S31508002550F979FB7B5C1C5A4D0B469B000B445B00D0
S315080025602B4423441C78564913469B0013445B00AE
S315080025700B44034422461A70FA79F97B4E481346EF
S315080025809B0013445B000B4430F813301BB207EE74
S31508002590903AF8EEE77A97ED047A77EE277AC7ED60
S315080025A0047AFB7B0133FB7375E7FA7941491346D5
S315080025B09B0013449B000B441233BA881A80FA8A8C
S315080025C0BB8813449BB2FB82B7F916303D4A82FB9F
S315080025D003129210DB17D31ABB81FA7936491346D0
S315080025E09B0013449B000B441233BA891A80B7F92F
S315080025F00C3007EE903AF8EEE77A97ED047A77EE24
S31508002600277AC7ED047AFA79D7ED047AF2EE046AE6
S3150800261087EEA67AB7F90C3007EE903AF8EEE77A25
S3150800262077EE677A254913469B001344DB000B4473
S315080026302433C3ED007AFC79FB79184600F056FA84
S31508002640034619461E4A23469B0023445B0013444F
S3150800265009330A461A70FB79042B26D801A252F8C8
S3150800266023F000BF79260008832600088D26000877
S3150800267097260008A1260008B7F90C30124A1360FD
S3150800268013E0B7F90C30114A13600EE0B7F90C30B5
S315080026900F4A136009E0B7F90C300E4A136004E0DC
S315080026A0B7F90C300C4A136000BF00BF1837BD4697
S315080026B0B0BD00BFAC0B0020F4080020580900206C
S315080026C0200A002067666666540A0020580A002019
S315080026D05C0A0020600A0020640A002090B587B0D2
S315080026E000AF0346FB71FFF7B7FE0020FFF742FE77
S315080026F003469BB21BB21946002000F011F90120CF
S31508002700FFF738FE03469BB21BB21946012000F0BC
S3150800271007F90220FFF72EFE03469BB21BB21946A5
S31508002720022000F0FDF80320FFF724FE03469BB2C3
S315080027301BB21946032000F0F3F80420FFF71AFE2F
S3150800274003469BB21BB21946042000F0E9F8FB7950
S31508002750002B0FD00020FFF763FE0120FFF760FE75
S3150800276000237B617B69B3F5FA6F03DA7B69013372
S315080027707B61F7E70020FFF7FDFD03461C460020B6
S3150800278000F092F803469BB2E31A9BB29BB21BB2C7
S3150800279019460020FFF770FE0120FFF7EBFD034600
S315080027A01C46012000F080F803469BB2E31A9BB250
S315080027B09BB21BB219460120FFF75EFE0020FFF709
S315080027C03DFEFB79002B0CD00220FFF729FE0023E3
S315080027D03B613B69B3F57A7F03DA3B6901333B61B9
S315080027E0F7E70220FFF7C6FD03461C46022000F065
S315080027F05BF803469BB2E31A9BB29BB21BB219461F
S315080028000220FFF739FE0220FFF718FEFB79002B9E
S315080028100CD00320FFF704FE0023FB60FB68B3F52A
S315080028207A7F03DAFB680133FB60F7E70320FFF7DB
S31508002830A1FD03461C46032000F036F803469BB26A
S31508002840E31A9BB29BB21BB219460320FFF714FE8C
S315080028500320FFF7F3FDFB79002B0CD00420FFF7CC
S31508002860DFFD0023BB60BB68B3F57A7F03DABB687C
S315080028700133BB60F7E70420FFF77CFD03461C46DF
S31508002880042000F011F803469BB2E31A9BB29BB2F0
S315080028901BB219460420FFF7EFFD0420FFF7CEFD13
S315080028A000BF1C37BD4690BD80B483B000AF034659
S315080028B0FB71FB79042B21D801A252F823F000BF43
S315080028C0D5280008DD280008E5280008ED280008B6
S315080028D0F52800080D4B1B689BB210E00C4B1B68D3
S315080028E09BB20CE00B4B1B689BB208E00A4B1B68BB
S315080028F09BB204E0094B1B689BB200E000231BB2A5
S3150800290018460C37BD465DF8047B7047680A0020F8
S315080029106C0A0020700A0020740A0020780A002039
S3150800292080B483B000AF03460A46FB711346BB80EA
S31508002930FB79042B25D801A252F823F05129000867
S315080029405B290008652900086F290008792900080D
S31508002950B7F904300E4A136013E0B7F904300D4A8C
S3150800296013600EE0B7F904300B4A136009E0B7F9B3
S3150800297004300A4A136004E0B7F90430084A1360C1
S3150800298000BF00BF0C37BD465DF8047B704700BF2B
S31508002990680A00206C0A0020700A0020740A0020C9
S315080029A0780A002080B483B000AF0346FB71FB7938
S315080029B0042B21D801A252F823F000BFD129000820
S315080029C0D9290008E1290008E9290008F1290008A1
S315080029D00D4B1B689BB210E00C4B1B689BB20CE0BE
S315080029E00B4B1B689BB208E00A4B1B689BB204E0C2
S315080029F0094B1B689BB200E000231BB218460C3734
S31508002A00BD465DF8047B7047540A0020580A00202A
S31508002A105C0A0020600A0020640A002090B583B092
S31508002A2000AF0346FB71FB79012B2BD0022B15D087
S31508002A30002B3BD10020FFF7B5FF03461C460020BC
S31508002A4003F012FA03469C42ACBF01230023DBB213
S31508002A50002B01D001232AE0002328E00120FFF7FC
S31508002A60A1FF03461C46012003F0FEF903469C42DB
S31508002A70ACBF01230023DBB2002B01D0012316E0F3
S31508002A80002314E00420FFF78DFF03461C460420AC
S31508002A9003F0EAF903469C42ACBF01230023DBB2EC
S31508002AA0002B01D0012302E0002300E00023184692
S31508002AB00C37BD4690BD00BF90B583B000AF034646
S31508002AC0FB71FB791846FFF76DFF03461C46FB7939
S31508002AD0184603F0C9F903469C42ACBF01230023FC
S31508002AE0DBB218460C37BD4690BD00BF80B485B032
S31508002AF000AF0346FB710023FB730023BB73BB7B4C
S31508002B00092B1FD8FA79B97B124813469B00134440
S31508002B105B000B449B000344D3ED007AF5EEC07AC4
S31508002B20F1EE10FA05D5FB7BDBB2013BDBB2FB739A
S31508002B3004E0FB7BDBB20133DBB2FB73BB7B013307
S31508002B40BB73DCE7FB7B18461437BD465DF8047B90
S31508002B50704700BF5809002090B583B000AF034600
S31508002B60FB71FB791846FFF7C1FF03465B4218461F
S31508002B70FDF7CAFC01231C464FF00002084BFDF77F
S31508002B809BFF0346002B01D100231C46E3B2002B12
S31508002B9001D0002300E0012318460C37BD4690BD3E
S31508002BA00000204080B483B000AF0346FB71FB7978
S31508002BB0012B1DD0022B35D0002B4DD12B4BD3ED3D
S31508002BC0007AB3EE0E7A27EE877A284BD3ED017A90
S31508002BD0DFED276A67EEA67A37EE277A234BD3ED21
S31508002BE0027ADFED246A67EEA67A77EE277A35E071
S31508002BF0214BD3ED007A9FED217A27EE877A1E4B7B
S31508002C00D3ED017ADFED1E6A67EEA67A37EE277AEC
S31508002C10194BD3ED027ADFED176A67EEA67A77EEDF
S31508002C20277A1BE0174BD3ED007A9FED177A27EE2C
S31508002C30877A144BD3ED017ADFED0E6A67EEA67A32
S31508002C4037EE277A0F4BD3ED027ADFED0A6A67EE85
S31508002C50A67A77EE277A01E0DFED067AB0EE670A04
S31508002C600C37BD465DF8047B704700BF800A00201C
S31508002C700000164300000000980A00200000614486
S31508002C800000FA448C0A0020CDCCCC3D00000000A0
S31508002C90B0B52DED028B86B000AF4FF000037B6117
S31508002CA04FF000033B61B04B1B68FB6003F0D8FA9A
S31508002CB0B0EE408AFFF7FAFAF0EE407A78EE677AD5
S31508002CC0A94BC3ED007AA84B5B681846FDF72EFCA6
S31508002CD004460D46A44B1B681846FDF727FCA0A31F
S31508002CE0D3E90023FDF776FC02460B462046294623
S31508002CF0FDF7BEFA03460C4618462146FDF724FFA3
S31508002D000246994B5A60994B1B68FB604FF00003CB
S31508002D103B604FF00003BB604FF000037B60002070
S31508002D20FFF7CAFE0346002B06D000F0B7FA0346A3
S31508002D30002B01D0012300E00023002B47D0002000
S31508002D4003F068F807EE900AF8EE677AC7ED027A9C
S31508002D500020FFF727FE034607EE903AF8EEE77ADB
S31508002D60C7ED017A97ED017AD7ED027A77EE677AA1
S31508002D70C7ED007AD7ED007AF5EEC07AF1EE10FAD3
S31508002D800CD5D7ED007ABBEE0E7AF4EEC77AF1EEE3
S31508002D9010FA4CBF01230023DBB20BE0D7ED007A13
S31508002DA0B3EE0E7AF4EEC77AF1EE10FACCBF012331
S31508002DB00023DBB2002B01D03B687B610020FFF7C4
S31508002DC0CBFE0346002B02D04FF000037B610120A7
S31508002DD0FFF772FE0346002B06D000F05FFA0346A3
S31508002DE0002B01D0012300E00023002B47D001204F
S31508002DF003F010F807EE900AF8EE677AC7ED027A44
S31508002E000120FFF7CFFD034607EE903AF8EEE77A82
S31508002E10C7ED017A97ED017AD7ED027A77EE677AF0
S31508002E20C7ED007AD7ED007AF5EEC07AF1EE10FA22
S31508002E300CD5D7ED007ABAEE047AF4EEC77AF1EE3D
S31508002E4010FA4CBF01230023DBB20BE0D7ED007A62
S31508002E50B2EE047AF4EEC77AF1EE10FACCBF01238B
S31508002E600023DBB2002B01D03B683B610120FFF752
S31508002E7073FE0346002B02D04FF000037B6103F07C
S31508002E80EFF9B0EE407AF4EE007AB4EEE77AF1EEB6
S31508002E9010FA4CBF01230023DBB2002B05D04FF0FC
S31508002EA000033B614FF000037B6197ED057AD7ED90
S31508002EB0047A77EE677A2D4BC3ED007A2C4B1B68A4
S31508002EC0FB6003F0EBF9B0EE408AFFF7E7F8F0EEA7
S31508002ED0407A78EE677A264BC3ED007A244B5B6816
S31508002EE01846FDF723FB04460D46214B1B6818467A
S31508002EF0FDF71CFB1AA3D3E90023FDF76BFB02467B
S31508002F000B4620462946FDF7B3F903460C461846F4
S31508002F102146FDF719FE0246154B5A60134BD3EDB1
S31508002F20007AF5EE407AF1EE10FA06D000F0B6F91E
S31508002F300346002B01D0012300E00023002B04D018
S31508002F400B4B4FF000025A6003E0084B4FF00002AB
S31508002F505A6000BF1837BD46BDEC028BB0BD00BF36
S31508002F60FCA9F1D24D62503F980A00208C0A002035
S31508002F70800A002080B500AF0120FFF713FEF0EEAF
S31508002F80407AB0EE670A80BD80B52DED028B00AFA2
S31508002F900D4B1B78002B0CD00020FFF703FEB0EE7C
S31508002FA0408A0220FFF7FEFDF0EE407A78EE677A57
S31508002FB004E00020FFF7F6FDF0EE407AB0EE670A6F
S31508002FC0BD46BDEC028B80BDA50A002080B400AFCB
S31508002FD0034B01221A7000BFBD465DF8047B70479B
S31508002FE0A50A002080B400AF034B00221A7000BF68
S31508002FF0BD465DF8047B7047A50A002080B400AF83
S31508003000034B01221A7000BFBD465DF8047B70476A
S31508003010A40A002080B400AF034B00221A7000BF38
S31508003020BD465DF8047B7047A40A002080B52DEDE7
S31508003030028B82B000AF0346FB7197F90730002B6D
S315080030400AD1FFF797FFB0EE408AFFF79DFFF0EE33
S31508003050407A78EE677A09E0FFF78CFFB0EE408A8F
S31508003060FFF792FFF0EE407A78EE277AB0EE670A1D
S315080030700837BD46BDEC028B80BD00BF00000000CE
S31508003080B0B52DED028B84B000AF0346FB7197F9FE
S315080030900730002B18D103F0E3F8B0EE408A03F0AE
S315080030A0FDF8B0EE407ADFED487A67EE277AF0EE63
S315080030B0006A87EEA67ADFED456AC7EE267A78EECD
S315080030C0677AC7ED037A17E003F0CAF8B0EE408ACC
S315080030D003F0E4F8B0EE407ADFED3B7A67EE277A44
S315080030E0F0EE006A87EEA67ADFED386AC7EE267A32
S315080030F078EE277AC7ED037AF868FDF717FA2EA354
S31508003100D3E90023FDF790FB03460C4618462146F3
S315080031104FF000022E4BFDF75DFA03460C461846A3
S3150800312021464FF000022B4BFDF77EFB03460C466B
S31508003130184621464FF00002274BFDF74BFA034687
S315080031400C46184621464FF00002244BFDF76CFB4F
S3150800315003460C461846214619A3D3E90023FDF772
S3150800316063FB03460C4625461C46FEF791F810EE0F
S31508003170103A1846FDF7DAF902460B462046294664
S31508003180FDF752FB03460C46184621464FF000024F
S31508003190134BFDF71FFA03460C4618462146FDF762
S315080031A0D3FC034607EE903AB0EE670A1037BD46E1
S315080031B0BDEC028BB0BD00BFF5E9D0A8828A083FF6
S315080031C03333333333D36B400000304200007A4444
S315080031D000804440000022400000164000001240D3
S315080031E00000594080B582B000AF00F04BF80346A6
S315080031F0002B3FD0214B1B78002B03D1204B1B788B
S31508003200002B37D04FF000037B604FF000033B6084
S315080032101A4B1B78002B09D00020FFF731FF87EDEA
S31508003220010A0220FFF72CFF87ED000A144B1B78D2
S31508003230002B15D00020FFF7F9FEB0EE407AD7ED47
S31508003240017A77EE877AC7ED017A0220FFF7EEFE5C
S31508003250B0EE407AD7ED007A77EE877AC7ED007A36
S3150800326097ED010A0120FEF7ABFA97ED000A002058
S31508003270FEF7A6FA00BF0837BD4680BDA60A00209D
S315080032800800002080B400AF034B1B781846BD46E3
S315080032905DF8047B704700BFA40A002080B400AF25
S315080032A0034B1B781846BD465DF8047B704700BF84
S315080032B0A50A002080B500AF002000F009F802201A
S315080032C000F006F8012000F003F800BF80BD00BF3B
S315080032D080B483B000AF0346FB71FB79032B33D868
S315080032E001A252F823F000BFF93200082D33000876
S315080032F01333000847330008164B4FF000021A60D4
S31508003300144B4FF000025A60124B4FF000029A60BD
S315080033101AE0114B4FF000021A600F4B4FF00002F3
S315080033205A600D4B4FF000029A600DE00B4B4FF0C0
S3150800333000021A60094B4FF000025A60074B4FF023
S3150800334000029A6000E000BF00BF0C37BD465DF87A
S31508003350047B7047800A00208C0A0020980A002007
S3150800336080B500AF154BD3ED007AF5EEC07AF1EED5
S3150800337010FA0DD5114BD3ED007ABFEE007AF4EEB4
S31508003380C77AF1EE10FA4CBF01230023DBB20CE03A
S315080033900A4BD3ED007AB7EE007AF4EEC77AF1EE6F
S315080033A010FACCBF01230023DBB2002B04D0FEF7B2
S315080033B0DDFA012003F082F800BF80BD980A0020DC
S315080033C080B483B000AF03463960FB7197F90730C4
S315080033D0002B0BDA0D49FB7903F00F03043B3A681F
S315080033E0D2B21201D2B20B441A7609E0084997F90B
S315080033F007303A68D2B21201D2B20B4483F80023DE
S3150800340000BF0C37BD465DF8047B704700ED00E051
S3150800341000E100E080B582B000AF78607B68013BD0
S31508003420B3F1807F01D301230FE00A4A7B68013B91
S3150800343053600F214FF0FF30FFF7C2FF054B002204
S315080034409A60044B07221A60002318460837BD46BF
S3150800345080BD00BF10E000E080B500AF00F00EF8B8
S3150800346000F024F800F0F8F800F05EF900F0A2F990
S3150800347000F008FA00F0D4FA00BF80BD80B584B029
S3150800348000AF05F06BFD3B46184606F01FFB7B6850
S31508003490054AA2FB03239B091846FFF7BBFF00BF9B
S315080034A01037BD4680BD00BFD34D621080B582B0CF
S315080034B000AF634A624B1B6823F0847323F480339E
S315080034C013600121012006F0ABFB0121022006F062
S315080034D0A7FB0121042006F0A3FB0121082006F022
S315080034E09FFB0121802006F09BFB3B46184606F011
S315080034F04FFA49F210033B6002237B7101233B71AB
S315080035000023BB710023FB713B4619464D4806F064
S31508003510B1F94FF480433B603B4619464A4806F0EA
S31508003520A9F94FF480433B6000233B710123FB71EB
S315080035303B461946434806F09DF93B46184606F0B1
S3150800354027FA4DF60C433B6002237B7101233B713E
S315080035500023BB710023FB713B4619463B4806F026
S3150800356089F90421394806F047FA0821374806F050
S3150800357043FA4FF48061354806F03EFA4FF400618D
S31508003580324806F039FA4FF48051304806F034FADA
S315080035904FF480412D4806F02FFA4FF400412B488E
S315080035A006F02AFA3B46184606F0F2F903233B6072
S315080035B002237B7101233B710023BB710023FB713E
S315080035C03B461946224806F055F90121204806F0DF
S315080035D013FA02211E4806F00FFA3B46184606F073
S315080035E0D7F94FF4E0533B6002237B7101233B710B
S315080035F00023BB710023FB713B461946134806F0AE
S3150800360039F904233B603B461946124806F032F95D
S315080036104FF480610D4806F0FFF94FF400610B483E
S3150800362006F0FAF94FF48051084806F0F5F9042136
S31508003630084806F0F1F900BF0837BD4680BD00BF4F
S315080036400038024000040240000002400008024020
S31508003650001C0240000C024080B58CB000AF01216E
S31508003660022006F0DDFA0121042006F0D9FA07F156
S315080036702803184606F08CF9032387F82C30002314
S3150800368087F82F30022387F82D300323BB6207F112
S3150800369028031946214806F0EDF83323BB6207F1E3
S315080036A0280319461E4806F0E5F800211D4805F0CE
S315080036B097FF01214FF4807006F0F2FA05F004FF37
S315080036C000233B604FF480337B600023BB604FF4DC
S315080036D07063FB603B46184605F05AFF00233B61C2
S315080036E000233B7500237B750023BB6100233B62E7
S315080036F0092387F8243007F110031946094805F00D
S31508003700F1FE0121074805F06BFF0021054806F088
S315080037106BF800BF3037BD4680BD00BF00040240CD
S31508003720000802400020014080B586B000AF0121A4
S31508003730102006F0B5FA0121012006F071FA0722D9
S3150800374009211A4806F078F907220A21174806F0CF
S3150800375073F94FF4C0633B6102237B7502233B7503
S3150800376007F110031946114806F084F84FF4E133BF
S315080037703B600023BB800023FB8000233B810023A2
S31508003780BB810C237B813B461946094806F0CEFDD2
S31508003790012240F22551064806F0B6FE01210448EA
S315080037A006F080FE00BF1837BD4680BD0000024007
S315080037B00010014080B588B000AF01214FF4805059
S315080037C006F06EFA0121012006F02AFA07F118031D
S315080037D0184606F0DDF81023BB6101233B77032367
S315080037E07B770023BB770023FB7707F1180319467D
S315080037F0224806F03FF802233B77E023BB6107F136
S31508003800180319461D4806F035F810211B4806F01E
S31508003810F3F805220521194806F00EF905220621B6
S31508003820164806F009F905220721144806F004F996
S315080038300023BB804FF48273FB8000233B81002367
S315080038407B810023BB814FF44073FB8110233B82AD
S3150800385000237B820723BB823B1D1946084806F0D6
S315080038605FFA0121064806F09FFA1021034806F080
S31508003870C3F800BF2037BD4680BD00BF0000024028
S315080038800030014080B58AB000AF0121012006F062
S31508003890C7F90121022006F0C3F904233B6203237A
S315080038A087F82530012387F82430002387F8263047
S315080038B0012387F8273007F120031946534805F0F6
S315080038C0D9FF0421514806F0A7F80121042006F083
S315080038D0C7F90121082006F0C3F903233B62022336
S315080038E087F82430022387F82530002387F8263006
S315080038F0002387F8273007F120031946434805F0C7
S31508003900B9FFC0233B6207F120031946404805F07A
S31508003910B1FF40F2EB43BB610023BB820023BB83AC
S315080039200023FB820023BB7707F1140319463948A5
S3150800393006F094FA07F114031946374806F08EFA8A
S3150800394060233B800023BB8101237B800023BB606F
S315080039503B4619462F4806F03BFB08212D4806F042
S3150800396039FC3B4619462B4806F0ACFB082129488A
S3150800397006F04CFC3B461946274806F029FB082169
S31508003980254806F027FC3B461946234806F09AFBCD
S315080039900821214806F03AFC01214FF0804006F044
S315080039A0D7FA01214FF0804006F04EFC01211B4852
S315080039B006F0CEFA0121194806F046FC0222062135
S315080039C0134806F039F802220721114806F034F8A0
S315080039D0022200210D4806F02FF8022201210B4889
S315080039E006F02AF801210B4806F0B2FA01210A4826
S315080039F006F0AEFA0121074806F0CAFA0121064880
S31508003A0006F0C6FA00BF2837BD4680BD0000024052
S31508003A100004024000080040000C0040000400407A
S31508003A2080B586B000AF0121022006F0F9F8012121
S31508003A30042006F0F5F80121012006F011F901210C
S31508003A40022006F00DF902220621394805F0F4FF96
S31508003A5002220721364805F0EFFF01220F213548DB
S31508003A6005F0EAFF01220321334805F0E5FF07F1D7
S31508003A701003184605F08CFFC0233B6102233B75F3
S31508003A8002237B750023BB750023FB7507F1100322
S31508003A901946274805F0EEFE4FF400433B6107F14F
S31508003AA010031946234805F0E5FE08233B6107F194
S31508003AB010031946204805F0DDFE4FF6FE73BB607D
S31508003AC00023BB800023BB810023FB800023BB733C
S31508003AD03B1D19464FF0804006F0C0F93B1D1946BC
S31508003AE0164806F0BBF94FF6FF714FF0804006F016
S31508003AF021FA0023002203214FF0804006F0CAFB7A
S31508003B0001214FF0804006F043FA4FF6FF710B484B
S31508003B1006F010FA002300220321084806F0BAFB33
S31508003B200121064806F034FA00BF1837BD4680BDA5
S31508003B300008024000000240000402400004004061
S31508003B40F0B587B002AF0023FB81B7F90E30092B19
S31508003B501CDC00233B803B889BB21BB242F20F72EF
S31508003B609342D4BF01230023DBB2002B08D03B8845
S31508003B709BB29BB29BB201339BB29BB23B80EAE7F6
S31508003B80FB899BB201339BB2FB81DEE7FFF764FC3E
S31508003B9002F000FB052264210820FDF7C9FDFDF7A8
S31508003BA077FB10EE103A1846FCF7C0FC03460C46A5
S31508003BB01A462346C44805F051F9FDF769FB10EE8D
S31508003BC0103A1846FCF7B2FC01231C46BCA3D3E9FD
S31508003BD00023FCF771FF0346002B01D100231C4686
S31508003BE0E3B2002B1BD0FDF775FD4FF4FA7005F014
S31508003BF0BDFAFDF741FD4FF4FA7005F0B7FA4FF438
S31508003C008041B24805F0DEFE0346002B0CBF0123B7
S31508003C100023DBB2002BE6D0642005F0A7FAFDF7F7
S31508003C202BFDFEF767F8FDF727FD00F07DFFA84896
S31508003C3001F06EF90023FB704FF48041A34805F0AC
S31508003C40C1FE0346002B0CBF01230023DBB2002B69
S31508003C5000D0F1E7642005F089FAFDF719FB10EEAC
S31508003C60103A1846FCF762FC01231C4694A3D3E9D4
S31508003C700023FCF721FF0346002B01D100231C4635
S31508003C80E3B2002B1CD0FDF725FD4FF4FA7005F0C2
S31508003C906DFAFDF7F1FC4FF4FA7005F067FA4FF488
S31508003CA080418A4805F08EFE0346002B0CBF01238F
S31508003CB00023DBB2002BE6D0642005F057FA00BFDC
S31508003CC04FF48041814805F07DFE0346002B0CBF6A
S31508003CD001230023DBB2002B00D0F1E7642005F0B6
S31508003CE045FA0021072005F081FA0346FB70FB78A8
S31508003CF0062BA1D801A252F823F000BF193D0008EF
S31508003D00993D0008A33D0008BD3D0008C93D0008CF
S31508003D10A53E0008BF3F00080020FEF743FE034605
S31508003D2019466C4805F09AF80120FEF73BFE034653
S31508003D301946694805F092F80220FEF733FE034655
S31508003D401946664805F08AF80320FEF72BFE034657
S31508003D501946634805F082F80420FEF723FE034659
S31508003D601946604805F07AF85F4805F077F8642048
S31508003D7005F0FCF94FF48041544805F023FE03464C
S31508003D80002B0CBF01230023DBB2002BC4D0642018
S31508003D9005F0ECF900BF19E105F06EFAFDF7E6FD4E
S31508003DA014E101F0A1FC002000F040FF00209FED87
S31508003DB04F0A04F0FDF901F071FE07E100F0B4FEC8
S31508003DC0434801F0A5F801E101224FF4FA710820F1
S31508003DD0FDF7AEFC0420FEF76FFE0346002B00D16C
S31508003DE0F2E700BF4FF4FA710320FDF7C7FC012183
S31508003DF0012002F04BFC3E4B3E4A1A609FED3E1AEC
S31508003E000020F5EE000A9FED3D0A03F09FFB002215
S31508003E100021012003F048FE0020DFED340A9FED63
S31508003E20380A03F0C1F94FF47A7005F09FF9FDF7E7
S31508003E309DFDFDF721FC4FF48041244805F0C2FDA5
S31508003E400346012B0CBF01230023DBB2002B00D055
S31508003E50F1E70023BB60BB68B3F5FA6F80F2B38065
S31508003E60234ABB689B0013441B681846FCF75EFB95
S31508003E7005460E461E4ABB6803F51C5310339B00C5
S31508003E8013441B681846FCF751FB03460C46CDE95C
S31508003E9000342A4633461B4804F0E0FFBB6801336A
S31508003EA0BB60D8E701224FF4FA710820FDF740FC01
S31508003EB00420FEF701FE0346002B25D1F2E700BFDA
S31508003EC06666666666660E40B8E20008000402404A
S31508003ED04C490120C4E20008D0E20008DCE20008F0
S31508003EE0E8E20008F4E2000800E300080000000029
S31508003EF0140C0020000080BFEC51B83DEC51383E50
S31508003F00EC51383D04E3000800BF4FF4FA71032072
S31508003F10FDF734FC0121012002F0B8FB2C4B2D4A99
S31508003F201A609FED2D1A0020F5EE000A9FED2B0A68
S31508003F3003F00CFB0020DFED2A0A9FED2A0A03F0A6
S31508003F4033F94FF47A7005F011F9FDF70FFDFDF717
S31508003F5093FB4FF48041244805F034FD0346012BBA
S31508003F600CBF01230023DBB2002B00D0F1E70023AE
S31508003F707B607B68B3F5FA6F27DA154A7B689B0086
S31508003F8013441B681846FCF7D1FA05460E46104A34
S31508003F907B6803F51C5310339B0013441B681846B3
S31508003FA0FCF7C4FA03460C46CDE900342A463346E4
S31508003FB00E4804F053FF7B6801337B60D9E7002085
S31508003FC000F034FE02E000BF36E600BF34E600BF6C
S31508003FD0140C0020000080BFEC51B83DEC51383E6F
S31508003FE000000000EC51383D0004024004E30008DC
S31508003FF098B500AF4FF48041404805F0FDFC404BB2
S315080040001B6801333E4A136002F0D0F83C4B1B682C
S31508004010184605F083F80120FEF760FBFDF766FFFA
S31508004020FDF78AFEFEF748F802F0FEFAFEF730FEC4
S31508004030FFF7D8F8FFF794F9FDF7DCFC0346002BE9
S3150800404054D0304B1B889BB2002B0CBF0123002396
S31508004050DBB2002B11D02C4BD3ED007ABFEE007AE1
S31508004060F4EE477AF1EE10FA40D1264B1B889BB244
S3150800407001339AB2234B1A8038E0224B1B889BB235
S3150800408042F20F72934294BF01230023DBB2002B46
S315080040902CD01C4B1B889BB21C4602F025F9F0EE6F
S315080040A0407A194AA3001344C3ED007A154B1B88BE
S315080040B09BB21C460120FEF775FC034607EE903AB4
S315080040C0F8EEE77A104A04F51C5310339B001344A4
S315080040D0C3ED007A0B4B1B889BB201339AB2094B8E
S315080040E01A804FF48041054805F096FC4FF480414C
S315080040F0024805F091FC00BF98BD00BF00000240D1
S31508004100100C002094440120140C002080B485B0C3
S3150800411000AF78600B46FB701346BB70BB78002B6C
S3150800412002D00123FB7301E00023FB73FB781F2BEE
S3150800413000F2848101A252F823F000BFBD410008B5
S31508004140D1410008E5410008F94100080D42000880
S315080041502142000835420008494200085D4200082D
S31508004160714200088542000899420008AD420008DD
S31508004170C1420008D5420008E9420008FD4200088D
S315080041801143000825430008394300084D43000839
S315080041906143000875430008894300089D430008E9
S315080041A0B1430008C5430008D9430008ED43000899
S315080041B0014400081544000829440008FB7B03F065
S315080041C00103D9B27A68137861F30003137035E1F5
S315080041D0FB7B03F00103D9B27A68137861F34103D4
S315080041E013702BE1FB7B03F00103D9B27A681378CD
S315080041F061F38203137021E1FB7B03F00103D9B25B
S315080042007A68137861F3C303137017E1FB7B03F035
S315080042100103D9B27A68137861F3041313700DE1B8
S31508004220FB7B03F00103D9B27A68137861F345136F
S31508004230137003E1FB7B03F00103D9B27A681378A4
S3150800424061F386131370F9E0FB7B03F00103D9B21F
S315080042507A68137861F3C7131370EFE0FB7B03F0FA
S315080042600103D9B27A68537861F300035370E5E025
S31508004270FB7B03F00103D9B27A68537861F34103F3
S315080042805370DBE0FB7B03F00103D9B27A685378FD
S3150800429061F382035370D1E0FB7B03F00103D9B2CB
S315080042A07A68537861F3C3035370C7E0FB7B03F066
S315080042B00103D9B27A68537861F304135370BDE0E9
S315080042C0FB7B03F00103D9B27A68537861F345138F
S315080042D05370B3E0FB7B03F00103D9B27A685378D5
S315080042E061F386135370A9E0FB7B03F00103D9B28F
S315080042F07A68537861F3C71353709FE0FB7B03F02A
S315080043000103D9B27A68937861F30003937095E054
S31508004310FB7B03F00103D9B27A68937861F3410312
S3150800432093708BE0FB7B03F00103D9B27A6893782C
S3150800433061F38203937081E0FB7B03F00103D9B23A
S315080043407A68937861F3C303937077E0FB7B03F095
S315080043500103D9B27A68937861F3041393706DE018
S31508004360FB7B03F00103D9B27A68937861F34513AE
S31508004370937063E0FB7B03F00103D9B27A68937804
S3150800438061F38613937059E0FB7B03F00103D9B2FE
S315080043907A68937861F3C71393704FE0FB7B03F059
S315080043A00103D9B27A68D37861F30003D37045E084
S315080043B0FB7B03F00103D9B27A68D37861F3410332
S315080043C0D3703BE0FB7B03F00103D9B27A68D3785C
S315080043D061F38203D37031E0FB7B03F00103D9B2AA
S315080043E07A68D37861F3C303D37027E0FB7B03F0C5
S315080043F00103D9B27A68D37861F30413D3701DE048
S31508004400FB7B03F00103D9B27A68D37861F34513CD
S31508004410D37013E0FB7B03F00103D9B27A68D37833
S3150800442061F38613D37009E0FB7B03F00103D9B26D
S315080044307A68D37861F3C713D37000BF00BF143707
S31508004440BD465DF8047B704780B485B000AF7860E0
S315080044500B46FB700023FB73FB781F2B00F20481CD
S3150800446001A252F823F000BFE9440008F544000809
S31508004470014500080D4500081945000825450008AE
S31508004480314500083D4500084945000855450008DE
S31508004490614500086D45000879450008854500080E
S315080044A0914500089D450008A9450008B54500083E
S315080044B0C1450008CD450008D9450008E54500086E
S315080044C0F1450008FD45000809460008154600089C
S315080044D0214600082D4600083946000845460008CA
S315080044E0514600085D4600083B79C3F30003DBB27A
S315080044F0FB73B9E03B79C3F34003DBB2FB73B3E06C
S315080045003B79C3F38003DBB2FB73ADE03B79C3F3BE
S31508004510C003DBB2FB73A7E03B79C3F30013DBB23E
S31508004520FB73A1E03B79C3F34013DBB2FB739BE05B
S315080045303B79C3F38013DBB2FB7395E03B79C3F396
S31508004540C013DBB2FB738FE07B79C3F30003DBB2E6
S31508004550FB7389E07B79C3F34003DBB2FB7383E02B
S315080045607B79C3F38003DBB2FB737DE07B79C3F30E
S31508004570C003DBB2FB7377E07B79C3F30013DBB2CE
S31508004580FB7371E07B79C3F34013DBB2FB736BE01B
S315080045907B79C3F38013DBB2FB7365E07B79C3F3E6
S315080045A0C013DBB2FB735FE0BB79C3F30003DBB276
S315080045B0FB7359E0BB79C3F34003DBB2FB7353E0EB
S315080045C0BB79C3F38003DBB2FB734DE0BB79C3F35E
S315080045D0C003DBB2FB7347E0BB79C3F30013DBB25E
S315080045E0FB7341E0BB79C3F34013DBB2FB733BE0DB
S315080045F0BB79C3F38013DBB2FB7335E0BB79C3F336
S31508004600C013DBB2FB732FE0FB79C3F30003DBB205
S31508004610FB7329E0FB79C3F34003DBB2FB7323E0AA
S31508004620FB79C3F38003DBB2FB731DE0FB79C3F3AD
S31508004630C003DBB2FB7317E0FB79C3F30013DBB2ED
S31508004640FB7311E0FB79C3F34013DBB2FB730BE09A
S31508004650FB79C3F38013DBB2FB7305E0FB79C3F385
S31508004660C013DBB2FB7300BFFB7B18461437BD468D
S315080046705DF8047B704700BF80B584B000AF034681
S31508004680FB710B46BB7113467B71FB79FB73BB79D8
S31508004690BB737B79002B02D07B79022B24D17B79E3
S315080046A0002B08D07B79022B05D1FB79002B44D04F
S315080046B0FB79013BFB73FB7B0F2B09D8BB7B9B006C
S315080046C0214A1344F97B01221846FFF71FFD37E0FC
S315080046D002F04AFD1D4804F0C1FB1D4804F0BEFB6C
S315080046E01C4804F0BBFB2BE07B79012B02D07B79BD
S315080046F0032B25D17B79012B08D07B79032B05D198
S31508004700BB79002B1BD0BB79013BBB73BB7B0F2B43
S3150800471009D8FB7B9B00104A1344B97B0122184633
S31508004720FFF7F4FC0CE0094804F098FB0B4804F08A
S3150800473095FB084804F092FB02E000BF00E000BFCA
S315080047401037BD4680BD00BF1845012010E300089C
S3150800475020E3000868E300085845012084E30008C0
S3150800476080B584B000AF0346FB710B46BB71134698
S315080047707B71FB79FB73BB79BB737B79002B02D00A
S315080047807B79022B2BD17B79002B0AD07B79022BE4
S3150800479007D1FB79002B01D1012353E0FB79013BBB
S315080047A0FB73FB7B0F2B0DD8BB7BF97B274A52F893
S315080047B02300FFF749FE0346002B14BF01230023FD
S315080047C0DBB23FE002F0D0FC214804F047FB214869
S315080047D004F044FB204804F041FB012332E07B79D6
S315080047E0012B02D07B79032B2BD17B79012B0AD0A5
S315080047F07B79032B07D1BB79002B01D1012321E05B
S31508004800BB79013BBB73BB7B0F2B0DD8FB7BB97BFD
S31508004810124A52F82300FFF717FE0346002B14BF6F
S3150800482001230023DBB20DE002F09EFC084804F0E9
S3150800483015FB0B4804F012FB074804F00FFB012395
S3150800484000E0002318461037BD4680BD18450120F4
S3150800485010E3000874E40008BCE400085845012089
S31508004860D4E4000880B584B000AF0346FB710B465C
S31508004870BB7113467B71FB79FB73BB79BB737B7981
S31508004880002B02D07B79022B22D17B79002B08D012
S315080048907B79022B05D1FB79002B42D0FB79013BB2
S315080048A0FB73FB7B0F2B09D8BB7B9B00204A134469
S315080048B0F97B01221846FFF729FC35E01D4804F06C
S315080048C0CDFA1D4804F0CAFA1C4804F0C7FA2BE0D2
S315080048D07B79012B02D07B79032B25D17B79012BA0
S315080048E008D07B79032B05D1BB79002B1BD0BB796C
S315080048F0013BBB73BB7B0F2B09D8FB7B9B00104A84
S315080049001344B97B01221846FFF700FC0CE009485E
S3150800491004F0A4FA0B4804F0A1FA084804F09EFA39
S3150800492002E000BF00E000BF1037BD4680BD00BFF3
S315080049309844012010E300081CE500085CE500081F
S31508004940D844012074E5000880B584B000AF03465A
S31508004950FB710B46BB7113467B71FB79FB73BB7905
S31508004960BB737B79002B02D07B79022B22D17B7912
S31508004970002B08D07B79022B05D1FB79002B42D07E
S31508004980FB79013BFB73FB7B0F2B09D8BB7B9B0099
S31508004990204A1344F97B00221846FFF7B7FB35E097
S315080049A01D4804F05BFA1D4804F058FA1C4804F048
S315080049B055FA2BE07B79012B02D07B79032B25D185
S315080049C07B79012B08D07B79032B05D1BB79002B8A
S315080049D01BD0BB79013BBB73BB7B0F2B09D8FB7B79
S315080049E09B00104A1344B97B00221846FFF78EFB3A
S315080049F00CE0094804F032FA0B4804F02FFA08488C
S31508004A0004F02CFA02E000BF00E000BF1037BD46F4
S31508004A1080BD00BF9844012010E300081CE500088B
S31508004A20B4E50008D844012074E5000880B584B0D0
S31508004A3000AF0346FB710B46BB7113467B71FB79CE
S31508004A40FB73BB79BB737B79002B02D07B79022B76
S31508004A5029D17B79002B0AD07B79022B07D1FB79E8
S31508004A60002B01D101234FE0FB79013BFB73FB7B54
S31508004A700F2B0DD8BB7BF97B254A52F82300FFF78D
S31508004A80E3FC0346002B14BF01230023DBB23BE003
S31508004A90204804F0E3F9204804F0E0F91F4804F040
S31508004AA0DDF9012330E07B79012B02D07B79032BDA
S31508004AB029D17B79012B0AD07B79032B07D1BB79C6
S31508004AC0002B01D101231FE0BB79013BBB73BB7BE4
S31508004AD00F2B0DD8FB7BB97B114A52F82300FFF741
S31508004AE0B3FC0346002B14BF01230023DBB20BE003
S31508004AF0084804F0B3F90B4804F0B0F9074804F085
S31508004B00ADF9012300E0002318461037BD4680BDE5
S31508004B109844012010E30008CCE500080CE60008DC
S31508004B20D844012020E6000880B582B000AF0023F3
S31508004B307B607B680F2B17DC384A7B68002142F8BC
S31508004B402310374A7B68002142F82310354A7B68D0
S31508004B50002142F82310344A7B68002142F82310CA
S31508004B607B6801337B60E4E700233B603B680F2BDF
S31508004B703BDC3B68DBB2022219460020FFF772FED7
S31508004B803B68DBB2022219460020FFF775FD3B6839
S31508004B90DBB2002219460F20FFF764FE3B68DBB242
S31508004BA0002219460F20FFF767FD3B68DBB2032298
S31508004BB000211846FFF756FE3B68DBB203220021A8
S31508004BC01846FFF759FD3B68DBB201220F2118464C
S31508004BD0FFF748FE3B68DBB201220F211846FFF7B4
S31508004BE04BFD3B6801333B60C0E7002200210020F3
S31508004BF0FFF738FE002200210020FFF73DFD0122C5
S31508004C0000210020FFF7A0FE012200210020FFF767
S31508004C1033FD00BF0837BD4680BD00BF984401205C
S31508004C20D8440120184501205845012080B584B094
S31508004C3000AF0346FB710023FB730F23BB738B483E
S31508004C4004F00CF90023FB7397F90F300F2B08DCDF
S31508004C50874804F003F9FB7BDBB20133DBB2FB7355
S31508004C60F2E7844804F0FAF8834804F0F7F80023DA
S31508004C70FB7397F90F300E2B37DCFB79002B0BD023
S31508004C80FB7BBA7B1146184600F016FD034619460B
S31508004C907A4804F0E3F802E0794804F0DFF8FB7B91
S31508004CA0B97B00221846FFF7C1FE0346002B0AD13E
S31508004CB0FB7B0133DBB2B97B02221846FFF7B6FE4F
S31508004CC00346002B01D0012300E00023002B03D06C
S31508004CD0694804F0C3F802E06A4804F0BFF8FB7BB1
S31508004CE0DBB20133DBB2FB73C3E7FB79002B0BD0D6
S31508004CF0FB7BBA7B1146184600F0DEFC03461946D4
S31508004D005E4804F0ABF802E05D4804F0A7F85E4898
S31508004D1004F0A4F80E23BB7397F90E30002BC0F2EB
S31508004D208E800023FB7397F90F300F2B28DC57482A
S31508004D3004F094F8FB7BB97B01221846FFF776FE50
S31508004D400346002B0AD1F87BBB7B0133DBB2032277
S31508004D501946FFF76BFE0346002B01D0012300E03E
S31508004D600023002B03D04A4804F078F802E04448B0
S31508004D7004F074F8FB7BDBB20133DBB2FB73D2E7DA
S31508004D803C4804F06BF83C4804F068F80023FB73D1
S31508004D9097F90F300E2B37DCFB79002B0BD0FB7BFA
S31508004DA0BA7B1146184600F087FC03461946334875
S31508004DB004F054F802E0324804F050F8FB7BB97B63
S31508004DC000221846FFF732FE0346002B0AD1FB7B6A
S31508004DD00133DBB2B97B02221846FFF727FE0346EA
S31508004DE0002B01D0012300E00023002B03D022482A
S31508004DF004F034F802E0234804F030F8FB7BDBB219
S31508004E000133DBB2FB73C3E7FB79002B0BD0FB7BCB
S31508004E10BA7B1146184600F04FFC03461946174858
S31508004E2004F01CF802E0164804F018F8164804F0D6
S31508004E3015F8BB7BDBB2013BDBB2BB736CE7002327
S31508004E40FB7397F90F300F2B08DC094804F006F8B6
S31508004E50FB7BDBB20133DBB2FB73F2E7054803F0F9
S31508004E60FDFF00BF1037BD4680BD00BF60E60008E5
S31508004E7080E6000888E600088CE6000890E6000848
S31508004E8094E6000898E600089CE60008A0E60008F4
S31508004E90A4E6000880B485B000AF78600023FB6004
S31508004EA0FB680F2B26DC7B68FA6853F82220144926
S31508004EB0FB6841F823207B68FA68103253F82220F1
S31508004EC01049FB6841F823207B68FA68203253F8BA
S31508004ED022200D49FB6841F823207B68FA683032A6
S31508004EE053F822200949FB6841F82320FB6801335F
S31508004EF0FB60D5E700BF1437BD465DF8047B7047F5
S31508004F0098440120D844012018450120584501201D
S31508004F1080B485B000AF78600023FB60FB680F2B78
S31508004F2026DC164AFB6852F823107B68FA6843F8B1
S31508004F302210134AFB6852F823107B68FA6810326D
S31508004F4043F822100F4AFB6852F823107B68FA6868
S31508004F50203243F822100C4AFB6852F823107B686B
S31508004F60FA68303243F82210FB680133FB60D5E754
S31508004F7000BF1437BD465DF8047B7047984401208E
S31508004F80D8440120184501205845012080B483B033
S31508004F9000AF00237B607B680F2B15DC00233B608A
S31508004FA03B680F2B0CDC0B497B681A013B681344E2
S31508004FB040F2E73221F813203B6801333B60EFE704
S31508004FC07B6801337B60E6E700BF0C37BD465DF8BA
S31508004FD0047B70479C45012090B5ADF2A47D00AFD7
S31508004FE00246FB1D1A70BB1D0A461A700023A7F855
S31508004FF09E37B7F99E37B3F5717F13DCB7F99E373D
S3150800500007F575720021D154B7F99E3707F10C02DE
S315080050100021D154B7F89E379BB201339BB2A7F84B
S315080050209E37E6E7002387F89B37002387F89A37E9
S31508005030FFF7ACFFFB1D1A78BB1D1B78B64912019A
S315080050401344002221F81320012387F89D370023F3
S3150800505087F89C3797F89C3707F57572F91D097814
S31508005060D15497F89C3707F10C02B91D0978D15429
S3150800507097F89D2797F89C379A4200F0478197F84A
S315080050809C3707F57572D35C87F89B3797F89C377A
S3150800509007F10C02D35C87F89A3797F89C370133E7
S315080050A087F89C3797F89B37013B002B46DB97F828
S315080050B09B375A1E97F89A3797491201134431F8C5
S315080050C0133040F2E732934238D197F89A1797F897
S315080050D09B3702221846FFF7A9FC034683F0010313
S315080050E0DBB2002B2AD097F89B375A1E97F89A37C7
S315080050F097F89B0797F89A17874C0001014434F8EC
S315080051001110013188B2844912011344024621F86C
S31508005110132097F89D3797F89B27013AD1B207F5E0
S315080051207572D15497F89D3707F10C0297F89A17BC
S31508005130D15497F89D37013387F89D3797F89B37F1
S3150800514001330F2B46DC97F89B375A1C97F89A378A
S3150800515071491201134431F8133040F2E732934291
S3150800516038D197F89A1797F89B3700221846FFF711
S315080051705DFC034683F00103DBB2002B2AD097F8C7
S315080051809B375A1C97F89A3797F89B0797F89A17F8
S31508005190614C0001014434F81110013188B25E49AE
S315080051A012011344024621F8132097F89D3797F801
S315080051B09B270132D1B207F57572D15497F89D37FE
S315080051C007F10C0297F89A17D15497F89D370133CF
S315080051D087F89D3797F89A37013B002B46DB97F8F7
S315080051E09B2797F89A37013B4B491201134431F82C
S315080051F0133040F2E732934238D197F89A1797F866
S315080052009B3703221846FFF711FC034683F0010378
S31508005210DBB2002B2AD097F89B2797F89A37013BE1
S3150800522097F89B0797F89A173B4C0001014434F806
S315080052301110013188B2384912011344024621F887
S31508005240132097F89D3707F5757297F89B17D15471
S3150800525097F89D3797F89A27013AD1B207F10C02C9
S31508005260D15497F89D37013387F89D3797F89A37C1
S3150800527001330F2B3FF7FCAE97F89B2797F89A3721
S31508005280013325491201134431F8133040F2E7324D
S3150800529093427FF4EDAE97F89A1797F89B37012259
S315080052A01846FFF7C3FB034683F00103DBB2002B66
S315080052B03FF4DEAE97F89B2797F89A37013397F8AD
S315080052C09B0797F89A17144C0001014434F81110FB
S315080052D0013188B2104912011344024621F81320FD
S315080052E097F89D3707F5757297F89B17D15497F875
S315080052F09D3797F89A270132D1B207F10C02D1549B
S3150800530097F89D37013387F89D37B1E600BF07F256
S31508005310A477BD4690BD00BF9C45012090B5ADF26F
S31508005320A47D00AF0246FB1D1A70BB1D0A461A7003
S315080053300023A7F89E37B7F99E37B3F5717F13DCBC
S31508005340B7F99E3707F575720021D154B7F99E371C
S3150800535007F10C020021D154B7F89E379BB20133EE
S315080053609BB2A7F89E37E6E7002387F89B3700230A
S3150800537087F89A37FFF70AFEFB1D1A78BB1D1B78BC
S31508005380CC4912011344002221F81320012387F87F
S315080053909D37002387F89C3797F89C3707F5757271
S315080053A0F91D0978D15497F89C3707F10C02B91DF5
S315080053B00978D15497F89D2797F89C379A4200F0B8
S315080053C0748197F89C3707F57572D35C87F89B3715
S315080053D097F89C3707F10C02D35C87F89A3797F849
S315080053E09C37013387F89C3797F89B37013B002B8E
S315080053F051DB97F89B375A1E97F89A37AD49120131
S31508005400134431F8133040F2E732934243D197F808
S315080054109A1797F89B3702221846FFF707FB0346A9
S3150800542083F00103DBB2002B35D097F89A1797F86B
S315080054309B3702221846FFF793F90346002B2AD01A
S3150800544097F89B375A1E97F89A3797F89B0797F855
S315080054509A17984C0001014434F81110013188B2AA
S31508005460944912011344024621F8132097F89D37F0
S3150800547097F89B27013AD1B207F57572D15497F878
S315080054809D3707F10C0297F89A17D15497F89D376C
S31508005490013387F89D3797F89B3701330F2B51DC7B
S315080054A097F89B375A1C97F89A3782491201134482
S315080054B031F8133040F2E732934243D197F89A17FE
S315080054C097F89B3700221846FFF7B0FA034683F091
S315080054D00103DBB2002B35D097F89A1797F89B375C
S315080054E000221846FFF73CF90346002B2AD097F806
S315080054F09B375A1C97F89A3797F89B0797F89A1785
S315080055006C4C0001014434F81110013188B2694924
S3150800551012011344024621F8132097F89D3797F88D
S315080055209B270132D1B207F57572D15497F89D378A
S3150800553007F10C0297F89A17D15497F89D3701335B
