S010000068616C666D6F7573652E6D6F74AD
S3150800000000000220E5400008913D0008A13D0008D7
S31508000010A93D0008B13D0008B93D000800000000F0
S31508000020000000000000000000000000C13D0008BC
S31508000030D13D000800000000E13D0008F13D000840
S3150800004035410008354100083541000835410008AA
S31508000050354100083541000835410008354100089A
S31508000060354100083541000835410008354100088A
S31508000070354100083541000835410008354100087A
S31508000080354100083541000835410008354100086A
S31508000090354100083541000835410008354100085A
S315080000A0354100083541000835410008354100084A
S315080000B0354100083541000835410008354100083A
S315080000C0354100083541000835410008354100082A
S315080000D0354100083541000835410008354100081A
S315080000E0354100083541000835410008354100080A
S315080000F035410008354100083541000835410008FA
S3150800010035410008354100083541000835410008E9
S3150800011035410008354100083541000835410008D9
S3150800012035410008354100083541000835410008C9
S3150800013035410008000000000000000035410008B5
S3150800014035410008354100083541000835410008A9
S315080001503541000835410008354100083541000899
S315080001603541000835410008354100083541000889
S315080001703541000835410008000000000000000075
S30D0800018035410008354100086D
S315080001C0044B05481B1A062B02D9044B03B11847E2
S315080001D0704700BF97080020940800200000000020
S315080001E005490648091A891001EBD171491002D050
S315080001F0034B03B118477047940800209408002061
S315080002000000000010B5064C237843B9FFF7D8FF65
S31508000210044B13B10448AFF300800123237010BDCB
S315080002209408002000000000048F000808B5084B59
S315080002301BB108490848AFF300800848036813B99A
S31508000240BDE80840CCE7064B002BF9D09847F7E7FE
S315080002500000000098080020048F00089408002079
S315080002600000000081F0004102E000BF83F0004377
S3150800027030B54FEA41044FEA430594EA050F08BF33
S3150800028090EA020F1FBF54EA000C55EA020C7FEAF7
S31508000290645C7FEA655C00F0E2804FEA5454D4EB74
S315080002A05555B8BF6D420CDD2C4480EA020281EA3E
S315080002B0030382EA000083EA010180EA020281EA76
S315080002C00303362D88BF30BD11F0004F4FEA0131C8
S315080002D04FF4801C4CEA113102D0404261EB4101D7
S315080002E013F0004F4FEA03334CEA133302D052425D
S315080002F063EB430394EA050F00F0A780A4F1010419
S31508000300D5F1200E0DDB02FA0EFC22FA05F2801852
S3150800031041F1000103FA0EF2801843FA05F3594138
S315080003200EE0A5F120050EF1200E012A03FA0EFCB7
S3150800033028BF4CF0020C43FA05F3C01851EBE371E1
S3150800034001F0004507D54FF0000EDCF1000C7EEBFE
S3150800035000006EEB0101B1F5801F1BD3B1F5001F3C
S315080003600CD349085FEA30004FEA3C0C04F101045B
S315080003704FEA445212F5800F80F09A80BCF1004F84
S3150800038008BF5FEA500C50F1000041EB045141EA06
S31508000390050130BD5FEA4C0C404141EB010111F407
S315080003A0801FA4F10104E9D191F0000F04BF0146B2
S315080003B00020B1FA81F308BF2033A3F10B03B3F190
S315080003C020020CDA0C3208DD02F1140CC2F10C0220
S315080003D001FA0CF021FA02F10CE002F11402D8BF7E
S315080003E0C2F1200C01FA02F120FA0CFCDCBF41EA4A
S315080003F00C019040E41AA2BF01EB0451294330BD19
S315080004006FEA04041F3C1CDA0C340EDC04F11404F5
S31508000410C4F1200220FA04F001FA02F340EA0300CC
S3150800042021FA04F345EA030130BDC4F10C04C4F112
S31508000430200220FA02F001FA04F340EA03002946F2
S3150800044030BD21FA04F0294630BD94F0000F83F43C
S31508000450801306BF81F480110134013D4EE77FEA1F
S31508000460645C18BF7FEA655C29D094EA050F08BF6B
S3150800047090EA020F05D054EA000C04BF194610464C
S3150800048030BD91EA030F1EBF0021002030BD5FEA90
S31508000490545C05D14000494128BF41F0004130BDB8
S315080004A014F580043CBF01F5801130BD01F000450C
S315080004B045F0FE4141F470014FF0000030BD7FEA7F
S315080004C0645C1ABF194610467FEA655C1CBF0B467A
S315080004D0024650EA013406BF52EA033591EA030F91
S315080004E041F4002130BD00BF90F0000F04BF002189
S315080004F0704730B54FF4806404F132044FF00005BC
S315080005004FF0000150E700BF90F0000F04BF002134
S31508000510704730B54FF4806404F1320410F000459A
S3150800052048BF40424FF000013EE700BF42004FEA95
S31508000530E2014FEA31014FEA02701FBF12F07F4312
S3150800054093F07F4F81F06051704792F0000F14BF0F
S3150800055093F07F4F704730B54FF4607401F0004553
S3150800056021F0004120E700BF50EA010208BF7047AA
S3150800057030B54FF000050AE050EA010208BF70479F
S3150800058030B511F0004502D5404261EB41014FF408
S31508000590806404F132045FEA915C3FF4DCAE4FF00C
S315080005A003025FEADC0C18BF03325FEADC0C18BFF3
S315080005B0033202EBDC02C2F1200300FA03FC20FA44
S315080005C002F001FA03FE40EA0E0021FA02F1144491
S315080005D0C1E600BF70B54FF0FF0C4CF4E06C1CEAA6
S315080005E011541DBF1CEA135594EA0C0F95EA0C0F1B
S315080005F000F0DEF82C4481EA030621EA4C5123EA8E
S315080006004C5350EA013518BF52EA033541F48011BC
S3150800061043F4801338D0A0FB02CE4FF00005E1FB6F
S3150800062002E506F00042E0FB03E54FF00006E1FBB9
S3150800063003569CF0000F18BF4EF0010EA4F1FF04FC
S31508000640B6F5007F64F5407404D25FEA4E0E6D413C
S3150800065046EB060642EAC62141EA55514FEAC5204D
S3150800066040EA5E504FEACE2EB4F1FD0C88BFBCF5C9
S31508000670E06F1ED8BEF1004F08BF5FEA500E50F17A
S31508000680000041EB045170BD06F0004646EA010140
S3150800069040EA020081EA0301B4EB5C04C2BFD4EB72
S315080006A00C0541EA045170BD41F480114FF0000E6B
S315080006B0013C00F3AB8014F1360FDEBF002001F0D9
S315080006C0004170BDC4F10004203C35DA0C341BDC53
S315080006D004F11404C4F1200500FA05F320FA04F025
S315080006E001FA05F240EA020001F0004221F0004159
S315080006F010EBD37021FA04F642EB06015EEA430ECC
S3150800070008BF20EAD37070BDC4F10C04C4F12005FB
S3150800071000FA04F320FA05F001FA04F240EA0200AE
S3150800072001F0004110EBD37041F100015EEA430E7F
S3150800073008BF20EAD37070BDC4F1200500FA05F29F
S315080007404EEA020E20FA04F301FA05F243EA02031E
S3150800075021FA04F001F0004121FA04F220EA02002D
S3150800076000EBD3705EEA430E08BF20EAD37070BD73
S3150800077094F0000F0FD101F00046400041EB010153
S3150800078011F4801F08BF013CF7D041EA060195F035
S31508000790000F18BF704703F00046520043EB0303EF
S315080007A013F4801F08BF013DF7D043EA06037047DC
S315080007B094EA0C0F0CEA135518BF95EA0C0F0CD0E7
S315080007C050EA410618BF52EA4306D1D181EA03012D
S315080007D001F000414FF0000070BD50EA410606BF27
S315080007E01046194652EA430619D094EA0C0F02D16C
S315080007F050EA013613D195EA0C0F05D152EA0336B1
S315080008001CBF104619460AD181EA030101F00041CE
S3150800081041F0FE4141F470014FF0000070BD41F017
S31508000820FE4141F4780170BD70B54FF0FF0C4CF4F1
S31508000830E06C1CEA11541DBF1CEA135594EA0C0F10
S3150800084095EA0C0F00F0A7F8A4EB050481EA030E5D
S3150800085052EA03354FEA013100F088804FEA033344
S315080008604FF0805545EA131343EA12634FEA022212
S3150800087045EA111545EA10654FEA00260EF00041D3
S315080008809D4208BF964244F1FD0404F5407402D225
S315080008905B084FEA3202B61A65EB03055B084FEAB6
S315080008A032024FF480104FF4002CB6EB020E75EBB3
S315080008B0030E22BFB61A754640EA0C005B084FEADB
S315080008C03202B6EB020E75EB030E22BFB61A754658
S315080008D040EA5C005B084FEA3202B6EB020E75EBA3
S315080008E0030E22BFB61A754640EA9C005B084FEA1B
S315080008F03202B6EB020E75EB030E22BFB61A754628
S3150800090040EADC0055EA060E18D04FEA051545EA16
S3150800091016754FEA06164FEAC30343EA52734FEABF
S31508000920C2025FEA1C1CC0D111F4801F0BD141EA38
S3150800093000014FF000004FF0004CB6E711F4801F9D
S3150800094004BF01430020B4F1FD0C88BFBCF5E06F7D
S315080009503FF6AFAEB5EB030C04BFB6EB020C5FEA8D
S31508000960500C50F1000041EB045170BD0EF0004EE2
S315080009704EEA113114EB5C04C2BFD4EB0C0541EA14
S31508000980045170BD41F480114FF0000E013C90E611
S3150800099045EA060E8DE60CEA135594EA0C0F08BFD5
S315080009A095EA0C0F3FF43BAF94EA0C0F0AD150EAD4
S315080009B001347FF434AF95EA0C0F7FF425AF104667
S315080009C019462CE795EA0C0F06D152EA03353FF48F
S315080009D0FDAE1046194622E750EA410618BF52EA0C
S315080009E043067FF4C5AE50EA41047FF40DAF52EAE0
S315080009F043057FF4EBAE12E74FF0FF3C06E000BF7D
S31508000A004FF0010C02E000BF4FF0010C4DF804CD89
S31508000A104FEA410C7FEA6C5C4FEA430C18BF7FEA49
S31508000A206C5C1BD001B050EA410C0CBF52EA430C77
S31508000A3091EA030F02BF90EA020F0020704710F1F7
S31508000A40000F91EA030F58BF994208BF90422CBF86
S31508000A50D8176FEAE37040F0010070474FEA410C7F
S31508000A607FEA6C5C02D150EA013C07D14FEA430C9D
S31508000A707FEA6C5CD6D152EA033CD3D05DF8040B0E
S31508000A80704700BF8446104662468C461946634640
S31508000A9000E000BF01B5FFF7B7FF002848BF10F117
S31508000AA0000F01BD4DF808EDFFF7F4FF0CBF01205C
S31508000AB000205DF808FB00BF4DF808EDFFF7EAFFD8
S31508000AC034BF012000205DF808FB00BF4DF808ED93
S31508000AD0FFF7E0FF94BF012000205DF808FB00BF88
S31508000AE04DF808EDFFF7CEFF94BF012000205DF812
S31508000AF008FB00BF4DF808EDFFF7C4FF34BF01201F
S31508000B0000205DF808FB00BF4A0011D212F500125A
S31508000B1011D20DD56FF47873B3EB62520ED44FEA47
S31508000B20C12343F0004343EA505323FA02F07047C7
S31508000B304FF00000704750EA013002D14FF0FF3005
S31508000B4070474FF0000070474FEA4102B2F1E043A8
S31508000B5024BFB3F5001CDCF1FE5C0DD901F0004C96
S31508000B604FEAC0024CEA5070B2F1004F40EB8300E6
S31508000B7008BF20F00100704711F0804F21D113F112
S31508000B803872BCBF01F00040704741F480114FEA4B
S31508000B905252C2F11802C2F1200C10FA0CF320FAD4
S31508000BA002F018BF40F001004FEAC1234FEAD323F1
S31508000BB003FA0CFC40EA0C0023FA02F34FEA43035B
S31508000BC0CCE77FEA625307D150EA01331EBF4FF0E4
S31508000BD0FE4040F44000704701F0004040F0FE40FF
S31508000BE040F40000704700BF00000000000000004D
S31508000BF001F0FF01102A2BDB10F0070F08D010F8C0
S31508000C00013B013A8B422DD010F0070F42B3F6D1C3
S31508000C10F0B441EA012141EA014122F007047FF0DC
S31508000C2000070023F0E80256083C85EA010586EA33
S31508000C30010685FA47F5A3FA87F586FA47F6A5FA6F
S31508000C4087F68EB9EED1F0BC01F0FF0102F007027B
S31508000C5032B110F8013B013A83EA010313B1F8D126
S31508000C600020704701387047002D06BF3546033807
S31508000C70073815F0010F07D1013015F4807F02BF40
S31508000C80013015F4C03F0130F0BC0138704700BF91
S31508000C90844641EA000313F003036DD1403A41D379
S31508000CA051F8043B40F8043B51F8043B40F8043B38
S31508000CB051F8043B40F8043B51F8043B40F8043B28
S31508000CC051F8043B40F8043B51F8043B40F8043B18
S31508000CD051F8043B40F8043B51F8043B40F8043B08
S31508000CE051F8043B40F8043B51F8043B40F8043BF8
S31508000CF051F8043B40F8043B51F8043B40F8043BE8
S31508000D0051F8043B40F8043B51F8043B40F8043BD7
S31508000D1051F8043B40F8043B51F8043B40F8043BC7
S31508000D20403ABDD2303211D351F8043B40F8043B67
S31508000D3051F8043B40F8043B51F8043B40F8043BA7
S31508000D4051F8043B40F8043B103AEDD20C3205D377
S31508000D5051F8043B40F8043B043AF9D2043208D06F
S31508000D60D2071CBF11F8013B00F8013B01D30B88E1
S31508000D7003806046704700BF082A13D38B078DD0BF
S31508000D8010F003038AD0C3F10403D21ADB071CBF91
S31508000D9011F8013B00F8013B80D331F8023B20F8FB
S31508000DA0023B7BE7043AD9D3013A11F8013B00F834
S31508000DB0013BF9D20B7803704B7843708B788370BC
S31508000DC060467047000000000000000000000000B8
S31508000DD00000000000000000000000000000000005
S31508000DE000000000000000000000000000000000F5
S31508000DF000000000000000000000000000000000E5
S31508000E0090F800F06DE9024520F007016FF0000C3C
S31508000E1010F0070491F820F040F049804FF00004E4
S31508000E206FF00700D1E9002391F840F000F10800BF
S31508000E3082FA4CF2A4FA8CF283FA4CF3A2FA8CF3F7
S31508000E404BBBD1E9022382FA4CF200F10800A4FA5E
S31508000E508CF283FA4CF3A2FA8CF3E3B9D1E90423B2
S31508000E6082FA4CF200F10800A4FA8CF283FA4CF3E9
S31508000E70A2FA8CF37BB9D1E9062301F1200182FAA3
S31508000E804CF200F10800A4FA8CF283FA4CF3A2FAA9
S31508000E908CF3002BC6D0002A04BF04301A4612BAB7
S31508000EA0B2FA82F2FDE8024500EBD2007047D1E9BA
S31508000EB0002304F00305C4F100004FEAC50514F049
S31508000EC0040F91F840F00CFA05F562EA05021CBF1A
S31508000ED063EA050362464FF00004A9E74FEA4102B8
S31508000EE012F5001215D211D56FF47873B3EB62526E
S31508000EF012D94FEAC12343F0004343EA505311F095
S31508000F00004F23FA02F018BF404270474FF0000026
S31508000F10704750EA013005D111F0004008BF6FF064
S31508000F20004070474FF00000704700BF53B94AB9F8
S31508000F30002908BF00281CBF4FF0FF314FF0FF30D3
S31508000F4000F07EB9ADF1080C6DE904CE00F006F8A4
S31508000F50DDF804E0DDE9022304B070472DE9F04727
S31508000F608C460E460446089D002B50D18A421746E9
S31508000F706CD9B2FA82FEBEF1000F0BD0CEF1200476
S31508000F8020FA04F401FA0EF644EA060C02FA0EF701
S31508000F9000FA0EF44FEA1749220CBCFBF9F01FFAC7
S31508000FA087F809FB10C642EA064600FB08F3B34277
S31508000FB009D9F61900F1FF3280F02281B34240F2D6
S31508000FC01F8102383E44F61AA2B2B6FBF9F309FBB2
S31508000FD0136642EA064403FB08F8A04509D9E41952
S31508000FE003F1FF3280F00A81A04540F20781023BF7
S31508000FF03C44C8EB040443EA00400021002D62D0BB
S3150800100024FA0EF400232C606B60BDE8F0878B424F
S3150800101007D9002D55D0002185E841000846BDE8CE
S31508001020F087B3FA83F1002940F09080B34202D3E7
S31508001030824200F2F880841A66EB03060120B44661
S31508001040002D40D085E81010BDE8F08712B90127B9
S31508001050B7FBF2F7B7FA87FEBEF1000F35D1F31BDF
S315080010604FEA17481FFA87FC0121B3FBF8F0220C58
S3150800107008FB103642EA06460CFB00F3B34207D9D2
S31508001080F61900F1FF3202D2B34200F2CE801046C2
S31508001090F61AA2B2B6FBF8F308FB136642EA064450
S315080010A00CFB03FCA44507D9E41903F1FF3202D26D
S315080010B0A44500F2B5801346CCEB040443EA00408D
S315080010C09CE729462846BDE8F087CEF1200106FAB6
S315080010D00EF307FA0EF720FA01F94FEA1748CE4041
S315080010E049EA0309B6FBF8FA4FEA194408FB1A66F7
S315080010F01FFA87FC44EA06430AFB0CF29A4200FAF6
S315080011000EF40AD9DB190AF1FF3180F087809A427A
S3150800111040F28480AAF1020A3B449B1A1FFA89F915
S31508001120B3FBF8F108FB113349EA034301FB0CF65C
S315080011309E4207D9DB1901F1FF326BD29E4269D96B
S3150800114002393B449B1B41EA0A418EE7C1F1200E56
S3150800115022FA0EF48B40234320FA0EF706FA01F41E
S315080011604FEA134C26FA0EF63C43B6FBFCF9270C5D
S315080011700CFB19661FFA83F847EA064609FB08F7C7
S31508001180B74202FA01F200FA01FA08D9F61809F18B
S31508001190FF3041D2B7423FD9A9F102091E44F61BD6
S315080011A0A0B2B6FBFCF40CFB146640EA064704FB47
S315080011B008F8B84507D9FF1804F1FF3028D2B84512
S315080011C026D9023C1F4444EA0940C8EB0707A0FB9E
S315080011D002894F4544464E4614D329D065B3BAEB27
S315080011E0040367EB060707FA0EFECB40CF404EEA2C
S315080011F0030385E888000021BDE8F0871346F8E672
S315080012001046E0E6B8EB020469EB03060138E5E7A9
S315080012100446D8E7114695E78146C0E78A467CE743
S31508001220023B3C4448E708460AE702383E442FE7B3
S31508001230C245E7D33E46D1E72946BDE8F08700BF59
S31508001240704700BF80B500AF0221104803F03AF995
S315080012500023012209210D4803F016F80B4803F074
S31508001260DDF80221094803F013F90346002B0CBFE9
S3150800127001230023DBB2002B00D0F2E7034803F07A
S31508001280DDF803461B119BB2184680BD00200140BD
S3150800129080B582B000AF4FF000037B604FF48053F7
S315080012A03B60FFF7CFFF034607EE903AF8EEE77A82
S315080012B09FED0B7A67EE876A3B6807EE903AB8EEC1
S315080012C0677AC6EE877A77EEA77AC7ED017A7B68E2
S315080012D007EE903AB0EE670A0837BD4680BD00BFF4
S315080012E03333534080B582B000AF0346FB71FB79B8
S315080012F0092B02D900F0BCF982E1FB79092B00F22F
S315080013007F8101A252F823F03113000879130008EF
S31508001310C11300080914000851140008991400089C
S31508001320E11400082915000871150008B915000808
S315080013301021B54803F098F94FF48051B24803F0EC
S31508001340A3F90421B14803F09FF90821AF4803F037
S315080013509BF94FF48041AD4803F096F94FF40041EC
S31508001360AA4803F091F90121A94803F08DF9022151
S31508001370A74803F089F943E11021A34803F074F95B
S315080013804FF48051A04803F07FF904219F4803F0E9
S315080013906BF908219D4803F077F94FF480419B4883
S315080013A003F062F94FF40041984803F05DF9012112
S315080013B0974803F059F90221954803F065F91FE1AA
S315080013C01021914803F060F94FF480518E4803F0DC
S315080013D04BF904218D4803F057F908218B4803F08F
S315080013E053F94FF48041894803F04EF94FF4004110
S315080013F0864803F039F90121854803F045F90221A9
S31508001400834803F041F9FBE010217F4803F03CF9DB
S315080014104FF480517C4803F037F904217B4803F0E8
S3150800142033F90821794803F02FF94FF480417748BA
S3150800143003F01AF94FF40041744803F015F9012135
S31508001440734803F021F90221714803F01DF9D7E02A
S3150800145010216D4803F018F94FF480516A4803F0DB
S3150800146013F90421694803F0FFF80821674803F0D7
S315080014700BF94FF48041654803F0F6F84FF4004144
S31508001480624803F001F90121614803F0EDF80221F1
S315080014905F4803F0F9F8B3E010215B4803F0F4F86D
S315080014A04FF48051584803F0EFF80421574803F0E9
S315080014B0EBF80821554803F0E7F84FF48041534804
S315080014C003F0D2F84FF40041504803F0DDF801214B
S315080014D04F4803F0D9F802214D4803F0C5F88FE0CC
S315080014E01021494803F0D0F84FF48051464803F0DC
S315080014F0CBF80421454803F0C7F80821434803F010
S31508001500C3F84FF48041414803F0BEF84FF4004158
S315080015103E4803F0B9F801213D4803F0B5F8022129
S315080015203B4803F0A1F86BE01021374803F09CF81C
S315080015304FF48051344803F0A7F80421334803F0E8
S3150800154093F80821314803F09FF84FF480412F485B
S3150800155003F08AF84FF400412C4803F095F801216E
S315080015602B4803F091F80221294803F08DF847E04B
S315080015701021254803F088F84FF48051224803F0DB
S3150800158083F80421214803F07FF808211F4803F057
S315080015907BF84FF480411D4803F076F84FF400417C
S315080015A01A4803F071F80121194803F06DF8022171
S315080015B0174803F069F823E01021134803F064F88C
S315080015C04FF48051104803F05FF804210F4803F0E8
S315080015D05BF808210D4803F057F84FF480410B4893
S315080015E003F042F84FF40041084803F04DF8012192
S315080015F0074803F049F80221054803F045F800BFFB
S315080016000837BD4680BD00BF0004024000080240FE
S31508001610001C024080B500AF1021124803F024F8E0
S315080016204FF480510F4803F01FF804210E4803F0C9
S315080016301BF808210C4803F017F84FF480410A48B4
S3150800164003F012F84FF40041074803F00DF80121A2
S31508001650064803F009F80221044803F005F800BF1C
S3150800166080BD00BF0004024000080240001C024082
S3150800167080B500AF1021124803F006F84FF48051E8
S315080016800F4802F0F1FF04210E4802F0FDFF082181
S315080016900C4802F0F9FF4FF480410A4802F0F4FFC3
S315080016A04FF40041074802F0EFFF0121064802F017
S315080016B0EBFF0221044802F0D7FF00BF80BD00BF40
S315080016C00004024000080240001C024080B584B0B5
S315080016D000AF03460A46FB711346BB80FB79FB60E5
S315080016E0FB68002B0CDDFB68DBB21846FFF7FAFD3A
S315080016F0BB88184602F0B6FCFB68013BFB60EFE7C7
S315080017000020FFF7EFFD00BF1037BD4680BD00BFC4
S3150800171090B587B000AF034687ED020AFB73002336
S31508001720FB82D7ED027AF5EEC07AF1EE10FA0AD509
S31508001730D7ED027AF1EE677AFDEEE77AC7ED017A20
S31508001740BB889BB207E0D7ED027AFDEEE77AC7EDD4
S31508001750017ABB889BB2FB82D7ED027A9FED507A5D
S31508001760F4EEC77AF1EE10FA01DD6423FB824D4BE5
S3150800177060221A804B4B00229A814A4B01225A80DA
S31508001780494B1B881A46B7F9163003FB02F318466D
S31508001790FEF7BAFE40A3D3E90023FEF71BFF034674
S315080017A00C4618462146FFF7AFF902463D4B9A60AC
S315080017B0FB7B012B34D1D7ED027AF5EE407AF1EEB8
S315080017C010FA0BD1374B00229A603649374803F096
S315080017D037FA3449354803F0ADFA1DE0D7ED027AF9
S315080017E0F5EEC07AF1EE10FA0BDD2E492F4803F01C
S315080017F0A1FA2C4B00229A602A492C4803F020FAB9
S315080018000AE02849294803F01BFA264B00229A6069
S315080018102449264803F08EFAFB8ADAB2244B1A705A
S31508001820FB7B002B34D1D7ED027AF5EE407AF1EE48
S3150800183010FA0BD11B4B00229A601A491D4803F077
S31508001840FFF918491B4803F075FA1DE0D7ED027A2F
S31508001850F5EEC07AF1EE10FA0BDD1249154803F0E1
S31508001860EFF9104B00229A600E49124803F062FA0B
S315080018700AE00C490F4803F05DFA0A4B00229A6009
S3150800188008490C4803F0DCF9FB8ADAB20A4B1A70ED
S3150800189000BF1C37BD4690BD7B14AE47E17A843F36
S315080018A00000C8422C090020208F000800080040CC
S315080018B0B0080020000C0040B108002080B500AF39
S315080018C004210D4802F0E0FE00210C4803F098F9C7
S315080018D000210B4803F094F99FED0A0A0020FFF750
S315080018E017FF9FED080A0120FFF712FF064B00229B
S315080018F01A7000BF80BD00BF00000240000800400B
S31508001900000C004000000000B208002080B500AFBF
S315080019100421084802F0A8FE0121074803F070F9DF
S315080019200121064803F06CF9054B01221A7000BF25
S3150800193080BD00BF0000024000080040000C0040C7
S31508001940B208002080B400AF034B1B781846BD468A
S315080019505DF8047B704700BFB208002080B584B0EC
S3150800196000AF0346FB8000237B81FB8843F080039E
S315080019703B81404B1B681021184602F085FE3E4B02
S315080019801B680221184603F085F80346002B0CBF96
S3150800199001230023DBB2002B00D0F0E7364B1B688F
S315080019A03A891146184603F065F8334B1B6801213E
S315080019B0184603F06FF80346002B0CBF01230023DB
S315080019C0DBB2002B00D0F0E72B4B1B68184603F060
S315080019D043F803467B81284B1B680221184603F00F
S315080019E059F80346002B0CBF01230023DBB2002B5A
S315080019F000D0F0E7204B1B680021184603F03AF8A0
S31508001A001D4B1B680121184603F044F80346002BBA
S31508001A100CBF01230023DBB2002B00D0F0E7164BE6
S31508001A201B68184603F018F803467B81124B1B689F
S31508001A300221184603F02EF80346002B0CBF01239B
S31508001A400023DBB2002B00D0F0E70A4B1B681021FD
S31508001A50184602F009FE0023FB60FB68042B03DC32
S31508001A60FB680133FB60F8E77B8918461037BD46EB
S31508001A7080BD00BF040000200000002080B584B0AF
S31508001A8000AF03460A46FB801346BB803D4B1B68E6
S31508001A901021184602F0F8FD3B4B1B680221184638
S31508001AA002F0F8FF0346002B0CBF01230023DBB22C
S31508001AB0002B00D0F0E7344B1B68FA88114618460D
S31508001AC002F0D8FF304B1B680121184602F0E2FFEE
S31508001AD00346002B0CBF01230023DBB2002B00D0EA
S31508001AE0F0E7294B1B68184602F0B6FF264B1B6821
S31508001AF00221184602F0CEFF0346002B0CBF012335
S31508001B000023DBB2002B00D0F0E71F4B1B68BA8816
S31508001B101146184602F0AEFF1B4B1B6801211846FA
S31508001B2002F0B8FF0346002B0CBF01230023DBB2EB
S31508001B30002B00D0F0E7144B1B68184602F08CFF08
S31508001B40114B1B680221184602F0A4FF0346002B1E
S31508001B500CBF01230023DBB2002B00D0F0E7094BB2
S31508001B601B681021184602F07FFD0023FB60FB6806
S31508001B70092B03DCFB680133FB60F8E700BF10376D
S31508001B80BD4680BD040000200000002090B585B049
S31508001B9000AF03460A46FB711346BB7100237B81DF
S31508001BA00023FB810023BB81FB79002B02D0032B8A
S31508001BB018D02FE0BB79012B09D0022B0CD0002BB3
S31508001BC000D029E04323FB814423BB8109E0452358
S31508001BD0FB814623BB8104E04723FB814823BB8165
S31508001BE000BF19E0BB79012B09D0022B0CD0002BC2
S31508001BF000D011E03B23FB813C23BB8109E03D2358
S31508001C00FB813E23BB8104E03F23FB814023BB814C
S31508001C1000BF01E07B890FE0FB891846FFF79EFEAF
S31508001C2003461B029CB2BB891846FFF797FE03467C
S31508001C3023449BB27B817B891BB218461437BD4669
S31508001C4090BD00BF80B500AF00216B20FFF716FFDF
S31508001C50EE216C20FFF712FF10216A20FFF70EFF16
S31508001C6006216820FFF70AFF00211A20FFF706FF62
S31508001C7018211B20FFF702FF18211C20FFF7FEFE84
S31508001C8000BF80BD80B500AF02210020FFF77EFFB0
S31508001C9003469BB25B429BB29AB2024B1A8000BFC4
S31508001CA080BD00BFB408002080B400AF034B1B887A
S31508001CB01BB21846BD465DF8047B7047B408002081
S31508001CC080B582B000AF00237B6000233B60F0EE56
S31508001CD0006A9FED137AC6EE877AFDEEE77A17EE6D
S31508001CE0902A3B689A420DDDFFF7DEFF03461A4647
S31508001CF07B6813447B60012002F0B4F93B6801332A
S31508001D003B60E4E73B6801337A6892FBF3F307EE3E
S31508001D10903AF8EEE77AB0EE670A0837BD4680BD16
S31508001D206F12833A80B500AFFFF7CAFFF0EE407A2C
S31508001D30024BC3ED007A00BF80BD00BFC00800207B
S31508001D4080B400AF064B4FF000021A60054B4FF007
S31508001D5000021A6000BFBD465DF8047B704700BFED
S31508001D60B8080020BC08002080B400AF094BD3EDAA
S31508001D70007A9FED097A27EE877A084BD3ED007A29
S31508001D8077EE277A054BC3ED007A00BFBD465DF8AE
S31508001D90047B7047C40800206F12833ABC080020F1
S31508001DA080B400AF044B1B6807EE903AB0EE670AA2
S31508001DB0BD465DF8047B7047BC08002000000000A3
S31508001DC098B500AF164B1B881BB207EE903AB8EED3
S31508001DD0E77A144BD3ED007A77EE677A17EE900A16
S31508001DE0FEF7A4FB0CA3D3E90023FEF71DFD03466B
S31508001DF00C4618462146FEF7A7FE034600EE103AA3
S31508001E0002F0DEF8F0EE407A074BC3ED007A00BF29
S31508001E1098BD00BFAFF300806666666666663040AA
S31508001E20B4080020C0080020C408002080B400AF11
S31508001E30044B1B6807EE903AB0EE670ABD465DF89C
S31508001E40047B7047C408002090B585B000AF4FF0FA
S31508001E500003FB604FF00003BB600023FB71FB79B6
S31508001E6001331D2B33D8FB790133FA796C4992007B
S31508001E700A4412686A499B000B441A60FB790133CD
S31508001E80674A9B001344D3ED007A97ED037A77EE01
S31508001E90277AC7ED037AFB790133FA79614992000B
S31508001EA00A4412685F499B000B441A60FB790133A8
S31508001EB05C4A9B001344D3ED007A97ED027A77EEDD
S31508001EC0277AC7ED027AFB790133FB71C7E7564BD0
S31508001ED05B6A07EE903AF8EE677A9FED547A77EEEA
S31508001EE0677A17EE900AFEF721FB47A3D3E900238A
S31508001EF0FEF770FB03460C461846214644A3D3E971
S31508001F000023FEF791FC03460C461846214642A3D9
S31508001F10D3E90023FEF75EFB03460C461846214626
S31508001F20FEF712FE02463E4B1A604FF080435B6A8C
S31508001F3007EE903AF8EE677A9FED3C7A77EEC77A25
S31508001F4017EE900AFEF7F2FA2FA3D3E90023FEF75D
S31508001F5041FB03460C46184621462DA3D3E9002328
S31508001F60FEF762FC03460C46184621462AA3D3E927
S31508001F700023FEF72FFB03460C4618462146FEF7BC
S31508001F80E3FD0246274B1A604FF0804347F6FA7284
S31508001F905A62254B47F6FA725A62214BD3ED007AFC
S31508001FA097ED037A77EE277AC7ED037A1C4BD3EDC4
S31508001FB0007A97ED027A77EE277AC7ED027A97EDDF
S31508001FC0037AF3EE0E6AC7EE267A194BC3ED007A4A
S31508001FD097ED027AF3EE0E6AC7EE267A154BC3ED35
S31508001FE0007A134B93ED007A124BD3ED007A37EE55
S31508001FF0277AF0EE006AC7EE267A0F4BC3ED007A11
S3150800200000BF1437BD4690BD5D8940F50F22593F84
S31508002010FCA9F1D24D62503FB81E85EB51B87E3F00
S3150800202040090020B80900200004004000F4FF46DB
S31508002030D0080020CC080020D408002080B400AFC7
S31508002040044B1B6807EE903AB0EE670ABD465DF88A
S31508002050047B7047D408002080B584B000AF0346DF
S315080020600A46FB711346BB71FB79042B23D801A2E0
S3150800207052F823F0892000088920000893200008D8
S315080020809F200008AB200008144BFB6004237B81CB
S3150800209011E0134BFB604FF400637B810BE0104BA0
S315080020A0FB604FF480637B8105E00D4BFB604FF4CA
S315080020B080537B8100BFBB79002B05D07B891946ED
S315080020C0F86802F0D1FA04E07B891946F86802F04C
S315080020D0DBFA00BF1037BD4680BD00BF000C0240CA
S315080020E00008024080B584B000AF0346FB71FB7957
S315080020F0042B26D801A252F823F000BF11210008AC
S315080021001B210008252100082F2100083921000875
S315080021101E4BBB600F23FB7313E01C4BBB600B23EA
S31508002120FB730EE0194BBB600823FB7309E0174BE2
S31508002130BB600A23FB7304E0144BBB600E23FB73DE
S3150800214000BF0221B86802F0BDF9F97B002301221D
S31508002150B86802F099F8B86802F060F90221B86820
S3150800216002F096F90346002B0CBF01230023DBB2CD
S31508002170002B00D0F2E7B86802F060F903461B119D
S315080021809BB218461037BD4680BD00BF00200140EF
S3150800219080B582B000AF0346FB71FB790121184672
S315080021A0FFF75AFF00BF0837BD4680BD80B582B02D
S315080021B000AF0346FB71FB7900211846FFF74CFF79
S315080021C000BF0837BD4680BD80B500AF0020FFF7C9
S315080021D0EDFF0120FFF7EAFF0220FFF7E7FF0320E4
S315080021E0FFF7E4FF00BF80BD80B483B000AF0346AD
S315080021F00A46FB711346BB80FB79042B25D801A23E
S3150800220052F823F019220008232200082D2200087C
S315080022103722000841220008B7F904300E4A136035
S3150800222013E0B7F904300D4A13600EE0B7F904302D
S315080022300B4A136009E0B7F904300A4A136004E050
S31508002240B7F90430084A136000BF00BF0C37BD4613
S315080022505DF8047B704700BFD8080020DC08002022
S31508002260E0080020E4080020E808002090B589B0BE
S3150800227000AF0346FB71FFF7A7FF0020FFF732FF09
S3150800228003469BB21BB21946002000F021F9FB79E0
S31508002290002B0CD00020FFF77BFF0023FB61FB69B6
S315080022A0B3F57A7F03DAFB690133FB61F7E70020B0
S315080022B0FFF718FF03461C46002000F0CDF803463A
S315080022C09BB2E31A9BB29BB21BB219460020FFF7DA
S315080022D08BFF0020FFF76AFF0120FFF703FF034685
S315080022E09BB21BB21946012000F0F2F8FB79002BCD
S315080022F00CD00120FFF74CFF0023BB61BB69B3F587
S315080023007A7F03DABB690133BB61F7E70120FFF780
S31508002310E9FE03461C46012000F09EF803469BB2E0
S31508002320E31A9BB29BB21BB219460120FFF75CFF6A
S315080023300120FFF73BFF0220FFF7D4FE03469BB2BE
S315080023401BB21946022000F0C3F8FB79002B0CD00B
S315080023500220FFF71DFF00237B617B69B3F57A7FB7
S3150800236003DA7B6901337B61F7E70220FFF7BAFEE0
S3150800237003461C46022000F06FF803469BB2E31A98
S315080023809BB29BB21BB219460220FFF72DFF022013
S31508002390FFF70CFF0320FFF7A5FE03469BB21BB20F
S315080023A01946032000F094F8FB79002B0CD0032083
S315080023B0FFF7EEFE00233B613B69B3F57A7F03DA4C
S315080023C03B6901333B61F7E70320FFF78BFE0346C2
S315080023D01C46032000F040F803469BB2E31A9BB262
S315080023E09BB21BB219460320FFF7FEFE0320FFF738
S315080023F0DDFE0420FFF776FE03469BB21BB21946A4
S31508002400042000F065F8FB79002B0CD00420FFF7B8
S31508002410BFFE0023FB60FB68B3F57A7F03DAFB682F
S315080024200133FB60F7E70420FFF75CFE03461C4612
S31508002430042000F011F803469BB2E31A9BB29BB244
S315080024401BB219460420FFF7CFFE0420FFF7AEFEA5
S3150800245000BF2437BD4690BD80B483B000AF0346A5
S31508002460FB71FB79042B21D801A252F823F000BF97
S31508002470852400088D240008952400089D2400085A
S31508002480A52400080D4B1B689BB210E00C4B1B687B
S315080024909BB20CE00B4B1B689BB208E00A4B1B680F
S315080024A09BB204E0094B1B689BB200E000231BB2F9
S315080024B018460C37BD465DF8047B7047EC080020CB
S315080024C0F0080020F4080020F8080020FC08002086
S315080024D080B483B000AF03460A46FB711346BB803F
S315080024E0FB79042B25D801A252F823F00125000810
S315080024F00B250008152500081F25000829250008B2
S31508002500B7F904300E4A136013E0B7F904300D4AE0
S3150800251013600EE0B7F904300B4A136009E0B7F907
S3150800252004300A4A136004E0B7F90430084A136015
S3150800253000BF00BF0C37BD465DF8047B704700BF7F
S31508002540EC080020F0080020F4080020F808002015
S31508002550FC08002080B483B000AF0346FB71FB790A
S31508002560042B21D801A252F823F000BF81250008C8
S31508002570892500089125000899250008A125000845
S315080025800D4B1B689BB210E00C4B1B689BB20CE012
S315080025900B4B1B689BB208E00A4B1B689BB204E016
S315080025A0094B1B689BB200E000231BB218460C3788
S315080025B0BD465DF8047B7047D8080020DC0800207B
S315080025C0E0080020E4080020E808002080B582B072
S315080025D000AF0346FB71FB79012B25D0022B12D0E5
S315080025E0002B3AD1002001F093F802461D4B1B68D8
S315080025F09A4294BF01230023DBB2002B01D00123AA
S315080026002CE000232AE0012001F082F80246164B4E
S315080026101B689A4294BF01230023DBB2002B01D02A
S3150800262001231BE0002319E0022001F071F802469D
S315080026300E4B1B689A4207D9032001F069F8024637
S315080026400B4B1B689A4201D8012300E00023002B9C
S3150800265001D0012302E0002300E0002318460837D2
S31508002660BD4680BDD8080020DC080020E008002010
S31508002670E408002080B483B000AF0346FB71FB7901
S31508002680012B1DD0022B35D0002B4DD12B4BD3ED72
S31508002690007AB2EE047A27EE877A284BD3ED017AD0
S315080026A0DFED276A67EEA67A37EE277A234BD3ED56
S315080026B0027ADFED236A67EEA67A77EE277A35E0A7
S315080026C0204BD3ED007A9FED207A27EE877A1D4BB3
S315080026D0D3ED017ADFED1D6A67EEA67A37EE277A23
S315080026E0184BD3ED027ADFED166A67EEA67A77EE17
S315080026F0277A1BE0164BD3ED007A9FED117A27EE69
S31508002700877A134BD3ED017ADFED0D6A67EEA67A69
S3150800271037EE277A0E4BD3ED027ADFED096A67EEBC
S31508002720A67A77EE277A01E0DFED057AB0EE670A3A
S315080027300C37BD465DF8047B704700BF04090020CE
S31508002740000000001C0900200000E14300007A4454
S315080027501009002000000000B0B52DED028B84B0F2
S3150800276000AF814B1B687B6001F05EF8B0EE408AD3
S31508002770FFF764FCF0EE407A78EE677A7A4BC3EDA1
S31508002780007A794B5B681846FDF7D0FE04460D467D
S31508002790754B1B681846FDF7C9FE71A3D3E90023DC
S315080027A0FDF718FF02460B4620462946FDF760FD51
S315080027B003460C4618462146FEF7C6F902466A4BFA
S315080027C05A606A4B1B687B6001F02EF8B0EE407ABF
S315080027D0F4EE007AB4EEE77AF1EE10FA94BF01232C
S315080027E00023DBB2002B06D04FF00003BB604FF08E
S315080027F00003FB6055E00020FFF7E8FE0346002BC8
S315080028002FD00020FFF7A6FE03461C46002000F046
S3150800281057FF0346E31A07EE903AF8EE677AC7EDD4
S31508002820037A0220FFF7D2FE0346002B0FD00120C1
S3150800283000F046FF04460120FFF78CFE0346E31A24
S3150800284007EE903AF8EE677AC7ED027A29E04FF07C
S315080028500003BB60D7ED037A77EEA77AC7ED037A54
S315080028601FE04FF00003FB600220FFF7AFFE0346B0
S31508002870002B10D0012000F023FF04460120FFF7AB
S3150800288069FE0346E31A5B0007EE903AF8EE677AAC
S31508002890C7ED027A05E04FF00003BB604FF0000376
S315080028A0FB6097ED027AD7ED037A77EE677A2F4BBE
S315080028B0C3ED007A2D4B5B681846FDF737FE0446D4
S315080028C00D462A4B1B681846FDF730FE24A3D3E9AC
S315080028D00023FDF77FFE02460B4620462946FDF7F4
S315080028E0C7FC03460C4618462146FEF72DF9024654
S315080028F01E4B5A601E4B1B687B6000F0B3FFB0EEA0
S31508002900408AFFF793FAF0EE407A78EE677A184B2A
S31508002910C3ED007A164B5B681846FDF707FE0446BA
S315080029200D46134B1B681846FDF700FE0CA3D3E9AA
S315080029300023FDF74FFE02460B4620462946FDF7C3
S3150800294097FC03460C4618462146FEF7FDF8024654
S31508002950074B5A6000BF1037BD46BDEC028BB0BDB1
S31508002960FCA9F1D24D62503F1C0900201009002035
S315080029700409002080B500AF0120FFF77BFEF0EECA
S31508002980407AB0EE670A80BD80B52DED028B00AFA8
S315080029900D4B1B78002B0CD00020FFF76BFEB0EE1A
S315080029A0408A0220FFF766FEF0EE407A78EE677AF4
S315080029B004E00020FFF75EFEF0EE407AB0EE670A0C
S315080029C0BD46BDEC028B80BD2909002080B400AF4E
S315080029D0034B01221A7000BFBD465DF8047B7047A1
S315080029E02909002080B400AF034B00221A7000BFEB
S315080029F0BD465DF8047B70472909002080B400AF06
S31508002A00034B01221A7000BFBD465DF8047B704770
S31508002A102809002080B52DED028B82B000AF034651
S31508002A20FB7197F90730002B0AD1FFF7A3FFB0EE29
S31508002A30408AFFF7A9FFF0EE407A78EE677A09E058
S31508002A40FFF798FFB0EE408AFFF79EFFF0EE407A58
S31508002A5078EE277AB0EE670A0837BD46BDEC028BDA
S31508002A6080BD00BF00000000B0B52DED028B84B01C
S31508002A7000AF0346FB7197F90730002B18D100F019
S31508002A80D3FEB0EE408A00F0EDFEB0EE407ADFED00
S31508002A90487A67EE277AF0EE006A87EEA67ADFEDC7
S31508002AA0456AC7EE267A78EE677AC7ED037A17E0A5
S31508002AB000F0BAFEB0EE408A00F0D4FEB0EE407ADE
S31508002AC0DFED3B7A67EE277AF0EE006A87EEA67AA4
S31508002AD0DFED386AC7EE267A78EE277AC7ED037AED
S31508002AE0F868FDF723FD2EA3D3E90023FDF79CFE26
S31508002AF003460C46184621464FF000022E4BFDF7BA
S31508002B0069FD03460C46184621464FF000022B4B3A
S31508002B10FDF78AFE03460C46184621464FF000028A
S31508002B20274BFDF757FD03460C46184621464FF03E
S31508002B300002244BFDF778FE03460C46184621464C
S31508002B4019A3D3E90023FDF76FFE03460C46254675
S31508002B501C46FEF79DFB10EE103A1846FDF7E6FCFC
S31508002B6002460B4620462946FDF75EFE03460C46FE
S31508002B70184621464FF00002134BFDF72BFD03467E
S31508002B800C4618462146FDF7DFFF034607EE903A46
S31508002B90B0EE670A1037BD46BDEC028BB0BD00BF6C
S31508002BA0126270C5ACB4083F3333333333D36B404A
S31508002BB00000304200007A44008044400000224071
S31508002BC000001640000012400000594080B582B04F
S31508002BD000AF00F04BF80346002B3FD0214B1B7883
S31508002BE0002B03D1204B1B78002B37D04FF0000366
S31508002BF07B604FF000033B601A4B1B78002B09D013
S31508002C000020FFF731FF87ED010A0220FFF72CFFAE
S31508002C1087ED000A144B1B78002B15D00020FFF710
S31508002C20F9FEB0EE407AD7ED017A77EE877AC7EDEE
S31508002C30017A0220FFF7EEFEB0EE407AD7ED007A71
S31508002C4077EE877AC7ED007A97ED010A0120FEF73D
S31508002C505FFD97ED000A0020FEF75AFD00BF083712
S31508002C60BD4680BD2A0900200800002080B400AFB8
S31508002C70034B1B781846BD465DF8047B704700BFBA
S31508002C802809002080B400AF144B4FF000021A60E8
S31508002C90124B4FF000025A60104B4FF000029A6038
S31508002CA00F4B4FF000021A600D4B4FF000025A60AE
S31508002CB00B4B4FF000029A600A4B4FF000021A6065
S31508002CC0084B4FF000025A60064B4FF000029A601C
S31508002CD000BFBD465DF8047B704700BF04090020AD
S31508002CE0100900201C09002080B483B000AF0346F9
S31508002CF03960FB7197F90730002B0BDA0D49FB7920
S31508002D0003F00F03043B3A68D2B21201D2B20B4465
S31508002D101A7609E0084997F907303A68D2B21201DB
S31508002D20D2B20B4483F8002300BF0C37BD465DF8CA
S31508002D30047B704700ED00E000E100E080B582B05A
S31508002D4000AF78607B68013BB3F1807F01D3012334
S31508002D500FE00A4A7B68013B53600F214FF0FF30B2
S31508002D60FFF7C2FF054B00229A60044B07221A6040
S31508002D70002318460837BD4680BD00BF10E000E0B6
S31508002D8080B500AF00F00EF800F024F800F0EAF87D
S31508002D9000F050F900F094F900F0FAF900F0C6FADC
S31508002DA000BF80BD80B584B000AF01F053F83B4644
S31508002DB0184601F0C3FC7B68054AA2FB03239B095E
S31508002DC01846FFF7BBFF00BF1037BD4680BD00BFE2
S31508002DD0D34D621080B582B000AF5D4A5C4B1B686C
S31508002DE023F0847323F4803313600121022001F059
S31508002DF04FFD0121042001F04BFD0121082001F0BF
S31508002E0047FD0121802001F043FD3B46184601F0AD
S31508002E10F7FB49F210033B6002237B7101233B71E8
S31508002E200023BB710023FB713B461946494801F054
S31508002E3059FB4FF480433B6000233B710123FB7130
S31508002E403B461946434801F04DFB3B46184601F000
S31508002E50D7FB4DF60C433B6002237B7101233B7184
S31508002E600023BB710023FB713B4619463A4801F023
S31508002E7039FB0421384801F0F7FB0821364801F0F0
S31508002E80F3FB4FF48061344801F0EEFB4FF4006128
S31508002E90314801F0E9FB4FF480512F4801F0E4FB7B
S31508002EA04FF480412C4801F0DFFB4FF400412A48DB
S31508002EB001F0DAFB3B46184601F0A2FB03233B6010
S31508002EC002237B7101233B710023BB710023FB7135
S31508002ED03B461946214801F005FB01211F4801F030
S31508002EE0C3FB02211D4801F0BFFB3B46184601F013
S31508002EF087FB4FF4E0533B6002237B7101233B7150
S31508002F000023BB710023FB713B461946124801F0AA
S31508002F10E9FA04233B603B461946114801F0E2FAF8
S31508002F204FF480610C4801F0AFFB4FF400610A488A
S31508002F3001F0AAFB4FF48051074801F0A5FB0421D4
S31508002F40074801F0A1FB00BF0837BD4680BD00BF9A
S31508002F50003802400004024000080240001C0240FB
S31508002F60000C024080B58CB000AF0121022001F0B0
S31508002F708FFC0121042001F08BFC07F12803184679
S31508002F8001F03EFB032387F82C30002387F82F3007
S31508002F90022387F82D300323BB6207F1280319465D
S31508002FA0214801F09FFA3323BB6207F1280319462B
S31508002FB01E4801F097FA00211D4801F049F9012140
S31508002FC04FF4807001F0A4FC01F0B6F800233B60D2
S31508002FD04FF480337B600023BB604FF47063FB6063
S31508002FE03B46184601F00CF900233B6100233B756C
S31508002FF000237B750023BB6100233B62092387F806
S31508003000243007F110031946094801F0A3F80121F5
S31508003010074801F01DF90021054801F01DFA00BF17
S315080030203037BD4680BD00BF00040240000802409C
S315080030300020014080B586B000AF0121102001F0C4
S3150800304067FC0121012001F023FC072209211A4807
S3150800305001F02AFB07220A21174801F025FB4FF445
S31508003060C0633B6102237B7502233B7507F110039E
S315080030701946114801F036FA4FF4E1333B60002354
S31508003080BB800023FB8000233B810023BB810C23EC
S315080030907B813B461946094801F080FF012240F230
S315080030A02551064802F068F80121044802F032F872
S315080030B000BF1837BD4680BD000002400010014021
S315080030C080B588B000AF01214FF4805001F020FC94
S315080030D00121012001F0DCFB07F11803184601F075
S315080030E08FFA1023BB6101233B7703237B770023E9
S315080030F0BB770023FB7707F118031946224801F02E
S31508003100F1F902233B77E023BB6107F1180319465F
S315080031101D4801F0E7F910211B4801F0A5FA052220
S315080031200521194801F0C0FA05220621164801F0C2
S31508003130BBFA05220721144801F0B6FA0023BB8022
S315080031404FF48273FB8000233B8100237B8100239D
S31508003150BB814FF44073FB8110233B8200237B82A3
S315080031600723BB823B1D1946084801F011FC0121C3
S31508003170064801F051FC1021034801F075FA00BF1A
S315080031802037BD4680BD00BF000002400030014028
S3150800319080B58AB000AF0121012001F079FB012139
S315080031A0022001F075FB04233B62032387F82530D0
S315080031B0012387F82430002387F82630012387F86F
S315080031C0273007F120031946534801F08BF90421EB
S315080031D0514801F059FA0121042001F079FB012137
S315080031E0082001F075FB03233B62022387F824308D
S315080031F0022387F82530002387F82630002387F82E
S31508003200273007F120031946434801F06BF9C0231C
S315080032103B6207F120031946404801F063F940F282
S31508003220EB43BB610023BB820023BB830023FB82E5
S315080032300023BB7707F114031946394801F046FC09
S3150800324007F114031946374801F040FC60233B8018
S315080032500023BB8101237B800023BB603B461946C4
S315080032602F4801F0EDFC08212D4801F0EBFD3B4607
S3150800327019462B4801F05EFD0821294801F0FEFD9C
S315080032803B461946274801F0DBFC0821254801F092
S31508003290D9FD3B461946234801F04CFD0821214833
S315080032A001F0ECFD01214FF0804001F089FC01217D
S315080032B04FF0804001F000FE01211B4801F080FC20
S315080032C00121194801F0F8FD02220621134801F0F0
S315080032D0EBF902220721114801F0E6F90222002142
S315080032E00D4801F0E1F9022201210B4801F0DCF951
S315080032F001210B4801F064FC01210A4801F060FC39
S315080033000121074801F07CFC0121064801F078FC00
S3150800331000BF2837BD4680BD0000024000040240B9
S3150800332000080040000C00400004004080B586B04C
S3150800333000AF0121022001F0ABFA0121042001F0BF
S31508003340A7FA0121012001F0C3FA0121022001F0A8
S31508003350BFFA02220621394801F0A6F902220721FE
S31508003360364801F0A1F901220F21354801F09CF9F0
S3150800337001220321334801F097F907F11003184693
S3150800338001F03EF9C0233B6102233B7502237B759E
S315080033900023BB750023FB7507F110031946274860
S315080033A001F0A0F84FF400433B6107F110031946FA
S315080033B0234801F097F808233B6107F110031946E3
S315080033C0204801F08FF84FF6FE73BB600023BB80E0
S315080033D00023BB810023FB800023BB733B1D1946DA
S315080033E04FF0804001F072FB3B1D1946164801F06C
S315080033F06DFB4FF6FF714FF0804001F0D3FB0023C1
S31508003400002203214FF0804001F07CFD01214FF09E
S31508003410804001F0F5FB4FF6FF710B4801F0C2FB47
S31508003420002300220321084801F06CFD012106480B
S3150800343001F0E6FB00BF1837BD4680BD0008024014
S31508003440000002400004024000040040F0B585B0C8
S3150800345002AF0023FB80B7F9063042F20F7293429F
S3150800346005DCFB889BB201339BB2FB80F3E7FFF7D1
S3150800347087FC00F073F9FDF70BFF10EE103A1846BB
S31508003480FDF754F803460C461A462346534800F0FF
S3150800349061FCFDF7FDFEB0EE407AF1EE007AB4EE7F
S315080034A0E77AF1EE10FA4CBF01230023DBB2002BBA
S315080034B01AD0FEF7DDF84FF4FA7000F0D3FDFEF7E8
S315080034C0A9F84FF4FA7000F0CDFD4FF48041444856
S315080034D001F0B0F80346012B0CBF01230023DBB231
S315080034E0002B00D1E5E700BFFEF7ACFB4FF47A717D
S315080034F00320FEF7EBF8FEF715FC00F0C1F9FEF71E
S3150800350005FA0A2000F0AEFDFFF778FA9FED350AB6
S3150800351000F03EF99FED330A00F076F99FED310A87
S3150800352000F054F99FED2F0A00F08CF9FFF7AAFB7B
S315080035302D4B2E4A1A609FED2B0A00F0B9F900F0C0
S315080035409FF90820FDF7CEFE9FED290A00F098FAAC
S315080035500220FDF7C7FE4FF47A7000F083FDFEF7F0
S31508003560ADF9FEF757F84FF480411D4801F062F8AF
S315080035700346012B0CBF01230023DBB2002B00D02E
S31508003580F1E700233B603B68B3F57A7F21DA164AF8
S315080035903B689B0013441B681846FCF7C7FF0546A3
S315080035A00E46114A3B6803F51C5310339B0013441F
S315080035B01B681846FCF7BAFF03460C46CDE90034EB
S315080035C02A4633460B4800F0C5FB3B6801333B608F
S315080035D0D9E7012318460C37BD46F0BD288F0008E9
S315080035E00004024000000000340A0020000080BFEA
S315080035F00000B442348F000898B500AF2D4B1B6805
S3150800360001332C4A136000F0B5F80120FEF72EFEB0
S31508003610FEF738FBFEF7D4FBFEF7A6FBFEF714FC15
S3150800362000F0FAF9FFF798F8FFF7D0FAFEF78AF9EB
S315080036300346002B3BD0204B1B88002B10D11F4B79
S31508003640D3ED007ABFEE007AF4EE477AF1EE10FA7F
S315080036502DD1194B1B8801339AB2174B1A8026E0D5
S31508003660154B1B8842F20F72934220D8124B1B88C7
S315080036701C46FEF7DBFBF0EE407A104AA300134423
S31508003680C3ED007A0C4B1B881C4600F0EBF8F0EEF5
S31508003690407A0A4A04F51C5310339B001344C3EDC1
S315080036A0007A054B1B8801339AB2034B1A8000BF78
S315080036B098BD00BF300A0020B4420120340A002019
S315080036C080B483B000AF0346FB71FB79032B17D890
S315080036D001A252F823F000BFE9360008EF360008C9
S315080036E0F5360008FB36000840F6B24309E04FF409
S315080036F0486306E042F63F2303E042F2747300E0B3
S31508003700002318460C37BD465DF8047B704700BF9A
S3150800371080B483B000AF0346FB71FB79032B15D841
S3150800372001A252F823F000BF393700083F370008D6
S31508003730453700084937000844F6206307E04FF488
S31508003740FA6304E0002302E0002300E000231846A1
S315080037500C37BD465DF8047B704700BF80B400AFE8
S31508003760034B00221A6000BFBD465DF8047B704714
S31508003770D442012080B400AF044B1B680133034ACE
S31508003780136000BFBD465DF8047B7047D442012034
S3150800379080B483B000AF87ED010A044A7B681360E2
S315080037A000BF0C37BD465DF8047B7047B842012060
S315080037B080B400AF044B1B6807EE903AB0EE670A78
S315080037C0BD465DF8047B7047B842012080B483B0DB
S315080037D000AF87ED010A044A7B68136000BF0C3707
S315080037E0BD465DF8047B7047BC42012080B400AF3B
S315080037F0044B1B6807EE903AB0EE670ABD465DF8C3
S31508003800047B7047BC42012080B483B000AF87EDCB
S31508003810010A044A7B68136000BF0C37BD465DF891
S31508003820047B7047C042012080B400AF044B1B687C
S3150800383007EE903AB0EE670ABD465DF8047B70471E
S31508003840C042012080B483B000AF87ED010A044A64
S315080038507B68136000BF0C37BD465DF8047B704774
S31508003860C442012080B400AF044B1B6807EE903AAF
S31508003870B0EE670ABD465DF8047B7047C442012076
S3150800388080B500AFFEF75CFAFFF768FF00BF80BDA2
S3150800389080B500AFFEF784FAF0EE407AB0EE670A1C
S315080038A000F062FBF0EE407AB0EE670A80BD00BF1A
S315080038B080B483B000AF87ED010A044A7B681360C1
S315080038C000BF0C37BD465DF8047B7047D042012027
S315080038D0B0B500AFFFF7A8FF10EE103A1846FCF790
S315080038E025FE04460D46FFF763FF10EE103A18460C
S315080038F0FCF71CFE1EA3D3E90023FCF76BFE024669
S315080039000B4620462946FCF7B3FC03460C461846E8
S315080039102146FDF719F9034600EE103AFFF774FF42
S31508003920FFF7A0FF10EE103A1846FCF7FFFD044615
S315080039300D46FFF75BFF10EE103A1846FCF7F6FD4A
S315080039400BA3D3E90023FCF745FE02460B462046A7
S315080039502946FCF78DFC03460C4618462146FDF71A
S31508003960F3F8034600EE103AFFF76CFF00BFB0BD50
S31508003970FCA9F1D24D62503FB0B500AFFFF754FF36
S3150800398010EE103A1846FCF7D1FD1FA3D3E9002321
S31508003990FCF720FE03460C4625461C461C4B1B68B6
S315080039A01846FCF7C3FD22462B46FCF761FC034686
S315080039B00C4618462146FDF7C7F80246144B1A600E
S315080039C0FFF732FF10EE103A1846FCF7AFFD0EA3CC
S315080039D0D3E90023FCF7FEFD03460C4625461C46A4
S315080039E00C4B1B681846FCF7A1FD22462B46FCF734
S315080039F03FFC03460C4618462146FDF7A5F8024645
S31508003A00044B1A6000BFB0BDFCA9F1D24D62503F0D
S31508003A10D0420120CC420120B0B500AFFFF758FFD5
S31508003A20FFF7AAFFFFF71EFF10EE103A1846FCF73D
S31508003A307DFD10A3D3E90023FCF7CCFD03460C4615
S31508003A4025461C460A4B1B681846FCF76FFD22469E
S31508003A502B46FCF70DFC03460C4618462146FDF797
S31508003A6073F80246024B1A6000BFB0BDAFF3008080
S31508003A70C8420120FCA9F1D24D62503F0000000067
S31508003A8090B52DED028B85B000AF87ED010A4FF09A
S31508003A908043BB604FF00003FB60FEF7A3FFD7ED42
S31508003AA0017AF5EEC07AF1EE10FA0FD5D7ED027A63
S31508003AB0F5EEC07AF1EE10FA02D5D7ED027A03E0F8
S31508003AC0D7ED027AF1EE677AC7ED027AFFF7D8FEEC
S31508003AD09FED830AFFF7B6FED7ED027AB0EE670AC6
S31508003AE0FFF774FEFFF7BEFEF0EE407AF5EEC07AF9
S31508003AF0F1EE10FA06D5FFF7B5FEF0EE407AF1EED4
S31508003B00677A03E0FFF7AEFEF0EE407A754B93ED69
S31508003B10007AF4EEC77AF1EE10FA4CBF01230023BF
S31508003B20DBB2002B2BD0FFF79DFEB0EE408AFFF7E5
S31508003B3099FEF0EE407A28EE277AD7ED027A77EEEC
S31508003B40A77AC7EE276AB0EE660A00F00DFA87ED87
S31508003B50030A97ED018AFFF79BFEF0EE407A38EEEE
S31508003B60677AD7ED037AB4EEE77AF1EE10FA94BFE6
S31508003B7001230023DBB2002B00D1B3E700BF9FED82
S31508003B80580AFFF723FE97ED017AD7ED037A77EE09
S31508003B90677AC7ED037AFFF765FEB0EE408AFFF74E
S31508003BA061FEF0EE407A28EE277AD7ED027A77EEB4
S31508003BB0A77AC7EE276AB0EE660A00F0D5F987ED50
S31508003BC0030A97ED018AFFF763FEF0EE407A38EEB6
S31508003BD0677AD7ED037AB4EEE77AF1EE10FA94BF76
S31508003BE001230023DBB2002B00D1D4E700BFD7EDB9
S31508003BF0027AF1EE677AB0EE670AFFF7E7FDFFF79C
S31508003C0047FEF0EE407AF5EEC07AF1EE10FA06D5E8
S31508003C10FFF73EFEF0EE407AB1EE677A03E0FFF773
S31508003C2037FEB0EE407AD7ED017AF5EEC07AF1EEBE
S31508003C3010FA04D5D7ED017AF1EE677A01E0D7EDEF
S31508003C40017AB4EEE77AF1EE10FA4CBF01230023AD
S31508003C50DBB2002B2BD0FFF705FEF0EE407AF5EE2F
S31508003C60C07AF1EE10FA06D5FFF7FCFDF0EE407AC1
S31508003C70F1EE677A03E0FFF7F5FDF0EE407A17EE0E
S31508003C80900AFCF753FC01231C4613A3D3E900232F
S31508003C90FCF712FF0346002B01D100231C46E3B2B2
S31508003CA0002BACD09FED0E0AFFF790FDA7E79FED1E
S31508003CB00C0AFFF78BFD9FED0A0AFFF7C3FD9FED80
S31508003CC0080AFFF7F5FDFEF781FE00BF1437BD466B
S31508003CD0BDEC028B90BD00BF7B14AE47E17A943FE2
S31508003CE000000000408F000880B582B000AF034690
S31508003CF0FB71FB799BB21946074801F02BFA00BF06
S31508003D008021054801F080FA0346002BF8D000BF51
S31508003D100837BD4680BD00BF0010014080B584B09D
S31508003D2000AF78600B467B800023FB8109E0FB89A6
S31508003D307A6813441B781846FFF7D6FFFB890133C8
S31508003D40FB81FA89B7F902309A42F0DB00BF1037D7
S31508003D50BD4680BD0FB480B582B000AF07F114032D
S31508003D603B603A683969094801F000FB78607B686E
S31508003D709BB21BB219460548FFF7D0FF7B68184669
S31508003D800837BD46BDE8804004B07047DC430120D3
S31508003D9080B400AF00BFBD465DF8047B704700BF26
S31508003DA080B400AFFEE700BF80B400AFFEE700BFF7
S31508003DB080B400AFFEE700BF80B400AFFEE700BFE7
S31508003DC080B400AF00BFBD465DF8047B704700BFF6
S31508003DD080B400AF00BFBD465DF8047B704700BFE6
S31508003DE080B400AF00BFBD465DF8047B704700BFD6
S31508003DF080B500AFFFF700FC00BF80BD80B584B07A
S31508003E0000AF7860114B1B68002B02D10F4B104A8C
S31508003E101A600E4B1B68FB600C4B1A687B681344D0
S31508003E206A46934207D901F00BFA02460C2313603F
S31508003E304FF0FF3306E0054B1A687B681344034AC4
S31508003E401360FB6818461037BD4680BD4444012000
S31508003E501048012080B500AF164A164BD3F88830B3
S31508003E6043F47003C2F88830134A134B1B6843F0B7
S31508003E7001031360104B00229A600F4A0E4B1B6811
S31508003E8023F0847323F4803313600B4B0B4A5A6078
S31508003E90094A094B1B6823F480231360064B00224A
S31508003EA0DA6000F00DF8034B4FF000629A6000BF2D
S31508003EB080BD00BF00ED00E000380240103000244D
S31508003EC080B400AF234A234B1B6C43F08053136422
S31508003ED0214A214B1B6843F4404313601D4A1D4B7E
S31508003EE09B6893601B4A1B4B9B6843F40043936093
S31508003EF0184A184B9B6843F4A0539360154B174A0E
S31508003F005A60144A134B1B6843F08073136000BF52
S31508003F10104B1B6803F00073002BF9D0104B40F2CE
S31508003F2005621A600B4A0B4B9B6823F003039360E8
S31508003F30084A084B9B6843F00203936000BF054B91
S31508003F409B6803F00C03082BF9D100BFBD465DF84A
S31508003F50047B704700380240007000401054000788
S31508003F60003C02400000000090B583B000AF87ED2A
S31508003F70010AD7ED017A9FED107A67EE877A17EE78
S31508003F80900AFCF7D3FA0AA3D3E90023FCF74CFC02
S31508003F9003460C4618462146FCF7D6FD034607EEAF
S31508003FA0903AB0EE670A0C37BD4690BDAFF3008075
S31508003FB06F1283C0CA210940000034430000000084
S31508003FC090B583B000AF87ED010A7868FCF7AEFAC2
S31508003FD00EA3D3E90023FCF7FDFA03460C46184660
S31508003FE021464FF00002084BFCF71EFC03460C4620
S31508003FF018462146FCF7A8FD034607EE903AB0EEB0
S31508004000670A0C37BD4690BD008066406F1283C0B4
S31508004010CA21094080B483B000AF7860044A7B683F
S31508004020136000BF0C37BD465DF8047B704700BFC0
S315080040304844012080B400AF034B00221A6000BF39
S31508004040BD465DF8047B70474844012080B400AF44
S31508004050034B1B681846BD465DF8047B704700BFD6
S315080040604844012080B584B000AF78600023FB6027
S315080040701A4B1B681846FFF7CDFFFFF7E7FF014607
S315080040807A68174B9B1A99428CBF01230023DBB22F
S31508004090002B07D0FFF7CEFF104B00221A607B6873
S315080040A0FB6005E0FFF7D2FF02467B681344FB601E
S315080040B0FFF7CCFF0246FB689A4234BF0123002370
S315080040C0DBB2002B05D0054B1B681846FFF7A2FF8D
S315080040D0EEE700BF1037BD4680BD00BF300A00209E
S315080040E00084D717DFF834D0002103E00C4B5B5867
S315080040F0435004310B480C4B42189A42F6D30B4AEC
S3150800410002E0002342F8043B094B9A42F9D3FFF731
S31508004110A1FE01F09BF8FFF799F97047000002200D
S31508004120DC90000800000020940800209408002075
S3150800413010480120FEE7000080B500AF01214FF4CA
S31508004140807000F005FC00214FF4807000F000FC40
S3150800415000BF80BD80B485B000AF786039600023A9
S31508004160FB600023FB727B685B68FB60FB6823F0DF
S31508004170407323F48073FB603B681B791A023B6823
S315080041801B681343FA681343FB607B68FA685A6036
S315080041907B689B68FB60FA68184B1340FB603B68BA
S315080041A01A693B68DB681A433B689B681A433B6895
S315080041B05B795B001343FA681343FB607B68FA6814
S315080041C09A607B68DB6AFB60FB6823F47003FB601C
S315080041D03B681B7D013BDAB2FB7A1343FB72FB7A21
S315080041E01B05FA681343FB607B68FA68DA6200BF4E
S315080041F01437BD465DF8047B704700BFFDF7FFC066
S3150800420080B485B000AF78600023FB600E4B5B6816
S31508004210FB60FA680D4B1340FB607B681A687B6885
S315080042205B681A437B689B681A437B68DB681343A1
S31508004230FA681343FB60044AFB68536000BF1437EF
S31508004240BD465DF8047B704700230140E030FCFF63
S3150800425080B483B000AF78600B46FB70FB78002B08
S3150800426006D07B689B6843F001027B689A6005E08C
S315080042707B689B6823F001027B689A6000BF0C3755
S31508004280BD465DF8047B704780B485B000AF7860A2
S31508004290084611461A460346FB700B46BB70134682
S315080042A07B700023FB600023BB60FB78092B23D9B6
S315080042B07B68DB68FB60FB78A3F10A0213465B00A8
S315080042C01344072202FA03F3BB60BB68DB43FA68B0
S315080042D01340FB607978FB78A3F10A0213465B006A
S315080042E0134401FA03F3BB60FA68BB681343FB6027
S315080042F07B68FA68DA601EE07B681B69FB60FA78FF
S3150800430013465B001344072202FA03F3BB60BB683B
S31508004310DB43FA681340FB607978FA7813465B004A
S31508004320134401FA03F3BB60FA68BB681343FB60E6
S315080043307B68FA681A61BB78062B21D87B685B6BA9
S31508004340FB60BB785A1E13469B0013441F2202FAD1
S3150800435003F3BB60BB68DB43FA681340FB60F9787C
S31508004360BB785A1E13469B00134401FA03F3BB603D
S31508004370FA68BB681343FB607B68FA685A6347E0D0
S31508004380BB780C2B21D87B681B6BFB60BB78DA1FCC
S3150800439013469B0013441F2202FA03F3BB60BB6853
S315080043A0DB43FA681340FB60F978BB78DA1F1346DB
S315080043B09B00134401FA03F3BB60FA68BB68134316
S315080043C0FB607B68FA681A6322E07B68DB6AFB603D
S315080043D0BB78A3F10D0213469B0013441F2202FA71
S315080043E003F3BB60BB68DB43FA681340FB60F978EC
S315080043F0BB78A3F10D0213469B00134401FA03F39D
S31508004400BB60FA68BB681343FB607B68FA68DA62CC
S3150800441000BF1437BD465DF8047B704780B483B08F
S3150800442000AF78607B689B6843F080427B689A603F
S3150800443000BF0C37BD465DF8047B704780B483B077
S3150800444000AF78607B68DB6C9BB218460C37BD46BC
S315080044505DF8047B704700BF80B483B000AF786016
S315080044600B46FB70FB78002B06D07B689B6843F4F1
S3150800447080727B689A6005E07B689B6823F480728B
S315080044807B689A6000BF0C37BD465DF8047B7047B1
S3150800449080B485B000AF78600B46FB700023FB73D1
S315080044A07B681A68FB781340002B02D00123FB7344
S315080044B001E00023FB73FB7B18461437BD465DF805
S315080044C0047B704780B483B000AF78600B46FB70FE
S315080044D0FB78DA437B681A6000BF0C37BD465DF887
S315080044E0047B704780B487B000AF786039600023DA
S315080044F07B6100233B610023FB6000237B6176E040
S3150800450001227B6902FA03F33B613B681A683B693F
S315080045101340FB60FA683B699A4265D17B681A6862
S315080045207B695B00032101FA03F3DB431A407B68CE
S315080045301A607B681A683B681B7919467B695B00B9
S3150800454001FA03F31A437B681A603B681B79012B4F
S3150800455003D03B681B79022B2ED17B689A687B694E
S315080045605B00032101FA03F3DB431A407B689A6078
S315080045707B689A683B685B7919467B695B0001FA38
S3150800458003F31A437B689A607B685A687B699BB217
S31508004590012101FA03F3DB431A407B685A607B6802
S315080045A05A683B689B7919467B699BB201FA03F303
S315080045B09BB21A437B685A607B68DA687B699BB250
S315080045C05B00032101FA03F3DB431A407B68DA60D8
S315080045D07B68DA683B68DB7919467B695B0001FA18
S315080045E003F31A437B68DA607B6901337B617B6975
S315080045F00F2B85D900BF1C37BD465DF8047B704775
S3150800460080B483B000AF78607B684FF6FF721A609B
S315080046107B6800221A717B6800225A717B68002227
S315080046209A717B680022DA7100BF0C37BD465DF8C7
S31508004630047B704780B485B000AF78600B467B80FA
S315080046400023FB737B681A697B881340002B02D012
S315080046500123FB7301E00023FB73FB7B1846143729
S31508004660BD465DF8047B704780B483B000AF7860C0
S315080046700B467B807B687A881A8300BF0C37BD4659
S315080046805DF8047B704700BF80B483B000AF7860E4
S315080046900B467B807B687A885A8300BF0C37BD46F9
S315080046A05DF8047B704700BF80B485B000AF7860C2
S315080046B00B467B8013467B700023FB600023BB60A0
S315080046C07A787B8803F007039B0002FA03F3FB6002
S315080046D07B88DB089BB218467B88DB089BB21A46A8
S315080046E07B68083253F822207B8803F007039B0077
S315080046F00F2101FA03F3DB4302EA03017B6800F1A9
S31508004700080243F822107B88DB089BB21A467B68AE
S31508004710083253F82220FB681343BB607B88DB080A
S315080047209BB21A467B680832B96843F8221000BF64
S315080047301437BD465DF8047B704700BF80B489B066
S3150800474000AF78600023BB6100237B610023FB6117
S3150800475002233B610023FB600223BB60484B9B6836
S3150800476003F00C03BB61BB69042B07D0082B09D0E7
S31508004770002B3FD17B68434A1A603FE07B68424A78
S315080047801A603BE03E4B5B6803F480039B0DFB60BD
S315080047903B4B5B6803F03F03BB60FB68002B0DD007
S315080047A0394ABB68B2FBF3F2354B596847F6C07312
S315080047B00B409B0903FB02F3FB610CE0314ABB6823
S315080047C0B2FBF3F22E4B596847F6C0730B409B09B0
S315080047D003FB02F3FB612A4B5B6803F440331B0CB3
S315080047E001335B003B61FA693B69B2FBF3F27B6814
S315080047F01A6003E07B68234A1A6000BF204B9B6857
S3150800480003F0F003BB61BB691B09BB611F4ABB69A7
S3150800481013441B78DBB27B617B681A687B69DA40D4
S315080048207B685A60164B9B6803F4E053BB61BB690F
S315080048309B0ABB61154ABB6913441B78DBB27B61D3
S315080048407B685A687B69DA407B689A600C4B9B6880
S3150800485003F46043BB61BB695B0BBB610B4ABB6975
S3150800486013441B78DBB27B617B685A687B69DA4044
S315080048707B68DA6000BF2437BD465DF8047B704765
S31508004880003802400024F40040787D010C00002026
S3150800489080B483B000AF78600B46FB70FB78002BC2
S315080048A006D00A49094B1A6B7B6813430B6306E06B
S315080048B00649064B1A6B7B68DB4313400B6300BF44
S315080048C00C37BD465DF8047B704700BF00380240D0
S315080048D080B483B000AF78600B46FB70FB78002B82
S315080048E006D00A49094B1A6C7B6813430B6406E029
S315080048F00649064B1A6C7B68DB4313400B6400BF02
S315080049000C37BD465DF8047B704700BF003802408F
S3150800491080B483B000AF78600B46FB70FB78002B41
S3150800492006D00A49094B5A6C7B6813434B6406E068
S315080049300649064B5A6C7B68DB4313404B6400BF41
S315080049400C37BD465DF8047B704700BF003802404F
S3150800495080B483B000AF78600B46FB70FB78002B01
S3150800496006D00A49094B5A6A7B6813434B6206E02C
S315080049700649064B5A6A7B68DB4313404B6200BF05
S315080049800C37BD465DF8047B704700BF003802400F
S3150800499080B485B000AF786039600023FB817B68FE
S315080049A01B88FB81FB8903F44153FB813B681A880A
S315080049B03B685B8813439AB23B689B8813439AB259
S315080049C03B68DB8813439AB23B681B8913439AB248
S315080049D03B685B8913439AB23B689B8913439AB237
S315080049E03B68DB8913439AB2FB891343FB817B68D7
S315080049F0FA891A807B689B8B9BB223F400639AB270
S31508004A007B689A833B681A8A7B681A8200BF1437C8
S31508004A10BD465DF8047B704780B483B000AF78600C
S31508004A200B46FB70FB78002B08D07B681B889BB273
S31508004A3043F040039AB27B681A8007E07B681B88BC
S31508004A409BB223F040039AB27B681A8000BF0C37EA
S31508004A50BD465DF8047B704780B483B000AF7860CC
S31508004A607B689B899BB218460C37BD465DF8047B6C
S31508004A70704700BF80B483B000AF78600B467B8078
S31508004A807B687A889A8100BF0C37BD465DF8047B3F
S31508004A90704700BF80B485B000AF78600B467B8056
S31508004AA00023FB737B681B899AB27B8813409BB2F1
S31508004AB0002B02D00123FB7301E00023FB73FB7B71
S31508004AC018461437BD465DF8047B704780B485B038
S31508004AD000AF786039600023FB817B681B88FB8107
S31508004AE07B68294A934213D07B68284A93420FD0A1
S31508004AF07B68B3F1804F0BD07B68254A934207D079
S31508004B007B68244A934203D07B68234A934208D1A0
S31508004B10FB8923F07003FB813B685A88FB891343A2
S31508004B20FB817B681D4A93420CD07B681C4A9342E2
S31508004B3008D0FB8923F44073FB813B681A89FB89FB
S31508004B401343FB817B68FA891A803B685A687B683D
S31508004B50DA623B681A887B681A857B680A4A934238
S31508004B6003D07B68094A934204D13B689B7A9AB280
S31508004B707B681A867B6801229A8200BF1437BD4675
S31508004B805DF8047B704700BF000001400004014047
S31508004B900004004000080040000C004000100040DF
S31508004BA00014004080B483B000AF786039607B6839
S31508004BB03A68DA6200BF0C37BD465DF8047B704779
S31508004BC080B483B000AF78600B46FB70FB78002B8F
S31508004BD008D07B681B889BB243F080039AB27B6837
S31508004BE01A8007E07B681B889BB223F080039AB281
S31508004BF07B681A8000BF0C37BD465DF8047B70479A
S31508004C0080B483B000AF78600B46FB70FB78002B4E
S31508004C1008D07B681B889BB243F001039AB27B6875
S31508004C201A8007E07B681B889BB223F001039AB2BF
S31508004C307B681A8000BF0C37BD465DF8047B704759
S31508004C4080B485B000AF7860396000237B8100238B
S31508004C50FB810023BB817B681B8C9BB223F001037D
S31508004C609AB27B681A847B681B8CFB817B689B885D
S31508004C70BB817B681B8B7B817B8923F070037B81DF
S31508004C807B8923F003037B813B681A887B8913435E
S31508004C907B81FB8923F00203FB813B689A89FB89A8
S31508004CA01343FB813B685A88FB891343FB817B6866
S31508004CB01E4A934203D07B681D4A934223D1FB893F
S31508004CC023F00803FB813B68DA89FB891343FB81E0
S31508004CD0FB8923F00403FB813B689A88FB8913430D
S31508004CE0FB81BB8923F48073BB81BB8923F40073E2
S31508004CF0BB813B681A8ABB891343BB813B685A8AC6
S31508004D00BB891343BB817B68BA899A807B687A8999
S31508004D101A833B689A687B685A637B68FA891A849F
S31508004D2000BF1437BD465DF8047B7047000001409C
S31508004D300004014080B485B000AF78603960002374
S31508004D407B810023FB810023BB817B681B8C9BB284
S31508004D5023F010039AB27B681A847B681B8CFB814C
S31508004D607B689B88BB817B681B8B7B817B8923F453
S31508004D70E0437B817B8923F440737B813B681B88F6
S31508004D801B029AB27B8913437B81FB8923F020039C
S31508004D90FB813B689B891B019AB2FB891343FB8104
S31508004DA03B685B881B019AB2FB891343FB817B68CE
S31508004DB0224A934203D07B68214A93422BD1FB892E
S31508004DC023F08003FB813B68DB891B019AB2FB89D0
S31508004DD01343FB81FB8923F04003FB813B689B88D7
S31508004DE01B019AB2FB891343FB81BB8923F48063B9
S31508004DF0BB81BB8923F40063BB813B681B8A9B008C
S31508004E009AB2BB891343BB813B685B8A9B009AB203
S31508004E10BB891343BB817B68BA899A807B687A8988
S31508004E201A833B689A687B689A637B68FA891A844E
S31508004E3000BF1437BD465DF8047B7047000001408B
S31508004E400004014080B485B000AF78600B467B80D3
S31508004E500023FB817B681B8BFB81FB8923F00803FE
S31508004E60FB81FA897B881343FB817B68FA891A835D
S31508004E7000BF1437BD465DF8047B704780B485B023
S31508004E8000AF78600B467B800023FB817B681B8B19
S31508004E90FB81FB8923F40063FB817B881B029AB2A2
S31508004EA0FB891343FB817B68FA891A8300BF143791
S31508004EB0BD465DF8047B704780B483B000AF786068
S31508004EC00B46FB70FB78002B0CD07B68B3F844309C
S31508004ED09BB26FEA43436FEA53439AB27B68A3F8DF
S31508004EE0442009E07B68B3F844309BB2C3F30E0351
S31508004EF09AB27B68A3F8442000BF0C37BD465DF81C
S31508004F00047B704780B487B000AFF8600846114646
S31508004F101A4603467B810B463B811346FB800023DA
S31508004F20FB820023BB8200237B82FB681B89FB82F2
S31508004F30FB681B8BBB82FB681B8C7B82FB8A23F07E
S31508004F400703FB82FA8A7B891343FB82BB8A23F415
S31508004F50407323F00303BB82BB8A43F4807343F098
S31508004F600103BB827B8A23F022037B82FB881B0119
S31508004F709AB23B8913439AB27B8A13437B82FB68B6
S31508004F80FA8A1A81FB68BA8A1A83FB687A8A1A84AB
S31508004F9000BF1C37BD465DF8047B704780B58AB0F4
S31508004FA000AF7860396000237B6200233B620023F0
S31508004FB0FB610023BB617B681B8A9BB27B627B6AB1
S31508004FC023F440537B623B68DB881A467B6A1343AB
S31508004FD07B627B6A9AB27B681A827B689B899BB2E2
S31508004FE07B627B6A23F4B05323F00C037B623B6835
S31508004FF09A883B681B8913439AB23B685B891343BB
S315080050009BB21A467B6A13437B627B6A9AB27B68B9
S315080050109A817B689B8A9BB27B627B6A23F4407386
S315080050207B623B689B891A467B6A13437B627B6A71
S315080050309AB27B689A8207F108031846FFF77EFB47
S315080050407B68314A934203D07B68304A934202D147
S315080050507B693B6201E03B693B627B689B899BB24B
S315080050609BB21BB2002B0CDA3A6A13469B00134418
S315080050709A001A443B681B685B00B2FBF3F3FB61BA
S315080050800BE03A6A13469B0013449A001A443B689D
S315080050901B689B00B2FBF3F3FB61FB691C4AA2FB8E
S315080050A003235B091B017B627B6A1B09642202FBE3
S315080050B003F3FA69D31ABB617B689B899BB29BB2DF
S315080050C01BB2002B0CDABB69DB003233104AA2FB99
S315080050D003235B0903F007037A6A13437B620BE039
S315080050E0BB691B0132330A4AA2FB03235B0903F09F
S315080050F00F037A6A13437B627B6A9AB27B681A81CA
S3150800510000BF2837BD4680BD00100140001401408D
S315080051101F85EB5180B483B000AF78600B46FB70F7
S31508005120FB78002B08D07B689B899BB243F400531D
S315080051309AB27B689A8107E07B689B899BB223F4C5
S3150800514000539AB27B689A8100BF0C37BD465DF85A
S31508005150047B704780B483B000AF78600B467B80D1
S315080051607B88C3F308039AB27B689A8000BF0C3722
S31508005170BD465DF8047B704780B487B000AF7860A1
S315080051800B467B8013467B7000233B610023FB6044
S315080051900023BB6000237B617B687B617B88DBB275
S315080051A05B09DBB23B617B8803F01F03FB600122CE
S315080051B0FB6802FA03F3BB603B69012B03D17B69E9
S315080051C00C337B6109E03B69022B03D17B69103301
S315080051D07B6102E07B6914337B617B78002B06D008
S315080051E07B697A691168BA680A431A6006E07B69BE
S315080051F07A691168BA68D2430A401A6000BF1C3738
S31508005200BD465DF8047B704780B485B000AF786012
S315080052100B467B800023FB737B681B889AB27B88CE
S3150800522013409BB2002B02D00123FB7301E000233D
S31508005230FB73FB7B18461437BD465DF8047B704745
S31508005240014B1868704700BF4804002070B50F4E20
S315080052500F4D761BB61018BF002405D0013455F83B
S31508005260043B9847A642F9D10A4E0B4D761B03F02C
S3150800527049FEB61018BF002406D0013455F8043B81
S315080052809847A642F9D170BD70BD00BFD0900008FE
S31508005290D0900008D8900008D090000870B4840711
S315080052A046D0541E002A41D0CDB2034602E0621E03
S315080052B0E4B3144603F8015B9A07F8D1032C2ED9F8
S315080052C0CDB245EA05250F2C45EA054519D903F15E
S315080052D010022646103E0F2E42F8105C42F80C5C6F
S315080052E042F8085C42F8045C02F11002F2D8A4F114
S315080052F0100222F00F0204F00F041032032C13449C
S315080053000DD91E462246043A032A46F8045BFAD803
S31508005310221F22F003020432134404F003042CB1C2
S31508005320C9B21C4403F8011BA342FBD170BC7047E9
S3150800533014460346C2E700BFF0B59BB00D466FF0B2
S3150800534000444FF402774FF6FF76694600950495B8
S31508005350ADF80C7002940594ADF80E6000F038F8BC
S31508005360009B00221A701BB0F0BD00BF10B4044C9D
S3150800537013460A46014620685DF8044BFFF7DCBF72
S3150800538048040020024B13B1024800F005B87047E4
S3150800539000000000A5530008002301461A461846D7
S315080053A001F064BB38B5074D074C2C1BA41005D07B
S315080053B0013C55F8043D9847002CF9D1BDE8384022
S315080053C003F0A6BDDC900008D89000080000000095
S315080053D02DE9F04FBDB00C46049192460A9306900B
S315080053E002F044FB036811931846FBF709FDA389ED
S315080053F012901D0603D52369002B01F036819FED17
S31508005400A47B00238DED0E7B109321932093139399
S3150800541007932CAB1F9399469AF800305446EBB184
S31508005420252B02D11AE0252B03D014F8013F002BB7
S31508005430F9D1CAEB04058DB1209B219AC9F800A0C1
S3150800544001332A44072BC9F804502192209300F30C
S31508005450A68009F10809079B2B4407932378002B9C
S3150800546000F0A68000231A468DF85F301946089387
S3150800547003934FF0FF3B637804F1010A5D460AF196
S31508005480010AA3F12000582800F21F84DFE810F073
S315080054908B031D041D0493031D041D041D041D0414
S315080054A01D041D049A03A8031D045D00E2001D04E3
S315080054B006010D010D010D010D010D010D010D0175
S315080054C00D010D011D041D041D041D041D041D04EC
S315080054D01D041D041D041D041D0185021D048502ED
S315080054E01D041D041D041D04C0021D041D04C7025D
S315080054F01D041D041D041D041D04FA021D041D04BB
S3150800550028031D041D041D041D041D041D041D047B
S315080055101D041D041D0469037C038502850285029A
S3150800552084037C031D041D04F2031D04FD03A3006C
S315080055306400AD031D04B4031D04D5031D041D0436
