S010000068616C666D6F7573652E6D6F74AD
S31508000000000002209D820008C57C0008D57C0008F7
S31508000010DD7C0008E57C0008ED7C00080000000097
S31508000020000000000000000000000000F57C000849
S31508000030057D000800000000157D0008257D0008E4
S31508000040ED820008ED820008ED820008ED820008C6
S31508000050ED820008ED820008ED820008ED820008B6
S31508000060ED820008ED820008ED820008ED820008A6
S31508000070ED820008ED820008ED820008ED82000896
S31508000080ED820008ED820008ED820008ED82000886
S31508000090ED820008ED820008ED820008ED82000876
S315080000A0ED820008ED820008ED820008ED82000866
S315080000B0ED820008ED820008ED820008ED82000856
S315080000C0ED820008ED820008ED820008ED82000846
S315080000D0ED820008ED820008ED820008ED82000836
S315080000E0ED820008ED820008ED820008ED82000826
S315080000F0ED820008ED820008ED820008ED82000816
S31508000100ED820008ED820008ED820008ED82000805
S31508000110ED820008ED820008ED820008ED820008F5
S31508000120ED820008ED820008ED820008ED820008E5
S31508000130ED8200080000000000000000ED820008C3
S31508000140ED820008ED820008ED820008ED820008C5
S31508000150ED820008ED820008ED820008ED820008B5
S31508000160ED820008ED820008ED820008ED820008A5
S31508000170ED820008ED820008000000000000000083
S30D08000180ED820008ED8200087B
S315080001C0044B05481B1A062B02D9044B03B11847E2
S315080001D0704700BF97080020940800200000000020
S315080001E005490648091A891001EBD171491002D050
S315080001F0034B03B118477047940800209408002061
S315080002000000000010B5064C237843B9FFF7D8FF65
S31508000210044B13B10448AFF300800123237010BDCB
S315080002209408002000000000BCD0000808B5084B60
S315080002301BB108490848AFF300800848036813B99A
S31508000240BDE80840CCE7064B002BF9D09847F7E7FE
S315080002500000000098080020BCD000089408002080
S315080002600000000081F0004102E000BF83F0004377
S3150800027030B54FEA41044FEA430594EA050F08BF33
S3150800028090EA020F1FBF54EA000C55EA020C7FEAF7
S31508000290645C7FEA655C00F0E2804FEA5454D4EB74
S315080002A05555B8BF6D420CDD2C4480EA020281EA3E
S315080002B0030382EA000083EA010180EA020281EA76
S315080002C00303362D88BF30BD11F0004F4FEA0131C8
S315080002D04FF4801C4CEA113102D0404261EB4101D7
S315080002E013F0004F4FEA03334CEA133302D052425D
S315080002F063EB430394EA050F00F0A780A4F1010419
S31508000300D5F1200E0DDB02FA0EFC22FA05F2801852
S3150800031041F1000103FA0EF2801843FA05F3594138
S315080003200EE0A5F120050EF1200E012A03FA0EFCB7
S3150800033028BF4CF0020C43FA05F3C01851EBE371E1
S3150800034001F0004507D54FF0000EDCF1000C7EEBFE
S3150800035000006EEB0101B1F5801F1BD3B1F5001F3C
S315080003600CD349085FEA30004FEA3C0C04F101045B
S315080003704FEA445212F5800F80F09A80BCF1004F84
S3150800038008BF5FEA500C50F1000041EB045141EA06
S31508000390050130BD5FEA4C0C404141EB010111F407
S315080003A0801FA4F10104E9D191F0000F04BF0146B2
S315080003B00020B1FA81F308BF2033A3F10B03B3F190
S315080003C020020CDA0C3208DD02F1140CC2F10C0220
S315080003D001FA0CF021FA02F10CE002F11402D8BF7E
S315080003E0C2F1200C01FA02F120FA0CFCDCBF41EA4A
S315080003F00C019040E41AA2BF01EB0451294330BD19
S315080004006FEA04041F3C1CDA0C340EDC04F11404F5
S31508000410C4F1200220FA04F001FA02F340EA0300CC
S3150800042021FA04F345EA030130BDC4F10C04C4F112
S31508000430200220FA02F001FA04F340EA03002946F2
S3150800044030BD21FA04F0294630BD94F0000F83F43C
S31508000450801306BF81F480110134013D4EE77FEA1F
S31508000460645C18BF7FEA655C29D094EA050F08BF6B
S3150800047090EA020F05D054EA000C04BF194610464C
S3150800048030BD91EA030F1EBF0021002030BD5FEA90
S31508000490545C05D14000494128BF41F0004130BDB8
S315080004A014F580043CBF01F5801130BD01F000450C
S315080004B045F0FE4141F470014FF0000030BD7FEA7F
S315080004C0645C1ABF194610467FEA655C1CBF0B467A
S315080004D0024650EA013406BF52EA033591EA030F91
S315080004E041F4002130BD00BF90F0000F04BF002189
S315080004F0704730B54FF4806404F132044FF00005BC
S315080005004FF0000150E700BF90F0000F04BF002134
S31508000510704730B54FF4806404F1320410F000459A
S3150800052048BF40424FF000013EE700BF42004FEA95
S31508000530E2014FEA31014FEA02701FBF12F07F4312
S3150800054093F07F4F81F06051704792F0000F14BF0F
S3150800055093F07F4F704730B54FF4607401F0004553
S3150800056021F0004120E700BF50EA010208BF7047AA
S3150800057030B54FF000050AE050EA010208BF70479F
S3150800058030B511F0004502D5404261EB41014FF408
S31508000590806404F132045FEA915C3FF4DCAE4FF00C
S315080005A003025FEADC0C18BF03325FEADC0C18BFF3
S315080005B0033202EBDC02C2F1200300FA03FC20FA44
S315080005C002F001FA03FE40EA0E0021FA02F1144491
S315080005D0C1E600BF70B54FF0FF0C4CF4E06C1CEAA6
S315080005E011541DBF1CEA135594EA0C0F95EA0C0F1B
S315080005F000F0DEF82C4481EA030621EA4C5123EA8E
S315080006004C5350EA013518BF52EA033541F48011BC
S3150800061043F4801338D0A0FB02CE4FF00005E1FB6F
S3150800062002E506F00042E0FB03E54FF00006E1FBB9
S3150800063003569CF0000F18BF4EF0010EA4F1FF04FC
S31508000640B6F5007F64F5407404D25FEA4E0E6D413C
S3150800065046EB060642EAC62141EA55514FEAC5204D
S3150800066040EA5E504FEACE2EB4F1FD0C88BFBCF5C9
S31508000670E06F1ED8BEF1004F08BF5FEA500E50F17A
S31508000680000041EB045170BD06F0004646EA010140
S3150800069040EA020081EA0301B4EB5C04C2BFD4EB72
S315080006A00C0541EA045170BD41F480114FF0000E6B
S315080006B0013C00F3AB8014F1360FDEBF002001F0D9
S315080006C0004170BDC4F10004203C35DA0C341BDC53
S315080006D004F11404C4F1200500FA05F320FA04F025
S315080006E001FA05F240EA020001F0004221F0004159
S315080006F010EBD37021FA04F642EB06015EEA430ECC
S3150800070008BF20EAD37070BDC4F10C04C4F12005FB
S3150800071000FA04F320FA05F001FA04F240EA0200AE
S3150800072001F0004110EBD37041F100015EEA430E7F
S3150800073008BF20EAD37070BDC4F1200500FA05F29F
S315080007404EEA020E20FA04F301FA05F243EA02031E
S3150800075021FA04F001F0004121FA04F220EA02002D
S3150800076000EBD3705EEA430E08BF20EAD37070BD73
S3150800077094F0000F0FD101F00046400041EB010153
S3150800078011F4801F08BF013CF7D041EA060195F035
S31508000790000F18BF704703F00046520043EB0303EF
S315080007A013F4801F08BF013DF7D043EA06037047DC
S315080007B094EA0C0F0CEA135518BF95EA0C0F0CD0E7
S315080007C050EA410618BF52EA4306D1D181EA03012D
S315080007D001F000414FF0000070BD50EA410606BF27
S315080007E01046194652EA430619D094EA0C0F02D16C
S315080007F050EA013613D195EA0C0F05D152EA0336B1
S315080008001CBF104619460AD181EA030101F00041CE
S3150800081041F0FE4141F470014FF0000070BD41F017
S31508000820FE4141F4780170BD70B54FF0FF0C4CF4F1
S31508000830E06C1CEA11541DBF1CEA135594EA0C0F10
S3150800084095EA0C0F00F0A7F8A4EB050481EA030E5D
S3150800085052EA03354FEA013100F088804FEA033344
S315080008604FF0805545EA131343EA12634FEA022212
S3150800087045EA111545EA10654FEA00260EF00041D3
S315080008809D4208BF964244F1FD0404F5407402D225
S315080008905B084FEA3202B61A65EB03055B084FEAB6
S315080008A032024FF480104FF4002CB6EB020E75EBB3
S315080008B0030E22BFB61A754640EA0C005B084FEADB
S315080008C03202B6EB020E75EB030E22BFB61A754658
S315080008D040EA5C005B084FEA3202B6EB020E75EBA3
S315080008E0030E22BFB61A754640EA9C005B084FEA1B
S315080008F03202B6EB020E75EB030E22BFB61A754628
S3150800090040EADC0055EA060E18D04FEA051545EA16
S3150800091016754FEA06164FEAC30343EA52734FEABF
S31508000920C2025FEA1C1CC0D111F4801F0BD141EA38
S3150800093000014FF000004FF0004CB6E711F4801F9D
S3150800094004BF01430020B4F1FD0C88BFBCF5E06F7D
S315080009503FF6AFAEB5EB030C04BFB6EB020C5FEA8D
S31508000960500C50F1000041EB045170BD0EF0004EE2
S315080009704EEA113114EB5C04C2BFD4EB0C0541EA14
S31508000980045170BD41F480114FF0000E013C90E611
S3150800099045EA060E8DE60CEA135594EA0C0F08BFD5
S315080009A095EA0C0F3FF43BAF94EA0C0F0AD150EAD4
S315080009B001347FF434AF95EA0C0F7FF425AF104667
S315080009C019462CE795EA0C0F06D152EA03353FF48F
S315080009D0FDAE1046194622E750EA410618BF52EA0C
S315080009E043067FF4C5AE50EA41047FF40DAF52EAE0
S315080009F043057FF4EBAE12E74FF0FF3C06E000BF7D
S31508000A004FF0010C02E000BF4FF0010C4DF804CD89
S31508000A104FEA410C7FEA6C5C4FEA430C18BF7FEA49
S31508000A206C5C1BD001B050EA410C0CBF52EA430C77
S31508000A3091EA030F02BF90EA020F0020704710F1F7
S31508000A40000F91EA030F58BF994208BF90422CBF86
S31508000A50D8176FEAE37040F0010070474FEA410C7F
S31508000A607FEA6C5C02D150EA013C07D14FEA430C9D
S31508000A707FEA6C5CD6D152EA033CD3D05DF8040B0E
S31508000A80704700BF8446104662468C461946634640
S31508000A9000E000BF01B5FFF7B7FF002848BF10F117
S31508000AA0000F01BD4DF808EDFFF7F4FF0CBF01205C
S31508000AB000205DF808FB00BF4DF808EDFFF7EAFFD8
S31508000AC034BF012000205DF808FB00BF4DF808ED93
S31508000AD0FFF7E0FF94BF012000205DF808FB00BF88
S31508000AE04DF808EDFFF7CEFF94BF012000205DF812
S31508000AF008FB00BF4DF808EDFFF7C4FF34BF01201F
S31508000B0000205DF808FB00BF4A0011D212F500125A
S31508000B1011D20DD56FF47873B3EB62520ED44FEA47
S31508000B20C12343F0004343EA505323FA02F07047C7
S31508000B304FF00000704750EA013002D14FF0FF3005
S31508000B4070474FF0000070474FEA4102B2F1E043A8
S31508000B5024BFB3F5001CDCF1FE5C0DD901F0004C96
S31508000B604FEAC0024CEA5070B2F1004F40EB8300E6
S31508000B7008BF20F00100704711F0804F21D113F112
S31508000B803872BCBF01F00040704741F480114FEA4B
S31508000B905252C2F11802C2F1200C10FA0CF320FAD4
S31508000BA002F018BF40F001004FEAC1234FEAD323F1
S31508000BB003FA0CFC40EA0C0023FA02F34FEA43035B
S31508000BC0CCE77FEA625307D150EA01331EBF4FF0E4
S31508000BD0FE4040F44000704701F0004040F0FE40FF
S31508000BE040F40000704700BF00000000000000004D
S31508000BF001F0FF01102A2BDB10F0070F08D010F8C0
S31508000C00013B013A8B422DD010F0070F42B3F6D1C3
S31508000C10F0B441EA012141EA014122F007047FF0DC
S31508000C2000070023F0E80256083C85EA010586EA33
S31508000C30010685FA47F5A3FA87F586FA47F6A5FA6F
S31508000C4087F68EB9EED1F0BC01F0FF0102F007027B
S31508000C5032B110F8013B013A83EA010313B1F8D126
S31508000C600020704701387047002D06BF3546033807
S31508000C70073815F0010F07D1013015F4807F02BF40
S31508000C80013015F4C03F0130F0BC0138704700BF91
S31508000C90844641EA000313F003036DD1403A41D379
S31508000CA051F8043B40F8043B51F8043B40F8043B38
S31508000CB051F8043B40F8043B51F8043B40F8043B28
S31508000CC051F8043B40F8043B51F8043B40F8043B18
S31508000CD051F8043B40F8043B51F8043B40F8043B08
S31508000CE051F8043B40F8043B51F8043B40F8043BF8
S31508000CF051F8043B40F8043B51F8043B40F8043BE8
S31508000D0051F8043B40F8043B51F8043B40F8043BD7
S31508000D1051F8043B40F8043B51F8043B40F8043BC7
S31508000D20403ABDD2303211D351F8043B40F8043B67
S31508000D3051F8043B40F8043B51F8043B40F8043BA7
S31508000D4051F8043B40F8043B103AEDD20C3205D377
S31508000D5051F8043B40F8043B043AF9D2043208D06F
S31508000D60D2071CBF11F8013B00F8013B01D30B88E1
S31508000D7003806046704700BF082A13D38B078DD0BF
S31508000D8010F003038AD0C3F10403D21ADB071CBF91
S31508000D9011F8013B00F8013B80D331F8023B20F8FB
S31508000DA0023B7BE7043AD9D3013A11F8013B00F834
S31508000DB0013BF9D20B7803704B7843708B788370BC
S31508000DC060467047000000000000000000000000B8
S31508000DD00000000000000000000000000000000005
S31508000DE000000000000000000000000000000000F5
S31508000DF000000000000000000000000000000000E5
S31508000E0090F800F06DE9024520F007016FF0000C3C
S31508000E1010F0070491F820F040F049804FF00004E4
S31508000E206FF00700D1E9002391F840F000F10800BF
S31508000E3082FA4CF2A4FA8CF283FA4CF3A2FA8CF3F7
S31508000E404BBBD1E9022382FA4CF200F10800A4FA5E
S31508000E508CF283FA4CF3A2FA8CF3E3B9D1E90423B2
S31508000E6082FA4CF200F10800A4FA8CF283FA4CF3E9
S31508000E70A2FA8CF37BB9D1E9062301F1200182FAA3
S31508000E804CF200F10800A4FA8CF283FA4CF3A2FAA9
S31508000E908CF3002BC6D0002A04BF04301A4612BAB7
S31508000EA0B2FA82F2FDE8024500EBD2007047D1E9BA
S31508000EB0002304F00305C4F100004FEAC50514F049
S31508000EC0040F91F840F00CFA05F562EA05021CBF1A
S31508000ED063EA050362464FF00004A9E74FEA4102B8
S31508000EE012F5001215D211D56FF47873B3EB62526E
S31508000EF012D94FEAC12343F0004343EA505311F095
S31508000F00004F23FA02F018BF404270474FF0000026
S31508000F10704750EA013005D111F0004008BF6FF064
S31508000F20004070474FF00000704700BF53B94AB9F8
S31508000F30002908BF00281CBF4FF0FF314FF0FF30D3
S31508000F4000F07EB9ADF1080C6DE904CE00F006F8A4
S31508000F50DDF804E0DDE9022304B070472DE9F04727
S31508000F608C460E460446089D002B50D18A421746E9
S31508000F706CD9B2FA82FEBEF1000F0BD0CEF1200476
S31508000F8020FA04F401FA0EF644EA060C02FA0EF701
S31508000F9000FA0EF44FEA1749220CBCFBF9F01FFAC7
S31508000FA087F809FB10C642EA064600FB08F3B34277
S31508000FB009D9F61900F1FF3280F02281B34240F2D6
S31508000FC01F8102383E44F61AA2B2B6FBF9F309FBB2
S31508000FD0136642EA064403FB08F8A04509D9E41952
S31508000FE003F1FF3280F00A81A04540F20781023BF7
S31508000FF03C44C8EB040443EA00400021002D62D0BB
S3150800100024FA0EF400232C606B60BDE8F0878B424F
S3150800101007D9002D55D0002185E841000846BDE8CE
S31508001020F087B3FA83F1002940F09080B34202D3E7
S31508001030824200F2F880841A66EB03060120B44661
S31508001040002D40D085E81010BDE8F08712B90127B9
S31508001050B7FBF2F7B7FA87FEBEF1000F35D1F31BDF
S315080010604FEA17481FFA87FC0121B3FBF8F0220C58
S3150800107008FB103642EA06460CFB00F3B34207D9D2
S31508001080F61900F1FF3202D2B34200F2CE801046C2
S31508001090F61AA2B2B6FBF8F308FB136642EA064450
S315080010A00CFB03FCA44507D9E41903F1FF3202D26D
S315080010B0A44500F2B5801346CCEB040443EA00408D
S315080010C09CE729462846BDE8F087CEF1200106FAB6
S315080010D00EF307FA0EF720FA01F94FEA1748CE4041
S315080010E049EA0309B6FBF8FA4FEA194408FB1A66F7
S315080010F01FFA87FC44EA06430AFB0CF29A4200FAF6
S315080011000EF40AD9DB190AF1FF3180F087809A427A
S3150800111040F28480AAF1020A3B449B1A1FFA89F915
S31508001120B3FBF8F108FB113349EA034301FB0CF65C
S315080011309E4207D9DB1901F1FF326BD29E4269D96B
S3150800114002393B449B1B41EA0A418EE7C1F1200E56
S3150800115022FA0EF48B40234320FA0EF706FA01F41E
S315080011604FEA134C26FA0EF63C43B6FBFCF9270C5D
S315080011700CFB19661FFA83F847EA064609FB08F7C7
S31508001180B74202FA01F200FA01FA08D9F61809F18B
S31508001190FF3041D2B7423FD9A9F102091E44F61BD6
S315080011A0A0B2B6FBFCF40CFB146640EA064704FB47
S315080011B008F8B84507D9FF1804F1FF3028D2B84512
S315080011C026D9023C1F4444EA0940C8EB0707A0FB9E
S315080011D002894F4544464E4614D329D065B3BAEB27
S315080011E0040367EB060707FA0EFECB40CF404EEA2C
S315080011F0030385E888000021BDE8F0871346F8E672
S315080012001046E0E6B8EB020469EB03060138E5E7A9
S315080012100446D8E7114695E78146C0E78A467CE743
S31508001220023B3C4448E708460AE702383E442FE7B3
S31508001230C245E7D33E46D1E72946BDE8F08700BF59
S31508001240704700BF80B500AF0221104807F016FAB4
S315080012500023012209210D4807F0F2F80B4807F090
S31508001260B9F90221094807F0EFF90346002B0CBF2C
S3150800127001230023DBB2002B00D0F2E7034807F076
S31508001280B9F903461B119BB2184680BD00200140E0
S3150800129080B582B000AF4FF000037B604FF48053F7
S315080012A03B60FFF7CFFF034607EE903AF8EEE77A82
S315080012B09FED0B7A67EE876A3B6807EE903AB8EEC1
S315080012C0677AC6EE877A77EEA77AC7ED017A7B68E2
S315080012D007EE903AB0EE670A0837BD4680BD00BFF4
S315080012E03333534080B582B000AF0346FB71FB79B8
S315080012F0022B14D0032B07D0002B00D019E00121B4
S315080013000E4807F09DFA14E04FF480410C4807F0A8
S3150800131097FA4FF400410A4807F092FA09E04FF4A9
S315080013208051084807F08CFA0221044807F088FA29
S3150800133000BF00BF0837BD4680BD00BF001C024085
S31508001340000802400004024080B582B000AF0346A0
S31508001350FB71FB79092B02D900F0BCF982E1FB7914
S31508001360092B00F27F8101A252F823F09513000899
S31508001370DD130008251400086D140008B5140008CC
S31508001380FD140008451500088D150008D515000838
S315080013901D1600081021B54807F042FA4FF480518F
S315080013A0B24807F04DFA0421B14807F049FA082176
S315080013B0AF4807F045FA4FF48041AD4807F040FAC8
S315080013C04FF40041AA4807F03BFA0121A94807F063
S315080013D037FA0221A74807F033FA43E11021A34858
S315080013E007F01EFA4FF48051A04807F029FA0421A5
S315080013F09F4807F015FA08219D4807F021FA4FF48F
S3150800140080419B4807F00CFA4FF40041984807F0D2
S3150800141007FA0121974807F003FA0221954807F0D1
S315080014200FFA1FE11021914807F00AFA4FF480518C
S315080014308E4807F0F5F904218D4807F001FA0821CE
S315080014408B4807F0FDF94FF48041894807F0F8F911
S315080014504FF40041864807F0E3F90121854807F073
S31508001460EFF90221834807F0EBF9FBE010217F48EA
S3150800147007F0E6F94FF480517C4807F0E1F90421BA
S315080014807B4807F0DDF90821794807F0D9F94FF4C8
S315080014908041774807F0C4F94FF40041744807F0D3
S315080014A0BFF90121734807F0CBF90221714807F00B
S315080014B0C7F9D7E010216D4807F0C2F94FF48051FB
S315080014C06A4807F0BDF90421694807F0A9F9082117
S315080014D0674807F0B5F94FF48041654807F0A0F969
S315080014E04FF40041624807F0ABF90121614807F063
S315080014F097F902215F4807F0A3F9B3E010215B488A
S3150800150007F09EF94FF48051584807F099F90421DD
S31508001510574807F095F90821554807F091F94FF40F
S315080015208041534807F07CF94FF40041504807F0D2
S3150800153087F901214F4807F083F902214D4807F042
S315080015406FF98FE01021494807F07AF94FF4805176
S31508001550464807F075F90421454807F071F908214E
S31508001560434807F06DF94FF48041414807F068F9A0
S315080015704FF400413E4807F063F901213D4807F062
S315080015805FF902213B4807F04BF96BE01021374819
S3150800159007F046F94FF48051344807F051F9042111
S315080015A0334807F03DF90821314807F049F94FF467
S315080015B080412F4807F034F94FF400412C4807F0D2
S315080015C03FF901212B4807F03BF90221294807F08A
S315080015D037F947E01021254807F032F94FF48051D2
S315080015E0224807F02DF90421214807F029F9082196
S315080015F01F4807F025F94FF480411D4807F020F9E8
S315080016004FF400411A4807F01BF90121194807F061
S3150800161017F90221174807F013F923E01021134898
S3150800162007F00EF94FF48051104807F009F9042124
S315080016300F4807F005F908210D4807F001F94FF49E
S3150800164080410B4807F0ECF84FF40041084807F0D2
S31508001650F7F80121074807F0F3F80221054807F0D3
S31508001660EFF800BF0837BD4680BD00BF0004024042
S3150800167000080240001C024080B500AF1021124845
S3150800168007F0CEF84FF480510F4807F0C9F8042147
S315080016900E4807F0C5F808210C4807F0C1F84FF4C2
S315080016A080410A4807F0BCF84FF40041074807F0A4
S315080016B0B7F80121064807F0B3F80221044807F0F5
S315080016C0AFF800BF80BD00BF00040240000802401A
S315080016D0001C024080B500AF1021124807F0B0F890
S315080016E04FF480510F4807F09BF804210E4807F085
S315080016F0A7F808210C4807F0A3F84FF480410A48D8
S3150800170007F09EF84FF40041074807F099F80121C1
S31508001710064807F095F80221044807F081F800BF4B
S3150800172080BD00BF0004024000080240001C0240C1
S3150800173080B584B000AF0346FB710B46BB801346E9
S315080017407B800023FB607A88FB689A4211DDFB796F
S315080017501846FFF7F9FDBB88184606F01BFCFFF78D
S315080017608BFFBB88184606F015FCFB680133FB6047
S31508001770E9E700BF1037BD4680BD00BF80B584B01D
S3150800178000AF03460A46FB711346BB80FB79FB6034
S31508001790FB68002B0CDDFB68DBB21846FFF7D4FDAF
S315080017A0BB88184606F0F6FBFB68013BFB60EFE7D3
S315080017B00020FFF7C9FD00BF1037BD4680BD00BF3A
S315080017C090B587B000AF034687ED020AFB73002386
S315080017D0FB82D7ED027AF5EEC07AF1EE10FA0AD559
S315080017E0D7ED027AF1EE677AFDEEE77AC7ED017A70
S315080017F0BB889BB207E0D7ED027AFDEEE77AC7ED24
S31508001800017ABB889BB2FB82D7ED027A9FED507AAC
S31508001810F4EEC77AF1EE10FA01DD6423FB824D4B34
S3150800182060221A804B4B00229A814A4B01225A8029
S31508001830494B1B881A46B7F9163003FB02F31846BC
S31508001840FEF762FE40A3D3E90023FEF7C3FE034674
S315080018500C4618462146FFF757F902463D4B9A6053
S31508001860FB7B012B34D1D7ED027AF5EE407AF1EE07
S3150800187010FA0BD1374B00229A603649374807F0E1
S31508001880BBFA3449354807F031FB1DE0D7ED027A3B
S31508001890F5EEC07AF1EE10FA0BDD2E492F4807F067
S315080018A0ABFA2C4B00229A602A492C4807F01EFBFB
S315080018B00AE02849294807F019FB264B00229A60B6
S315080018C02449264807F098FAFB8ADAB2244B1A709C
S315080018D0FB7B002B34D1D7ED027AF5EE407AF1EE98
S315080018E010FA0BD11B4B00229A601A491D4807F0C3
S315080018F083FA18491B4807F0F9FA1DE0D7ED027A72
S31508001900F5EEC07AF1EE10FA0BDD1249154807F02C
S3150800191073FA104B00229A600E49124807F0E6FA4D
S315080019200AE00C490F4807F0E1FA0A4B00229A60D0
S3150800193008490C4807F060FAFB8ADAB20A4B1A70B3
S3150800194000BF1C37BD4690BD7B14AE47E17A843F85
S315080019500000C842980A0020D8D0000800080040B5
S31508001960B0080020000C0040B108002080B500AF88
S3150800197004210D4806F064FF00210C4807F01CFA04
S3150800198000210B4807F018FA9FED0A0A0020FFF716
S3150800199017FF9FED080A0120FFF712FF064B0022EA
S315080019A01A7000BF80BD00BF00000240000800405A
S315080019B0000C004000000000B208002080B500AF0F
S315080019C00421084806F02CFF0121074807F0F4F91E
S315080019D00121064807F0F0F9054B01221A7000BFED
S315080019E080BD00BF0000024000080040000C004017
S315080019F0B208002080B400AF034B1B781846BD46DA
S31508001A005DF8047B704700BFB208002080B584B03B
S31508001A1000AF0346FB8000237B81FB8843F08003ED
S31508001A203B81404B1B681021184606F009FF3E4BC8
S31508001A301B680221184607F009F90346002B0CBF5C
S31508001A4001230023DBB2002B00D0F0E7364B1B68DE
S31508001A503A891146184607F0E9F8334B1B68012105
S31508001A60184607F0F3F80346002B0CBF01230023A2
S31508001A70DBB2002B00D0F0E72B4B1B68184607F0AB
S31508001A80C7F803467B81284B1B680221184607F0D6
S31508001A90DDF80346002B0CBF01230023DBB2002B25
S31508001AA000D0F0E7204B1B680021184607F0BEF867
S31508001AB01D4B1B680121184607F0C8F80346002B82
S31508001AC00CBF01230023DBB2002B00D0F0E7164B36
S31508001AD01B68184607F09CF803467B81124B1B6867
S31508001AE00221184607F0B2F80346002B0CBF012363
S31508001AF00023DBB2002B00D0F0E70A4B1B6810214D
S31508001B00184606F08DFE0023FB60FB68042B03DCF9
S31508001B10FB680133FB60F8E77B8918461037BD463A
S31508001B2080BD00BF040000200000002080B584B0FE
S31508001B3000AF03460A46FB801346BB803D4B1B6835
S31508001B401021184606F07CFE3B4B1B6802211846FE
S31508001B5007F07CF80346002B0CBF01230023DBB2F9
S31508001B60002B00D0F0E7344B1B68FA88114618465C
S31508001B7007F05CF8304B1B680121184607F066F839
S31508001B800346002B0CBF01230023DBB2002B00D039
S31508001B90F0E7294B1B68184607F03AF8264B1B68EE
S31508001BA00221184607F052F80346002B0CBF012302
S31508001BB00023DBB2002B00D0F0E71F4B1B68BA8866
S31508001BC01146184607F032F81B4B1B6801211846C8
S31508001BD007F03CF80346002B0CBF01230023DBB2B9
S31508001BE0002B00D0F0E7144B1B68184607F010F8D6
S31508001BF0114B1B680221184607F028F80346002BEC
S31508001C000CBF01230023DBB2002B00D0F0E7094B01
S31508001C101B681021184606F003FE0023FB60FB68CC
S31508001C20092B03DCFB680133FB60F8E700BF1037BC
S31508001C30BD4680BD040000200000002090B585B098
S31508001C4000AF03460A46FB711346BB7100237B812E
S31508001C500023FB810023BB81FB79002B02D0032BD9
S31508001C6018D02FE0BB79012B09D0022B0CD0002B02
S31508001C7000D029E04323FB814423BB8109E04523A7
S31508001C80FB814623BB8104E04723FB814823BB81B4
S31508001C9000BF19E0BB79012B09D0022B0CD0002B11
S31508001CA000D011E03B23FB813C23BB8109E03D23A7
S31508001CB0FB813E23BB8104E03F23FB814023BB819C
S31508001CC000BF01E07B890FE0FB891846FFF79EFEFF
S31508001CD003461B029CB2BB891846FFF797FE0346CC
S31508001CE023449BB27B817B891BB218461437BD46B9
S31508001CF090BD00BF80B500AF00216B20FFF716FF2F
S31508001D00EE216C20FFF712FF10216A20FFF70EFF65
S31508001D1006216820FFF70AFF00211A20FFF706FFB1
S31508001D2018211B20FFF702FF18211C20FFF7FEFED3
S31508001D3000BF80BD0000000090B583B000AF4FF033
S31508001D4000037B600023FB70FB780133132B1ADC3E
S31508001D50FB78FA7801322E4992000A4412682C4917
S31508001D609B000B441A60FB78294A9B001344D3ED69
S31508001D70007A97ED017A77EE277AC7ED017AFB7834
S31508001D800133FB70E0E701210320FFF757FF034605
S31508001D9007EE903AF8EEE77A1D4BC3ED137A1C4B23
S31508001DA0D3ED137A97ED017A77EE277AC7ED017AA4
S31508001DB097ED017AF3EE046AC7EE267A154BC3ED62
S31508001DC0007A144B93ED007A134BD3ED007A77EE35
S31508001DD0677A9FED127AC7EE876A16EE900AFEF7C3
S31508001DE0A5FB09A3D3E90023FEF71EFD03460C460F
S31508001DF018462146FEF7A8FE0246094B1A6000BFA0
S31508001E000C37BD4690BD00BF9A9999999999234078
S31508001E10AC0A0020B4080020B808002000000045DD
S31508001E20BC08002080B582B000AF4FF000037B608D
S31508001E3000233B60F7EE006A9FED167AC6EE877AB6
S31508001E40FDEEE77A17EE902A3B689A4210DD00F01D
S31508001E5023F8B0EE407AD7ED017A77EE877AC7EDA8
S31508001E60017A012006F096F83B6801333B60E1E70A
S31508001E703B68013307EE903AF8EEE77A97ED017A78
S31508001E80C7EE276AF0EE667AB0EE670A0837BD46EF
S31508001E9080BD00BF6F12833A80B400AF044B1B6845
S31508001EA007EE903AB0EE670ABD465DF8047B7047C8
S31508001EB0B408002080B500AFFFF7B4FFF0EE407A13
S31508001EC0024BC3ED007A00BF80BD00BFB8080020F2
S31508001ED080B400AF044B1B6807EE903AB0EE670A71
S31508001EE0BD465DF8047B7047BC08002080B500AF8E
S31508001EF002210020FFF7A2FE03469BB25B429BB27B
S31508001F009AB2044B1A8000F093F800F065F800BF07
S31508001F1080BD00BFC008002080B400AF034B1B88FB
S31508001F201BB21846BD465DF8047B7047C008002002
S31508001F3080B582B000AF00237B6000233B60F0EEE3
S31508001F40006A9FED137AC6EE877AFDEEE77A17EEFA
S31508001F50902A3B689A420DDDFFF7DEFF03461A46D4
S31508001F607B6813447B60012006F014F83B68013354
S31508001F703B60E4E73B6801337A6892FBF3F307EECC
S31508001F80903AF8EEE77AB0EE670A0837BD4680BDA4
S31508001F906F12833A80B500AFFFF7CAFFF0EE407ABA
S31508001FA0024BC3ED007A00BF80BD00BFCC080020FD
S31508001FB080B400AF064B4FF000021A60054B4FF095
S31508001FC000021A6000BFBD465DF8047B704700BF7B
S31508001FD0C4080020C808002080B400AF094BD3ED20
S31508001FE0007A9FED097A27EE877A084BD3ED007AB7
S31508001FF077EE277A054BC3ED007A00BFBD465DF83C
S31508002000047B7047D00800206F12833AC808002066
S3150800201080B400AF044B1B6807EE903AB0EE670A2F
S31508002020BD465DF8047B7047C80800200000000024
S3150800203098B500AF164B1B881BB207EE903AB8EE60
S31508002040E77A144BD3ED007A77EE677A17EE900AA3
S31508002050FEF76CFA0CA3D3E90023FEF7E5FB03466B
S315080020600C4618462146FEF76FFD034600EE103A69
S3150800207005F03EFFF0EE407A074BC3ED007A00BF4D
S3150800208098BD00BFAFF30080666666666666304038
S31508002090C0080020CC080020D008002080B400AF7B
S315080020A0044B1B6807EE903AB0EE670ABD465DF82A
S315080020B0047B7047D008002090B585B000AF4FF07C
S315080020C00003FB604FF00003BB600023FB71FB7944
S315080020D00133132B31DCFB79FA7901326C49920012
S315080020E00A4412686A499B000B441A60FB79684ADD
S315080020F09B001344D3ED007A97ED037A77EE277A9F
S31508002100C7ED037AFB79FA790132624992000A44EB
S31508002110126860499B000B441A60FB795D4A9B0074
S315080021201344D3ED007A97ED027A77EE277AC7ED56
S31508002130027AFB790133FB71C9E7574B5B6A07EEF5
S31508002140903AF8EE677A9FED557A77EE677A17EE4A
S31508002150900AFEF7EBF948A3D3E90023FEF73AFA0B
S3150800216003460C461846214645A3D3E90023FEF745
S315080021705BFB03460C461846214643A3D3E90023D6
S31508002180FEF728FA03460C4618462146FEF7DCFCFD
S3150800219002463F4BDA644FF080435B6A07EE903A9B
S315080021A0F8EE677A9FED3D7A77EEC77A17EE900AD2
S315080021B0FEF7BCF930A3D3E90023FEF70BFA034672
S315080021C00C46184621462EA3D3E90023FEF72CFB1E
S315080021D003460C46184621462BA3D3E90023FEF7EF
S315080021E0F9F903460C4618462146FEF7ADFC0246A9
S315080021F0284BDA644FF0804347F6FA725A62264B48
S3150800220047F6FA725A62224BD3ED137A97ED037AA0
S3150800221077EE277AC7ED037A1D4BD3ED137A97ED40
S31508002220027A77EE277AC7ED027A97ED037AF3EE0C
S31508002230046AC7EE267A1A4BC3ED007A97ED027A3E
S31508002240F3EE046AC7EE267A164BC3ED007A144BF2
S3150800225093ED007A134BD3ED007A37EE277AF0EE3A
S31508002260006AC7EE267A104BC3ED007A00BF143712
S31508002270BD4690BDAFF300805D8940F50F22593FFA
S31508002280FCA9F1D24D62503F32E6AE25E4837E3F8B
S31508002290FC0A00204C0B00200004004000F4FF4616
S315080022A0DC080020D8080020E008002080B500AF30
S315080022B0FFF70EFEB0EE407AF3EE047A67EE277A61
S315080022C09FED077A67EE877AF0EE006A87EEA67AC0
S315080022D0044BD3ED007A77EE277AB0EE670A80BD15
S315080022E06F12833AE008002080B584B000AF034639
S315080022F00A46FB711346BB71FB79042B23D801A24E
S3150800230052F823F01923000819230008232300088C
S315080023102F2300083B230008144BFB6004237B8112
S3150800232011E0134BFB604FF400637B810BE0104B0D
S31508002330FB604FF480637B8105E00D4BFB604FF437
S3150800234080537B8100BFBB79002B05D07B8919465A
S31508002350F86806F065FA04E07B891946F86806F01D
S315080023606FFA00BF1037BD4680BD00BF000C0240A3
S315080023700008024080B584B000AF0346FB71FB79C4
S31508002380042B26D801A252F823F000BFA123000887
S31508002390AB230008B5230008BF230008C92300089B
S315080023A01E4BBB600F23FB7313E01C4BBB600B2358
S315080023B0FB730EE0194BBB600823FB7309E0174B50
S315080023C0BB600A23FB7304E0144BBB600E23FB734C
S315080023D000BF0221B86806F051F9F97B00230122F3
S315080023E0B86806F02DF8B86806F0F4F80221B8685F
S315080023F006F02AF90346002B0CBF01230023DBB2A3
S31508002400002B00D0F2E7B86806F0F4F803461B1173
S315080024109BB218461037BD4680BD00BF002001405C
S3150800242080B582B000AF0346FB71FB7901211846DF
S31508002430FFF75AFF00BF0837BD4680BD80B582B09A
S3150800244000AF0346FB71FB7900211846FFF74CFFE6
S3150800245000BF0837BD4680BD80B500AF0020FFF736
S31508002460EDFF0120FFF7EAFF0220FFF7E7FF032051
S31508002470FFF7E4FF00BF80BDB0B586B000AF0346E6
S315080024800A46FB711346BB800023FB824FF000030C
S315080024903B610023FB73FB7B0133092B00F385802B
S315080024A0FA79F87BF979FB7B5C1C824D0B469B001D
S315080024B00B445B00234435F813407E4913469B00C2
S315080024C013445B000344224621F81320FA79F97B6A
S315080024D0784813469B0013445B000B4430F81330CE
S315080024E09AB2FB8A13449BB2FB82FB7B0133092B0E
S315080024F057DCFA79F87BF979FB7B5C1C6E4D0B4649
S315080025009B000B445B00234435F813406A49134685
S315080025109B0013445B000344224621F81320FA79F2
S31508002520F87BF979FB7B5C1C644D0B469B000B44DE
S315080025305B0023449B002B441968604C13469B00A0
S3150800254013445B0003449B0023441960FA79F87B23
S31508002550F979FB7B5C1C5A4D0B469B000B445B00D0
S315080025602B4423441C78564913469B0013445B00AE
S315080025700B44034422461A70FA79F97B4E481346EF
S315080025809B0013445B000B4430F813301BB207EE74
S31508002590903AF8EEE77A97ED047A77EE277AC7ED60
S315080025A0047AFB7B0133FB7375E7FA7941491346D5
S315080025B09B0013449B000B441233BA881A80FA8A8C
S315080025C0BB8813449BB2FB82B7F916303D4A82FB9F
S315080025D003129210DB17D31ABB81FA7936491346D0
S315080025E09B0013449B000B441233BA891A80B7F92F
S315080025F00C3007EE903AF8EEE77A97ED047A77EE24
S31508002600277AC7ED047AFA79D7ED047AF2EE046AE6
S3150800261087EEA67AB7F90C3007EE903AF8EEE77A25
S3150800262077EE677A254913469B001344DB000B4473
S315080026302433C3ED007AFC79FB79184600F056FA84
S31508002640034619461E4A23469B0023445B0013444F
S3150800265009330A461A70FB79042B26D801A252F8C8
S3150800266023F000BF79260008832600088D26000877
S3150800267097260008A1260008B7F90C30124A1360FD
S3150800268013E0B7F90C30114A13600EE0B7F90C30B5
S315080026900F4A136009E0B7F90C300E4A136004E0DC
S315080026A0B7F90C300C4A136000BF00BF1837BD4697
S315080026B0B0BD00BF9C0B0020E4080020480900209C
S315080026C0100A002067666666440A0020480A002049
S315080026D04C0A0020500A0020540A002090B587B002
S315080026E000AF0346FB71FFF7B7FE0020FFF742FE77
S315080026F003469BB21BB21946002000F011F90120CF
S31508002700FFF738FE03469BB21BB21946012000F0BC
S3150800271007F90220FFF72EFE03469BB21BB21946A5
S31508002720022000F0FDF80320FFF724FE03469BB2C3
S315080027301BB21946032000F0F3F80420FFF71AFE2F
S3150800274003469BB21BB21946042000F0E9F8FB7950
S31508002750002B0FD00020FFF763FE0120FFF760FE75
S3150800276000237B617B69B3F5FA6F03DA7B69013372
S315080027707B61F7E70020FFF7FDFD03461C460020B6
S3150800278000F092F803469BB2E31A9BB29BB21BB2C7
S3150800279019460020FFF770FE0120FFF7EBFD034600
S315080027A01C46012000F080F803469BB2E31A9BB250
S315080027B09BB21BB219460120FFF75EFE0020FFF709
S315080027C03DFEFB79002B0CD00220FFF729FE0023E3
S315080027D03B613B69B3F57A7F03DA3B6901333B61B9
S315080027E0F7E70220FFF7C6FD03461C46022000F065
S315080027F05BF803469BB2E31A9BB29BB21BB219461F
S315080028000220FFF739FE0220FFF718FEFB79002B9E
S315080028100CD00320FFF704FE0023FB60FB68B3F52A
S315080028207A7F03DAFB680133FB60F7E70320FFF7DB
S31508002830A1FD03461C46032000F036F803469BB26A
S31508002840E31A9BB29BB21BB219460320FFF714FE8C
S315080028500320FFF7F3FDFB79002B0CD00420FFF7CC
S31508002860DFFD0023BB60BB68B3F57A7F03DABB687C
S315080028700133BB60F7E70420FFF77CFD03461C46DF
S31508002880042000F011F803469BB2E31A9BB29BB2F0
S315080028901BB219460420FFF7EFFD0420FFF7CEFD13
S315080028A000BF1C37BD4690BD80B483B000AF034659
S315080028B0FB71FB79042B21D801A252F823F000BF43
S315080028C0D5280008DD280008E5280008ED280008B6
S315080028D0F52800080D4B1B689BB210E00C4B1B68D3
S315080028E09BB20CE00B4B1B689BB208E00A4B1B68BB
S315080028F09BB204E0094B1B689BB200E000231BB2A5
S3150800290018460C37BD465DF8047B7047580A002008
S315080029105C0A0020600A0020640A0020680A002079
S3150800292080B483B000AF03460A46FB711346BB80EA
S31508002930FB79042B25D801A252F823F05129000867
S315080029405B290008652900086F290008792900080D
S31508002950B7F904300E4A136013E0B7F904300D4A8C
S3150800296013600EE0B7F904300B4A136009E0B7F9B3
S3150800297004300A4A136004E0B7F90430084A1360C1
S3150800298000BF00BF0C37BD465DF8047B704700BF2B
S31508002990580A00205C0A0020600A0020640A002009
S315080029A0680A002080B483B000AF0346FB71FB7948
S315080029B0042B21D801A252F823F000BFD129000820
S315080029C0D9290008E1290008E9290008F1290008A1
S315080029D00D4B1B689BB210E00C4B1B689BB20CE0BE
S315080029E00B4B1B689BB208E00A4B1B689BB204E0C2
S315080029F0094B1B689BB200E000231BB218460C3734
S31508002A00BD465DF8047B7047440A0020480A00204A
S31508002A104C0A0020500A0020540A002090B583B0C2
S31508002A2000AF0346FB71FB79012B2BD0022B15D087
S31508002A30002B3BD10020FFF7B5FF03461C460020BC
S31508002A4002F024FC03469C42ACBF01230023DBB200
S31508002A50002B01D001232AE0002328E00120FFF7FC
S31508002A60A1FF03461C46012002F010FC03469C42C7
S31508002A70ACBF01230023DBB2002B01D0012316E0F3
S31508002A80002314E00420FFF78DFF03461C460420AC
S31508002A9002F0FCFB03469C42ACBF01230023DBB2D9
S31508002AA0002B01D0012302E0002300E00023184692
S31508002AB00C37BD4690BD00BF90B583B000AF034646
S31508002AC0FB71FB791846FFF76DFF03461C46FB7939
S31508002AD0184602F0DBFB03469C42ACBF01230023E9
S31508002AE0DBB218460C37BD4690BD00BF80B485B032
S31508002AF000AF0346FB710023FB730023BB73BB7B4C
S31508002B00092B1FD8FA79B97B124813469B00134440
S31508002B105B000B449B000344D3ED007AF5EEC07AC4
S31508002B20F1EE10FA05D5FB7BDBB2013BDBB2FB739A
S31508002B3004E0FB7BDBB20133DBB2FB73BB7B013307
S31508002B40BB73DCE7FB7B18461437BD465DF8047B90
S31508002B50704700BF4809002090B583B000AF034610
S31508002B60FB71FB791846FFF7C1FF03465B4218461F
S31508002B70FDF7CAFC01231C464FF00002084BFDF77F
S31508002B809BFF0346002B01D100231C46E3B2002B12
S31508002B9001D0002300E0012318460C37BD4690BD3E
S31508002BA00000224080B483B000AF0346FB71FB7976
S31508002BB0012B1DD0022B35D0002B4DD12B4BD3ED3D
S31508002BC0007AB3EE0E7A27EE877A284BD3ED017A90
S31508002BD0DFED276A67EEA67A37EE277A234BD3ED21
S31508002BE0027ADFED246A67EEA67A77EE277A35E071
S31508002BF0214BD3ED007A9FED217A27EE877A1E4B7B
S31508002C00D3ED017ADFED1E6A67EEA67A37EE277AEC
S31508002C10194BD3ED027ADFED176A67EEA67A77EEDF
S31508002C20277A1BE0174BD3ED007A9FED177A27EE2C
S31508002C30877A144BD3ED017ADFED0E6A67EEA67A32
S31508002C4037EE277A0F4BD3ED027ADFED0A6A67EE85
S31508002C50A67A77EE277A01E0DFED067AB0EE670A04
S31508002C600C37BD465DF8047B704700BF700A00202C
S31508002C700000164300000000880A00200000FA43FE
S31508002C800080D4447C0A0020CDCCCC3D0000000056
S31508002C90B0B52DED028B86B000AF4FF000037B6117
S31508002CA04FF000033B61B04B1B68FB6002F0EAFC87
S31508002CB0B0EE408AFFF7FAFAF0EE407A78EE677AD5
S31508002CC0A94BC3ED007AA84B5B681846FDF72EFCA6
S31508002CD004460D46A44B1B681846FDF727FCA0A31F
S31508002CE0D3E90023FDF776FC02460B462046294623
S31508002CF0FDF7BEFA03460C4618462146FDF724FFA3
S31508002D000246994B5A60994B1B68FB604FF00003CB
S31508002D103B604FF00003BB604FF000037B60002070
S31508002D20FFF7CAFE0346002B06D000F0B7FA0346A3
S31508002D30002B01D0012300E00023002B47D0002000
S31508002D4002F07AFA07EE900AF8EE677AC7ED027A89
S31508002D500020FFF727FE034607EE903AF8EEE77ADB
S31508002D60C7ED017A97ED017AD7ED027A77EE677AA1
S31508002D70C7ED007AD7ED007AF5EEC07AF1EE10FAD3
S31508002D800CD5D7ED007ABBEE0E7AF4EEC77AF1EEE3
S31508002D9010FA4CBF01230023DBB20BE0D7ED007A13
S31508002DA0B3EE0E7AF4EEC77AF1EE10FACCBF012331
S31508002DB00023DBB2002B01D03B687B610020FFF7C4
S31508002DC0CBFE0346002B02D04FF000037B610120A7
S31508002DD0FFF772FE0346002B06D000F05FFA0346A3
S31508002DE0002B01D0012300E00023002B47D001204F
S31508002DF002F022FA07EE900AF8EE677AC7ED027A31
S31508002E000120FFF7CFFD034607EE903AF8EEE77A82
S31508002E10C7ED017A97ED017AD7ED027A77EE677AF0
S31508002E20C7ED007AD7ED007AF5EEC07AF1EE10FA22
S31508002E300CD5D7ED007ABBEE0E7AF4EEC77AF1EE32
S31508002E4010FA4CBF01230023DBB20BE0D7ED007A62
S31508002E50B3EE0E7AF4EEC77AF1EE10FACCBF012380
S31508002E600023DBB2002B01D03B683B610120FFF752
S31508002E7073FE0346002B02D04FF000037B6102F07D
S31508002E8001FCB0EE407AF4EE007AB4EEE77AF1EEA1
S31508002E9010FA4CBF01230023DBB2002B05D04FF0FC
S31508002EA000033B614FF000037B6197ED057AD7ED90
S31508002EB0047A77EE677A2D4BC3ED007A2C4B1B68A4
S31508002EC0FB6002F0FDFBB0EE408AFFF7E7F8F0EE94
S31508002ED0407A78EE677A264BC3ED007A244B5B6816
S31508002EE01846FDF723FB04460D46214B1B6818467A
S31508002EF0FDF71CFB1AA3D3E90023FDF76BFB02467B
S31508002F000B4620462946FDF7B3F903460C461846F4
S31508002F102146FDF719FE0246154B5A60134BD3EDB1
S31508002F20007AF5EE407AF1EE10FA06D000F0B6F91E
S31508002F300346002B01D0012300E00023002B04D018
S31508002F400B4B4FF000025A6003E0084B4FF00002AB
S31508002F505A6000BF1837BD46BDEC028BB0BD00BF36
S31508002F60FCA9F1D24D62503F880A00207C0A002055
S31508002F70700A002080B500AF0120FFF713FEF0EEBF
S31508002F80407AB0EE670A80BD80B52DED028B00AFA2
S31508002F900D4B1B78002B0CD00020FFF703FEB0EE7C
S31508002FA0408A0220FFF7FEFDF0EE407A78EE677A57
S31508002FB004E00020FFF7F6FDF0EE407AB0EE670A6F
S31508002FC0BD46BDEC028B80BD950A002080B400AFDB
S31508002FD0034B01221A7000BFBD465DF8047B70479B
S31508002FE0950A002080B400AF034B00221A7000BF78
S31508002FF0BD465DF8047B7047950A002080B400AF93
S31508003000034B01221A7000BFBD465DF8047B70476A
S31508003010940A002080B400AF034B00221A7000BF48
S31508003020BD465DF8047B7047940A002080B52DEDF7
S31508003030028B82B000AF0346FB7197F90730002B6D
S315080030400AD1FFF797FFB0EE408AFFF79DFFF0EE33
S31508003050407A78EE677A09E0FFF78CFFB0EE408A8F
S31508003060FFF792FFF0EE407A78EE277AB0EE670A1D
S315080030700837BD46BDEC028B80BD00BF00000000CE
S31508003080B0B52DED028B84B000AF0346FB7197F9FE
S315080030900730002B18D102F0F5FAB0EE408A02F09C
S315080030A00FFBB0EE407ADFED487A67EE277AF0EE4E
S315080030B0006A87EEA67ADFED456AC7EE267A78EECD
S315080030C0677AC7ED037A17E002F0DCFAB0EE408AB9
S315080030D002F0F6FAB0EE407ADFED3B7A67EE277A31
S315080030E0F0EE006A87EEA67ADFED386AC7EE267A32
S315080030F078EE277AC7ED037AF868FDF717FA2EA354
S31508003100D3E90023FDF790FB03460C4618462146F3
S315080031104FF000022E4BFDF75DFA03460C461846A3
S3150800312021464FF000022B4BFDF77EFB03460C466B
S31508003130184621464FF00002274BFDF74BFA034687
S315080031400C46184621464FF00002244BFDF76CFB4F
S3150800315003460C461846214619A3D3E90023FDF772
S3150800316063FB03460C4625461C46FEF791F810EE0F
S31508003170103A1846FDF7DAF902460B462046294664
S31508003180FDF752FB03460C46184621464FF000024F
S31508003190134BFDF71FFA03460C4618462146FDF762
S315080031A0D3FC034607EE903AB0EE670A1037BD46E1
S315080031B0BDEC028BB0BD00BFF5E9D0A8828A083FF6
S315080031C03333333333D36B400000304200007A4444
S315080031D000804440000022400000164000001240D3
S315080031E00000594080B582B000AF00F04BF80346A6
S315080031F0002B3FD0214B1B78002B03D1204B1B788B
S31508003200002B37D04FF000037B604FF000033B6084
S315080032101A4B1B78002B09D00020FFF731FF87EDEA
S31508003220010A0220FFF72CFF87ED000A144B1B78D2
S31508003230002B15D00020FFF7F9FEB0EE407AD7ED47
S31508003240017A77EE877AC7ED017A0220FFF7EEFE5C
S31508003250B0EE407AD7ED007A77EE877AC7ED007A36
S3150800326097ED010A0120FEF7ABFA97ED000A002058
S31508003270FEF7A6FA00BF0837BD4680BD960A0020AD
S315080032800800002080B400AF034B1B781846BD46E3
S315080032905DF8047B704700BF940A002080B400AF35
S315080032A0034B1B781846BD465DF8047B704700BF84
S315080032B0950A002080B500AF002000F009F802202A
S315080032C000F006F8012000F003F800BF80BD00BF3B
S315080032D080B483B000AF0346FB71FB79032B33D868
S315080032E001A252F823F000BFF93200082D33000876
S315080032F01333000847330008164B4FF000021A60D4
S31508003300144B4FF000025A60124B4FF000029A60BD
S315080033101AE0114B4FF000021A600F4B4FF00002F3
S315080033205A600D4B4FF000029A600DE00B4B4FF0C0
S3150800333000021A60094B4FF000025A60074B4FF023
S3150800334000029A6000E000BF00BF0C37BD465DF87A
S31508003350047B7047700A00207C0A0020880A002037
S3150800336080B483B000AF03463960FB7197F9073024
S31508003370002B0BDA0D49FB7903F00F03043B3A687F
S31508003380D2B21201D2B20B441A7609E0084997F96B
S3150800339007303A68D2B21201D2B20B4483F800233E
S315080033A000BF0C37BD465DF8047B704700ED00E0B2
S315080033B000E100E080B582B000AF78607B68013B31
S315080033C0B3F1807F01D301230FE00A4A7B68013BF2
S315080033D053600F214FF0FF30FFF7C2FF054B002265
S315080033E09A60044B07221A60002318460837BD4620
S315080033F080BD00BF10E000E080B500AF00F00EF819
S3150800340000F024F800F0F8F800F05EF900F0A2F9F0
S3150800341000F008FA00F0D4FA00BF80BD80B584B089
S3150800342000AF04F0B1FC3B46184605F063FA7B682A
S31508003430054AA2FB03239B091846FFF7BBFF00BFFB
S315080034401037BD4680BD00BFD34D621080B582B02F
S3150800345000AF634A624B1B6823F0847323F48033FE
S3150800346013600121012005F0EFFA0121022005F081
S31508003470EBFA0121042005F0E7FA0121082005F0FE
S31508003480E3FA0121802005F0DFFA3B46184605F0ED
S3150800349093F949F210033B6002237B7101233B71C8
S315080034A00023BB710023FB713B4619464D4805F0C6
S315080034B0F5F84FF480433B603B4619464A4805F009
S315080034C0EDF84FF480433B6000233B710123FB7109
S315080034D03B461946434805F0E1F83B46184605F0D1
S315080034E06BF94DF60C433B6002237B7101233B715C
S315080034F00023BB710023FB713B4619463B4805F088
S31508003500CDF80421394805F08BF90821374805F02C
S3150800351087F94FF48061354805F082F94FF4006168
S31508003520324805F07DF94FF48051304805F078F9B6
S315080035304FF480412D4805F073F94FF400412B48AC
S3150800354005F06EF93B46184605F036F903233B604D
S3150800355002237B7101233B710023BB710023FB719E
S315080035603B461946224805F099F80121204805F0FE
S3150800357057F902211E4805F053F93B46184605F04F
S315080035801BF94FF4E0533B6002237B7101233B7127
S315080035900023BB710023FB713B461946134805F00F
S315080035A07DF804233B603B461946124805F076F839
S315080035B04FF480610D4805F043F94FF400610B485C
S315080035C005F03EF94FF48051084805F039F9042111
S315080035D0084805F035F900BF0837BD4680BD00BF6D
S315080035E00038024000040240000002400008024081
S315080035F0001C0240000C024080B58CB000AF0121CF
S31508003600022005F021FA0121042005F01DFA07F130
S315080036102803184605F0D0F8032387F82C30002332
S3150800362087F82F30022387F82D300323BB6207F172
S3150800363028031946214805F031F83323BB6207F100
S31508003640280319461E4805F029F800211D4804F0EC
S31508003650DBFE01214FF4807005F036FA04F048FECF
S3150800366000233B604FF480337B600023BB604FF43C
S315080036707063FB603B46184604F09EFE00233B61E0
S3150800368000233B7500237B750023BB6100233B6247
S31508003690092387F8243007F110031946094804F06E
S315080036A035FE0121074804F0AFFE0021054804F065
S315080036B0AFFF00BF3037BD4680BD00BF00040240E3
S315080036C0000802400020014080B586B000AF012105
S315080036D0102005F0F9F90121012005F0B5F90722B6
S315080036E009211A4805F0BCF807220A21174805F0EF
S315080036F0B7F84FF4C0633B6102237B7502233B7521
S3150800370007F110031946114804F0C8FF4FF4E133D6
S315080037103B600023BB800023FB8000233B81002302
S31508003720BB810C237B813B461946094805F012FDEF
S31508003730012240F22551064805F0FAFD0121044808
S3150800374005F0C4FD00BF1837BD4680BD0000024025
S315080037500010014080B588B000AF01214FF48050B9
S3150800376005F0B2F90121012005F06EF907F11803F9
S31508003770184605F021F81023BB6101233B77032384
S315080037807B770023BB770023FB7707F118031946DD
S31508003790224804F083FF02233B77E023BB6107F14D
S315080037A0180319461D4804F079FF10211B4805F037
S315080037B037F805220521194805F052F80522062191
S315080037C0164805F04DF805220721144805F048F873
S315080037D00023BB804FF48273FB8000233B810023C8
S315080037E07B810023BB814FF44073FB8110233B820E
S315080037F000237B820723BB823B1D1946084805F038
S31508003800A3F90121064805F0E3F91021034805F05C
S3150800381007F800BF2037BD4680BD00BF0000024044
S315080038200030014080B58AB000AF0121012005F0C3
S315080038300BF90121022005F007F904233B62032353
S3150800384087F82530012387F82430002387F82630A7
S31508003850012387F8273007F120031946534804F057
S315080038601DFF0421514804F0EBFF0121042005F057
S315080038700BF90121082005F007F903233B6202230F
S3150800388087F82430022387F82530002387F8263066
S31508003890002387F8273007F120031946434804F028
S315080038A0FDFEC0233B6207F120031946404804F099
S315080038B0F5FE40F2EB43BB610023BB820023BB83CA
S315080038C00023FB820023BB7707F114031946394806
S315080038D005F0D8F907F114031946374805F0D2F967
S315080038E060233B800023BB8101237B800023BB60D0
S315080038F03B4619462F4805F07FFA08212D4805F062
S315080039007DFB3B4619462B4805F0F0FA0821294865
S3150800391005F090FB3B461946274805F06DFA082145
S31508003920254805F06BFB3B461946234805F0DEFAA9
S315080039300821214805F07EFB01214FF0804005F063
S315080039401BFA01214FF0804005F092FB01211B482C
S3150800395005F012FA0121194805F08AFB0222062110
S31508003960134804F07DFF02220721114804F078FF6E
S31508003970022200210D4804F073FF022201210B48A0
S3150800398004F06EFF01210B4805F0F6F901210A48FB
S3150800399005F0F2F90121074805F00EFA012106485B
S315080039A005F00AFA00BF2837BD4680BD0000024070
S315080039B00004024000080040000C004000040040DB
S315080039C080B586B000AF0121022005F03DF801213F
S315080039D0042005F039F80121012005F055F80121E8
S315080039E0022005F051F802220621394804F038FF72
S315080039F002220721364804F033FF01220F213548F9
S31508003A0004F02EFF01220321334804F029FF07F1B1
S31508003A101003184604F0D0FEC0233B6102233B7511
S31508003A2002237B750023BB750023FB7507F1100382
S31508003A301946274804F032FE4FF400433B6107F16C
S31508003A4010031946234804F029FE08233B6107F1B1
S31508003A5010031946204804F021FE4FF6FE73BB609A
S31508003A600023BB800023BB810023FB800023BB739C
S31508003A703B1D19464FF0804005F004F93B1D1946D9
S31508003A80164805F0FFF84FF6FF714FF0804005F035
S31508003A9065F90023002203214FF0804005F00EFB54
S31508003AA001214FF0804005F087F94FF6FF710B486A
S31508003AB005F054F9002300220321084805F0FEFA10
S31508003AC00121064805F078F900BF1837BD4680BDC4
S31508003AD000080240000002400004024000040040C2
S31508003AE0F0B587B002AF0023FB81B7F90E30632B20
S31508003AF01CDC0023BB80BB889BB21BB242F20F7250
S31508003B009342D4BF01230023DBB2002B08D0BB8825
S31508003B109BB29BB29BB201339BB29BB2BB80EAE7D6
S31508003B20FB899BB201339BB2FB81DEE7FFF764FC9E
S31508003B3001F042FDFDF7ACFB10EE103A1846FCF713
S31508003B40F5FC03460C461A462346AD4804F09CF895
S31508003B50FDF792FDFDF79CFBB0EE407AF1EE007A98
S31508003B60B4EEE77AF1EE10FA4CBF01230023DBB27C
S31508003B70002B1AD0FDF7AEFD4FF4FA7004F00AFADE
S31508003B80FDF77AFD4FF4FA7004F004FA4FF4804119
S31508003B909C4804F02BFE0346002B0CBF0123002390
S31508003BA0DBB2002B00D1E5E700BFFEF7A3F8FDF76F
S31508003BB063FD00F0DDFE944801F0CEF80023FB71AA
S31508003BC04FF480418F4804F011FE0346002B0CBFCA
S31508003BD001230023DBB2002B00D0F1E7642004F0B8
S31508003BE0D9F9FDF755FBB0EE407AF1EE007AB4EE5E
S31508003BF0E77AF1EE10FA4CBF01230023DBB2002B63
S31508003C001CD0FDF767FD4FF4FA7004F0C3F9FDF711
S31508003C1033FD4FF4FA7004F0BDF94FF4804179484A
S31508003C2004F0E4FD0346002B0CBF01230023DBB29E
S31508003C30002BE6D0642004F0ADF900BF4FF48041B4
S31508003C40704804F0D3FD0346002B0CBF0123002364
S31508003C50DBB2002B00D0F1E7642004F09BF90021C9
S31508003C60062004F0D7F90346FB71FB79052BA7D884
S31508003C7001A252F823F000BF913C0008113D00084C
S31508003C80C13B0008173D0008233D0008F53D000824
S31508003C900020FEF787FE034619465C4803F0F4FF4A
S31508003CA00120FEF77FFE03461946594803F0ECFF4C
S31508003CB00220FEF777FE03461946564803F0E4FF4E
S31508003CC00320FEF76FFE03461946534803F0DCFF50
S31508003CD00420FEF767FE03461946504803F0D4FF52
S31508003CE04F4803F0D1FF642004F054F94FF48041A3
S31508003CF0444804F07BFD0346002B0CBF0123002338
S31508003D00DBB2002BC4D0642004F044F900BF76E08F
S31508003D1004F0C6F973E000F02BFE3B4801F01CF8EE
S31508003D206DE04FF4FA710320FDF728FD012101200B
S31508003D3001F0BCFE3B4B3C4A1A60FDF79DFC4FF474
S31508003D407A7004F027F90020F5EE000A9FED370A8D
S31508003D5002F03AFC0820FDF7F7FA002200210120BC
S31508003D6002F01AFF0020DFED320A9FED320A02F058
S31508003D702BFC0520FDF7E8FA4FF47A7004F00AF9EF
S31508003D80FDF7F4FDFDF778FC4FF480411D4804F07B
S31508003D902DFD0346012B0CBF01230023DBB2002BAC
S31508003DA000D0F1E70023BB60BB68B3F5FA6F25DAEC
S31508003DB01C4ABB689B0013441B681846FCF7B6FBF5
S31508003DC005460E46174ABB6803F51C5310339B007D
S31508003DD013441B681846FCF7A9FB03460C46CDE9B5
S31508003DE000342A463346144803F04EFFBB680133B5
S31508003DF0BB60D9E7002000F03DFE00E000BFDFE62B
S31508003E00E0D0000800040240AC470120ECD00008CE
S31508003E10F8D0000804D1000810D100081CD1000809
S31508003E2028D10008040C0020000080BF6666663EA4
S31508003E3000000000EC51383D2CD1000898B500AFC1
S31508003E404FF480413F4804F0EBFC3F4B1B680133BD
S31508003E503D4A136001F0BCFB3B4B1B68184604F057
S31508003E6071F80120FEF73AFCFEF740F8FDF764FF0B
S31508003E70FEF722F901F0E8FDFEF70AFFFFF7B2F9AF
S31508003E80FDF7B8FD0346002B54D0304B1B889BB278
S31508003E90002B0CBF01230023DBB2002B11D02C4BC7
S31508003EA0D3ED007ABFEE007AF4EE477AF1EE10FA17
S31508003EB040D1264B1B889BB201339AB2234B1A80FA
S31508003EC038E0224B1B889BB242F20F72934294BF92
S31508003ED001230023DBB2002B2CD01C4B1B889BB282
S31508003EE01C4601F013FCF0EE407A194AA30013446D
S31508003EF0C3ED007A154B1B889BB21C460120FEF7C2
S31508003F0051FD034607EE903AF8EEE77A104A04F5B3
S31508003F101C5310339B001344C3ED007A0B4B1B88CC
S31508003F209BB201339AB2094B1A804FF48041054877
S31508003F3004F086FC4FF48041024804F081FC00BF7F
S31508003F4098BD00BF00000240000C002084440120F8
S31508003F50040C002080B485B000AF78600B46FB7077
S31508003F601346BB70BB78002B02D00123FB7301E01C
S31508003F700023FB73FB781F2B00F2848101A252F801
S31508003F8023F000BF05400008194000082D4000082E
S31508003F904140000855400008694000087D40000877
S31508003FA091400008A5400008B9400008CD40000827
S31508003FB0E1400008F5400008094100081D410008D5
S31508003FC03141000845410008594100086D41000883
S31508003FD08141000895410008A9410008BD41000833
S31508003FE0D1410008E5410008F94100080D420008E2
S31508003FF02142000835420008494200085D4200088F
S3150800400071420008FB7B03F00103D9B27A68137882
S3150800401061F30003137035E1FB7B03F00103D9B2AA
S315080040207A68137861F3410313702BE1FB7B03F085
S315080040300103D9B27A68137861F38203137021E118
S31508004040FB7B03F00103D9B27A68137861F3C303E3
S31508004050137017E1FB7B03F00103D9B27A68137872
S3150800406061F3041313700DE1FB7B03F00103D9B26E
S315080040707A68137861F34513137003E1FB7B03F049
S315080040800103D9B27A68137861F386131370F9E0DD
S31508004090FB7B03F00103D9B27A68137861F3C7137F
S315080040A01370EFE0FB7B03F00103D9B27A6853780B
S315080040B061F300035370E5E0FB7B03F00103D9B21B
S315080040C07A68537861F341035370DBE0FB7B03F0B6
S315080040D00103D9B27A68537861F382035370D1E049
S315080040E0FB7B03F00103D9B27A68537861F3C30303
S315080040F05370C7E0FB7B03F00103D9B27A685378A3
S3150800410061F304135370BDE0FB7B03F00103D9B2DE
S315080041107A68537861F345135370B3E0FB7B03F079
S315080041200103D9B27A68537861F386135370A9E00C
S31508004130FB7B03F00103D9B27A68537861F3C7139E
S3150800414053709FE0FB7B03F00103D9B27A6893783A
S3150800415061F30003937095E0FB7B03F00103D9B28A
S315080041607A68937861F3410393708BE0FB7B03F0E5
S315080041700103D9B27A68937861F38203937081E078
S31508004180FB7B03F00103D9B27A68937861F3C30322
S31508004190937077E0FB7B03F00103D9B27A689378D2
S315080041A061F3041393706DE0FB7B03F00103D9B24E
S315080041B07A68937861F34513937063E0FB7B03F0A9
S315080041C00103D9B27A68937861F38613937059E03C
S315080041D0FB7B03F00103D9B27A68937861F3C713BE
S315080041E093704FE0FB7B03F00103D9B27A68D3786A
S315080041F061F30003D37045E0FB7B03F00103D9B2FA
S315080042007A68D37861F34103D3703BE0FB7B03F014
S315080042100103D9B27A68D37861F38203D37031E0A7
S31508004220FB7B03F00103D9B27A68D37861F3C30341
S31508004230D37027E0FB7B03F00103D9B27A68D37801
S3150800424061F30413D3701DE0FB7B03F00103D9B2BD
S315080042507A68D37861F34513D37013E0FB7B03F0D8
S315080042600103D9B27A68D37861F38613D37009E06B
S31508004270FB7B03F00103D9B27A68D37861F3C713DD
S31508004280D37000BF00BF1437BD465DF8047B704786
S3150800429080B485B000AF78600B46FB700023FB73D3
S315080042A0FB781F2B00F2048101A252F823F000BF0D
S315080042B0314300083D4300084943000855430008B8
S315080042C0614300086D4300087943000885430008E8
S315080042D0914300089D430008A9430008B543000818
S315080042E0C1430008CD430008D9430008E543000848
S315080042F0F1430008FD430008094400081544000876
S31508004300214400082D4400083944000845440008A3
S31508004310514400085D4400086944000875440008D3
S31508004320814400088D44000899440008A544000803
S315080043303B79C3F30003DBB2FB73B9E03B79C3F304
S315080043404003DBB2FB73B3E03B79C3F38003DBB214
S31508004350FB73ADE03B79C3F3C003DBB2FB73A7E0A5
S315080043603B79C3F30013DBB2FB73A1E03B79C3F3DC
S315080043704013DBB2FB739BE03B79C3F38013DBB2DC
S31508004380FB7395E03B79C3F3C013DBB2FB738FE095
S315080043907B79C3F30003DBB2FB7389E07B79C3F354
S315080043A04003DBB2FB7383E07B79C3F38003DBB2A4
S315080043B0FB737DE07B79C3F3C003DBB2FB7377E065
S315080043C07B79C3F30013DBB2FB7371E07B79C3F32C
S315080043D04013DBB2FB736BE07B79C3F38013DBB26C
S315080043E0FB7365E07B79C3F3C013DBB2FB735FE055
S315080043F0BB79C3F30003DBB2FB7359E0BB79C3F3A4
S315080044004003DBB2FB7353E0BB79C3F38003DBB233
S31508004410FB734DE0BB79C3F3C003DBB2FB7347E024
S31508004420BB79C3F30013DBB2FB7341E0BB79C3F37B
S315080044304013DBB2FB733BE0BB79C3F38013DBB2FB
S31508004440FB7335E0BB79C3F3C013DBB2FB732FE014
S31508004450FB79C3F30003DBB2FB7329E0FB79C3F3F3
S315080044604003DBB2FB7323E0FB79C3F38003DBB2C3
S31508004470FB731DE0FB79C3F3C003DBB2FB7317E0E4
S31508004480FB79C3F30013DBB2FB7311E0FB79C3F3CB
S315080044904013DBB2FB730BE0FB79C3F38013DBB28B
S315080044A0FB7305E0FB79C3F3C013DBB2FB7300BFF4
S315080044B0FB7B18461437BD465DF8047B704700BF82
S315080044C080B584B000AF0346FB710B46BB7113463B
S315080044D07B71FB79FB73BB79BB737B79002B02D0AD
S315080044E07B79022B24D17B79002B08D07B79022B90
S315080044F005D1FB79002B44D0FB79013BFB73FB7B91
S315080045000F2B09D8BB7B9B00214A1344F97B012258
S315080045101846FFF71FFD37E002F036F81D4803F08E
S31508004520B3FB1D4803F0B0FB1C4803F0ADFB2BE0C2
S315080045307B79012B02D07B79032B25D17B79012B43
S3150800454008D07B79032B05D1BB79002B1BD0BB790F
S31508004550013BBB73BB7B0F2B09D8FB7B9B00104A27
S315080045601344B97B01221846FFF7F4FC0CE009480E
S3150800457003F08AFB0B4803F087FB084803F084FB2B
S3150800458002E000BF00E000BF1037BD4680BD00BF97
S315080045900845012038D1000848D1000890D1000804
S315080045A048450120ACD1000880B584B000AF034669
S315080045B0FB710B46BB7113467B71FB79FB73BB79A9
S315080045C0BB737B79002B02D07B79022B2BD17B79AD
S315080045D0002B0AD07B79022B07D1FB79002B01D15E
S315080045E0012353E0FB79013BFB73FB7B0F2B0DD8B3
S315080045F0BB7BF97B274A52F82300FFF749FE03469F
S31508004600002B14BF01230023DBB23FE001F0BCFFFF
S31508004610214803F039FB214803F036FB204803F014
S3150800462033FB012332E07B79012B02D07B79032B04
S315080046302BD17B79012B0AD07B79032B07D1BB7948
S31508004640002B01D1012321E0BB79013BBB73BB7B66
S315080046500F2B0DD8FB7BB97B124A52F82300FFF7C4
S3150800466017FE0346002B14BF01230023DBB20DE01F
S3150800467001F08AFF084803F007FB0B4803F004FB28
S31508004680074803F001FB012300E000231846103712
S31508004690BD4680BD0845012038D100089CD20008D7
S315080046A0E4D2000848450120FCD2000880B584B051
S315080046B000AF0346FB710B46BB7113467B71FB7952
S315080046C0FB73BB79BB737B79002B02D07B79022BFA
S315080046D022D17B79002B08D07B79022B05D1FB7977
S315080046E0002B42D0FB79013BFB73FB7B0F2B09D8D0
S315080046F0BB7B9B00204A1344F97B01221846FFF72F
S3150800470029FC35E01D4803F0BFFA1D4803F0BCFA42
S315080047101C4803F0B9FA2BE07B79012B02D07B7990
S31508004720032B25D17B79012B08D07B79032B05D167
S31508004730BB79002B1BD0BB79013BBB73BB7B0F2B13
S3150800474009D8FB7B9B00104A1344B97B0122184603
S31508004750FFF700FC0CE0094803F096FA0B4803F053
S3150800476093FA084803F090FA02E000BF00E000BFA1
S315080047701037BD4680BD00BF8844012038D10008E7
S3150800478044D3000884D30008C84401209CD30008F9
S3150800479080B584B000AF0346FB710B46BB71134668
S315080047A07B71FB79FB73BB79BB737B79002B02D0DA
S315080047B07B79022B22D17B79002B08D07B79022BBF
S315080047C005D1FB79002B42D0FB79013BFB73FB7BC0
S315080047D00F2B09D8BB7B9B00204A1344F97B002288
S315080047E01846FFF7B7FB35E01D4803F04DFA1D489C
S315080047F003F04AFA1C4803F047FA2BE07B79012BB1
S3150800480002D07B79032B25D17B79012B08D07B79C4
S31508004810032B05D1BB79002B1BD0BB79013BBB739E
S31508004820BB7B0F2B09D8FB7B9B00104A1344B97B33
S3150800483000221846FFF78EFB0CE0094803F024FA1D
S315080048400B4803F021FA084803F01EFA02E000BFFD
S3150800485000E000BF1037BD4680BD00BF8844012078
S3150800486038D1000844D30008DCD30008C844012026
S315080048709CD3000880B584B000AF0346FB710B4695
S31508004880BB7113467B71FB79FB73BB79BB737B7971
S31508004890002B02D07B79022B29D17B79002B0AD0F9
S315080048A07B79022B07D1FB79002B01D101234FE03D
S315080048B0FB79013BFB73FB7B0F2B0DD8BB7BF97B8D
S315080048C0254A52F82300FFF7E3FC0346002B14BFE2
S315080048D001230023DBB23BE0204803F0D5F920484A
S315080048E003F0D2F91F4803F0CFF9012330E07B79B2
S315080048F0012B02D07B79032B29D17B79012B0AD096
S315080049007B79032B07D1BB79002B01D101231FE04B
S31508004910BB79013BBB73BB7B0F2B0DD8FB7BB97BEC
S31508004920114A52F82300FFF7B3FC0346002B14BFC5
S3150800493001230023DBB20BE0084803F0A5F90B4876
S3150800494003F0A2F9074803F09FF9012300E00023CA
S3150800495018461037BD4680BD8844012038D1000866
S31508004960F4D3000834D40008C844012048D4000809
S3150800497080B582B000AF00237B607B680F2B17DC05
S31508004980384A7B68002142F82310374A7B680021A1
S3150800499042F82310354A7B68002142F82310344A2E
S315080049A07B68002142F823107B6801337B60E4E7CB
S315080049B000233B603B680F2B3BDC3B68DBB20222E3
S315080049C019460020FFF772FE3B68DBB20222194641
S315080049D00020FFF775FD3B68DBB2002219460F2061
S315080049E0FFF764FE3B68DBB2002219460F20FFF78B
S315080049F067FD3B68DBB2032200211846FFF756FE27
S31508004A003B68DBB2032200211846FFF759FD3B68D5
S31508004A10DBB201220F211846FFF748FE3B68DBB2DE
S31508004A2001220F211846FFF74BFD3B6801333B6017
S31508004A30C0E7002200210020FFF738FE00220021EF
S31508004A400020FFF73DFD012200210020FFF7A0FE10
S31508004A50012200210020FFF733FD00BF0837BD46BD
S31508004A6080BD00BF88440120C844012008450120B4
S31508004A704845012080B584B000AF0346FB7100238A
S31508004A80FB730F23BB738B4803F0FEF80023FB73FD
S31508004A9097F90F300F2B08DC874803F0F5F8FB7BF6
S31508004AA0DBB20133DBB2FB73F2E7844803F0ECF8C0
S31508004AB0834803F0E9F80023FB7397F90F300E2BB0
S31508004AC037DCFB79002B0BD0FB7BBA7B11461846EB
S31508004AD000F048FB034619467A4803F0D5F802E089
S31508004AE0794803F0D1F8FB7BB97B00221846FFF71B
S31508004AF0C1FE0346002B0AD1FB7B0133DBB2B97B2F
S31508004B0002221846FFF7B6FE0346002B01D0012302
S31508004B1000E00023002B03D0694803F0B5F802E053
S31508004B206A4803F0B1F8FB7BDBB20133DBB2FB73F7
S31508004B30C3E7FB79002B0BD0FB7BBA7B11461846E3
S31508004B4000F010FB034619465E4803F09DF802E0A4
S31508004B505D4803F099F85E4803F096F80E23BB7398
S31508004B6097F90E30002BC0F28E800023FB7397F95D
S31508004B700F300F2B28DC574803F086F8FB7BB97BF0
S31508004B8001221846FFF776FE0346002B0AD1F87B6A
S31508004B90BB7B0133DBB203221946FFF76BFE0346E4
S31508004BA0002B01D0012300E00023002B03D04A4844
S31508004BB003F06AF802E0444803F066F8FB7BDBB2D0
S31508004BC00133DBB2FB73D2E73C4803F05DF83C489F
S31508004BD003F05AF80023FB7397F90F300E2B37DCD6
S31508004BE0FB79002B0BD0FB7BBA7B1146184600F0ED
S31508004BF0B9FA03461946334803F046F802E0324844
S31508004C0003F042F8FB7BB97B00221846FFF732FE19
S31508004C100346002B0AD1FB7B0133DBB2B97B0222A8
S31508004C201846FFF727FE0346002B01D0012300E0B4
S31508004C300023002B03D0224803F026F802E023487D
S31508004C4003F022F8FB7BDBB20133DBB2FB73C3E76D
S31508004C50FB79002B0BD0FB7BBA7B1146184600F07C
S31508004C6081FA03461946174803F00EF802E016487B
S31508004C7003F00AF8164803F007F8BB7BDBB2013BE2
S31508004C80DBB2BB736CE70023FB7397F90F300F2B6E
S31508004C9008DC094802F0F8FFFB7BDBB20133DBB224
S31508004CA0FB73F2E7054802F0EFFF00BF1037BD4679
S31508004CB080BD00BF88D40008A8D40008B0D4000876
S31508004CC0B4D40008B8D40008BCD40008C0D400087E
S31508004CD0C4D40008C8D40008CCD4000880B485B071
S31508004CE000AF78600023FB60FB680F2B26DC7B682F
S31508004CF0FA6853F822201449FB6841F823207B6898
S31508004D00FA68103253F822201049FB6841F823202C
S31508004D107B68FA68203253F822200D49FB6841F86F
S31508004D2023207B68FA68303253F822200949FB6849
S31508004D3041F82320FB680133FB60D5E700BF143731
S31508004D40BD465DF8047B704788440120C8440120AD
S31508004D50084501204845012080B485B000AF786039
S31508004D600023FB60FB680F2B26DC164AFB6852F80B
S31508004D7023107B68FA6843F82210134AFB6852F836
S31508004D8023107B68FA68103243F822100F4AFB6832
S31508004D9052F823107B68FA68203243F822100C4A2E
S31508004DA0FB6852F823107B68FA68303243F8221001
S31508004DB0FB680133FB60D5E700BF1437BD465DF8D5
S31508004DC0047B704788440120C84401200845012017
S31508004DD04845012080B483B000AF00237B607B6820
S31508004DE00F2B15DC00233B603B680F2B0CDC0B49B3
S31508004DF07B681A013B68134440F2E73221F8132016
S31508004E003B6801333B60EFE77B6801337B60E6E78D
S31508004E1000BF0C37BD465DF8047B70478C45012002
S31508004E2090B5ADF2A47D00AF0246FB1D1A70BB1DFE
S31508004E300A461A700023A7F89E37B7F99E37B3F5C6
S31508004E40717F13DCB7F99E3707F575720021D154C7
S31508004E50B7F99E3707F10C020021D154B7F89E37EF
S31508004E609BB201339BB2A7F89E37E6E7002387F883
S31508004E709B37002387F89A37FFF7ACFFFB1D1A7894
S31508004E80BB1D1B78B64912011344002221F81320D2
S31508004E90012387F89D37002387F89C3797F89C37B6
S31508004EA007F57572F91D0978D15497F89C3707F1FB
S31508004EB00C02B91D0978D15497F89D2797F89C37A5
S31508004EC09A4200F0478197F89C3707F57572D35CCC
S31508004ED087F89B3797F89C3707F10C02D35C87F85D
S31508004EE09A3797F89C37013387F89C3797F89B379A
S31508004EF0013B002B46DB97F89B375A1E97F89A37E3
S31508004F0097491201134431F8133040F2E7329342BD
S31508004F1038D197F89A1797F89B3702221846FFF761
S31508004F20A9FC034683F00103DBB2002B2AD097F8CD
S31508004F309B375A1E97F89A3797F89B0797F89A1748
S31508004F40874C0001014434F81110013188B28449B4
S31508004F5012011344024621F8132097F89D3797F853
S31508004F609B27013AD1B207F57572D15497F89D3748
S31508004F7007F10C0297F89A17D15497F89D37013321
S31508004F8087F89D3797F89B3701330F2B46DC97F840
S31508004F909B375A1C97F89A3771491201134431F80E
S31508004FA0133040F2E732934238D197F89A1797F8B8
S31508004FB09B3700221846FFF75DFC034683F0010382
S31508004FC0DBB2002B2AD097F89B375A1C97F89A37EA
S31508004FD097F89B0797F89A17614C0001014434F833
S31508004FE01110013188B25E4912011344024621F8B4
S31508004FF0132097F89D3797F89B270132D1B207F50A
S315080050007572D15497F89D3707F10C0297F89A17DD
S31508005010D15497F89D37013387F89D3797F89A3713
S31508005020013B002B46DB97F89B2797F89A37013BFD
S315080050304B491201134431F8133040F2E7329342D8
S3150800504038D197F89A1797F89B3703221846FFF72F
S3150800505011FC034683F00103DBB2002B2AD097F834
S315080050609B2797F89A37013B97F89B0797F89A1763
S315080050703B4C0001014434F81110013188B238491B
S3150800508012011344024621F8132097F89D3707F5B5
S31508005090757297F89B17D15497F89D3797F89A2702
S315080050A0013AD1B207F10C02D15497F89D37013372
S315080050B087F89D3797F89A3701330F2B3FF7FCAEE1
S315080050C097F89B2797F89A37013325491201134415
S315080050D031F8133040F2E73293427FF4EDAE97F899
S315080050E09A1797F89B3701221846FFF7C3FB034622
S315080050F083F00103DBB2002B3FF4DEAE97F89B2763
S3150800510097F89A37013397F89B0797F89A17144C2C
S315080051100001014434F81110013188B21049120116
S315080051201344024621F8132097F89D3707F5757240
S3150800513097F89B17D15497F89D3797F89A27013215
S31508005140D1B207F10C02D15497F89D37013387F88D
S315080051509D37B1E600BF07F2A477BD4690BD00BFF4
S315080051608C45012080B483B000AF03460A46FB7124
S315080051701346BB71FA79BB7905491201134431F814
S31508005180133018460C37BD465DF8047B704700BFE0
S315080051908C45012080B487B000AFF860B96013462B
S315080051A0FB71FB681B78FB75BB681B78BB75FB79C5
S315080051B0022B0AD1BB7DDBB25B42DBB2DAB2FB68FB
S315080051C01A70FA7DBB681A7009E0BA7DFB681A7016
S315080051D0FB7DDBB25B42DBB2DAB2BB681A7000BF9A
S315080051E01C37BD465DF8047B704700BF80B582B0AA
S315080051F000AF0346FB71FB79042B09D901F0C4F90A
S31508005200FB7919460A4802F03FFD4FF0000307E014
S31508005210FA79084913465B0013449B000B441B6844
S3150800522007EE903AB0EE670A0837BD4680BD00BF64
S315080052304CEE000810D5000880B483B000AF0346D2
S31508005240FB71FB79042B1AD801A252F823F000BF90
S31508005250655200086B520008715200087552000822
S31508005260795200084FF4C8730AE04FF48C7307E0CC
S31508005270002305E0BE2303E040F6C82300E0002330
S3150800528018460C37BD465DF8047B704780B483B07A
S3150800529000AF0346FB71FB79042B17D801A252F81D
S315080052A023F000BFB9520008BD520008C1520008D9
S315080052B0C5520008C9520008462308E0502306E0F4
S315080052C0642304E0822302E0962300E000231BB255
S315080052D018460C37BD465DF8047B704780B582B02A
S315080052E000AF0346FB71FB79042B09D901F04CF991
S315080052F0FB7919460A4802F0C7FC4FF0000308E09C
S31508005300FA79084913465B0013449B000B4404339F
S315080053101B6807EE903AB0EE670A0837BD4680BDAF
S3150800532080EE000810D5000880B582B000AF0346AD
S31508005330FB71FB79042B09D901F026F9FB7919468B
S315080053400A4802F0A1FC4FF0000308E0FA79084980
S3150800535013465B0013449B000B4408331B6807EE97
S31508005360903AB0EE670A0837BD4680BDB8EE000829
S3150800537010D5000890B583B000AF0446084611461C
S315080053801A462346FB710346BB710B467B711346CF
S315080053903B713B79042B09D901F0F6F83B7919469C
S315080053A0824802F071FC4FF00003F7E0BB79072B47
S315080053B000F2F28001A252F823F000BFDD53000884
S315080053C0115400084954000881540008B9540008CB
S315080053D0F1540008295500086155000897F9053069
S315080053E0002B0AD1FA793979714813469B00134480
S315080053F00B445B0103441B68D0E0FA7939796D48A0
S3150800540013469B0013440B445B0103441B68C5E029
S3150800541097F90530002B0BD1FA7939796448134688
S315080054209B0013440B445B01034404331B68B5E03B
S31508005430FA7939795F4813469B0013440B445B019C
S31508005440034404331B68A9E097F90530002B0BD1F8
S31508005450FA793979564813469B0013440B445B0185
S31508005460034408331B6899E0FA7939795148134699
S315080054709B0013440B445B01034408331B688DE00F
S3150800548097F90530002B0BD1FA7939794848134634
S315080054909B0013440B445B0103440C331B687DE0FB
S315080054A0FA793979434813469B0013440B445B0148
S315080054B003440C331B6871E097F90530002B0BD1B8
S315080054C0FA7939793A4813469B0013440B445B0131
S315080054D0034410331B6861E0FA7939793548134675
S315080054E09B0013440B445B01034410331B6855E0CF
S315080054F097F90530002B0BD1FA7939792C481346E0
S315080055009B0013440B445B01034414331B6845E0BA
S31508005510FA793979274813469B0013440B445B01F3
S31508005520034414331B6839E097F90530002B0BD177
S31508005530FA7939791E4813469B0013440B445B01DC
