S010000068616C666D6F7573652E6D6F74AD
S3150800000000000220C55400087151000881510008FB
S315080000108951000891510008995100080000000014
S31508000020000000000000000000000000A1510008C8
S31508000030B151000800000000C1510008D151000864
S3150800004015550008155500081555000815550008DA
S3150800005015550008155500081555000815550008CA
S3150800006015550008155500081555000815550008BA
S3150800007015550008155500081555000815550008AA
S31508000080155500081555000815550008155500089A
S31508000090155500081555000815550008155500088A
S315080000A0155500081555000815550008155500087A
S315080000B0155500081555000815550008155500086A
S315080000C0155500081555000815550008155500085A
S315080000D0155500081555000815550008155500084A
S315080000E0155500081555000815550008155500083A
S315080000F0155500081555000815550008155500082A
S315080001001555000815550008155500081555000819
S315080001101555000815550008155500081555000809
S3150800012015550008155500081555000815550008F9
S3150800013015550008000000000000000015550008CD
S3150800014015550008155500081555000815550008D9
S3150800015015550008155500081555000815550008C9
S3150800016015550008155500081555000815550008B9
S31508000170155500081555000800000000000000008D
S30D08000180155500081555000885
S315080001C0044B05481B1A062B02D9044B03B11847E2
S315080001D0704700BF97080020940800200000000020
S315080001E005490648091A891001EBD171491002D050
S315080001F0034B03B118477047940800209408002061
S315080002000000000010B5064C237843B9FFF7D8FF65
S31508000210044B13B10448AFF300800123237010BDCB
S315080002209408002000000000E4A2000808B5084B66
S315080002301BB108490848AFF300800848036813B99A
S31508000240BDE80840CCE7064B002BF9D09847F7E7FE
S315080002500000000098080020E4A200089408002086
S315080002600000000081F0004102E000BF83F0004377
S3150800027030B54FEA41044FEA430594EA050F08BF33
S3150800028090EA020F1FBF54EA000C55EA020C7FEAF7
S31508000290645C7FEA655C00F0E2804FEA5454D4EB74
S315080002A05555B8BF6D420CDD2C4480EA020281EA3E
S315080002B0030382EA000083EA010180EA020281EA76
S315080002C00303362D88BF30BD11F0004F4FEA0131C8
S315080002D04FF4801C4CEA113102D0404261EB4101D7
S315080002E013F0004F4FEA03334CEA133302D052425D
S315080002F063EB430394EA050F00F0A780A4F1010419
S31508000300D5F1200E0DDB02FA0EFC22FA05F2801852
S3150800031041F1000103FA0EF2801843FA05F3594138
S315080003200EE0A5F120050EF1200E012A03FA0EFCB7
S3150800033028BF4CF0020C43FA05F3C01851EBE371E1
S3150800034001F0004507D54FF0000EDCF1000C7EEBFE
S3150800035000006EEB0101B1F5801F1BD3B1F5001F3C
S315080003600CD349085FEA30004FEA3C0C04F101045B
S315080003704FEA445212F5800F80F09A80BCF1004F84
S3150800038008BF5FEA500C50F1000041EB045141EA06
S31508000390050130BD5FEA4C0C404141EB010111F407
S315080003A0801FA4F10104E9D191F0000F04BF0146B2
S315080003B00020B1FA81F308BF2033A3F10B03B3F190
S315080003C020020CDA0C3208DD02F1140CC2F10C0220
S315080003D001FA0CF021FA02F10CE002F11402D8BF7E
S315080003E0C2F1200C01FA02F120FA0CFCDCBF41EA4A
S315080003F00C019040E41AA2BF01EB0451294330BD19
S315080004006FEA04041F3C1CDA0C340EDC04F11404F5
S31508000410C4F1200220FA04F001FA02F340EA0300CC
S3150800042021FA04F345EA030130BDC4F10C04C4F112
S31508000430200220FA02F001FA04F340EA03002946F2
S3150800044030BD21FA04F0294630BD94F0000F83F43C
S31508000450801306BF81F480110134013D4EE77FEA1F
S31508000460645C18BF7FEA655C29D094EA050F08BF6B
S3150800047090EA020F05D054EA000C04BF194610464C
S3150800048030BD91EA030F1EBF0021002030BD5FEA90
S31508000490545C05D14000494128BF41F0004130BDB8
S315080004A014F580043CBF01F5801130BD01F000450C
S315080004B045F0FE4141F470014FF0000030BD7FEA7F
S315080004C0645C1ABF194610467FEA655C1CBF0B467A
S315080004D0024650EA013406BF52EA033591EA030F91
S315080004E041F4002130BD00BF90F0000F04BF002189
S315080004F0704730B54FF4806404F132044FF00005BC
S315080005004FF0000150E700BF90F0000F04BF002134
S31508000510704730B54FF4806404F1320410F000459A
S3150800052048BF40424FF000013EE700BF42004FEA95
S31508000530E2014FEA31014FEA02701FBF12F07F4312
S3150800054093F07F4F81F06051704792F0000F14BF0F
S3150800055093F07F4F704730B54FF4607401F0004553
S3150800056021F0004120E700BF50EA010208BF7047AA
S3150800057030B54FF000050AE050EA010208BF70479F
S3150800058030B511F0004502D5404261EB41014FF408
S31508000590806404F132045FEA915C3FF4DCAE4FF00C
S315080005A003025FEADC0C18BF03325FEADC0C18BFF3
S315080005B0033202EBDC02C2F1200300FA03FC20FA44
S315080005C002F001FA03FE40EA0E0021FA02F1144491
S315080005D0C1E600BF70B54FF0FF0C4CF4E06C1CEAA6
S315080005E011541DBF1CEA135594EA0C0F95EA0C0F1B
S315080005F000F0DEF82C4481EA030621EA4C5123EA8E
S315080006004C5350EA013518BF52EA033541F48011BC
S3150800061043F4801338D0A0FB02CE4FF00005E1FB6F
S3150800062002E506F00042E0FB03E54FF00006E1FBB9
S3150800063003569CF0000F18BF4EF0010EA4F1FF04FC
S31508000640B6F5007F64F5407404D25FEA4E0E6D413C
S3150800065046EB060642EAC62141EA55514FEAC5204D
S3150800066040EA5E504FEACE2EB4F1FD0C88BFBCF5C9
S31508000670E06F1ED8BEF1004F08BF5FEA500E50F17A
S31508000680000041EB045170BD06F0004646EA010140
S3150800069040EA020081EA0301B4EB5C04C2BFD4EB72
S315080006A00C0541EA045170BD41F480114FF0000E6B
S315080006B0013C00F3AB8014F1360FDEBF002001F0D9
S315080006C0004170BDC4F10004203C35DA0C341BDC53
S315080006D004F11404C4F1200500FA05F320FA04F025
S315080006E001FA05F240EA020001F0004221F0004159
S315080006F010EBD37021FA04F642EB06015EEA430ECC
S3150800070008BF20EAD37070BDC4F10C04C4F12005FB
S3150800071000FA04F320FA05F001FA04F240EA0200AE
S3150800072001F0004110EBD37041F100015EEA430E7F
S3150800073008BF20EAD37070BDC4F1200500FA05F29F
S315080007404EEA020E20FA04F301FA05F243EA02031E
S3150800075021FA04F001F0004121FA04F220EA02002D
S3150800076000EBD3705EEA430E08BF20EAD37070BD73
S3150800077094F0000F0FD101F00046400041EB010153
S3150800078011F4801F08BF013CF7D041EA060195F035
S31508000790000F18BF704703F00046520043EB0303EF
S315080007A013F4801F08BF013DF7D043EA06037047DC
S315080007B094EA0C0F0CEA135518BF95EA0C0F0CD0E7
S315080007C050EA410618BF52EA4306D1D181EA03012D
S315080007D001F000414FF0000070BD50EA410606BF27
S315080007E01046194652EA430619D094EA0C0F02D16C
S315080007F050EA013613D195EA0C0F05D152EA0336B1
S315080008001CBF104619460AD181EA030101F00041CE
S3150800081041F0FE4141F470014FF0000070BD41F017
S31508000820FE4141F4780170BD70B54FF0FF0C4CF4F1
S31508000830E06C1CEA11541DBF1CEA135594EA0C0F10
S3150800084095EA0C0F00F0A7F8A4EB050481EA030E5D
S3150800085052EA03354FEA013100F088804FEA033344
S315080008604FF0805545EA131343EA12634FEA022212
S3150800087045EA111545EA10654FEA00260EF00041D3
S315080008809D4208BF964244F1FD0404F5407402D225
S315080008905B084FEA3202B61A65EB03055B084FEAB6
S315080008A032024FF480104FF4002CB6EB020E75EBB3
S315080008B0030E22BFB61A754640EA0C005B084FEADB
S315080008C03202B6EB020E75EB030E22BFB61A754658
S315080008D040EA5C005B084FEA3202B6EB020E75EBA3
S315080008E0030E22BFB61A754640EA9C005B084FEA1B
S315080008F03202B6EB020E75EB030E22BFB61A754628
S3150800090040EADC0055EA060E18D04FEA051545EA16
S3150800091016754FEA06164FEAC30343EA52734FEABF
S31508000920C2025FEA1C1CC0D111F4801F0BD141EA38
S3150800093000014FF000004FF0004CB6E711F4801F9D
S3150800094004BF01430020B4F1FD0C88BFBCF5E06F7D
S315080009503FF6AFAEB5EB030C04BFB6EB020C5FEA8D
S31508000960500C50F1000041EB045170BD0EF0004EE2
S315080009704EEA113114EB5C04C2BFD4EB0C0541EA14
S31508000980045170BD41F480114FF0000E013C90E611
S3150800099045EA060E8DE60CEA135594EA0C0F08BFD5
S315080009A095EA0C0F3FF43BAF94EA0C0F0AD150EAD4
S315080009B001347FF434AF95EA0C0F7FF425AF104667
S315080009C019462CE795EA0C0F06D152EA03353FF48F
S315080009D0FDAE1046194622E750EA410618BF52EA0C
S315080009E043067FF4C5AE50EA41047FF40DAF52EAE0
S315080009F043057FF4EBAE12E74FF0FF3C06E000BF7D
S31508000A004FF0010C02E000BF4FF0010C4DF804CD89
S31508000A104FEA410C7FEA6C5C4FEA430C18BF7FEA49
S31508000A206C5C1BD001B050EA410C0CBF52EA430C77
S31508000A3091EA030F02BF90EA020F0020704710F1F7
S31508000A40000F91EA030F58BF994208BF90422CBF86
S31508000A50D8176FEAE37040F0010070474FEA410C7F
S31508000A607FEA6C5C02D150EA013C07D14FEA430C9D
S31508000A707FEA6C5CD6D152EA033CD3D05DF8040B0E
S31508000A80704700BF8446104662468C461946634640
S31508000A9000E000BF01B5FFF7B7FF002848BF10F117
S31508000AA0000F01BD4DF808EDFFF7F4FF0CBF01205C
S31508000AB000205DF808FB00BF4DF808EDFFF7EAFFD8
S31508000AC034BF012000205DF808FB00BF4DF808ED93
S31508000AD0FFF7E0FF94BF012000205DF808FB00BF88
S31508000AE04DF808EDFFF7CEFF94BF012000205DF812
S31508000AF008FB00BF4DF808EDFFF7C4FF34BF01201F
S31508000B0000205DF808FB00BF4A0011D212F500125A
S31508000B1011D20DD56FF47873B3EB62520ED44FEA47
S31508000B20C12343F0004343EA505323FA02F07047C7
S31508000B304FF00000704750EA013002D14FF0FF3005
S31508000B4070474FF0000070474FEA4102B2F1E043A8
S31508000B5024BFB3F5001CDCF1FE5C0DD901F0004C96
S31508000B604FEAC0024CEA5070B2F1004F40EB8300E6
S31508000B7008BF20F00100704711F0804F21D113F112
S31508000B803872BCBF01F00040704741F480114FEA4B
S31508000B905252C2F11802C2F1200C10FA0CF320FAD4
S31508000BA002F018BF40F001004FEAC1234FEAD323F1
S31508000BB003FA0CFC40EA0C0023FA02F34FEA43035B
S31508000BC0CCE77FEA625307D150EA01331EBF4FF0E4
S31508000BD0FE4040F44000704701F0004040F0FE40FF
S31508000BE040F40000704700BF00000000000000004D
S31508000BF001F0FF01102A2BDB10F0070F08D010F8C0
S31508000C00013B013A8B422DD010F0070F42B3F6D1C3
S31508000C10F0B441EA012141EA014122F007047FF0DC
S31508000C2000070023F0E80256083C85EA010586EA33
S31508000C30010685FA47F5A3FA87F586FA47F6A5FA6F
S31508000C4087F68EB9EED1F0BC01F0FF0102F007027B
S31508000C5032B110F8013B013A83EA010313B1F8D126
S31508000C600020704701387047002D06BF3546033807
S31508000C70073815F0010F07D1013015F4807F02BF40
S31508000C80013015F4C03F0130F0BC0138704700BF91
S31508000C90844641EA000313F003036DD1403A41D379
S31508000CA051F8043B40F8043B51F8043B40F8043B38
S31508000CB051F8043B40F8043B51F8043B40F8043B28
S31508000CC051F8043B40F8043B51F8043B40F8043B18
S31508000CD051F8043B40F8043B51F8043B40F8043B08
S31508000CE051F8043B40F8043B51F8043B40F8043BF8
S31508000CF051F8043B40F8043B51F8043B40F8043BE8
S31508000D0051F8043B40F8043B51F8043B40F8043BD7
S31508000D1051F8043B40F8043B51F8043B40F8043BC7
S31508000D20403ABDD2303211D351F8043B40F8043B67
S31508000D3051F8043B40F8043B51F8043B40F8043BA7
S31508000D4051F8043B40F8043B103AEDD20C3205D377
S31508000D5051F8043B40F8043B043AF9D2043208D06F
S31508000D60D2071CBF11F8013B00F8013B01D30B88E1
S31508000D7003806046704700BF082A13D38B078DD0BF
S31508000D8010F003038AD0C3F10403D21ADB071CBF91
S31508000D9011F8013B00F8013B80D331F8023B20F8FB
S31508000DA0023B7BE7043AD9D3013A11F8013B00F834
S31508000DB0013BF9D20B7803704B7843708B788370BC
S31508000DC060467047000000000000000000000000B8
S31508000DD00000000000000000000000000000000005
S31508000DE000000000000000000000000000000000F5
S31508000DF000000000000000000000000000000000E5
S31508000E0090F800F06DE9024520F007016FF0000C3C
S31508000E1010F0070491F820F040F049804FF00004E4
S31508000E206FF00700D1E9002391F840F000F10800BF
S31508000E3082FA4CF2A4FA8CF283FA4CF3A2FA8CF3F7
S31508000E404BBBD1E9022382FA4CF200F10800A4FA5E
S31508000E508CF283FA4CF3A2FA8CF3E3B9D1E90423B2
S31508000E6082FA4CF200F10800A4FA8CF283FA4CF3E9
S31508000E70A2FA8CF37BB9D1E9062301F1200182FAA3
S31508000E804CF200F10800A4FA8CF283FA4CF3A2FAA9
S31508000E908CF3002BC6D0002A04BF04301A4612BAB7
S31508000EA0B2FA82F2FDE8024500EBD2007047D1E9BA
S31508000EB0002304F00305C4F100004FEAC50514F049
S31508000EC0040F91F840F00CFA05F562EA05021CBF1A
S31508000ED063EA050362464FF00004A9E74FEA4102B8
S31508000EE012F5001215D211D56FF47873B3EB62526E
S31508000EF012D94FEAC12343F0004343EA505311F095
S31508000F00004F23FA02F018BF404270474FF0000026
S31508000F10704750EA013005D111F0004008BF6FF064
S31508000F20004070474FF00000704700BF53B94AB9F8
S31508000F30002908BF00281CBF4FF0FF314FF0FF30D3
S31508000F4000F07EB9ADF1080C6DE904CE00F006F8A4
S31508000F50DDF804E0DDE9022304B070472DE9F04727
S31508000F608C460E460446089D002B50D18A421746E9
S31508000F706CD9B2FA82FEBEF1000F0BD0CEF1200476
S31508000F8020FA04F401FA0EF644EA060C02FA0EF701
S31508000F9000FA0EF44FEA1749220CBCFBF9F01FFAC7
S31508000FA087F809FB10C642EA064600FB08F3B34277
S31508000FB009D9F61900F1FF3280F02281B34240F2D6
S31508000FC01F8102383E44F61AA2B2B6FBF9F309FBB2
S31508000FD0136642EA064403FB08F8A04509D9E41952
S31508000FE003F1FF3280F00A81A04540F20781023BF7
S31508000FF03C44C8EB040443EA00400021002D62D0BB
S3150800100024FA0EF400232C606B60BDE8F0878B424F
S3150800101007D9002D55D0002185E841000846BDE8CE
S31508001020F087B3FA83F1002940F09080B34202D3E7
S31508001030824200F2F880841A66EB03060120B44661
S31508001040002D40D085E81010BDE8F08712B90127B9
S31508001050B7FBF2F7B7FA87FEBEF1000F35D1F31BDF
S315080010604FEA17481FFA87FC0121B3FBF8F0220C58
S3150800107008FB103642EA06460CFB00F3B34207D9D2
S31508001080F61900F1FF3202D2B34200F2CE801046C2
S31508001090F61AA2B2B6FBF8F308FB136642EA064450
S315080010A00CFB03FCA44507D9E41903F1FF3202D26D
S315080010B0A44500F2B5801346CCEB040443EA00408D
S315080010C09CE729462846BDE8F087CEF1200106FAB6
S315080010D00EF307FA0EF720FA01F94FEA1748CE4041
S315080010E049EA0309B6FBF8FA4FEA194408FB1A66F7
S315080010F01FFA87FC44EA06430AFB0CF29A4200FAF6
S315080011000EF40AD9DB190AF1FF3180F087809A427A
S3150800111040F28480AAF1020A3B449B1A1FFA89F915
S31508001120B3FBF8F108FB113349EA034301FB0CF65C
S315080011309E4207D9DB1901F1FF326BD29E4269D96B
S3150800114002393B449B1B41EA0A418EE7C1F1200E56
S3150800115022FA0EF48B40234320FA0EF706FA01F41E
S315080011604FEA134C26FA0EF63C43B6FBFCF9270C5D
S315080011700CFB19661FFA83F847EA064609FB08F7C7
S31508001180B74202FA01F200FA01FA08D9F61809F18B
S31508001190FF3041D2B7423FD9A9F102091E44F61BD6
S315080011A0A0B2B6FBFCF40CFB146640EA064704FB47
S315080011B008F8B84507D9FF1804F1FF3028D2B84512
S315080011C026D9023C1F4444EA0940C8EB0707A0FB9E
S315080011D002894F4544464E4614D329D065B3BAEB27
S315080011E0040367EB060707FA0EFECB40CF404EEA2C
S315080011F0030385E888000021BDE8F0871346F8E672
S315080012001046E0E6B8EB020469EB03060138E5E7A9
S315080012100446D8E7114695E78146C0E78A467CE743
S31508001220023B3C4448E708460AE702383E442FE7B3
S31508001230C245E7D33E46D1E72946BDE8F08700BF59
S31508001240704700BF80B500AF0221104804F02AFBA2
S315080012500023012209210D4804F006FA0B4804F080
S31508001260CDFA0221094804F003FB0346002B0CBF04
S3150800127001230023DBB2002B00D0F2E7034804F079
S31508001280CDFA03461B119BB2184680BD00200140CB
S3150800129080B582B000AF4FF000037B604FF48053F7
S315080012A03B60FFF7CFFF034607EE903AF8EEE77A82
S315080012B09FED0B7A67EE876A3B6807EE903AB8EEC1
S315080012C0677AC6EE877A77EEA77AC7ED017A7B68E2
S315080012D007EE903AB0EE670A0837BD4680BD00BFF4
S315080012E03333534080B582B000AF0346FB71FB79B8
S315080012F0092B02D900F0BCF982E1FB79092B00F22F
S315080013007F8101A252F823F03113000879130008EF
S31508001310C11300080914000851140008991400089C
S31508001320E11400082915000871150008B915000808
S315080013301021B54804F088FB4FF48051B24804F0F8
S3150800134093FB0421B14804F08FFB0821AF4804F051
S315080013508BFB4FF48041AD4804F086FB4FF4004107
S31508001360AA4804F081FB0121A94804F07DFB02216B
S31508001370A74804F079FB43E11021A34804F064FB75
S315080013804FF48051A04804F06FFB04219F4804F0F5
S315080013905BFB08219D4804F067FB4FF480419B489E
S315080013A004F052FB4FF40041984804F04DFB01212C
S315080013B0974804F049FB0221954804F055FB1FE1C4
S315080013C01021914804F050FB4FF480518E4804F0E8
S315080013D03BFB04218D4804F047FB08218B4804F0A9
S315080013E043FB4FF48041894804F03EFB4FF400412B
S315080013F0864804F029FB0121854804F035FB0221C3
S31508001400834804F031FBFBE010217F4804F02CFBF5
S315080014104FF480517C4804F027FB04217B4804F0F4
S3150800142023FB0821794804F01FFB4FF480417748D5
S3150800143004F00AFB4FF40041744804F005FB01214F
S31508001440734804F011FB0221714804F00DFBD7E044
S3150800145010216D4804F008FB4FF480516A4804F0E7
S3150800146003FB0421694804F0EFFA0821674804F0F1
S31508001470FBFA4FF48041654804F0E6FA4FF4004160
S31508001480624804F0F1FA0121614804F0DDFA02210C
S315080014905F4804F0E9FAB3E010215B4804F0E4FA87
S315080014A04FF48051584804F0DFFA0421574804F0F5
S315080014B0DBFA0821554804F0D7FA4FF4804153481F
S315080014C004F0C2FA4FF40041504804F0CDFA012165
S315080014D04F4804F0C9FA02214D4804F0B5FA8FE0E6
S315080014E01021494804F0C0FA4FF48051464804F0E8
S315080014F0BBFA0421454804F0B7FA0821434804F02A
S31508001500B3FA4FF48041414804F0AEFA4FF4004173
S315080015103E4804F0A9FA01213D4804F0A5FA022143
S315080015203B4804F091FA6BE01021374804F08CFA36
S315080015304FF48051344804F097FA0421334804F0F4
S3150800154083FA0821314804F08FFA4FF480412F4876
S3150800155004F07AFA4FF400412C4804F085FA012188
S315080015602B4804F081FA0221294804F07DFA47E065
S315080015701021254804F078FA4FF48051224804F0E7
S3150800158073FA0421214804F06FFA08211F4804F071
S315080015906BFA4FF480411D4804F066FA4FF4004197
S315080015A01A4804F061FA0121194804F05DFA02218B
S315080015B0174804F059FA23E01021134804F054FAA6
S315080015C04FF48051104804F04FFA04210F4804F0F4
S315080015D04BFA08210D4804F047FA4FF480410B48AE
S315080015E004F032FA4FF40041084804F03DFA0121AC
S315080015F0074804F039FA0221054804F035FA00BF15
S315080016000837BD4680BD00BF0004024000080240FE
S31508001610001C024080B500AF1021124804F014FAED
S315080016204FF480510F4804F00FFA04210E4804F0D5
S315080016300BFA08210C4804F007FA4FF480410A48CF
S3150800164004F002FA4FF40041074804F0FDF90121BD
S31508001650064804F0F9F90221044804F0F5F900BF38
S3150800166080BD00BF0004024000080240001C024082
S3150800167080B500AF1021124804F0F6F94FF48051F6
S315080016800F4804F0E1F904210E4804F0EDF90821A9
S315080016900C4804F0E9F94FF480410A4804F0E4F9EB
S315080016A04FF40041074804F0DFF90121064804F029
S315080016B0DBF90221044804F0C7F900BF80BD00BF6A
S315080016C00004024000080240001C024080B584B0B5
S315080016D000AF0346FB710B46BB8013467B80002395
S315080016E0FB607A88FB689A4211DDFB791846FFF79A
S315080016F0F9FDBB88184603F0A5FEFFF78BFFBB88EC
S31508001700184603F09FFEFB680133FB60E9E700BF5C
S315080017101037BD4680BD00BF80B584B000AF034614
S315080017200A46FB711346BB80FB79FB60FB68002BFE
S315080017300CDDFB68DBB21846FFF7D4FDBB881846FC
S3150800174003F080FEFB68013BFB60EFE70020FFF734
S31508001750C9FD00BF1037BD4680BD00BF00000000B0
S3150800176090B587B000AF034687ED020AFB730023E6
S31508001770FB82D7ED027AF5EEC07AF1EE10FA0AD5B9
S31508001780D7ED027AF1EE677AFDEEE77AC7ED017AD0
S31508001790BB889BB207E0D7ED027AFDEEE77AC7ED84
S315080017A0017ABB889BB2FB82D7ED027A9FED507A0D
S315080017B0F4EEC77AF1EE10FA01DD6423FB824D4B95
S315080017C060221A804B4B00229A814A4B01225A808A
S315080017D0494B1B881A46B7F9163003FB02F318461D
S315080017E0FEF792FE40A3D3E90023FEF7F3FE034675
S315080017F00C4618462146FFF787F902463D4B9A6084
S31508001800FB7B012B34D1D7ED027AF5EE407AF1EE67
S3150800181010FA0BD1374B00229A603649374804F044
S31508001820FFFB3449354804F075FC1DE0D7ED027A14
S31508001830F5EEC07AF1EE10FA0BDD2E492F4804F0CA
S3150800184069FC2C4B00229A602A492C4804F0E8FBD4
S315080018500AE02849294804F0E3FB264B00229A604F
S315080018602449264804F056FCFB8ADAB2244B1A703F
S31508001870FB7B002B34D1D7ED027AF5EE407AF1EEF8
S3150800188010FA0BD11B4B00229A601A491D4804F026
S31508001890C7FB18491B4804F03DFC1DE0D7ED027A4A
S315080018A0F5EEC07AF1EE10FA0BDD1249154804F090
S315080018B0B7FB104B00229A600E49124804F02AFC26
S315080018C00AE00C490F4804F025FC0A4B00229A60EE
S315080018D008490C4804F0A4FBFB8ADAB20A4B1A70D2
S315080018E000BF1C37BD4690BD7B14AE47E17A843FE6
S315080018F00000C8422C09002000A300080008004088
S31508001900B0080020000C0040B108002080B500AFE8
S3150800191004210D4804F0A8F800210C4804F060FBE7
S3150800192000210B4804F05CFB9FED0A0A0020FFF734
S3150800193017FF9FED080A0120FFF712FF064B00224A
S315080019401A7000BF80BD00BF0000024000080040BA
S31508001950000C004000000000B208002080B500AF6F
S315080019600421084804F070F80121074804F038FB00
S315080019700121064804F034FB054B01221A7000BF0A
S3150800198080BD00BF0000024000080040000C004077
S31508001990B208002080B400AF034B1B781846BD463A
S315080019A05DF8047B704700BFB208002080B584B09C
S315080019B000AF0346FB8000237B81FB8843F080034E
S315080019C03B81404B1B681021184604F04DF83E4BEE
S315080019D01B680221184604F04DFA0346002B0CBF7B
S315080019E001230023DBB2002B00D0F0E7364B1B683F
S315080019F03A891146184604F02DFA334B1B68012123
S31508001A00184604F037FA0346002B0CBF01230023BF
S31508001A10DBB2002B00D0F0E72B4B1B68184604F00E
S31508001A200BFA03467B81284B1B680221184604F0F3
S31508001A3021FA0346002B0CBF01230023DBB2002B3F
S31508001A4000D0F0E7204B1B680021184604F002FA84
S31508001A501D4B1B680121184604F00CFA0346002B9F
S31508001A600CBF01230023DBB2002B00D0F0E7164B96
S31508001A701B68184604F0E0F903467B81124B1B6885
S31508001A800221184604F0F6F90346002B0CBF012381
S31508001A900023DBB2002B00D0F0E70A4B1B681021AD
S31508001AA0184603F0D1FF0023FB60FB68042B03DC18
S31508001AB0FB680133FB60F8E77B8918461037BD469B
S31508001AC080BD00BF040000200000002080B584B05F
S31508001AD000AF03460A46FB801346BB803D4B1B6896
S31508001AE01021184603F0C0FF3B4B1B68022118461D
S31508001AF004F0C0F90346002B0CBF01230023DBB218
S31508001B00002B00D0F0E7344B1B68FA8811461846BC
S31508001B1004F0A0F9304B1B680121184604F0AAF915
S31508001B200346002B0CBF01230023DBB2002B00D099
S31508001B30F0E7294B1B68184604F07EF9264B1B680C
S31508001B400221184604F096F90346002B0CBF012320
S31508001B500023DBB2002B00D0F0E71F4B1B68BA88C6
S31508001B601146184604F076F91B4B1B6801211846E6
S31508001B7004F080F90346002B0CBF01230023DBB2D7
S31508001B80002B00D0F0E7144B1B68184604F054F9F4
S31508001B90114B1B680221184604F06CF90346002B0A
S31508001BA00CBF01230023DBB2002B00D0F0E7094B62
S31508001BB01B681021184603F047FF0023FB60FB68EB
S31508001BC0092B03DCFB680133FB60F8E700BF10371D
S31508001BD0BD4680BD040000200000002090B585B0F9
S31508001BE000AF03460A46FB711346BB7100237B818F
S31508001BF00023FB810023BB81FB79002B02D0032B3A
S31508001C0018D02FE0BB79012B09D0022B0CD0002B62
S31508001C1000D029E04323FB814423BB8109E0452307
S31508001C20FB814623BB8104E04723FB814823BB8114
S31508001C3000BF19E0BB79012B09D0022B0CD0002B71
S31508001C4000D011E03B23FB813C23BB8109E03D2307
S31508001C50FB813E23BB8104E03F23FB814023BB81FC
S31508001C6000BF01E07B890FE0FB891846FFF79EFE5F
S31508001C7003461B029CB2BB891846FFF797FE03462C
S31508001C8023449BB27B817B891BB218461437BD4619
S31508001C9090BD00BF80B500AF00216B20FFF716FF8F
S31508001CA0EE216C20FFF712FF10216A20FFF70EFFC6
S31508001CB006216820FFF70AFF00211A20FFF706FF12
S31508001CC018211B20FFF702FF18211C20FFF7FEFE34
S31508001CD000BF80BD80B500AF02210020FFF77EFF60
S31508001CE003469BB25B429BB29AB2024B1A8000BF74
S31508001CF080BD00BFB408002080B400AF034B1B882A
S31508001D001BB21846BD465DF8047B7047B408002030
S31508001D1080B582B000AF00237B6000233B60F0EE05
S31508001D20006A9FED137AC6EE877AFDEEE77A17EE1C
S31508001D30902A3B689A420DDDFFF7DEFF03461A46F6
S31508001D407B6813447B60012003F07CFB3B6801330E
S31508001D503B60E4E73B6801337A6892FBF3F307EEEE
S31508001D60903AF8EEE77AB0EE670A0837BD4680BDC6
S31508001D706F12833A80B500AFFFF7CAFFF0EE407ADC
S31508001D80024BC3ED007A00BF80BD00BFC00800202B
S31508001D9080B400AF064B4FF000021A60054B4FF0B7
S31508001DA000021A6000BFBD465DF8047B704700BF9D
S31508001DB0B8080020BC08002080B400AF094BD3ED5A
S31508001DC0007A9FED097A27EE877A084BD3ED007AD9
S31508001DD077EE277A054BC3ED007A00BFBD465DF85E
S31508001DE0047B7047C40800206F12833ABC080020A1
S31508001DF080B400AF044B1B6807EE903AB0EE670A52
S31508001E00BD465DF8047B7047BC0800200000000052
S31508001E1098B500AF164B1B881BB207EE903AB8EE82
S31508001E20E77A144BD3ED007A77EE677A17EE900AC5
S31508001E30FEF77CFB0CA3D3E90023FEF7F5FC03466B
S31508001E400C4618462146FEF77FFE034600EE103A7A
S31508001E5003F0A6FAF0EE407A074BC3ED007A00BF0E
S31508001E6098BD00BFAFF3008066666666666630405A
S31508001E70B4080020C0080020C408002080B400AFC1
S31508001E80044B1B6807EE903AB0EE670ABD465DF84C
S31508001E90047B7047C408002090B585B000AF4FF0AA
S31508001EA00003FB604FF00003BB600023FB71FB7966
S31508001EB00133312B33D8FB790133FA796C49920017
S31508001EC00A4412686A499B000B441A60FB7901337D
S31508001ED0674A9B001344D3ED007A97ED037A77EEB1
S31508001EE0277AC7ED037AFB790133FA7961499200BB
S31508001EF00A4412685F499B000B441A60FB79013358
S31508001F005C4A9B001344D3ED007A97ED027A77EE8C
S31508001F10277AC7ED027AFB790133FB71C7E7564B7F
S31508001F205B6A07EE903AF8EE677A9FED547A77EE99
S31508001F30677A17EE900AFEF7F9FA47A3D3E9002362
S31508001F40FEF748FB03460C461846214644A3D3E948
S31508001F500023FEF769FC03460C461846214642A3B1
S31508001F60D3E90023FEF736FB03460C4618462146FE
S31508001F70FEF7EAFD02463E4B1A604FF080435B6A65
S31508001F8007EE903AF8EE677A9FED3C7A77EEC77AD5
S31508001F9017EE900AFEF7CAFA2FA3D3E90023FEF735
S31508001FA019FB03460C46184621462DA3D3E9002300
S31508001FB0FEF73AFC03460C46184621462AA3D3E9FF
S31508001FC00023FEF707FB03460C4618462146FEF794
S31508001FD0BBFD0246274B1A604FF0804347F6FA725C
S31508001FE05A62254B47F6FA725A62214BD3ED007AAC
S31508001FF097ED037A77EE277AC7ED037A1C4BD3ED74
S31508002000007A97ED027A77EE277AC7ED027A97ED8E
S31508002010037ADFED1B6AC7EE267A1A4BC3ED007A00
S3150800202097ED027ADFED166AC7EE267A164BC3EDF0
S31508002030007A144B93ED007A134BD3ED007A37EE02
S31508002040277AF0EE006AC7EE267A104BC3ED007ABF
S3150800205000BF1437BD4690BD5D8940F50F22593F34
S31508002060FCA9F1D24D62503F79E9263108AC7C3F94
S3150800207040090020080A00200004004000F4FF463A
S3150800208000004842D0080020CC080020D4080020D0
S3150800209080B400AF044B1B6807EE903AB0EE670AAF
S315080020A0BD465DF8047B7047D408002080B584B02F
S315080020B000AF03460A46FB711346BB71FB79042B36
S315080020C023D801A252F823F0DD200008DD200008FD
S315080020D0E7200008F3200008FF200008144BFB60E7
S315080020E004237B8111E0134BFB604FF400637B8173
S315080020F00BE0104BFB604FF480637B8105E00D4BD2
S31508002100FB604FF480537B8100BFBB79002B05D061
S315080021107B891946F86803F097FC04E07B89194621
S31508002120F86803F0A1FC00BF1037BD4680BD00BFAC
S31508002130000C02400008024080B584B000AF034698
S31508002140FB71FB79042B26D801A252F823F000BFB5
S31508002150652100086F2100087921000883210008FD
S315080021608D2100081E4BBB600F23FB7313E01C4B2D
S31508002170BB600B23FB730EE0194BBB600823FB7394
S3150800218009E0174BBB600A23FB7304E0144BBB60E2
S315080021900E23FB7300BF0221B86803F083FBF97BAB
S315080021A000230122B86803F05FFAB86803F026FB3B
S315080021B00221B86803F05CFB0346002B0CBF012321
S315080021C00023DBB2002B00D0F2E7B86803F026FB49
S315080021D003461B119BB218461037BD4680BD00BF8B
S315080021E00020014080B582B000AF0346FB71FB7941
S315080021F001211846FFF75AFF00BF0837BD4680BDC4
S3150800220080B582B000AF0346FB71FB790021184602
S31508002210FFF74CFF00BF0837BD4680BD80B500AF4D
S315080022200020FFF7EDFF0120FFF7EAFF0220FFF786
S31508002230E7FF0320FFF7E4FF00BF80BDB0B485B019
S3150800224000AF03460A46FB711346BB800023FB8199
S3150800225000237B737B7B0133042B26DCFA797B7B9B
S31508002260581CF9797C7B434D0B469B000B44234451
S3150800227035F813403F4913469B001344034422464E
S3150800228021F81320FA797B7B591C3A4813469B00A0
S3150800229013440B4430F813309AB2FB8913449BB2AB
S315080022A0FB817B7B01337B73D4E7FA79314913468B
S315080022B09B0013445B000B44BA881A80FA89BB88D2
S315080022C013449BB2FB81FB79042B4ED801A252F82A
S315080022D023F000BFE9220008032300081D23000895
S315080022E03723000851230008B7F90E30224A82FB2B
S315080022F003125210DB17D31A9BB21BB21F4A136084
S3150800230033E0B7F90E301C4A82FB03125210DB1772
S31508002310D31A9BB21BB21A4A136026E0B7F90E30DD
S31508002320154A82FB03125210DB17D31A9BB21BB253
S31508002330144A136019E0B7F90E300F4A82FB0312EC
S315080023405210DB17D31A9BB21BB20F4A13600CE06C
S31508002350B7F90E30084A82FB03125210DB17D31A5C
S315080023609BB21BB2094A136000BF00BF1437BD46B3
S31508002370B0BC7047D00A002067666666D808002099
S31508002380DC080020E0080020E4080020E808002017
S3150800239090B589B000AF0346FB71FFF73FFF0020F9
S315080023A0FFF7CAFE03469BB21BB21946002000F08F
S315080023B01BF9FB79002B0CD00020FFF713FF002335
S315080023C0FB61FB69B3F57A7F03DAFB690133FB61CD
S315080023D0F7E70020FFF7B0FE03461C46002000F092
S315080023E0C7F803469BB2E31A9BB29BB21BB21946C7
S315080023F00020FFF723FF0020FFF702FF002101203E
S3150800240000F0F2F8FB79002B0CD00120FFF7EAFE6A
S315080024100023BB61BB69B3F57A7F03DABB69013375
S31508002420BB61F7E70120FFF787FE03461C4601203C
S3150800243000F09EF803469BB2E31A9BB29BB21BB20E
S3150800244019460120FFF7FAFE0120FFF7D9FE022000
S31508002450FFF772FE03469BB21BB21946022000F034
S31508002460C3F8FB79002B0CD00220FFF7BBFE002334
S315080024707B617B69B3F5FA6F03DA7B6901337B61AC
S31508002480F7E70220FFF758FE03461C46022000F035
S315080024906FF803469BB2E31A9BB29BB21BB219466E
S315080024A00220FFF7CBFE0220FFF7AAFE0320FFF764
S315080024B043FE03469BB21BB21946032000F094F86C
S315080024C0FB79002B0CD00320FFF78CFE00233B6121
S315080024D03B69B3F57A7F03DA3B6901333B61F7E77A
S315080024E00320FFF729FE03461C46032000F040F8A8
S315080024F003469BB2E31A9BB29BB21BB21946032052
S31508002500FFF79CFE0320FFF77BFE0420FFF714FE6F
S3150800251003469BB21BB21946042000F065F8FB7906
S31508002520002B0CD00420FFF75DFE0023FB60FB6840
S31508002530B3F57A7F03DAFB680133FB60F7E704201B
S31508002540FFF7FAFD03461C46042000F011F803467F
S315080025509BB2E31A9BB29BB21BB219460420FFF743
S315080025606DFE0420FFF74CFE00BF2437BD4690BD24
S3150800257080B483B000AF0346FB71FB79042B21D8E6
S3150800258001A252F823F000BF9D250008A5250008E2
S31508002590AD250008B5250008BD2500080D4B1B68AC
S315080025A09BB210E00C4B1B689BB20CE00B4B1B68F4
S315080025B09BB208E00A4B1B689BB204E0094B1B68F8
S315080025C09BB200E000231BB218460C37BD465DF8E7
S315080025D0047B7047EC080020F0080020F40800206F
S315080025E0F8080020FC08002080B483B000AF03463A
S315080025F00A46FB711346BB80FB79042B25D801A23A
S3150800260052F823F019260008232600082D2600086C
S315080026103726000841260008B7F904300E4A136029
S3150800262013E0B7F904300D4A13600EE0B7F9043029
S315080026300B4A136009E0B7F904300A4A136004E04C
S31508002640B7F90430084A136000BF00BF0C37BD460F
S315080026505DF8047B704700BFEC080020F0080020F6
S31508002660F4080020F8080020FC08002080B483B095
S3150800267000AF0346FB71FB79042B21D801A252F85F
S3150800268023F000BF99260008A1260008A9260008FD
S31508002690B1260008B92600080D4B1B689BB210E04E
S315080026A00C4B1B689BB20CE00B4B1B689BB208E0FB
S315080026B00A4B1B689BB204E0094B1B689BB200E0FF
S315080026C000231BB218460C37BD465DF8047B7047DD
S315080026D0D8080020DC080020E0080020E4080020D4
S315080026E0E808002090B583B000AF0346FB71FB797C
S315080026F0012B2BD0022B15D0002B3BD10020FFF746
S31508002700B5FF03461C46002001F040FE03469C42E6
S31508002710ACBF01230023DBB2002B01D001232AE042
S31508002720002328E00320FFF7A1FF03461C460320E9
S3150800273001F02CFE03469C42ACBF01230023DBB20A
S31508002740002B01D0012316E0002314E00420FFF734
S315080027508DFF03461C46042001F018FE03469C42E2
S31508002760ACBF01230023DBB2002B01D0012302E01A
S31508002770002300E0002318460C37BD4690BD00BF75
S3150800278090B583B000AF0346FB71FB79012B0ED1E0
S315080027900320FFF76BFF03461C46032001F0F6FDF6
S315080027A003469C42ACBF01230023DBB20FE0FB7952
S315080027B01846FFF75BFF03461C46FB79184601F0EF
S315080027C0E5FD03469C42ACBF01230023DBB2184655
S315080027D00C37BD4690BD00BF80B483B000AF03463A
S315080027E0FB71FB79012B1DD0022B35D0002B4DD167
S315080027F02B4BD3ED007A9FED2B7A27EE877A284B61
S31508002800D3ED017ADFED286A67EEA67A37EE277AE6
S31508002810234BD3ED027ADFED256A67EEA67A77EECB
S31508002820277A35E0224BD3ED007A9FED227A27EE00
S31508002830877A1F4BD3ED017ADFED1F6A67EEA67A1A
S3150800284037EE277A1A4BD3ED027ADFED186A67EE70
S31508002850A67A77EE277A1BE0184BD3ED007A9FED20
S31508002860187A27EE877A154BD3ED017ADFED0F6AD2
S3150800287067EEA67A37EE277A104BD3ED027ADFEDAC
S315080028800B6A67EEA67A77EE277A01E0DFED077A1C
S31508002890B0EE670A0C37BD465DF8047B704700BF8B
S315080028A004090020000020420000D8420000000071
S315080028B01C0900200000964300007A4410090020F5
S315080028C0BD37863500000000B0B52DED028B84B00B
S315080028D000AFA34B1B687B6001F036FEB0EE408A62
S315080028E0FFF7D6FBF0EE407A78EE677A9C4BC3ED9D
S315080028F0007A9B4B5B681846FDF718FE04460D46A2
S31508002900974B1B681846FDF711FE93A3D3E90023DE
S31508002910FDF760FE02460B4620462946FDF7A8FC51
S3150800292003460C4618462146FEF70EF902468C4B1E
S315080029305A608C4B1B687B6001F006FEB0EE407A4D
S31508002940F4EE007AB4EEE77AF1EE10FA94BF0123BA
S315080029500023DBB2002B06D04FF00003BB604FF01C
S315080029600003FB607FE00020FFF7BCFE0346002B58
S315080029704FD00020FFF77AFE03461C46002001F0E0
S31508002980D9FC0346E41A002001F0D4FC0346B4FB44
S31508002990F3F307EE903AF8EE677AC7ED037AD7EDC8
S315080029A0037AF5EEC07AF1EE10FA02D54FF000037D
S315080029B0FB600220FFF796FE0346002B1FD003207C
S315080029C001F0B8FC04460320FFF750FE0346E41A5C
S315080029D0032001F0AFFC0346B4FBF3F307EE903A8D
S315080029E0F8EE677AC7ED027AD7ED027AF5EEC07A85
S315080029F0F1EE10FA37DD4FF00003BB6033E04FF01D
S31508002A000003BB60D7ED037A77EEA77AC7ED037AA2
S31508002A1029E04FF00003FB600220FFF763FE034640
S31508002A20002B1AD0032001F085FC04460320FFF78B
S31508002A301DFE0346E31A5B0007EE903AF8EE677A46
S31508002A40C7ED027AD7ED027AF5EEC07AF1EE10FA02
S31508002A5009DD4FF00003BB6005E04FF00003BB60E3
S31508002A604FF00003FB6097ED037AD7ED027A77EE15
S31508002A70677AF1EE677A3B4BC3ED007A394B5B68B0
S31508002A801846FDF753FD04460D46364B1B68184697
S31508002A90FDF74CFD30A3D3E90023FDF79BFD024665
S31508002AA00B4620462946FDF7E3FB03460C46184627
S31508002AB02146FEF749F802462A4B5A602A4B1B68FC
S31508002AC07B6001F05FFDB0EE408AFFF7D7F9F0EEC4
S31508002AD0407A78EE677A244BC3ED007A224B5B681E
S31508002AE01846FDF723FD04460D461F4B1B6818467E
S31508002AF0FDF71CFD18A3D3E90023FDF76BFD02467D
S31508002B000B4620462946FDF7B3FB03460C461846F6
S31508002B102146FEF719F80246134B5A60114BD3EDBE
S31508002B20007AF5EE407AF1EE10FA06D000F0B2F926
S31508002B300346002B01D0012300E00023002B03D01D
S31508002B40094B4FF000025A6000BF1037BD46BDEC76
S31508002B50028BB0BDAFF30080FCA9F1D24D62503FA5
S31508002B601C090020100900200409002080B500AFC8
S31508002B700120FFF731FEF0EE407AB0EE670A80BD1D
S31508002B8080B52DED028B00AF0D4B1B78002B0CD0BA
S31508002B900020FFF721FEB0EE408A0220FFF71CFE58
S31508002BA0F0EE407A78EE677A04E00020FFF714FE2C
S31508002BB0F0EE407AB0EE670ABD46BDEC028B80BDEA
S31508002BC02909002080B400AF034B01221A7000BF08
S31508002BD0BD465DF8047B70472909002080B400AF24
S31508002BE0034B00221A7000BFBD465DF8047B704790
S31508002BF02909002080B400AF034B01221A7000BFD8
S31508002C00BD465DF8047B70472809002080B400AFF4
S31508002C10034B00221A7000BFBD465DF8047B70475F
S31508002C202809002080B52DED028B82B000AF03463F
S31508002C30FB7197F90730002B0AD1FFF797FFB0EE23
S31508002C40408AFFF79DFFF0EE407A78EE677A09E052
S31508002C50FFF78CFFB0EE408AFFF792FFF0EE407A5E
S31508002C6078EE277AB0EE670A0837BD46BDEC028BC8
S31508002C7080BD00BF00000000B0B52DED028B84B00A
S31508002C8000AF0346FB7197F90730002B18D101F006
S31508002C905BFCB0EE408A01F075FCB0EE407ADFEDE1
S31508002CA0487A67EE277AF0EE006A87EEA67ADFEDB5
S31508002CB0456AC7EE267A78EE677AC7ED037A17E093
S31508002CC001F042FCB0EE408A01F05CFCB0EE407ABE
S31508002CD0DFED3B7A67EE277AF0EE006A87EEA67A92
S31508002CE0DFED386AC7EE267A78EE277AC7ED037ADB
S31508002CF0F868FDF71BFC2EA3D3E90023FDF794FD26
S31508002D0003460C46184621464FF000022E4BFDF7A7
S31508002D1061FC03460C46184621464FF000022B4B31
S31508002D20FDF782FD03460C46184621464FF0000281
S31508002D30274BFDF74FFC03460C46184621464FF035
S31508002D400002244BFDF770FD03460C461846214643
S31508002D5019A3D3E90023FDF767FD03460C4625466C
S31508002D601C46FEF795FA10EE103A1846FDF7DEFBFC
S31508002D7002460B4620462946FDF756FD03460C46F5
S31508002D80184621464FF00002134BFDF723FC034675
S31508002D900C4618462146FDF7D7FE034607EE903A3D
S31508002DA0B0EE670A1037BD46BDEC028BB0BD00BF5A
S31508002DB0DFB035A7070F073F3333333333D36B40C1
S31508002DC00000304200007A4400804440000022405F
S31508002DD000001640000012400000594080B582B03D
S31508002DE000AF00F04BF80346002B3FD0214B1B7871
S31508002DF0002B03D1204B1B78002B37D04FF0000354
S31508002E007B604FF000033B601A4B1B78002B09D000
S31508002E100020FFF731FF87ED010A0220FFF72CFF9C
S31508002E2087ED000A144B1B78002B15D00020FFF7FE
S31508002E30F9FEB0EE407AD7ED017A77EE877AC7EDDC
S31508002E40017A0220FFF7EEFEB0EE407AD7ED007A5F
S31508002E5077EE877AC7ED007A97ED010A0120FEF72B
S31508002E607FFC97ED000A0020FEF77AFC00BF0837C2
S31508002E70BD4680BD2A0900200800002080B400AFA6
S31508002E80034B1B781846BD465DF8047B704700BFA8
S31508002E902809002080B400AF034B1B781846BD46AE
S31508002EA05DF8047B704700BF2909002080B400AF95
S31508002EB0144B4FF000021A60124B4FF000025A6092
S31508002EC0104B4FF000029A600F4B4FF000021A6049
S31508002ED00D4B4FF000025A600B4B4FF000029A6000
S31508002EE00A4B4FF000021A60084B4FF000025A6076
S31508002EF0064B4FF000029A6000BFBD465DF8047BA2
S31508002F00704700BF04090020100900201C09002092
S31508002F1080B483B000AF03463960FB7197F9073078
S31508002F20002B0BDA0D49FB7903F00F03043B3A68D3
S31508002F30D2B21201D2B20B441A7609E0084997F9BF
S31508002F4007303A68D2B21201D2B20B4483F8002392
S31508002F5000BF0C37BD465DF8047B704700ED00E006
S31508002F6000E100E080B582B000AF78607B68013B85
S31508002F70B3F1807F01D301230FE00A4A7B68013B46
S31508002F8053600F214FF0FF30FFF7C2FF054B0022B9
S31508002F909A60044B07221A60002318460837BD4674
S31508002FA080BD00BF10E000E080B500AF00F00EF86D
S31508002FB000F024F800F0F8F800F05EF900F0A2F945
S31508002FC000F008FA00F0D4FA00BF80BD80B584B0DE
S31508002FD000AF02F02FF93B46184602F09FFD7B68CA
S31508002FE0054AA2FB03239B091846FFF7BBFF00BF50
S31508002FF01037BD4680BD00BFD34D621080B582B084
S3150800300000AF634A624B1B6823F0847323F4803352
S3150800301013600121012002F02BFE0121022002F09B
S3150800302027FE0121042002F023FE0121082002F0D8
S315080030301FFE0121802002F01BFE3B46184602F0C7
S31508003040CFFC49F210033B6002237B7101233B71DD
S315080030500023BB710023FB713B4619464D4802F01D
S3150800306031FC4FF480433B603B4619464A4802F020
S3150800307029FC4FF480433B6000233B710123FB711D
S315080030803B461946434802F01DFC3B46184602F0EB
S31508003090A7FC4DF60C433B6002237B7101233B7171
S315080030A00023BB710023FB713B4619463B4802F0DF
S315080030B009FC0421394802F0C7FC0821374802F008
S315080030C0C3FC4FF48061354802F0BEFC4FF4006142
S315080030D0324802F0B9FC4FF48051304802F0B4FC93
S315080030E04FF480412D4802F0AFFC4FF400412B48C5
S315080030F002F0AAFC3B46184602F072FC03233B602A
S3150800310002237B7101233B710023BB710023FB71F2
S315080031103B461946224802F0D5FB0121204802F019
S3150800312093FC02211E4802F08FFC3B46184602F02B
S3150800313057FC4FF4E0533B6002237B7101233B713C
S315080031400023BB710023FB713B461946134802F066
S31508003150B9FB04233B603B461946124802F0B2FB12
S315080031604FF480610D4802F07FFC4FF400610B4874
S3150800317002F07AFC4FF48051084802F075FC0421ED
S31508003180084802F071FC00BF0837BD4680BD00BF85
S3150800319000380240000402400000024000080240D5
S315080031A0001C0240000C024080B58CB000AF012123
S315080031B0022002F05DFD0121042002F059FD07F10D
S315080031C02803184602F00CFC032387F82C3000234A
S315080031D087F82F30022387F82D300323BB6207F1C7
S315080031E028031946214802F06DFB3323BB6207F119
S315080031F0280319461E4802F065FB00211D4802F007
S3150800320017FA01214FF4807002F072FD02F084F97A
S3150800321000233B604FF480337B600023BB604FF490
S315080032207063FB603B46184602F0DAF900233B61FF
S3150800323000233B7500237B750023BB6100233B629B
S31508003240092387F8243007F110031946094802F0C4
S3150800325071F90121074802F0EBF90021054802F04F
S31508003260EBFA00BF3037BD4680BD00BF0004024000
S31508003270000802400020014080B586B000AF012159
S31508003280102002F035FD0121012002F0F1FC072291
S3150800329009211A4802F0F8FB07220A21174802F00A
S315080032A0F3FB4FF4C0633B6102237B7502233B7536
S315080032B007F110031946114802F004FB4FF4E133F5
S315080032C03B600023BB800023FB8000233B81002357
S315080032D0BB810C237B813B461946094803F04EF80F
S315080032E0012240F22551064803F036F90121044827
S315080032F003F000F900BF1837BD4680BD0000024044
S315080033000010014080B588B000AF01214FF480500D
S3150800331002F0EEFC0121012002F0AAFC07F11803D5
S31508003320184602F05DFB1023BB6101233B7703239C
S315080033307B770023BB770023FB7707F11803194631
S31508003340224802F0BFFA02233B77E023BB6107F16C
S31508003350180319461D4802F0B5FA10211B4802F059
S3150800336073FB05220521194802F08EFB052206216A
S31508003370164802F089FB05220721144802F084FB4F
S315080033800023BB804FF48273FB8000233B8100231C
S315080033907B810023BB814FF44073FB8110233B8262
S315080033A000237B820723BB823B1D1946084802F08F
S315080033B0DFFC0121064802F01FFD1021034802F038
S315080033C043FB00BF2037BD4680BD00BF000002405A
S315080033D00030014080B58AB000AF0121012002F01B
S315080033E047FC0121022002F043FC04233B6203232D
S315080033F087F82530012387F82430002387F82630FC
S31508003400012387F8273007F120031946534802F0AD
S3150800341059FA0421514802F027FB0121042002F041
S3150800342047FC0121082002F043FC03233B620223E8
S3150800343087F82430022387F82530002387F82630BA
S31508003440002387F8273007F120031946434802F07E
S3150800345039FAC0233B6207F120031946404802F0B7
S3150800346031FA40F2EB43BB610023BB820023BB83E6
S315080034700023FB820023BB7707F11403194639485A
S3150800348002F014FD07F114031946374802F00EFD41
S3150800349060233B800023BB8101237B800023BB6024
S315080034A03B4619462F4802F0BBFD08212D4802F07D
S315080034B0B9FE3B4619462B4802F02CFE082129483E
S315080034C002F0CCFE3B461946274802F0A9FD082122
S315080034D0254802F0A7FE3B461946234802F01AFE85
S315080034E00821214802F0BAFE01214FF0804002F07F
S315080034F057FD01214FF0804002F0CEFE01211B4806
S3150800350002F04EFD0121194802F0C6FE02220621EC
S31508003510134802F0B9FA02220721114802F0B4FA58
S31508003520022200210D4802F0AFFA022201210B48BF
S3150800353002F0AAFA01210B4802F032FD01210A48DD
S3150800354002F02EFD0121074802F04AFD0121064836
S3150800355002F046FD00BF2837BD4680BD0000024088
S315080035600004024000080040000C0040000400402F
S3150800357080B586B000AF0121022002F079FB012157
S31508003580042002F075FB0121012002F091FB0121C4
S31508003590022002F08DFB02220621394802F074FA55
S315080035A002220721364802F06FFA01220F21354818
S315080035B002F06AFA01220321334802F065FA07F19C
S315080035C01003184602F00CFAC0233B6102233B7530
S315080035D002237B750023BB750023FB7507F11003D7
S315080035E01946274802F06EF94FF400433B6107F18C
S315080035F010031946234802F065F908233B6107F1D1
S3150800360010031946204802F05DF94FF6FE73BB60B9
S315080036100023BB800023BB810023FB800023BB73F0
S315080036203B1D19464FF0804002F040FC3B1D1946F1
S31508003630164802F03BFC4FF6FF714FF0804002F04F
S31508003640A1FC0023002203214FF0804002F04AFE2D
S3150800365001214FF0804002F0C3FC4FF6FF710B4882
S3150800366002F090FC002300220321084802F03AFEEB
S315080036700121064802F0B4FC00BF1837BD4680BDDC
S315080036800008024000000240000402400004004016
S31508003690F0B587B002AF0023FB81B7F90E30632B74
S315080036A01CDC0023FB80FB889BB21BB242F20F7224
S315080036B09342D4BF01230023DBB2002B08D0FB883A
S315080036C09BB29BB29BB201339BB29BB2FB80EAE7EB
S315080036D0FB899BB201339BB2FB81DEE7FFF764FCF3
S315080036E000F0CCFEFDF7D4FD10EE103A1846FCF7B4
S315080036F01DFF03460C461A462346A44801F01AFD48
S31508003700FDF788FFFDF7C4FDB0EE407AF1EE007ACA
S31508003710B4EEE77AF1EE10FA4CBF01230023DBB2D0
S31508003720002B1AD0FDF7A4FF4FF4FA7001F08AFEB9
S31508003730FDF770FF4FF4FA7001F084FE4FF48041F4
S31508003740934802F067F90346002B0CBF01230023B8
S31508003750DBB2002B00D1E5E700BF0020FEF786FFAD
S31508003760034619468B4801F0E5FC0120FEF77EFF6B
S3150800377003461946884801F0DDFC0220FEF776FF6D
S3150800378003461946854801F0D5FC0320FEF76EFF6F
S3150800379003461946824801F0CDFC0420FEF766FF71
S315080037A0034619467F4801F0C5FC7F4801F0C2FC74
S315080037B0642001F047FE0420FEF758FF034618462A
S315080037C0FCF7A2FE04460D46042000F0DFFD034682
S315080037D01846FCF799FE4FF00002744BFCF7FAFE08
S315080037E002460B4611461A4601231E4613460A464A
S315080037F020462946FDF77EF90346002B01D1002312
S315080038001E46F3B2002B00D1A7E700BFFEF742FA27
S315080038104FF47A710320FDF77FFF0420FEF726FF99
S3150800382003461846FCF770FE04460D46042000F0D1
S31508003830ADFD03461846FCF767FE4FF000025B4BEA
S31508003840FCF7C8FE02460B4611461A4601231E46D9
S3150800385013460A4620462946FDF72EF90346002B4D
S3150800386001D100231E46F3B2002B05D001226421A4
S315080038700820FDF72BFFD0E700F00CFC4C4800F0C1
S31508003880C9FC4B4800F088FCFEF768F8FFF7B2F968
S315080038909FED480A00F00CFE9FED460A00F044FE34
S315080038A09FED440A00F022FE9FED420A00F05AFE00
S315080038B0FFF7FCFA9FED3F0A00F098FE00F070FE55
S315080038C00820FDF70FFD0021002000F09FFE0120D3
S315080038D000F0F6FE0021012001F07AFB4FF4FA71A0
S315080038E00320FDF719FFFFF76DF9334B334A1A60CA
S315080038F00020DFED300A9FED320A00F0E7FF0520D1
S31508003900FDF7F0FC4FF47A7001F09CFDFDF7FEFF21
S31508003910FDF780FE4FF480411D4802F07BF8034610
S31508003920012B0CBF01230023DBB2002B00D0F1E7EB
S315080039300023BB60BB68B3F5FA6F21DA1E4ABB6881
S315080039409B0013441B681846FCF7F0FD05460E4617
S31508003950194ABB6803F51C5310339B0013441B68B4
S315080039601846FCF7E3FD03460C46CDE900342A4623
S315080039703346144801F0DEFBBB680133BB60D9E768
S31508003980012318461437BD46F0BD00BF08A300083A
S315080039900004024014A3000820A300082CA3000872
S315080039A038A3000844A3000850A300080000F83F05
S315080039B0B046012000000000080B0020000080BF70
S315080039C0EC51B83E54A3000898B500AF4FF48041B7
S315080039D0314802F039F8314B1B6801332F4A13601E
S315080039E000F058FD0120FEF7D3FCFEF773F9FEF749
S315080039F00FFAFEF7E1F9FEF74FFA00F015FFFEF7AA
S31508003A0063FFFFF7EBF9FDF7C5FF0346002B3BD035
S31508003A10234B1B88002B10D1224BD3ED007ABFEE27
S31508003A20007AF4EE477AF1EE10FA2DD11C4B1B887A
S31508003A3001339AB21A4B1A8026E0194B1B8842F2B8
S31508003A400F72934220D8164B1B881C46FEF720FBA4
S31508003A50F0EE407A134AA3001344C3ED007A104BE4
S31508003A601B881C4600F070FDF0EE407A0D4A04F5FE
S31508003A701C5310339B001344C3ED007A084B1B8874
S31508003A8001339AB2064B1A804FF48041024801F07E
S31508003A90EBFF00BF98BD00BF00000240040B0020EA
S31508003AA088430120080B002080B485B000AF7860F9
S31508003AB00B46FB701346BB70BB78002B02D0012364
S31508003AC0FB7301E00023FB73FB781F2B00F2848154
S31508003AD001A252F823F000BF593B00086D3B0008CD
S31508003AE0813B0008953B0008A93B0008BD3B000840
S31508003AF0D13B0008E53B0008F93B00080D3C0008EF
S31508003B00213C0008353C0008493C00085D3C00089B
S31508003B10713C0008853C0008993C0008AD3C00084B
S31508003B20C13C0008D53C0008E93C0008FD3C0008FB
S31508003B30113D0008253D0008393D00084D3D0008A7
S31508003B40613D0008753D0008893D00089D3D000857
S31508003B50B13D0008C53D0008FB7B03F00103D9B25F
S31508003B607A68137861F30003137035E1FB7B03F081
S31508003B700103D9B27A68137861F3410313702BE114
S31508003B80FB7B03F00103D9B27A68137861F38203E9
S31508003B90137021E1FB7B03F00103D9B27A6813782D
S31508003BA061F3C303137017E1FB7B03F00103D9B27A
S31508003BB07A68137861F3041313700DE1FB7B03F045
S31508003BC00103D9B27A68137861F34513137003E1D8
S31508003BD0FB7B03F00103D9B27A68137861F3861385
S31508003BE01370F9E0FB7B03F00103D9B27A68137806
S31508003BF061F3C7131370EFE0FB7B03F00103D9B23F
S31508003C007A68537861F300035370E5E0FB7B03F0B1
S31508003C100103D9B27A68537861F341035370DBE044
S31508003C20FB7B03F00103D9B27A68537861F3820308
S31508003C305370D1E0FB7B03F00103D9B27A6853785D
S31508003C4061F3C3035370C7E0FB7B03F00103D9B2EA
S31508003C507A68537861F304135370BDE0FB7B03F075
S31508003C600103D9B27A68537861F345135370B3E008
S31508003C70FB7B03F00103D9B27A68537861F38613A4
S31508003C805370A9E0FB7B03F00103D9B27A68537835
S31508003C9061F3C71353709FE0FB7B03F00103D9B2AE
S31508003CA07A68937861F30003937095E0FB7B03F0E1
S31508003CB00103D9B27A68937861F3410393708BE074
S31508003CC0FB7B03F00103D9B27A68937861F3820328
S31508003CD0937081E0FB7B03F00103D9B27A6893788D
S31508003CE061F3C303937077E0FB7B03F00103D9B25A
S31508003CF07A68937861F3041393706DE0FB7B03F0A5
S31508003D000103D9B27A68937861F34513937063E037
S31508003D10FB7B03F00103D9B27A68937861F38613C3
S31508003D20937059E0FB7B03F00103D9B27A68937864
S31508003D3061F3C71393704FE0FB7B03F00103D9B21D
S31508003D407A68D37861F30003D37045E0FB7B03F010
S31508003D500103D9B27A68D37861F34103D3703BE0A3
S31508003D60FB7B03F00103D9B27A68D37861F3820347
S31508003D70D37031E0FB7B03F00103D9B27A68D378BC
S31508003D8061F3C303D37027E0FB7B03F00103D9B2C9
S31508003D907A68D37861F30413D3701DE0FB7B03F0D4
S31508003DA00103D9B27A68D37861F34513D37013E067
S31508003DB0FB7B03F00103D9B27A68D37861F38613E3
S31508003DC0D37009E0FB7B03F00103D9B27A68D37894
S31508003DD061F3C713D37000BF00BF1437BD465DF843
S31508003DE0047B704780B584B000AF0346FB710B4671
S31508003DF0BB7113467B71FB79FB73BB79BB737B790C
S31508003E00002B02D07B79022B24D17B79002B08D09A
S31508003E107B79022B05D1FB79002B44D0FB79013B3A
S31508003E20FB73FB7B0F2B09D8BB7B9B00214A1344F2
S31508003E30F97B01221846FFF737FE37E000F026FD2A
S31508003E401D4801F077F91D4801F074F91C4801F086
S31508003E5071F92BE07B79012B02D07B79032B25D1D5
S31508003E607B79012B08D07B79032B05D1BB79002BF5
S31508003E701BD0BB79013BBB73BB7B0F2B09D8FB7BE4
S31508003E809B00104A1344B97B01221846FFF70CFE23
S31508003E900CE0094801F04EF90B4801F04BF90848C7
S31508003EA001F048F902E000BF00E000BF1037BD4648
S31508003EB080BD00BF0C44012060A3000870A3000861
S31508003EC0A0A300084C440120B8A3000880B584B01C
S31508003ED000AF0346FB710B46BB7113467B71FB793A
S31508003EE0FB73BB79BB737B79002B02D07B79022BE2
S31508003EF022D17B79002B08D07B79022B05D1FB795F
S31508003F00002B42D0FB79013BFB73FB7B0F2B09D8B7
S31508003F10BB7B9B00204A1344F97B01221846FFF716
S31508003F20C3FD35E01D4801F005F91D4801F002F909
S31508003F301C4801F0FFF82BE07B79012B02D07B7936
S31508003F40032B25D17B79012B08D07B79032B05D14F
S31508003F50BB79002B1BD0BB79013BBB73BB7B0F2BFB
S31508003F6009D8FB7B9B00104A1344B97B01221846EB
S31508003F70FFF79AFD0CE0094801F0DCF80B4801F060
S31508003F80D9F8084801F0D6F802E000BF00E000BF03
S31508003F901037BD4680BD00BF8C43012060A30008D2
S31508003FA0D4A4000800A50008CC43012014A50008E5
S31508003FB080B584B000AF0346FB710B46BB71134650
S31508003FC07B71FB79FB73BB79BB737B79002B02D0C2
S31508003FD07B79022B22D17B79002B08D07B79022BA7
S31508003FE005D1FB79002B42D0FB79013BFB73FB7BA8
S31508003FF00F2B09D8BB7B9B00204A1344F97B002270
S315080040001846FFF751FD35E01D4801F093F81D48A5
S3150800401001F090F81C4801F08DF82BE07B79012B14
S3150800402002D07B79032B25D17B79012B08D07B79AC
S31508004030032B05D1BB79002B1BD0BB79013BBB7386
S31508004040BB7B0F2B09D8FB7B9B00104A1344B97B1B
S3150800405000221846FFF728FD0CE0094801F06AF827
S315080040600B4801F067F8084801F064F802E000BF61
S3150800407000E000BF1037BD4680BD00BF8C4301205D
S3150800408060A30008D4A4000840A50008CC4301207A
S3150800409014A5000880B582B000AF00237B607B685A
S315080040A00F2B17DC384A7B68002142F82310374A61
S315080040B07B68002142F82310354A7B68002142F8C4
S315080040C02310344A7B68002142F823107B680133A9
S315080040D07B60E4E700233B603B680F2B3BDC3B68D7
S315080040E0DBB2022219460020FFF7F0FE3B68DBB27E
S315080040F0022219460020FFF775FE3B68DBB2002254
S3150800410019460F20FFF7E2FE3B68DBB2002219468C
S315080041100F20FFF767FE3B68DBB203220021184633
S31508004120FFF7D4FE3B68DBB2032200211846FFF7EF
S3150800413059FE3B68DBB201220F211846FFF7C6FE7F
S315080041403B68DBB201220F211846FFF74BFE3B689E
S3150800415001333B60C0E7002200210020FFF7B6FECE
S31508004160002200210020FFF73DFE01220021002049
S31508004170FFF71EFF012200210020FFF733FE00BFD4
S315080041800837BD4680BD00BF8C430120CC430120C3
S315080041900C4401204C44012080B485B000AF7860FF
S315080041A00023FB60FB680F2B26DC7B68FA6853F854
S315080041B022201449FB6841F823207B68FA681032EC
S315080041C053F822201049FB6841F823207B68FA68D7
S315080041D0203253F822200D49FB6841F823207B68DA
S315080041E0FA68303253F822200949FB6841F823203F
S315080041F0FB680133FB60D5E700BF1437BD465DF8A1
S31508004200047B70478C430120CC4301200C440120D9
S315080042104C44012080B485B000AF78600023FB6071
S31508004220FB680F2B26DC164AFB6852F823107B68BE
S31508004230FA6843F82210134AFB6852F823107B6881
S31508004240FA68103243F822100F4AFB6852F8231016
S315080042507B68FA68203243F822100C4AFB6852F849
S3150800426023107B68FA68303243F82210FB68013362
S31508004270FB60D5E700BF1437BD465DF8047B704781
S315080042808C430120CC4301200C4401204C440120DE
S3150800429080B487B000AFF860B9601346FB71FB685D
S315080042A01B78FB75BB681B78BB75FB79022B0AD19B
S315080042B0BB7DDBB25B42DBB2DAB2FB681A70FA7D11
S315080042C0BB681A7009E0BA7DFB681A70FB7DDBB221
S315080042D05B42DBB2DAB2BB681A7000BF1C37BD4658
S315080042E05DF8047B704700BF80B582B000AF034617
S315080042F0FB71FB79042B09D900F0C8FAFB7919463A
S315080043000A4800F017FF4FF0000307E0FA7908495A
S3150800431013465B0013449B000B441B6807EE903A58
S31508004320B0EE670A0837BD4680BD00BFC4A70008BF
S3150800433048A6000880B483B000AF0346FB71FB793A
S31508004340042B1BD801A252F823F000BF61430008D2
S31508004350674300086D430008734300087943000863
S315080043604FF4C8730BE04FF42A7308E042F2107357
S3150800437005E04FF4967302E0002300E00023184698
S315080043800C37BD465DF8047B704700BF80B483B028
S3150800439000AF0346FB71FB79042B1AD801A252F829
S315080043A023F000BFB9430008BF430008C54300080F
S315080043B0C9430008CD4300084FF4B9730AE04FF427
S315080043C0167307E0002305E0FA2303E04FF4617350
S315080043D000E000231BB218460C37BD465DF8047B87
S315080043E0704700BF80B582B000AF0346FB71FB790A
S315080043F0042B09D900F04AFAFB7919460A4800F055
S3150800440099FE4FF0000308E0FA79084913465B0065
S3150800441013449B000B4404331B6807EE903AB0EE36
S31508004420670A0837BD4680BDF8A7000848A60008F1
S3150800443080B582B000AF0346FB71FB79042B09D91E
S3150800444000F024FAFB7919460A4800F073FE4FF08B
S31508004450000308E0FA79084913465B0013449B00F9
S315080044600B4408331B6807EE903AB0EE670A083724
S31508004470BD4680BD30A8000848A6000880B400AF35
S31508004480034B00221A6000BFBD465DF8047B7047E7
S31508004490AC46012080B400AF044B1B680133034AC5
S315080044A0136000BFBD465DF8047B7047AC4601202B
S315080044B080B483B000AF87ED010A044A7B681360B5
S315080044C000BF0C37BD465DF8047B70479046012057
S315080044D080B400AF044B1B6807EE903AB0EE670A4B
S315080044E0BD465DF8047B70479046012080B483B0D2
S315080044F000AF87ED010A044A7B68136000BF0C37DA
S31508004500BD465DF8047B70479446012080B400AF31
S31508004510044B1B6807EE903AB0EE670ABD465DF895
S31508004520047B70479446012080B483B000AF87EDC2
S31508004530010A044A7B68136000BF0C37BD465DF864
S31508004540047B70479846012080B400AF044B1B6873
S3150800455007EE903AB0EE670ABD465DF8047B7047F1
S315080045609846012080B483B000AF87ED010A044A5B
S315080045707B68136000BF0C37BD465DF8047B704747
S315080045809C46012080B400AF044B1B6807EE903AA6
S31508004590B0EE670ABD465DF8047B70479C4601206D
S315080045A080B500AFFDF7F4FBFFF768FF00BF80BDDD
S315080045B080B500AFFDF71CFCF0EE407AB0EE670A56
S315080045C000F0C2FEF0EE407AB0EE670A80BD00BF8A
S315080045D080B400AF044B1B6807EE903AB0EE670A4A
S315080045E0BD465DF8047B7047A846012080B483B0B9
S315080045F000AF87ED010A044A7B68136000BF0C37D9
S31508004600BD465DF8047B7047A846012080B483B098
S3150800461000AF03460A46FB711346BB71FB7903F0EC
S315080046200F03D9B2094A137861F303031370BB79F0
S3150800463003F00F03D9B2054A137861F30303137025
S3150800464000BF0C37BD465DF8047B7047B0470120B4
S3150800465080B483B000AF78603960184B1B78032BA1
S3150800466026D801A252F823F0794600089546000894
S3150800467087460008A34600087B6801221A703B6833
S3150800468000221A7014E07B68FF221A703B68002229
S315080046901A700DE07B6800221A703B6801221A70B6
S315080046A006E07B6800221A703B68FF221A7000BF7A
S315080046B000BF0C37BD465DF8047B7047B147012043
S315080046C080B483B000AF0346FB71044AFB791370CC
S315080046D000BF0C37BD465DF8047B7047B147012023
S315080046E0B0B500AFFFF730FF10EE103A1846FBF7EB
S315080046F01DFF04460D46FFF7EBFE10EE103A18466E
S31508004700FBF714FF1EA3D3E90023FBF763FF02465A
S315080047100B4620462946FBF7ABFD03460C461846D2
S315080047202146FCF711FA034600EE103AFFF7FCFEA5
S31508004730FFF728FF10EE103A1846FBF7F7FE044677
S315080047400D46FFF7E3FE10EE103A1846FBF7EEFEAD
S315080047500BA3D3E90023FBF73DFF02460B46204691
S315080047602946FBF785FD03460C4618462146FCF705
S31508004770EBF9034600EE103AFFF7F4FE00BFB0BDB2
S31508004780FCA9F1D24D62503FB0B500AFFFF7DCFE91
S3150800479010EE103A1846FBF7C9FE1FA3D3E900230B
S315080047A0FBF718FF03460C4625461C461C4B1B68A0
S315080047B01846FBF7BBFE22462B46FBF759FD034678
S315080047C00C4618462146FCF7BFF90246144B1A60F8
S315080047D0FFF7BAFE10EE103A1846FBF7A7FE0EA32F
S315080047E0D3E90023FBF7F6FE03460C4625461C468E
S315080047F00C4B1B681846FBF799FE22462B46FBF71F
S3150800480037FD03460C4618462146FCF79DF9024635
S31508004810044B1A6000BFB0BDFCA9F1D24D62503FEF
S31508004820A8460120A4460120B0B500AFFFF758FFFF
S31508004830FFF7AAFFFFF7A6FE10EE103A1846FBF799
S3150800484075FE10A3D3E90023FBF7C4FE03460C4606
S3150800485025461C460A4B1B681846FBF767FE224688
S315080048602B46FBF705FD03460C4618462146FCF782
S315080048706BF90246024B1A6000BFB0BDAFF3008069
S31508004880A0460120FCA9F1D24D62503F80B500AF89
S315080048904FF480410C4801F0BDF80346012B0CBFCC
S315080048A001230023DBB2002B0CD0FCF7E1FE4FF40A
S315080048B0FA7000F0C7FDFCF7ADFE4FF4FA7000F091
S315080048C0C1FDE5E700BF80BD0004024080B52DEDBF
S315080048D0028B88B000AF87ED030AC7ED020A0346CC
S315080048E0FB71FB791846FFF77DFD87ED070AFB7913
S315080048F01846FFF7F9FCF0EE407AF5EEC07AF1EECD
S3150800490010FA08D5FB791846FFF7EEFCF0EE407A68
S31508004910F1EE677A05E0FB791846FFF7E5FCF0EE5D
S31508004920407AC7ED067AFB791846FFF781FDF0EE67
S31508004930407AF5EEC07AF1EE10FA08D5FB791846FA
S31508004940FFF776FDF0EE407AF1EE677A05E0FB793F
S315080049501846FFF76DFDF0EE407AC7ED057AFFF7CA
S31508004960F3FDB0EE408AFFF7EFFDF0EE407A28EE51
S31508004970277AD7ED026AD7ED027A66EEA77A77EE3E
S31508004980677AF5EEC07AF1EE10FA14D5FFF7DCFD7A
S31508004990B0EE408AFFF7D8FDF0EE407A28EE277A87
S315080049A0D7ED026AD7ED027A66EEA77A77EE677ACE
S315080049B0F1EE677A11E0FFF7C7FDB0EE408AFFF720
S315080049C0C3FDF0EE407A28EE277AD7ED026AD7EDD6
S315080049D0027A66EEA77A77EE677A97ED057A77EE2A
S315080049E0076A87EEA67A87ED047A97ED060AFFF737
S315080049F05FFDFFF7A9FDB0EE407AD7ED077AB4EE72
S31508004A00E77AF1EE10FA4CBF01230023DBB2002B44
S31508004A105BD0FFF799FDB0EE408AFFF795FDF0EE03
S31508004A20407A28EE277AD7ED026AD7ED027A66EE43
S31508004A30A77A77EE677AF5EEC07AF1EE10FA14D512
S31508004A40FFF782FDB0EE408AFFF77EFDF0EE407A72
S31508004A5028EE277AD7ED026AD7ED027A66EEA77AAC
S31508004A6077EE677AF1EE677A11E0FFF76DFDB0EE43
S31508004A70408AFFF769FDF0EE407A28EE277AD7EDEF
S31508004A80026AD7ED027A66EEA77A77EE677A97ED2D
S31508004A90057A77EE076A87EEA67A87ED047AFFF736
S31508004AA097FDB0EE407AD7ED037A37EEC77AD7EDA1
S31508004AB0047AB4EEE77AF1EE10FA94BF01230023E4
S31508004AC0DBB2002B00D194E700BF9FED5A0AFFF72F
S31508004AD0EFFCFFF739FDB0EE408AFFF735FDF0EE43
S31508004AE0407A28EE277AD7ED026AD7ED027A66EE83
S31508004AF0A77A77EE677AF5EEC07AF1EE10FA14D552
S31508004B00FFF722FDB0EE408AFFF71EFDF0EE407A71
S31508004B1028EE277AD7ED026AD7ED027A66EEA77AEB
S31508004B2077EE677AF1EE677A11E0FFF70DFDB0EEE2
S31508004B30408AFFF709FDF0EE407A28EE277AD7ED8E
S31508004B40026AD7ED027A66EEA77A77EE677A97ED6C
S31508004B50057A77EE076A87EEA67A87ED047AFFF775
S31508004B6037FDB0EE407AD7ED037A37EEC77AD7ED40
S31508004B70047AB4EEE77AF1EE10FA94BF0123002323
S31508004B80DBB2002B00D1A4E700BFD7ED057AF1EE22
S31508004B90677AB0EE670AFFF78BFCFFF7D5FCB0EE35
S31508004BA0407AD7ED027AB4EEE77AF1EE10FACCBF86
S31508004BB001230023DBB2002B11D0FFF709FDB0EE6D
S31508004BC0407AD7ED037AB4EEE77AF1EE10FACCBF65
S31508004BD001230023DBB2002B00D1DEE700BF9FEDE7
S31508004BE0150AFFF765FC97ED020AFFF79DFCD7ED5E
S31508004BF0027AF5EEC07AF1EE10FA10DDFFF7E8FC5E
S31508004C00B0EE407AD7ED037AB4EEE77AF1EE10FA11
S31508004C104CBF01230023DBB2002B00D0EEE79FED4B
S31508004C20050AFFF7E3FC00BF2037BD46BDEC028B43
S31508004C3080BD00BF0000000090B52DED028B87B047
S31508004C4000AF87ED010A4FF08043FB604FF0000389
S31508004C507B61FEF71FF90346FB74FDF7BFFFD7ED2F
S31508004C60017AF5EEC07AF1EE10FA0FD5D7ED037A90
S31508004C70F5EEC07AF1EE10FA02D5D7ED037A03E025
S31508004C80D7ED037AF1EE677AC7ED037AFFF788FC6A
S31508004C909FED850AFFF766FCD7ED037AB0EE670A43
S31508004CA0FFF724FCFFF76EFCF0EE407AF5EEC07ACB
S31508004CB0F1EE10FA06D5FFF765FCF0EE407AF1EE54
S31508004CC0677A03E0FFF75EFCF0EE407A774B93EDE8
S31508004CD0007AF4EEC77AF1EE10FA4CBF01230023EE
S31508004CE0DBB2002B2BD0FFF74DFCB0EE408AFFF766
S31508004CF049FCF0EE407A28EE277AD7ED037A77EE6C
S31508004D00A77AC7EE276AB0EE660A00F01DFB87EDA4
S31508004D10050A97ED018AFFF74BFCF0EE407A38EE6C
S31508004D20677AD7ED057AB4EEE77AF1EE10FA94BF12
S31508004D3001230023DBB2002B00D1B3E700BF9FEDB0
S31508004D405A0AFFF7D3FB97ED017AD7ED057A77EE86
S31508004D50677AC7ED057AFFF715FCB0EE408AFFF7CC
S31508004D6011FCF0EE407A28EE277AD7ED037A77EE33
S31508004D70A77AC7EE276AB0EE660A00F0E5FA87ED6D
S31508004D80050A97ED018AFFF713FCF0EE407A38EE34
S31508004D90677AD7ED057AB4EEE77AF1EE10FA94BFA2
S31508004DA001230023DBB2002B00D1D4E700BFD7EDE7
S31508004DB0037AF1EE677AB0EE670AFFF797FBFFF71B
S31508004DC0F7FBF0EE407AF5EEC07AF1EE10FA06D56A
S31508004DD0FFF7EEFBF0EE407AB1EE677A03E0FFF7F5
S31508004DE0E7FBB0EE407AD7ED017AF5EEC07AF1EE40
S31508004DF010FA04D5D7ED017AF1EE677A01E0D7ED1E
S31508004E00017AB4EEE77AF1EE10FA4CBF01230023DB
S31508004E10DBB2002B2BD0FFF7B5FBF0EE407AF5EEB0
S31508004E20C07AF1EE10FA06D5FFF7ACFBF0EE407A41
S31508004E30F1EE677A03E0FFF7A5FBF0EE407A17EE8E
S31508004E40900AFBF773FB01231C4615A3D3E900233D
S31508004E50FBF732FE0346002B01D100231C46E3B2C2
S31508004E60002BACD09FED100AFFF740FBA7E79FED9C
S31508004E700E0AFFF73BFB9FED0C0AFFF773FB9FED4E
S31508004E800A0AFFF7B3FBFB7C002B01D0FDF79AFE5D
S31508004E9000BF1C37BD46BDEC028B90BDAFF300804A
S31508004EA07B14AE47E17A943F00000000E0A80008B2
S31508004EB080B582B000AF0346FB71FB79042B74D82A
S31508004EC001A252F823F000BFDD4E0008014F00088A
S31508004ED0314F0008614F00089B4F00080020DFEDA6
S31508004EE0350A9FED350AFFF7F1FC642000F0AAFAAF
S31508004EF00020F5EE000A9FED300AFFF7E7FC54E0C4
S31508004F000020DFED2C0A9FED2C0AFFF7DFFC9FED52
S31508004F102B0AFFF791FE0020F5EE000A9FED260A00
S31508004F20FFF7D4FC002226492648FFF7B1F93CE0F2
S31508004F300020DFED200A9FED200AFFF7C7FC9FED52
S31508004F40220AFFF779FE0020F5EE000A9FED1A0AFD
S31508004F50FFF7BCFC02221A491A48FFF799F924E020
S31508004F600020DFED140A9FED140AFFF7AFFC9FED52
S31508004F70170AFFF761FE002211491248FFF788F960
S31508004F8000220F490F48FFF783F90020F5EE000AC3
S31508004F909FED090AFFF79AFC07E00020DFED050AF6
S31508004FA09FED050AFFF792FC00BF00BF0837BD4614
S31508004FB080BD00BF00000000EC51383D0000B4423F
S31508004FC0B4470120B347012000008743000034435B
S31508004FD080B584B000AF03460A46FB711346BB7121
S31508004FE00123BB73FCF716FB3248FFF7D5F83249A5
S31508004FF03248FFF72DFBFDF7F1FDFDF707FE4FF4ED
S315080050007A7000F01FFAFCF7B5FEFFF7C9FA9FEDB4
S315080050102C0AFFF789FA9FED2A0AFFF7A3FAFDF78C
S3150800502045FFFCF79BFCFDF7E5FD4FF4FA710320FD
S31508005030FCF772FB9FED220AFFF7D8FAFDF7C2FDCF
S315080050400020F5EE000A9FED1F0AFFF73FFCBB7B29
S31508005050002B2AD00120FDF793FB034683F00103BA
S31508005060DBB2002B02D00223FB7319E00420FDF704
S3150800507087FB034683F00103DBB2002B02D0002333
S31508005080FB730DE00020FDF77BFB034683F001036D
S31508005090DBB2002B02D00123FB7301E00323FB7371
S315080050A0FB7B1846FFF704FFD1E700BF1846103709
S315080050B0BD4680BDB0460120B4470120B347012054
S315080050C000000000EC51383D80B582B000AF0346C1
S315080050D0FB71FB799BB21946074801F02BFA00BF12
S315080050E08021054801F080FA0346002BF8D000BF5E
S315080050F00837BD4680BD00BF0010014080B584B0AA
S3150800510000AF78600B467B800023FB8109E0FB89B2
S315080051107A6813441B781846FFF7D6FFFB890133D4
S31508005120FB81FA89B7F902309A42F0DB00BF1037E3
S31508005130BD4680BD0FB480B582B000AF07F1140339
S315080051403B603A683969094801F000FB78607B687A
S315080051509BB21BB219460548FFF7D0FF7B68184675
S315080051600837BD46BDE8804004B07047B8470120FF
S3150800517080B400AF00BFBD465DF8047B704700BF32
S3150800518080B400AFFEE700BF80B400AFFEE700BF03
S3150800519080B400AFFEE700BF80B400AFFEE700BFF3
S315080051A080B400AF00BFBD465DF8047B704700BF02
S315080051B080B400AF00BFBD465DF8047B704700BFF2
S315080051C080B400AF00BFBD465DF8047B704700BFE2
S315080051D080B500AFFEF7F8FB00BF80BD80B584B090
S315080051E000AF7860114B1B68002B02D10F4B104A99
S315080051F01A600E4B1B68FB600C4B1A687B681344DD
S315080052006A46934207D901F00BFA02460C2313604B
S315080052104FF0FF3306E0054B1A687B681344034AD0
S315080052201360FB6818461037BD4680BD204801202C
S31508005230F04B012080B500AF164A164BD3F88830DC
S3150800524043F47003C2F88830134A134B1B6843F0C3
S3150800525001031360104B00229A600F4A0E4B1B681D
S3150800526023F0847323F4803313600B4B0B4A5A6084
S31508005270094A094B1B6823F480231360064B002256
S31508005280DA6000F00DF8034B4FF000629A6000BF39
S3150800529080BD00BF00ED00E0003802401030002459
S315080052A080B400AF234A234B1B6C43F0805313642E
S315080052B0214A214B1B6843F4404313601D4A1D4B8A
S315080052C09B6893601B4A1B4B9B6843F4004393609F
S315080052D0184A184B9B6843F4A0539360154B174A1A
S315080052E05A60144A134B1B6843F08073136000BF5F
S315080052F0104B1B6803F00073002BF9D0104B40F2DB
S3150800530005621A600B4A0B4B9B6823F003039360F4
S31508005310084A084B9B6843F00203936000BF054B9D
S315080053209B6803F00C03082BF9D100BFBD465DF856
S31508005330047B704700380240007000401054000794
S31508005340003C02400000000090B583B000AF87ED36
S31508005350010AD7ED017A9FED107A67EE877A17EE84
S31508005360900AFBF7E3F80AA3D3E90023FBF75CFAF4
S3150800537003460C4618462146FBF7E6FB034607EEAE
S31508005380903AB0EE670A0C37BD4690BDAFF3008081
S315080053906F1283C0CA210940000034430000000090
S315080053A090B583B000AF87ED010A7868FBF7BEF8C1
S315080053B00EA3D3E90023FBF70DF903460C4618465E
S315080053C021464FF00002084BFBF72EFA03460C461F
S315080053D018462146FBF7B8FB034607EE903AB0EEAF
S315080053E0670A0C37BD4690BD008066406F1283C0C1
S315080053F0CA21094080B483B000AF7860044A7B684C
S31508005400136000BF0C37BD465DF8047B704700BFCC
S315080054102448012080B400AF034B00221A6000BF65
S31508005420BD465DF8047B70472448012080B400AF70
S31508005430034B1B681846BD465DF8047B704700BFE2
S315080054402448012080B584B000AF78600023FB6053
S315080054501A4B1B681846FFF7CDFFFFF7E7FF014613
S315080054607A68174B9B1A99428CBF01230023DBB23B
S31508005470002B07D0FFF7CEFF104B00221A607B687F
S31508005480FB6005E0FFF7D2FF02467B681344FB602A
S31508005490FFF7CCFF0246FB689A4234BF012300237C
S315080054A0DBB2002B05D0054B1B681846FFF7A2FF99
S315080054B0EEE700BF1037BD4680BD00BF040B0020D5
S315080054C00084D717DFF834D0002103E00C4B5B5873
S315080054D0435004310B480C4B42189A42F6D30B4AF8
S315080054E002E0002342F8043B094B9A42F9D3FFF73E
S315080054F0A1FE01F09BF8FEF7CBF8704700000220EA
S315080055007CAA0008000000209408002094080020C7
S31508005510EC4B0120FEE7000080B500AF01214FF4F7
S31508005520807000F005FC00214FF4807000F000FC4C
S3150800553000BF80BD80B485B000AF786039600023B5
