S010000068616C666D6F7573652E6D6F74AD
S31508000000000002204D700008F96C0008096D000810
S31508000010116D0008196D0008216D00080000000028
S31508000020000000000000000000000000296D000824
S31508000030396D000800000000496D0008596D000878
S315080000409D7000089D7000089D7000089D7000084E
S315080000509D7000089D7000089D7000089D7000083E
S315080000609D7000089D7000089D7000089D7000082E
S315080000709D7000089D7000089D7000089D7000081E
S315080000809D7000089D7000089D7000089D7000080E
S315080000909D7000089D7000089D7000089D700008FE
S315080000A09D7000089D7000089D7000089D700008EE
S315080000B09D7000089D7000089D7000089D700008DE
S315080000C09D7000089D7000089D7000089D700008CE
S315080000D09D7000089D7000089D7000089D700008BE
S315080000E09D7000089D7000089D7000089D700008AE
S315080000F09D7000089D7000089D7000089D7000089E
S315080001009D7000089D7000089D7000089D7000088D
S315080001109D7000089D7000089D7000089D7000087D
S315080001209D7000089D7000089D7000089D7000086D
S315080001309D70000800000000000000009D70000887
S315080001409D7000089D7000089D7000089D7000084D
S315080001509D7000089D7000089D7000089D7000083D
S315080001609D7000089D7000089D7000089D7000082D
S315080001709D7000089D700008000000000000000047
S30D080001809D7000089D7000083F
S315080001C0044B05481B1A062B02D9044B03B11847E2
S315080001D0704700BF97080020940800200000000020
S315080001E005490648091A891001EBD171491002D050
S315080001F0034B03B118477047940800209408002061
S315080002000000000010B5064C237843B9FFF7D8FF65
S31508000210044B13B10448AFF300800123237010BDCB
S3150800022094080020000000006CBE000808B5084BC2
S315080002301BB108490848AFF300800848036813B99A
S31508000240BDE80840CCE7064B002BF9D09847F7E7FE
S3150800025000000000980800206CBE000894080020E2
S315080002600000000081F0004102E000BF83F0004377
S3150800027030B54FEA41044FEA430594EA050F08BF33
S3150800028090EA020F1FBF54EA000C55EA020C7FEAF7
S31508000290645C7FEA655C00F0E2804FEA5454D4EB74
S315080002A05555B8BF6D420CDD2C4480EA020281EA3E
S315080002B0030382EA000083EA010180EA020281EA76
S315080002C00303362D88BF30BD11F0004F4FEA0131C8
S315080002D04FF4801C4CEA113102D0404261EB4101D7
S315080002E013F0004F4FEA03334CEA133302D052425D
S315080002F063EB430394EA050F00F0A780A4F1010419
S31508000300D5F1200E0DDB02FA0EFC22FA05F2801852
S3150800031041F1000103FA0EF2801843FA05F3594138
S315080003200EE0A5F120050EF1200E012A03FA0EFCB7
S3150800033028BF4CF0020C43FA05F3C01851EBE371E1
S3150800034001F0004507D54FF0000EDCF1000C7EEBFE
S3150800035000006EEB0101B1F5801F1BD3B1F5001F3C
S315080003600CD349085FEA30004FEA3C0C04F101045B
S315080003704FEA445212F5800F80F09A80BCF1004F84
S3150800038008BF5FEA500C50F1000041EB045141EA06
S31508000390050130BD5FEA4C0C404141EB010111F407
S315080003A0801FA4F10104E9D191F0000F04BF0146B2
S315080003B00020B1FA81F308BF2033A3F10B03B3F190
S315080003C020020CDA0C3208DD02F1140CC2F10C0220
S315080003D001FA0CF021FA02F10CE002F11402D8BF7E
S315080003E0C2F1200C01FA02F120FA0CFCDCBF41EA4A
S315080003F00C019040E41AA2BF01EB0451294330BD19
S315080004006FEA04041F3C1CDA0C340EDC04F11404F5
S31508000410C4F1200220FA04F001FA02F340EA0300CC
S3150800042021FA04F345EA030130BDC4F10C04C4F112
S31508000430200220FA02F001FA04F340EA03002946F2
S3150800044030BD21FA04F0294630BD94F0000F83F43C
S31508000450801306BF81F480110134013D4EE77FEA1F
S31508000460645C18BF7FEA655C29D094EA050F08BF6B
S3150800047090EA020F05D054EA000C04BF194610464C
S3150800048030BD91EA030F1EBF0021002030BD5FEA90
S31508000490545C05D14000494128BF41F0004130BDB8
S315080004A014F580043CBF01F5801130BD01F000450C
S315080004B045F0FE4141F470014FF0000030BD7FEA7F
S315080004C0645C1ABF194610467FEA655C1CBF0B467A
S315080004D0024650EA013406BF52EA033591EA030F91
S315080004E041F4002130BD00BF90F0000F04BF002189
S315080004F0704730B54FF4806404F132044FF00005BC
S315080005004FF0000150E700BF90F0000F04BF002134
S31508000510704730B54FF4806404F1320410F000459A
S3150800052048BF40424FF000013EE700BF42004FEA95
S31508000530E2014FEA31014FEA02701FBF12F07F4312
S3150800054093F07F4F81F06051704792F0000F14BF0F
S3150800055093F07F4F704730B54FF4607401F0004553
S3150800056021F0004120E700BF50EA010208BF7047AA
S3150800057030B54FF000050AE050EA010208BF70479F
S3150800058030B511F0004502D5404261EB41014FF408
S31508000590806404F132045FEA915C3FF4DCAE4FF00C
S315080005A003025FEADC0C18BF03325FEADC0C18BFF3
S315080005B0033202EBDC02C2F1200300FA03FC20FA44
S315080005C002F001FA03FE40EA0E0021FA02F1144491
S315080005D0C1E600BF70B54FF0FF0C4CF4E06C1CEAA6
S315080005E011541DBF1CEA135594EA0C0F95EA0C0F1B
S315080005F000F0DEF82C4481EA030621EA4C5123EA8E
S315080006004C5350EA013518BF52EA033541F48011BC
S3150800061043F4801338D0A0FB02CE4FF00005E1FB6F
S3150800062002E506F00042E0FB03E54FF00006E1FBB9
S3150800063003569CF0000F18BF4EF0010EA4F1FF04FC
S31508000640B6F5007F64F5407404D25FEA4E0E6D413C
S3150800065046EB060642EAC62141EA55514FEAC5204D
S3150800066040EA5E504FEACE2EB4F1FD0C88BFBCF5C9
S31508000670E06F1ED8BEF1004F08BF5FEA500E50F17A
S31508000680000041EB045170BD06F0004646EA010140
S3150800069040EA020081EA0301B4EB5C04C2BFD4EB72
S315080006A00C0541EA045170BD41F480114FF0000E6B
S315080006B0013C00F3AB8014F1360FDEBF002001F0D9
S315080006C0004170BDC4F10004203C35DA0C341BDC53
S315080006D004F11404C4F1200500FA05F320FA04F025
S315080006E001FA05F240EA020001F0004221F0004159
S315080006F010EBD37021FA04F642EB06015EEA430ECC
S3150800070008BF20EAD37070BDC4F10C04C4F12005FB
S3150800071000FA04F320FA05F001FA04F240EA0200AE
S3150800072001F0004110EBD37041F100015EEA430E7F
S3150800073008BF20EAD37070BDC4F1200500FA05F29F
S315080007404EEA020E20FA04F301FA05F243EA02031E
S3150800075021FA04F001F0004121FA04F220EA02002D
S3150800076000EBD3705EEA430E08BF20EAD37070BD73
S3150800077094F0000F0FD101F00046400041EB010153
S3150800078011F4801F08BF013CF7D041EA060195F035
S31508000790000F18BF704703F00046520043EB0303EF
S315080007A013F4801F08BF013DF7D043EA06037047DC
S315080007B094EA0C0F0CEA135518BF95EA0C0F0CD0E7
S315080007C050EA410618BF52EA4306D1D181EA03012D
S315080007D001F000414FF0000070BD50EA410606BF27
S315080007E01046194652EA430619D094EA0C0F02D16C
S315080007F050EA013613D195EA0C0F05D152EA0336B1
S315080008001CBF104619460AD181EA030101F00041CE
S3150800081041F0FE4141F470014FF0000070BD41F017
S31508000820FE4141F4780170BD70B54FF0FF0C4CF4F1
S31508000830E06C1CEA11541DBF1CEA135594EA0C0F10
S3150800084095EA0C0F00F0A7F8A4EB050481EA030E5D
S3150800085052EA03354FEA013100F088804FEA033344
S315080008604FF0805545EA131343EA12634FEA022212
S3150800087045EA111545EA10654FEA00260EF00041D3
S315080008809D4208BF964244F1FD0404F5407402D225
S315080008905B084FEA3202B61A65EB03055B084FEAB6
S315080008A032024FF480104FF4002CB6EB020E75EBB3
S315080008B0030E22BFB61A754640EA0C005B084FEADB
S315080008C03202B6EB020E75EB030E22BFB61A754658
S315080008D040EA5C005B084FEA3202B6EB020E75EBA3
S315080008E0030E22BFB61A754640EA9C005B084FEA1B
S315080008F03202B6EB020E75EB030E22BFB61A754628
S3150800090040EADC0055EA060E18D04FEA051545EA16
S3150800091016754FEA06164FEAC30343EA52734FEABF
S31508000920C2025FEA1C1CC0D111F4801F0BD141EA38
S3150800093000014FF000004FF0004CB6E711F4801F9D
S3150800094004BF01430020B4F1FD0C88BFBCF5E06F7D
S315080009503FF6AFAEB5EB030C04BFB6EB020C5FEA8D
S31508000960500C50F1000041EB045170BD0EF0004EE2
S315080009704EEA113114EB5C04C2BFD4EB0C0541EA14
S31508000980045170BD41F480114FF0000E013C90E611
S3150800099045EA060E8DE60CEA135594EA0C0F08BFD5
S315080009A095EA0C0F3FF43BAF94EA0C0F0AD150EAD4
S315080009B001347FF434AF95EA0C0F7FF425AF104667
S315080009C019462CE795EA0C0F06D152EA03353FF48F
S315080009D0FDAE1046194622E750EA410618BF52EA0C
S315080009E043067FF4C5AE50EA41047FF40DAF52EAE0
S315080009F043057FF4EBAE12E74FF0FF3C06E000BF7D
S31508000A004FF0010C02E000BF4FF0010C4DF804CD89
S31508000A104FEA410C7FEA6C5C4FEA430C18BF7FEA49
S31508000A206C5C1BD001B050EA410C0CBF52EA430C77
S31508000A3091EA030F02BF90EA020F0020704710F1F7
S31508000A40000F91EA030F58BF994208BF90422CBF86
S31508000A50D8176FEAE37040F0010070474FEA410C7F
S31508000A607FEA6C5C02D150EA013C07D14FEA430C9D
S31508000A707FEA6C5CD6D152EA033CD3D05DF8040B0E
S31508000A80704700BF8446104662468C461946634640
S31508000A9000E000BF01B5FFF7B7FF002848BF10F117
S31508000AA0000F01BD4DF808EDFFF7F4FF0CBF01205C
S31508000AB000205DF808FB00BF4DF808EDFFF7EAFFD8
S31508000AC034BF012000205DF808FB00BF4DF808ED93
S31508000AD0FFF7E0FF94BF012000205DF808FB00BF88
S31508000AE04DF808EDFFF7CEFF94BF012000205DF812
S31508000AF008FB00BF4DF808EDFFF7C4FF34BF01201F
S31508000B0000205DF808FB00BF4A0011D212F500125A
S31508000B1011D20DD56FF47873B3EB62520ED44FEA47
S31508000B20C12343F0004343EA505323FA02F07047C7
S31508000B304FF00000704750EA013002D14FF0FF3005
S31508000B4070474FF0000070474FEA4102B2F1E043A8
S31508000B5024BFB3F5001CDCF1FE5C0DD901F0004C96
S31508000B604FEAC0024CEA5070B2F1004F40EB8300E6
S31508000B7008BF20F00100704711F0804F21D113F112
S31508000B803872BCBF01F00040704741F480114FEA4B
S31508000B905252C2F11802C2F1200C10FA0CF320FAD4
S31508000BA002F018BF40F001004FEAC1234FEAD323F1
S31508000BB003FA0CFC40EA0C0023FA02F34FEA43035B
S31508000BC0CCE77FEA625307D150EA01331EBF4FF0E4
S31508000BD0FE4040F44000704701F0004040F0FE40FF
S31508000BE040F40000704700BF00000000000000004D
S31508000BF001F0FF01102A2BDB10F0070F08D010F8C0
S31508000C00013B013A8B422DD010F0070F42B3F6D1C3
S31508000C10F0B441EA012141EA014122F007047FF0DC
S31508000C2000070023F0E80256083C85EA010586EA33
S31508000C30010685FA47F5A3FA87F586FA47F6A5FA6F
S31508000C4087F68EB9EED1F0BC01F0FF0102F007027B
S31508000C5032B110F8013B013A83EA010313B1F8D126
S31508000C600020704701387047002D06BF3546033807
S31508000C70073815F0010F07D1013015F4807F02BF40
S31508000C80013015F4C03F0130F0BC0138704700BF91
S31508000C90844641EA000313F003036DD1403A41D379
S31508000CA051F8043B40F8043B51F8043B40F8043B38
S31508000CB051F8043B40F8043B51F8043B40F8043B28
S31508000CC051F8043B40F8043B51F8043B40F8043B18
S31508000CD051F8043B40F8043B51F8043B40F8043B08
S31508000CE051F8043B40F8043B51F8043B40F8043BF8
S31508000CF051F8043B40F8043B51F8043B40F8043BE8
S31508000D0051F8043B40F8043B51F8043B40F8043BD7
S31508000D1051F8043B40F8043B51F8043B40F8043BC7
S31508000D20403ABDD2303211D351F8043B40F8043B67
S31508000D3051F8043B40F8043B51F8043B40F8043BA7
S31508000D4051F8043B40F8043B103AEDD20C3205D377
S31508000D5051F8043B40F8043B043AF9D2043208D06F
S31508000D60D2071CBF11F8013B00F8013B01D30B88E1
S31508000D7003806046704700BF082A13D38B078DD0BF
S31508000D8010F003038AD0C3F10403D21ADB071CBF91
S31508000D9011F8013B00F8013B80D331F8023B20F8FB
S31508000DA0023B7BE7043AD9D3013A11F8013B00F834
S31508000DB0013BF9D20B7803704B7843708B788370BC
S31508000DC060467047000000000000000000000000B8
S31508000DD00000000000000000000000000000000005
S31508000DE000000000000000000000000000000000F5
S31508000DF000000000000000000000000000000000E5
S31508000E0090F800F06DE9024520F007016FF0000C3C
S31508000E1010F0070491F820F040F049804FF00004E4
S31508000E206FF00700D1E9002391F840F000F10800BF
S31508000E3082FA4CF2A4FA8CF283FA4CF3A2FA8CF3F7
S31508000E404BBBD1E9022382FA4CF200F10800A4FA5E
S31508000E508CF283FA4CF3A2FA8CF3E3B9D1E90423B2
S31508000E6082FA4CF200F10800A4FA8CF283FA4CF3E9
S31508000E70A2FA8CF37BB9D1E9062301F1200182FAA3
S31508000E804CF200F10800A4FA8CF283FA4CF3A2FAA9
S31508000E908CF3002BC6D0002A04BF04301A4612BAB7
S31508000EA0B2FA82F2FDE8024500EBD2007047D1E9BA
S31508000EB0002304F00305C4F100004FEAC50514F049
S31508000EC0040F91F840F00CFA05F562EA05021CBF1A
S31508000ED063EA050362464FF00004A9E74FEA4102B8
S31508000EE012F5001215D211D56FF47873B3EB62526E
S31508000EF012D94FEAC12343F0004343EA505311F095
S31508000F00004F23FA02F018BF404270474FF0000026
S31508000F10704750EA013005D111F0004008BF6FF064
S31508000F20004070474FF00000704700BF53B94AB9F8
S31508000F30002908BF00281CBF4FF0FF314FF0FF30D3
S31508000F4000F07EB9ADF1080C6DE904CE00F006F8A4
S31508000F50DDF804E0DDE9022304B070472DE9F04727
S31508000F608C460E460446089D002B50D18A421746E9
S31508000F706CD9B2FA82FEBEF1000F0BD0CEF1200476
S31508000F8020FA04F401FA0EF644EA060C02FA0EF701
S31508000F9000FA0EF44FEA1749220CBCFBF9F01FFAC7
S31508000FA087F809FB10C642EA064600FB08F3B34277
S31508000FB009D9F61900F1FF3280F02281B34240F2D6
S31508000FC01F8102383E44F61AA2B2B6FBF9F309FBB2
S31508000FD0136642EA064403FB08F8A04509D9E41952
S31508000FE003F1FF3280F00A81A04540F20781023BF7
S31508000FF03C44C8EB040443EA00400021002D62D0BB
S3150800100024FA0EF400232C606B60BDE8F0878B424F
S3150800101007D9002D55D0002185E841000846BDE8CE
S31508001020F087B3FA83F1002940F09080B34202D3E7
S31508001030824200F2F880841A66EB03060120B44661
S31508001040002D40D085E81010BDE8F08712B90127B9
S31508001050B7FBF2F7B7FA87FEBEF1000F35D1F31BDF
S315080010604FEA17481FFA87FC0121B3FBF8F0220C58
S3150800107008FB103642EA06460CFB00F3B34207D9D2
S31508001080F61900F1FF3202D2B34200F2CE801046C2
S31508001090F61AA2B2B6FBF8F308FB136642EA064450
S315080010A00CFB03FCA44507D9E41903F1FF3202D26D
S315080010B0A44500F2B5801346CCEB040443EA00408D
S315080010C09CE729462846BDE8F087CEF1200106FAB6
S315080010D00EF307FA0EF720FA01F94FEA1748CE4041
S315080010E049EA0309B6FBF8FA4FEA194408FB1A66F7
S315080010F01FFA87FC44EA06430AFB0CF29A4200FAF6
S315080011000EF40AD9DB190AF1FF3180F087809A427A
S3150800111040F28480AAF1020A3B449B1A1FFA89F915
S31508001120B3FBF8F108FB113349EA034301FB0CF65C
S315080011309E4207D9DB1901F1FF326BD29E4269D96B
S3150800114002393B449B1B41EA0A418EE7C1F1200E56
S3150800115022FA0EF48B40234320FA0EF706FA01F41E
S315080011604FEA134C26FA0EF63C43B6FBFCF9270C5D
S315080011700CFB19661FFA83F847EA064609FB08F7C7
S31508001180B74202FA01F200FA01FA08D9F61809F18B
S31508001190FF3041D2B7423FD9A9F102091E44F61BD6
S315080011A0A0B2B6FBFCF40CFB146640EA064704FB47
S315080011B008F8B84507D9FF1804F1FF3028D2B84512
S315080011C026D9023C1F4444EA0940C8EB0707A0FB9E
S315080011D002894F4544464E4614D329D065B3BAEB27
S315080011E0040367EB060707FA0EFECB40CF404EEA2C
S315080011F0030385E888000021BDE8F0871346F8E672
S315080012001046E0E6B8EB020469EB03060138E5E7A9
S315080012100446D8E7114695E78146C0E78A467CE743
S31508001220023B3C4448E708460AE702383E442FE7B3
S31508001230C245E7D33E46D1E72946BDE8F08700BF59
S31508001240704700BF80B500AF0221104806F0EEF8DF
S315080012500023012209210D4805F0CAFF0B4806F0B4
S3150800126091F80221094806F0C7F80346002B0CBF7F
S3150800127001230023DBB2002B00D0F2E7034806F077
S3150800128091F803461B119BB2184680BD0020014009
S3150800129080B582B000AF4FF000037B604FF48053F7
S315080012A03B60FFF7CFFF034607EE903AF8EEE77A82
S315080012B09FED0B7A67EE876A3B6807EE903AB8EEC1
S315080012C0677AC6EE877A77EEA77AC7ED017A7B68E2
S315080012D007EE903AB0EE670A0837BD4680BD00BFF4
S315080012E03333534080B582B000AF0346FB71FB79B8
S315080012F0092B02D900F0BCF982E1FB79092B00F22F
S315080013007F8101A252F823F03113000879130008EF
S31508001310C11300080914000851140008991400089C
S31508001320E11400082915000871150008B915000808
S315080013301021B54806F04CF94FF48051B24806F032
S3150800134057F90421B14806F053F90821AF4806F0C9
S315080013504FF94FF48041AD4806F04AF94FF4004181
S31508001360AA4806F045F90121A94806F041F90221E3
S31508001370A74806F03DF943E11021A34806F028F9ED
S315080013804FF48051A04806F033F904219F4806F02F
S315080013901FF908219D4806F02BF94FF480419B4818
S315080013A006F016F94FF40041984806F011F90121A4
S315080013B0974806F00DF90221954806F019F91FE13C
S315080013C01021914806F014F94FF480518E4806F022
S315080013D0FFF804218D4806F00BF908218B4806F022
S315080013E007F94FF48041894806F002F94FF40041A5
S315080013F0864806F0EDF80121854806F0F9F802213D
S31508001400834806F0F5F8FBE010217F4806F0F0F86F
S315080014104FF480517C4806F0EBF804217B4806F02F
S31508001420E7F80821794806F0E3F84FF48041774851
S3150800143006F0CEF84FF40041744806F0C9F80121C9
S31508001440734806F0D5F80221714806F0D1F8D7E0BE
S3150800145010216D4806F0CCF84FF480516A4806F022
S31508001460C7F80421694806F0B3F80821674806F06A
S31508001470BFF84FF48041654806F0AAF84FF40041DA
S31508001480624806F0B5F80121614806F0A1F8022184
S315080014905F4806F0ADF8B3E010215B4806F0A8F8FF
S315080014A04FF48051584806F0A3F80421574806F02F
S315080014B09FF80821554806F09BF84FF48041534899
S315080014C006F086F84FF40041504806F091F80121DD
S315080014D04F4806F08DF802214D4806F079F88FE05E
S315080014E01021494806F084F84FF48051464806F022
S315080014F07FF80421454806F07BF80821434806F0A2
S3150800150077F84FF48041414806F072F84FF40041ED
S315080015103E4806F06DF801213D4806F069F80221BB
S315080015203B4806F055F86BE01021374806F050F8AE
S315080015304FF48051344806F05BF80421334806F02E
S3150800154047F80821314806F053F84FF480412F48F0
S3150800155006F03EF84FF400412C4806F049F8012100
S315080015602B4806F045F80221294806F041F847E0DD
S315080015701021254806F03CF84FF48051224806F021
S3150800158037F80421214806F033F808211F4806F0E9
S315080015902FF84FF480411D4806F02AF84FF4004111
S315080015A01A4806F025F80121194806F021F8022103
S315080015B0174806F01DF823E01021134806F018F81E
S315080015C04FF48051104806F013F804210F4806F02E
S315080015D00FF808210D4806F00BF84FF480410B4828
S315080015E005F0F6FF4FF40041084806F001F801211E
S315080015F0074805F0FDFF0221054805F0F9FF00BF81
S315080016000837BD4680BD00BF0004024000080240FE
S31508001610001C024080B500AF1021124805F0D8FF23
S315080016204FF480510F4805F0D3FF04210E4805F00A
S31508001630CFFF08210C4805F0CBFF4FF480410A483C
S3150800164005F0C6FF4FF40041074805F0C1FF012128
S31508001650064805F0BDFF0221044805F0B9FF00BFA2
S3150800166080BD00BF0004024000080240001C024082
S3150800167080B500AF1021124805F0BAFF4FF480512B
S315080016800F4805F0A5FF04210E4805F0B1FF082113
S315080016900C4805F0ADFF4FF480410A4805F0A8FF55
S315080016A04FF40041074805F0A3FF0121064805F05D
S315080016B09FFF0221044805F08BFF00BF80BD00BFD5
S315080016C00004024000080240001C024080B584B0B5
S315080016D000AF0346FB710B46BB8013467B80002395
S315080016E0FB607A88FB689A4211DDFB791846FFF79A
S315080016F0F9FDBB88184605F069FCFFF78BFFBB8828
S31508001700184605F063FCFB680133FB60E9E700BF98
S315080017101037BD4680BD00BF80B584B000AF034614
S315080017200A46FB711346BB80FB79FB60FB68002BFE
S315080017300CDDFB68DBB21846FFF7D4FDBB881846FC
S3150800174005F044FCFB68013BFB60EFE70020FFF770
S31508001750C9FD00BF1037BD4680BD00BF00000000B0
S3150800176090B587B000AF034687ED020AFB730023E6
S31508001770FB82D7ED027AF5EEC07AF1EE10FA0AD5B9
S31508001780D7ED027AF1EE677AFDEEE77AC7ED017AD0
S31508001790BB889BB207E0D7ED027AFDEEE77AC7ED84
S315080017A0017ABB889BB2FB82D7ED027A9FED507A0D
S315080017B0F4EEC77AF1EE10FA01DD6423FB824D4B95
S315080017C060221A804B4B00229A814A4B01225A808A
S315080017D0494B1B881A46B7F9163003FB02F318461D
S315080017E0FEF792FE40A3D3E90023FEF7F3FE034675
S315080017F00C4618462146FFF787F902463D4B9A6084
S31508001800FB7B012B34D1D7ED027AF5EE407AF1EE67
S3150800181010FA0BD1374B00229A603649374806F042
S31508001820C3F93449354806F039FA1DE0D7ED027A8E
S31508001830F5EEC07AF1EE10FA0BDD2E492F4806F0C8
S315080018402DFA2C4B00229A602A492C4806F0ACF94E
S315080018500AE02849294806F0A7F9264B00229A608B
S315080018602449264806F01AFAFB8ADAB2244B1A707B
S31508001870FB7B002B34D1D7ED027AF5EE407AF1EEF8
S3150800188010FA0BD11B4B00229A601A491D4806F024
S315080018908BF918491B4806F001FA1DE0D7ED027AC4
S315080018A0F5EEC07AF1EE10FA0BDD1249154806F08E
S315080018B07BF9104B00229A600E49124806F0EEF9A1
S315080018C00AE00C490F4806F0E9F90A4B00229A602B
S315080018D008490C4806F068F9FB8ADAB20A4B1A700E
S315080018E000BF1C37BD4690BD7B14AE47E17A843FE6
S315080018F00000C8423809002088BE000800080040D9
S31508001900B0080020000C0040B108002080B500AFE8
S3150800191004210D4805F06CFE00210C4806F024F958
S3150800192000210B4806F020F99FED0A0A0020FFF770
S3150800193017FF9FED080A0120FFF712FF064B00224A
S315080019401A7000BF80BD00BF0000024000080040BA
S31508001950000C004000000000B208002080B500AF6F
S315080019600421084805F034FE0121074806F0FCF872
S315080019700121064806F0F8F8054B01221A7000BF47
S3150800198080BD00BF0000024000080040000C004077
S31508001990B208002080B400AF034B1B781846BD463A
S315080019A05DF8047B704700BFB208002080B584B09C
S315080019B000AF0346FB8000237B81FB8843F080034E
S315080019C03B81404B1B681021184605F011FE3E4B23
S315080019D01B680221184606F011F80346002B0CBFB7
S315080019E001230023DBB2002B00D0F0E7364B1B683F
S315080019F03A891146184605F0F1FF334B1B68012159
S31508001A00184605F0FBFF0346002B0CBF01230023F5
S31508001A10DBB2002B00D0F0E72B4B1B68184605F00D
S31508001A20CFFF03467B81284B1B680221184605F029
S31508001A30E5FF0346002B0CBF01230023DBB2002B76
S31508001A4000D0F0E7204B1B680021184605F0C6FFBA
S31508001A501D4B1B680121184605F0D0FF0346002BD5
S31508001A600CBF01230023DBB2002B00D0F0E7164B96
S31508001A701B68184605F0A4FF03467B81124B1B68BA
S31508001A800221184605F0BAFF0346002B0CBF0123B6
S31508001A900023DBB2002B00D0F0E70A4B1B681021AD
S31508001AA0184605F095FD0023FB60FB68042B03DC54
S31508001AB0FB680133FB60F8E77B8918461037BD469B
S31508001AC080BD00BF040000200000002080B584B05F
S31508001AD000AF03460A46FB801346BB803D4B1B6896
S31508001AE01021184605F084FD3B4B1B680221184659
S31508001AF005F084FF0346002B0CBF01230023DBB24D
S31508001B00002B00D0F0E7344B1B68FA8811461846BC
S31508001B1005F064FF304B1B680121184605F06EFF7F
S31508001B200346002B0CBF01230023DBB2002B00D099
S31508001B30F0E7294B1B68184605F042FF264B1B6841
S31508001B400221184605F05AFF0346002B0CBF012355
S31508001B500023DBB2002B00D0F0E71F4B1B68BA88C6
S31508001B601146184605F03AFF1B4B1B68012118461B
S31508001B7005F044FF0346002B0CBF01230023DBB20C
S31508001B80002B00D0F0E7144B1B68184605F018FF29
S31508001B90114B1B680221184605F030FF0346002B3F
S31508001BA00CBF01230023DBB2002B00D0F0E7094B62
S31508001BB01B681021184605F00BFD0023FB60FB6827
S31508001BC0092B03DCFB680133FB60F8E700BF10371D
S31508001BD0BD4680BD040000200000002090B585B0F9
S31508001BE000AF03460A46FB711346BB7100237B818F
S31508001BF00023FB810023BB81FB79002B02D0032B3A
S31508001C0018D02FE0BB79012B09D0022B0CD0002B62
S31508001C1000D029E04323FB814423BB8109E0452307
S31508001C20FB814623BB8104E04723FB814823BB8114
S31508001C3000BF19E0BB79012B09D0022B0CD0002B71
S31508001C4000D011E03B23FB813C23BB8109E03D2307
S31508001C50FB813E23BB8104E03F23FB814023BB81FC
S31508001C6000BF01E07B890FE0FB891846FFF79EFE5F
S31508001C7003461B029CB2BB891846FFF797FE03462C
S31508001C8023449BB27B817B891BB218461437BD4619
S31508001C9090BD00BF80B500AF00216B20FFF716FF8F
S31508001CA0EE216C20FFF712FF10216A20FFF70EFFC6
S31508001CB006216820FFF70AFF00211A20FFF706FF12
S31508001CC018211B20FFF702FF18211C20FFF7FEFE34
S31508001CD000BF80BD0000000090B583B000AF4FF094
S31508001CE000037B600023FB70FB780133132B1BDC9E
S31508001CF0FB780133FA782E4992000A4412682C4977
S31508001D009B000B441A60FB780133294A9B00134455
S31508001D10D3ED007A97ED017A77EE277AC7ED017A47
S31508001D20FB780133FB70DFE701210320FFF756FF3D
S31508001D30034607EE903AF8EEE77A1D4BC3ED007AB4
S31508001D401B4BD3ED007A97ED017A77EE277AC7ED2C
S31508001D50017A97ED017AF3EE046AC7EE267A154BF7
S31508001D60C3ED007A134B93ED007A134BD3ED007A4B
S31508001D7077EE677A9FED117AC7EE876A16EE900AB4
S31508001D80FEF7D4FB08A3D3E90023FEF74DFD03466F
S31508001D900C4618462146FEF7D7FE0246084B1A603F
S31508001DA000BF0C37BD4690BD9A99999999992340D9
S31508001DB04C090020B4080020B8080020000000459F
S31508001DC0BC08002080B582B000AF4FF000037B60EE
S31508001DD000233B60F7EE006A9FED167AC6EE877A17
S31508001DE0FDEEE77A17EE902A3B689A4210DD00F07E
S31508001DF023F8B0EE407AD7ED017A77EE877AC7ED09
S31508001E00017A012005F0E2F83B6801333B60E1E71F
S31508001E103B68013307EE903AF8EEE77A97ED017AD8
S31508001E20C7EE276AF0EE667AB0EE670A0837BD464F
S31508001E3080BD00BF6F12833A80B400AF044B1B68A5
S31508001E4007EE903AB0EE670ABD465DF8047B704728
S31508001E50B408002080B500AFFFF7B4FFF0EE407A73
S31508001E60024BC3ED007A00BF80BD00BFB808002052
S31508001E7080B400AF044B1B6807EE903AB0EE670AD1
S31508001E80BD465DF8047B7047BC08002080B500AFEE
S31508001E9002210020FFF7A2FE03469BB25B429BB2DB
S31508001EA09AB2024B1A8000BF80BD00BFC00800204E
S31508001EB080B400AF034B1B881BB21846BD465DF8BD
S31508001EC0047B7047C008002080B582B000AF0023AD
S31508001ED07B6000233B60F0EE006A9FED137AC6EE46
S31508001EE0877AFDEEE77A17EE902A3B689A420DDD6F
S31508001EF0FFF7DEFF03461A467B6813447B60012022
S31508001F0005F064F83B6801333B60E4E73B6801335E
S31508001F107A6892FBF3F307EE903AF8EEE77AB0EEBA
S31508001F20670A0837BD4680BD6F12833A80B500AF91
S31508001F30FFF7CAFFF0EE407A024BC3ED007A00BF06
S31508001F4080BD00BFCC08002080B400AF064B4FF020
S31508001F5000021A60054B4FF000021A6000BFBD462A
S31508001F605DF8047B704700BFC4080020C80800203D
S31508001F7080B400AF094BD3ED007A9FED097A27EEBE
S31508001F80877A084BD3ED007A77EE277A054BC3EDAF
S31508001F90007A00BFBD465DF8047B7047D008002074
S31508001FA06F12833AC808002080B400AF044B1B6840
S31508001FB007EE903AB0EE670ABD465DF8047B7047B7
S31508001FC0C80800200000000098B500AF164B1B8813
S31508001FD01BB207EE903AB8EEE77A144BD3ED007AC7
S31508001FE077EE677A17EE900AFEF7A0FA0CA3D3E904
S31508001FF00023FEF719FC03460C4618462146FEF751
S31508002000A3FD034600EE103A04F08EFFF0EE407A88
S31508002010074BC3ED007A00BF98BD00BFAFF3008041
S315080020206666666666663040C0080020CC080020F2
S31508002030D008002080B400AF044B1B6807EE903A26
S31508002040B0EE670ABD465DF8047B7047D0080020ED
S3150800205090B585B000AF4FF00003FB604FF000036A
S31508002060BB600023FB71FB790133452B33D8FB7921
S315080020700133FA796C4992000A4412686A499B004E
S315080020800B441A60FB790133674A9B001344D3ED6E
S31508002090007A97ED037A77EE277AC7ED037AFB790C
S315080020A00133FA79614992000A4412685F499B0034
S315080020B00B441A60FB7901335C4A9B001344D3ED49
S315080020C0007A97ED027A77EE277AC7ED027AFB79DE
S315080020D00133FB71C7E7564B5B6A07EE903AF8EE99
S315080020E0677A9FED547A77EE677A17EE900AFEF7CD
S315080020F01DFA47A3D3E90023FEF76CFA03460C46FC
S315080021001846214644A3D3E90023FEF78DFB034670
S315080021100C461846214642A3D3E90023FEF75AFA8D
S3150800212003460C4618462146FEF70EFD02463E4B70
S315080021301A604FF080435B6A07EE903AF8EE677ACA
S315080021409FED3C7A77EEC77A17EE900AFEF7EEF91E
S315080021502FA3D3E90023FEF73DFA03460C4618469B
S3150800216021462DA3D3E90023FEF75EFB03460C4662
S31508002170184621462AA3D3E90023FEF72BFA03467D
S315080021800C4618462146FEF7DFFC0246274B1A6026
S315080021904FF0804347F6FA725A62254B47F6FA72B1
S315080021A05A62214BD3ED007A97ED037A77EE277AB8
S315080021B0C7ED037A1C4BD3ED007A97ED027A77EEDA
S315080021C0277AC7ED027A97ED037ADFED1B6AC7EE29
S315080021D0267A1A4BC3ED007A97ED027ADFED166A76
S315080021E0C7EE267A164BC3ED007A144B93ED007AA8
S315080021F0134BD3ED007A37EE277AF0EE006AC7EE76
S31508002200267A104BC3ED007A00BF1437BD4690BD41
S315080022105D8940F50F22593FFCA9F1D24D62503F26
S3150800222079E9263108AC7C3F9C090020B40A0020D5
S315080022300004004000F4FF4600008C42DC08002041
S31508002240D8080020E008002080B500AFFFF710FE90
S31508002250B0EE407AF3EE047A67EE277A9FED077AB6
S3150800226067EE877AF0EE006A87EEA67A044BD3ED1E
S31508002270007A77EE277AB0EE670A80BD6F12833A46
S31508002280E008002080B584B000AF03460A46FB711B
S315080022901346BB71FB79042B23D801A252F823F00D
S315080022A0B5220008B5220008BF220008CB22000884
S315080022B0D7220008144BFB6004237B8111E0134BE3
S315080022C0FB604FF400637B810BE0104BFB604FF41F
S315080022D080637B8105E00D4BFB604FF480537B8167
S315080022E000BFBB79002B05D07B891946F86805F035
S315080022F06FF904E07B891946F86805F079F900BF9B
S315080023001037BD4680BD00BF000C024000080240E1
S3150800231080B584B000AF0346FB71FB79042B26D841
S3150800232001A252F823F000BF3D2300084723000806
S31508002330512300085B230008652300081E4BBB6079
S315080023400F23FB7313E01C4BBB600B23FB730EE0E0
S31508002350194BBB600823FB7309E0174BBB600A23C4
S31508002360FB7304E0144BBB600E23FB7300BF022112
S31508002370B86805F05BF8F97B00230122B86804F019
S3150800238037FFB86804F0FEFF0221B86805F034F894
S315080023900346002B0CBF01230023DBB2002B00D021
S315080023A0F2E7B86804F0FEFF03461B119BB2184615
S315080023B01037BD4680BD00BF0020014080B582B001
S315080023C000AF0346FB71FB7901211846FFF75AFF58
S315080023D000BF0837BD4680BD80B582B000AF034652
S315080023E0FB71FB7900211846FFF74CFF00BF083741
S315080023F0BD4680BD80B500AF0020FFF7EDFF012088
S31508002400FFF7EAFF0220FFF7E7FF0320FFF7E4FFE5
S3150800241000BF80BDB0B485B000AF03460A46FB7165
S315080024201346BB800023FB8100237B737B7B013330
S31508002430132B29DCFA797B7B581CF9797C7B444D74
S315080024400B469B000B449B00234435F81340404938
S3150800245013469B0013449B000344224621F813208D
S31508002460FA797B7B591C3A4813469B0013449B0018
S315080024700B4430F813309AB2FB8913449BB2FB81A4
S315080024807B7B01337B73D1E7FA79314913469B008D
S315080024901344DB000B44BA881A80FA89BB881344B4
S315080024A09BB2FB81FB79042B4DD801A252F823F08D
S315080024B0C5240008DF240008F924000813250008AD
S315080024C02D250008B7F90E30224A82FB0312D210D6
S315080024D0DB17D31A9BB21BB21F4A136033E0B7F956
S315080024E00E301C4A82FB0312D210DB17D31A9BB29A
S315080024F01BB21A4A136026E0B7F90E30154A82FB5A
S315080025000312D210DB17D31A9BB21BB2144A1360FC
S3150800251019E0B7F90E300F4A82FB0312D210DB1707
S31508002520D31A9BB21BB20F4A13600CE0B7F90E30F0
S31508002530084A82FB0312D210DB17D31A9BB21BB2CE
S31508002540094A136000BF00BF1437BD46B0BC7047C8
S31508002550CC0B002067666666E4080020E8080020C1
S31508002560EC080020F0080020F408002090B589B097
S3150800257000AF0346FB71FFF73DFF0020FFF7C8FEDB
S3150800258003469BB21BB21946002000F025F9FB79D9
S31508002590002B0CD00020FFF711FF0023FB61FB691D
S315080025A0B3F57A7F03DAFB690133FB61F7E70020AD
S315080025B0FFF7AEFE03461C46002000F0D1F803469E
S315080025C09BB2E31A9BB29BB21BB219460020FFF7D7
S315080025D021FF0020FFF700FF0021012000F0FCF892
S315080025E00120FFF795FE03469BB21BB21946012050
S315080025F000F0F2F8FB79002B0CD00120FFF7DEFE85
S315080026000023BB61BB69B3F57A7F03DABB69013383
S31508002610BB61F7E70120FFF77BFE03461C46012056
S3150800262000F09EF803469BB2E31A9BB29BB21BB21C
S3150800263019460120FFF7EEFE0120FFF7CDFE022026
S31508002640FFF766FE03469BB21BB21946022000F04E
S31508002650C3F8FB79002B0CD00220FFF7AFFE00234E
S315080026607B617B69B3F5FA6F03DA7B6901337B61BA
S31508002670F7E70220FFF74CFE03461C46022000F04F
S315080026806FF803469BB2E31A9BB29BB21BB219467C
S315080026900220FFF7BFFE0220FFF79EFE0320FFF78A
S315080026A037FE03469BB21BB21946032000F094F886
S315080026B0FB79002B0CD00320FFF780FE00233B613B
S315080026C03B69B3F57A7F03DA3B6901333B61F7E788
S315080026D00320FFF71DFE03461C46032000F040F8C2
S315080026E003469BB2E31A9BB29BB21BB21946032060
S315080026F0FFF790FE0320FFF76FFE0420FFF708FEA2
S3150800270003469BB21BB21946042000F065F8FB7914
S31508002710002B0CD00420FFF751FE0023FB60FB685A
S31508002720B3F57A7F03DAFB680133FB60F7E7042029
S31508002730FFF7EEFD03461C46042000F011F8034699
S315080027409BB2E31A9BB29BB21BB219460420FFF751
S3150800275061FE0420FFF740FE00BF2437BD4690BD4A
S3150800276080B483B000AF0346FB71FB79042B21D8F4
S3150800277001A252F823F000BF8D270008952700080C
S315080027809D270008A5270008AD2700080D4B1B68E4
S315080027909BB210E00C4B1B689BB20CE00B4B1B6802
S315080027A09BB208E00A4B1B689BB204E0094B1B6806
S315080027B09BB200E000231BB218460C37BD465DF8F5
S315080027C0047B7047F8080020FC0800200009002058
S315080027D0040900200809002080B483B000AF03462E
S315080027E00A46FB711346BB80FB79042B25D801A248
S315080027F052F823F009280008132800081D280008A5
S315080028002728000831280008B7F904300E4A136053
S3150800281013E0B7F904300D4A13600EE0B7F9043037
S315080028200B4A136009E0B7F904300A4A136004E05A
S31508002830B7F90430084A136000BF00BF0C37BD461D
S315080028405DF8047B704700BFF8080020FC080020EC
S3150800285000090020040900200809002080B483B07C
S3150800286000AF0346FB71FB79042B21D801A252F86D
S3150800287023F000BF89280008912800089928000835
S31508002880A1280008A92800080D4B1B689BB210E078
S315080028900C4B1B689BB20CE00B4B1B689BB208E009
S315080028A00A4B1B689BB204E0094B1B689BB200E00D
S315080028B000231BB218460C37BD465DF8047B7047EB
S315080028C0E4080020E8080020EC080020F0080020B2
S315080028D0F408002090B583B000AF0346FB71FB797E
S315080028E0012B2BD0022B15D0002B3BD10020FFF754
S315080028F0B5FF03461C46002002F068FA03469C42D0
S31508002900ACBF01230023DBB2002B01D001232AE050
S31508002910002328E00320FFF7A1FF03461C460320F7
S3150800292002F054FA03469C42ACBF01230023DBB2F3
S31508002930002B01D0012316E0002314E00420FFF742
S315080029408DFF03461C46042002F040FA03469C42CB
S31508002950ACBF01230023DBB2002B01D0012302E028
S31508002960002300E0002318460C37BD4690BD00BF83
S3150800297090B583B000AF0346FB71FB79012B0ED1EE
S315080029800320FFF76BFF03461C46032002F01EFADE
S3150800299003469C42ACBF01230023DBB20FE0FB7960
S315080029A01846FFF75BFF03461C46FB79184602F0FC
S315080029B00DFA03469C42ACBF01230023DBB218463E
S315080029C00C37BD4690BD00BF80B483B000AF034648
S315080029D0FB71FB79012B1DD0022B35D0002B4DD175
S315080029E02B4BD3ED007AB3EE0E7A27EE877A284B77
S315080029F0D3ED017ADFED276A67EEA67A37EE277AF6
S31508002A00234BD3ED027ADFED246A67EEA67A77EEDA
S31508002A10277A35E0214BD3ED007A9FED217A27EE10
S31508002A20877A1E4BD3ED017ADFED1E6A67EEA67A2A
S31508002A3037EE277A194BD3ED027ADFED176A67EE80
S31508002A40A67A77EE277A1BE0174BD3ED007A9FED2F
S31508002A50177A27EE877A144BD3ED017ADFED0E6AE3
S31508002A6067EEA67A37EE277A0F4BD3ED027ADFEDBB
S31508002A700A6A67EEA67A77EE277A01E0DFED067A2C
S31508002A80B0EE670A0C37BD465DF8047B704700BF99
S31508002A901009002000001643000000002809002045
S31508002AA00000FA430080BB441C090020CDCCCC3D75
S31508002AB0B0B52DED028B86B000AF4FF000037B61F9
S31508002AC04FF000033B61A84B1B68FB6002F05CFA01
S31508002AD0B0EE408AFFF7B8FBF0EE407A78EE677AF8
S31508002AE0A14BC3ED007AA04B5B681846FDF71EFDA7
S31508002AF004460D469C4B1B681846FDF717FD98A320
S31508002B00D3E90023FDF766FD02460B462046294613
S31508002B10FDF7AEFB03460C4618462146FEF714F8A9
S31508002B200246914B5A60914B1B68FB604FF00003BD
S31508002B303B604FF00003BB604FF000037B60002052
S31508002B40FFF716FF0346002B06D000F0A7FA034648
S31508002B50002B01D0012300E00023002B3ED00020EB
S31508002B6002F008F907EE900AF8EE677AC7ED027ADE
S31508002B700020FFF773FE034607EE903AF8EEE77A71
S31508002B80C7ED017A97ED017AD7ED027A77EE677A83
S31508002B90C7ED007AD7ED007AF5EEC07AF1EE10FAB5
S31508002BA00CD5D7ED007ABBEE0E7AF4EEC77AF1EEC5
S31508002BB010FA4CBF01230023DBB20BE0D7ED007AF5
S31508002BC0B3EE0E7AF4EEC77AF1EE10FACCBF012313
S31508002BD00023DBB2002B01D03B687B610320FFF7A3
S31508002BE0C7FE0346002B06D000F058FA0346002B12
S31508002BF001D0012300E00023002B3ED0032002F081
S31508002C00B9F807EE900AF8EE677AC7ED027A03205C
S31508002C10FFF724FE034607EE903AF8EEE77AC7ED8B
S31508002C20017A97ED017AD7ED027A77EE677AC7EDE2
S31508002C30007AD7ED007AF5EEC07AF1EE10FA0CD5E7
S31508002C40D7ED007ABBEE0E7AF4EEC77AF1EE10FAFB
S31508002C504CBF01230023DBB20BE0D7ED007AB3EEBD
S31508002C600E7AF4EEC77AF1EE10FACCBF01230023F0
S31508002C70DBB2002B01D03B683B6102F085F9B0EE70
S31508002C80407AF4EE007AB4EEE77AF1EE10FA4CBF29
S31508002C9001230023DBB2002B05D04FF000033B6174
S31508002CA04FF000037B6197ED057AD7ED047A77EE4E
S31508002CB0677A2E4BC3ED007A2D4B1B68FB6002F03A
S31508002CC081F9B0EE408AFFF7B5F9F0EE407A78EE72
S31508002CD0677A274BC3ED007A254B5B681846FDF7E4
S31508002CE025FC04460D46224B1B681846FDF71EFCBC
S31508002CF01BA3D3E90023FDF76DFC02460B462046CD
S31508002D002946FDF7B5FA03460C4618462146FDF74F
S31508002D101BFF0246164B5A60144BD3ED007AF5EEAC
S31508002D20407AF1EE10FA06D000F0B8F90346002B07
S31508002D3001D0012300E00023002B04D00C4B4FF0F8
S31508002D4000025A6003E0094B4FF000025A6000BFC8
S31508002D501837BD46BDEC028BB0BD00BFAFF300808F
S31508002D60FCA9F1D24D62503F280900201C09002019
S31508002D701009002080B500AF0120FFF725FEF0EE10
S31508002D80407AB0EE670A80BD80B52DED028B00AFA4
S31508002D900D4B1B78002B0CD00020FFF715FEB0EE6C
S31508002DA0408A0220FFF710FEF0EE407A78EE677A46
S31508002DB004E00020FFF708FEF0EE407AB0EE670A5E
S31508002DC0BD46BDEC028B80BD3509002080B400AF3E
S31508002DD0034B01221A7000BFBD465DF8047B70479D
S31508002DE03509002080B400AF034B00221A7000BFDB
S31508002DF0BD465DF8047B70473509002080B400AFF6
S31508002E00034B01221A7000BFBD465DF8047B70476C
S31508002E103409002080B400AF034B00221A7000BFAB
S31508002E20BD465DF8047B70473409002080B52DED5A
S31508002E30028B82B000AF0346FB7197F90730002B6F
S31508002E400AD1FFF797FFB0EE408AFFF79DFFF0EE35
S31508002E50407A78EE677A09E0FFF78CFFB0EE408A91
S31508002E60FFF792FFF0EE407A78EE277AB0EE670A1F
S31508002E700837BD46BDEC028B80BD00BF00000000D0
S31508002E80B0B52DED028B84B000AF0346FB7197F900
S31508002E900730002B18D102F077F8B0EE408A02F01E
S31508002EA091F8B0EE407ADFED487A67EE277AF0EED1
S31508002EB0006A87EEA67ADFED456AC7EE267A78EECF
S31508002EC0677AC7ED037A17E002F05EF8B0EE408A3B
S31508002ED002F078F8B0EE407ADFED3B7A67EE277AB3
S31508002EE0F0EE006A87EEA67ADFED386AC7EE267A34
S31508002EF078EE277AC7ED037AF868FDF717FB2EA355
S31508002F00D3E90023FDF790FC03460C4618462146F4
S31508002F104FF000022E4BFDF75DFB03460C461846A4
S31508002F2021464FF000022B4BFDF77EFC03460C466C
S31508002F30184621464FF00002274BFDF74BFB034688
S31508002F400C46184621464FF00002244BFDF76CFC50
S31508002F5003460C461846214619A3D3E90023FDF774
S31508002F6063FC03460C4625461C46FEF791F910EE0F
S31508002F70103A1846FDF7DAFA02460B462046294665
S31508002F80FDF752FC03460C46184621464FF0000250
S31508002F90134BFDF71FFB03460C4618462146FDF763
S31508002FA0D3FD034607EE903AB0EE670A1037BD46E2
S31508002FB0BDEC028BB0BD00BFDFB035A7070F073FDA
S31508002FC03333333333D36B400000304200007A4446
S31508002FD000804440000022400000164000001240D5
S31508002FE00000594080B582B000AF00F04BF80346A8
S31508002FF0002B3FD0214B1B78002B03D1204B1B788D
S31508003000002B37D04FF000037B604FF000033B6086
S315080030101A4B1B78002B09D00020FFF731FF87EDEC
S31508003020010A0220FFF72CFF87ED000A144B1B78D4
S31508003030002B15D00020FFF7F9FEB0EE407AD7ED49
S31508003040017A77EE877AC7ED017A0220FFF7EEFE5E
S31508003050B0EE407AD7ED007A77EE877AC7ED007A38
S3150800306097ED010A0120FEF77BFB97ED000A002089
S31508003070FEF776FB00BF0837BD4680BD360900203F
S315080030800800002080B400AF034B1B781846BD46E5
S315080030905DF8047B704700BF3409002080B400AF98
S315080030A0034B1B781846BD465DF8047B704700BF86
S315080030B03509002080B400AF144B4FF000021A60A7
S315080030C0124B4FF000025A60104B4FF000029A6004
S315080030D00F4B4FF000021A600D4B4FF000025A607A
S315080030E00B4B4FF000029A600A4B4FF000021A6031
S315080030F0084B4FF000025A60064B4FF000029A60E8
S3150800310000BFBD465DF8047B704700BF100900206C
S315080031101C0900202809002080B483B000AF0346AC
S315080031203960FB7197F90730002B0BDA0D49FB79EB
S3150800313003F00F03043B3A68D2B21201D2B20B4431
S315080031401A7609E0084997F907303A68D2B21201A7
S31508003150D2B20B4483F8002300BF0C37BD465DF896
S31508003160047B704700ED00E000E100E080B582B026
S3150800317000AF78607B68013BB3F1807F01D3012300
S315080031800FE00A4A7B68013B53600F214FF0FF307E
S31508003190FFF7C2FF054B00229A60044B07221A600C
S315080031A0002318460837BD4680BD00BF10E000E082
S315080031B080B500AF00F00EF800F024F800F0F8F83B
S315080031C000F05EF900F0A2F900F008FA00F0D4FA6F
S315080031D000BF80BD80B584B000AF03F0EFFD3B466D
S315080031E0184604F05FFA7B68054AA2FB03239B098D
S315080031F01846FFF7BBFF00BF1037BD4680BD00BFAE
S31508003200D34D621080B582B000AF634A624B1B682B
S3150800321023F0847323F4803313600121012004F022
S31508003220EBFA0121022004F0E7FA0121042004F058
S31508003230E3FA0121082004F0DFFA0121802004F0D6
S31508003240DBFA3B46184604F08FF949F210033B6057
S3150800325002237B7101233B710023BB710023FB71A1
S315080032603B4619464D4804F0F1F84FF480433B605D
S315080032703B4619464A4804F0E9F84FF480433B6058
S3150800328000233B710123FB713B461946434804F072
S31508003290DDF83B46184604F067F94DF60C433B60EB
S315080032A002237B7101233B710023BB710023FB7151
S315080032B03B4619463B4804F0C9F80421394804F04E
S315080032C087F90821374804F083F94FF480613548B7
S315080032D004F07EF94FF40061324804F079F94FF4AE
S315080032E08051304804F074F94FF480412D4804F0B9
S315080032F06FF94FF400412B4804F06AF93B4618462B
S3150800330004F032F903233B6002237B7101233B71EE
S315080033100023BB710023FB713B461946224804F083
S3150800332095F80121204804F053F902211E4804F0BB
S315080033304FF93B46184604F017F94FF4E0533B6043
S3150800334002237B7101233B710023BB710023FB71B0
S315080033503B461946134804F079F804233B603B467C
S315080033601946124804F072F84FF480610D4804F0CB
S315080033703FF94FF400610B4804F03AF94FF48051D5
S31508003380084804F035F90421084804F031F900BF6B
S315080033900837BD4680BD00BF003802400004024021
S315080033A00000024000080240001C0240000C0240D7
S315080033B080B58CB000AF0121022004F01DFA01216E
S315080033C0042004F019FA07F12803184604F0CCF88B
S315080033D0032387F82C30002387F82F30022387F839
S315080033E02D300323BB6207F128031946214804F050
S315080033F02DF83323BB6207F1280319461E4804F04B
S3150800340025F800211D4803F0D7FE01214FF48070EE
S3150800341004F032FA03F044FE00233B604FF4803395
S315080034207B600023BB604FF47063FB603B46184625
S3150800343003F09AFE00233B6100233B7500237B754E
S315080034400023BB6100233B62092387F8243007F178
S3150800345010031946094803F031FE0121074803F015
S31508003460ABFE0021054803F0ABFF00BF3037BD4671
S3150800347080BD00BF00040240000802400020014051
S3150800348080B586B000AF0121102004F0F5F90121BE
S31508003490012004F0B1F9072209211A4804F0B8F806
S315080034A007220A21174804F0B3F84FF4C0633B61BA
S315080034B002237B7502233B7507F110031946114851
S315080034C003F0C4FF4FF4E1333B600023BB800023C5
S315080034D0FB8000233B810023BB810C237B813B4679
S315080034E01946094804F00EFD012240F22551064806
S315080034F004F0F6FD0121044804F0C0FD00BF1837AA
S31508003500BD4680BD000002400010014080B588B06D
S3150800351000AF01214FF4805004F0AEF901210120DB
S3150800352004F06AF907F11803184604F01DF8102389
S31508003530BB6101233B7703237B770023BB770023FB
S31508003540FB7707F118031946224803F07FFF022389
S315080035503B77E023BB6107F1180319461D4803F0C2
S3150800356075FF10211B4804F033F805220521194878
S3150800357004F04EF805220621164804F049F80522FB
S315080035800721144804F044F80023BB804FF48273E3
S31508003590FB8000233B8100237B810023BB814FF402
S315080035A04073FB8110233B8200237B820723BB8267
S315080035B03B1D1946084804F09FF90121064804F006
S315080035C0DFF91021034804F003F800BF2037BD4691
S315080035D080BD00BF000002400030014080B58AB0BF
S315080035E000AF0121012004F007F90121022004F0AF
S315080035F003F904233B62032387F82530012387F860
S315080036002430002387F82630012387F8273007F16E
S3150800361020031946534803F019FF0421514803F0C3
S31508003620E7FF0121042004F007F90121082004F02E
S3150800363003F903233B62022387F82430022387F821
S315080036402530002387F82630002387F8273007F12E
S3150800365020031946434803F0F9FEC0233B6207F1ED
S3150800366020031946404803F0F1FE40F2EB43BB61E4
S315080036700023BB820023BB830023FB820023BB7786
S3150800368007F114031946394804F0D4F907F114036D
S315080036901946374804F0CEF960233B800023BB81E6
S315080036A001237B800023BB603B4619462F4804F064
S315080036B07BFA08212D4804F079FB3B4619462B482E
S315080036C004F0ECFA0821294804F08CFB3B4619461D
S315080036D0274804F069FA0821254804F067FB3B46A9
S315080036E01946234804F0DAFA0821214804F07AFB3F
S315080036F001214FF0804004F017FA01214FF0804075
S3150800370004F08EFB01211B4804F00EFA012119482A
S3150800371004F086FB02220621134803F079FF0222F1
S315080037200721114803F074FF022200210D4803F017
S315080037306FFF022201210B4803F06AFF01210B48A3
S3150800374004F0F2F901210A4804F0EEF901210748CC
S3150800375004F00AFA0121064804F006FA00BF2837E1
S31508003760BD4680BD0000024000040240000800403B
S31508003770000C00400004004080B586B000AF01216F
S31508003780022004F039F80121042004F035F801215B
S31508003790012004F051F80121022004F04DF802221C
S315080037A00621394803F034FF02220721364803F080
S315080037B02FFF01220F21354803F02AFF012203219A
S315080037C0334803F025FF07F11003184603F0CCFE33
S315080037D0C0233B6102233B7502237B750023BB751F
S315080037E00023FB7507F110031946274803F02EFE40
S315080037F04FF400433B6107F110031946234803F0D1
S3150800380025FE08233B6107F110031946204803F0FB
S315080038101DFE4FF6FE73BB600023BB800023BB81F1
S315080038200023FB800023BB733B1D19464FF08040E5
S3150800383004F000F93B1D1946164804F0FBF84FF64C
S31508003840FF714FF0804004F061F900230022032144
S315080038504FF0804004F00AFB01214FF0804004F04D
S3150800386083F94FF6FF710B4804F050F90023002244
S315080038700321084804F0FAFA0121064804F074F90D
S3150800388000BF1837BD4680BD000802400000024050
S315080038900004024000040040F0B52DED028B87B00D
S315080038A002AF0023FB81B7F90E30632B1CDC002323
S315080038B0FB80FB889BB21BB242F20F729342D4BFC5
S315080038C001230023DBB2002B08D0FB889BB29BB2F6
S315080038D09BB201339BB29BB2FB80EAE7FB899BB2A2
S315080038E001339BB2FB81DEE7FFF762FC01F0E6FAE3
S315080038F0FDF7CEFC10EE103A1846FCF717FE034605
S315080039000C461A462346A74803F0D8F9FDF782FE67
S31508003910FDF7BEFCB0EE407AF1EE007AB4EEE77A37
S31508003920F1EE10FA4CBF01230023DBB2002B1AD0AC
S31508003930FDF79EFE4FF4FA7003F048FBFDF76AFEAA
S315080039404FF4FA7003F042FB4FF48041964803F0B7
S3150800395025FE0346002B0CBF01230023DBB2002BF8
S3150800396000D1E5E700BFFEF795F90020FEF776FFE0
S31508003970034619468D4803F0A1F90120FEF76EFFAC
S31508003980034619468A4803F099F90220FEF766FFAE
S3150800399003461946874803F091F90320FEF75EFFB0
S315080039A003461946844803F089F90420FEF756FFB2
S315080039B003461946814803F081F9002001F0DAF937
S315080039C007EE900AB8EE678A0020FEF747FF03461F
S315080039D007EE903AF8EEE77A78EE677A17EE900AED
S315080039E0FCF7A4FD03460C461A462346744803F022
S315080039F065F9744803F062F9642003F0E7FA0420D5
S31508003A00FEF72CFF03461846FCF77EFD04460D46D6
S31508003A10042001F0DBF903461846FCF775FD4FF064
S31508003A200002694BFCF7D6FD02460B4611461A46BC
S31508003A3001231E4613460A4620462946FDF75AF82C
S31508003A400346002B01D100231E46F3B2002B00D1FA
S31508003A508BE700BF4FF47A710320FDF75DFE042063
S31508003A60FEF7FCFE03461846FCF74EFD04460D46D7
S31508003A70042001F0ABF903461846FCF745FD4FF064
S31508003A800002514BFCF7A6FD02460B4611461A46A4
S31508003A9001231E4613460A4620462946FDF70CF81A
S31508003AA00346002B01D100231E46F3B2002B05D096
S31508003AB0012264210820FDF709FED0E7FDF7AAFDDB
S31508003AC000F028FE414800F0E5FE404800F0A4FE5C
S31508003AD00021002001F0D6FA012001F039FB4FF44D
S31508003AE0FA710320FDF718FE0121012001F062FC9E
S31508003AF0FDF790FD00220021012002F031FF344B32
S31508003B00344A1A600020DFED340A9FED340A02F0C9
S31508003B1045FA0520FDF7E6FB4FF47A7003F056FAEE
S31508003B20FDF7F4FEFDF776FD4FF480411E4803F0DD
S31508003B3035FD0346012B0CBF01230023DBB2002B06
S31508003B4000D0F1E70023BB60BB68B3F5FA6F21DA52
S31508003B501F4ABB689B0013441B681846FCF7E6FC23
S31508003B6005460E461A4ABB6803F51C5310339B00DC
S31508003B7013441B681846FCF7D9FC03460C46CDE9E6
S31508003B8000342A463346164803F098F8BB680133D2
S31508003B90BB60D9E7012318461437BD46BDEC028B36
S31508003BA0F0BD00BF90BE0008000402409CBE00089D
S31508003BB0A8BE0008B4BE0008C0BE0008CCBE0008F7
S31508003BC0D8BE0008E0BE00080000F83F40480120C3
S31508003BD0980C0020000080BF00000000713D0A3FDD
S31508003BE0E4BE000898B500AF4FF480413D4803F0A5
S31508003BF0EFFC3D4B1B6801333B4A136001F06AF941
S31508003C000120FEF7B3FCFEF741F9FEF7DDF9FEF7F2
S31508003C10AFF9FEF761F8FEF71BFA01F099FBFEF71C
S31508003C2047FFFFF7DFF9FDF7B5FE0346002B51D036
S31508003C302E4B1B889BB2002B0CBF01230023DBB243
S31508003C40002B11D02A4BD3ED007ABFEE007AF4EEA2
S31508003C50477AF1EE10FA3DD1244B1B889BB201330B
S31508003C609AB2224B1A8035E0204B1B889BB242F24F
S31508003C700F72934294BF01230023DBB2002B29D095
S31508003C801A4B1B889BB218461A4B1A6818498300A8
S31508003C900B441A60154B1B889BB21C460020FEF786
S31508003CA0DDFD034607EE903AF8EEE77A104A04F58A
S31508003CB01C5310339B001344C3ED007A0B4B1B882F
S31508003CC09BB201339AB2094B1A804FF480410548DA
S31508003CD003F08EFC4FF48041024803F089FC00BFD4
S31508003CE098BD00BF00000240940C00201845012032
S31508003CF0980C00201C09002080B485B000AF7860BD
S31508003D000B46FB701346BB70BB78002B02D0012311
S31508003D10FB7301E00023FB73FB781F2B00F2848101
S31508003D2001A252F823F000BFA93D0008BD3D0008D6
S31508003D30D13D0008E53D0008F93D00080D3E0008A4
S31508003D40213E0008353E0008493E00085D3E000851
S31508003D50713E0008853E0008993E0008AD3E000801
S31508003D60C13E0008D53E0008E93E0008FD3E0008B1
S31508003D70113F0008253F0008393F00084D3F00085D
S31508003D80613F0008753F0008893F00089D3F00080D
S31508003D90B13F0008C53F0008D93F0008ED3F0008BD
S31508003DA00140000815400008FB7B03F00103D9B267
S31508003DB07A68137861F30003137035E1FB7B03F02F
S31508003DC00103D9B27A68137861F3410313702BE1C2
S31508003DD0FB7B03F00103D9B27A68137861F3820397
S31508003DE0137021E1FB7B03F00103D9B27A681378DB
S31508003DF061F3C303137017E1FB7B03F00103D9B228
S31508003E007A68137861F3041313700DE1FB7B03F0F2
S31508003E100103D9B27A68137861F34513137003E185
S31508003E20FB7B03F00103D9B27A68137861F3861332
S31508003E301370F9E0FB7B03F00103D9B27A681378B3
S31508003E4061F3C7131370EFE0FB7B03F00103D9B2EC
S31508003E507A68537861F300035370E5E0FB7B03F05F
S31508003E600103D9B27A68537861F341035370DBE0F2
S31508003E70FB7B03F00103D9B27A68537861F38203B6
S31508003E805370D1E0FB7B03F00103D9B27A6853780B
S31508003E9061F3C3035370C7E0FB7B03F00103D9B298
S31508003EA07A68537861F304135370BDE0FB7B03F023
S31508003EB00103D9B27A68537861F345135370B3E0B6
S31508003EC0FB7B03F00103D9B27A68537861F3861352
S31508003ED05370A9E0FB7B03F00103D9B27A685378E3
S31508003EE061F3C71353709FE0FB7B03F00103D9B25C
S31508003EF07A68937861F30003937095E0FB7B03F08F
S31508003F000103D9B27A68937861F3410393708BE021
S31508003F10FB7B03F00103D9B27A68937861F38203D5
S31508003F20937081E0FB7B03F00103D9B27A6893783A
S31508003F3061F3C303937077E0FB7B03F00103D9B207
S31508003F407A68937861F3041393706DE0FB7B03F052
S31508003F500103D9B27A68937861F34513937063E0E5
S31508003F60FB7B03F00103D9B27A68937861F3861371
S31508003F70937059E0FB7B03F00103D9B27A68937812
S31508003F8061F3C71393704FE0FB7B03F00103D9B2CB
S31508003F907A68D37861F30003D37045E0FB7B03F0BE
S31508003FA00103D9B27A68D37861F34103D3703BE051
S31508003FB0FB7B03F00103D9B27A68D37861F38203F5
S31508003FC0D37031E0FB7B03F00103D9B27A68D3786A
S31508003FD061F3C303D37027E0FB7B03F00103D9B277
S31508003FE07A68D37861F30413D3701DE0FB7B03F082
S31508003FF00103D9B27A68D37861F34513D37013E015
S31508004000FB7B03F00103D9B27A68D37861F3861390
S31508004010D37009E0FB7B03F00103D9B27A68D37841
S3150800402061F3C713D37000BF00BF1437BD465DF8F0
S31508004030047B704780B485B000AF78600B46FB7090
S315080040400023FB73FB781F2B00F2048101A252F8B0
S3150800405023F000BFD5400008E1400008ED40000805
S31508004060F940000805410008114100081D410008F3
S315080040702941000835410008414100084D41000822
S315080040805941000865410008714100087D41000852
S315080040908941000895410008A1410008AD41000882
S315080040A0B9410008C5410008D1410008DD410008B2
S315080040B0E9410008F5410008014200080D420008E0
S315080040C01942000825420008314200083D4200080E
S315080040D0494200083B79C3F30003DBB2FB73B9E03E
S315080040E03B79C3F34003DBB2FB73B3E03B79C3F31D
S315080040F08003DBB2FB73ADE03B79C3F3C003DBB2ED
S31508004100FB73A7E03B79C3F30013DBB2FB73A1E0B3
S315080041103B79C3F34013DBB2FB739BE03B79C3F3F4
S315080041208013DBB2FB7395E03B79C3F3C013DBB2B4
S31508004130FB738FE07B79C3F30003DBB2FB7389E083
S315080041407B79C3F34003DBB2FB7383E07B79C3F36C
S315080041508003DBB2FB737DE07B79C3F3C003DBB27C
S31508004160FB7377E07B79C3F30013DBB2FB7371E073
S315080041707B79C3F34013DBB2FB736BE07B79C3F344
S315080041808013DBB2FB7365E07B79C3F3C013DBB244
S31508004190FB735FE0BB79C3F30003DBB2FB7359E043
S315080041A0BB79C3F34003DBB2FB7353E0BB79C3F3BC
S315080041B08003DBB2FB734DE0BB79C3F3C003DBB20C
S315080041C0FB7347E0BB79C3F30013DBB2FB7341E033
S315080041D0BB79C3F34013DBB2FB733BE0BB79C3F394
S315080041E08013DBB2FB7335E0BB79C3F3C013DBB2D4
S315080041F0FB732FE0FB79C3F30003DBB2FB7329E003
S31508004200FB79C3F34003DBB2FB7323E0FB79C3F30B
S315080042108003DBB2FB731DE0FB79C3F3C003DBB29B
S31508004220FB7317E0FB79C3F30013DBB2FB7311E0F2
S31508004230FB79C3F34013DBB2FB730BE0FB79C3F3E3
S315080042408013DBB2FB7305E0FB79C3F3C013DBB263
S31508004250FB7300BFFB7B18461437BD465DF8047B2D
S31508004260704700BF80B584B000AF0346FB710B46AC
S31508004270BB7113467B71FB79FB73BB79BB737B7987
S31508004280002B02D07B79022B24D17B79002B08D016
S315080042907B79022B05D1FB79002B44D0FB79013BB6
S315080042A0FB73FB7B0F2B09D8BB7B9B00214A13446E
S315080042B0F97B01221846FFF71FFD37E001F04EFE95
S315080042C01D4802F0FBFC1D4802F0F8FC1C4802F0F1
S315080042D0F5FC2BE07B79012B02D07B79032B25D1CA
S315080042E07B79012B08D07B79032B05D1BB79002B71
S315080042F01BD0BB79013BBB73BB7B0F2B09D8FB7B60
S315080043009B00104A1344B97B01221846FFF7F4FCB8
S315080043100CE0094802F0D2FC0B4802F0CFFC084832
S3150800432002F0CCFC02E000BF00E000BF1037BD463B
S3150800433080BD00BF9C450120F0BE000800BF0008F4
S3150800434048BF0008DC45012064BF000880B584B07A
S3150800435000AF0346FB710B46BB7113467B71FB79B5
S31508004360FB73BB79BB737B79002B02D07B79022B5D
S315080043702BD17B79002B0AD07B79022B07D1FB79CD
S31508004380002B01D1012353E0FB79013BFB73FB7B37
S315080043900F2B0DD8BB7BF97B274A52F82300FFF772
S315080043A049FE0346002B14BF01230023DBB23FE07E
S315080043B001F0D4FD214802F081FC214802F07EFC80
S315080043C0204802F07BFC012332E07B79012B02D0E6
S315080043D07B79032B2BD17B79012B0AD07B79032B95
S315080043E007D1BB79002B01D1012321E0BB79013B21
S315080043F0BB73BB7B0F2B0DD8FB7BB97B124A52F8DC
S315080044002300FFF717FE0346002B14BF01230023E2
S31508004410DBB20DE001F0A2FD084802F04FFC0B48A4
S3150800442002F04CFC074802F049FC012300E0002397
S3150800443018461037BD4680BD9C450120F0BE0008D1
S3150800444054C000089CC00008DC450120B4C0000820
S3150800445080B584B000AF0346FB710B46BB711346AB
S315080044607B71FB79FB73BB79BB737B79002B02D01D
S315080044707B79022B22D17B79002B08D07B79022B02
S3150800448005D1FB79002B42D0FB79013BFB73FB7B03
S315080044900F2B09D8BB7B9B00204A1344F97B0122CA
S315080044A01846FFF729FC35E01D4802F007FC1D48B1
S315080044B002F004FC1C4802F001FC2BE07B79012B7E
S315080044C002D07B79032B25D17B79012B08D07B7908
S315080044D0032B05D1BB79002B1BD0BB79013BBB73E2
S315080044E0BB7B0F2B09D8FB7B9B00104A1344B97B77
S315080044F001221846FFF700FC0CE0094802F0DEFB33
S315080045000B4802F0DBFB084802F0D8FB02E000BFCC
S3150800451000E000BF1037BD4680BD00BF1C45012026
S31508004520F0BE0008FCC000083CC100085C4501203C
S3150800453054C1000880B584B000AF0346FB710B4632
S31508004540BB7113467B71FB79FB73BB79BB737B79B4
S31508004550002B02D07B79022B22D17B79002B08D045
S315080045607B79022B05D1FB79002B42D0FB79013BE5
S31508004570FB73FB7B0F2B09D8BB7B9B00204A13449C
S31508004580F97B00221846FFF7B7FB35E01D4802F015
S3150800459095FB1D4802F092FB1C4802F08FFB2BE0AE
S315080045A07B79012B02D07B79032B25D17B79012BD3
S315080045B008D07B79032B05D1BB79002B1BD0BB799F
S315080045C0013BBB73BB7B0F2B09D8FB7B9B00104AB7
S315080045D01344B97B00221846FFF78EFB0CE0094806
S315080045E002F06CFB0B4802F069FB084802F066FB18
S315080045F002E000BF00E000BF1037BD4680BD00BF27
S315080046001C450120F0BE0008FCC0000894C1000843
S315080046105C45012054C1000880B584B000AF03464C
S31508004620FB710B46BB7113467B71FB79FB73BB7938
S31508004630BB737B79002B02D07B79022B29D17B793E
S31508004640002B0AD07B79022B07D1FB79002B01D1ED
S3150800465001234FE0FB79013BFB73FB7B0F2B0DD846
S31508004660BB7BF97B254A52F82300FFF7E3FC034698
S31508004670002B14BF01230023DBB23BE0204802F0E5
S315080046801DFB204802F01AFB1F4802F017FB012306
S3150800469030E07B79012B02D07B79032B29D17B79FA
S315080046A0012B0AD07B79032B07D1BB79002B01D1CB
S315080046B001231FE0BB79013BBB73BB7B0F2B0DD8D6
S315080046C0FB7BB97B114A52F82300FFF7B3FC03467C
S315080046D0002B14BF01230023DBB20BE0084802F0CD
S315080046E0EDFA0B4802F0EAFA074802F0E7FA012366
S315080046F000E0002318461037BD4680BD1C45012042
S31508004700F0BE0008ACC10008ECC100085C450120F9
S3150800471000C2000880B582B000AF00237B607B68CA
S315080047200F2B17DC384A7B68002142F82310374ADA
S315080047307B68002142F82310354A7B68002142F83D
S315080047402310344A7B68002142F823107B68013322
S315080047507B60E4E700233B603B680F2B3BDC3B6850
S31508004760DBB2022219460020FFF772FE3B68DBB275
S31508004770022219460020FFF775FD3B68DBB20022CE
S3150800478019460F20FFF764FE3B68DBB20022194684
S315080047900F20FFF767FD3B68DBB2032200211846AE
S315080047A0FFF756FE3B68DBB2032200211846FFF7E7
S315080047B059FD3B68DBB201220F211846FFF748FE78
S315080047C03B68DBB201220F211846FFF74BFD3B6819
S315080047D001333B60C0E7002200210020FFF738FEC6
S315080047E0002200210020FFF73DFD012200210020C4
S315080047F0FFF7A0FE012200210020FFF733FD00BFCE
S315080048000837BD4680BD00BF1C4501205C45012018
S315080048109C450120DC45012080B485B000AF786056
S315080048200023FB60FB680F2B26DC7B68FA6853F8CD
S3150800483022201449FB6841F823207B68FA68103265
S3150800484053F822201049FB6841F823207B68FA6850
S31508004850203253F822200D49FB6841F823207B6853
S31508004860FA68303253F822200949FB6841F82320B8
S31508004870FB680133FB60D5E700BF1437BD465DF81A
S31508004880047B70471C4501205C4501209C4501209E
S31508004890DC45012080B485B000AF78600023FB605A
S315080048A0FB680F2B26DC164AFB6852F823107B6838
S315080048B0FA6843F82210134AFB6852F823107B68FB
S315080048C0FA68103243F822100F4AFB6852F8231090
S315080048D07B68FA68203243F822100C4AFB6852F8C3
S315080048E023107B68FA68303243F82210FB680133DC
S315080048F0FB60D5E700BF1437BD465DF8047B7047FB
S315080049001C4501205C4501209C450120DC45012011
S3150800491080B483B000AF00237B607B680F2B15DC67
S3150800492000233B603B680F2B0CDC0B497B681A01A4
S315080049303B68134440F2E73221F813203B68013301
S315080049403B60EFE77B6801337B60E6E700BF0C3727
S31508004950BD465DF8047B70472046012090B5ADF250
S31508004960A47D00AF0246FB1D1A70BB1D0A461A70CD
S315080049700023A7F89E37B7F99E37B3F5717F13DC86
S31508004980B7F99E3707F575720021D154B7F99E37E6
S3150800499007F10C020021D154B7F89E379BB20133B8
S315080049A09BB2A7F89E37E6E7002387F89B370023D4
S315080049B087F89A37FFF7ACFFFB1D1A78BB1D1B78E3
S315080049C0B64912011344002221F81320012387F85F
S315080049D09D37002387F89C3797F89C3707F575723B
S315080049E0F91D0978D15497F89C3707F10C02B91DBF
S315080049F00978D15497F89D2797F89C379A4200F082
S31508004A00478197F89C3707F57572D35C87F89B370B
S31508004A1097F89C3707F10C02D35C87F89A3797F812
S31508004A209C37013387F89C3797F89B37013B002B57
S31508004A3046DB97F89B375A1E97F89A37974912011B
S31508004A40134431F8133040F2E732934238D197F8DD
S31508004A509A1797F89B3702221846FFF7DDFD03469B
S31508004A6083F00103DBB2002B2AD097F89B375A1E36
S31508004A7097F89A3797F89B0797F89A17874C000183
S31508004A80014434F81110013188B2844912011344E3
S31508004A90024621F8132097F89D3797F89B27013A85
S31508004AA0D1B207F57572D15497F89D3707F10C0204
S31508004AB097F89A17D15497F89D37013387F89D3799
S31508004AC097F89B3701330F2B46DC97F89B375A1C10
S31508004AD097F89A3771491201134431F8133040F2A6
S31508004AE0E732934238D197F89A1797F89B370022FE
S31508004AF01846FFF791FD034683F00103DBB2002B4E
S31508004B002AD097F89B375A1C97F89A3797F89B0735
S31508004B1097F89A17614C0001014434F811100131D5
S31508004B2088B25E4912011344024621F8132097F809
S31508004B309D3797F89B270132D1B207F57572D15484
S31508004B4097F89D3707F10C0297F89A17D15497F8FA
S31508004B509D37013387F89D3797F89A37013B002B25
S31508004B6046DB97F89B2797F89A37013B4B49120182
S31508004B70134431F8133040F2E732934238D197F8AC
S31508004B809A1797F89B3703221846FFF745FD034601
S31508004B9083F00103DBB2002B2AD097F89B2797F8FE
S31508004BA09A37013B97F89B0797F89A173B4C0001F1
S31508004BB0014434F81110013188B2384912011344FE
S31508004BC0024621F8132097F89D3707F5757297F86E
S31508004BD09B17D15497F89D3797F89A27013AD1B27F
S31508004BE007F10C02D15497F89D37013387F89D37A2
S31508004BF097F89A3701330F2B3FF7FCAE97F89B27A8
S31508004C0097F89A37013325491201134431F81330BE
S31508004C1040F2E73293427FF4EDAE97F89A1797F889
S31508004C209B3701221846FFF7F7FC034683F001037A
S31508004C30DBB2002B3FF4DEAE97F89B2797F89A373E
S31508004C40013397F89B0797F89A17144C000101440B
S31508004C5034F81110013188B2104912011344024682
S31508004C6021F8132097F89D3707F5757297F89B1763
S31508004C70D15497F89D3797F89A270132D1B207F1A0
S31508004C800C02D15497F89D37013387F89D37B1E662
S31508004C9000BF07F2A477BD4690BD00BF204601209D
S31508004CA080B483B000AF03460A46FB711346BB7156
S31508004CB0FA79BB7905491201134431F813301846BD
S31508004CC00C37BD465DF8047B704700BF20460120BF
S31508004CD080B487B000AFF860B9601346FB71FB6813
S31508004CE01B78FB75BB681B78BB75FB79022B0AD151
S31508004CF0BB7DDBB25B42DBB2DAB2FB681A70FA7DC7
S31508004D00BB681A7009E0BA7DFB681A70FB7DDBB2D6
S31508004D105B42DBB2DAB2BB681A7000BF1C37BD460D
S31508004D205DF8047B704700BF80B582B000AF0346CC
S31508004D30FB71FB79042B09D901F010F9FB791946A7
S31508004D400A4801F0BBFF4FF0000307E0FA7908496B
S31508004D5013465B0013449B000B441B6807EE903A0E
S31508004D60B0EE670A0837BD4680BD00BF44C40008D8
S31508004D70C8C2000880B483B000AF0346FB71FB7954
S31508004D80042B1BD801A252F823F000BFA14D00083E
S31508004D90A74D0008AD4D0008B34D0008B94D0008F1
S31508004DA04FF4C8730BE04FF42A7308E042F210730D
S31508004DB005E04FF4BE7302E0002300E00023184626
S31508004DC00C37BD465DF8047B704700BF80B483B0DE
S31508004DD000AF0346FB71FB79042B1AD801A252F8DF
S31508004DE023F000BFF94D0008FF4D0008054E0008E6
S31508004DF0094E00080D4E00084FF4B9730AE04FF447
S31508004E00167307E0002305E0FA2303E04FF448731E
S31508004E1000E000231BB218460C37BD465DF8047B3C
S31508004E20704700BF80B582B000AF0346FB71FB79BF
S31508004E30042B09D901F092F8FB7919460A4801F0C2
S31508004E403DFF4FF0000308E0FA79084913465B0076
S31508004E5013449B000B4404331B6807EE903AB0EEEC
S31508004E60670A0837BD4680BD78C40008C8C200086E
S31508004E7080B582B000AF0346FB71FB79042B09D9D4
S31508004E8001F06CF8FB7919460A4801F017FF4FF054
S31508004E90000308E0FA79084913465B0013449B00AF
S31508004EA00B4408331B6807EE903AB0EE670A0837DA
S31508004EB0BD4680BDB0C40008C8C2000880B400AFB3
S31508004EC0034B00221A6000BFBD465DF8047B70479D
S31508004ED03C48012080B400AF044B1B680133034AE9
S31508004EE0136000BFBD465DF8047B70473C4801204F
S31508004EF080B483B000AF87ED010A044A7B6813606B
S31508004F0000BF0C37BD465DF8047B7047204801207A
S31508004F1080B400AF044B1B6807EE903AB0EE670A00
S31508004F20BD465DF8047B70472048012080B483B0F5
S31508004F3000AF87ED010A044A7B68136000BF0C378F
S31508004F40BD465DF8047B70472448012080B400AF55
S31508004F50044B1B6807EE903AB0EE670ABD465DF84B
S31508004F60047B70472448012080B483B000AF87EDE6
S31508004F70010A044A7B68136000BF0C37BD465DF81A
S31508004F80047B70472848012080B400AF044B1B6897
S31508004F9007EE903AB0EE670ABD465DF8047B7047A7
S31508004FA02848012080B483B000AF87ED010A044A7F
S31508004FB07B68136000BF0C37BD465DF8047B7047FD
S31508004FC02C48012080B400AF044B1B6807EE903ACA
S31508004FD0B0EE670ABD465DF8047B70472C48012091
S31508004FE080B500AFFCF7B0FFFFF768FF00BF80BDD4
S31508004FF080B500AFFCF7D8FFF0EE407AB0EE670A4E
S3150800500001F066FFF0EE407AB0EE670A80BD00BF99
S3150800501080B400AF044B1B6807EE903AB0EE670AFF
S31508005020BD465DF8047B70473848012080B483B0DC
S3150800503000AF87ED010A044A7B68136000BF0C378E
S31508005040BD465DF8047B70473848012080B400AF40
S31508005050044B1B78C3F30303DBB21846BD465DF861
S31508005060047B70474049012080B400AF044B1B788D
S31508005070C3F30303DBB21846BD465DF8047B7047ED
S315080050804049012080B483B000AF03460A46FB714D
S315080050901346BB71FB7903F00F03D9B2094A13789B
S315080050A061F303031370BB7903F00F03D9B2054A02
S315080050B0137861F30303137000BF0C37BD465DF820
S315080050C0047B70474049012080B400AF034B1B782E
S315080050D01846BD465DF8047B704700BF414901206C
S315080050E080B483B000AF78603960184B1B78032B07
S315080050F026D801A252F823F00951000825510008C4
S3150800510017510008335100087B6801221A703B6862
S3150800511000221A7014E07B68FF221A703B6800228E
S315080051201A700DE07B6800221A703B6801221A701B
S3150800513006E07B6800221A703B68FF221A7000BFDF
S3150800514000BF0C37BD465DF8047B70474149012016
S3150800515080B483B000AF0346FB71044AFB79137031
S3150800516000BF0C37BD465DF8047B704741490120F6
S3150800517080B483B000AF03460A46FB711346BB7181
S3150800518097F90730002B0DD0012B03D0B3F1FF3F61
S3150800519004D013E00C4B00221A700FE00A4B0222CF
S315080051A01A700BE097F90630012B03D1064B012242
S315080051B01A7002E0044B03221A7000BF00BF0C37B6
S315080051C0BD465DF8047B70474149012080B400AFB5
S315080051D0034B1B781846BD465DF8047B704700BF35
S315080051E04249012080B483B000AF0346FB71044AEC
S315080051F0FB79137000BF0C37BD465DF8047B70471A
S315080052004249012000000000B0B500AFFFF7BCFE20
S3150800521010EE103A1846FBF789F904460D46FFF7D3
S3150800522077FE10EE103A1846FBF780F91EA3D3E96D
S315080052300023FBF7CFF902460B4620462946FBF723
S3150800524017F803460C4618462146FBF77DFC03462D
S3150800525000EE103AFFF788FEFFF7B4FE10EE103A9C
S315080052601846FBF763F904460D46FFF76FFE10EE86
S31508005270103A1846FBF75AF90BA3D3E90023FBF7B4
S31508005280A9F902460B4620462946FAF7F1FF0346D6
S315080052900C4618462146FBF757FC034600EE103A23
S315080052A0FFF780FE00BFB0BDFCA9F1D24D62503FAA
S315080052B0B0B500AFFFF768FE10EE103A1846FBF7D8
S315080052C035F91FA3D3E90023FBF784F903460C46F7
S315080052D025461C461C4B1B681846FBF727F9224631
S315080052E02B46FAF7C5FF03460C4618462146FBF738
S315080052F02BFC0246144B1A60FFF746FE10EE103AD6
S315080053001846FBF713F90EA3D3E90023FBF762F956
S3150800531003460C4625461C460C4B1B681846FBF7ED
S3150800532005F922462B46FAF7A3FF03460C4618460C
S315080053302146FBF709FC0246044B1A6000BFB0BDC4
S31508005340FCA9F1D24D62503F38480120344801206B
S31508005350B0B500AFFFF758FFFFF7AAFFFFF732FE19
S3150800536010EE103A1846FBF7E1F810A3D3E900232C
S31508005370FBF730F903460C4625461C460A4B1B68C4
S315080053801846FBF7D3F822462B46FAF771FF034671
S315080053900C4618462146FBF7D7FB0246024B1A6015
S315080053A000BFB0BDAFF3008030480120FCA9F1D2A0
S315080053B04D62503F80B582B000AF03460A46FB7186
S315080053C01346BB71FCF7A2FAFDF70CFDFDF722FDAB
S315080053D00020FFF707FFFCF73DFDFCF7A7FDFFF7E9
S315080053E0FFFD9FED0F0AFFF721FE9FED0D0AFFF760
S315080053F0BBFD9FED0B0AFFF7D5FDFDF75BFEFB79BD
S31508005400002B01D0FDF7FAFCBB79002B01D0FDF784
S31508005410DDFCFCF7A3FA00BF0837BD4680BD00BF18
S315080054200000000080B584B000AF0346FB7107F1A9
S315080054300E0207F10F0311461846FFF751FEB54B4A
S315080054401B78032B00F2838501A252F823F000BFD4
S315080054501D57000861540008D5590008935C0008D8
S31508005460AD4B1B78C3F30303DBB21846AA4B1B7874
S31508005470C3F30303DBB200221946FEF7F3FE00204E
S31508005480FDF728FA0346002B0FD0A34B1B78C3F36E
S315080054900303DBB21846A04B1B78C3F30303DBB246
S315080054A000221946FEF7D4FF6AE09B4B1B78C3F32C
S315080054B00303DBB21846984B1B78C3F30303DBB22E
S315080054C000221946FFF736F8FB79002B58D0924B85
S315080054D01B78C3F30303DBB21A46FB7BDBB2D31A92
S315080054E0D8B28D4B1B78C3F30303DBB21A46BB7BDA
S315080054F0DBB2D31ADBB200221946FEF727FF0346B2
S31508005500002B3DD0844B1B78C3F30303DBB21A464A
S31508005510FB7BDBB2D31AD8B27F4B1B78C3F30303EA
S31508005520DBB21A46BB7BDBB2D31ADBB200221946C2
S31508005530FFF772F8034683F00103DBB2002B1FD096
