S010000068616C666D6F7573652E6D6F74AD
S3150800000000000220CD4A0008D5470008E547000849
S31508000010ED470008F5470008FD4700080000000006
S31508000020000000000000000000000000054800086D
S315080000301548000800000000254800083548000853
S315080000401D4B00081D4B00081D4B00081D4B0008E2
S315080000501D4B00081D4B00081D4B00081D4B0008D2
S315080000601D4B00081D4B00081D4B00081D4B0008C2
S315080000701D4B00081D4B00081D4B00081D4B0008B2
S315080000801D4B00081D4B00081D4B00081D4B0008A2
S315080000901D4B00081D4B00081D4B00081D4B000892
S315080000A01D4B00081D4B00081D4B00081D4B000882
S315080000B01D4B00081D4B00081D4B00081D4B000872
S315080000C01D4B00081D4B00081D4B00081D4B000862
S315080000D01D4B00081D4B00081D4B00081D4B000852
S315080000E01D4B00081D4B00081D4B00081D4B000842
S315080000F01D4B00081D4B00081D4B00081D4B000832
S315080001001D4B00081D4B00081D4B00081D4B000821
S315080001101D4B00081D4B00081D4B00081D4B000811
S315080001201D4B00081D4B00081D4B00081D4B000801
S315080001301D4B000800000000000000001D4B0008D1
S315080001401D4B00081D4B00081D4B00081D4B0008E1
S315080001501D4B00081D4B00081D4B00081D4B0008D1
S315080001601D4B00081D4B00081D4B00081D4B0008C1
S315080001701D4B00081D4B0008000000000000000091
S30D080001801D4B00081D4B000889
S315080001C0044B05481B1A062B02D9044B03B11847E2
S315080001D0704700BF97080020940800200000000020
S315080001E005490648091A891001EBD171491002D050
S315080001F0034B03B118477047940800209408002061
S315080002000000000010B5064C237843B9FFF7D8FF65
S31508000210044B13B10448AFF300800123237010BDCB
S315080002209408002000000000EC98000808B5084B68
S315080002301BB108490848AFF300800848036813B99A
S31508000240BDE80840CCE7064B002BF9D09847F7E7FE
S315080002500000000098080020EC9800089408002088
S315080002600000000081F0004102E000BF83F0004377
S3150800027030B54FEA41044FEA430594EA050F08BF33
S3150800028090EA020F1FBF54EA000C55EA020C7FEAF7
S31508000290645C7FEA655C00F0E2804FEA5454D4EB74
S315080002A05555B8BF6D420CDD2C4480EA020281EA3E
S315080002B0030382EA000083EA010180EA020281EA76
S315080002C00303362D88BF30BD11F0004F4FEA0131C8
S315080002D04FF4801C4CEA113102D0404261EB4101D7
S315080002E013F0004F4FEA03334CEA133302D052425D
S315080002F063EB430394EA050F00F0A780A4F1010419
S31508000300D5F1200E0DDB02FA0EFC22FA05F2801852
S3150800031041F1000103FA0EF2801843FA05F3594138
S315080003200EE0A5F120050EF1200E012A03FA0EFCB7
S3150800033028BF4CF0020C43FA05F3C01851EBE371E1
S3150800034001F0004507D54FF0000EDCF1000C7EEBFE
S3150800035000006EEB0101B1F5801F1BD3B1F5001F3C
S315080003600CD349085FEA30004FEA3C0C04F101045B
S315080003704FEA445212F5800F80F09A80BCF1004F84
S3150800038008BF5FEA500C50F1000041EB045141EA06
S31508000390050130BD5FEA4C0C404141EB010111F407
S315080003A0801FA4F10104E9D191F0000F04BF0146B2
S315080003B00020B1FA81F308BF2033A3F10B03B3F190
S315080003C020020CDA0C3208DD02F1140CC2F10C0220
S315080003D001FA0CF021FA02F10CE002F11402D8BF7E
S315080003E0C2F1200C01FA02F120FA0CFCDCBF41EA4A
S315080003F00C019040E41AA2BF01EB0451294330BD19
S315080004006FEA04041F3C1CDA0C340EDC04F11404F5
S31508000410C4F1200220FA04F001FA02F340EA0300CC
S3150800042021FA04F345EA030130BDC4F10C04C4F112
S31508000430200220FA02F001FA04F340EA03002946F2
S3150800044030BD21FA04F0294630BD94F0000F83F43C
S31508000450801306BF81F480110134013D4EE77FEA1F
S31508000460645C18BF7FEA655C29D094EA050F08BF6B
S3150800047090EA020F05D054EA000C04BF194610464C
S3150800048030BD91EA030F1EBF0021002030BD5FEA90
S31508000490545C05D14000494128BF41F0004130BDB8
S315080004A014F580043CBF01F5801130BD01F000450C
S315080004B045F0FE4141F470014FF0000030BD7FEA7F
S315080004C0645C1ABF194610467FEA655C1CBF0B467A
S315080004D0024650EA013406BF52EA033591EA030F91
S315080004E041F4002130BD00BF90F0000F04BF002189
S315080004F0704730B54FF4806404F132044FF00005BC
S315080005004FF0000150E700BF90F0000F04BF002134
S31508000510704730B54FF4806404F1320410F000459A
S3150800052048BF40424FF000013EE700BF42004FEA95
S31508000530E2014FEA31014FEA02701FBF12F07F4312
S3150800054093F07F4F81F06051704792F0000F14BF0F
S3150800055093F07F4F704730B54FF4607401F0004553
S3150800056021F0004120E700BF50EA010208BF7047AA
S3150800057030B54FF000050AE050EA010208BF70479F
S3150800058030B511F0004502D5404261EB41014FF408
S31508000590806404F132045FEA915C3FF4DCAE4FF00C
S315080005A003025FEADC0C18BF03325FEADC0C18BFF3
S315080005B0033202EBDC02C2F1200300FA03FC20FA44
S315080005C002F001FA03FE40EA0E0021FA02F1144491
S315080005D0C1E600BF70B54FF0FF0C4CF4E06C1CEAA6
S315080005E011541DBF1CEA135594EA0C0F95EA0C0F1B
S315080005F000F0DEF82C4481EA030621EA4C5123EA8E
S315080006004C5350EA013518BF52EA033541F48011BC
S3150800061043F4801338D0A0FB02CE4FF00005E1FB6F
S3150800062002E506F00042E0FB03E54FF00006E1FBB9
S3150800063003569CF0000F18BF4EF0010EA4F1FF04FC
S31508000640B6F5007F64F5407404D25FEA4E0E6D413C
S3150800065046EB060642EAC62141EA55514FEAC5204D
S3150800066040EA5E504FEACE2EB4F1FD0C88BFBCF5C9
S31508000670E06F1ED8BEF1004F08BF5FEA500E50F17A
S31508000680000041EB045170BD06F0004646EA010140
S3150800069040EA020081EA0301B4EB5C04C2BFD4EB72
S315080006A00C0541EA045170BD41F480114FF0000E6B
S315080006B0013C00F3AB8014F1360FDEBF002001F0D9
S315080006C0004170BDC4F10004203C35DA0C341BDC53
S315080006D004F11404C4F1200500FA05F320FA04F025
S315080006E001FA05F240EA020001F0004221F0004159
S315080006F010EBD37021FA04F642EB06015EEA430ECC
S3150800070008BF20EAD37070BDC4F10C04C4F12005FB
S3150800071000FA04F320FA05F001FA04F240EA0200AE
S3150800072001F0004110EBD37041F100015EEA430E7F
S3150800073008BF20EAD37070BDC4F1200500FA05F29F
S315080007404EEA020E20FA04F301FA05F243EA02031E
S3150800075021FA04F001F0004121FA04F220EA02002D
S3150800076000EBD3705EEA430E08BF20EAD37070BD73
S3150800077094F0000F0FD101F00046400041EB010153
S3150800078011F4801F08BF013CF7D041EA060195F035
S31508000790000F18BF704703F00046520043EB0303EF
S315080007A013F4801F08BF013DF7D043EA06037047DC
S315080007B094EA0C0F0CEA135518BF95EA0C0F0CD0E7
S315080007C050EA410618BF52EA4306D1D181EA03012D
S315080007D001F000414FF0000070BD50EA410606BF27
S315080007E01046194652EA430619D094EA0C0F02D16C
S315080007F050EA013613D195EA0C0F05D152EA0336B1
S315080008001CBF104619460AD181EA030101F00041CE
S3150800081041F0FE4141F470014FF0000070BD41F017
S31508000820FE4141F4780170BD70B54FF0FF0C4CF4F1
S31508000830E06C1CEA11541DBF1CEA135594EA0C0F10
S3150800084095EA0C0F00F0A7F8A4EB050481EA030E5D
S3150800085052EA03354FEA013100F088804FEA033344
S315080008604FF0805545EA131343EA12634FEA022212
S3150800087045EA111545EA10654FEA00260EF00041D3
S315080008809D4208BF964244F1FD0404F5407402D225
S315080008905B084FEA3202B61A65EB03055B084FEAB6
S315080008A032024FF480104FF4002CB6EB020E75EBB3
S315080008B0030E22BFB61A754640EA0C005B084FEADB
S315080008C03202B6EB020E75EB030E22BFB61A754658
S315080008D040EA5C005B084FEA3202B6EB020E75EBA3
S315080008E0030E22BFB61A754640EA9C005B084FEA1B
S315080008F03202B6EB020E75EB030E22BFB61A754628
S3150800090040EADC0055EA060E18D04FEA051545EA16
S3150800091016754FEA06164FEAC30343EA52734FEABF
S31508000920C2025FEA1C1CC0D111F4801F0BD141EA38
S3150800093000014FF000004FF0004CB6E711F4801F9D
S3150800094004BF01430020B4F1FD0C88BFBCF5E06F7D
S315080009503FF6AFAEB5EB030C04BFB6EB020C5FEA8D
S31508000960500C50F1000041EB045170BD0EF0004EE2
S315080009704EEA113114EB5C04C2BFD4EB0C0541EA14
S31508000980045170BD41F480114FF0000E013C90E611
S3150800099045EA060E8DE60CEA135594EA0C0F08BFD5
S315080009A095EA0C0F3FF43BAF94EA0C0F0AD150EAD4
S315080009B001347FF434AF95EA0C0F7FF425AF104667
S315080009C019462CE795EA0C0F06D152EA03353FF48F
S315080009D0FDAE1046194622E750EA410618BF52EA0C
S315080009E043067FF4C5AE50EA41047FF40DAF52EAE0
S315080009F043057FF4EBAE12E74FF0FF3C06E000BF7D
S31508000A004FF0010C02E000BF4FF0010C4DF804CD89
S31508000A104FEA410C7FEA6C5C4FEA430C18BF7FEA49
S31508000A206C5C1BD001B050EA410C0CBF52EA430C77
S31508000A3091EA030F02BF90EA020F0020704710F1F7
S31508000A40000F91EA030F58BF994208BF90422CBF86
S31508000A50D8176FEAE37040F0010070474FEA410C7F
S31508000A607FEA6C5C02D150EA013C07D14FEA430C9D
S31508000A707FEA6C5CD6D152EA033CD3D05DF8040B0E
S31508000A80704700BF8446104662468C461946634640
S31508000A9000E000BF01B5FFF7B7FF002848BF10F117
S31508000AA0000F01BD4DF808EDFFF7F4FF0CBF01205C
S31508000AB000205DF808FB00BF4DF808EDFFF7EAFFD8
S31508000AC034BF012000205DF808FB00BF4DF808ED93
S31508000AD0FFF7E0FF94BF012000205DF808FB00BF88
S31508000AE04DF808EDFFF7CEFF94BF012000205DF812
S31508000AF008FB00BF4DF808EDFFF7C4FF34BF01201F
S31508000B0000205DF808FB00BF4A0011D212F500125A
S31508000B1011D20DD56FF47873B3EB62520ED44FEA47
S31508000B20C12343F0004343EA505323FA02F07047C7
S31508000B304FF00000704750EA013002D14FF0FF3005
S31508000B4070474FF0000070474FEA4102B2F1E043A8
S31508000B5024BFB3F5001CDCF1FE5C0DD901F0004C96
S31508000B604FEAC0024CEA5070B2F1004F40EB8300E6
S31508000B7008BF20F00100704711F0804F21D113F112
S31508000B803872BCBF01F00040704741F480114FEA4B
S31508000B905252C2F11802C2F1200C10FA0CF320FAD4
S31508000BA002F018BF40F001004FEAC1234FEAD323F1
S31508000BB003FA0CFC40EA0C0023FA02F34FEA43035B
S31508000BC0CCE77FEA625307D150EA01331EBF4FF0E4
S31508000BD0FE4040F44000704701F0004040F0FE40FF
S31508000BE040F40000704700BF00000000000000004D
S31508000BF001F0FF01102A2BDB10F0070F08D010F8C0
S31508000C00013B013A8B422DD010F0070F42B3F6D1C3
S31508000C10F0B441EA012141EA014122F007047FF0DC
S31508000C2000070023F0E80256083C85EA010586EA33
S31508000C30010685FA47F5A3FA87F586FA47F6A5FA6F
S31508000C4087F68EB9EED1F0BC01F0FF0102F007027B
S31508000C5032B110F8013B013A83EA010313B1F8D126
S31508000C600020704701387047002D06BF3546033807
S31508000C70073815F0010F07D1013015F4807F02BF40
S31508000C80013015F4C03F0130F0BC0138704700BF91
S31508000C90844641EA000313F003036DD1403A41D379
S31508000CA051F8043B40F8043B51F8043B40F8043B38
S31508000CB051F8043B40F8043B51F8043B40F8043B28
S31508000CC051F8043B40F8043B51F8043B40F8043B18
S31508000CD051F8043B40F8043B51F8043B40F8043B08
S31508000CE051F8043B40F8043B51F8043B40F8043BF8
S31508000CF051F8043B40F8043B51F8043B40F8043BE8
S31508000D0051F8043B40F8043B51F8043B40F8043BD7
S31508000D1051F8043B40F8043B51F8043B40F8043BC7
S31508000D20403ABDD2303211D351F8043B40F8043B67
S31508000D3051F8043B40F8043B51F8043B40F8043BA7
S31508000D4051F8043B40F8043B103AEDD20C3205D377
S31508000D5051F8043B40F8043B043AF9D2043208D06F
S31508000D60D2071CBF11F8013B00F8013B01D30B88E1
S31508000D7003806046704700BF082A13D38B078DD0BF
S31508000D8010F003038AD0C3F10403D21ADB071CBF91
S31508000D9011F8013B00F8013B80D331F8023B20F8FB
S31508000DA0023B7BE7043AD9D3013A11F8013B00F834
S31508000DB0013BF9D20B7803704B7843708B788370BC
S31508000DC060467047000000000000000000000000B8
S31508000DD00000000000000000000000000000000005
S31508000DE000000000000000000000000000000000F5
S31508000DF000000000000000000000000000000000E5
S31508000E0090F800F06DE9024520F007016FF0000C3C
S31508000E1010F0070491F820F040F049804FF00004E4
S31508000E206FF00700D1E9002391F840F000F10800BF
S31508000E3082FA4CF2A4FA8CF283FA4CF3A2FA8CF3F7
S31508000E404BBBD1E9022382FA4CF200F10800A4FA5E
S31508000E508CF283FA4CF3A2FA8CF3E3B9D1E90423B2
S31508000E6082FA4CF200F10800A4FA8CF283FA4CF3E9
S31508000E70A2FA8CF37BB9D1E9062301F1200182FAA3
S31508000E804CF200F10800A4FA8CF283FA4CF3A2FAA9
S31508000E908CF3002BC6D0002A04BF04301A4612BAB7
S31508000EA0B2FA82F2FDE8024500EBD2007047D1E9BA
S31508000EB0002304F00305C4F100004FEAC50514F049
S31508000EC0040F91F840F00CFA05F562EA05021CBF1A
S31508000ED063EA050362464FF00004A9E74FEA4102B8
S31508000EE012F5001215D211D56FF47873B3EB62526E
S31508000EF012D94FEAC12343F0004343EA505311F095
S31508000F00004F23FA02F018BF404270474FF0000026
S31508000F10704750EA013005D111F0004008BF6FF064
S31508000F20004070474FF00000704700BF53B94AB9F8
S31508000F30002908BF00281CBF4FF0FF314FF0FF30D3
S31508000F4000F07EB9ADF1080C6DE904CE00F006F8A4
S31508000F50DDF804E0DDE9022304B070472DE9F04727
S31508000F608C460E460446089D002B50D18A421746E9
S31508000F706CD9B2FA82FEBEF1000F0BD0CEF1200476
S31508000F8020FA04F401FA0EF644EA060C02FA0EF701
S31508000F9000FA0EF44FEA1749220CBCFBF9F01FFAC7
S31508000FA087F809FB10C642EA064600FB08F3B34277
S31508000FB009D9F61900F1FF3280F02281B34240F2D6
S31508000FC01F8102383E44F61AA2B2B6FBF9F309FBB2
S31508000FD0136642EA064403FB08F8A04509D9E41952
S31508000FE003F1FF3280F00A81A04540F20781023BF7
S31508000FF03C44C8EB040443EA00400021002D62D0BB
S3150800100024FA0EF400232C606B60BDE8F0878B424F
S3150800101007D9002D55D0002185E841000846BDE8CE
S31508001020F087B3FA83F1002940F09080B34202D3E7
S31508001030824200F2F880841A66EB03060120B44661
S31508001040002D40D085E81010BDE8F08712B90127B9
S31508001050B7FBF2F7B7FA87FEBEF1000F35D1F31BDF
S315080010604FEA17481FFA87FC0121B3FBF8F0220C58
S3150800107008FB103642EA06460CFB00F3B34207D9D2
S31508001080F61900F1FF3202D2B34200F2CE801046C2
S31508001090F61AA2B2B6FBF8F308FB136642EA064450
S315080010A00CFB03FCA44507D9E41903F1FF3202D26D
S315080010B0A44500F2B5801346CCEB040443EA00408D
S315080010C09CE729462846BDE8F087CEF1200106FAB6
S315080010D00EF307FA0EF720FA01F94FEA1748CE4041
S315080010E049EA0309B6FBF8FA4FEA194408FB1A66F7
S315080010F01FFA87FC44EA06430AFB0CF29A4200FAF6
S315080011000EF40AD9DB190AF1FF3180F087809A427A
S3150800111040F28480AAF1020A3B449B1A1FFA89F915
S31508001120B3FBF8F108FB113349EA034301FB0CF65C
S315080011309E4207D9DB1901F1FF326BD29E4269D96B
S3150800114002393B449B1B41EA0A418EE7C1F1200E56
S3150800115022FA0EF48B40234320FA0EF706FA01F41E
S315080011604FEA134C26FA0EF63C43B6FBFCF9270C5D
S315080011700CFB19661FFA83F847EA064609FB08F7C7
S31508001180B74202FA01F200FA01FA08D9F61809F18B
S31508001190FF3041D2B7423FD9A9F102091E44F61BD6
S315080011A0A0B2B6FBFCF40CFB146640EA064704FB47
S315080011B008F8B84507D9FF1804F1FF3028D2B84512
S315080011C026D9023C1F4444EA0940C8EB0707A0FB9E
S315080011D002894F4544464E4614D329D065B3BAEB27
S315080011E0040367EB060707FA0EFECB40CF404EEA2C
S315080011F0030385E888000021BDE8F0871346F8E672
S315080012001046E0E6B8EB020469EB03060138E5E7A9
S315080012100446D8E7114695E78146C0E78A467CE743
S31508001220023B3C4448E708460AE702383E442FE7B3
S31508001230C245E7D33E46D1E72946BDE8F08700BF59
S31508001240704700BF80B500AF0221104803F02EFE9C
S315080012500023012209210D4803F00AFD0B4803F07B
S31508001260D1FD0221094803F007FE0346002B0CBFF7
S3150800127001230023DBB2002B00D0F2E7034803F07A
S31508001280D1FD03461B119BB2184680BD00200140C4
S3150800129080B582B000AF4FF000037B604FF48053F7
S315080012A03B60FFF7CFFF034607EE903AF8EEE77A82
S315080012B09FED0B7A67EE876A3B6807EE903AB8EEC1
S315080012C0677AC6EE877A77EEA77AC7ED017A7B68E2
S315080012D007EE903AB0EE670A0837BD4680BD00BFF4
S315080012E03333534080B582B000AF0346FB71FB79B8
S315080012F0092B02D900F0BCF982E1FB79092B00F22F
S315080013007F8101A252F823F03113000879130008EF
S31508001310C11300080914000851140008991400089C
S31508001320E11400082915000871150008B915000808
S315080013301021B54803F08CFE4FF48051B24803F0F3
S3150800134097FE0421B14803F093FE0821AF4803F045
S315080013508FFE4FF48041AD4803F08AFE4FF40041FA
S31508001360AA4803F085FE0121A94803F081FE02215F
S31508001370A74803F07DFE43E11021A34803F068FE69
S315080013804FF48051A04803F073FE04219F4803F0F0
S315080013905FFE08219D4803F06BFE4FF480419B4891
S315080013A003F056FE4FF40041984803F051FE012120
S315080013B0974803F04DFE0221954803F059FE1FE1B8
S315080013C01021914803F054FE4FF480518E4803F0E3
S315080013D03FFE04218D4803F04BFE08218B4803F09D
S315080013E047FE4FF48041894803F042FE4FF400411E
S315080013F0864803F02DFE0121854803F039FE0221B7
S31508001400834803F035FEFBE010217F4803F030FEE9
S315080014104FF480517C4803F02BFE04217B4803F0EF
S3150800142027FE0821794803F023FE4FF480417748C8
S3150800143003F00EFE4FF40041744803F009FE012143
S31508001440734803F015FE0221714803F011FED7E038
S3150800145010216D4803F00CFE4FF480516A4803F0E2
S3150800146007FE0421694803F0F3FD0821674803F0E5
S31508001470FFFD4FF48041654803F0EAFD4FF4004153
S31508001480624803F0F5FD0121614803F0E1FD022100
S315080014905F4803F0EDFDB3E010215B4803F0E8FD7B
S315080014A04FF48051584803F0E3FD0421574803F0F0
S315080014B0DFFD0821554803F0DBFD4FF48041534812
S315080014C003F0C6FD4FF40041504803F0D1FD012159
S315080014D04F4803F0CDFD02214D4803F0B9FD8FE0DA
S315080014E01021494803F0C4FD4FF48051464803F0E3
S315080014F0BFFD0421454803F0BBFD0821434803F01E
S31508001500B7FD4FF48041414803F0B2FD4FF4004166
S315080015103E4803F0ADFD01213D4803F0A9FD022137
S315080015203B4803F095FD6BE01021374803F090FD2A
S315080015304FF48051344803F09BFD0421334803F0EF
S3150800154087FD0821314803F093FD4FF480412F4869
S3150800155003F07EFD4FF400412C4803F089FD01217C
S315080015602B4803F085FD0221294803F081FD47E059
S315080015701021254803F07CFD4FF48051224803F0E2
S3150800158077FD0421214803F073FD08211F4803F065
S315080015906FFD4FF480411D4803F06AFD4FF400418A
S315080015A01A4803F065FD0121194803F061FD02217F
S315080015B0174803F05DFD23E01021134803F058FD9A
S315080015C04FF48051104803F053FD04210F4803F0EF
S315080015D04FFD08210D4803F04BFD4FF480410B48A1
S315080015E003F036FD4FF40041084803F041FD0121A0
S315080015F0074803F03DFD0221054803F039FD00BF09
S315080016000837BD4680BD00BF0004024000080240FE
S31508001610001C024080B500AF1021124803F018FDE7
S315080016204FF480510F4803F013FD04210E4803F0D0
S315080016300FFD08210C4803F00BFD4FF480410A48C2
S3150800164003F006FD4FF40041074803F001FD0121B0
S31508001650064803F0FDFC0221044803F0F9FC00BF2C
S3150800166080BD00BF0004024000080240001C024082
S3150800167080B500AF1021124803F0FAFC4FF48051F0
S315080016800F4803F0E5FC04210E4803F0F1FC08219D
S315080016900C4803F0EDFC4FF480410A4803F0E8FCDF
S315080016A04FF40041074803F0E3FC0121064803F024
S315080016B0DFFC0221044803F0CBFC00BF80BD00BF5D
S315080016C00004024000080240001C024080B584B0B5
S315080016D000AF0346FB710B46BB8013467B80002395
S315080016E0FB607A88FB689A4211DDFB791846FFF79A
S315080016F0F9FDBB88184603F0A9F9FFF78BFFBB88ED
S31508001700184603F0A3F9FB680133FB60E9E700BF5D
S315080017101037BD4680BD00BF90B587B000AF034601
S3150800172087ED020AFB730023FB82D7ED027AF5EEFA
S31508001730C07AF1EE10FA0AD5D7ED027AF1EE677A99
S31508001740FDEEE77AC7ED017ABB889BB207E0D7EDD5
S31508001750027AFDEEE77AC7ED017ABB889BB2FB8277
S31508001760D7ED027A9FED507AF4EEC77AF1EE10FAC9
S3150800177001DD6423FB824D4B60221A804B4B00220D
S315080017809A814A4B01225A80494B1B881A46B7F957
S31508001790163003FB02F31846FEF7B6FE40A3D3E95C
S315080017A00023FEF717FF03460C4618462146FFF7A7
S315080017B0ABF902463D4B9A60FB7B012B34D1D7ED42
S315080017C0027AF5EE407AF1EE10FA0BD1374B002289
S315080017D09A603649374803F027FF3449354803F0FD
S315080017E09DFF1DE0D7ED027AF5EEC07AF1EE10FA0C
S315080017F00BDD2E492F4803F017FF2C4B00229A6069
S315080018002A492C4803F08AFF0AE02849294803F0A8
S3150800181085FF264B00229A602449264803F004FFD8
S31508001820FB8ADAB2244B1A70FB7B002B34D1D7ED36
S31508001830027AF5EE407AF1EE10FA0BD11B4B002234
S315080018409A601A491D4803F0EFFE18491B4803F031
S3150800185065FF1DE0D7ED027AF5EEC07AF1EE10FAD3
S315080018600BDD1249154803F0DFFE104B00229A6083
S315080018700E49124803F052FF0AE00C490F4803F0DC
S315080018804DFF0A4B00229A6008490C4803F0CCFE2B
S31508001890FB8ADAB20A4B1A7000BF1C37BD4690BDE8
S315080018A07B14AE47E17A843F0000C842B08A002024
S315080018B00899000800080040B0080020000C004005
S315080018C0B108002080B500AF0421084803F0C0FB2A
S315080018D00121074803F088FE0121064803F084FE2B
S315080018E0054B01221A7000BF80BD00BF00000240F0
S315080018F000080040000C0040B208002080B400AF89
S31508001900034B1B781846BD465DF8047B704700BF3D
S31508001910B208002080B584B000AF0346FB800023E0
S315080019207B81FB8843F080033B81404B1B68102179
S31508001930184603F09DFB3E4B1B680221184603F030
S315080019409DFD0346002B0CBF01230023DBB2002BB1
S3150800195000D0F0E7364B1B683A891146184603F063
S315080019607DFD334B1B680121184603F087FD0346AE
S31508001970002B0CBF01230023DBB2002B00D0F0E7BD
S315080019802B4B1B68184603F05BFD03467B81284BEF
S315080019901B680221184603F071FD0346002B0CBF95
S315080019A001230023DBB2002B00D0F0E7204B1B6895
S315080019B00021184603F052FD1D4B1B6801211846ED
S315080019C003F05CFD0346002B0CBF01230023DBB2AA
S315080019D0002B00D0F0E7164B1B68184603F030FDC5
S315080019E003467B81124B1B680221184603F046FD0D
S315080019F00346002B0CBF01230023DBB2002B00D0CB
S31508001A00F0E70A4B1B681021184603F021FB002358
S31508001A10FB60FB68042B03DCFB680133FB60F8E71B
S31508001A207B8918461037BD4680BD00BF04000020DC
S31508001A300000002080B584B000AF03460A46FB804C
S31508001A401346BB803D4B1B681021184603F010FB5C
S31508001A503B4B1B680221184603F010FD0346002B7A
S31508001A600CBF01230023DBB2002B00D0F0E7344B78
S31508001A701B68FA881146184603F0F0FC304B1B68C1
S31508001A800121184603F0FAFC0346002B0CBF01237C
S31508001A900023DBB2002B00D0F0E7294B1B68184661
S31508001AA003F0CEFC264B1B680221184603F0E6FC21
S31508001AB00346002B0CBF01230023DBB2002B00D00A
S31508001AC0F0E71F4B1B68BA881146184603F0C6FC98
S31508001AD01B4B1B680121184603F0D0FC0346002B5C
S31508001AE00CBF01230023DBB2002B00D0F0E7144B18
S31508001AF01B68184603F0A4FC114B1B680221184604
S31508001B0003F0BCFC0346002B0CBF01230023DBB209
S31508001B10002B00D0F0E7094B1B681021184603F08C
S31508001B2097FA0023FB60FB68092B03DCFB6801338B
S31508001B30FB60F8E700BF1037BD4680BD04000020F3
S31508001B400000002090B585B000AF03460A46FB7139
S31508001B501346BB7100237B810023FB810023BB81D5
S31508001B60FB79002B02D0032B18D02FE0BB79012B71
S31508001B7009D0022B0CD0002B00D029E04323FB818F
S31508001B804423BB8109E04523FB814623BB8104E04E
S31508001B904723FB814823BB8100BF19E0BB79012B92
S31508001BA009D0022B0CD0002B00D011E03B23FB817F
S31508001BB03C23BB8109E03D23FB813E23BB8104E036
S31508001BC03F23FB814023BB8100BF01E07B890FE0F7
S31508001BD0FB891846FFF79EFE03461B029CB2BB898B
S31508001BE01846FFF797FE034623449BB27B817B8901
S31508001BF01BB218461437BD4690BD00BF80B500AF6E
S31508001C0000216B20FFF716FFEE216C20FFF712FF6D
S31508001C1010216A20FFF70EFF06216820FFF70AFF4A
S31508001C2001211A20FFF706FF18211B20FFF702FFE4
S31508001C3018211C20FFF7FEFE00BF80BD80B582B0CC
S31508001C4000AF4FF000037B600023FB70FB78013385
S31508001C50132B1ADCFB78FA7801321E4992000A44E3
S31508001C6012681C499B000B441A60FB78194A9B00B2
S31508001C701344D3ED007A97ED017A77EE277AC7ED0C
S31508001C80017AFB780133FB70E0E701210320FFF7B7
S31508001C9059FF034607EE903AF8EEE77A0D4BC3ED87
S31508001CA0137A0C4BD3ED137A97ED017A77EE277AF0
S31508001CB0C7ED017A97ED017AF3EE046AC7EE267A44
S31508001CC0054BC3ED007A00F00BF800BF0837BD4698
S31508001CD080BD00BFC48A0020B408002000000000B0
S31508001CE098B500AF124B93ED007A124BD3ED007AFC
S31508001CF077EE677A9FED107AC7EE876A16EE900A36
S31508001D00FEF714FC08A3D3E90023FEF763FC034699
S31508001D100C4618462146FEF717FF0246074B1A607F
S31508001D2000BF98BDAFF300809A9999999999234075
S31508001D30B4080020B808002000000045BC080020B0
S31508001D4080B400AF044B1B6807EE903AB0EE670A02
S31508001D50BD465DF8047B7047BC08002080B500AF1F
S31508001D6002210020FFF7EEFE03469BB25B429BB2C0
S31508001D709AB2044B1A8000F06FF800F051F800BFD1
S31508001D8080BD00BFC008002080B400AF034B1B888D
S31508001D901BB21846BD465DF8047B7047C008002094
S31508001DA080B582B000AF00237B6000233B60F0EE75
S31508001DB0006A9FED137AC6EE877AFDEEE77A17EE8C
S31508001DC0902A3B689A420DDDFFF7DEFF03461A4666
S31508001DD07B6813447B60012002F038FE3B680133C0
S31508001DE03B60E4E73B6801337A6892FBF3F307EE5E
S31508001DF0903AF8EEE77AB0EE670A0837BD4680BD36
S31508001E006F12833A80B500AFFFF7CAFFF0EE407A4B
S31508001E10024BC3ED007A00BF80BD00BFCC0800208E
S31508001E2080B400AF094BD3ED007A9FED097A27EE0F
S31508001E30877A084BD3ED007A77EE277A054BC3ED00
S31508001E40007A00BFBD465DF8047B7047D0080020C5
S31508001E506F12833AC808002098B500AF164B1B8846
S31508001E601BB207EE903AB8EEE77A144BD3ED007A38
S31508001E7077EE677A17EE900AFEF758FB0CA3D3E9BC
S31508001E800023FEF7D1FC03460C4618462146FEF70A
S31508001E905BFE034600EE103A02F086FDF0EE407A4D
S31508001EA0074BC3ED007A00BF98BD00BFAFF30080B3
S31508001EB06666666666663040C0080020CC08002064
S31508001EC0D008002080B400AF044B1B6807EE903A98
S31508001ED0B0EE670ABD465DF8047B7047D00800205F
S31508001EE090B589B000AF4FF00003FB614FF00003D7
S31508001EF0BB610023FB75FB7D0133132B31DCFB7DB6
S31508001F00FA7D0132B24992000A441268B0499B0030
S31508001F100B441A60FB7DAE4A9B001344D3ED007A4E
S31508001F2097ED077A77EE277AC7ED077AFB7DFA7D74
S31508001F300132A84992000A441268A6499B000B443C
S31508001F401A60FB7DA34A9B001344D3ED007A97EDF4
S31508001F50067A77EE277AC7ED067AFB7D0133FB759D
S31508001F60C9E79D4B5B6A07EE903AF8EE677A9FEDF4
S31508001F709B7A77EE677AC7ED047A4FF080435B6AFF
S31508001F8007EE903AF8EE677A9FED947A77EEC77A7D
S31508001F90C7ED037A4FF0804347F6FA725A628E4BC2
S31508001FA047F6FA725A623869FEF7C0FA82A3D3E98D
S31508001FB00023FEF70FFB03460C461846214680A36E
S31508001FC0D3E90023FEF730FC03460C4618462146A3
S31508001FD07DA3D3E90023FEF7FDFA03460C4618460F
S31508001FE02146FEF7B1FD0246794BDA64F868FEF73A
S31508001FF09DFA71A3D3E90023FEF7ECFA03460C46D3
S31508002000184621466EA3D3E90023FEF70DFC0346C6
S315080020100C46184621466CA3D3E90023FEF7DAFAE4
S3150800202003460C4618462146FEF78EFD0246694BC6
S31508002030DA64674BD3ED137A97ED077A77EE277A4A
S31508002040C7ED077A624BD3ED137A97ED067A77EEEA
S31508002050277AC7ED067A97ED077AF3EE046AC7EE94
S31508002060267A5F4BC3ED007A97ED067AF3EE046A9B
S31508002070C7EE267A5B4BC3ED007A594B93ED007A8F
S31508002080584BD3ED007A37EE277AF0EE006AC7EEA2
S31508002090267A554BC3ED007A544B1B78002B4BD050
S315080020A0534B1B889AB2D7ED047AFDEEE77AC7ED53
S315080020B0017ABB889BB29BB213449BB29AB24C4B33
S315080020C01A804B4B1B881BB2002B09DA484B1B881E
S315080020D09BB203F580539BB29AB2454B1A802BE00C
S315080020E0434B1B881BB2B3F5805F13DD404B1B883F
S315080020F01AB2404B1340002B05DA013B6FEA035333
S315080021006FEA135301339AB2394B1A80374B0022C0
S315080021101A7011E0364B1B881CB202F08BFC024683
S31508002120354B1B68D31A07EE903AF8EE677A334AAE
S31508002130A3001344C3ED007A2C4B5B78002B74D0B4
S315080021402B4B5B889AB2D7ED037AFDEEE77AC7ED9B
S31508002150017ABB889BB29BB213449BB29AB2244BBA
S315080021605A80234B5B881BB2002B09DA204B5B880D
S315080021709BB203F580539BB29AB21D4B5A8054E02A
S315080021801B4B5B881BB2B3F5805F39DD184B5B8848
S315080021901AB2184B1340002B05DA013B6FEA0353BA
S315080021A06FEA135301339AB2114B5A800F4B002230
S315080021B05A703AE0AFF300805D8940F50F22593F27
S315080021C0FCA9F1D24D62503F32E6AE25E4837E3F4C
S315080021D0148B0020648B00200004004000F4FF46A6
S315080021E0DC080020D8080020E0080020F08800203D
S315080021F0E4080020FF0F0080F4880020E80800208B
S315080022000C4B5B881CB202F015FC02460A4B5B6855
S31508002210D31A07EE903AF8EE677A084A04F580531F
S3150800222001339B001344C3ED007A00BF2437BD4633
S3150800223090BD00BFE4080020F4880020E8080020CC
S3150800224080B500AFFFF77CFDB0EE407AF3EE047A76
S3150800225067EE277A9FED077A67EE877AF0EE006ACF
S3150800226087EEA67A044BD3ED007A77EE277AB0EE9E
S31508002270670A80BD6F12833AE008002080B584B0F3
S3150800228000AF03460A46FB711346BB71FB79042B64
S3150800229023D801A252F823F0AD220008AD22000887
S315080022A0B7220008C3220008CF220008144BFB609F
S315080022B004237B8112E0134BFB604FF400637B81A0
S315080022C00CE0104BFB604FF480637B8106E00D4BFE
S315080022D0FB604FF480537B8100E000BFBB79002B85
S315080022E005D07B891946F86802F0B2FE04E07B89BE
S315080022F01946F86802F0BCFE00BF1037BD4680BD1F
S31508002300000C02400008024080B584B000AF0346C6
S31508002310FB71FB79042B26D801A252F823F000BFE3
S31508002320352300083F2300084923000853230008E3
S315080023305D2300081E4BBB600F23FB7314E01C4B88
S31508002340BB600B23FB730FE0194BBB600823FB73C1
S315080023500AE0174BBB600A23FB7305E0144BBB600E
S315080023600E23FB7300E000BF0221B86802F09EFD51
S31508002370F97B00230122B86802F07AFCB86802F0FB
S3150800238041FD0221B86802F077FD0346002B0CBF19
S3150800239001230023DBB2002B00D0F2E7B86802F075
S315080023A041FD03461B119BB218461037BD4680BD3A
S315080023B00020014080B582B000AF0346FB71FB796F
S315080023C001211846FFF75AFF00BF0837BD4680BDF2
S315080023D080B582B000AF0346FB71FB790021184631
S315080023E0FFF74CFF00BF0837BD4680BD80B500AF7C
S315080023F00020FFF7EDFF0120FFF7EAFF0220FFF7B5
S31508002400E7FF0320FFF7E4FF00BF80BDB0B586B045
S3150800241000AF03460A46FB711346BB800023FB82C6
S315080024204FF000033B610023FB73FB7B0133042B56
S3150800243000F38280FA79F87BF979FB7B5C1C804D86
S315080024400B469B000B44234435F813407C4913463E
S315080024509B0013440344224621F81320FA79F97B9A
S31508002460774813469B0013440B4430F813309AB24E
S31508002470FB8A13449BB2FB82FB7B0133092B57DC97
S31508002480FA79F87BF979FB7B5C1C6E4D0B469B0051
S315080024900B445B00234435F813406A4913469B00F6
S315080024A013445B000344224621F81320FA79F87B8B
S315080024B0F979FB7B5C1C644D0B469B000B445B0067
S315080024C023449B002B4419685F4C13469B00134416
S315080024D05B0003449B0023441960FA79F87BF97979
S315080024E0FB7B5C1C594D0B469B000B445B002B4445
S315080024F023441C78554913469B0013445B000B4440
S31508002500034422461A70FA79F97B4E4813469B0013
S3150800251013445B000B4430F813301BB207EE903AB5
S31508002520F8EEE77A97ED047A77EE277AC7ED047A1C
S31508002530FB7B0133FB7378E7FA79414913469B0025
S3150800254013445B000B440833BA881A80FA8ABB889E
S3150800255013449BB2FB82B7F916303D4A82FB03123D
S315080025605210DB17D31ABB81FA79364913469B00FA
S3150800257013449B000B441233BA891A80B7F90C30FE
S3150800258007EE903AF8EEE77A97ED047A77EE277A2F
S31508002590C7ED047AFA79D7ED047AF2EE046A87EE83
S315080025A0A67AB7F90C3007EE903AF8EEE77A77EEA6
S315080025B0677A254913469B001344DB000B442433F2
S315080025C0C3ED007AFC79FB79184600F059FA034600
S315080025D0D9B21E4A23469B0023445B0013440933A1
S315080025E00A461A70FB79042B25D801A252F823F063
S315080025F0052600080F2600081926000823260008C5
S315080026002D260008B7F90C30124A136014E0B7F902
S315080026100C30114A13600FE0B7F90C300F4A1360FB
S315080026200AE0B7F90C300E4A136005E0B7F90C302A
S315080026300C4A136000E000BF00BF1837BD46B0BDA6
S31508002640B48B0020FC88002060890020288A00209E
S31508002650676666665C8A0020608A0020648A0020B5
S31508002660688A00206C8A002090B587B000AF0346C0
S31508002670FB71FFF7BBFE0020FFF746FE03469BB241
S315080026801BB21946002000F013F90120FFF73CFEA3
S3150800269003469BB21BB21946012000F009F9022035
S315080026A0FFF732FE03469BB21BB21946022000F022
S315080026B0FFF80320FFF728FE03469BB21BB2194614
S315080026C0032000F0F5F80420FFF71EFE03469BB230
S315080026D01BB21946042000F0EBF8FB79002B0FD04B
S315080026E00020FFF767FE0120FFF764FE00237B61E9
S315080026F07B69B3F5966F03DA7B6901337B61F7E78C
S315080027000020FFF701FE03461C46002000F092F861
S3150800271003469BB2E31A9BB29BB21BB21946002032
S31508002720FFF774FE0120FFF7EFFD03461C46012064
S3150800273000F080F803469BB2E31A9BB29BB21BB229
S3150800274019460120FFF762FE0020FFF741FEFB79DC
S31508002750002B0CD00220FFF72DFE00233B613B69BE
S31508002760B3F5966F03DA3B6901333B61F7E702205D
S31508002770FFF7CAFD03461C46022000F05BF8034635
S315080027809BB2E31A9BB29BB21BB219460220FFF713
S315080027903DFE0220FFF71CFEFB79002B0CD0032020
S315080027A0FFF708FE0023FB60FB68B3F5966F03DAB4
S315080027B0FB680133FB60F7E70320FFF7A5FD034637
S315080027C01C46032000F036F803469BB2E31A9BB278
S315080027D09BB21BB219460320FFF718FE0320FFF72A
S315080027E0F7FDFB79002B0CD00420FFF7E3FD00234F
S315080027F0BB60BB68B3F5966F03DABB680133BB6091
S31508002800F7E70420FFF780FD03461C46042000F086
S3150800281011F803469BB2E31A9BB29BB21BB2194648
S315080028200420FFF7F3FD0420FFF7D2FD00BF1C3795
S31508002830BD4690BD80B483B000AF0346FB71FB79FB
S31508002840042B21D801A252F823F000BF6128000802
S3150800285069280008712800087928000881280008D6
S315080028600E4B1B689BB211E00D4B1B689BB20DE02B
S315080028700C4B1B689BB209E00B4B1B689BB205E02F
S315080028800A4B1B689BB201E000BF00231BB2184627
S315080028900C37BD465DF8047B704700BF708A002080
S315080028A0748A0020788A00207C8A0020808A00208A
S315080028B080B483B000AF03460A46FB711346BB805B
S315080028C0FB79042B25D801A252F823F0E128000849
S315080028D0EB280008F5280008FF2800080929000841
S315080028E0B7F904300E4A136014E0B7F904300D4AFC
S315080028F013600FE0B7F904300B4A13600AE0B7F922
S3150800290004300A4A136005E0B7F90430084A136030
S3150800291000E000BF00BF0C37BD465DF8047B70477A
S31508002920708A0020748A0020788A00207C8A002019
S31508002930808A002080B483B000AF0346FB71FB7920
S31508002940042B21D801A252F823F000BF6129000800
S3150800295069290008712900087929000881290008D1
S315080029600E4B1B689BB211E00D4B1B689BB20DE02A
S315080029700C4B1B689BB209E00B4B1B689BB205E02E
S315080029800A4B1B689BB201E000BF00231BB2184626
S315080029900C37BD465DF8047B704700BF5C8A002093
S315080029A0608A0020648A0020688A00206C8A0020D9
S315080029B090B583B000AF0346FB71FB79012B2BD092
S315080029C0022B15D0002B3BD10020FFF7B3FF03469F
S315080029D01C46002001F018FD03469C42ACBF0123AB
S315080029E00023DBB2002B01D001232AE0002328E0D4
S315080029F00120FFF79FFF03461C46012001F004FD56
S31508002A0003469C42ACBF01230023DBB2002B01D056
S31508002A10012316E0002314E00420FFF78BFF03468A
S31508002A201C46042001F0F0FC03469C42ACBF01237F
S31508002A300023DBB2002B01D0012302E0002300E0D3
S31508002A40002318460C37BD4690BD00BF90B583B02D
S31508002A5000AF0346FB71FB791846FFF76BFF034689
S31508002A601C46FB79184601F0CFFC03469C42ACBFD6
S31508002A7001230023DBB218460C37BD4690BD00BFC4
S31508002A8080B485B000AF0346FB710023FB730023B7
S31508002A90BB73BB7B092B1FD8FA79B97B124813463F
S31508002AA09B0013445B000B449B000344D3ED007A60
S31508002AB0F5EEC07AF1EE10FA05D5FB7BDBB2013BE9
S31508002AC0DBB2FB7304E0FB7BDBB20133DBB2FB73E7
S31508002AD0BB7B0133BB73DCE7FB7B5BB21846143761
S31508002AE0BD465DF8047B70476089002090B583B0C9
S31508002AF000AF0346FB71FB791846FFF7C1FF034693
S31508002B00002B16DAFB791846FFF7BAFF03465B4235
S31508002B101846FDF7F9FC01231C464FF00002144B3A
S31508002B20FDF7CAFF0346002B01D100231C46E3B27A
S31508002B3014E0FB791846FFF7A3FF03461846FDF78E
S31508002B40E3FC01231C464FF00002094BFDF7B4FFD6
S31508002B500346002B01D100231C46E3B2002B01D00B
S31508002B60002300E0012318460C37BD4690BD00BF80
S31508002B700000204080B483B000AF0346FB71FB79A8
S31508002B80012B21D0022B39D0002B03D000BFDFED5B
S31508002B902B7A4CE02A4BD3ED007AB3EE0E7A27EE69
S31508002BA0877A274BD3ED017ADFED266A67EEA67A98
S31508002BB037EE277A224BD3ED027ADFED206A67EEED
S31508002BC0A67A77EE277A32E01F4BD3ED007A9FED8F
S31508002BD01F7A27EE877A1C4BD3ED017ADFED1C6A44
S31508002BE067EEA67A37EE277A174BD3ED027ADFED32
S31508002BF0136A67EEA67A77EE277A18E0154BD3EDB7
S31508002C00007A9FED157A27EE877A124BD3ED017A73
S31508002C10DFED0A6A67EEA67A37EE277A0D4BD3ED13
S31508002C20027ADFED066A67EEA67A77EE277AB0EEC5
S31508002C30670A0C37BD465DF8047B70470000000044
S31508002C40888A002000001643A08A00200000164447
S31508002C5000800945948A0020CDCCCC3D00000000B8
S31508002C60B0B52DED028B86B000AF4FF000037B6147
S31508002C704FF000033B61B84B1B68FB6001F034FC66
S31508002C80B0EE408AFFF7DCFAF0EE407A78EE677A23
S31508002C90B14BC3ED007AB04B5B681846FDF746FCAE
S31508002CA004460D46AC4B1B681846FDF73FFCA8A327
S31508002CB0D3E90023FDF78EFC02460B46204629463B
S31508002CC0FDF7D6FA03460C4618462146FDF73CFFA3
S31508002CD00246A14B5A60A14B1B68FB604FF00003EC
S31508002CE03B604FF00003BB604FF000037B600020A1
S31508002CF0FFF7ACFE0346002B06D000F097FA034612
S31508002D00002B01D0012300E00023002B4ED0002029
S31508002D1001F050FB07EE900AF8EE677AC7ED027AE3
S31508002D200020FFF707FE034607EE903AF8EEE77A2B
S31508002D30C7ED017A97ED017AD7ED027A77EE677AD1
S31508002D40C7ED007A97ED007A854BD3ED007AB4EE9D
S31508002D50E77AF1EE10FA02DD814B1B683B60D7ED8E
S31508002D60007AF5EEC07AF1EE10FA0CD5D7ED007AB6
S31508002D70BAEE047AF4EEC77AF1EE10FA4CBF0123E4
S31508002D800023DBB20BE0D7ED007AB2EE047AF4EE5C
S31508002D90C77AF1EE10FACCBF01230023DBB2002B71
S31508002DA001D03B687B610020FFF7A0FE0020FFF7FB
S31508002DB0FFFD0346002B06D000F038FA0346002B29
S31508002DC001D0012300E00023002B4ED0012001F0A2
S31508002DD0F1FA07EE900AF8EE677AC7ED027A012053
S31508002DE0FFF7A8FD034607EE903AF8EEE77AC7ED37
S31508002DF0017A97ED017AD7ED027A77EE677AC7ED11
S31508002E00007A97ED007A564BD3ED007AB4EEE77A5E
S31508002E10F1EE10FA02DD524B1B683B60D7ED007AE3
S31508002E20F5EEC07AF1EE10FA0CD5D7ED007ABBEEC6
S31508002E300E7AF4EEC77AF1EE10FA4CBF012300239E
S31508002E40DBB20BE0D7ED007AB3EE0E7AF4EEC77A72
S31508002E50F1EE10FACCBF01230023DBB2002B01D020
S31508002E603B683B610120FFF741FE01F03DFBB0EEF8
S31508002E70407AF4EE007AB4EEE77AF1EE10FA4CBF37
S31508002E8001230023DBB2002B05D04FF000033B6182
S31508002E904FF000037B6197ED057AD7ED047A77EE5C
S31508002EA0677A2E4BC3ED007A2E4B1B68FB6001F048
S31508002EB039FBB0EE408AFFF705F8F0EE407A78EE77
S31508002EC0677A284BC3ED007A264B5B681846FDF7F0
S31508002ED02DFB04460D46234B1B681846FDF726FBBB
S31508002EE01BA3D3E90023FDF775FB02460B462046D4
S31508002EF02946FDF7BDF903460C4618462146FDF757
S31508002F0023FE0246174B5A60144BD3ED007AF5EEB2
S31508002F10407AF1EE10FA06D000F088F90346002B45
S31508002F2001D0012300E00023002B04D00D4B4FF005
S31508002F3000025A6003E0094B4FF000025A6000BFD6
S31508002F401837BD46BDEC028BB0BD00BFAFF300809D
S31508002F50FCA9F1D24D62503FA08A0020948A002035
S31508002F600C000020888A002080B500AF0120FFF7FA
S31508002F7001FEF0EE407AB0EE670A80BD80B52DED11
S31508002F80028B00AF0D4B1B78002B0CD00020FFF7EF
S31508002F90F1FDB0EE408A0220FFF7ECFDF0EE407A34
S31508002FA078EE677A04E00020FFF7E4FDF0EE407A59
S31508002FB0B0EE670ABD46BDEC028B80BDAD8A002027
S31508002FC080B52DED028B82B000AF0346FB7197F9F1
S31508002FD00730002B0AD1FFF7C7FFB0EE408AFFF78C
S31508002FE0CDFFF0EE407A78EE677A09E0FFF7BCFF8E
S31508002FF0B0EE408AFFF7C2FFF0EE407A78EE277A05
S31508003000B0EE670A0837BD46BDEC028B80BD00BF2F
S31508003010B0B52DED028B84B000AF0346FB7197F96E
S315080030200730002B18D101F05FFAB0EE408A01F0A4
S3150800303079FAB0EE407ADFED487A67EE277AF0EE55
S31508003040006A87EEA67ADFED456AC7EE267A78EE3D
S31508003050677AC7ED037A17E001F046FAB0EE408AC0
S3150800306001F060FAB0EE407ADFED3B7A67EE277A38
S31508003070F0EE006A87EEA67ADFED386AC7EE267AA2
S3150800308078EE277AC7ED037AF868FDF74FFA2EA38C
S31508003090D3E90023FDF7C8FB03460C46184621462C
S315080030A04FF000022E4BFDF795FA03460C461846DC
S315080030B021464FF000022B4BFDF7B6FB03460C46A4
S315080030C0184621464FF00002274BFDF783FA0346C0
S315080030D00C46184621464FF00002244BFDF7A4FB88
S315080030E003460C461846214619A3D3E90023FDF7E3
S315080030F09BFB03460C4625461C46FEF7C9F810EE10
S31508003100103A1846FDF712FA02460B46204629469B
S31508003110FDF78AFB03460C46184621464FF0000287
S31508003120134BFDF757FA03460C4618462146FDF79A
S315080031300BFD034607EE903AB0EE670A1037BD4618
S31508003140BDEC028BB0BD00BFF5E9D0A8828A083F66
S315080031503333333333D36B400000304200007A44B4
S315080031600080444000002240000016400000124043
S315080031700000594080B582B000AF00F04BF8034616
S31508003180002B3FD0214B1B78002B03D1204B1B78FB
S31508003190002B37D04FF000037B604FF000033B60F5
S315080031A01A4B1B78002B09D00020FFF731FF87ED5B
S315080031B0010A0220FFF72CFF87ED000A144B1B7843
S315080031C0002B15D00020FFF7FBFEB0EE407AD7EDB6
S315080031D0017A77EE877AC7ED017A0220FFF7F0FECB
S315080031E0B0EE407AD7ED007A77EE877AC7ED007AA7
S315080031F097ED010A0120FEF78FFA97ED000A0020E5
S31508003200FEF78AFA00BF0837BD4680BDAE8A0020A1
S315080032100800002080B400AF034B1B781846BD4653
S315080032205DF8047B704700BFAC8A002080B400AF0D
S31508003230034B1B781846BD465DF8047B704700BFF4
S31508003240AD8A002080B483B000AF03463960FB71B5
S3150800325097F90730002B0BDA0D49FB7903F00F03BA
S31508003260043B3A68D2B21201D2B20B441A7609E08C
S31508003270084997F907303A68D2B21201D2B20B441C
S3150800328083F8002300BF0C37BD465DF8047B704702
S3150800329000ED00E000E100E080B582B000AF7860A4
S315080032A07B68013BB3F1807F01D301230FE00A4A13
S315080032B07B68013B53600F214FF0FF30FFF7C2FFD9
S315080032C0054B00229A60044B07221A600023184611
S315080032D00837BD4680BD00BF10E000E080B500AFEE
S315080032E000F00EF800F024F800F0F8F800F05EF9A7
S315080032F000F0A2F900F008FA00F0D4FA00BF80BD89
S3150800330080B584B000AF01F0C7FA3B46184601F015
S3150800331009FF7B68054AA2FB03239B091846FFF7AA
S31508003320BBFF00BF1037BD4680BD00BFD34D62103E
S3150800333080B582B000AF634A624B1B6823F0847382
S3150800334023F4803313600121012001F095FF012148
S31508003350022001F091FF0121042001F08DFF0121D7
S31508003360082001F089FF0121802001F085FF3B46F6
S31508003370184601F039FE49F210033B6002237B71BF
S3150800338001233B710023BB710023FB713B461946A1
S315080033904D4801F09BFD4FF480433B603B46194680
S315080033A04A4801F093FD4FF480433B6000233B718C
S315080033B00123FB713B461946434801F087FD3B460E
S315080033C0184601F011FE4DF60C433B6002237B7153
S315080033D001233B710023BB710023FB713B46194651
S315080033E03B4801F073FD0421394801F031FE0821FC
S315080033F0374801F02DFE4FF48061354801F028FE6C
S315080034004FF40061324801F023FE4FF480513048F2
S3150800341001F01EFE4FF480412D4801F019FE4FF4CD
S3150800342000412B4801F014FE3B46184601F0DCFD2E
S3150800343003233B6002237B7101233B710023BB718D
S315080034400023FB713B461946224801F03FFD012146
S31508003450204801F0FDFD02211E4801F0F9FD3B461A
S31508003460184601F0C1FD4FF4E0533B6002237B711F
S3150800347001233B710023BB710023FB713B461946B0
S31508003480134801F023FD04233B603B4619461248C6
S3150800349001F01CFD4FF480610D4801F0E9FD4FF481
S315080034A000610B4801F0E4FD4FF48051084801F033
S315080034B0DFFD0421084801F0DBFD00BF0837BD46E3
S315080034C080BD00BF003802400004024000000240F0
S315080034D000080240001C0240000C024080B58CB077
S315080034E000AF0121022001F0C7FE0121042001F0EE
S315080034F0C3FE07F12803184601F076FD032387F873
S315080035002C30002387F82F30022387F82D30032329
S31508003510BB6207F128031946214801F0D7FC33237B
S31508003520BB6207F1280319461E4801F0CFFC0021AB
S315080035301D4801F081FB01214FF4807001F0DCFE8B
S3150800354001F0EEFA00233B604FF480337B600023E2
S31508003550BB604FF47063FB603B46184601F044FBC2
S3150800356000233B6100233B7500237B750023BB6169
S3150800357000233B62092387F8243007F11003194614
S31508003580094801F0DBFA0121074801F055FB002143
S31508003590054801F055FC00BF3037BD4680BD00BF69
S315080035A000040240000802400020014080B586B0B1
S315080035B000AF0121102001F09FFE0121012001F03A
S315080035C05BFE072209211A4801F062FD07220A213B
S315080035D0174801F05DFD4FF4C0633B6102237B751C
S315080035E002233B7507F110031946114801F06EFCDA
S315080035F04FF4E1333B600023BB800023FB800023AC
S315080036003B810023BB810C237B813B461946094835
S3150800361002F0B8F9012240F22551064802F0A0FA54
S315080036200121044802F06AFA00BF1837BD4680BD7A
S31508003630000002400010014080B588B000AF0121AB
S315080036404FF4805001F058FE0121012001F014FECC
S3150800365007F11803184601F0C7FC1023BB610123C4
S315080036603B7703237B770023BB770023FB7707F1A0
S3150800367018031946224801F029FC02233B77E02368
S31508003680BB6107F1180319461D4801F01FFC1021FC
S315080036901B4801F0DDFC05220521194801F0F8FC5C
S315080036A005220621164801F0F3FC052207211448D5
S315080036B001F0EEFC0023BB804FF48273FB800023ED
S315080036C03B8100237B810023BB814FF44073FB8140
S315080036D010233B8200237B820723BB823B1D1946AE
S315080036E0084801F049FE0121064801F089FE10212B
S315080036F0034801F0ADFC00BF2037BD4680BD00BFC2
S31508003700000002400030014080B58AB000AF0121B8
S31508003710012001F0B1FD0121022001F0ADFD0423D5
S315080037203B62032387F82530012387F824300023DA
S3150800373087F82630012387F8273007F12003194632
S31508003740534801F0C3FB0421514801F091FC0121C3
S31508003750042001F0B1FD0121082001F0ADFD03238D
S315080037603B62022387F82430022387F8253000239A
S3150800377087F82630002387F8273007F120031946F3
S31508003780434801F0A3FBC0233B6207F12003194617
S31508003790404801F09BFB40F2EB43BB610023BB8230
S315080037A00023BB830023FB820023BB7707F11403A6
S315080037B01946394801F07EFE07F1140319463748C1
S315080037C001F078FE60233B800023BB8101237B80C8
S315080037D00023BB603B4619462F4801F025FF082108
S315080037E02D4802F023F83B4619462B4801F096FF70
S315080037F00821294802F036F83B461946274801F0C1
S3150800380013FF0821254802F011F83B4619462348BC
S3150800381001F084FF0821214802F024F801214FF025
S31508003820804001F0C1FE01214FF0804002F038F8D7
S3150800383001211B4801F0B8FE0121194802F030F8B1
S3150800384002220621134801F023FC0222072111480F
S3150800385001F01EFC022200210D4801F019FC02228B
S3150800386001210B4801F014FC01210B4801F09CFED4
S3150800387001210A4801F098FE0121074801F0B4FE2B
S315080038800121064801F0B0FE00BF2837BD4680BDBD
S31508003890000002400004024000080040000C0040FE
S315080038A00004004080B586B000AF0121022001F077
S315080038B0E3FC0121042001F0DFFC0121012001F0D5
S315080038C0FBFC0121022001F0F7FC022206213948FF
S315080038D001F0DEFB02220721364801F0D9FB01225E
S315080038E00F21354801F0D4FB01220321334801F0AA
S315080038F0CFFB07F11003184601F076FBC0233B61A6
S3150800390002233B7502237B750023BB750023FB75D9
S3150800391007F110031946274801F0D8FA4FF4004377
S315080039203B6107F110031946234801F0CFFA082333
S315080039303B6107F110031946204801F0C7FA4FF614
S31508003940FE73BB600023BB800023BB810023FB8082
S315080039500023BB733B1D19464FF0804001F0AAFDBA
S315080039603B1D1946164801F0A5FD4FF6FF714FF0AD
S31508003970804001F00BFE0023002203214FF0804017
S3150800398001F0B4FF01214FF0804001F02DFE4FF603
S31508003990FF710B4801F0FAFD0023002203210848B5
S315080039A001F0A4FF0121064801F01EFE00BF1837EA
S315080039B0BD4680BD000802400000024000040240E7
S315080039C0000400400000000090B583B000AF00235B
S315080039D0FB80B7F90630092B1CDC00237B807B882B
S315080039E09BB21BB242F20F729342D4BF012300234B
S315080039F0DBB2002B08D07B889BB29BB29BB201330B
S31508003A009BB29BB27B80EAE7FB889BB201339BB2F1
S31508003A10FB80DEE7FFF762FC00F020FD052264214B
S31508003A200820FDF753FE4249424800F0B5FEFDF76F
S31508003A302FFC10EE103A1846FCF778FD03460C46A4
S31508003A401A4623463C4800F0A7FEFEF7D7F8FDF7CE
S31508003A50E1FD00F0EFFB394800F06EFC00237B71B6
S31508003A604FF48041364801F0D9FA0346002B0CBFC3
S31508003A7001230023DBB2002B00D0F1E7642000F01D
S31508003A80E5FFFDF705FC10EE103A1846FCF74EFD6B
S31508003A9001231C4624A3D3E90023FDF70DF80346AA
S31508003AA0002B01D100231C46E3B2002B1CD0FDF7E6
S31508003AB0DFFD4FF4FA7000F0C9FFFDF7ABFD4FF4D8
S31508003AC0FA7000F0C3FF4FF480411D4801F0A6FAD2
S31508003AD00346002B0CBF01230023DBB2002BE6D0E4
S31508003AE0642000F0B3FF00BF4FF48041144801F092
S31508003AF095FA0346002B0CBF01230023DBB2002BEB
S31508003B0000D0F1E7642000F0A1FFFEF77BF9FDF78E
S31508003B10D9FEB3EE040A0020FDF7FEFDB3EE040A53
S31508003B200120FDF7F9FDFEE76666666666660E40E5
S31508003B30109900081C9900083099000824C901202A
S31508003B400004024098B500AF4FF480413A4801F0AE
S31508003B507FFA3A4B1B680133384A136000F08AFC37
S31508003B60364B1B68184600F049FF0120FEF77CFD1E
S31508003B70FEF7F4F8FEF762F8FEF7B2F900F084FDF6
S31508003B80FFF76EF8FFF7F6FAFDF7B8FE0346002BC7
S31508003B904BD02B4B1B889BB2002B0CBF0123002359
S31508003BA0DBB2002B11D0274BD3ED007ABFEE007A9B
S31508003BB0F4EE477AF1EE10FA37D1214B1B889BB207
S31508003BC001339AB21E4B1A802FE01D4B1B889BB2FD
S31508003BD042F20F72934294BF01230023DBB2002BFB
S31508003BE023D0174B1B889BB21C4600F09BFCF0EEBB
S31508003BF0407A144AA3001344C3ED007A104B1B887D
S31508003C009BB21C46FEF71CFBF0EE407A0D4A04F503
S31508003C101C5310339B001344C3ED007A084B1B88D2
S31508003C209BB201339AB2064B1A804FF48041024880
S31508003C3001F01EFA00BF98BD00000240E88B002084
S31508003C406CC40120EC8B002080B485B000AF78608E
S31508003C500B46FB701346BB70BB78002B02D00123C2
S31508003C60FB7301E00023FB73FB781F2B00F28481B2
S31508003C7001A252F823F000BFF93C00080D3D0008E8
S31508003C80213D0008353D0008493D00085D3D000816
S31508003C90713D0008853D0008993D0008AD3D0008C6
S31508003CA0C13D0008D53D0008E93D0008FD3D000876
S31508003CB0113E0008253E0008393E00084D3E000822
S31508003CC0613E0008753E0008893E00089D3E0008D2
S31508003CD0B13E0008C53E0008D93E0008ED3E000882
S31508003CE0013F0008153F0008293F00083D3F00082E
S31508003CF0513F0008653F0008FB7B03F00103D9B27A
S31508003D007A68137861F30003137035E1FB7B03F0DF
S31508003D100103D9B27A68137861F3410313702BE172
S31508003D20FB7B03F00103D9B27A68137861F3820347
S31508003D30137021E1FB7B03F00103D9B27A6813788B
S31508003D4061F3C303137017E1FB7B03F00103D9B2D8
S31508003D507A68137861F3041313700DE1FB7B03F0A3
S31508003D600103D9B27A68137861F34513137003E136
S31508003D70FB7B03F00103D9B27A68137861F38613E3
S31508003D801370F9E0FB7B03F00103D9B27A68137864
S31508003D9061F3C7131370EFE0FB7B03F00103D9B29D
S31508003DA07A68537861F300035370E5E0FB7B03F010
S31508003DB00103D9B27A68537861F341035370DBE0A3
S31508003DC0FB7B03F00103D9B27A68537861F3820367
S31508003DD05370D1E0FB7B03F00103D9B27A685378BC
S31508003DE061F3C3035370C7E0FB7B03F00103D9B249
S31508003DF07A68537861F304135370BDE0FB7B03F0D4
S31508003E000103D9B27A68537861F345135370B3E066
S31508003E10FB7B03F00103D9B27A68537861F3861302
S31508003E205370A9E0FB7B03F00103D9B27A68537893
S31508003E3061F3C71353709FE0FB7B03F00103D9B20C
S31508003E407A68937861F30003937095E0FB7B03F03F
S31508003E500103D9B27A68937861F3410393708BE0D2
S31508003E60FB7B03F00103D9B27A68937861F3820386
S31508003E70937081E0FB7B03F00103D9B27A689378EB
S31508003E8061F3C303937077E0FB7B03F00103D9B2B8
S31508003E907A68937861F3041393706DE0FB7B03F003
S31508003EA00103D9B27A68937861F34513937063E096
S31508003EB0FB7B03F00103D9B27A68937861F3861322
S31508003EC0937059E0FB7B03F00103D9B27A689378C3
S31508003ED061F3C71393704FE0FB7B03F00103D9B27C
S31508003EE07A68D37861F30003D37045E0FB7B03F06F
S31508003EF00103D9B27A68D37861F34103D3703BE002
S31508003F00FB7B03F00103D9B27A68D37861F38203A5
S31508003F10D37031E0FB7B03F00103D9B27A68D3781A
S31508003F2061F3C303D37027E0FB7B03F00103D9B227
S31508003F307A68D37861F30413D3701DE0FB7B03F032
S31508003F400103D9B27A68D37861F34513D37013E0C5
S31508003F50FB7B03F00103D9B27A68D37861F3861341
S31508003F60D37009E0FB7B03F00103D9B27A68D378F2
S31508003F7061F3C713D37000BF00BF1437BD465DF8A1
S31508003F80047B704780B584B000AF0346FB710B46CF
S31508003F90BB7113467B71FB79FB73BB79BB737B796A
S31508003FA0002B02D07B79022B24D17B79002B08D0F9
S31508003FB07B79022B05D1FB79002B44D0FB79013B99
S31508003FC0FB73FB7B0F2B09D8BB7B9B00214A134451
S31508003FD0F97B01221846FFF737FE37E000F086FB2B
S31508003FE01D4800F0D9FB1D4800F0D6FB1C4800F020
S31508003FF0D3FB2BE07B79012B02D07B79032B25D1D0
S315080040007B79012B08D07B79032B05D1BB79002B53
S315080040101BD0BB79013BBB73BB7B0F2B09D8FB7B42
S315080040209B00104A1344B97B01221846FFF70CFE81
S315080040300CE0094800F0B0FB0B4800F0ADFB08485F
S3150800404000F0AAFB02E000BF00E000BF1037BD4643
S3150800405080BD00BFF0C401204099000850990008AF
S315080040609899000830C50120B499000880B584B035
S3150800407000AF0346FB710B46BB7113467B71FB7998
S31508004080FB73BB79BB737B79002B02D07B79022B40
S3150800409022D17B79002B08D07B79022B05D1FB79BD
S315080040A0002B42D0FB79013BFB73FB7B0F2B09D816
S315080040B0BB7B9B00204A1344F97B01221846FFF775
S315080040C0C3FD35E01D4800F067FB1D4800F064FBA2
S315080040D01C4800F061FB2BE07B79012B02D07B7931
S315080040E0032B25D17B79012B08D07B79032B05D1AE
S315080040F0BB79002B1BD0BB79013BBB73BB7B0F2B5A
S3150800410009D8FB7B9B00104A1344B97B0122184649
S31508004110FFF79AFD0CE0094800F03EFB0B4800F05B
S315080041203BFB084800F038FB02E000BF00E000BF98
S315080041301037BD4680BD00BF70C4012040990008F5
S315080041404C9B00088C9B0008B0C40120A49B000867
S3150800415080B584B000AF0346FB710B46BB711346AE
S315080041607B71FB79FB73BB79BB737B79002B02D020
S315080041707B79022B22D17B79002B08D07B79022B05
S3150800418005D1FB79002B42D0FB79013BFB73FB7B06
S315080041900F2B09D8BB7B9B00204A1344F97B0022CE
S315080041A01846FFF751FD35E01D4800F0F5FA1D48A1
S315080041B000F0F2FA1C4800F0EFFA2BE07B79012BAD
S315080041C002D07B79032B25D17B79012B08D07B790B
S315080041D0032B05D1BB79002B1BD0BB79013BBB73E5
S315080041E0BB7B0F2B09D8FB7B9B00104A1344B97B7A
S315080041F000221846FFF728FD0CE0094800F0CCFA23
S315080042000B4800F0C9FA084800F0C6FA02E000BFF9
S3150800421000E000BF1037BD4680BD00BF70C4012056
S31508004220409900084C9B0008E49B0008B0C4012094
S31508004230A49B000880B582B000AF00237B607B6832
S315080042400F2B17DC384A7B68002142F82310374ABF
S315080042507B68002142F82310354A7B68002142F822
S315080042602310344A7B68002142F823107B68013307
S315080042707B60E4E700233B603B680F2B3BDC3B6835
S31508004280DBB2022219460020FFF7F0FE3B68DBB2DC
S31508004290022219460020FFF775FE3B68DBB20022B2
S315080042A019460F20FFF7E2FE3B68DBB200221946EB
S315080042B00F20FFF767FE3B68DBB203220021184692
S315080042C0FFF7D4FE3B68DBB2032200211846FFF74E
S315080042D059FE3B68DBB201220F211846FFF7C6FEDE
S315080042E03B68DBB201220F211846FFF74BFE3B68FD
S315080042F001333B60C0E7002200210020FFF7B6FE2D
S31508004300002200210020FFF73DFE012200210020A7
S31508004310FFF71EFF012200210020FFF733FE00BF32
S315080043200837BD4680BD00BF70C40120B0C4012057
S31508004330F0C4012030C5012080B485B000AF786094
S315080043400023FB60FB680F2B26DC164AFB6852F835
S3150800435023107B68FA6843F82210134AFB6852F860
S3150800436023107B68FA68103243F822100F4AFB685C
S3150800437052F823107B68FA68203243F822100C4A58
S31508004380FB6852F823107B68FA68303243F822102B
S31508004390FB680133FB60D5E700BF1437BD465DF8FF
S315080043A0047B704770C40120B0C40120F0C401200A
S315080043B030C5012080B483B000AF0346FB71FB799A
S315080043C0042B19D801A252F823F000BFE1430008D4
S315080043D0E5430008EB430008EF430008F3430008F1
S315080043E06E230AE04FF4BE7307E0002305E0BE2300
S315080043F003E040F2A46300E0002318460C37BD46EC
S315080044005DF8047B704700BF80B483B000AF0346F5
S31508004410FB71FB79042B18D801A252F823F000BFD0
S31508004420354400083B4400083F440008434400085C
S315080044304744000840F6B83308E0502306E06423F2
S3150800444004E0822302E0962300E000231BB218460C
S315080044500C37BD465DF8047B704700BF80B400AFDB
S31508004460034B00221A6000BFBD465DF8047B704707
S3150800447020C9012080B400AF044B1B680133034AEE
S31508004480136000BFBD465DF8047B704720C9012054
S3150800449080B400AF044B1B6807EE903AB0EE670A8B
S315080044A0BD465DF8047B704704C9012080B400AF9F
S315080044B0044B1B6807EE903AB0EE670ABD465DF8F6
S315080044C0047B704708C9012080B483B000AF87ED2C
S315080044D0010A044A7B68136000BF0C37BD465DF8C5
S315080044E0047B70470CC9012080B400AF044B1B68DD
S315080044F007EE903AB0EE670ABD465DF8047B704752
S315080045000CC9012080B483B000AF87ED010A044AC4
S315080045107B68136000BF0C37BD465DF8047B7047A7
S3150800452010C9012080B400AF044B1B6807EE903A0F
S31508004530B0EE670ABD465DF8047B704710C90120D6
S31508004540B0B500AFFFF7D0FF10EE103A1846FBF7EC
S31508004550EDFF04460D46FFF79BFF10EE103A18468E
S31508004560FBF7E4FF1EA3D3E90023FCF733F8024662
S315080045700B4620462946FBF77BFE03460C461846A3
S315080045802146FCF7E1FA034600EE103AFFF79CFFD6
S31508004590FFF7C8FF10EE103A1846FBF7C7FF0446A8
S315080045A00D46FFF783FF10EE103A1846FBF7BEFFDD
S315080045B00BA3D3E90023FCF70DF802460B46204669
S315080045C02946FBF755FE03460C4618462146FCF7D6
S315080045D0BBFA034600EE103AFFF794FF00BFB0BDE2
S315080045E0FCA9F1D24D62503FB0B500AFFFF77CFF92
S315080045F010EE103A1846FBF799FF1FA3D3E90023DC
S31508004600FBF7E8FF03460C4625461C461C4B1B6871
S315080046101846FBF78BFF22462B46FBF729FE034677
S315080046200C4618462146FCF78FFA0246144B1A60C8
S31508004630FFF75AFF10EE103A1846FBF777FF0EA35E
S31508004640D3E90023FBF7C6FF03460C4625461C465E
S315080046500C4B1B681846FBF769FF22462B46FBF7EF
S3150800466007FE03460C4618462146FCF76DFA024635
S31508004670044B1A6000BFB0BDFCA9F1D24D62503F91
S315080046801CC9012018C90120B0B500AFFFF758FFB3
S31508004690FFF7AAFFFFF746FF10EE103A1846FBF79A
S315080046A045FF10A3D3E90023FBF794FF03460C4606
S315080046B025461C460A4B1B681846FBF737FF224659
S315080046C02B46FBF7D5FD03460C4618462146FCF754
S315080046D03BFA0246024B1A6000BFB0BDAFF300803A
S315080046E014C90120FCA9F1D24D62503F80B500AF34
S315080046F04FF480410C4800F091FC0346012B0CBF97
S3150800470001230023DBB2002B0CD0FCF7B1FF4FF4DA
S31508004710FA7000F09BF9FCF77DFF4FF4FA7000F091
S3150800472095F9E5E700BF80BD0004024080B582B078
S3150800473000AF0346FB71FB799BB21946074801F0A7
S31508004740FDF900BF8021054801F052FA0346002B07
S31508004750F8D000BF0837BD4680BD00BF0010014035
S3150800476080B584B000AF78600B467B800023FB8160
S3150800477009E0FB897A6813441B781846FFF7D6FFC9
S31508004780FB890133FB81FA89B7F902309A42F0DBDB
S3150800479000BF1037BD4680BD0FB480B582B000AFEC
S315080047A007F114033B603A683969094801F0D2FAFF
S315080047B078607B689BB21BB219460548FFF7D0FFA5
S315080047C07B6818460837BD46BDE8804004B0704788
S315080047D02CCA012080B400AF00BFBD465DF8047B3B
S315080047E0704700BF80B400AFFEE700BF80B400AFDB
S315080047F0FEE700BF80B400AFFEE700BF80B400AF9D
S31508004800FEE700BF80B400AF00BFBD465DF8047B7D
S31508004810704700BF80B400AF00BFBD465DF8047B9B
S31508004820704700BF80B400AF00BFBD465DF8047B8B
S31508004830704700BF80B500AFFFF784F900BF80BDA1
S3150800484080B584B000AF7860114B1B68002B02D18D
S315080048500F4B104A1A600E4B1B68FB600C4B1A680C
S315080048607B6813446A46934207D901F0DDF902468C
S315080048700C2313604FF0FF3306E0054B1A687B687C
S315080048801344034A1360FB6818461037BD4680BDBB
S3150800489094CA012060CE012080B500AF164A164B97
S315080048A0D3F8883043F47003C2F88830134A134BA0
S315080048B01B6843F001031360104B00229A600F4AED
S315080048C00E4B1B6823F0847323F4803313600B4B61
S315080048D00B4A5A60094A094B1B6823F48023136064
S315080048E0064B0022DA6000F00DF8034B4FF0006229
S315080048F09A6000BF80BD00BF00ED00E000380240AE
S315080049001030002480B400AF234A234B1B6C43F0BD
S3150800491080531364214A214B1B6843F440431360B8
S315080049201D4A1D4B9B6893601B4A1B4B9B6843F4AF
S3150800493000439360184A184B9B6843F4A05393604E
S31508004940154B174A5A60144A134B1B6843F0807379
S31508004950136000BF104B1B6803F00073002BF9D0DF
S31508004960104B40F205621A600B4A0B4B9B6823F00A
S3150800497003039360084A084B9B6843F0020393605D
S3150800498000BF054B9B6803F00C03082BF9D100BF49
S31508004990BD465DF8047B7047003802400070004051
S315080049A010540007003C024090B583B000AF87ED75
S315080049B0010A7868FBF7BAFD0EA3D3E90023FBF7D3
S315080049C009FE03460C46184621464FF00002084BDE
S315080049D0FBF72AFF03460C4618462146FCF7B4F8AF
S315080049E0034607EE903AB0EE670A0C37BD4690BD0F
S315080049F0008066406F1283C0CA21094080B483B024
S31508004A0000AF7860044A7B68136000BF0C37BD4668
S31508004A105DF8047B704700BF98CA012080B400AFD8
S31508004A20034B00221A6000BFBD465DF8047B704741
S31508004A3098CA012080B400AF034B1B681846BD46D0
S31508004A405DF8047B704700BF98CA012080B584B022
S31508004A5000AF78600023FB601A4B1B681846FFF707
S31508004A60CDFFFFF7E7FF01467A68174B9B1A994275
S31508004A708CBF01230023DBB2002B07D0FFF7CEFF44
S31508004A80104B00221A607B68FB6005E0FFF7D2FF37
S31508004A9002467B681344FB60FFF7CCFF0246FB68BF
S31508004AA09A4234BF01230023DBB2002B05D0054B05
S31508004AB01B681846FFF7A2FFEEE700BF1037BD4692
S31508004AC080BD00BFE88B00200084D717DFF834D0FC
S31508004AD0002103E00C4B5B58435004310B480C4B48
S31508004AE042189A42F6D30B4A02E0002342F8043BE6
S31508004AF0094B9A42F9D3FFF7CFFE01F09BF8FEF770
S31508004B0063FF704700000220349F00080000002061
S31508004B10940800209408002060CE0120FEE70000DB
S31508004B2080B500AF01214FF4807000F005FC00212C
S31508004B304FF4807000F000FC00BF80BD80B485B0E3
S31508004B4000AF786039600023FB600023FB727B6846
S31508004B505B68FB60FB6823F0407323F48073FB609B
S31508004B603B681B791A023B681B681343FA681343B0
S31508004B70FB607B68FA685A607B689B68FB60FA682A
S31508004B80184B1340FB603B681A693B68DB681A439D
S31508004B903B689B681A433B685B795B001343FA687A
S31508004BA01343FB607B68FA689A607B68DB6AFB6084
S31508004BB0FB6823F47003FB603B681B7D013BDAB29C
S31508004BC0FB7A1343FB72FB7A1B05FA681343FB60F7
S31508004BD07B68FA68DA6200BF1437BD465DF8047B65
S31508004BE0704700BFFDF7FFC080B485B000AF78609E
S31508004BF00023FB600E4B5B68FB60FA680D4B1340A5
S31508004C00FB607B681A687B685B681A437B689B68ED
S31508004C101A437B68DB681343FA681343FB60044A4C
S31508004C20FB68536000BF1437BD465DF8047B7047C8
S31508004C3000230140E030FCFF80B483B000AF786009
S31508004C400B46FB70FB78002B06D07B689B6843F00D
S31508004C5001027B689A6005E07B689B6823F0010285
S31508004C607B689A6000BF0C37BD465DF8047B7047C9
S31508004C7080B485B000AF7860084611461A460346E8
S31508004C80FB700B46BB7013467B700023FB6000234A
S31508004C90BB60FB78092B23D97B68DB68FB60FB7854
S31508004CA0A3F10A0213465B001344072202FA03F330
S31508004CB0BB60BB68DB43FA681340FB607978FB7816
S31508004CC0A3F10A0213465B00134401FA03F3BB601F
S31508004CD0FA68BB681343FB607B68FA68DA601EE013
S31508004CE07B681B69FB60FA7813465B00134407224E
S31508004CF002FA03F3BB60BB68DB43FA681340FB6048
S31508004D007978FA7813465B00134401FA03F3BB601B
S31508004D10FA68BB681343FB607B68FA681A61BB785C
S31508004D20062B21D87B685B6BFB60BB785A1E134643
S31508004D309B0013441F2202FA03F3BB60BB68DB43E4
S31508004D40FA681340FB60F978BB785A1E13469B0035
S31508004D50134401FA03F3BB60FA68BB681343FB60AC
S31508004D607B68FA685A6347E0BB780C2B21D87B68C6
S31508004D701B6BFB60BB78DA1F13469B0013441F228C
S31508004D8002FA03F3BB60BB68DB43FA681340FB60B7
S31508004D90F978BB78DA1F13469B00134401FA03F32C
S31508004DA0BB60FA68BB681343FB607B68FA681A63E2
S31508004DB022E07B68DB6AFB60BB78A3F10D02134631
S31508004DC09B0013441F2202FA03F3BB60BB68DB4354
S31508004DD0FA681340FB60F978BB78A3F10D02134615
S31508004DE09B00134401FA03F3BB60FA68BB681343DC
S31508004DF0FB607B68FA68DA6200BF1437BD465DF867
S31508004E00047B704780B483B000AF78607B689B688A
S31508004E1043F080427B689A6000BF0C37BD465DF858
S31508004E20047B704780B483B000AF78607B68DB6C26
S31508004E309BB218460C37BD465DF8047B704700BF29
S31508004E4080B483B000AF78600B46FB70FB78002B0C
S31508004E5006D07B689B6843F480727B689A6005E09D
S31508004E607B689B6823F480727B689A6000BF0C3766
S31508004E70BD465DF8047B704780B485B000AF7860A6
S31508004E800B46FB700023FB737B681A68FB7813409C
S31508004E90002B02D00123FB7301E00023FB73FB7B8D
S31508004EA018461437BD465DF8047B704780B483B056
S31508004EB000AF78600B46FB70FB78DA437B681A60B4
S31508004EC000BF0C37BD465DF8047B704780B487B0D9
S31508004ED000AF7860396000237B6100233B610023C3
S31508004EE0FB6000237B6176E001227B6902FA03F30B
S31508004EF03B613B681A683B691340FB60FA683B698B
S31508004F009A4265D17B681A687B695B00032101FABE
S31508004F1003F3DB431A407B681A607B681A683B68B0
S31508004F201B7919467B695B0001FA03F31A437B6810
S31508004F301A603B681B79012B03D03B681B79022B4F
S31508004F402ED17B689A687B695B00032101FA03F31B
S31508004F50DB431A407B689A607B689A683B685B7992
S31508004F6019467B695B0001FA03F31A437B689A606A
S31508004F707B685A687B699BB2012101FA03F3DB431C
S31508004F801A407B685A607B685A683B689B79194661
S31508004F907B699BB201FA03F39BB21A437B685A609A
S31508004FA07B68DA687B699BB25B00032101FA03F32D
S31508004FB0DB431A407B68DA607B68DA683B68DB7932
S31508004FC019467B695B0001FA03F31A437B68DA60CA
S31508004FD07B6901337B617B690F2B85D900BF1C3741
S31508004FE0BD465DF8047B704780B483B000AF786037
S31508004FF07B684FF6FF721A607B6800221A717B681D
S3150800500000225A717B6800229A717B680022DA7145
S3150800501000BF0C37BD465DF8047B704780B485B089
S3150800502000AF78600B467B800023FB737B681A69A8
S315080050307B881340002B02D00123FB7301E0002379
S31508005040FB73FB7B18461437BD465DF8047B704737
S3150800505080B483B000AF78600B467B807B687A8823
S315080050601A8300BF0C37BD465DF8047B704700BF46
S3150800507080B483B000AF78600B467B807B687A8803
S315080050805A8300BF0C37BD465DF8047B704700BFE6
S3150800509080B485B000AF78600B467B8013467B7082
S315080050A00023FB600023BB607A787B8803F0070344
S315080050B09B0002FA03F3FB607B88DB089BB2184669
S315080050C07B88DB089BB21A467B68083253F8222095
S315080050D07B8803F007039B000F2101FA03F3DB43E8
S315080050E002EA03017B6800F1080243F822107B8874
S315080050F0DB089BB21A467B68083253F82220FB6805
S315080051001343BB607B88DB089BB21A467B68083270
S31508005110B96843F8221000BF1437BD465DF8047B12
S31508005120704700BF80B489B000AF78600023BB61C8
S3150800513000237B610023FB6102233B610023FB60A4
S315080051400223BB60484B9B6803F00C03BB61BB6939
S31508005150042B07D0082B09D0002B3FD17B68434A84
S315080051601A603FE07B68424A1A603BE03E4B5B6848
S3150800517003F480039B0DFB603B4B5B6803F03F0326
S31508005180BB60FB68002B0DD0394ABB68B2FBF3F253
S31508005190354B596847F6C0730B409B0903FB02F36E
S315080051A0FB610CE0314ABB68B2FBF3F22E4B59683F
S315080051B047F6C0730B409B0903FB02F3FB612A4BBE
S315080051C05B6803F440331B0C01335B003B61FA69EF
S315080051D03B69B2FBF3F27B681A6003E07B68234AFB
S315080051E01A6000BF204B9B6803F0F003BB61BB69E4
S315080051F01B09BB611F4ABB6913441B78DBB27B6181
S315080052007B681A687B69DA407B685A60164B9B682C
S3150800521003F4E053BB61BB699B0ABB61154ABB69D2
S3150800522013441B78DBB27B617B685A687B69DA407A
S315080052307B689A600C4B9B6803F46043BB61BB694F
S315080052405B0BBB610B4ABB6913441B78DBB27B6102
S315080052507B685A687B69DA407B68DA6000BF243766
S31508005260BD465DF8047B7047003802400024F40010
S3150800527040787D011000002080B483B000AF7860CC
S315080052800B46FB70FB78002B06D00A49094B1A6BB4
S315080052907B6813430B6306E00649064B1A6B7B686B
S315080052A0DB4313400B6300BF0C37BD465DF8047B38
S315080052B0704700BF0038024080B483B000AF786002
S315080052C00B46FB70FB78002B06D00A49094B1A6C73
S315080052D07B6813430B6406E00649064B1A6C7B6829
S315080052E0DB4313400B6400BF0C37BD465DF8047BF7
S315080052F0704700BF0038024080B483B000AF7860C2
S315080053000B46FB70FB78002B06D00A49094B5A6CF2
S315080053107B6813434B6406E00649064B5A6C7B6868
S31508005320DB4313404B6400BF0C37BD465DF8047B76
S31508005330704700BF0038024080B483B000AF786081
S315080053400B46FB70FB78002B06D00A49094B5A6AB4
S315080053507B6813434B6206E00649064B5A6A7B682C
S31508005360DB4313404B6200BF0C37BD465DF8047B38
S31508005370704700BF0038024080B485B000AF78603F
S3150800538039600023FB817B681B88FB81FB8903F45A
S315080053904153FB813B681A883B685B8813439AB282
S315080053A03B689B8813439AB23B68DB8813439AB2DF
S315080053B03B681B8913439AB23B685B8913439AB2CD
S315080053C03B689B8913439AB23B68DB8913439AB2BD
S315080053D0FB891343FB817B68FA891A807B689B8B60
S315080053E09BB223F400639AB27B689A833B681A8A55
S315080053F07B681A8200BF1437BD465DF8047B704788
S3150800540080B483B000AF78600B46FB70FB78002B46
S3150800541008D07B681B889BB243F040039AB27B682E
S315080054201A8007E07B681B889BB223F040039AB278
S315080054307B681A8000BF0C37BD465DF8047B704751
S3150800544080B483B000AF78607B689B899BB21846AE
S315080054500C37BD465DF8047B704700BF80B483B047
S3150800546000AF78600B467B807B687A889A8100BF9C
S315080054700C37BD465DF8047B704700BF80B485B025
S3150800548000AF78600B467B800023FB737B681B8923
S315080054909AB27B8813409BB2002B02D00123FB7380
S315080054A001E00023FB73FB7B18461437BD465DF805
S315080054B0047B704780B485B000AF786039600023FC
S315080054C0FB817B681B88FB817B68294A934213D042
S315080054D07B68284A93420FD07B68B3F1804F0BD084
S315080054E07B68254A934207D07B68244A934203D0B7
S315080054F07B68234A934208D1FB8923F07003FB811A
S315080055003B685A88FB891343FB817B681D4A934293
S315080055100CD07B681C4A934208D0FB8923F440735D
S31508005520FB813B681A89FB891343FB817B68FA89EF
S315080055301A803B685A687B68DA623B681A887B6817
