S010000068616C666D6F7573652E6D6F74AD
S3150800000000000220C5430008C9400008D94000087E
S31508000010E1400008E9400008F1400008000000003F
S31508000020000000000000000000000000F940000881
S31508000030094100080000000019410008294100088C
S31508000040154400081544000815440008154400081E
S31508000050154400081544000815440008154400080E
S3150800006015440008154400081544000815440008FE
S3150800007015440008154400081544000815440008EE
S3150800008015440008154400081544000815440008DE
S3150800009015440008154400081544000815440008CE
S315080000A015440008154400081544000815440008BE
S315080000B015440008154400081544000815440008AE
S315080000C0154400081544000815440008154400089E
S315080000D0154400081544000815440008154400088E
S315080000E0154400081544000815440008154400087E
S315080000F0154400081544000815440008154400086E
S31508000100154400081544000815440008154400085D
S31508000110154400081544000815440008154400084D
S31508000120154400081544000815440008154400083D
S3150800013015440008000000000000000015440008EF
S31508000140154400081544000815440008154400081D
S31508000150154400081544000815440008154400080D
S3150800016015440008154400081544000815440008FD
S3150800017015440008154400080000000000000000AF
S30D080001801544000815440008A7
S315080001C0044B05481B1A062B02D9044B03B11847E2
S315080001D0704700BF97080020940800200000000020
S315080001E005490648091A891001EBD171491002D050
S315080001F0034B03B118477047940800209408002061
S315080002000000000010B5064C237843B9FFF7D8FF65
S31508000210044B13B10448AFF300800123237010BDCB
S315080002209408002000000000E491000808B5084B77
S315080002301BB108490848AFF300800848036813B99A
S31508000240BDE80840CCE7064B002BF9D09847F7E7FE
S315080002500000000098080020E49100089408002097
S315080002600000000081F0004102E000BF83F0004377
S3150800027030B54FEA41044FEA430594EA050F08BF33
S3150800028090EA020F1FBF54EA000C55EA020C7FEAF7
S31508000290645C7FEA655C00F0E2804FEA5454D4EB74
S315080002A05555B8BF6D420CDD2C4480EA020281EA3E
S315080002B0030382EA000083EA010180EA020281EA76
S315080002C00303362D88BF30BD11F0004F4FEA0131C8
S315080002D04FF4801C4CEA113102D0404261EB4101D7
S315080002E013F0004F4FEA03334CEA133302D052425D
S315080002F063EB430394EA050F00F0A780A4F1010419
S31508000300D5F1200E0DDB02FA0EFC22FA05F2801852
S3150800031041F1000103FA0EF2801843FA05F3594138
S315080003200EE0A5F120050EF1200E012A03FA0EFCB7
S3150800033028BF4CF0020C43FA05F3C01851EBE371E1
S3150800034001F0004507D54FF0000EDCF1000C7EEBFE
S3150800035000006EEB0101B1F5801F1BD3B1F5001F3C
S315080003600CD349085FEA30004FEA3C0C04F101045B
S315080003704FEA445212F5800F80F09A80BCF1004F84
S3150800038008BF5FEA500C50F1000041EB045141EA06
S31508000390050130BD5FEA4C0C404141EB010111F407
S315080003A0801FA4F10104E9D191F0000F04BF0146B2
S315080003B00020B1FA81F308BF2033A3F10B03B3F190
S315080003C020020CDA0C3208DD02F1140CC2F10C0220
S315080003D001FA0CF021FA02F10CE002F11402D8BF7E
S315080003E0C2F1200C01FA02F120FA0CFCDCBF41EA4A
S315080003F00C019040E41AA2BF01EB0451294330BD19
S315080004006FEA04041F3C1CDA0C340EDC04F11404F5
S31508000410C4F1200220FA04F001FA02F340EA0300CC
S3150800042021FA04F345EA030130BDC4F10C04C4F112
S31508000430200220FA02F001FA04F340EA03002946F2
S3150800044030BD21FA04F0294630BD94F0000F83F43C
S31508000450801306BF81F480110134013D4EE77FEA1F
S31508000460645C18BF7FEA655C29D094EA050F08BF6B
S3150800047090EA020F05D054EA000C04BF194610464C
S3150800048030BD91EA030F1EBF0021002030BD5FEA90
S31508000490545C05D14000494128BF41F0004130BDB8
S315080004A014F580043CBF01F5801130BD01F000450C
S315080004B045F0FE4141F470014FF0000030BD7FEA7F
S315080004C0645C1ABF194610467FEA655C1CBF0B467A
S315080004D0024650EA013406BF52EA033591EA030F91
S315080004E041F4002130BD00BF90F0000F04BF002189
S315080004F0704730B54FF4806404F132044FF00005BC
S315080005004FF0000150E700BF90F0000F04BF002134
S31508000510704730B54FF4806404F1320410F000459A
S3150800052048BF40424FF000013EE700BF42004FEA95
S31508000530E2014FEA31014FEA02701FBF12F07F4312
S3150800054093F07F4F81F06051704792F0000F14BF0F
S3150800055093F07F4F704730B54FF4607401F0004553
S3150800056021F0004120E700BF50EA010208BF7047AA
S3150800057030B54FF000050AE050EA010208BF70479F
S3150800058030B511F0004502D5404261EB41014FF408
S31508000590806404F132045FEA915C3FF4DCAE4FF00C
S315080005A003025FEADC0C18BF03325FEADC0C18BFF3
S315080005B0033202EBDC02C2F1200300FA03FC20FA44
S315080005C002F001FA03FE40EA0E0021FA02F1144491
S315080005D0C1E600BF70B54FF0FF0C4CF4E06C1CEAA6
S315080005E011541DBF1CEA135594EA0C0F95EA0C0F1B
S315080005F000F0DEF82C4481EA030621EA4C5123EA8E
S315080006004C5350EA013518BF52EA033541F48011BC
S3150800061043F4801338D0A0FB02CE4FF00005E1FB6F
S3150800062002E506F00042E0FB03E54FF00006E1FBB9
S3150800063003569CF0000F18BF4EF0010EA4F1FF04FC
S31508000640B6F5007F64F5407404D25FEA4E0E6D413C
S3150800065046EB060642EAC62141EA55514FEAC5204D
S3150800066040EA5E504FEACE2EB4F1FD0C88BFBCF5C9
S31508000670E06F1ED8BEF1004F08BF5FEA500E50F17A
S31508000680000041EB045170BD06F0004646EA010140
S3150800069040EA020081EA0301B4EB5C04C2BFD4EB72
S315080006A00C0541EA045170BD41F480114FF0000E6B
S315080006B0013C00F3AB8014F1360FDEBF002001F0D9
S315080006C0004170BDC4F10004203C35DA0C341BDC53
S315080006D004F11404C4F1200500FA05F320FA04F025
S315080006E001FA05F240EA020001F0004221F0004159
S315080006F010EBD37021FA04F642EB06015EEA430ECC
S3150800070008BF20EAD37070BDC4F10C04C4F12005FB
S3150800071000FA04F320FA05F001FA04F240EA0200AE
S3150800072001F0004110EBD37041F100015EEA430E7F
S3150800073008BF20EAD37070BDC4F1200500FA05F29F
S315080007404EEA020E20FA04F301FA05F243EA02031E
S3150800075021FA04F001F0004121FA04F220EA02002D
S3150800076000EBD3705EEA430E08BF20EAD37070BD73
S3150800077094F0000F0FD101F00046400041EB010153
S3150800078011F4801F08BF013CF7D041EA060195F035
S31508000790000F18BF704703F00046520043EB0303EF
S315080007A013F4801F08BF013DF7D043EA06037047DC
S315080007B094EA0C0F0CEA135518BF95EA0C0F0CD0E7
S315080007C050EA410618BF52EA4306D1D181EA03012D
S315080007D001F000414FF0000070BD50EA410606BF27
S315080007E01046194652EA430619D094EA0C0F02D16C
S315080007F050EA013613D195EA0C0F05D152EA0336B1
S315080008001CBF104619460AD181EA030101F00041CE
S3150800081041F0FE4141F470014FF0000070BD41F017
S31508000820FE4141F4780170BD70B54FF0FF0C4CF4F1
S31508000830E06C1CEA11541DBF1CEA135594EA0C0F10
S3150800084095EA0C0F00F0A7F8A4EB050481EA030E5D
S3150800085052EA03354FEA013100F088804FEA033344
S315080008604FF0805545EA131343EA12634FEA022212
S3150800087045EA111545EA10654FEA00260EF00041D3
S315080008809D4208BF964244F1FD0404F5407402D225
S315080008905B084FEA3202B61A65EB03055B084FEAB6
S315080008A032024FF480104FF4002CB6EB020E75EBB3
S315080008B0030E22BFB61A754640EA0C005B084FEADB
S315080008C03202B6EB020E75EB030E22BFB61A754658
S315080008D040EA5C005B084FEA3202B6EB020E75EBA3
S315080008E0030E22BFB61A754640EA9C005B084FEA1B
S315080008F03202B6EB020E75EB030E22BFB61A754628
S3150800090040EADC0055EA060E18D04FEA051545EA16
S3150800091016754FEA06164FEAC30343EA52734FEABF
S31508000920C2025FEA1C1CC0D111F4801F0BD141EA38
S3150800093000014FF000004FF0004CB6E711F4801F9D
S3150800094004BF01430020B4F1FD0C88BFBCF5E06F7D
S315080009503FF6AFAEB5EB030C04BFB6EB020C5FEA8D
S31508000960500C50F1000041EB045170BD0EF0004EE2
S315080009704EEA113114EB5C04C2BFD4EB0C0541EA14
S31508000980045170BD41F480114FF0000E013C90E611
S3150800099045EA060E8DE60CEA135594EA0C0F08BFD5
S315080009A095EA0C0F3FF43BAF94EA0C0F0AD150EAD4
S315080009B001347FF434AF95EA0C0F7FF425AF104667
S315080009C019462CE795EA0C0F06D152EA03353FF48F
S315080009D0FDAE1046194622E750EA410618BF52EA0C
S315080009E043067FF4C5AE50EA41047FF40DAF52EAE0
S315080009F043057FF4EBAE12E74FF0FF3C06E000BF7D
S31508000A004FF0010C02E000BF4FF0010C4DF804CD89
S31508000A104FEA410C7FEA6C5C4FEA430C18BF7FEA49
S31508000A206C5C1BD001B050EA410C0CBF52EA430C77
S31508000A3091EA030F02BF90EA020F0020704710F1F7
S31508000A40000F91EA030F58BF994208BF90422CBF86
S31508000A50D8176FEAE37040F0010070474FEA410C7F
S31508000A607FEA6C5C02D150EA013C07D14FEA430C9D
S31508000A707FEA6C5CD6D152EA033CD3D05DF8040B0E
S31508000A80704700BF8446104662468C461946634640
S31508000A9000E000BF01B5FFF7B7FF002848BF10F117
S31508000AA0000F01BD4DF808EDFFF7F4FF0CBF01205C
S31508000AB000205DF808FB00BF4DF808EDFFF7EAFFD8
S31508000AC034BF012000205DF808FB00BF4DF808ED93
S31508000AD0FFF7E0FF94BF012000205DF808FB00BF88
S31508000AE04DF808EDFFF7CEFF94BF012000205DF812
S31508000AF008FB00BF4DF808EDFFF7C4FF34BF01201F
S31508000B0000205DF808FB00BF4A0011D212F500125A
S31508000B1011D20DD56FF47873B3EB62520ED44FEA47
S31508000B20C12343F0004343EA505323FA02F07047C7
S31508000B304FF00000704750EA013002D14FF0FF3005
S31508000B4070474FF0000070474FEA4102B2F1E043A8
S31508000B5024BFB3F5001CDCF1FE5C0DD901F0004C96
S31508000B604FEAC0024CEA5070B2F1004F40EB8300E6
S31508000B7008BF20F00100704711F0804F21D113F112
S31508000B803872BCBF01F00040704741F480114FEA4B
S31508000B905252C2F11802C2F1200C10FA0CF320FAD4
S31508000BA002F018BF40F001004FEAC1234FEAD323F1
S31508000BB003FA0CFC40EA0C0023FA02F34FEA43035B
S31508000BC0CCE77FEA625307D150EA01331EBF4FF0E4
S31508000BD0FE4040F44000704701F0004040F0FE40FF
S31508000BE040F40000704700BF00000000000000004D
S31508000BF001F0FF01102A2BDB10F0070F08D010F8C0
S31508000C00013B013A8B422DD010F0070F42B3F6D1C3
S31508000C10F0B441EA012141EA014122F007047FF0DC
S31508000C2000070023F0E80256083C85EA010586EA33
S31508000C30010685FA47F5A3FA87F586FA47F6A5FA6F
S31508000C4087F68EB9EED1F0BC01F0FF0102F007027B
S31508000C5032B110F8013B013A83EA010313B1F8D126
S31508000C600020704701387047002D06BF3546033807
S31508000C70073815F0010F07D1013015F4807F02BF40
S31508000C80013015F4C03F0130F0BC0138704700BF91
S31508000C90844641EA000313F003036DD1403A41D379
S31508000CA051F8043B40F8043B51F8043B40F8043B38
S31508000CB051F8043B40F8043B51F8043B40F8043B28
S31508000CC051F8043B40F8043B51F8043B40F8043B18
S31508000CD051F8043B40F8043B51F8043B40F8043B08
S31508000CE051F8043B40F8043B51F8043B40F8043BF8
S31508000CF051F8043B40F8043B51F8043B40F8043BE8
S31508000D0051F8043B40F8043B51F8043B40F8043BD7
S31508000D1051F8043B40F8043B51F8043B40F8043BC7
S31508000D20403ABDD2303211D351F8043B40F8043B67
S31508000D3051F8043B40F8043B51F8043B40F8043BA7
S31508000D4051F8043B40F8043B103AEDD20C3205D377
S31508000D5051F8043B40F8043B043AF9D2043208D06F
S31508000D60D2071CBF11F8013B00F8013B01D30B88E1
S31508000D7003806046704700BF082A13D38B078DD0BF
S31508000D8010F003038AD0C3F10403D21ADB071CBF91
S31508000D9011F8013B00F8013B80D331F8023B20F8FB
S31508000DA0023B7BE7043AD9D3013A11F8013B00F834
S31508000DB0013BF9D20B7803704B7843708B788370BC
S31508000DC060467047000000000000000000000000B8
S31508000DD00000000000000000000000000000000005
S31508000DE000000000000000000000000000000000F5
S31508000DF000000000000000000000000000000000E5
S31508000E0090F800F06DE9024520F007016FF0000C3C
S31508000E1010F0070491F820F040F049804FF00004E4
S31508000E206FF00700D1E9002391F840F000F10800BF
S31508000E3082FA4CF2A4FA8CF283FA4CF3A2FA8CF3F7
S31508000E404BBBD1E9022382FA4CF200F10800A4FA5E
S31508000E508CF283FA4CF3A2FA8CF3E3B9D1E90423B2
S31508000E6082FA4CF200F10800A4FA8CF283FA4CF3E9
S31508000E70A2FA8CF37BB9D1E9062301F1200182FAA3
S31508000E804CF200F10800A4FA8CF283FA4CF3A2FAA9
S31508000E908CF3002BC6D0002A04BF04301A4612BAB7
S31508000EA0B2FA82F2FDE8024500EBD2007047D1E9BA
S31508000EB0002304F00305C4F100004FEAC50514F049
S31508000EC0040F91F840F00CFA05F562EA05021CBF1A
S31508000ED063EA050362464FF00004A9E74FEA4102B8
S31508000EE012F5001215D211D56FF47873B3EB62526E
S31508000EF012D94FEAC12343F0004343EA505311F095
S31508000F00004F23FA02F018BF404270474FF0000026
S31508000F10704750EA013005D111F0004008BF6FF064
S31508000F20004070474FF00000704700BF53B94AB9F8
S31508000F30002908BF00281CBF4FF0FF314FF0FF30D3
S31508000F4000F07EB9ADF1080C6DE904CE00F006F8A4
S31508000F50DDF804E0DDE9022304B070472DE9F04727
S31508000F608C460E460446089D002B50D18A421746E9
S31508000F706CD9B2FA82FEBEF1000F0BD0CEF1200476
S31508000F8020FA04F401FA0EF644EA060C02FA0EF701
S31508000F9000FA0EF44FEA1749220CBCFBF9F01FFAC7
S31508000FA087F809FB10C642EA064600FB08F3B34277
S31508000FB009D9F61900F1FF3280F02281B34240F2D6
S31508000FC01F8102383E44F61AA2B2B6FBF9F309FBB2
S31508000FD0136642EA064403FB08F8A04509D9E41952
S31508000FE003F1FF3280F00A81A04540F20781023BF7
S31508000FF03C44C8EB040443EA00400021002D62D0BB
S3150800100024FA0EF400232C606B60BDE8F0878B424F
S3150800101007D9002D55D0002185E841000846BDE8CE
S31508001020F087B3FA83F1002940F09080B34202D3E7
S31508001030824200F2F880841A66EB03060120B44661
S31508001040002D40D085E81010BDE8F08712B90127B9
S31508001050B7FBF2F7B7FA87FEBEF1000F35D1F31BDF
S315080010604FEA17481FFA87FC0121B3FBF8F0220C58
S3150800107008FB103642EA06460CFB00F3B34207D9D2
S31508001080F61900F1FF3202D2B34200F2CE801046C2
S31508001090F61AA2B2B6FBF8F308FB136642EA064450
S315080010A00CFB03FCA44507D9E41903F1FF3202D26D
S315080010B0A44500F2B5801346CCEB040443EA00408D
S315080010C09CE729462846BDE8F087CEF1200106FAB6
S315080010D00EF307FA0EF720FA01F94FEA1748CE4041
S315080010E049EA0309B6FBF8FA4FEA194408FB1A66F7
S315080010F01FFA87FC44EA06430AFB0CF29A4200FAF6
S315080011000EF40AD9DB190AF1FF3180F087809A427A
S3150800111040F28480AAF1020A3B449B1A1FFA89F915
S31508001120B3FBF8F108FB113349EA034301FB0CF65C
S315080011309E4207D9DB1901F1FF326BD29E4269D96B
S3150800114002393B449B1B41EA0A418EE7C1F1200E56
S3150800115022FA0EF48B40234320FA0EF706FA01F41E
S315080011604FEA134C26FA0EF63C43B6FBFCF9270C5D
S315080011700CFB19661FFA83F847EA064609FB08F7C7
S31508001180B74202FA01F200FA01FA08D9F61809F18B
S31508001190FF3041D2B7423FD9A9F102091E44F61BD6
S315080011A0A0B2B6FBFCF40CFB146640EA064704FB47
S315080011B008F8B84507D9FF1804F1FF3028D2B84512
S315080011C026D9023C1F4444EA0940C8EB0707A0FB9E
S315080011D002894F4544464E4614D329D065B3BAEB27
S315080011E0040367EB060707FA0EFECB40CF404EEA2C
S315080011F0030385E888000021BDE8F0871346F8E672
S315080012001046E0E6B8EB020469EB03060138E5E7A9
S315080012100446D8E7114695E78146C0E78A467CE743
S31508001220023B3C4448E708460AE702383E442FE7B3
S31508001230C245E7D33E46D1E72946BDE8F08700BF59
S31508001240704700BF80B500AF0221104803F0AAFA24
S315080012500023012209210D4803F086F90B4803F003
S315080012604DFA0221094803F083FA0346002B0CBF06
S3150800127001230023DBB2002B00D0F2E7034803F07A
S315080012804DFA03461B119BB2184680BD002001404B
S3150800129080B582B000AF4FF000037B604FF48053F7
S315080012A03B60FFF7CFFF034607EE903AF8EEE77A82
S315080012B09FED0B7A67EE876A3B6807EE903AB8EEC1
S315080012C0677AC6EE877A77EEA77AC7ED017A7B68E2
S315080012D007EE903AB0EE670A0837BD4680BD00BFF4
S315080012E03333534080B582B000AF0346FB71FB79B8
S315080012F0092B02D900F0BCF982E1FB79092B00F22F
S315080013007F8101A252F823F03113000879130008EF
S31508001310C11300080914000851140008991400089C
S31508001320E11400082915000871150008B915000808
S315080013301021B54803F008FB4FF48051B24803F07A
S3150800134013FB0421B14803F00FFB0821AF4803F053
S315080013500BFB4FF48041AD4803F006FB4FF4004108
S31508001360AA4803F001FB0121A94803F0FDFA02216E
S31508001370A74803F0F9FA43E11021A34803F0E4FA79
S315080013804FF48051A04803F0EFFA04219F4803F078
S31508001390DBFA08219D4803F0E7FA4FF480419B48A1
S315080013A003F0D2FA4FF40041984803F0CDFA012130
S315080013B0974803F0C9FA0221954803F0D5FA1FE1C8
S315080013C01021914803F0D0FA4FF480518E4803F06B
S315080013D0BBFA04218D4803F0C7FA08218B4803F0AD
S315080013E0C3FA4FF48041894803F0BEFA4FF400412E
S315080013F0864803F0A9FA0121854803F0B5FA0221C7
S31508001400834803F0B1FAFBE010217F4803F0ACFAF9
S315080014104FF480517C4803F0A7FA04217B4803F077
S31508001420A3FA0821794803F09FFA4FF480417748D8
S3150800143003F08AFA4FF40041744803F085FA012153
S31508001440734803F091FA0221714803F08DFAD7E048
S3150800145010216D4803F088FA4FF480516A4803F06A
S3150800146083FA0421694803F06FFA0821674803F0F4
S315080014707BFA4FF48041654803F066FA4FF4004161
S31508001480624803F071FA0121614803F05DFA02210E
S315080014905F4803F069FAB3E010215B4803F064FA89
S315080014A04FF48051584803F05FFA0421574803F077
S315080014B05BFA0821554803F057FA4FF48041534820
S315080014C003F042FA4FF40041504803F04DFA012167
S315080014D04F4803F049FA02214D4803F035FA8FE0E8
S315080014E01021494803F040FA4FF48051464803F06A
S315080014F03BFA0421454803F037FA0821434803F02C
S3150800150033FA4FF48041414803F02EFA4FF4004174
S315080015103E4803F029FA01213D4803F025FA022145
S315080015203B4803F011FA6BE01021374803F00CFA38
S315080015304FF48051344803F017FA0421334803F076
S3150800154003FA0821314803F00FFA4FF480412F4877
S3150800155003F0FAF94FF400412C4803F005FA01218B
S315080015602B4803F001FA0221294803F0FDF947E068
S315080015701021254803F0F8F94FF48051224803F06A
S31508001580F3F90421214803F0EFF908211F4803F075
S31508001590EBF94FF480411D4803F0E6F94FF400419A
S315080015A01A4803F0E1F90121194803F0DDF902218F
S315080015B0174803F0D9F923E01021134803F0D4F9AA
S315080015C04FF48051104803F0CFF904210F4803F077
S315080015D0CBF908210D4803F0C7F94FF480410B48B1
S315080015E003F0B2F94FF40041084803F0BDF90121B0
S315080015F0074803F0B9F90221054803F0B5F900BF19
S315080016000837BD4680BD00BF0004024000080240FE
S31508001610001C024080B500AF1021124803F094F96F
S315080016204FF480510F4803F08FF904210E4803F058
S315080016308BF908210C4803F087F94FF480410A48D2
S3150800164003F082F94FF40041074803F07DF90121C0
S31508001650064803F079F90221044803F075F900BF3A
S3150800166080BD00BF0004024000080240001C024082
S3150800167080B500AF1021124803F076F94FF4805177
S315080016800F4803F061F904210E4803F06DF90821AB
S315080016900C4803F069F94FF480410A4803F064F9ED
S315080016A04FF40041074803F05FF90121064803F0AB
S315080016B05BF90221044803F047F900BF80BD00BF6B
S315080016C00004024000080240001C024080B584B0B5
S315080016D000AF0346FB710B46BB8013467B80002395
S315080016E0FB607A88FB689A4211DDFB791846FFF79A
S315080016F0F9FDBB88184602F025FEFFF78BFFBB886D
S31508001700184602F01FFEFB680133FB60E9E700BFDD
S315080017101037BD4680BD00BF80B584B000AF034614
S315080017200A46FB711346BB80FB79FB60FB68002BFE
S315080017300CDDFB68DBB21846FFF7D4FDBB881846FC
S3150800174002F000FEFB68013BFB60EFE70020FFF7B5
S31508001750C9FD00BF1037BD4680BD00BF00000000B0
S3150800176090B587B000AF034687ED020AFB730023E6
S31508001770FB82D7ED027AF5EEC07AF1EE10FA0AD5B9
S31508001780D7ED027AF1EE677AFDEEE77AC7ED017AD0
S31508001790BB889BB207E0D7ED027AFDEEE77AC7ED84
S315080017A0017ABB889BB2FB82D7ED027A9FED507A0D
S315080017B0F4EEC77AF1EE10FA01DD6423FB824D4B95
S315080017C060221A804B4B00229A814A4B01225A808A
S315080017D0494B1B881A46B7F9163003FB02F318461D
S315080017E0FEF792FE40A3D3E90023FEF7F3FE034675
S315080017F00C4618462146FFF787F902463D4B9A6084
S31508001800FB7B012B34D1D7ED027AF5EE407AF1EE67
S3150800181010FA0BD1374B00229A603649374803F045
S315080018207FFB3449354803F0F5FB1DE0D7ED027A16
S31508001830F5EEC07AF1EE10FA0BDD2E492F4803F0CB
S31508001840E9FB2C4B00229A602A492C4803F068FBD6
S315080018500AE02849294803F063FB264B00229A60D0
S315080018602449264803F0D6FBFB8ADAB2244B1A70C1
S31508001870FB7B002B34D1D7ED027AF5EE407AF1EEF8
S3150800188010FA0BD11B4B00229A601A491D4803F027
S3150800189047FB18491B4803F0BDFB1DE0D7ED027A4C
S315080018A0F5EEC07AF1EE10FA0BDD1249154803F091
S315080018B037FB104B00229A600E49124803F0AAFB28
S315080018C00AE00C490F4803F0A5FB0A4B00229A6070
S315080018D008490C4803F024FBFB8ADAB20A4B1A7053
S315080018E000BF1C37BD4690BD7B14AE47E17A843FE6
S315080018F00000C8422C090020009200080008004099
S31508001900B0080020000C0040B108002080B500AFE8
S3150800191004210D4803F028F800210C4803F0E0FAEA
S3150800192000210B4803F0DCFA9FED0A0A0020FFF7B6
S3150800193017FF9FED080A0120FFF712FF064B00224A
S315080019401A7000BF80BD00BF0000024000080040BA
S31508001950000C004000000000B208002080B500AF6F
S315080019600421084802F0F0FF0121074803F0B8FAFD
S315080019700121064803F0B4FA054B01221A7000BF8C
S3150800198080BD00BF0000024000080040000C004077
S31508001990B208002080B400AF034B1B781846BD463A
S315080019A05DF8047B704700BFB208002080B584B09C
S315080019B000AF0346FB8000237B81FB8843F080034E
S315080019C03B81404B1B681021184602F0CDFF3E4B69
S315080019D01B680221184603F0CDF90346002B0CBFFD
S315080019E001230023DBB2002B00D0F0E7364B1B683F
S315080019F03A891146184603F0ADF9334B1B680121A5
S31508001A00184603F0B7F90346002B0CBF0123002341
S31508001A10DBB2002B00D0F0E72B4B1B68184603F00F
S31508001A208BF903467B81284B1B680221184603F075
S31508001A30A1F90346002B0CBF01230023DBB2002BC0
S31508001A4000D0F0E7204B1B680021184603F082F906
S31508001A501D4B1B680121184603F08CF90346002B21
S31508001A600CBF01230023DBB2002B00D0F0E7164B96
S31508001A701B68184603F060F903467B81124B1B6806
S31508001A800221184603F076F90346002B0CBF012302
S31508001A900023DBB2002B00D0F0E70A4B1B681021AD
S31508001AA0184602F051FF0023FB60FB68042B03DC99
S31508001AB0FB680133FB60F8E77B8918461037BD469B
S31508001AC080BD00BF040000200000002080B584B05F
S31508001AD000AF03460A46FB801346BB803D4B1B6896
S31508001AE01021184602F040FF3B4B1B68022118469E
S31508001AF003F040F90346002B0CBF01230023DBB299
S31508001B00002B00D0F0E7344B1B68FA8811461846BC
S31508001B1003F020F9304B1B680121184603F02AF917
S31508001B200346002B0CBF01230023DBB2002B00D099
S31508001B30F0E7294B1B68184603F0FEF8264B1B688E
S31508001B400221184603F016F90346002B0CBF0123A1
S31508001B500023DBB2002B00D0F0E71F4B1B68BA88C6
S31508001B601146184603F0F6F81B4B1B680121184668
S31508001B7003F000F90346002B0CBF01230023DBB258
S31508001B80002B00D0F0E7144B1B68184603F0D4F876
S31508001B90114B1B680221184603F0ECF80346002B8C
S31508001BA00CBF01230023DBB2002B00D0F0E7094B62
S31508001BB01B681021184602F0C7FE0023FB60FB686D
S31508001BC0092B03DCFB680133FB60F8E700BF10371D
S31508001BD0BD4680BD040000200000002090B585B0F9
S31508001BE000AF03460A46FB711346BB7100237B818F
S31508001BF00023FB810023BB81FB79002B02D0032B3A
S31508001C0018D02FE0BB79012B09D0022B0CD0002B62
S31508001C1000D029E04323FB814423BB8109E0452307
S31508001C20FB814623BB8104E04723FB814823BB8114
S31508001C3000BF19E0BB79012B09D0022B0CD0002B71
S31508001C4000D011E03B23FB813C23BB8109E03D2307
S31508001C50FB813E23BB8104E03F23FB814023BB81FC
S31508001C6000BF01E07B890FE0FB891846FFF79EFE5F
S31508001C7003461B029CB2BB891846FFF797FE03462C
S31508001C8023449BB27B817B891BB218461437BD4619
S31508001C9090BD00BF80B500AF00216B20FFF716FF8F
S31508001CA0EE216C20FFF712FF10216A20FFF70EFFC6
S31508001CB006216820FFF70AFF00211A20FFF706FF12
S31508001CC018211B20FFF702FF18211C20FFF7FEFE34
S31508001CD000BF80BD80B500AF02210020FFF77EFF60
S31508001CE003469BB25B429BB29AB2024B1A8000BF74
S31508001CF080BD00BFB408002080B400AF034B1B882A
S31508001D001BB21846BD465DF8047B7047B408002030
S31508001D1080B582B000AF00237B6000233B60F0EE05
S31508001D20006A9FED137AC6EE877AFDEEE77A17EE1C
S31508001D30902A3B689A420DDDFFF7DEFF03461A46F6
S31508001D407B6813447B60012002F0FCFA3B68013390
S31508001D503B60E4E73B6801337A6892FBF3F307EEEE
S31508001D60903AF8EEE77AB0EE670A0837BD4680BDC6
S31508001D706F12833A80B500AFFFF7CAFFF0EE407ADC
S31508001D80024BC3ED007A00BF80BD00BFC00800202B
S31508001D9080B400AF064B4FF000021A60054B4FF0B7
S31508001DA000021A6000BFBD465DF8047B704700BF9D
S31508001DB0B8080020BC08002080B400AF094BD3ED5A
S31508001DC0007A9FED097A27EE877A084BD3ED007AD9
S31508001DD077EE277A054BC3ED007A00BFBD465DF85E
S31508001DE0047B7047C40800206F12833ABC080020A1
S31508001DF098B500AF164B1B881BB207EE903AB8EEA3
S31508001E00E77A144BD3ED007A77EE677A17EE900AE5
S31508001E10FEF78CFB0CA3D3E90023FEF705FD03466A
S31508001E200C4618462146FEF78FFE034600EE103A8A
S31508001E3002F036FAF0EE407A074BC3ED007A00BF9F
S31508001E4098BD00BFAFF3008066666666666630407A
S31508001E50B4080020C0080020C408002080B400AFE1
S31508001E60044B1B6807EE903AB0EE670ABD465DF86C
S31508001E70047B7047C408002090B585B000AF4FF0CA
S31508001E800003FB604FF00003BB600023FB71FB7986
S31508001E9001331D2B33D8FB790133FA796C4992004B
S31508001EA00A4412686A499B000B441A60FB7901339D
S31508001EB0674A9B001344D3ED007A97ED037A77EED1
S31508001EC0277AC7ED037AFB790133FA7961499200DB
S31508001ED00A4412685F499B000B441A60FB79013378
S31508001EE05C4A9B001344D3ED007A97ED027A77EEAD
S31508001EF0277AC7ED027AFB790133FB71C7E7564BA0
S31508001F005B6A07EE903AF8EE677A9FED547A77EEB9
S31508001F10677A17EE900AFEF709FB47A3D3E9002371
S31508001F20FEF758FB03460C461846214644A3D3E958
S31508001F300023FEF779FC03460C461846214642A3C1
S31508001F40D3E90023FEF746FB03460C46184621460E
S31508001F50FEF7FAFD02463E4B1A604FF080435B6A75
S31508001F6007EE903AF8EE677A9FED3C7A77EEC77AF5
S31508001F7017EE900AFEF7DAFA2FA3D3E90023FEF745
S31508001F8029FB03460C46184621462DA3D3E9002310
S31508001F90FEF74AFC03460C46184621462AA3D3E90F
S31508001FA00023FEF717FB03460C4618462146FEF7A4
S31508001FB0CBFD0246274B1A604FF0804347F6FA726C
S31508001FC05A62254B47F6FA725A62214BD3ED007ACC
S31508001FD097ED037A77EE277AC7ED037A1C4BD3ED94
S31508001FE0007A97ED027A77EE277AC7ED027A97EDAF
S31508001FF0037AF3EE0E6AC7EE267A194BC3ED007A1A
S3150800200097ED027AF3EE0E6AC7EE267A154BC3ED04
S31508002010007A134B93ED007A124BD3ED007A37EE24
S31508002020277AF0EE006AC7EE267A0F4BC3ED007AE0
S3150800203000BF1437BD4690BD5D8940F50F22593F54
S31508002040FCA9F1D24D62503FB81E85EB51B87E3FD0
S3150800205040090020B80900200004004000F4FF46AB
S31508002060D0080020CC080020D408002080B400AF97
S31508002070044B1B6807EE903AB0EE670ABD465DF85A
S31508002080047B7047D408002080B584B000AF0346AF
S315080020900A46FB711346BB71FB79042B23D801A2B0
S315080020A052F823F0B9200008B9200008C320000818
S315080020B0CF200008DB200008144BFB6004237B813B
S315080020C011E0134BFB604FF400637B810BE0104B70
S315080020D0FB604FF480637B8105E00D4BFB604FF49A
S315080020E080537B8100BFBB79002B05D07B891946BD
S315080020F0F86802F029FC04E07B891946F86802F0C2
S3150800210033FC00BF1037BD4680BD00BF000C02403F
S315080021100008024080B584B000AF0346FB71FB7926
S31508002120042B26D801A252F823F000BF412100084B
S315080021304B210008552100085F2100086921000885
S315080021401E4BBB600F23FB7313E01C4BBB600B23BA
S31508002150FB730EE0194BBB600823FB7309E0174BB2
S31508002160BB600A23FB7304E0144BBB600E23FB73AE
S3150800217000BF0221B86802F015FBF97B0023012293
S31508002180B86802F0F1F9B86802F0B8FA0221B8683E
S3150800219002F0EEFA0346002B0CBF01230023DBB244
S315080021A0002B00D0F2E7B86802F0B8FA03461B1114
S315080021B09BB218461037BD4680BD00BF00200140BF
S315080021C080B582B000AF0346FB71FB790121184642
S315080021D0FFF75AFF00BF0837BD4680BD80B582B0FD
S315080021E000AF0346FB71FB7900211846FFF74CFF49
S315080021F000BF0837BD4680BD80B500AF0020FFF799
S31508002200EDFF0120FFF7EAFF0220FFF7E7FF0320B3
S31508002210FFF7E4FF00BF80BD80B483B000AF03467C
S315080022200A46FB711346BB80FB79042B25D801A20D
S3150800223052F823F049220008532200085D220008BC
S315080022406722000871220008B7F904300E4A1360A5
S3150800225013E0B7F904300D4A13600EE0B7F90430FD
S315080022600B4A136009E0B7F904300A4A136004E020
S31508002270B7F90430084A136000BF00BF0C37BD46E3
S315080022805DF8047B704700BFD8080020DC080020F2
S31508002290E0080020E4080020E808002090B589B08E
S315080022A000AF0346FB71FFF7A7FF0020FFF732FFD9
S315080022B003469BB21BB21946002000F01BF9FB79B6
S315080022C0002B0CD00020FFF77BFF0023FB61FB6986
S315080022D0B3F57A7F03DAFB690133FB61F7E7002080
S315080022E0FFF718FF03461C46002000F0C7F8034610
S315080022F09BB2E31A9BB29BB21BB219460020FFF7AA
S315080023008BFF0020FFF76AFF0021012000F0F2F89A
S31508002310FB79002B0CD00120FFF752FF0023BB618D
S31508002320BB69B3F57A7F03DABB690133BB61F7E7AB
S315080023300120FFF7EFFE03461C46012000F09EF839
S3150800234003469BB2E31A9BB29BB21BB21946012005
S31508002350FFF762FF0120FFF741FF0220FFF7DAFED1
S3150800236003469BB21BB21946022000F0C3F8FB795C
S31508002370002B0CD00220FFF723FF00237B617B692B
S31508002380B3F5FA6F03DA7B6901337B61F7E702205D
S31508002390FFF7C0FE03461C46022000F06FF803460E
S315080023A09BB2E31A9BB29BB21BB219460220FFF7F7
S315080023B033FF0220FFF712FF0320FFF7ABFE0346A9
S315080023C09BB21BB21946032000F094F8FB79002B48
S315080023D00CD00320FFF7F4FE00233B613B69B3F5FD
S315080023E07A7F03DA3B6901333B61F7E70320FFF79E
S315080023F091FE03461C46032000F040F803469BB2B4
S31508002400E31A9BB29BB21BB219460320FFF704FFDF
S315080024100320FFF7E3FE0420FFF77CFE03469BB28A
S315080024201BB21946042000F065F8FB79002B0CD086
S315080024300420FFF7C5FE0023FB60FB68B3F57A7F2F
S3150800244003DAFB680133FB60F7E70420FFF762FE57
S3150800245003461C46042000F011F803469BB2E31A13
S315080024609BB29BB21BB219460420FFF7D5FE042087
S31508002470FFF7B4FE00BF2437BD4690BD80B483B0D5
S3150800248000AF0346FB71FB79042B21D801A252F851
S3150800249023F000BFA9240008B1240008B9240008C5
S315080024A0C1240008C92400080D4B1B689BB210E024
S315080024B00C4B1B689BB20CE00B4B1B689BB208E0ED
S315080024C00A4B1B689BB204E0094B1B689BB200E0F1
S315080024D000231BB218460C37BD465DF8047B7047CF
S315080024E0EC080020F0080020F4080020F808002076
S315080024F0FC08002080B483B000AF03460A46FB718F
S315080025001346BB80FB79042B25D801A252F823F089
S31508002510252500082F250008392500084325000829
S315080025204D250008B7F904300E4A136013E0B7F9D1
S3150800253004300D4A13600EE0B7F904300B4A1360F5
S3150800254009E0B7F904300A4A136004E0B7F9043021
S31508002550084A136000BF00BF0C37BD465DF8047B10
S31508002560704700BFEC080020F0080020F40800209F
S31508002570F8080020FC08002080B483B000AF0346AA
S31508002580FB71FB79042B21D801A252F823F000BF76
S31508002590A5250008AD250008B5250008BD250008B5
S315080025A0C52500080D4B1B689BB210E00C4B1B6839
S315080025B09BB20CE00B4B1B689BB208E00A4B1B68EE
S315080025C09BB204E0094B1B689BB200E000231BB2D8
S315080025D018460C37BD465DF8047B7047D8080020BE
S315080025E0DC080020E0080020E4080020E8080020B5
S315080025F090B583B000AF0346FB71FB79012B25D05C
S31508002600022B12D0002B35D1002001F045F90246E5
S315080026101B4B1B689A4294BF01230023DBB2002B95
S3150800262001D0012327E0002325E0012001F034F939
S315080026300246144B1B689A4294BF01230023DBB25F
S31508002640002B01D0012316E0002314E00420FFF735
S3150800265093FF03461C46042001F01EF903469C42DC
S315080026602CBF01230023DBB2002B01D0012302E09B
S31508002670002300E0002318460C37BD4690BD00BF76
S31508002680D8080020DC08002080B483B000AF0346D9
S31508002690FB71FB79012B1DD0022B35D0002B4DD1B8
S315080026A02B4BD3ED007A9FED2B7A27EE877A284BB2
S315080026B0D3ED017ADFED286A67EEA67A37EE277A38
S315080026C0234BD3ED027ADFED256A67EEA67A77EE1D
S315080026D0277A35E0224BD3ED007A9FED227A27EE52
S315080026E0877A1F4BD3ED017ADFED1F6A67EEA67A6C
S315080026F037EE277A1A4BD3ED027ADFED186A67EEC2
S31508002700A67A77EE277A1BE0184BD3ED007A9FED71
S31508002710137A27EE877A154BD3ED017ADFED146A23
S3150800272067EEA67A37EE277A104BD3ED027ADFEDFD
S315080027300B6A67EEA67A77EE277A01E0DFED077A6D
S31508002740B0EE670A0C37BD465DF8047B704700BFDC
S3150800275004090020000020420000D84200000000C2
S315080027601C0900200000964300007A441009002046
S31508002770BD37863500000000B0B52DED028B84B05C
S3150800278000AF974B1B687B6001F062F9B0EE408A98
S31508002790FFF76CFCF0EE407A78EE677A904BC3ED63
S315080027A0007A8F4B5B681846FDF7C0FE04460D4657
S315080027B08B4B1B681846FDF7B9FE87A3D3E90023A0
S315080027C0FDF708FF02460B4620462946FDF750FD51
S315080027D003460C4618462146FEF7B6F90246804BD4
S315080027E05A60804B1B687B6001F032F9B0EE407A84
S315080027F0F4EE007AB4EEE77AF1EE10FA94BF01230C
S315080028000023DBB2002B06D04FF00003BB604FF06D
S315080028100003FB607FE00020FFF7EAFE0346002B7B
S315080028204FD00020FFF7A8FE03461C46002001F003
S3150800283007F80346E41A002001F002F80346B4FB41
S31508002840F3F307EE903AF8EE677AC7ED037AD7ED19
S31508002850037AF5EEC07AF1EE10FA02D54FF00003CE
S31508002860FB600220FFF7C4FE0346002B1FD00120A1
S3150800287000F0E6FF04460120FFF77EFE0346E41A51
S31508002880012000F0DDFF0346B4FBF3F307EE903AB0
S31508002890F8EE677AC7ED027AD7ED027AF5EEC07AD6
S315080028A0F1EE10FA37DD4FF00003BB6033E04FF06E
S315080028B00003BB60D7ED037A77EEA77AC7ED037AF4
S315080028C029E04FF00003FB600220FFF791FE034664
S315080028D0002B1AD0012000F0B3FF04460120FFF7B1
S315080028E04BFE0346E31A5B0007EE903AF8EE677A6A
S315080028F0C7ED027AD7ED027AF5EEC07AF1EE10FA54
S3150800290009DD4FF00003BB6005E04FF00003BB6034
S315080029104FF00003FB6097ED037AD7ED027A77EE66
S31508002920677A304BC3ED007A2E4B5B681846FDF785
S31508002930FDFD04460D462B4B1B681846FDF7F6FDB4
S3150800294025A3D3E90023FDF745FE02460B4620469C
S315080029502946FDF78DFC03460C4618462146FEF728
S31508002960F3F802461F4B5A601F4B1B687B6001F049
S315080029708DF8B0EE408AFFF771FAF0EE407A78EEFD
S31508002980677A194BC3ED007A174B5B681846FDF753
S31508002990CDFD04460D46144B1B681846FDF7C6FDCB
S315080029A00DA3D3E90023FDF715FE02460B46204684
S315080029B02946FDF75DFC03460C4618462146FEF7F8
S315080029C0C3F80246084B5A6000BF1037BD46BDEC37
S315080029D0028BB0BDAFF30080FCA9F1D24D62503F27
S315080029E01C090020100900200409002080B500AF4A
S315080029F00120FFF749FEF0EE407AB0EE670A80BD87
S31508002A0080B52DED028B00AF0D4B1B78002B0CD03B
S31508002A100020FFF739FEB0EE408A0220FFF734FEA9
S31508002A20F0EE407A78EE677A04E00020FFF72CFE95
S31508002A30F0EE407AB0EE670ABD46BDEC028B80BD6B
S31508002A402909002080B400AF034B01221A7000BF89
S31508002A50BD465DF8047B70472909002080B400AFA5
S31508002A60034B01221A7000BFBD465DF8047B704710
S31508002A702809002080B52DED028B82B000AF0346F1
S31508002A80FB7197F90730002B0AD1FFF7AFFFB0EEBD
S31508002A90408AFFF7B5FFF0EE407A78EE677A09E0EC
S31508002AA0FFF7A4FFB0EE408AFFF7AAFFF0EE407AE0
S31508002AB078EE277AB0EE670A0837BD46BDEC028B7A
S31508002AC080BD00BF00000000B0B52DED028B84B0BC
S31508002AD000AF0346FB7197F90730002B18D100F0B9
S31508002AE0B7FFB0EE408A00F0D1FFB0EE407ADFEDD6
S31508002AF0487A67EE277AF0EE006A87EEA67ADFED67
S31508002B00456AC7EE267A78EE677AC7ED037A17E044
S31508002B1000F09EFFB0EE408A00F0B8FFB0EE407AB3
S31508002B20DFED3B7A67EE277AF0EE006A87EEA67A43
S31508002B30DFED386AC7EE267A78EE277AC7ED037A8C
S31508002B40F868FDF7F3FC2EA3D3E90023FDF76CFE26
S31508002B5003460C46184621464FF000022E4BFDF759
S31508002B6039FD03460C46184621464FF000022B4B0A
S31508002B70FDF75AFE03460C46184621464FF000025A
S31508002B80274BFDF727FD03460C46184621464FF00E
S31508002B900002244BFDF748FE03460C46184621461C
S31508002BA019A3D3E90023FDF73FFE03460C46254645
S31508002BB01C46FEF76DFB10EE103A1846FDF7B6FCFC
S31508002BC002460B4620462946FDF72EFE03460C46CE
S31508002BD0184621464FF00002134BFDF7FBFC03464F
S31508002BE00C4618462146FDF7AFFF034607EE903A16
S31508002BF0B0EE670A1037BD46BDEC028BB0BD00BF0C
S31508002C00126270C5ACB4083F3333333333D36B40E9
S31508002C100000304200007A44008044400000224010
S31508002C2000001640000012400000594080B582B0EE
S31508002C3000AF00F04BF80346002B3FD0214B1B7822
S31508002C40002B03D1204B1B78002B37D04FF0000305
S31508002C507B604FF000033B601A4B1B78002B09D0B2
S31508002C600020FFF731FF87ED010A0220FFF72CFF4E
S31508002C7087ED000A144B1B78002B15D00020FFF7B0
S31508002C80F9FEB0EE407AD7ED017A77EE877AC7ED8E
S31508002C90017A0220FFF7EEFEB0EE407AD7ED007A11
S31508002CA077EE877AC7ED007A97ED010A0120FEF7DD
S31508002CB057FD97ED000A0020FEF752FD00BF0837C2
S31508002CC0BD4680BD2A0900200800002080B400AF58
S31508002CD0034B1B781846BD465DF8047B704700BF5A
S31508002CE02809002080B400AF144B4FF000021A6088
S31508002CF0124B4FF000025A60104B4FF000029A60D8
S31508002D000F4B4FF000021A600D4B4FF000025A604D
S31508002D100B4B4FF000029A600A4B4FF000021A6004
S31508002D20084B4FF000025A60064B4FF000029A60BB
S31508002D3000BFBD465DF8047B704700BF040900204C
S31508002D40100900201C09002080B483B000AF034698
S31508002D503960FB7197F90730002B0BDA0D49FB79BF
S31508002D6003F00F03043B3A68D2B21201D2B20B4405
S31508002D701A7609E0084997F907303A68D2B212017B
S31508002D80D2B20B4483F8002300BF0C37BD465DF86A
S31508002D90047B704700ED00E000E100E080B582B0FA
S31508002DA000AF78607B68013BB3F1807F01D30123D4
S31508002DB00FE00A4A7B68013B53600F214FF0FF3052
S31508002DC0FFF7C2FF054B00229A60044B07221A60E0
S31508002DD0002318460837BD4680BD00BF10E000E056
S31508002DE080B500AF00F00EF800F024F800F0F8F80F
S31508002DF000F05EF900F0A2F900F008FA00F0D4FA43
S31508002E0000BF80BD80B584B000AF01F0BFF93B4676
S31508002E10184601F003FE7B68054AA2FB03239B09BB
S31508002E201846FFF7BBFF00BF1037BD4680BD00BF81
S31508002E30D34D621080B582B000AF634A624B1B68FF
S31508002E4023F0847323F4803313600121012001F0F9
S31508002E508FFE0121022001F08BFE0121042001F0E2
S31508002E6087FE0121082001F083FE0121802001F060
S31508002E707FFE3B46184601F033FD49F210033B60DE
S31508002E8002237B7101233B710023BB710023FB7175
S31508002E903B4619464D4801F095FC4FF480433B608C
S31508002EA03B4619464A4801F08DFC4FF480433B6087
S31508002EB000233B710123FB713B461946434801F049
S31508002EC081FC3B46184601F00BFD4DF60C433B6072
S31508002ED002237B7101233B710023BB710023FB7125
S31508002EE03B4619463B4801F06DFC0421394801F080
S31508002EF02BFD0821374801F027FD4FF4806135483E
S31508002F0001F022FD4FF40061324801F01DFD4FF437
S31508002F108051304801F018FD4FF480412D4801F0EA
S31508002F2013FD4FF400412B4801F00EFD3B461846B1
S31508002F3001F0D6FC03233B6002237B7101233B711E
S31508002F400023BB710023FB713B461946224801F05A
S31508002F5039FC0121204801F0F7FC02211E4801F046
S31508002F60F3FC3B46184601F0BBFC4FF4E0533B60CC
S31508002F7002237B7101233B710023BB710023FB7184
S31508002F803B461946134801F01DFC04233B603B46AB
S31508002F901946124801F016FC4FF480610D4801F0FD
S31508002FA0E3FC4FF400610B4801F0DEFC4FF480515E
S31508002FB0084801F0D9FC0421084801F0D5FC00BFF7
S31508002FC00837BD4680BD00BF0038024000040240F5
S31508002FD00000024000080240001C0240000C0240AB
S31508002FE080B58CB000AF0121022001F0C1FD01219E
S31508002FF0042001F0BDFD07F12803184601F070FC16
S31508003000032387F82C30002387F82F30022387F80C
S315080030102D300323BB6207F128031946214801F026
S31508003020D1FB3323BB6207F1280319461E4801F07A
S31508003030C9FB00211D4801F07BFA01214FF480707D
S3150800304001F0D6FD01F0E8F900233B604FF4803328
S315080030507B600023BB604FF47063FB603B461846F9
S3150800306001F03EFA00233B6100233B7500237B7584
S315080030700023BB6100233B62092387F8243007F14C
S3150800308010031946094801F0D5F90121074801F04E
S315080030904FFA0021054801F04FFB00BF3037BD4607
S315080030A080BD00BF00040240000802400020014025
S315080030B080B586B000AF0121102001F099FD0121ED
S315080030C0012001F055FD072209211A4801F05CFC90
S315080030D007220A21174801F057FC4FF4C0633B61E9
S315080030E002237B7502233B7507F110031946114825
S315080030F001F068FB4FF4E1333B600023BB800023FB
S31508003100FB8000233B810023BB810C237B813B464C
S315080031101946094802F0B2F8012240F2255106483C
S3150800312002F09AF90121044802F064F900BF183741
S31508003130BD4680BD000002400010014080B588B041
S3150800314000AF01214FF4805001F052FD012101200A
S3150800315001F00EFD07F11803184601F0C1FB102314
S31508003160BB6101233B7703237B770023BB770023CF
S31508003170FB7707F118031946224801F023FB0223BF
S315080031803B77E023BB6107F1180319461D4801F098
S3150800319019FB10211B4801F0D7FB05220521194808
S315080031A001F0F2FB05220621164801F0EDFB052287
S315080031B00721144801F0E8FB0023BB804FF4827313
S315080031C0FB8000233B8100237B810023BB814FF4D6
S315080031D04073FB8110233B8200237B820723BB823B
S315080031E03B1D1946084801F043FD0121064801F038
S315080031F083FD1021034801F0A7FB00BF2037BD4619
S3150800320080BD00BF000002400030014080B58AB092
S3150800321000AF0121012001F0ABFC0121022001F0E1
S31508003220A7FC04233B62032387F82530012387F88C
S315080032302430002387F82630012387F8273007F142
S3150800324020031946534801F0BDFA0421514801F0FC
S315080032508BFB0121042001F0ABFC0121082001F0C1
S31508003260A7FC03233B62022387F82430022387F84E
S315080032702530002387F82630002387F8273007F102
S3150800328020031946434801F09DFAC0233B6207F123
S3150800329020031946404801F095FA40F2EB43BB611A
S315080032A00023BB820023BB830023FB820023BB775A
S315080032B007F114031946394801F078FD07F114039C
S315080032C01946374801F072FD60233B800023BB8115
S315080032D001237B800023BB603B4619462F4801F03B
S315080032E01FFE08212D4801F01DFF3B4619462B48B5
S315080032F001F090FE0821294801F030FF3B461946A7
S31508003300274801F00DFE0821254801F00BFF3B4632
S315080033101946234801F07EFE0821214801F01EFFC8
S3150800332001214FF0804001F0BBFD01214FF08040A4
S3150800333001F032FF01211B4801F0B2FD01211948B5
S3150800334001F02AFF02220621134801F01DFB022282
S315080033500721114801F018FB022200210D4801F04F
S3150800336013FB022201210B4801F00EFB01210B4839
S3150800337001F096FD01210A4801F092FD0121074856
S3150800338001F0AEFD0121064801F0AAFD00BF28376D
S31508003390BD4680BD0000024000040240000800400F
S315080033A0000C00400004004080B586B000AF012143
S315080033B0022001F0DDFB0121042001F0D9FB0121E7
S315080033C0012001F0F5FB0121022001F0F1FB0222A8
S315080033D00621394801F0D8FA02220721364801F0B9
S315080033E0D3FA01220F21354801F0CEFA0122032132
S315080033F0334801F0C9FA07F11003184601F070FACC
S31508003400C0233B6102233B7502237B750023BB75F2
S315080034100023FB7507F110031946274801F0D2F976
S315080034204FF400433B6107F110031946234801F0A6
S31508003430C9F908233B6107F110031946204801F032
S31508003440C1F94FF6FE73BB600023BB800023BB8126
S315080034500023FB800023BB733B1D19464FF08040B9
S3150800346001F0A4FC3B1D1946164801F09FFC4FF6D7
S31508003470FF714FF0804001F005FD00230022032173
S315080034804FF0804001F0AEFE01214FF0804001F080
S3150800349027FD4FF6FF710B4801F0F4FC00230022CC
S315080034A00321084801F09EFE0121064801F018FD97
S315080034B000BF1837BD4680BD000802400000024024
S315080034C00004024000040040F0B587B002AF0023B4
S315080034D0FB81B7F90E30632B1CDC0023FB80FB88CD
S315080034E09BB21BB242F20F729342D4BF0123002350
S315080034F0DBB2002B08D0FB889BB29BB29BB2013390
S315080035009BB29BB2FB80EAE7FB899BB201339BB275
S31508003510FB81DEE7FFF764FC00F034FAFDF7B8FE3E
S3150800352010EE103A1846FDF701F803460C461A46FF
S315080035302346704800F0AAFDFDF7AAFEB0EE407AD1
S31508003540F1EE007AB4EEE77AF1EE10FA4CBF0123F9
S315080035500023DBB2002B1AD0FEF78AF84FF4FA7074
S3150800356000F0F0FEFEF756F84FF4FA7000F0EAFEA7
S315080035704FF48041604801F0CDF90346002B0CBF9B
S3150800358001230023DBB2002B00D1E5E700BFFEF7DD
S3150800359081FB4FF47A710320FEF7BEF8FEF7EAFBCB
S315080035A000F082FA0420FEF7E7FF03461846FCF708
S315080035B0ABFF04460D46042000F06EF90346184694
S315080035C0FCF792FF4FF000024C4BFDF703F802465A
S315080035D00B4611461A4601231E4613460A4620463E
S315080035E02946FDF769FA0346002B01D100231E463A
S315080035F0F3B2002B05D0012264210820FEF766F8F5
S31508003600D0E74FF4FA710520FEF786F8FEF7A6F91B
S315080036100A2000F097FEFFF721FA9FED390A00F01D
S31508003620CBF99FED370A00F003FA9FED350A00F053
S31508003630E1F99FED330A00F019FAFFF753FB314B16
S31508003640314A1A609FED2E0A00F044FA00F02CFA6F
S315080036500820FDF747FEFFF7F5F90020DFED280AF9
S315080036609FED2A0A00F026FB0520FDF73BFE4FF4E6
S315080036707A7000F067FEFEF749F9FDF7CBFF4FF4C5
S3150800368080411D4801F046F90346012B0CBF012372
S315080036900023DBB2002B00D0F1E70023BB60BB6838
S315080036A0B3F5FA6F21DA174ABB689B0013441B6807
S315080036B01846FCF73BFF05460E46124ABB6803F55B
S315080036C01C5310339B0013441B681846FCF72EFF47
S315080036D003460C46CDE900342A4633460C4800F02A
S315080036E0D5FCBB680133BB60D9E7012318461437FC
S315080036F0BD46F0BD08920008000402400000F83FED
S3150800370000000000340A0020000080BFCDCCAC3F8A
S315080037101492000898B500AF4FF48041314801F083
S3150800372013F9314B1B6801332F4A136000F036F941
S315080037300120FEF7B3FDFEF7CDFAFEF759FBFEF7BB
S315080037403BFBFEF799FB00F07BFAFFF715F8FFF74E
S315080037506DFAFEF71FF90346002B3BD0234B1B8857
S31508003760002B10D1224BD3ED007ABFEE007AF4EE8F
S31508003770477AF1EE10FA2DD11C4B1B8801339AB209
S315080037801A4B1A8026E0194B1B8842F20F72934295
S3150800379020D8164B1B881C46FEF768FCF0EE407ACC
S315080037A0134AA3001344C3ED007A104B1B881C462A
S315080037B000F04EF9F0EE407A0D4A04F51C5310332A
S315080037C09B001344C3ED007A084B1B8801339AB259
S315080037D0064B1A804FF48041024801F0C5F800BF35
S315080037E098BD00BF00000240300A0020B442012004
S315080037F0340A002080B582B000AF0346FB71FB791E
S31508003800042B09D900F04EFAFB7919460A4800F04C
S315080038103DFC4FF0000307E0FA79084913465B00C0
S3150800382013449B000B441B6807EE903AB0EE670AF8
S315080038300837BD4680BD00BFEC93000870920008AB
S3150800384080B483B000AF0346FB71FB79042B1BD809
S3150800385001A252F823F000BF6D380008733800083B
S31508003860793800087F380008853800084FF4E67371
S315080038700BE04FF42A7308E042F2107305E04FF4A8
S315080038800C7302E0002300E0002318460C37BD46FF
S315080038905DF8047B704700BF80B483B000AF034671
S315080038A0FB71FB79042B1AD801A252F823F000BF4A
S315080038B0C5380008CB380008D1380008D5380008C4
S315080038C0D93800084FF4B9730AE04FF4117307E0CA
S315080038D0002305E0002303E040F24C4300E0002308
S315080038E018460C37BD465DF8047B704780B582B034
S315080038F000AF0346FB71FB79042B09D900F0D2F916
S31508003900FB7919460A4800F0C1FB4FF0000308E0AE
S31508003910FA79084913465B0013449B000B440433A9
S315080039201B6807EE903AB0EE670A0837BD4680BDB9
S31508003930209400087092000880B582B000AF034654
S31508003940FB71FB79042B09D900F0ACF9FB79194610
S315080039500A4800F09BFB4FF0000308E0FA79084993
S3150800396013465B0013449B000B4408331B6807EEA1
S31508003970903AB0EE670A0837BD4680BD58940008ED
S315080039807092000880B400AF034B00221A6000BF93
S31508003990BD465DF8047B7047D442012080B400AF71
S315080039A0044B1B680133034A136000BFBD465DF82C
S315080039B0047B7047D442012080B483B000AF87ED02
S315080039C0010A044A7B68136000BF0C37BD465DF8E0
S315080039D0047B7047B842012080B400AF044B1B68D3
S315080039E007EE903AB0EE670ABD465DF8047B70476D
S315080039F0B842012080B483B000AF87ED010A044ABB
S31508003A007B68136000BF0C37BD465DF8047B7047C2
S31508003A10BC42012080B400AF044B1B6807EE903A05
S31508003A20B0EE670ABD465DF8047B7047BC420120CC
S31508003A3080B483B000AF87ED010A044A7B6813603F
S31508003A4000BF0C37BD465DF8047B7047C0420120B5
S31508003A5080B400AF044B1B6807EE903AB0EE670AD5
S31508003A60BD465DF8047B7047C042012080B483B030
S31508003A7000AF87ED010A044A7B68136000BF0C3764
S31508003A80BD465DF8047B7047C442012080B400AF90
S31508003A90044B1B6807EE903AB0EE670ABD465DF820
S31508003AA0047B7047C442012080B500AFFEF770F969
S31508003AB0FFF768FF00BF80BD80B400AF044B1B68EA
S31508003AC007EE903AB0EE670ABD465DF8047B70478C
S31508003AD0D042012080B483B000AF87ED010A044AC2
S31508003AE07B68136000BF0C37BD465DF8047B7047E2
S31508003AF0D042012000000000B0B500AFFFF7A8FFD4
S31508003B0010EE103A1846FCF711FD04460D46FFF76D
S31508003B1063FF10EE103A1846FCF708FD1EA3D3E91A
S31508003B200023FCF757FD02460B4620462946FCF7BC
S31508003B309FFB03460C4618462146FDF705F8034643
S31508003B4000EE103AFFF774FFFFF7A0FF10EE103AE9
S31508003B501846FCF7EBFC04460D46FFF75BFF10EE34
S31508003B60103A1846FCF7E2FC0BA3D3E90023FCF74E
S31508003B7031FD02460B4620462946FCF779FB0346EB
S31508003B800C4618462146FCF7DFFF034600EE103ABE
S31508003B90FFF76CFF00BFB0BDFCA9F1D24D62503FE4
S31508003BA0B0B500AFFFF754FF10EE103A1846FCF711
S31508003BB0BDFC1FA3D3E90023FCF70CFD03460C4606
S31508003BC025461C461C4B1B681846FCF7AFFC2246CC
S31508003BD02B46FCF74DFB03460C4618462146FCF7D8
S31508003BE0B3FF0246144B1A60FFF732FF10EE103A85
S31508003BF01846FCF79BFC0EA3D3E90023FCF7EAFC66
S31508003C0003460C4625461C460C4B1B681846FCF713
S31508003C108DFC22462B46FCF72BFB03460C46184622
S31508003C202146FCF791FF0246044B1A6000BFB0BD5F
S31508003C30FCA9F1D24D62503FD0420120CC4201206E
S31508003C40B0B500AFFFF758FFFFF7AAFFFFF71EFF53
S31508003C5010EE103A1846FCF769FC10A3D3E90023C6
S31508003C60FCF7B8FC03460C4625461C460A4B1B685F
S31508003C701846FCF75BFC22462B46FCF7F9FA034686
S31508003C800C4618462146FCF75FFF0246024B1A60AF
S31508003C9000BFB0BDAFF30080C8420120FCA9F1D235
S31508003CA04D62503F80B400AF00BFBD465DF8047B4F
S31508003CB0704700BF80B52DED028B88B000AF87ED49
S31508003CC0030AC7ED020A0346FB71FB791846FFF79C
S31508003CD00DFE87ED070AFB791846FFF78BFDF0EE18
S31508003CE0407AF5EEC07AF1EE10FA08D5FB79184657
S31508003CF0FFF780FDF0EE407AF1EE677A05E0FB7992
S31508003D001846FFF777FDF0EE407AC7ED067AFB799D
S31508003D101846FFF711FEF0EE407AF5EEC07AF1EE9E
S31508003D2010FA08D5FB791846FFF706FEF0EE407A3A
S31508003D30F1EE677A05E0FB791846FFF7FDFDF0EE30
S31508003D40407AC7ED057AFFF783FEB0EE408AFFF7A3
S31508003D507FFEF0EE407A28EE277AD7ED026AD7ED95
S31508003D60027A66EEA77A77EE677AF5EEC07AF1EE12
S31508003D7010FA14D5FFF76CFEB0EE408AFFF768FE1E
S31508003D80F0EE407A28EE277AD7ED026AD7ED027A66
S31508003D9066EEA77A77EE677AF1EE677A11E0FFF7B3
S31508003DA057FEB0EE408AFFF753FEF0EE407A28EE53
S31508003DB0277AD7ED026AD7ED027A66EEA77A77EE0A
S31508003DC0677A97ED057A77EE076A87EEA67A87ED22
S31508003DD0047A97ED060AFFF7EFFDFFF739FEB0EE16
S31508003DE0407AD7ED077AB4EEE77AF1EE10FA4CBFCF
S31508003DF001230023DBB2002B5BD0FFF729FEB0EED0
S31508003E00408AFFF725FEF0EE407A28EE277AD7EDAE
S31508003E10026AD7ED027A66EEA77A77EE677AF5EE4A
S31508003E20C07AF1EE10FA14D5FFF712FEB0EE408A0A
S31508003E30FFF70EFEF0EE407A28EE277AD7ED026AF3
S31508003E40D7ED027A66EEA77A77EE677AF1EE677AA9
S31508003E5011E0FFF7FDFDB0EE408AFFF7F9FDF0EE41
S31508003E60407A28EE277AD7ED026AD7ED027A66EE0F
S31508003E70A77A77EE677A97ED057A77EE076A87EE7F
S31508003E80A67A87ED047AFFF717FEB0EE407AD7EDEB
S31508003E90037A37EEC77AD7ED047AB4EEE77AF1EE0D
S31508003EA010FA94BF01230023DBB2002B00D194E75C
S31508003EB000BF9FED5A0AFFF77FFDFFF7C9FDB0EE79
S31508003EC0408AFFF7C5FDF0EE407A28EE277AD7ED4F
S31508003ED0026AD7ED027A66EEA77A77EE677AF5EE8A
S31508003EE0C07AF1EE10FA14D5FFF7B2FDB0EE408AAB
S31508003EF0FFF7AEFDF0EE407A28EE277AD7ED026A94
S31508003F00D7ED027A66EEA77A77EE677AF1EE677AE8
S31508003F1011E0FFF79DFDB0EE408AFFF799FDF0EE40
S31508003F20407A28EE277AD7ED026AD7ED027A66EE4E
S31508003F30A77A77EE677A97ED057A77EE076A87EEBE
S31508003F40A67A87ED047AFFF7B7FDB0EE407AD7ED8B
S31508003F50037A37EEC77AD7ED047AB4EEE77AF1EE4C
S31508003F6010FA94BF01230023DBB2002B00D1A4E78B
S31508003F7000BFD7ED057AF1EE677AB0EE670AFFF76C
S31508003F801BFDFFF765FDB0EE407AD7ED027AB4EE79
S31508003F90E77AF1EE10FACCBF01230023DBB2002B3F
S31508003FA011D0FFF789FDB0EE407AD7ED037AB4EE6B
S31508003FB0E77AF1EE10FACCBF01230023DBB2002B1F
S31508003FC000D1DEE700BF9FED150AFFF7F5FC97ED78
S31508003FD0020AFFF72DFDD7ED027AF5EEC07AF1EE6B
S31508003FE010FA10DDFFF768FDB0EE407AD7ED037AD8
S31508003FF0B4EEE77AF1EE10FACCBF01230023DBB268
S31508004000002B00D0EEE79FED050AFFF763FD00BF22
S315080040102037BD46BDEC028B80BD00BF0000000006
S3150800402080B582B000AF0346FB71FB799BB2194697
S31508004030074801F0FFF900BF8021054801F054FA4E
S315080040400346002BF8D000BF0837BD4680BD00BF29
S315080040500010014080B584B000AF78600B467B80C5
S315080040600023FB8109E0FB897A6813441B7818460C
S31508004070FFF7D6FFFB890133FB81FA89B7F90230CE
S315080040809A42F0DB00BF1037BD4680BD0FB480B53D
S3150800409082B000AF07F114033B603A6839690948F2
S315080040A001F0D4FA78607B689BB21BB219460548C2
S315080040B0FFF7D0FF7B6818460837BD46BDE8804045
S315080040C004B07047DC43012080B400AF00BFBD4692
S315080040D05DF8047B704700BF80B400AFFEE700BF01
S315080040E080B400AFFEE700BF80B400AFFEE700BFB4
S315080040F080B400AFFEE700BF80B400AF00BFBD4686
S315080041005DF8047B704700BF80B400AF00BFBD46B2
S315080041105DF8047B704700BF80B400AF00BFBD46A2
S315080041205DF8047B704700BF80B500AFFFF7F2FA71
S3150800413000BF80BD80B584B000AF7860114B1B68A6
S31508004140002B02D10F4B104A1A600E4B1B68FB60FE
S315080041500C4B1A687B6813446A46934207D901F0E8
S31508004160DFF902460C2313604FF0FF3306E0054BD8
S315080041701A687B681344034A1360FB6818461037AD
S31508004180BD4680BD444401201048012080B500AFDB
S31508004190164A164BD3F8883043F47003C2F88830B1
S315080041A0134A134B1B6843F001031360104B00229C
S315080041B09A600F4A0E4B1B6823F0847323F48033EE
S315080041C013600B4B0B4A5A60094A094B1B6823F4C8
S315080041D080231360064B0022DA6000F00DF8034BCB
S315080041E04FF000629A6000BF80BD00BF00ED00E09E
S315080041F0003802401030002480B400AF234A234B15
S315080042001B6C43F080531364214A214B1B6843F40B
S31508004210404313601D4A1D4B9B6893601B4A1B4B0A
S315080042209B6843F400439360184A184B9B6843F411
S31508004230A0539360154B174A5A60144A134B1B68D0
S3150800424043F08073136000BF104B1B6803F00073C4
S31508004250002BF9D0104B40F205621A600B4A0B4B43
S315080042609B6823F003039360084A084B9B6843F056
S315080042700203936000BF054B9B6803F00C03082BF1
S31508004280F9D100BFBD465DF8047B7047003802408F
S315080042900070004010540007003C02400000000077
S315080042A090B583B000AF87ED010A7868FCF73EF950
S315080042B00EA3D3E90023FCF78DF903460C461846EE
S315080042C021464FF00002084BFCF7AEFA03460C46AF
S315080042D018462146FCF738FC034607EE903AB0EE3E
S315080042E0670A0C37BD4690BD008066406F1283C0D2
S315080042F0CA21094080B483B000AF7860044A7B685D
S31508004300136000BF0C37BD465DF8047B704700BFDD
S315080043104844012080B400AF034B00221A6000BF56
S31508004320BD465DF8047B70474844012080B400AF61
S31508004330034B1B681846BD465DF8047B704700BFF3
S315080043404844012080B584B000AF78600023FB6044
S315080043501A4B1B681846FFF7CDFFFFF7E7FF014624
S315080043607A68174B9B1A99428CBF01230023DBB24C
S31508004370002B07D0FFF7CEFF104B00221A607B6890
S31508004380FB6005E0FFF7D2FF02467B681344FB603B
S31508004390FFF7CCFF0246FB689A4234BF012300238D
S315080043A0DBB2002B05D0054B1B681846FFF7A2FFAA
S315080043B0EEE700BF1037BD4680BD00BF300A0020BB
S315080043C00084D717DFF834D0002103E00C4B5B5884
S315080043D0435004310B480C4B42189A42F6D30B4A09
S315080043E002E0002342F8043B094B9A42F9D3FFF74F
S315080043F0CDFE01F09BF8FFF767F870470000022032
S315080044006496000800000020940800209408002004
S3150800441010480120FEE7000080B500AF01214FF4E7
S31508004420807000F005FC00214FF4807000F000FC5D
S3150800443000BF80BD80B485B000AF786039600023C6
S31508004440FB600023FB727B685B68FB60FB6823F0FC
S31508004450407323F48073FB603B681B791A023B6840
S315080044601B681343FA681343FB607B68FA685A6053
S315080044707B689B68FB60FA68184B1340FB603B68D7
S315080044801A693B68DB681A433B689B681A433B68B2
S315080044905B795B001343FA681343FB607B68FA6831
S315080044A09A607B68DB6AFB60FB6823F47003FB6039
S315080044B03B681B7D013BDAB2FB7A1343FB72FB7A3E
S315080044C01B05FA681343FB607B68FA68DA6200BF6B
S315080044D01437BD465DF8047B704700BFFDF7FFC083
S315080044E080B485B000AF78600023FB600E4B5B6834
S315080044F0FB60FA680D4B1340FB607B681A687B68A3
S315080045005B681A437B689B681A437B68DB681343BE
S31508004510FA681343FB60044AFB68536000BF14370C
S31508004520BD465DF8047B704700230140E030FCFF80
S3150800453080B483B000AF78600B46FB70FB78002B25
S3150800454006D07B689B6843F001027B689A6005E0A9
S315080045507B689B6823F001027B689A6000BF0C3772
S31508004560BD465DF8047B704780B485B000AF7860BF
S31508004570084611461A460346FB700B46BB7013469F
S315080045807B700023FB600023BB60FB78092B23D9D3
S315080045907B68DB68FB60FB78A3F10A0213465B00C5
S315080045A01344072202FA03F3BB60BB68DB43FA68CD
S315080045B01340FB607978FB78A3F10A0213465B0087
S315080045C0134401FA03F3BB60FA68BB681343FB6044
S315080045D07B68FA68DA601EE07B681B69FB60FA781C
S315080045E013465B001344072202FA03F3BB60BB6859
S315080045F0DB43FA681340FB607978FA7813465B0068
S31508004600134401FA03F3BB60FA68BB681343FB6003
S315080046107B68FA681A61BB78062B21D87B685B6BC6
S31508004620FB60BB785A1E13469B0013441F2202FAEE
S3150800463003F3BB60BB68DB43FA681340FB60F97899
S31508004640BB785A1E13469B00134401FA03F3BB605A
S31508004650FA68BB681343FB607B68FA685A6347E0ED
S31508004660BB780C2B21D87B681B6BFB60BB78DA1FE9
S3150800467013469B0013441F2202FA03F3BB60BB6870
S31508004680DB43FA681340FB60F978BB78DA1F1346F8
S315080046909B00134401FA03F3BB60FA68BB68134333
S315080046A0FB607B68FA681A6322E07B68DB6AFB605A
S315080046B0BB78A3F10D0213469B0013441F2202FA8E
S315080046C003F3BB60BB68DB43FA681340FB60F97809
S315080046D0BB78A3F10D0213469B00134401FA03F3BA
S315080046E0BB60FA68BB681343FB607B68FA68DA62EA
S315080046F000BF1437BD465DF8047B704780B483B0AD
S3150800470000AF78607B689B6843F080427B689A605C
S3150800471000BF0C37BD465DF8047B704780B483B094
S3150800472000AF78607B68DB6C9BB218460C37BD46D9
S315080047305DF8047B704700BF80B483B000AF786033
S315080047400B46FB70FB78002B06D07B689B6843F40E
S3150800475080727B689A6005E07B689B6823F48072A8
S315080047607B689A6000BF0C37BD465DF8047B7047CE
S3150800477080B485B000AF78600B46FB700023FB73EE
S315080047807B681A68FB781340002B02D00123FB7361
S3150800479001E00023FB73FB7B18461437BD465DF822
S315080047A0047B704780B483B000AF78600B46FB701B
S315080047B0FB78DA437B681A6000BF0C37BD465DF8A4
S315080047C0047B704780B487B000AF786039600023F7
S315080047D07B6100233B610023FB6000237B6176E05D
S315080047E001227B6902FA03F33B613B681A683B695D
S315080047F01340FB60FA683B699A4265D17B681A6880
S315080048007B695B00032101FA03F3DB431A407B68EB
S315080048101A607B681A683B681B7919467B695B00D6
S3150800482001FA03F31A437B681A603B681B79012B6C
S3150800483003D03B681B79022B2ED17B689A687B696B
S315080048405B00032101FA03F3DB431A407B689A6095
S315080048507B689A683B685B7919467B695B0001FA55
S3150800486003F31A437B689A607B685A687B699BB234
S31508004870012101FA03F3DB431A407B685A607B681F
S315080048805A683B689B7919467B699BB201FA03F320
S315080048909BB21A437B685A607B68DA687B699BB26D
S315080048A05B00032101FA03F3DB431A407B68DA60F5
S315080048B07B68DA683B68DB7919467B695B0001FA35
S315080048C003F31A437B68DA607B6901337B617B6992
S315080048D00F2B85D900BF1C37BD465DF8047B704792
S315080048E080B483B000AF78607B684FF6FF721A60B9
S315080048F07B6800221A717B6800225A717B68002245
S315080049009A717B680022DA7100BF0C37BD465DF8E4
S31508004910047B704780B485B000AF78600B467B8017
S315080049200023FB737B681A697B881340002B02D02F
S315080049300123FB7301E00023FB73FB7B1846143746
S31508004940BD465DF8047B704780B483B000AF7860DD
S315080049500B467B807B687A881A8300BF0C37BD4676
S315080049605DF8047B704700BF80B483B000AF786001
S315080049700B467B807B687A885A8300BF0C37BD4616
S315080049805DF8047B704700BF80B485B000AF7860DF
S315080049900B467B8013467B700023FB600023BB60BD
S315080049A07A787B8803F007039B0002FA03F3FB601F
S315080049B07B88DB089BB218467B88DB089BB21A46C5
S315080049C07B68083253F822207B8803F007039B0094
S315080049D00F2101FA03F3DB4302EA03017B6800F1C6
S315080049E0080243F822107B88DB089BB21A467B68CC
S315080049F0083253F82220FB681343BB607B88DB0828
S31508004A009BB21A467B680832B96843F8221000BF81
S31508004A101437BD465DF8047B704700BF80B489B083
S31508004A2000AF78600023BB6100237B610023FB6134
S31508004A3002233B610023FB600223BB60484B9B6853
S31508004A4003F00C03BB61BB69042B07D0082B09D004
S31508004A50002B3FD17B68434A1A603FE07B68424A95
S31508004A601A603BE03E4B5B6803F480039B0DFB60DA
S31508004A703B4B5B6803F03F03BB60FB68002B0DD024
S31508004A80394ABB68B2FBF3F2354B596847F6C0732F
S31508004A900B409B0903FB02F3FB610CE0314ABB6840
S31508004AA0B2FBF3F22E4B596847F6C0730B409B09CD
S31508004AB003FB02F3FB612A4B5B6803F440331B0CD0
S31508004AC001335B003B61FA693B69B2FBF3F27B6831
S31508004AD01A6003E07B68234A1A6000BF204B9B6874
S31508004AE003F0F003BB61BB691B09BB611F4ABB69C5
S31508004AF013441B78DBB27B617B681A687B69DA40F2
S31508004B007B685A60164B9B6803F4E053BB61BB692C
S31508004B109B0ABB61154ABB6913441B78DBB27B61F0
S31508004B207B685A687B69DA407B689A600C4B9B689D
S31508004B3003F46043BB61BB695B0BBB610B4ABB6992
S31508004B4013441B78DBB27B617B685A687B69DA4061
S31508004B507B68DA6000BF2437BD465DF8047B704782
S31508004B60003802400024F40040787D010C00002043
S31508004B7080B483B000AF78600B46FB70FB78002BDF
S31508004B8006D00A49094B1A6B7B6813430B6306E088
S31508004B900649064B1A6B7B68DB4313400B6300BF61
S31508004BA00C37BD465DF8047B704700BF00380240ED
S31508004BB080B483B000AF78600B46FB70FB78002B9F
S31508004BC006D00A49094B1A6C7B6813430B6406E046
S31508004BD00649064B1A6C7B68DB4313400B6400BF1F
S31508004BE00C37BD465DF8047B704700BF00380240AD
S31508004BF080B483B000AF78600B46FB70FB78002B5F
S31508004C0006D00A49094B5A6C7B6813434B6406E085
S31508004C100649064B5A6C7B68DB4313404B6400BF5E
S31508004C200C37BD465DF8047B704700BF003802406C
S31508004C3080B483B000AF78600B46FB70FB78002B1E
S31508004C4006D00A49094B5A6A7B6813434B6206E049
S31508004C500649064B5A6A7B68DB4313404B6200BF22
S31508004C600C37BD465DF8047B704700BF003802402C
S31508004C7080B485B000AF786039600023FB817B681B
S31508004C801B88FB81FB8903F44153FB813B681A8827
S31508004C903B685B8813439AB23B689B8813439AB276
S31508004CA03B68DB8813439AB23B681B8913439AB265
S31508004CB03B685B8913439AB23B689B8913439AB254
S31508004CC03B68DB8913439AB2FB891343FB817B68F4
S31508004CD0FA891A807B689B8B9BB223F400639AB28D
S31508004CE07B689A833B681A8A7B681A8200BF1437E6
S31508004CF0BD465DF8047B704780B483B000AF78602A
S31508004D000B46FB70FB78002B08D07B681B889BB290
S31508004D1043F040039AB27B681A8007E07B681B88D9
S31508004D209BB223F040039AB27B681A8000BF0C3707
S31508004D30BD465DF8047B704780B483B000AF7860E9
S31508004D407B689B899BB218460C37BD465DF8047B89
S31508004D50704700BF80B483B000AF78600B467B8095
S31508004D607B687A889A8100BF0C37BD465DF8047B5C
S31508004D70704700BF80B485B000AF78600B467B8073
S31508004D800023FB737B681B899AB27B8813409BB20E
S31508004D90002B02D00123FB7301E00023FB73FB7B8E
S31508004DA018461437BD465DF8047B704780B485B055
S31508004DB000AF786039600023FB817B681B88FB8124
S31508004DC07B68294A934213D07B68284A93420FD0BE
S31508004DD07B68B3F1804F0BD07B68254A934207D096
S31508004DE07B68244A934203D07B68234A934208D1BE
S31508004DF0FB8923F07003FB813B685A88FB891343C0
S31508004E00FB817B681D4A93420CD07B681C4A9342FF
S31508004E1008D0FB8923F44073FB813B681A89FB8918
S31508004E201343FB817B68FA891A803B685A687B685A
S31508004E30DA623B681A887B681A857B680A4A934255
S31508004E4003D07B68094A934204D13B689B7A9AB29D
S31508004E507B681A867B6801229A8200BF1437BD4692
S31508004E605DF8047B704700BF000001400004014064
S31508004E700004004000080040000C004000100040FC
S31508004E800014004080B483B000AF786039607B6856
S31508004E903A68DA6200BF0C37BD465DF8047B704796
S31508004EA080B483B000AF78600B46FB70FB78002BAC
S31508004EB008D07B681B889BB243F080039AB27B6854
S31508004EC01A8007E07B681B889BB223F080039AB29E
S31508004ED07B681A8000BF0C37BD465DF8047B7047B7
S31508004EE080B483B000AF78600B46FB70FB78002B6C
S31508004EF008D07B681B889BB243F001039AB27B6893
S31508004F001A8007E07B681B889BB223F001039AB2DC
S31508004F107B681A8000BF0C37BD465DF8047B704776
S31508004F2080B485B000AF7860396000237B810023A8
S31508004F30FB810023BB817B681B8C9BB223F001039A
S31508004F409AB27B681A847B681B8CFB817B689B887A
S31508004F50BB817B681B8B7B817B8923F070037B81FC
S31508004F607B8923F003037B813B681A887B8913437B
S31508004F707B81FB8923F00203FB813B689A89FB89C5
S31508004F801343FB813B685A88FB891343FB817B6883
S31508004F901E4A934203D07B681D4A934223D1FB895C
S31508004FA023F00803FB813B68DA89FB891343FB81FD
S31508004FB0FB8923F00403FB813B689A88FB8913432A
S31508004FC0FB81BB8923F48073BB81BB8923F40073FF
S31508004FD0BB813B681A8ABB891343BB813B685A8AE3
S31508004FE0BB891343BB817B68BA899A807B687A89B7
S31508004FF01A833B689A687B685A637B68FA891A84BD
S3150800500000BF1437BD465DF8047B704700000140B9
S315080050100004014080B485B000AF78603960002391
S315080050207B810023FB810023BB817B681B8C9BB2A1
S3150800503023F010039AB27B681A847B681B8CFB8169
S315080050407B689B88BB817B681B8B7B817B8923F470
S31508005050E0437B817B8923F440737B813B681B8813
S315080050601B029AB27B8913437B81FB8923F02003B9
S31508005070FB813B689B891B019AB2FB891343FB8121
S315080050803B685B881B019AB2FB891343FB817B68EB
S31508005090224A934203D07B68214A93422BD1FB894B
S315080050A023F08003FB813B68DB891B019AB2FB89ED
S315080050B01343FB81FB8923F04003FB813B689B88F4
S315080050C01B019AB2FB891343FB81BB8923F48063D6
S315080050D0BB81BB8923F40063BB813B681B8A9B00A9
S315080050E09AB2BB891343BB813B685B8A9B009AB221
S315080050F0BB891343BB817B68BA899A807B687A89A6
S315080051001A833B689A687B689A637B68FA891A846B
S3150800511000BF1437BD465DF8047B704700000140A8
S315080051200004014080B485B000AF78600B467B80F0
S315080051300023FB817B681B8BFB81FB8923F008031B
S31508005140FB81FA897B881343FB817B68FA891A837A
S3150800515000BF1437BD465DF8047B704780B485B040
S3150800516000AF78600B467B800023FB817B681B8B36
S31508005170FB81FB8923F40063FB817B881B029AB2BF
S31508005180FB891343FB817B68FA891A8300BF1437AE
S31508005190BD465DF8047B704780B483B000AF786085
S315080051A00B46FB70FB78002B0CD07B68B3F84430B9
S315080051B09BB26FEA43436FEA53439AB27B68A3F8FC
S315080051C0442009E07B68B3F844309BB2C3F30E036E
S315080051D09AB27B68A3F8442000BF0C37BD465DF839
S315080051E0047B704780B487B000AFF8600846114664
S315080051F01A4603467B810B463B811346FB800023F8
S31508005200FB820023BB8200237B82FB681B89FB820F
S31508005210FB681B8BBB82FB681B8C7B82FB8A23F09B
S315080052200703FB82FA8A7B891343FB82BB8A23F432
S31508005230407323F00303BB82BB8A43F4807343F0B5
S315080052400103BB827B8A23F022037B82FB881B0136
S315080052509AB23B8913439AB27B8A13437B82FB68D3
S31508005260FA8A1A81FB68BA8A1A83FB687A8A1A84C8
S3150800527000BF1C37BD465DF8047B704780B58AB011
S3150800528000AF7860396000237B6200233B6200230D
S31508005290FB610023BB617B681B8A9BB27B627B6ACE
S315080052A023F440537B623B68DB881A467B6A1343C8
S315080052B07B627B6A9AB27B681A827B689B899BB2FF
S315080052C07B627B6A23F4B05323F00C037B623B6852
S315080052D09A883B681B8913439AB23B685B891343D8
S315080052E09BB21A467B6A13437B627B6A9AB27B68D7
S315080052F09A817B689B8A9BB27B627B6A23F44073A4
S315080053007B623B689B891A467B6A13437B627B6A8E
S315080053109AB27B689A8207F108031846FFF77EFB64
S315080053207B68314A934203D07B68304A934202D164
S315080053307B693B6201E03B693B627B689B899BB268
S315080053409BB21BB2002B0CDA3A6A13469B00134435
S315080053509A001A443B681B685B00B2FBF3F3FB61D7
S315080053600BE03A6A13469B0013449A001A443B68BA
S315080053701B689B00B2FBF3F3FB61FB691C4AA2FBAB
S3150800538003235B091B017B627B6A1B09642202FB00
S3150800539003F3FA69D31ABB617B689B899BB29BB2FC
S315080053A01BB2002B0CDABB69DB003233104AA2FBB6
S315080053B003235B0903F007037A6A13437B620BE056
S315080053C0BB691B0132330A4AA2FB03235B0903F0BC
S315080053D00F037A6A13437B627B6A9AB27B681A81E7
S315080053E000BF2837BD4680BD0010014000140140AB
S315080053F01F85EB5180B483B000AF78600B46FB7015
S31508005400FB78002B08D07B689B899BB243F400533A
S315080054109AB27B689A8107E07B689B899BB223F4E2
S3150800542000539AB27B689A8100BF0C37BD465DF877
S31508005430047B704780B483B000AF78600B467B80EE
S315080054407B88C3F308039AB27B689A8000BF0C373F
S31508005450BD465DF8047B704780B487B000AF7860BE
S315080054600B467B8013467B7000233B610023FB6061
S315080054700023BB6000237B617B687B617B88DBB292
S315080054805B09DBB23B617B8803F01F03FB600122EB
S31508005490FB6802FA03F3BB603B69012B03D17B6906
S315080054A00C337B6109E03B69022B03D17B6910331E
S315080054B07B6102E07B6914337B617B78002B06D025
S315080054C07B697A691168BA680A431A6006E07B69DB
S315080054D07A691168BA68D2430A401A6000BF1C3755
S315080054E0BD465DF8047B704780B485B000AF786030
S315080054F00B467B800023FB737B681B889AB27B88EC
S3150800550013409BB2002B02D00123FB7301E000235A
S31508005510FB73FB7B18461437BD465DF8047B704762
S31508005520014B1868704700BF4804002070B50F4E3D
S315080055300F4D761BB61018BF002405D0013455F858
