S010000068616C666D6F7573652E6D6F74AD
S3150800000000000220F5530008FD5000080D510008B5
S31508000010155100081D510008255100080000000070
S315080000200000000000000000000000002D5100083C
S315080000303D510008000000004D5100085D510008C0
S31508000040455400084554000845540008455400081E
S31508000050455400084554000845540008455400080E
S3150800006045540008455400084554000845540008FE
S3150800007045540008455400084554000845540008EE
S3150800008045540008455400084554000845540008DE
S3150800009045540008455400084554000845540008CE
S315080000A045540008455400084554000845540008BE
S315080000B045540008455400084554000845540008AE
S315080000C0455400084554000845540008455400089E
S315080000D0455400084554000845540008455400088E
S315080000E0455400084554000845540008455400087E
S315080000F0455400084554000845540008455400086E
S31508000100455400084554000845540008455400085D
S31508000110455400084554000845540008455400084D
S31508000120455400084554000845540008455400083D
S31508000130455400080000000000000000455400086F
S31508000140455400084554000845540008455400081D
S31508000150455400084554000845540008455400080D
S3150800016045540008455400084554000845540008FD
S31508000170455400084554000800000000000000002F
S30D08000180455400084554000827
S315080001C0044B05481B1A062B02D9044B03B11847E2
S315080001D0704700BFA7080020A40800200000000000
S315080001E005490648091A891001EBD171491002D050
S315080001F0034B03B118477047A4080020A408002041
S315080002000000000010B5064C237843B9FFF7D8FF65
S31508000210044B13B10448AFF300800123237010BDCB
S31508000220A40800200000000014A2000808B5084B26
S315080002301BB108490848AFF300800848036813B99A
S31508000240BDE80840CCE7064B002BF9D09847F7E7FE
S3150800025000000000A808002014A20008A408002036
S315080002600000000081F0004102E000BF83F0004377
S3150800027030B54FEA41044FEA430594EA050F08BF33
S3150800028090EA020F1FBF54EA000C55EA020C7FEAF7
S31508000290645C7FEA655C00F0E2804FEA5454D4EB74
S315080002A05555B8BF6D420CDD2C4480EA020281EA3E
S315080002B0030382EA000083EA010180EA020281EA76
S315080002C00303362D88BF30BD11F0004F4FEA0131C8
S315080002D04FF4801C4CEA113102D0404261EB4101D7
S315080002E013F0004F4FEA03334CEA133302D052425D
S315080002F063EB430394EA050F00F0A780A4F1010419
S31508000300D5F1200E0DDB02FA0EFC22FA05F2801852
S3150800031041F1000103FA0EF2801843FA05F3594138
S315080003200EE0A5F120050EF1200E012A03FA0EFCB7
S3150800033028BF4CF0020C43FA05F3C01851EBE371E1
S3150800034001F0004507D54FF0000EDCF1000C7EEBFE
S3150800035000006EEB0101B1F5801F1BD3B1F5001F3C
S315080003600CD349085FEA30004FEA3C0C04F101045B
S315080003704FEA445212F5800F80F09A80BCF1004F84
S3150800038008BF5FEA500C50F1000041EB045141EA06
S31508000390050130BD5FEA4C0C404141EB010111F407
S315080003A0801FA4F10104E9D191F0000F04BF0146B2
S315080003B00020B1FA81F308BF2033A3F10B03B3F190
S315080003C020020CDA0C3208DD02F1140CC2F10C0220
S315080003D001FA0CF021FA02F10CE002F11402D8BF7E
S315080003E0C2F1200C01FA02F120FA0CFCDCBF41EA4A
S315080003F00C019040E41AA2BF01EB0451294330BD19
S315080004006FEA04041F3C1CDA0C340EDC04F11404F5
S31508000410C4F1200220FA04F001FA02F340EA0300CC
S3150800042021FA04F345EA030130BDC4F10C04C4F112
S31508000430200220FA02F001FA04F340EA03002946F2
S3150800044030BD21FA04F0294630BD94F0000F83F43C
S31508000450801306BF81F480110134013D4EE77FEA1F
S31508000460645C18BF7FEA655C29D094EA050F08BF6B
S3150800047090EA020F05D054EA000C04BF194610464C
S3150800048030BD91EA030F1EBF0021002030BD5FEA90
S31508000490545C05D14000494128BF41F0004130BDB8
S315080004A014F580043CBF01F5801130BD01F000450C
S315080004B045F0FE4141F470014FF0000030BD7FEA7F
S315080004C0645C1ABF194610467FEA655C1CBF0B467A
S315080004D0024650EA013406BF52EA033591EA030F91
S315080004E041F4002130BD00BF90F0000F04BF002189
S315080004F0704730B54FF4806404F132044FF00005BC
S315080005004FF0000150E700BF90F0000F04BF002134
S31508000510704730B54FF4806404F1320410F000459A
S3150800052048BF40424FF000013EE700BF42004FEA95
S31508000530E2014FEA31014FEA02701FBF12F07F4312
S3150800054093F07F4F81F06051704792F0000F14BF0F
S3150800055093F07F4F704730B54FF4607401F0004553
S3150800056021F0004120E700BF50EA010208BF7047AA
S3150800057030B54FF000050AE050EA010208BF70479F
S3150800058030B511F0004502D5404261EB41014FF408
S31508000590806404F132045FEA915C3FF4DCAE4FF00C
S315080005A003025FEADC0C18BF03325FEADC0C18BFF3
S315080005B0033202EBDC02C2F1200300FA03FC20FA44
S315080005C002F001FA03FE40EA0E0021FA02F1144491
S315080005D0C1E600BF70B54FF0FF0C4CF4E06C1CEAA6
S315080005E011541DBF1CEA135594EA0C0F95EA0C0F1B
S315080005F000F0DEF82C4481EA030621EA4C5123EA8E
S315080006004C5350EA013518BF52EA033541F48011BC
S3150800061043F4801338D0A0FB02CE4FF00005E1FB6F
S3150800062002E506F00042E0FB03E54FF00006E1FBB9
S3150800063003569CF0000F18BF4EF0010EA4F1FF04FC
S31508000640B6F5007F64F5407404D25FEA4E0E6D413C
S3150800065046EB060642EAC62141EA55514FEAC5204D
S3150800066040EA5E504FEACE2EB4F1FD0C88BFBCF5C9
S31508000670E06F1ED8BEF1004F08BF5FEA500E50F17A
S31508000680000041EB045170BD06F0004646EA010140
S3150800069040EA020081EA0301B4EB5C04C2BFD4EB72
S315080006A00C0541EA045170BD41F480114FF0000E6B
S315080006B0013C00F3AB8014F1360FDEBF002001F0D9
S315080006C0004170BDC4F10004203C35DA0C341BDC53
S315080006D004F11404C4F1200500FA05F320FA04F025
S315080006E001FA05F240EA020001F0004221F0004159
S315080006F010EBD37021FA04F642EB06015EEA430ECC
S3150800070008BF20EAD37070BDC4F10C04C4F12005FB
S3150800071000FA04F320FA05F001FA04F240EA0200AE
S3150800072001F0004110EBD37041F100015EEA430E7F
S3150800073008BF20EAD37070BDC4F1200500FA05F29F
S315080007404EEA020E20FA04F301FA05F243EA02031E
S3150800075021FA04F001F0004121FA04F220EA02002D
S3150800076000EBD3705EEA430E08BF20EAD37070BD73
S3150800077094F0000F0FD101F00046400041EB010153
S3150800078011F4801F08BF013CF7D041EA060195F035
S31508000790000F18BF704703F00046520043EB0303EF
S315080007A013F4801F08BF013DF7D043EA06037047DC
S315080007B094EA0C0F0CEA135518BF95EA0C0F0CD0E7
S315080007C050EA410618BF52EA4306D1D181EA03012D
S315080007D001F000414FF0000070BD50EA410606BF27
S315080007E01046194652EA430619D094EA0C0F02D16C
S315080007F050EA013613D195EA0C0F05D152EA0336B1
S315080008001CBF104619460AD181EA030101F00041CE
S3150800081041F0FE4141F470014FF0000070BD41F017
S31508000820FE4141F4780170BD70B54FF0FF0C4CF4F1
S31508000830E06C1CEA11541DBF1CEA135594EA0C0F10
S3150800084095EA0C0F00F0A7F8A4EB050481EA030E5D
S3150800085052EA03354FEA013100F088804FEA033344
S315080008604FF0805545EA131343EA12634FEA022212
S3150800087045EA111545EA10654FEA00260EF00041D3
S315080008809D4208BF964244F1FD0404F5407402D225
S315080008905B084FEA3202B61A65EB03055B084FEAB6
S315080008A032024FF480104FF4002CB6EB020E75EBB3
S315080008B0030E22BFB61A754640EA0C005B084FEADB
S315080008C03202B6EB020E75EB030E22BFB61A754658
S315080008D040EA5C005B084FEA3202B6EB020E75EBA3
S315080008E0030E22BFB61A754640EA9C005B084FEA1B
S315080008F03202B6EB020E75EB030E22BFB61A754628
S3150800090040EADC0055EA060E18D04FEA051545EA16
S3150800091016754FEA06164FEAC30343EA52734FEABF
S31508000920C2025FEA1C1CC0D111F4801F0BD141EA38
S3150800093000014FF000004FF0004CB6E711F4801F9D
S3150800094004BF01430020B4F1FD0C88BFBCF5E06F7D
S315080009503FF6AFAEB5EB030C04BFB6EB020C5FEA8D
S31508000960500C50F1000041EB045170BD0EF0004EE2
S315080009704EEA113114EB5C04C2BFD4EB0C0541EA14
S31508000980045170BD41F480114FF0000E013C90E611
S3150800099045EA060E8DE60CEA135594EA0C0F08BFD5
S315080009A095EA0C0F3FF43BAF94EA0C0F0AD150EAD4
S315080009B001347FF434AF95EA0C0F7FF425AF104667
S315080009C019462CE795EA0C0F06D152EA03353FF48F
S315080009D0FDAE1046194622E750EA410618BF52EA0C
S315080009E043067FF4C5AE50EA41047FF40DAF52EAE0
S315080009F043057FF4EBAE12E74FF0FF3C06E000BF7D
S31508000A004FF0010C02E000BF4FF0010C4DF804CD89
S31508000A104FEA410C7FEA6C5C4FEA430C18BF7FEA49
S31508000A206C5C1BD001B050EA410C0CBF52EA430C77
S31508000A3091EA030F02BF90EA020F0020704710F1F7
S31508000A40000F91EA030F58BF994208BF90422CBF86
S31508000A50D8176FEAE37040F0010070474FEA410C7F
S31508000A607FEA6C5C02D150EA013C07D14FEA430C9D
S31508000A707FEA6C5CD6D152EA033CD3D05DF8040B0E
S31508000A80704700BF8446104662468C461946634640
S31508000A9000E000BF01B5FFF7B7FF002848BF10F117
S31508000AA0000F01BD4DF808EDFFF7F4FF0CBF01205C
S31508000AB000205DF808FB00BF4DF808EDFFF7EAFFD8
S31508000AC034BF012000205DF808FB00BF4DF808ED93
S31508000AD0FFF7E0FF94BF012000205DF808FB00BF88
S31508000AE04DF808EDFFF7CEFF94BF012000205DF812
S31508000AF008FB00BF4DF808EDFFF7C4FF34BF01201F
S31508000B0000205DF808FB00BF4A0011D212F500125A
S31508000B1011D20DD56FF47873B3EB62520ED44FEA47
S31508000B20C12343F0004343EA505323FA02F07047C7
S31508000B304FF00000704750EA013002D14FF0FF3005
S31508000B4070474FF0000070474FEA4102B2F1E043A8
S31508000B5024BFB3F5001CDCF1FE5C0DD901F0004C96
S31508000B604FEAC0024CEA5070B2F1004F40EB8300E6
S31508000B7008BF20F00100704711F0804F21D113F112
S31508000B803872BCBF01F00040704741F480114FEA4B
S31508000B905252C2F11802C2F1200C10FA0CF320FAD4
S31508000BA002F018BF40F001004FEAC1234FEAD323F1
S31508000BB003FA0CFC40EA0C0023FA02F34FEA43035B
S31508000BC0CCE77FEA625307D150EA01331EBF4FF0E4
S31508000BD0FE4040F44000704701F0004040F0FE40FF
S31508000BE040F40000704700BF00000000000000004D
S31508000BF001F0FF01102A2BDB10F0070F08D010F8C0
S31508000C00013B013A8B422DD010F0070F42B3F6D1C3
S31508000C10F0B441EA012141EA014122F007047FF0DC
S31508000C2000070023F0E80256083C85EA010586EA33
S31508000C30010685FA47F5A3FA87F586FA47F6A5FA6F
S31508000C4087F68EB9EED1F0BC01F0FF0102F007027B
S31508000C5032B110F8013B013A83EA010313B1F8D126
S31508000C600020704701387047002D06BF3546033807
S31508000C70073815F0010F07D1013015F4807F02BF40
S31508000C80013015F4C03F0130F0BC0138704700BF91
S31508000C90844641EA000313F003036DD1403A41D379
S31508000CA051F8043B40F8043B51F8043B40F8043B38
S31508000CB051F8043B40F8043B51F8043B40F8043B28
S31508000CC051F8043B40F8043B51F8043B40F8043B18
S31508000CD051F8043B40F8043B51F8043B40F8043B08
S31508000CE051F8043B40F8043B51F8043B40F8043BF8
S31508000CF051F8043B40F8043B51F8043B40F8043BE8
S31508000D0051F8043B40F8043B51F8043B40F8043BD7
S31508000D1051F8043B40F8043B51F8043B40F8043BC7
S31508000D20403ABDD2303211D351F8043B40F8043B67
S31508000D3051F8043B40F8043B51F8043B40F8043BA7
S31508000D4051F8043B40F8043B103AEDD20C3205D377
S31508000D5051F8043B40F8043B043AF9D2043208D06F
S31508000D60D2071CBF11F8013B00F8013B01D30B88E1
S31508000D7003806046704700BF082A13D38B078DD0BF
S31508000D8010F003038AD0C3F10403D21ADB071CBF91
S31508000D9011F8013B00F8013B80D331F8023B20F8FB
S31508000DA0023B7BE7043AD9D3013A11F8013B00F834
S31508000DB0013BF9D20B7803704B7843708B788370BC
S31508000DC060467047000000000000000000000000B8
S31508000DD00000000000000000000000000000000005
S31508000DE000000000000000000000000000000000F5
S31508000DF000000000000000000000000000000000E5
S31508000E0090F800F06DE9024520F007016FF0000C3C
S31508000E1010F0070491F820F040F049804FF00004E4
S31508000E206FF00700D1E9002391F840F000F10800BF
S31508000E3082FA4CF2A4FA8CF283FA4CF3A2FA8CF3F7
S31508000E404BBBD1E9022382FA4CF200F10800A4FA5E
S31508000E508CF283FA4CF3A2FA8CF3E3B9D1E90423B2
S31508000E6082FA4CF200F10800A4FA8CF283FA4CF3E9
S31508000E70A2FA8CF37BB9D1E9062301F1200182FAA3
S31508000E804CF200F10800A4FA8CF283FA4CF3A2FAA9
S31508000E908CF3002BC6D0002A04BF04301A4612BAB7
S31508000EA0B2FA82F2FDE8024500EBD2007047D1E9BA
S31508000EB0002304F00305C4F100004FEAC50514F049
S31508000EC0040F91F840F00CFA05F562EA05021CBF1A
S31508000ED063EA050362464FF00004A9E74FEA4102B8
S31508000EE012F5001215D211D56FF47873B3EB62526E
S31508000EF012D94FEAC12343F0004343EA505311F095
S31508000F00004F23FA02F018BF404270474FF0000026
S31508000F10704750EA013005D111F0004008BF6FF064
S31508000F20004070474FF00000704700BF53B94AB9F8
S31508000F30002908BF00281CBF4FF0FF314FF0FF30D3
S31508000F4000F07EB9ADF1080C6DE904CE00F006F8A4
S31508000F50DDF804E0DDE9022304B070472DE9F04727
S31508000F608C460E460446089D002B50D18A421746E9
S31508000F706CD9B2FA82FEBEF1000F0BD0CEF1200476
S31508000F8020FA04F401FA0EF644EA060C02FA0EF701
S31508000F9000FA0EF44FEA1749220CBCFBF9F01FFAC7
S31508000FA087F809FB10C642EA064600FB08F3B34277
S31508000FB009D9F61900F1FF3280F02281B34240F2D6
S31508000FC01F8102383E44F61AA2B2B6FBF9F309FBB2
S31508000FD0136642EA064403FB08F8A04509D9E41952
S31508000FE003F1FF3280F00A81A04540F20781023BF7
S31508000FF03C44C8EB040443EA00400021002D62D0BB
S3150800100024FA0EF400232C606B60BDE8F0878B424F
S3150800101007D9002D55D0002185E841000846BDE8CE
S31508001020F087B3FA83F1002940F09080B34202D3E7
S31508001030824200F2F880841A66EB03060120B44661
S31508001040002D40D085E81010BDE8F08712B90127B9
S31508001050B7FBF2F7B7FA87FEBEF1000F35D1F31BDF
S315080010604FEA17481FFA87FC0121B3FBF8F0220C58
S3150800107008FB103642EA06460CFB00F3B34207D9D2
S31508001080F61900F1FF3202D2B34200F2CE801046C2
S31508001090F61AA2B2B6FBF8F308FB136642EA064450
S315080010A00CFB03FCA44507D9E41903F1FF3202D26D
S315080010B0A44500F2B5801346CCEB040443EA00408D
S315080010C09CE729462846BDE8F087CEF1200106FAB6
S315080010D00EF307FA0EF720FA01F94FEA1748CE4041
S315080010E049EA0309B6FBF8FA4FEA194408FB1A66F7
S315080010F01FFA87FC44EA06430AFB0CF29A4200FAF6
S315080011000EF40AD9DB190AF1FF3180F087809A427A
S3150800111040F28480AAF1020A3B449B1A1FFA89F915
S31508001120B3FBF8F108FB113349EA034301FB0CF65C
S315080011309E4207D9DB1901F1FF326BD29E4269D96B
S3150800114002393B449B1B41EA0A418EE7C1F1200E56
S3150800115022FA0EF48B40234320FA0EF706FA01F41E
S315080011604FEA134C26FA0EF63C43B6FBFCF9270C5D
S315080011700CFB19661FFA83F847EA064609FB08F7C7
S31508001180B74202FA01F200FA01FA08D9F61809F18B
S31508001190FF3041D2B7423FD9A9F102091E44F61BD6
S315080011A0A0B2B6FBFCF40CFB146640EA064704FB47
S315080011B008F8B84507D9FF1804F1FF3028D2B84512
S315080011C026D9023C1F4444EA0940C8EB0707A0FB9E
S315080011D002894F4544464E4614D329D065B3BAEB27
S315080011E0040367EB060707FA0EFECB40CF404EEA2C
S315080011F0030385E888000021BDE8F0871346F8E672
S315080012001046E0E6B8EB020469EB03060138E5E7A9
S315080012100446D8E7114695E78146C0E78A467CE743
S31508001220023B3C4448E708460AE702383E442FE7B3
S31508001230C245E7D33E46D1E72946BDE8F08700BF59
S31508001240704700BF80B500AF0221104804F0C2FA0B
S315080012500023012209210D4804F09EF90B4804F0E9
S3150800126065FA0221094804F09BFA0346002B0CBFD5
S3150800127001230023DBB2002B00D0F2E7034804F079
S3150800128065FA03461B119BB2184680BD0020014033
S3150800129080B582B000AF4FF000037B604FF48053F7
S315080012A03B60FFF7CFFF034607EE903AF8EEE77A82
S315080012B09FED0B7A67EE876A3B6807EE903AB8EEC1
S315080012C0677AC6EE877A77EEA77AC7ED017A7B68E2
S315080012D007EE903AB0EE670A0837BD4680BD00BFF4
S315080012E03333534080B582B000AF0346FB71FB79B8
S315080012F0092B02D900F0BCF982E1FB79092B00F22F
S315080013007F8101A252F823F03113000879130008EF
S31508001310C11300080914000851140008991400089C
S31508001320E11400082915000871150008B915000808
S315080013301021B54804F020FB4FF48051B24804F060
S315080013402BFB0421B14804F027FB0821AF4804F021
S3150800135023FB4FF48041AD4804F01EFB4FF40041D7
S31508001360AA4804F019FB0121A94804F015FB02213B
S31508001370A74804F011FB43E11021A34804F0FCFA46
S315080013804FF48051A04804F007FB04219F4804F05D
S31508001390F3FA08219D4804F0FFFA4FF480419B4870
S315080013A004F0EAFA4FF40041984804F0E5FA0121FE
S315080013B0974804F0E1FA0221954804F0EDFA1FE196
S315080013C01021914804F0E8FA4FF480518E4804F051
S315080013D0D3FA04218D4804F0DFFA08218B4804F07B
S315080013E0DBFA4FF48041894804F0D6FA4FF40041FD
S315080013F0864804F0C1FA0121854804F0CDFA022195
S31508001400834804F0C9FAFBE010217F4804F0C4FAC7
S315080014104FF480517C4804F0BFFA04217B4804F05D
S31508001420BBFA0821794804F0B7FA4FF480417748A7
S3150800143004F0A2FA4FF40041744804F09DFA012121
S31508001440734804F0A9FA0221714804F0A5FAD7E016
S3150800145010216D4804F0A0FA4FF480516A4804F050
S315080014609BFA0421694804F087FA0821674804F0C2
S3150800147093FA4FF48041654804F07EFA4FF4004130
S31508001480624804F089FA0121614804F075FA0221DC
S315080014905F4804F081FAB3E010215B4804F07CFA57
S315080014A04FF48051584804F077FA0421574804F05D
S315080014B073FA0821554804F06FFA4FF480415348EF
S315080014C004F05AFA4FF40041504804F065FA012135
S315080014D04F4804F061FA02214D4804F04DFA8FE0B6
S315080014E01021494804F058FA4FF48051464804F050
S315080014F053FA0421454804F04FFA0821434804F0FA
S315080015004BFA4FF48041414804F046FA4FF4004143
S315080015103E4804F041FA01213D4804F03DFA022113
S315080015203B4804F029FA6BE01021374804F024FA06
S315080015304FF48051344804F02FFA0421334804F05C
S315080015401BFA0821314804F027FA4FF480412F4846
S3150800155004F012FA4FF400412C4804F01DFA012158
S315080015602B4804F019FA0221294804F015FA47E035
S315080015701021254804F010FA4FF48051224804F04F
S315080015800BFA0421214804F007FA08211F4804F041
S3150800159003FA4FF480411D4804F0FEF94FF4004168
S315080015A01A4804F0F9F90121194804F0F5F902215D
S315080015B0174804F0F1F923E01021134804F0ECF978
S315080015C04FF48051104804F0E7F904210F4804F05D
S315080015D0E3F908210D4804F0DFF94FF480410B4880
S315080015E004F0CAF94FF40041084804F0D5F901217E
S315080015F0074804F0D1F90221054804F0CDF900BFE7
S315080016000837BD4680BD00BF0004024000080240FE
S31508001610001C024080B500AF1021124804F0ACF956
S315080016204FF480510F4804F0A7F904210E4804F03E
S31508001630A3F908210C4804F09FF94FF480410A48A1
S3150800164004F09AF94FF40041074804F095F901218E
S31508001650064804F091F90221044804F08DF900BF08
S3150800166080BD00BF0004024000080240001C024082
S3150800167080B500AF1021124804F08EF94FF480515E
S315080016800F4804F079F904210E4804F085F9082179
S315080016900C4804F081F94FF480410A4804F07CF9BB
S315080016A04FF40041074804F077F90121064804F091
S315080016B073F90221044804F05FF900BF80BD00BF3A
S315080016C00004024000080240001C024080B584B0B5
S315080016D000AF03460A46FB711346BB80FB79FB60E5
S315080016E0FB68002B0CDDFB68DBB21846FFF7FAFD3A
S315080016F0BB88184603F03EFEFB68013BFB60EFE73C
S315080017000020FFF7EFFD00BF1037BD4680BD00BFC4
S3150800171090B587B000AF034687ED020AFB73002336
S31508001720FB82D7ED027AF5EEC07AF1EE10FA0AD509
S31508001730D7ED027AF1EE677AFDEEE77AC7ED017A20
S31508001740BB889BB207E0D7ED027AFDEEE77AC7EDD4
S31508001750017ABB889BB2FB82D7ED027A9FED507A5D
S31508001760F4EEC77AF1EE10FA01DD6423FB824D4BE5
S3150800177060221A804B4B00229A814A4B01225A80DA
S31508001780494B1B881A46B7F9163003FB02F318466D
S31508001790FEF7BAFE40A3D3E90023FEF71BFF034674
S315080017A00C4618462146FFF7AFF902463D4B9A60AC
S315080017B0FB7B012B34D1D7ED027AF5EE407AF1EEB8
S315080017C010FA0BD1374B00229A603649374804F095
S315080017D0BFFB3449354804F035FC1DE0D7ED027AE5
S315080017E0F5EEC07AF1EE10FA0BDD2E492F4804F01B
S315080017F0AFFB2C4B00229A602A492C4804F022FCA5
S315080018000AE02849294804F01DFC264B00229A6064
S315080018102449264804F09CFBFB8ADAB2244B1A704A
S31508001820FB7B002B34D1D7ED027AF5EE407AF1EE48
S3150800183010FA0BD11B4B00229A601A491D4804F076
S3150800184087FB18491B4804F0FDFB1DE0D7ED027A1B
S31508001850F5EEC07AF1EE10FA0BDD1249154804F0E0
S3150800186077FB104B00229A600E49124804F0EAFBF7
S315080018700AE00C490F4804F0E5FB0A4B00229A607F
S3150800188008490C4804F064FBFB8ADAB20A4B1A7062
S3150800189000BF1C37BD4690BD7B14AE47E17A843F36
S315080018A00000C842A80A002030A20008000800402C
S315080018B0C0080020000C0040C108002080B500AF19
S315080018C004210D4804F068F800210C4804F020FBB8
S315080018D000210B4804F01CFB9FED0A0A0020FFF7C5
S315080018E017FF9FED080A0120FFF712FF064B00229B
S315080018F01A7000BF80BD00BF00000240000800400B
S31508001900000C004000000000C208002080B500AFAF
S315080019100421084804F030F80121074804F0F8FAD1
S315080019200121064804F0F4FA054B01221A7000BF9B
S3150800193080BD00BF0000024000080040000C0040C7
S31508001940C208002080B400AF034B1B781846BD467A
S315080019505DF8047B704700BFC208002080B584B0DC
S3150800196000AF0346FB8000237B81FB8843F080039E
S315080019703B81404B1B681021184604F00DF83E4B7E
S315080019801B680221184604F00DFA0346002B0CBF0B
S3150800199001230023DBB2002B00D0F0E7364B1B688F
S315080019A03A891146184604F0EDF9334B1B680121B4
S315080019B0184604F0F7F90346002B0CBF0123002351
S315080019C0DBB2002B00D0F0E72B4B1B68184604F05F
S315080019D0CBF903467B81284B1B680221184604F085
S315080019E0E1F90346002B0CBF01230023DBB2002BD1
S315080019F000D0F0E7204B1B680021184604F0C2F916
S31508001A001D4B1B680121184604F0CCF90346002B30
S31508001A100CBF01230023DBB2002B00D0F0E7164BE6
S31508001A201B68184604F0A0F903467B81124B1B6815
S31508001A300221184604F0B6F90346002B0CBF012311
S31508001A400023DBB2002B00D0F0E70A4B1B681021FD
S31508001A50184603F091FF0023FB60FB68042B03DCA8
S31508001A60FB680133FB60F8E77B8918461037BD46EB
S31508001A7080BD00BF040000200000002080B584B0AF
S31508001A8000AF03460A46FB801346BB803D4B1B68E6
S31508001A901021184603F080FF3B4B1B6802211846AD
S31508001AA004F080F90346002B0CBF01230023DBB2A8
S31508001AB0002B00D0F0E7344B1B68FA88114618460D
S31508001AC004F060F9304B1B680121184604F06AF9E6
S31508001AD00346002B0CBF01230023DBB2002B00D0EA
S31508001AE0F0E7294B1B68184604F03EF9264B1B689D
S31508001AF00221184604F056F90346002B0CBF0123B1
S31508001B000023DBB2002B00D0F0E71F4B1B68BA8816
S31508001B101146184604F036F91B4B1B680121184676
S31508001B2004F040F90346002B0CBF01230023DBB267
S31508001B30002B00D0F0E7144B1B68184604F014F984
S31508001B40114B1B680221184604F02CF90346002B9A
S31508001B500CBF01230023DBB2002B00D0F0E7094BB2
S31508001B601B681021184603F007FF0023FB60FB687B
S31508001B70092B03DCFB680133FB60F8E700BF10376D
S31508001B80BD4680BD040000200000002090B585B049
S31508001B9000AF03460A46FB711346BB7100237B81DF
S31508001BA00023FB810023BB81FB79002B02D0032B8A
S31508001BB018D02FE0BB79012B09D0022B0CD0002BB3
S31508001BC000D029E04323FB814423BB8109E0452358
S31508001BD0FB814623BB8104E04723FB814823BB8165
S31508001BE000BF19E0BB79012B09D0022B0CD0002BC2
S31508001BF000D011E03B23FB813C23BB8109E03D2358
S31508001C00FB813E23BB8104E03F23FB814023BB814C
S31508001C1000BF01E07B890FE0FB891846FFF79EFEAF
S31508001C2003461B029CB2BB891846FFF797FE03467C
S31508001C3023449BB27B817B891BB218461437BD4669
S31508001C4090BD00BF80B500AF00216B20FFF716FFDF
S31508001C50EE216C20FFF712FF10216A20FFF70EFF16
S31508001C6006216820FFF70AFF00211A20FFF706FF62
S31508001C7018211B20FFF702FF18211C20FFF7FEFE84
S31508001C8000BF80BD0000000090B583B000AF4FF0E4
S31508001C9000037B600023FB70FB780133132B1ADCEF
S31508001CA0FB78FA7801322E4992000A4412682C49C8
S31508001CB09B000B441A60FB78294A9B001344D3ED1A
S31508001CC0007A97ED017A77EE277AC7ED017AFB78E5
S31508001CD00133FB70E0E701210320FFF757FF0346B6
S31508001CE007EE903AF8EEE77A1D4BC3ED137A1C4BD4
S31508001CF0D3ED137A97ED017A77EE277AC7ED017A55
S31508001D0097ED017AF3EE046AC7EE267A154BC3ED12
S31508001D10007A144B93ED007A134BD3ED007A77EEE5
S31508001D20677A9FED127AC7EE876A16EE900AFEF773
S31508001D30FDFB09A3D3E90023FEF776FD03460C460F
S31508001D4018462146FEF700FF0246094B1A6000BFF7
S31508001D500C37BD4690BD00BF9A9999999999234029
S31508001D60BC0A0020C4080020C8080020000000455E
S31508001D70CC08002080B582B000AF4FF000037B602E
S31508001D8000233B60F7EE006A9FED167AC6EE877A67
S31508001D90FDEEE77A17EE902A3B689A4210DD00F0CE
S31508001DA023F8B0EE407AD7ED017A77EE877AC7ED59
S31508001DB0017A012003F0DEFA3B6801333B60E1E774
S31508001DC03B68013307EE903AF8EEE77A97ED017A29
S31508001DD0C7EE276AF0EE667AB0EE670A0837BD46A0
S31508001DE080BD00BF6F12833A80B400AF044B1B68F6
S31508001DF007EE903AB0EE670ABD465DF8047B704779
S31508001E00C408002080B500AFFFF7B4FFF0EE407AB3
S31508001E10024BC3ED007A00BF80BD00BFC808002092
S31508001E2080B400AF044B1B6807EE903AB0EE670A21
S31508001E30BD465DF8047B7047CC08002080B500AF2E
S31508001E4002210020FFF7A2FE03469BB25B429BB22B
S31508001E509AB2044B1A8000F083F800F065F800BFC8
S31508001E6080BD00BFD008002080B400AF034B1B889C
S31508001E701BB21846BD465DF8047B7047D0080020A3
S31508001E8080B582B000AF00237B6000233B60F0EE94
S31508001E90006A9FED137AC6EE877AFDEEE77A17EEAB
S31508001EA0902A3B689A420DDDFFF7DEFF03461A4685
S31508001EB07B6813447B60012003F05CFA3B680133BE
S31508001EC03B60E4E73B6801337A6892FBF3F307EE7D
S31508001ED0903AF8EEE77AB0EE670A0837BD4680BD55
S31508001EE06F12833A80B500AFFFF7CAFFF0EE407A6B
S31508001EF0024BC3ED007A00BF80BD00BFDC0800209E
S31508001F0080B400AF064B4FF000021A60054B4FF045
S31508001F1000021A6000BFBD465DF8047B704700BF2B
S31508001F20D4080020D808002080B400AF094BD3EDB0
S31508001F30007A9FED097A27EE877A084BD3ED007A67
S31508001F4077EE277A054BC3ED007A00BFBD465DF8EC
S31508001F50047B7047E00800206F12833AD8080020F7
S31508001F6098B500AF164B1B881BB207EE903AB8EE31
S31508001F70E77A144BD3ED007A77EE677A17EE900A74
S31508001F80FEF7D4FA0CA3D3E90023FEF74DFC03466B
S31508001F900C4618462146FEF7D7FD034600EE103AD2
S31508001FA003F096F9F0EE407A074BC3ED007A00BFCE
S31508001FB098BD00BFAFF30080666666666666304009
S31508001FC0D0080020DC080020E008002080B400AF1C
S31508001FD0044B1B6807EE903AB0EE670ABD465DF8FB
S31508001FE0047B7047E008002090B585B000AF4FF03D
S31508001FF00003FB604FF00003BB600023FB71FB7915
S315080020000133132B31DCFB79FA7901326C499200E2
S315080020100A4412686A499B000B441A60FB79684AAD
S315080020209B001344D3ED007A97ED037A77EE277A6F
S31508002030C7ED037AFB79FA790132624992000A44BC
S31508002040126860499B000B441A60FB795D4A9B0045
S315080020501344D3ED007A97ED027A77EE277AC7ED27
S31508002060027AFB790133FB71C9E7574B5B6A07EEC6
S31508002070903AF8EE677A9FED557A77EE677A17EE1B
S31508002080900AFEF753FA48A3D3E90023FEF7A2FA0B
S3150800209003460C461846214645A3D3E90023FEF716
S315080020A0C3FB03460C461846214643A3D3E900233F
S315080020B0FEF790FA03460C4618462146FEF744FDFD
S315080020C002463F4BDA644FF080435B6A07EE903A6C
S315080020D0F8EE677A9FED3D7A77EEC77A17EE900AA3
S315080020E0FEF724FA30A3D3E90023FEF773FA034672
S315080020F00C46184621462EA3D3E90023FEF794FB87
S3150800210003460C46184621462BA3D3E90023FEF7BF
S3150800211061FA03460C4618462146FEF715FD0246A7
S31508002120284BDA644FF0804347F6FA725A62264B18
S3150800213047F6FA725A62224BD3ED137A97ED037A71
S3150800214077EE277AC7ED037A1D4BD3ED137A97ED11
S31508002150027A77EE277AC7ED027A97ED037AF3EEDD
S31508002160046AC7EE267A1A4BC3ED007A97ED027A0F
S31508002170F3EE046AC7EE267A164BC3ED007A144BC3
S3150800218093ED007A134BD3ED007A37EE277AF0EE0B
S31508002190006AC7EE267A104BC3ED007A00BF1437E3
S315080021A0BD4690BDAFF300805D8940F50F22593FCB
S315080021B0FCA9F1D24D62503F32E6AE25E4837E3F5C
S315080021C00C0B00205C0B00200004004000F4FF46C6
S315080021D0EC080020E8080020F008002080B500AFD1
S315080021E0FFF71EFEB0EE407AF3EE047A67EE277A22
S315080021F09FED077A67EE877AF0EE006A87EEA67A91
S31508002200044BD3ED007A77EE277AB0EE670A80BDE5
S315080022106F12833AF008002080B584B000AF0346F9
S315080022200A46FB711346BB71FB79042B23D801A21E
S3150800223052F823F0492200084922000853220008D0
S315080022405F2200086B220008144BFB6004237B8185
S3150800225011E0134BFB604FF400637B810BE0104BDE
S31508002260FB604FF480637B8105E00D4BFB604FF408
S3150800227080537B8100BFBB79002B05D07B8919462B
S31508002280F86803F079FB04E07B891946F86803F0DF
S3150800229083FB00BF1037BD4680BD00BF000C02405F
S315080022A00008024080B584B000AF0346FB71FB7995
S315080022B0042B26D801A252F823F000BFD122000829
S315080022C0DB220008E5220008EF220008F9220008B0
S315080022D01E4BBB600F23FB7313E01C4BBB600B2329
S315080022E0FB730EE0194BBB600823FB7309E0174B21
S315080022F0BB600A23FB7304E0144BBB600E23FB731D
S3150800230000BF0221B86803F065FAF97B00230122B1
S31508002310B86803F041F9B86803F008FA0221B8680A
S3150800232003F03EFA0346002B0CBF01230023DBB261
S31508002330002B00D0F2E7B86803F008FA03461B1131
S315080023409BB218461037BD4680BD00BF002001402D
S3150800235080B582B000AF0346FB71FB7901211846B0
S31508002360FFF75AFF00BF0837BD4680BD80B582B06B
S3150800237000AF0346FB71FB7900211846FFF74CFFB7
S3150800238000BF0837BD4680BD80B500AF0020FFF707
S31508002390EDFF0120FFF7EAFF0220FFF7E7FF032022
S315080023A0FFF7E4FF00BF80BDB0B586B000AF0346B7
S315080023B00A46FB711346BB800023FB824FF00003DD
S315080023C03B610023FB73FB7B0133092B00F38580FC
S315080023D0FA79F87BF979FB7B5C1C824D0B469B00EE
S315080023E00B445B00234435F813407E4913469B0093
S315080023F013445B000344224621F81320FA79F97B3B
S31508002400784813469B0013445B000B4430F813309E
S315080024109AB2FB8A13449BB2FB82FB7B0133092BDE
S3150800242057DCFA79F87BF979FB7B5C1C6E4D0B4619
S315080024309B000B445B00234435F813406A49134656
S315080024409B0013445B000344224621F81320FA79C3
S31508002450F87BF979FB7B5C1C644D0B469B000B44AF
S315080024605B0023449B002B441968604C13469B0071
S3150800247013445B0003449B0023441960FA79F87BF4
S31508002480F979FB7B5C1C5A4D0B469B000B445B00A1
S315080024902B4423441C78564913469B0013445B007F
S315080024A00B44034422461A70FA79F97B4E481346C0
S315080024B09B0013445B000B4430F813301BB207EE45
S315080024C0903AF8EEE77A97ED047A77EE277AC7ED31
S315080024D0047AFB7B0133FB7375E7FA7941491346A6
S315080024E09B0013449B000B441233BA881A80FA8A5D
S315080024F0BB8813449BB2FB82B7F916303D4A82FB70
S3150800250003129210DB17D31ABB81FA7936491346A0
S315080025109B0013449B000B441233BA891A80B7F9FF
S315080025200C3007EE903AF8EEE77A97ED047A77EEF4
S31508002530277AC7ED047AFA79D7ED047AF2EE046AB7
S3150800254087EEA67AB7F90C3007EE903AF8EEE77AF6
S3150800255077EE677A254913469B001344DB000B4444
S315080025602433C3ED007AFC79FB79184600F008FAA3
S31508002570034619461E4A23469B0023445B00134420
S3150800258009330A461A70FB79042B26D801A252F899
S3150800259023F000BFA9250008B3250008BD250008BB
S315080025A0C7250008D1250008B7F90C30124A136070
S315080025B013E0B7F90C30114A13600EE0B7F90C3086
S315080025C00F4A136009E0B7F90C300E4A136004E0AD
S315080025D0B7F90C300C4A136000BF00BF1837BD4668
S315080025E0B0BD00BFAC0B0020F4080020580900203D
S315080025F0200A002067666666540A0020580A0020EA
S315080026005C0A0020600A0020640A002090B587B0A2
S3150800261000AF0346FB71FFF7B7FE0020FFF742FE47
S3150800262003469BB21BB21946002000F011F901209F
S31508002630FFF738FE03469BB21BB21946012000F08D
S3150800264007F90220FFF72EFE03469BB21BB2194676
S31508002650022000F0FDF80320FFF724FE03469BB294
S315080026601BB21946032000F0F3F80420FFF71AFE00
S3150800267003469BB21BB21946042000F0E9F8FB7921
S31508002680002B0FD00020FFF763FE0120FFF760FE46
S3150800269000237B617B69B3F5FA6F03DA7B69013343
S315080026A07B61F7E70020FFF7FDFD03461C46002087
S315080026B000F092F803469BB2E31A9BB29BB21BB298
S315080026C019460020FFF770FE0120FFF7EBFD0346D1
S315080026D01C46012000F080F803469BB2E31A9BB221
S315080026E09BB21BB219460120FFF75EFE0020FFF7DA
S315080026F03DFEFB79002B0CD00220FFF729FE0023B4
S315080027003B613B69B3F57A7F03DA3B6901333B6189
S31508002710F7E70220FFF7C6FD03461C46022000F035
S315080027205BF803469BB2E31A9BB29BB21BB21946EF
S315080027300220FFF739FE0220FFF718FEFB79002B6F
S315080027400CD00320FFF704FE0023FB60FB68B3F5FB
S315080027507A7F03DAFB680133FB60F7E70320FFF7AC
S31508002760A1FD03461C46032000F036F803469BB23B
S31508002770E31A9BB29BB21BB219460320FFF714FE5D
S315080027800320FFF7F3FDFB79002B0CD00420FFF79D
S31508002790DFFD0023BB60BB68B3F57A7F03DABB684D
S315080027A00133BB60F7E70420FFF77CFD03461C46B0
S315080027B0042000F011F803469BB2E31A9BB29BB2C1
S315080027C01BB219460420FFF7EFFD0420FFF7CEFDE4
S315080027D000BF1C37BD4690BD80B483B000AF03462A
S315080027E0FB71FB79042B21D801A252F823F000BF14
S315080027F0052800080D280008152800081D280008C7
S31508002800252800080D4B1B689BB210E00C4B1B6873
S315080028109BB20CE00B4B1B689BB208E00A4B1B688B
S315080028209BB204E0094B1B689BB200E000231BB275
S3150800283018460C37BD465DF8047B7047680A0020C9
S315080028406C0A0020700A0020740A0020780A00200A
S3150800285080B483B000AF03460A46FB711346BB80BB
S31508002860FB79042B25D801A252F823F08128000809
S315080028708B280008952800089F280008A928000822
S31508002880B7F904300E4A136013E0B7F904300D4A5D
S3150800289013600EE0B7F904300B4A136009E0B7F984
S315080028A004300A4A136004E0B7F90430084A136092
S315080028B000BF00BF0C37BD465DF8047B704700BFFC
S315080028C0680A00206C0A0020700A0020740A00209A
S315080028D0780A002080B483B000AF0346FB71FB7909
S315080028E0042B21D801A252F823F000BF01290008C1
S315080028F009290008112900081929000821290008B2
S315080029000D4B1B689BB210E00C4B1B689BB20CE08E
S315080029100B4B1B689BB208E00A4B1B689BB204E092
S31508002920094B1B689BB200E000231BB218460C3704
S31508002930BD465DF8047B7047540A0020580A0020FB
S315080029405C0A0020600A0020640A002090B583B063
S3150800295000AF0346FB71FB791846FFF7BBFF03463A
S315080029601C46FB79184601F04DFE03469C42ACBF57
S3150800297001230023DBB218460C37BD4690BD00BFC5
S3150800298080B485B000AF0346FB710023FB730023B8
S31508002990BB73BB7B092B1FD8FA79B97B1248134640
S315080029A09B0013445B000B449B000344D3ED007A61
S315080029B0F5EEC07AF1EE10FA05D5FB7BDBB2013BEA
S315080029C0DBB2FB7304E0FB7BDBB20133DBB2FB73E8
S315080029D0BB7B0133BB73DCE7FB7B18461437BD466C
S315080029E05DF8047B704700BF5809002090B583B096
S315080029F000AF0346FB71FB791846FFF7C1FF034694
S31508002A005B421846FDF780FD01231C464FF0000285
S31508002A10084BFEF751F80346002B01D100231C464C
S31508002A20E3B2002B01D0002300E0012318460C373F
S31508002A30BD4690BD0000224080B483B000AF034677
S31508002A40FB71FB79012B1DD0022B35D0002B4DD104
S31508002A502B4BD3ED007AB3EE0E7A27EE877A284B06
S31508002A60D3ED017ADFED276A67EEA67A37EE277A85
S31508002A70234BD3ED027ADFED246A67EEA67A77EE6A
S31508002A80277A35E0214BD3ED007A9FED217A27EEA0
S31508002A90877A1E4BD3ED017ADFED1E6A67EEA67ABA
S31508002AA037EE277A194BD3ED027ADFED176A67EE10
S31508002AB0A67A77EE277A1BE0174BD3ED007A9FEDBF
S31508002AC0177A27EE877A144BD3ED017ADFED0E6A73
S31508002AD067EEA67A37EE277A0F4BD3ED027ADFED4B
S31508002AE00A6A67EEA67A77EE277A01E0DFED067ABC
S31508002AF0B0EE670A0C37BD465DF8047B704700BF29
S31508002B00800A00200000164300000000980A0020F2
S31508002B100000FA430080D4448C0A0020CDCCCC3D7A
S31508002B20B0B52DED028B86B000AF4FF000037B6188
S31508002B304FF000033B61B04B1B68FB6001F02CFEB5
S31508002B40B0EE408AFFF74AFBF0EE407A78EE677AF5
S31508002B50A94BC3ED007AA84B5B681846FDF7E6FC5F
S31508002B6004460D46A44B1B681846FDF7DFFCA0A3D8
S31508002B70D3E90023FDF72EFD02460B4620462946DB
S31508002B80FDF776FB03460C4618462146FDF7DCFFA3
S31508002B900246994B5A60994B1B68FB604FF000033D
S31508002BA03B604FF00003BB604FF000037B600020E2
S31508002BB0FFF7CCFE0346002B06D000F0B7FA034613
S31508002BC0002B01D0012300E00023002B47D0002072
S31508002BD001F0EEFC07EE900AF8EE677AC7ED027A86
S31508002BE00020FFF777FE034607EE903AF8EEE77AFD
S31508002BF0C7ED017A97ED017AD7ED027A77EE677A13
S31508002C00C7ED007AD7ED007AF5EEC07AF1EE10FA44
S31508002C100CD5D7ED007ABBEE0E7AF4EEC77AF1EE54
S31508002C2010FA4CBF01230023DBB20BE0D7ED007A84
S31508002C30B3EE0E7AF4EEC77AF1EE10FACCBF0123A2
S31508002C400023DBB2002B01D03B687B610020FFF735
S31508002C50CDFE0346002B02D04FF000037B61012016
S31508002C60FFF774FE0346002B06D000F05FFA034612
S31508002C70002B01D0012300E00023002B47D00120C0
S31508002C8001F096FC07EE900AF8EE677AC7ED027A2D
S31508002C900120FFF71FFE034607EE903AF8EEE77AA3
S31508002CA0C7ED017A97ED017AD7ED027A77EE677A62
S31508002CB0C7ED007AD7ED007AF5EEC07AF1EE10FA94
S31508002CC00CD5D7ED007ABBEE0E7AF4EEC77AF1EEA4
S31508002CD010FA4CBF01230023DBB20BE0D7ED007AD4
S31508002CE0B3EE0E7AF4EEC77AF1EE10FACCBF0123F2
S31508002CF00023DBB2002B01D03B683B610120FFF7C4
S31508002D0075FE0346002B02D04FF000037B6101F0ED
S31508002D1043FDB0EE407AF4EE007AB4EEE77AF1EECF
S31508002D2010FA4CBF01230023DBB2002B05D04FF06D
S31508002D3000033B614FF000037B6197ED057AD7ED01
S31508002D40047A77EE677A2D4BC3ED007A2C4B1B6815
S31508002D50FB6001F03FFDB0EE408AFFF737F9F0EE71
S31508002D60407A78EE677A264BC3ED007A244B5B6887
S31508002D701846FDF7DBFB04460D46214B1B68184633
S31508002D80FDF7D4FB1AA3D3E90023FDF723FC02467B
S31508002D900B4620462946FDF76BFA03460C461846AD
S31508002DA02146FDF7D1FE0246154B5A60134BD3ED6B
S31508002DB0007AF5EE407AF1EE10FA06D000F0B6F990
S31508002DC00346002B01D0012300E00023002B04D08A
S31508002DD00B4B4FF000025A6003E0084B4FF000021D
S31508002DE05A6000BF1837BD46BDEC028BB0BD00BFA8
S31508002DF0FCA9F1D24D62503F980A00208C0A0020A7
S31508002E00800A002080B500AF0120FFF715FEF0EE1E
S31508002E10407AB0EE670A80BD80B52DED028B00AF13
S31508002E200D4B1B78002B0CD00020FFF705FEB0EEEB
S31508002E30408A0220FFF700FEF0EE407A78EE677AC5
S31508002E4004E00020FFF7F8FDF0EE407AB0EE670ADE
S31508002E50BD46BDEC028B80BDA50A002080B400AF3C
S31508002E60034B01221A7000BFBD465DF8047B70470C
S31508002E70A50A002080B400AF034B00221A7000BFD9
S31508002E80BD465DF8047B7047A50A002080B400AFF4
S31508002E90034B01221A7000BFBD465DF8047B7047DC
S31508002EA0A40A002080B400AF034B00221A7000BFAA
S31508002EB0BD465DF8047B7047A40A002080B52DED59
S31508002EC0028B82B000AF0346FB7197F90730002BDF
S31508002ED00AD1FFF797FFB0EE408AFFF79DFFF0EEA5
S31508002EE0407A78EE677A09E0FFF78CFFB0EE408A01
S31508002EF0FFF792FFF0EE407A78EE277AB0EE670A8F
S31508002F000837BD46BDEC028B80BD00BF000000003F
S31508002F10B0B52DED028B84B000AF0346FB7197F96F
S31508002F200730002B18D101F037FCB0EE408A01F0CB
S31508002F3051FCB0EE407ADFED487A67EE277AF0EE7C
S31508002F40006A87EEA67ADFED456AC7EE267A78EE3E
S31508002F50677AC7ED037A17E001F01EFCB0EE408AE7
S31508002F6001F038FCB0EE407ADFED3B7A67EE277A5F
S31508002F70F0EE006A87EEA67ADFED386AC7EE267AA3
S31508002F8078EE277AC7ED037AF868FDF7CFFA2EA30D
S31508002F90D3E90023FDF748FC03460C4618462146AC
S31508002FA04FF000022E4BFDF715FB03460C4618465C
S31508002FB021464FF000022B4BFDF736FC03460C4624
S31508002FC0184621464FF00002274BFDF703FB034640
S31508002FD00C46184621464FF00002244BFDF724FC08
S31508002FE003460C461846214619A3D3E90023FDF7E4
S31508002FF01BFC03460C4625461C46FEF749F910EE0F
S31508003000103A1846FDF792FA02460B46204629461C
S31508003010FDF70AFC03460C46184621464FF0000207
S31508003020134BFDF7D7FA03460C4618462146FDF71B
S315080030308BFD034607EE903AB0EE670A1037BD4699
S31508003040BDEC028BB0BD00BFF5E9D0A8828A083F67
S315080030503333333333D36B400000304200007A44B5
S315080030600080444000002240000016400000124044
S315080030700000594080B582B000AF00F04BF8034617
S31508003080002B3FD0214B1B78002B03D1204B1B78FC
S31508003090002B37D04FF000037B604FF000033B60F6
S315080030A01A4B1B78002B09D00020FFF731FF87ED5C
S315080030B0010A0220FFF72CFF87ED000A144B1B7844
S315080030C0002B15D00020FFF7F9FEB0EE407AD7EDB9
S315080030D0017A77EE877AC7ED017A0220FFF7EEFECE
S315080030E0B0EE407AD7ED007A77EE877AC7ED007AA8
S315080030F097ED010A0120FEF70BFB97ED000A002069
S31508003100FEF706FB00BF0837BD4680BDA60A0020AD
S315080031100800002080B400AF034B1B781846BD4654
S315080031205DF8047B704700BFA40A002080B400AF96
S31508003130034B1B781846BD465DF8047B704700BFF5
S31508003140A50A002080B500AF002000F009F802208B
S3150800315000F006F8012000F003F800BF80BD00BFAC
S3150800316080B483B000AF0346FB71FB79032B33D8D9
S3150800317001A252F823F000BF89310008BD310008CA
S31508003180A3310008D7310008164B4FF000021A6029
S31508003190144B4FF000025A60124B4FF000029A602F
S315080031A01AE0114B4FF000021A600F4B4FF0000265
S315080031B05A600D4B4FF000029A600DE00B4B4FF032
S315080031C000021A60094B4FF000025A60074B4FF095
S315080031D000029A6000E000BF00BF0C37BD465DF8EC
S315080031E0047B7047800A00208C0A0020980A002079
S315080031F080B483B000AF03463960FB7197F9073096
S31508003200002B0BDA0D49FB7903F00F03043B3A68F0
S31508003210D2B21201D2B20B441A7609E0084997F9DC
S3150800322007303A68D2B21201D2B20B4483F80023AF
S3150800323000BF0C37BD465DF8047B704700ED00E023
S3150800324000E100E080B582B000AF78607B68013BA2
S31508003250B3F1807F01D301230FE00A4A7B68013B63
S3150800326053600F214FF0FF30FFF7C2FF054B0022D6
S315080032709A60044B07221A60002318460837BD4691
S3150800328080BD00BF10E000E080B500AF00F00EF88A
S3150800329000F024F800F0F8F800F05EF900F0A2F962
S315080032A000F008FA00F0D4FA00BF80BD80B584B0FB
S315080032B000AF01F085FF3B46184602F0C7FB7B6866
S315080032C0054AA2FB03239B091846FFF7BBFF00BF6D
S315080032D01037BD4680BD00BFD34D621080B582B0A1
S315080032E000AF634A624B1B6823F0847323F4803370
S315080032F013600121012002F053FC0121022002F093
S315080033004FFC0121042002F04BFC0121082002F0A9
S3150800331047FC0121802002F043FC3B46184602F098
S31508003320F7FA49F210033B6002237B7101233B71D4
S315080033300023BB710023FB713B4619464D4802F03A
S3150800334059FA4FF480433B603B4619464A4802F017
S3150800335051FA4FF480433B6000233B710123FB7114
S315080033603B461946434802F045FA3B46184602F0E2
S31508003370CFFA4DF60C433B6002237B7101233B7168
S315080033800023BB710023FB713B4619463B4802F0FC
S3150800339031FA0421394802F0EFFA0821374802F0D9
S315080033A0EBFA4FF48061354802F0E6FA4FF4006113
S315080033B0324802F0E1FA4FF48051304802F0DCFA64
S315080033C04FF480412D4802F0D7FA4FF400412B48BC
S315080033D002F0D2FA3B46184602F09AFA03233B60FB
S315080033E002237B7101233B710023BB710023FB7110
S315080033F03B461946224802F0FDF90121204802F011
S31508003400BBFA02211E4802F0B7FA3B46184602F0FC
S315080034107FFA4FF4E0533B6002237B7101233B7133
S315080034200023BB710023FB713B461946134802F083
S31508003430E1F904233B603B461946124802F0DAF9E3
S315080034404FF480610D4802F0A7FA4FF400610B486B
S3150800345002F0A2FA4FF48051084802F09DFA0421BE
S31508003460084802F099FA00BF0837BD4680BD00BF7C
S3150800347000380240000402400000024000080240F2
S31508003480001C0240000C024080B58CB000AF012140
S31508003490022002F085FB0121042002F081FB07F1DE
S315080034A02803184602F034FA032387F82C30002341
S315080034B087F82F30022387F82D300323BB6207F1E4
S315080034C028031946214802F095F93323BB6207F110
S315080034D0280319461E4802F08DF900211D4802F0FE
S315080034E03FF801214FF4807002F09AFB01F0ACFF1F
S315080034F000233B604FF480337B600023BB604FF4AE
S315080035007063FB603B46184602F002F800233B61F5
S3150800351000233B7500237B750023BB6100233B62B8
S31508003520092387F8243007F110031946094801F0E2
S3150800353099FF0121074802F013F80021054802F017
S3150800354013F900BF3037BD4680BD00BF00040240F6
S31508003550000802400020014080B586B000AF012176
S31508003560102002F05DFB0121012002F019FB072261
S3150800357009211A4802F020FA07220A21174802F000
S315080035801BFA4FF4C0633B6102237B7502233B752C
S3150800359007F110031946114802F02CF94FF4E133EC
S315080035A03B600023BB800023FB8000233B81002374
S315080035B0BB810C237B813B461946094802F076FEFF
S315080035C0012240F22551064802F05EFF0121044817
S315080035D002F028FF00BF1837BD4680BD0000024034
S315080035E00010014080B588B000AF01214FF480502B
S315080035F002F016FB0121012002F0D2FA07F11803A6
S31508003600184602F085F91023BB6101233B77032393
S315080036107B770023BB770023FB7707F1180319464E
S31508003620224802F0E7F802233B77E023BB6107F163
S31508003630180319461D4802F0DDF810211B4802F050
S315080036409BF905220521194802F0B6F9052206213B
S31508003650164802F0B1F905220721144802F0ACF920
S315080036600023BB804FF48273FB8000233B81002339
S315080036707B810023BB814FF44073FB8110233B827F
S3150800368000237B820723BB823B1D1946084802F0AC
S3150800369007FB0121064802F047FB1021034802F008
S315080036A06BF900BF2037BD4680BD00BF0000024051
S315080036B00030014080B58AB000AF0121012002F038
S315080036C06FFA0121022002F06BFA04233B620323FE
S315080036D087F82530012387F82430002387F8263019
S315080036E0012387F8273007F120031946534802F0CB
S315080036F081F80421514802F04FF90121042002F013
S315080037006FFA0121082002F06BFA03233B620223B9
S3150800371087F82430022387F82530002387F82630D7
S31508003720002387F8273007F120031946434802F09B
S3150800373061F8C0233B6207F120031946404802F0AE
S3150800374059F840F2EB43BB610023BB820023BB83DD
S315080037500023FB820023BB7707F114031946394877
S3150800376002F03CFB07F114031946374802F036FB12
S3150800377060233B800023BB8101237B800023BB6041
S315080037803B4619462F4802F0E3FB08212D4802F074
S31508003790E1FC3B4619462B4802F054FC082129480F
S315080037A002F0F4FC3B461946274802F0D1FB0821F3
S315080037B0254802F0CFFC3B461946234802F042FC56
S315080037C00821214802F0E2FC01214FF0804002F076
S315080037D07FFB01214FF0804002F0F6FC01211B48D7
S315080037E002F076FB0121194802F0EEFC02220621BE
S315080037F0134802F0E1F802220721114802F0DCF82A
S31508003800022200210D4802F0D7F8022201210B48B6
S3150800381002F0D2F801210B4802F05AFB01210A48AE
S3150800382002F056FB0121074802F072FB0121064807
S3150800383002F06EFB00BF2837BD4680BD000002407F
S315080038400004024000080040000C0040000400404C
S3150800385080B586B000AF0121022002F0A1F901214E
S31508003860042002F09DF90121012002F0B9F9012195
S31508003870022002F0B5F902220621394802F09CF826
S3150800388002220721364802F097F801220F2135480F
S3150800389002F092F801220321334802F08DF807F16D
S315080038A01003184602F034F8C0233B6102233B7527
S315080038B002237B750023BB750023FB7507F11003F4
S315080038C01946274801F096FF4FF400433B6107F17C
S315080038D010031946234801F08DFF08233B6107F1C1
S315080038E010031946204801F085FF4FF6FE73BB60AA
S315080038F00023BB800023BB810023FB800023BB730E
S315080039003B1D19464FF0804002F068FA3B1D1946E8
S31508003910164802F063FA4FF6FF714FF0804002F046
S31508003920C9FA0023002203214FF0804002F072FCFE
S3150800393001214FF0804002F0EBFA4FF6FF710B4879
S3150800394002F0B8FA002300220321084802F062FCBC
S315080039500121064802F0DCFA00BF1837BD4680BDD3
S315080039600008024000000240000402400004004033
S31508003970F0B587B002AF0023FB81B7F90E30632B91
S315080039801CDC0023FB80FB889BB21BB242F20F7241
S315080039909342D4BF01230023DBB2002B08D0FB8857
S315080039A09BB29BB29BB201339BB29BB2FB80EAE708
S315080039B0FB899BB201339BB2FB81DEE7FFF764FC10
S315080039C000F094FEFDF764FC10EE103A1846FCF77A
S315080039D0ADFD03460C461A462346914801F070FB96
S315080039E0FDF718FEFDF754FCB0EE407AF1EE007ACA
S315080039F0B4EEE77AF1EE10FA4CBF01230023DBB2EE
S31508003A00002B1AD0FDF734FE4FF4FA7001F0B2FC21
S31508003A10FDF700FE4FF4FA7001F0ACFC4FF480415C
S31508003A20804801F08FFF0346002B0CBF01230023BB
S31508003A30DBB2002B00D1E5E700BFFEF703F97A4BAE
S31508003A401B681846FCF772FD03460C461A462346C1
S31508003A50764801F035FB744B5B681846FCF766FD43
S31508003A6003460C461A462346714801F029FB0020F6
S31508003A70FEF730FF034619466E4801F021FB012088
S31508003A80FEF728FF034619466B4801F019FB02208A
S31508003A90FEF720FF03461946684801F011FB03208C
S31508003AA0FEF718FF03461946654801F009FB04208E
S31508003AB0FEF710FF03461946624801F001FB62480B
S31508003AC001F0FEFA642001F055FC0420FEF702FF1F
S31508003AD003461846FCF718FD04460D46042000F078
S31508003AE091FD03461846FCF70FFD4FF00002574BB1
S31508003AF0FCF770FD02460B4611461A4601231E4680
S31508003B0013460A4620462946FCF7F4FF0346002BCF
S31508003B1001D100231E46F3B2002B00D18FE700BF68
S31508003B204FF47A710320FDF7D1FDFDF773FD00F020
S31508003B301BFC474800F0D8FC454800F097FC0021DC
S31508003B40002000F07BFE012000F09AFE012000F024
S31508003B5097FE4FF4FA710320FDF7B8FD0121012005
S31508003B6000F090FF3B4B3C4A1A609FED3C1A002040
S31508003B70F5EE000A9FED3A0A01F092F90020DFED12
S31508003B80390A9FED390A00F0D5FF4FF47A7001F033
S31508003B90F1FB0520FDF7A6FB4FF47A7001F0EAFB6E
S31508003BA0FDF78CFEFDF736FD4FF480411D4801F008
S31508003BB0C9FE0346012B0CBF01230023DBB2002BF1
S31508003BC000D0F1E70023BB60BB68B3F5FA6F21DAD2
S31508003BD0204ABB689B0013441B681846FCF7A6FCE2
S31508003BE005460E461B4ABB6803F51C5310339B005B
S31508003BF013441B681846FCF799FC03460C46CDE9A6
S31508003C0000342A463346194801F05AFABB6801338C
S31508003C10BB60D9E7012318461437BD46F0BD00BF7F
S31508003C2038A20008000402400C00002044A2000844
S31508003C3050A200085CA2000868A2000874A2000846
S31508003C4080A200088CA2000898A200080000F83F8D
S31508003C50BC4E0120140C0020000080BF295CCF3E1A
S31508003C606666E63E00000000EC51383D9CA200085E
S31508003C7098B500AF4FF480413C4801F07DFE3C4BBF
S31508003C801B6801333A4A136000F03CFD0120FEF739
S31508003C90BDFCFEF7D3F8FDF7F7FFFEF7A5F900F030
S31508003CA0BFFEFEF73DFFFFF7E5F9FDF74BFE0346BE
S31508003CB0002B54D02F4B1B889BB2002B0CBF012323
S31508003CC00023DBB2002B11D02B4BD3ED007ABFEECD
S31508003CD0007AF4EE477AF1EE10FA40D1254B1B88AC
S31508003CE09BB201339AB2234B1A8038E0214B1B88CA
S31508003CF09BB242F20F72934294BF01230023DBB2B8
S31508003D00002B2CD01B4B1B889BB21C4600F078FD61
S31508003D10F0EE407A184AA3001344C3ED007A154B17
S31508003D201B889BB21C460020FEF7D4FD034607EE0F
S31508003D30903AF8EEE77A104A04F51C5310339B00C4
S31508003D401344C3ED007A0B4B1B889BB201339AB21E
S31508003D50084B1A804FF48041044801F01DFE4FF4C9
S31508003D608041024801F018FE00BF98BD00000240DD
S31508003D70100C002094440120140C002080B485B057
S31508003D8000AF78600B46FB701346BB70BB78002B00
S31508003D9002D00123FB7301E00023FB73FB781F2B82
S31508003DA000F2848101A252F823F000BF2D3E0008DC
S31508003DB0413E0008553E0008693E00087D3E000861
S31508003DC0913E0008A53E0008B93E0008CD3E000811
S31508003DD0E13E0008F53E0008093F00081D3F0008BF
S31508003DE0313F0008453F0008593F00086D3F00086D
S31508003DF0813F0008953F0008A93F0008BD3F00081D
S31508003E00D13F0008E53F0008F93F00080D400008CB
S31508003E102140000835400008494000085D40000878
S31508003E20714000088540000899400008FB7B03F0B4
S31508003E300103D9B27A68137861F30003137035E188
S31508003E40FB7B03F00103D9B27A68137861F3410367
S31508003E5013702BE1FB7B03F00103D9B27A68137860
S31508003E6061F38203137021E1FB7B03F00103D9B2EE
S31508003E707A68137861F3C303137017E1FB7B03F0C9
S31508003E800103D9B27A68137861F3041313700DE14C
S31508003E90FB7B03F00103D9B27A68137861F3451303
S31508003EA0137003E1FB7B03F00103D9B27A68137838
S31508003EB061F386131370F9E0FB7B03F00103D9B2B3
S31508003EC07A68137861F3C7131370EFE0FB7B03F08E
S31508003ED00103D9B27A68537861F300035370E5E0B9
S31508003EE0FB7B03F00103D9B27A68537861F3410387
S31508003EF05370DBE0FB7B03F00103D9B27A68537891
S31508003F0061F382035370D1E0FB7B03F00103D9B25E
S31508003F107A68537861F3C3035370C7E0FB7B03F0F9
S31508003F200103D9B27A68537861F304135370BDE07C
S31508003F30FB7B03F00103D9B27A68537861F3451322
S31508003F405370B3E0FB7B03F00103D9B27A68537868
S31508003F5061F386135370A9E0FB7B03F00103D9B222
S31508003F607A68537861F3C71353709FE0FB7B03F0BD
S31508003F700103D9B27A68937861F30003937095E0E8
S31508003F80FB7B03F00103D9B27A68937861F34103A6
S31508003F9093708BE0FB7B03F00103D9B27A689378C0
S31508003FA061F38203937081E0FB7B03F00103D9B2CE
S31508003FB07A68937861F3C303937077E0FB7B03F029
S31508003FC00103D9B27A68937861F3041393706DE0AC
S31508003FD0FB7B03F00103D9B27A68937861F3451342
S31508003FE0937063E0FB7B03F00103D9B27A68937898
S31508003FF061F38613937059E0FB7B03F00103D9B292
S315080040007A68937861F3C71393704FE0FB7B03F0EC
S315080040100103D9B27A68D37861F30003D37045E017
S31508004020FB7B03F00103D9B27A68D37861F34103C5
S31508004030D3703BE0FB7B03F00103D9B27A68D378EF
S3150800404061F38203D37031E0FB7B03F00103D9B23D
S315080040507A68D37861F3C303D37027E0FB7B03F058
S315080040600103D9B27A68D37861F30413D3701DE0DB
S31508004070FB7B03F00103D9B27A68D37861F3451361
S31508004080D37013E0FB7B03F00103D9B27A68D378C7
S3150800409061F38613D37009E0FB7B03F00103D9B201
S315080040A07A68D37861F3C713D37000BF00BF14379B
S315080040B0BD465DF8047B704780B584B000AF034603
S315080040C0FB710B46BB7113467B71FB79FB73BB799E
S315080040D0BB737B79002B02D07B79022B24D17B79A9
S315080040E0002B08D07B79022B05D1FB79002B44D015
S315080040F0FB79013BFB73FB7B1F2B09D8BB7B9B0022
S31508004100214A1344F97B01221846FFF737FE37E0A8
S3150800411000F0F0FC1D4800F0D3FF1D4800F0D0FF6A
S315080041201C4800F0CDFF2BE07B79012B02D07B7970
S31508004130032B25D17B79012B08D07B79032B05D15D
S31508004140BB79002B1BD0BB79013BBB73BB7B1F2BF9
S3150800415009D8FB7B9B00104A1344B97B01221846F9
S31508004160FFF70CFE0CE0094800F0AAFF0B4800F028
S31508004170A7FF084800F0A4FF02E000BF00E000BF68
S315080041801037BD4680BD00BF98450120A8A200088B
S31508004190B8A2000800A30008184601201CA30008BE
S315080041A080B584B000AF0346FB710B46BB7113465E
S315080041B07B71FB79FB73BB79BB737B79002B02D0D0
S315080041C07B79022B22D17B79002B08D07B79022BB5
S315080041D005D1FB79002B42D0FB79013BFB73FB7BB6
S315080041E01F2B09D8BB7B9B00204A1344F97B01226D
S315080041F01846FFF7C3FD35E01D4800F061FF1D486E
S3150800420000F05EFF1C4800F05BFF2BE07B79012B7A
S3150800421002D07B79032B25D17B79012B08D07B79BA
S31508004220032B05D1BB79002B1BD0BB79013BBB7394
S31508004230BB7B1F2B09D8FB7B9B00104A1344B97B19
S3150800424001221846FFF79AFD0CE0094800F038FFEE
S315080042500B4800F035FF084800F032FF02E000BFC7
S3150800426000E000BF1037BD4680BD00BF984401205E
S31508004270A8A20008B4A40008F4A400081845012060
S315080042800CA5000880B584B000AF0346FB710B4649
S31508004290BB7113467B71FB79FB73BB79BB737B7967
S315080042A0002B02D07B79022B22D17B79002B08D0F8
S315080042B07B79022B05D1FB79002B42D0FB79013B98
S315080042C0FB73FB7B1F2B09D8BB7B9B00204A13443F
S315080042D0F97B00221846FFF751FD35E01D4800F02E
S315080042E0EFFE1D4800F0ECFE1C4800F0E9FE2BE04E
S315080042F07B79012B02D07B79032B25D17B79012B86
S3150800430008D07B79032B05D1BB79002B1BD0BB7951
S31508004310013BBB73BB7B1F2B09D8FB7B9B00104A59
S315080043201344B97B00221846FFF728FD0CE009481C
S3150800433000F0C6FE0B4800F0C3FE084800F0C0FEB9
S3150800434002E000BF00E000BF1037BD4680BD00BFD9
S3150800435098440120A8A20008B4A400084CA50008A7
S31508004360184501200CA5000880B582B000AF0023CF
S315080043707B607B681F2B17DC384A7B68002142F874
S315080043802310374A7B68002142F82310354A7B6898
S31508004390002142F82310344A7B68002142F8231092
S315080043A07B6801337B60E4E700233B603B681F2B97
S315080043B03BDC3B68DBB2022219460020FFF7F0FE21
S315080043C03B68DBB2022219460020FFF775FE3B6800
S315080043D0DBB2002219461F20FFF7E2FE3B68DBB27C
S315080043E0002219461F20FFF767FE3B68DBB203224F
S315080043F000211846FFF7D4FE3B68DBB203220021F2
S315080044001846FFF759FE3B68DBB201221F21184602
S31508004410FFF7C6FE3B68DBB201221F211846FFF7ED
S315080044204BFE3B6801333B60C0E7002200210020B9
S31508004430FFF7B6FE002200210020FFF73DFE01220D
S3150800444000210020FFF71EFF012200210020FFF7B0
S3150800445033FE00BF0837BD4680BD00BF9844012023
S3150800446018450120984501201846012080B485B0DA
S3150800447000AF78600023FB60FB681F2B26DC7B6897
S31508004480FA6853F822201449FB6841F823207B6810
S31508004490FA68203253F822201049FB6841F8232095
S315080044A07B68FA68403253F822200D49FB6841F8C8
S315080044B023207B68FA68603253F822200949FB6892
S315080044C041F82320FB680133FB60D5E700BF1437AA
S315080044D0BD465DF8047B70479844012018450120C5
S315080044E0984501201846012080B485B000AF786051
S315080044F00023FB60FB681F2B26DC164AFB6852F874
S3150800450023107B68FA6843F82210134AFB6852F8AE
S3150800451023107B68FA68203243F822100F4AFB689A
S3150800452052F823107B68FA68403243F822100C4A86
S31508004530FB6852F823107B68FA68603243F8221049
S31508004540FB680133FB60D5E700BF1437BD465DF84D
S31508004550047B70479844012018450120984501209E
S315080045601846012080B582B000AF0346FB71FB797F
S31508004570042B09D900F0BEFAFB7919460A4800F05F
S315080045809FFD4FF0000307E0FA79084913465B00E0
S3150800459013449B000B441B6807EE903AB0EE670A7B
S315080045A00837BD4680BD00BFBCBF000880A600080E
S315080045B080B483B000AF0346FB71FB79042B1AD88D
S315080045C001A252F823F000BFDD450008E3450008C4
S315080045D0E9450008ED450008F34500084FF49B73CC
S315080045E00AE04FF48C7307E0002305E04FF461738B
S315080045F002E0002300E0002318460C37BD465DF8AC
S31508004600047B704780B483B000AF0346FB71FB7927
S31508004610042B17D801A252F823F000BF3146000830
S3150800462035460008394600083D4600084146000858
S31508004630462308E0502306E0002304E0822302E034
S31508004640E62300E000231BB218460C37BD465DF88A
S31508004650047B704780B582B000AF0346FB71FB79D7
S31508004660042B09D900F046FAFB7919460A4800F0E6
S3150800467027FD4FF0000308E0FA79084913465B0066
S3150800468013449B000B4404331B6807EE903AB0EEC4
S31508004690670A0837BD4680BDF0BF000880A6000837
S315080046A080B582B000AF0346FB71FB79042B09D9AC
S315080046B000F020FAFB7919460A4800F001FD4FF090
S315080046C0000308E0FA79084913465B0013449B0087
S315080046D00B4408331B6807EE903AB0EE670A0837B2
S315080046E0BD4680BD28C0000880A6000880B400AF7B
S315080046F0034B00221A6000BFBD465DF8047B704775
S31508004700B84E012080B400AF044B1B680133034A3E
S31508004710136000BFBD465DF8047B7047B84E0120A4
S3150800472080B483B000AF87ED010A044A7B68136042
S3150800473000BF0C37BD465DF8047B70479C4E0120D0
S3150800474080B400AF044B1B6807EE903AB0EE670AD8
S31508004750BD465DF8047B70479C4E012080B400AFCF
S31508004760044B1B6807EE903AB0EE670ABD465DF843
S31508004770047B7047A04E012080B483B000AF87ED5C
S31508004780010A044A7B68136000BF0C37BD465DF812
S31508004790047B7047A44E012080B400AF044B1B680D
S315080047A007EE903AB0EE670ABD465DF8047B70479F
S315080047B0A44E012080B483B000AF87ED010A044AF5
S315080047C07B68136000BF0C37BD465DF8047B7047F5
S315080047D0A84E012080B400AF044B1B6807EE903A40
S315080047E0B0EE670ABD465DF8047B7047A84E012007
S315080047F080B500AFFDF784FBFFF778FF00BF80BDEB
S3150800480080B400AF044B1B6807EE903AB0EE670A17
S31508004810BD465DF8047B7047B44E012080B483B072
S3150800482000AF87ED010A044A7B68136000BF0C37A6
S31508004830BD465DF8047B7047B44E012080B483B052
S3150800484000AF03460A46FB711346BB71BB7903F0FA
S315080048500F03D9B2094A137861F307131370FB796A
S3150800486003F00F03D9B2054A137861F303031370F3
S3150800487000BF0C37BD465DF8047B7047BC5001206D
S3150800488080B483B000AF0346FB71044AFB7913700A
S3150800489000BF0C37BD465DF8047B7047BD5001204C
S315080048A080B400AF034B1B781846BD465DF8047B01
S315080048B0704700BFBE50012080B483B000AF0346E6
S315080048C0FB71044AFB79137000BF0C37BD465DF8CF
S315080048D0047B7047BE500120B0B500AFFFF75CFF00
S315080048E010EE103A1846FBF721FE04460D46FFF770
S315080048F027FF10EE103A1846FBF718FE1EA3D3E959
S315080049000023FBF767FE02460B4620462946FBF7BF
S31508004910AFFC03460C4618462146FCF715F9034634
S3150800492000EE103AFFF728FFFFF754FF10EE103A93
S315080049301846FBF7FBFD04460D46FFF70FFF10EE82
S31508004940103A1846FBF7F2FD0BA3D3E90023FBF751
S3150800495041FE02460B4620462946FBF789FC0346DC
S315080049600C4618462146FCF7EFF8034600EE103AC7
S31508004970FFF720FF00BFB0BDFCA9F1D24D62503F42
S31508004980B0B500AFFFF708FF10EE103A1846FBF770
S31508004990CDFD1FA3D3E90023FBF71CFE03460C46F7
S315080049A025461C461C4B1B681846FBF7BFFD2246CE
S315080049B02B46FBF75DFC03460C4618462146FCF7DA
S315080049C0C3F80246144B1A60FFF7E6FE10EE103ADB
S315080049D01846FBF7ABFD0EA3D3E90023FBF7FAFD58
S315080049E003460C4625461C460C4B1B681846FBF727
S315080049F09DFD22462B46FBF73BFC03460C46184614
S31508004A002146FCF7A1F80246044B1A6000BFB0BD68
S31508004A10FCA9F1D24D62503FB44E0120B04E0120A0
S31508004A20B0B500AFFFF758FFFFF7AAFFFFF7D2FEB2
S31508004A3010EE103A1846FBF779FD10A3D3E90023C8
S31508004A40FBF7C8FD03460C4625461C460A4B1B6861
S31508004A501846FBF76BFD22462B46FBF709FC034677
S31508004A600C4618462146FCF76FF80246024B1A60B8
S31508004A7000BFB0BDAFF30080AC4E0120FCA9F1D257
S31508004A804D62503F80B582B000AF03460A46FB71BF
S31508004A901346BB71FCF712FFFEF7ECF9FEF702FAB4
S31508004AA00020FFF709FFFDF7ADF9FDF71BFAFFF741
S31508004AB09FFE9FED0F0AFFF7B1FE9FED0D0AFFF768
S31508004AC05BFE9FED0B0AFFF775FEFEF73BFBFB79D6
S31508004AD0002B01D0FEF7DAF9BB79002B01D0FEF7DF
S31508004AE0BDF9FCF713FF00BF0837BD4680BD00BF00
S31508004AF00000000080B500AF4FF480410C4800F07C
S31508004B0021FF0346012B0CBF01230023DBB2002B38
S31508004B100CD0FCF7ADFD4FF4FA7000F02BFCFCF757
S31508004B2079FD4FF4FA7000F025FCE5E700BF80BD7B
S31508004B300004024080B52DED028B88B000AF87EDEA
S31508004B40030AC7ED020A0346FB71FB791846FFF70D
S31508004B5081FD87ED070AFB791846FFF703FDF0EE9E
S31508004B60407AF5EEC07AF1EE10FA08D5FB791846C8
S31508004B70FFF7F8FCF0EE407AF1EE677A05E0FB798C
S31508004B801846FFF7EFFCF0EE407AC7ED067AFB7998
S31508004B901846FFF785FDF0EE407AF5EEC07AF1EE9D
S31508004BA010FA08D5FB791846FFF77AFDF0EE407A39
S31508004BB0F1EE677A05E0FB791846FFF771FDF0EE2E
S31508004BC0407AC7ED057AFFF7E7FDB0EE408AFFF7B2
S31508004BD0E3FDF0EE407A28EE277AD7ED026AD7EDA4
S31508004BE0027A66EEA77A77EE677AF5EEC07AF1EE84
S31508004BF010FA14D5FFF7D0FDB0EE408AFFF7CCFDCA
S31508004C00F0EE407A28EE277AD7ED026AD7ED027AD7
S31508004C1066EEA77A77EE677AF1EE677A11E0FFF724
S31508004C20BBFDB0EE408AFFF7B7FDF0EE407A28EEFE
S31508004C30277AD7ED026AD7ED027A66EEA77A77EE7B
S31508004C40677A97ED057A77EE076A87EEA67A87ED93
S31508004C50047A97ED060AFFF763FDFFF79DFDB0EEB0
S31508004C60407AD7ED077AB4EEE77AF1EE10FA4CBF40
S31508004C7001230023DBB2002B5BD0FFF78DFDB0EEDE
S31508004C80408AFFF789FDF0EE407A28EE277AD7EDBD
S31508004C90026AD7ED027A66EEA77A77EE677AF5EEBC
S31508004CA0C07AF1EE10FA14D5FFF776FDB0EE408A19
S31508004CB0FFF772FDF0EE407A28EE277AD7ED026A02
S31508004CC0D7ED027A66EEA77A77EE677AF1EE677A1B
S31508004CD011E0FFF761FDB0EE408AFFF75DFDF0EEEB
S31508004CE0407A28EE277AD7ED026AD7ED027A66EE81
S31508004CF0A77A77EE677A97ED057A77EE076A87EEF1
S31508004D00A67A87ED047AFFF77BFDB0EE407AD7EDF9
S31508004D10037A37EEC77AD7ED047AB4EEE77AF1EE7E
S31508004D2010FA94BF01230023DBB2002B00D194E7CD
S31508004D3000BF9FED5A0AFFF7F3FCFFF72DFDB0EE13
S31508004D40408AFFF729FDF0EE407A28EE277AD7ED5C
S31508004D50026AD7ED027A66EEA77A77EE677AF5EEFB
S31508004D60C07AF1EE10FA14D5FFF716FDB0EE408AB8
S31508004D70FFF712FDF0EE407A28EE277AD7ED026AA1
S31508004D80D7ED027A66EEA77A77EE677AF1EE677A5A
S31508004D9011E0FFF701FDB0EE408AFFF7FDFCF0EEEB
S31508004DA0407A28EE277AD7ED026AD7ED027A66EEC0
S31508004DB0A77A77EE677A97ED057A77EE076A87EE30
S31508004DC0A67A87ED047AFFF71BFDB0EE407AD7ED99
S31508004DD0037A37EEC77AD7ED047AB4EEE77AF1EEBE
S31508004DE010FA94BF01230023DBB2002B00D1A4E7FD
S31508004DF000BFD7ED057AF1EE677AB0EE670AFFF7DE
S31508004E008FFCFFF7C9FCB0EE407AD7ED027AB4EE14
S31508004E10E77AF1EE10FACCBF01230023DBB2002BB0
S31508004E2011D0FFF7EDFCB0EE407AD7ED037AB4EE79
S31508004E30E77AF1EE10FACCBF01230023DBB2002B90
S31508004E4000D1DEE700BF9FED150AFFF769FC97ED75
S31508004E50020AFFF791FCD7ED027AF5EEC07AF1EE79
S31508004E6010FA10DDFFF7CCFCB0EE407AD7ED037AE6
S31508004E70B4EEE77AF1EE10FA4CBF01230023DBB259
S31508004E80002B00D0EEE79FED050AFFF7C7FC00BF31
S31508004E902037BD46BDEC028B80BD00BF0000000078
S31508004EA090B58BB000AF87ED030AC7ED020A03463B
S31508004EB087ED001AFB713B687B62012387F8233074
S31508004EC0002387F82230002387F821300020FFF7D7
S31508004ED099FB03461C460020FFF794FB0346234430
S31508004EE0DA0F13445B109BB2BB820120FFF78AFBE3
S31508004EF003461C460120FFF785FB03462344DA0FC9
S31508004F0013445B109BB2FB8297ED037AD7ED007AC8
S31508004F1077EE677AFB791846D7ED020AB0EE670A8C
S31508004F20FFF708FE0120FDF7D5FC03461A46FB8A63
S31508004F301BB29A42B4BF01230023DBB2002B02D076
S31508004F40012387F821300020FDF7C4FC03461A46E2
S31508004F50BB8A1BB29A42B4BF01230023DBB2002BE3
S31508004F6002D0012387F82230FFF74AFCB0EE407AD8
S31508004F70D7ED097AB4EEE77AF1EE10FA4CBF0123C1
S31508004F800023DBB2002B57D0FFF78AFC0346002B21
S31508004F9057D197F82330002BE6D00120FDF7D6FC31
S31508004FA00346002B05D097F82130002B01D00123AA
S31508004FB000E00023002B17D00120FDF78BFC0346E9
S31508004FC01A46FB8A1BB29A42B4BF01230023DBB2FE
S31508004FD0002B09D01D4B5B687B629FED1D0AFFF70E
S31508004FE01DFC002387F823300020FDF7AFFC03469D
S31508004FF0002B05D097F82230002B01D0012300E0C2
S315080050000023002BB0D00020FDF764FC03461A46A7
S31508005010BB8A1BB29A42B4BF01230023DBB2002B22
S31508005020A2D00A4B1B687B629FED090AFFF7F6FBC5
S31508005030002387F8233097E79FED050AFFF7EEFB75
S3150800504000E000BF2C37BD4690BD00BF0C00002015
S315080050500000000080B582B000AF0346FB71FB7903
S315080050609BB21946074801F0FDF900BF80210548A3
S3150800507001F052FA0346002BF8D000BF0837BD46A8
S3150800508080BD00BF0010014080B584B000AF7860D5
S315080050900B467B800023FB8109E0FB897A68134471
S315080050A01B781846FFF7D6FFFB890133FB81FA897F
S315080050B0B7F902309A42F0DB00BF1037BD4680BD13
S315080050C00FB480B582B000AF07F114033B603A68AD
S315080050D03969094801F0D2FA78607B689BB21BB23D
S315080050E019460548FFF7D0FF7B6818460837BD46BE
S315080050F0BDE8804004B07047C450012080B400AFBA
S3150800510000BFBD465DF8047B704700BF80B400AFA2
S31508005110FEE700BF80B400AFFEE700BF80B400AF73
S31508005120FEE700BF80B400AFFEE700BF80B400AF63
S3150800513000BFBD465DF8047B704700BF80B400AF72
S3150800514000BFBD465DF8047B704700BF80B400AF62
S3150800515000BFBD465DF8047B704700BF80B500AF51
S31508005160FEF786FD00BF80BD80B584B000AF7860CD
S31508005170114B1B68002B02D10F4B104A1A600E4BBD
S315080051801B68FB600C4B1A687B6813446A4693429B
S3150800519007D901F0DDF902460C2313604FF0FF33FF
S315080051A006E0054B1A687B681344034A1360FB68DC
S315080051B018461037BD4680BD2C510120F8540120F1
S315080051C080B500AF164A164BD3F8883043F47003FF
S315080051D0C2F88830134A134B1B6843F00103136067
S315080051E0104B00229A600F4A0E4B1B6823F08473FB
S315080051F023F4803313600B4B0B4A5A60094A094B58
S315080052001B6823F480231360064B0022DA6000F043
S315080052100DF8034B4FF000629A6000BF80BD00BFD7
S3150800522000ED00E0003802401030002480B400AFE2
S31508005230234A234B1B6C43F080531364214A214BAA
S315080052401B6843F4404313601D4A1D4B9B689360DB
S315080052501B4A1B4B9B6843F400439360184A184B40
S315080052609B6843F4A0539360154B174A5A60144A37
S31508005270134B1B6843F08073136000BF104B1B6809
S3150800528003F00073002BF9D0104B40F205621A6048
S315080052900B4A0B4B9B6823F003039360084A084BA1
S315080052A09B6843F00203936000BF054B9B6803F0BD
S315080052B00C03082BF9D100BFBD465DF8047B704787
S315080052C0003802400070004010540007003C0240BD
S315080052D090B583B000AF87ED010A7868FBF726F929
S315080052E00EA3D3E90023FBF775F903460C461846C7
S315080052F021464FF00002084BFBF796FA03460C4688
S3150800530018462146FBF720FC034607EE903AB0EE16
S31508005310670A0C37BD4690BD008066406F1283C091
S31508005320CA21094080B483B000AF7860044A7B681C
S31508005330136000BF0C37BD465DF8047B704700BF9D
S315080053403051012080B400AF034B00221A6000BF21
S31508005350BD465DF8047B70473051012080B400AF2C
S31508005360034B1B681846BD465DF8047B704700BFB3
S315080053703051012080B584B000AF78600023FB600F
S315080053801A4B1B681846FFF7CDFFFFF7E7FF0146E4
S315080053907A68174B9B1A99428CBF01230023DBB20C
S315080053A0002B07D0FFF7CEFF104B00221A607B6850
S315080053B0FB6005E0FFF7D2FF02467B681344FB60FB
S315080053C0FFF7CCFF0246FB689A4234BF012300234D
S315080053D0DBB2002B05D0054B1B681846FFF7A2FF6A
S315080053E0EEE700BF1037BD4680BD00BF100C002099
S315080053F00084D717DFF834D0002103E00C4B5B5844
S31508005400435004310B480C4B42189A42F6D30B4AC8
S3150800541002E0002342F8043B094B9A42F9D3FFF70E
S31508005420CFFE01F09BF8FEF7A3FA704700000220B2
S3150800543034C2000800000020A4080020A4080020A8
S31508005440F8540120FEE7000080B500AF01214FF4B3
S31508005450807000F005FC00214FF4807000F000FC1D
S3150800546000BF80BD80B485B000AF78603960002386
S31508005470FB600023FB727B685B68FB60FB6823F0BC
S31508005480407323F48073FB603B681B791A023B6800
S315080054901B681343FA681343FB607B68FA685A6013
S315080054A07B689B68FB60FA68184B1340FB603B6897
S315080054B01A693B68DB681A433B689B681A433B6872
S315080054C05B795B001343FA681343FB607B68FA68F1
S315080054D09A607B68DB6AFB60FB6823F47003FB60F9
S315080054E03B681B7D013BDAB2FB7A1343FB72FB7AFE
S315080054F01B05FA681343FB607B68FA68DA6200BF2B
S315080055001437BD465DF8047B704700BFFDF7FFC042
S3150800551080B485B000AF78600023FB600E4B5B68F3
S31508005520FB60FA680D4B1340FB607B681A687B6862
S315080055305B681A437B689B681A437B68DB6813437E
