S010000068616C666D6F7573652E6D6F74AD
S3150800000000000220454E0008494B0008594B0008DD
S31508000010614B0008694B0008714B0008000000009E
S31508000020000000000000000000000000794B0008F6
S31508000030894B000800000000994B0008A94B0008EE
S31508000040954E0008954E0008954E0008954E0008F6
S31508000050954E0008954E0008954E0008954E0008E6
S31508000060954E0008954E0008954E0008954E0008D6
S31508000070954E0008954E0008954E0008954E0008C6
S31508000080954E0008954E0008954E0008954E0008B6
S31508000090954E0008954E0008954E0008954E0008A6
S315080000A0954E0008954E0008954E0008954E000896
S315080000B0954E0008954E0008954E0008954E000886
S315080000C0954E0008954E0008954E0008954E000876
S315080000D0954E0008954E0008954E0008954E000866
S315080000E0954E0008954E0008954E0008954E000856
S315080000F0954E0008954E0008954E0008954E000846
S31508000100954E0008954E0008954E0008954E000835
S31508000110954E0008954E0008954E0008954E000825
S31508000120954E0008954E0008954E0008954E000815
S31508000130954E00080000000000000000954E0008DB
S31508000140954E0008954E0008954E0008954E0008F5
S31508000150954E0008954E0008954E0008954E0008E5
S31508000160954E0008954E0008954E0008954E0008D5
S31508000170954E0008954E000800000000000000009B
S30D08000180954E0008954E000893
S315080001C0044B05481B1A062B02D9044B03B11847E2
S315080001D0704700BF97080020940800200000000020
S315080001E005490648091A891001EBD171491002D050
S315080001F0034B03B118477047940800209408002061
S315080002000000000010B5064C237843B9FFF7D8FF65
S31508000210044B13B10448AFF300800123237010BDCB
S315080002209408002000000000649C000808B5084BEC
S315080002301BB108490848AFF300800848036813B99A
S31508000240BDE80840CCE7064B002BF9D09847F7E7FE
S315080002500000000098080020649C0008940800200C
S315080002600000000081F0004102E000BF83F0004377
S3150800027030B54FEA41044FEA430594EA050F08BF33
S3150800028090EA020F1FBF54EA000C55EA020C7FEAF7
S31508000290645C7FEA655C00F0E2804FEA5454D4EB74
S315080002A05555B8BF6D420CDD2C4480EA020281EA3E
S315080002B0030382EA000083EA010180EA020281EA76
S315080002C00303362D88BF30BD11F0004F4FEA0131C8
S315080002D04FF4801C4CEA113102D0404261EB4101D7
S315080002E013F0004F4FEA03334CEA133302D052425D
S315080002F063EB430394EA050F00F0A780A4F1010419
S31508000300D5F1200E0DDB02FA0EFC22FA05F2801852
S3150800031041F1000103FA0EF2801843FA05F3594138
S315080003200EE0A5F120050EF1200E012A03FA0EFCB7
S3150800033028BF4CF0020C43FA05F3C01851EBE371E1
S3150800034001F0004507D54FF0000EDCF1000C7EEBFE
S3150800035000006EEB0101B1F5801F1BD3B1F5001F3C
S315080003600CD349085FEA30004FEA3C0C04F101045B
S315080003704FEA445212F5800F80F09A80BCF1004F84
S3150800038008BF5FEA500C50F1000041EB045141EA06
S31508000390050130BD5FEA4C0C404141EB010111F407
S315080003A0801FA4F10104E9D191F0000F04BF0146B2
S315080003B00020B1FA81F308BF2033A3F10B03B3F190
S315080003C020020CDA0C3208DD02F1140CC2F10C0220
S315080003D001FA0CF021FA02F10CE002F11402D8BF7E
S315080003E0C2F1200C01FA02F120FA0CFCDCBF41EA4A
S315080003F00C019040E41AA2BF01EB0451294330BD19
S315080004006FEA04041F3C1CDA0C340EDC04F11404F5
S31508000410C4F1200220FA04F001FA02F340EA0300CC
S3150800042021FA04F345EA030130BDC4F10C04C4F112
S31508000430200220FA02F001FA04F340EA03002946F2
S3150800044030BD21FA04F0294630BD94F0000F83F43C
S31508000450801306BF81F480110134013D4EE77FEA1F
S31508000460645C18BF7FEA655C29D094EA050F08BF6B
S3150800047090EA020F05D054EA000C04BF194610464C
S3150800048030BD91EA030F1EBF0021002030BD5FEA90
S31508000490545C05D14000494128BF41F0004130BDB8
S315080004A014F580043CBF01F5801130BD01F000450C
S315080004B045F0FE4141F470014FF0000030BD7FEA7F
S315080004C0645C1ABF194610467FEA655C1CBF0B467A
S315080004D0024650EA013406BF52EA033591EA030F91
S315080004E041F4002130BD00BF90F0000F04BF002189
S315080004F0704730B54FF4806404F132044FF00005BC
S315080005004FF0000150E700BF90F0000F04BF002134
S31508000510704730B54FF4806404F1320410F000459A
S3150800052048BF40424FF000013EE700BF42004FEA95
S31508000530E2014FEA31014FEA02701FBF12F07F4312
S3150800054093F07F4F81F06051704792F0000F14BF0F
S3150800055093F07F4F704730B54FF4607401F0004553
S3150800056021F0004120E700BF50EA010208BF7047AA
S3150800057030B54FF000050AE050EA010208BF70479F
S3150800058030B511F0004502D5404261EB41014FF408
S31508000590806404F132045FEA915C3FF4DCAE4FF00C
S315080005A003025FEADC0C18BF03325FEADC0C18BFF3
S315080005B0033202EBDC02C2F1200300FA03FC20FA44
S315080005C002F001FA03FE40EA0E0021FA02F1144491
S315080005D0C1E600BF70B54FF0FF0C4CF4E06C1CEAA6
S315080005E011541DBF1CEA135594EA0C0F95EA0C0F1B
S315080005F000F0DEF82C4481EA030621EA4C5123EA8E
S315080006004C5350EA013518BF52EA033541F48011BC
S3150800061043F4801338D0A0FB02CE4FF00005E1FB6F
S3150800062002E506F00042E0FB03E54FF00006E1FBB9
S3150800063003569CF0000F18BF4EF0010EA4F1FF04FC
S31508000640B6F5007F64F5407404D25FEA4E0E6D413C
S3150800065046EB060642EAC62141EA55514FEAC5204D
S3150800066040EA5E504FEACE2EB4F1FD0C88BFBCF5C9
S31508000670E06F1ED8BEF1004F08BF5FEA500E50F17A
S31508000680000041EB045170BD06F0004646EA010140
S3150800069040EA020081EA0301B4EB5C04C2BFD4EB72
S315080006A00C0541EA045170BD41F480114FF0000E6B
S315080006B0013C00F3AB8014F1360FDEBF002001F0D9
S315080006C0004170BDC4F10004203C35DA0C341BDC53
S315080006D004F11404C4F1200500FA05F320FA04F025
S315080006E001FA05F240EA020001F0004221F0004159
S315080006F010EBD37021FA04F642EB06015EEA430ECC
S3150800070008BF20EAD37070BDC4F10C04C4F12005FB
S3150800071000FA04F320FA05F001FA04F240EA0200AE
S3150800072001F0004110EBD37041F100015EEA430E7F
S3150800073008BF20EAD37070BDC4F1200500FA05F29F
S315080007404EEA020E20FA04F301FA05F243EA02031E
S3150800075021FA04F001F0004121FA04F220EA02002D
S3150800076000EBD3705EEA430E08BF20EAD37070BD73
S3150800077094F0000F0FD101F00046400041EB010153
S3150800078011F4801F08BF013CF7D041EA060195F035
S31508000790000F18BF704703F00046520043EB0303EF
S315080007A013F4801F08BF013DF7D043EA06037047DC
S315080007B094EA0C0F0CEA135518BF95EA0C0F0CD0E7
S315080007C050EA410618BF52EA4306D1D181EA03012D
S315080007D001F000414FF0000070BD50EA410606BF27
S315080007E01046194652EA430619D094EA0C0F02D16C
S315080007F050EA013613D195EA0C0F05D152EA0336B1
S315080008001CBF104619460AD181EA030101F00041CE
S3150800081041F0FE4141F470014FF0000070BD41F017
S31508000820FE4141F4780170BD70B54FF0FF0C4CF4F1
S31508000830E06C1CEA11541DBF1CEA135594EA0C0F10
S3150800084095EA0C0F00F0A7F8A4EB050481EA030E5D
S3150800085052EA03354FEA013100F088804FEA033344
S315080008604FF0805545EA131343EA12634FEA022212
S3150800087045EA111545EA10654FEA00260EF00041D3
S315080008809D4208BF964244F1FD0404F5407402D225
S315080008905B084FEA3202B61A65EB03055B084FEAB6
S315080008A032024FF480104FF4002CB6EB020E75EBB3
S315080008B0030E22BFB61A754640EA0C005B084FEADB
S315080008C03202B6EB020E75EB030E22BFB61A754658
S315080008D040EA5C005B084FEA3202B6EB020E75EBA3
S315080008E0030E22BFB61A754640EA9C005B084FEA1B
S315080008F03202B6EB020E75EB030E22BFB61A754628
S3150800090040EADC0055EA060E18D04FEA051545EA16
S3150800091016754FEA06164FEAC30343EA52734FEABF
S31508000920C2025FEA1C1CC0D111F4801F0BD141EA38
S3150800093000014FF000004FF0004CB6E711F4801F9D
S3150800094004BF01430020B4F1FD0C88BFBCF5E06F7D
S315080009503FF6AFAEB5EB030C04BFB6EB020C5FEA8D
S31508000960500C50F1000041EB045170BD0EF0004EE2
S315080009704EEA113114EB5C04C2BFD4EB0C0541EA14
S31508000980045170BD41F480114FF0000E013C90E611
S3150800099045EA060E8DE60CEA135594EA0C0F08BFD5
S315080009A095EA0C0F3FF43BAF94EA0C0F0AD150EAD4
S315080009B001347FF434AF95EA0C0F7FF425AF104667
S315080009C019462CE795EA0C0F06D152EA03353FF48F
S315080009D0FDAE1046194622E750EA410618BF52EA0C
S315080009E043067FF4C5AE50EA41047FF40DAF52EAE0
S315080009F043057FF4EBAE12E74FF0FF3C06E000BF7D
S31508000A004FF0010C02E000BF4FF0010C4DF804CD89
S31508000A104FEA410C7FEA6C5C4FEA430C18BF7FEA49
S31508000A206C5C1BD001B050EA410C0CBF52EA430C77
S31508000A3091EA030F02BF90EA020F0020704710F1F7
S31508000A40000F91EA030F58BF994208BF90422CBF86
S31508000A50D8176FEAE37040F0010070474FEA410C7F
S31508000A607FEA6C5C02D150EA013C07D14FEA430C9D
S31508000A707FEA6C5CD6D152EA033CD3D05DF8040B0E
S31508000A80704700BF8446104662468C461946634640
S31508000A9000E000BF01B5FFF7B7FF002848BF10F117
S31508000AA0000F01BD4DF808EDFFF7F4FF0CBF01205C
S31508000AB000205DF808FB00BF4DF808EDFFF7EAFFD8
S31508000AC034BF012000205DF808FB00BF4DF808ED93
S31508000AD0FFF7E0FF94BF012000205DF808FB00BF88
S31508000AE04DF808EDFFF7CEFF94BF012000205DF812
S31508000AF008FB00BF4DF808EDFFF7C4FF34BF01201F
S31508000B0000205DF808FB00BF4A0011D212F500125A
S31508000B1011D20DD56FF47873B3EB62520ED44FEA47
S31508000B20C12343F0004343EA505323FA02F07047C7
S31508000B304FF00000704750EA013002D14FF0FF3005
S31508000B4070474FF0000070474FEA4102B2F1E043A8
S31508000B5024BFB3F5001CDCF1FE5C0DD901F0004C96
S31508000B604FEAC0024CEA5070B2F1004F40EB8300E6
S31508000B7008BF20F00100704711F0804F21D113F112
S31508000B803872BCBF01F00040704741F480114FEA4B
S31508000B905252C2F11802C2F1200C10FA0CF320FAD4
S31508000BA002F018BF40F001004FEAC1234FEAD323F1
S31508000BB003FA0CFC40EA0C0023FA02F34FEA43035B
S31508000BC0CCE77FEA625307D150EA01331EBF4FF0E4
S31508000BD0FE4040F44000704701F0004040F0FE40FF
S31508000BE040F40000704700BF00000000000000004D
S31508000BF001F0FF01102A2BDB10F0070F08D010F8C0
S31508000C00013B013A8B422DD010F0070F42B3F6D1C3
S31508000C10F0B441EA012141EA014122F007047FF0DC
S31508000C2000070023F0E80256083C85EA010586EA33
S31508000C30010685FA47F5A3FA87F586FA47F6A5FA6F
S31508000C4087F68EB9EED1F0BC01F0FF0102F007027B
S31508000C5032B110F8013B013A83EA010313B1F8D126
S31508000C600020704701387047002D06BF3546033807
S31508000C70073815F0010F07D1013015F4807F02BF40
S31508000C80013015F4C03F0130F0BC0138704700BF91
S31508000C90844641EA000313F003036DD1403A41D379
S31508000CA051F8043B40F8043B51F8043B40F8043B38
S31508000CB051F8043B40F8043B51F8043B40F8043B28
S31508000CC051F8043B40F8043B51F8043B40F8043B18
S31508000CD051F8043B40F8043B51F8043B40F8043B08
S31508000CE051F8043B40F8043B51F8043B40F8043BF8
S31508000CF051F8043B40F8043B51F8043B40F8043BE8
S31508000D0051F8043B40F8043B51F8043B40F8043BD7
S31508000D1051F8043B40F8043B51F8043B40F8043BC7
S31508000D20403ABDD2303211D351F8043B40F8043B67
S31508000D3051F8043B40F8043B51F8043B40F8043BA7
S31508000D4051F8043B40F8043B103AEDD20C3205D377
S31508000D5051F8043B40F8043B043AF9D2043208D06F
S31508000D60D2071CBF11F8013B00F8013B01D30B88E1
S31508000D7003806046704700BF082A13D38B078DD0BF
S31508000D8010F003038AD0C3F10403D21ADB071CBF91
S31508000D9011F8013B00F8013B80D331F8023B20F8FB
S31508000DA0023B7BE7043AD9D3013A11F8013B00F834
S31508000DB0013BF9D20B7803704B7843708B788370BC
S31508000DC060467047000000000000000000000000B8
S31508000DD00000000000000000000000000000000005
S31508000DE000000000000000000000000000000000F5
S31508000DF000000000000000000000000000000000E5
S31508000E0090F800F06DE9024520F007016FF0000C3C
S31508000E1010F0070491F820F040F049804FF00004E4
S31508000E206FF00700D1E9002391F840F000F10800BF
S31508000E3082FA4CF2A4FA8CF283FA4CF3A2FA8CF3F7
S31508000E404BBBD1E9022382FA4CF200F10800A4FA5E
S31508000E508CF283FA4CF3A2FA8CF3E3B9D1E90423B2
S31508000E6082FA4CF200F10800A4FA8CF283FA4CF3E9
S31508000E70A2FA8CF37BB9D1E9062301F1200182FAA3
S31508000E804CF200F10800A4FA8CF283FA4CF3A2FAA9
S31508000E908CF3002BC6D0002A04BF04301A4612BAB7
S31508000EA0B2FA82F2FDE8024500EBD2007047D1E9BA
S31508000EB0002304F00305C4F100004FEAC50514F049
S31508000EC0040F91F840F00CFA05F562EA05021CBF1A
S31508000ED063EA050362464FF00004A9E74FEA4102B8
S31508000EE012F5001215D211D56FF47873B3EB62526E
S31508000EF012D94FEAC12343F0004343EA505311F095
S31508000F00004F23FA02F018BF404270474FF0000026
S31508000F10704750EA013005D111F0004008BF6FF064
S31508000F20004070474FF00000704700BF53B94AB9F8
S31508000F30002908BF00281CBF4FF0FF314FF0FF30D3
S31508000F4000F07EB9ADF1080C6DE904CE00F006F8A4
S31508000F50DDF804E0DDE9022304B070472DE9F04727
S31508000F608C460E460446089D002B50D18A421746E9
S31508000F706CD9B2FA82FEBEF1000F0BD0CEF1200476
S31508000F8020FA04F401FA0EF644EA060C02FA0EF701
S31508000F9000FA0EF44FEA1749220CBCFBF9F01FFAC7
S31508000FA087F809FB10C642EA064600FB08F3B34277
S31508000FB009D9F61900F1FF3280F02281B34240F2D6
S31508000FC01F8102383E44F61AA2B2B6FBF9F309FBB2
S31508000FD0136642EA064403FB08F8A04509D9E41952
S31508000FE003F1FF3280F00A81A04540F20781023BF7
S31508000FF03C44C8EB040443EA00400021002D62D0BB
S3150800100024FA0EF400232C606B60BDE8F0878B424F
S3150800101007D9002D55D0002185E841000846BDE8CE
S31508001020F087B3FA83F1002940F09080B34202D3E7
S31508001030824200F2F880841A66EB03060120B44661
S31508001040002D40D085E81010BDE8F08712B90127B9
S31508001050B7FBF2F7B7FA87FEBEF1000F35D1F31BDF
S315080010604FEA17481FFA87FC0121B3FBF8F0220C58
S3150800107008FB103642EA06460CFB00F3B34207D9D2
S31508001080F61900F1FF3202D2B34200F2CE801046C2
S31508001090F61AA2B2B6FBF8F308FB136642EA064450
S315080010A00CFB03FCA44507D9E41903F1FF3202D26D
S315080010B0A44500F2B5801346CCEB040443EA00408D
S315080010C09CE729462846BDE8F087CEF1200106FAB6
S315080010D00EF307FA0EF720FA01F94FEA1748CE4041
S315080010E049EA0309B6FBF8FA4FEA194408FB1A66F7
S315080010F01FFA87FC44EA06430AFB0CF29A4200FAF6
S315080011000EF40AD9DB190AF1FF3180F087809A427A
S3150800111040F28480AAF1020A3B449B1A1FFA89F915
S31508001120B3FBF8F108FB113349EA034301FB0CF65C
S315080011309E4207D9DB1901F1FF326BD29E4269D96B
S3150800114002393B449B1B41EA0A418EE7C1F1200E56
S3150800115022FA0EF48B40234320FA0EF706FA01F41E
S315080011604FEA134C26FA0EF63C43B6FBFCF9270C5D
S315080011700CFB19661FFA83F847EA064609FB08F7C7
S31508001180B74202FA01F200FA01FA08D9F61809F18B
S31508001190FF3041D2B7423FD9A9F102091E44F61BD6
S315080011A0A0B2B6FBFCF40CFB146640EA064704FB47
S315080011B008F8B84507D9FF1804F1FF3028D2B84512
S315080011C026D9023C1F4444EA0940C8EB0707A0FB9E
S315080011D002894F4544464E4614D329D065B3BAEB27
S315080011E0040367EB060707FA0EFECB40CF404EEA2C
S315080011F0030385E888000021BDE8F0871346F8E672
S315080012001046E0E6B8EB020469EB03060138E5E7A9
S315080012100446D8E7114695E78146C0E78A467CE743
S31508001220023B3C4448E708460AE702383E442FE7B3
S31508001230C245E7D33E46D1E72946BDE8F08700BF59
S31508001240704700BF80B500AF0221104803F0EAFFDF
S315080012500023012209210D4803F0C6FE0B4803F0BE
S315080012608DFF0221094803F0C3FF0346002B0CBF7C
S3150800127001230023DBB2002B00D0F2E7034803F07A
S315080012808DFF03461B119BB2184680BD0020014006
S3150800129080B582B000AF4FF000037B604FF48053F7
S315080012A03B60FFF7CFFF034607EE903AF8EEE77A82
S315080012B09FED0B7A67EE876A3B6807EE903AB8EEC1
S315080012C0677AC6EE877A77EEA77AC7ED017A7B68E2
S315080012D007EE903AB0EE670A0837BD4680BD00BFF4
S315080012E03333534080B582B000AF0346FB71FB79B8
S315080012F0092B02D900F0BCF982E1FB79092B00F22F
S315080013007F8101A252F823F03113000879130008EF
S31508001310C11300080914000851140008991400089C
S31508001320E11400082915000871150008B915000808
S315080013301021B54804F048F84FF48051B24804F03B
S3150800134053F80421B14804F04FF80821AF4804F0D7
S315080013504BF84FF48041AD4804F046F84FF400418D
S31508001360AA4804F041F80121A94804F03DF80221F1
S31508001370A74804F039F843E11021A34804F024F8FB
S315080013804FF48051A04804F02FF804219F4804F038
S315080013901BF808219D4804F027F84FF480419B4824
S315080013A004F012F84FF40041984804F00DF80121B2
S315080013B0974804F009F80221954804F015F81FE14A
S315080013C01021914804F010F84FF480518E4803F02C
S315080013D0FBFF04218D4804F007F808218B4804F028
S315080013E003F84FF48041894803F0FEFF4FF40041AB
S315080013F0864803F0E9FF0121854803F0F5FF02213D
S31508001400834803F0F1FFFBE010217F4803F0ECFF6F
S315080014104FF480517C4803F0E7FF04217B4803F032
S31508001420E3FF0821794803F0DFFF4FF4804177484E
S3150800143003F0CAFF4FF40041744803F0C5FF0121C9
S31508001440734803F0D1FF0221714803F0CDFFD7E0BE
S3150800145010216D4803F0C8FF4FF480516A4803F025
S31508001460C3FF0421694803F0AFFF0821674803F06A
S31508001470BBFF4FF48041654803F0A6FF4FF40041D7
S31508001480624803F0B1FF0121614803F09DFF022184
S315080014905F4803F0A9FFB3E010215B4803F0A4FFFF
S315080014A04FF48051584803F09FFF0421574803F032
S315080014B09BFF0821554803F097FF4FF48041534896
S315080014C003F082FF4FF40041504803F08DFF0121DD
S315080014D04F4803F089FF02214D4803F075FF8FE05E
S315080014E01021494803F080FF4FF48051464803F025
S315080014F07BFF0421454803F077FF0821434803F0A2
S3150800150073FF4FF48041414803F06EFF4FF40041EA
S315080015103E4803F069FF01213D4803F065FF0221BB
S315080015203B4803F051FF6BE01021374803F04CFFAE
S315080015304FF48051344803F057FF0421334803F031
S3150800154043FF0821314803F04FFF4FF480412F48ED
S3150800155003F03AFF4FF400412C4803F045FF012100
S315080015602B4803F041FF0221294803F03DFF47E0DD
S315080015701021254803F038FF4FF48051224803F024
S3150800158033FF0421214803F02FFF08211F4803F0E9
S315080015902BFF4FF480411D4803F026FF4FF400410E
S315080015A01A4803F021FF0121194803F01DFF022103
S315080015B0174803F019FF23E01021134803F014FF1E
S315080015C04FF48051104803F00FFF04210F4803F031
S315080015D00BFF08210D4803F007FF4FF480410B4825
S315080015E003F0F2FE4FF40041084803F0FDFE012126
S315080015F0074803F0F9FE0221054803F0F5FE00BF8F
S315080016000837BD4680BD00BF0004024000080240FE
S31508001610001C024080B500AF1021124803F0D4FE2A
S315080016204FF480510F4803F0CFFE04210E4803F013
S31508001630CBFE08210C4803F0C7FE4FF480410A4848
S3150800164003F0C2FE4FF40041074803F0BDFE012136
S31508001650064803F0B9FE0221044803F0B5FE00BFB0
S3150800166080BD00BF0004024000080240001C024082
S3150800167080B500AF1021124803F0B6FE4FF4805132
S315080016800F4803F0A1FE04210E4803F0ADFE082121
S315080016900C4803F0A9FE4FF480410A4803F0A4FE63
S315080016A04FF40041074803F09FFE0121064803F066
S315080016B09BFE0221044803F087FE00BF80BD00BFE1
S315080016C00004024000080240001C024080B584B0B5
S315080016D000AF0346FB710B46BB8013467B80002395
S315080016E0FB607A88FB689A4211DDFB791846FFF79A
S315080016F0F9FDBB88184603F065FBFFF78BFFBB882F
S31508001700184603F05FFBFB680133FB60E9E700BF9F
S315080017101037BD4680BD00BF80B584B000AF034614
S315080017200A46FB711346BB80FB79FB60FB68002BFE
S315080017300CDDFB68DBB21846FFF7D4FDBB881846FC
S3150800174003F040FBFB68013BFB60EFE70020FFF777
S31508001750C9FD00BF1037BD4680BD00BF00000000B0
S3150800176090B587B000AF034687ED020AFB730023E6
S31508001770FB82D7ED027AF5EEC07AF1EE10FA0AD5B9
S31508001780D7ED027AF1EE677AFDEEE77AC7ED017AD0
S31508001790BB889BB207E0D7ED027AFDEEE77AC7ED84
S315080017A0017ABB889BB2FB82D7ED027A9FED507A0D
S315080017B0F4EEC77AF1EE10FA01DD6423FB824D4B95
S315080017C060221A804B4B00229A814A4B01225A808A
S315080017D0494B1B881A46B7F9163003FB02F318461D
S315080017E0FEF792FE40A3D3E90023FEF7F3FE034675
S315080017F00C4618462146FFF787F902463D4B9A6084
S31508001800FB7B012B34D1D7ED027AF5EE407AF1EE67
S3150800181010FA0BD1374B00229A603649374804F044
S31508001820BFF83449354804F035F91DE0D7ED027A9A
S31508001830F5EEC07AF1EE10FA0BDD2E492F4804F0CA
S3150800184029F92C4B00229A602A492C4804F0A8F85A
S315080018500AE02849294804F0A3F8264B00229A6092
S315080018602449264804F016F9FB8ADAB2244B1A7082
S31508001870FB7B002B34D1D7ED027AF5EE407AF1EEF8
S3150800188010FA0BD11B4B00229A601A491D4804F026
S3150800189087F818491B4804F0FDF81DE0D7ED027AD1
S315080018A0F5EEC07AF1EE10FA0BDD1249154804F090
S315080018B077F8104B00229A600E49124804F0EAF8AD
S315080018C00AE00C490F4804F0E5F80A4B00229A6032
S315080018D008490C4804F064F8FB8ADAB20A4B1A7015
S315080018E000BF1C37BD4690BD7B14AE47E17A843FE6
S315080018F00000C8422C090020809C0008000800400F
S31508001900B0080020000C0040B108002080B500AFE8
S3150800191004210D4803F068FD00210C4804F020F866
S3150800192000210B4804F01CF89FED0A0A0020FFF777
S3150800193017FF9FED080A0120FFF712FF064B00224A
S315080019401A7000BF80BD00BF0000024000080040BA
S31508001950000C004000000000B208002080B500AF6F
S315080019600421084803F030FD0121074803F0F8FF79
S315080019700121064803F0F4FF054B01221A7000BF47
S3150800198080BD00BF0000024000080040000C004077
S31508001990B208002080B400AF034B1B781846BD463A
S315080019A05DF8047B704700BFB208002080B584B09C
S315080019B000AF0346FB8000237B81FB8843F080034E
S315080019C03B81404B1B681021184603F00DFD3E4B2A
S315080019D01B680221184603F00DFF0346002B0CBFB7
S315080019E001230023DBB2002B00D0F0E7364B1B683F
S315080019F03A891146184603F0EDFE334B1B68012160
S31508001A00184603F0F7FE0346002B0CBF01230023FC
S31508001A10DBB2002B00D0F0E72B4B1B68184603F00F
S31508001A20CBFE03467B81284B1B680221184603F030
S31508001A30E1FE0346002B0CBF01230023DBB2002B7B
S31508001A4000D0F0E7204B1B680021184603F0C2FEC1
S31508001A501D4B1B680121184603F0CCFE0346002BDC
S31508001A600CBF01230023DBB2002B00D0F0E7164B96
S31508001A701B68184603F0A0FE03467B81124B1B68C1
S31508001A800221184603F0B6FE0346002B0CBF0123BD
S31508001A900023DBB2002B00D0F0E70A4B1B681021AD
S31508001AA0184603F091FC0023FB60FB68042B03DC5B
S31508001AB0FB680133FB60F8E77B8918461037BD469B
S31508001AC080BD00BF040000200000002080B584B05F
S31508001AD000AF03460A46FB801346BB803D4B1B6896
S31508001AE01021184603F080FC3B4B1B680221184660
S31508001AF003F080FE0346002B0CBF01230023DBB254
S31508001B00002B00D0F0E7344B1B68FA8811461846BC
S31508001B1003F060FE304B1B680121184603F06AFE8D
S31508001B200346002B0CBF01230023DBB2002B00D099
S31508001B30F0E7294B1B68184603F03EFE264B1B6848
S31508001B400221184603F056FE0346002B0CBF01235C
S31508001B500023DBB2002B00D0F0E71F4B1B68BA88C6
S31508001B601146184603F036FE1B4B1B680121184622
S31508001B7003F040FE0346002B0CBF01230023DBB213
S31508001B80002B00D0F0E7144B1B68184603F014FE30
S31508001B90114B1B680221184603F02CFE0346002B46
S31508001BA00CBF01230023DBB2002B00D0F0E7094B62
S31508001BB01B681021184603F007FC0023FB60FB682E
S31508001BC0092B03DCFB680133FB60F8E700BF10371D
S31508001BD0BD4680BD040000200000002090B585B0F9
S31508001BE000AF03460A46FB711346BB7100237B818F
S31508001BF00023FB810023BB81FB79002B02D0032B3A
S31508001C0018D02FE0BB79012B09D0022B0CD0002B62
S31508001C1000D029E04323FB814423BB8109E0452307
S31508001C20FB814623BB8104E04723FB814823BB8114
S31508001C3000BF19E0BB79012B09D0022B0CD0002B71
S31508001C4000D011E03B23FB813C23BB8109E03D2307
S31508001C50FB813E23BB8104E03F23FB814023BB81FC
S31508001C6000BF01E07B890FE0FB891846FFF79EFE5F
S31508001C7003461B029CB2BB891846FFF797FE03462C
S31508001C8023449BB27B817B891BB218461437BD4619
S31508001C9090BD00BF80B500AF00216B20FFF716FF8F
S31508001CA0EE216C20FFF712FF10216A20FFF70EFFC6
S31508001CB006216820FFF70AFF00211A20FFF706FF12
S31508001CC018211B20FFF702FF18211C20FFF7FEFE34
S31508001CD000BF80BD80B500AF02210020FFF77EFF60
S31508001CE003469BB25B429BB29AB2024B1A8000BF74
S31508001CF080BD00BFB408002080B400AF064B4FF08B
S31508001D0000021A60054B4FF000021A6000BFBD467C
S31508001D105DF8047B704700BFB8080020BC080020A7
S31508001D2080B400AF094BD3ED007A9FED097A27EE10
S31508001D30877A084BD3ED007A77EE277A054BC3ED01
S31508001D40007A00BFBD465DF8047B7047C4080020D2
S31508001D506F12833ABC08002098B500AF164B1B8853
S31508001D601BB207EE903AB8EEE77A144BD3ED007A39
S31508001D7077EE677A17EE900AFEF7D8FB0CA3D3E93D
S31508001D800023FEF751FD03460C4618462146FEF78A
S31508001D90DBFE034600EE103A02F0C2FFF0EE407A90
S31508001DA0074BC3ED007A00BF98BD00BFAFF30080B4
S31508001DB06666666666663040B4080020C00800207D
S31508001DC0C408002080B400AF044B1B6807EE903AA5
S31508001DD0B0EE670ABD465DF8047B7047C40800206C
S31508001DE090B585B000AF4FF00003FB604FF00003DD
S31508001DF0BB600023FB71FB790133312B33D8FB79A8
S31508001E000133FA796C4992000A4412686A499B00C0
S31508001E100B441A60FB790133674A9B001344D3EDE0
S31508001E20007A97ED037A77EE277AC7ED037AFB797E
S31508001E300133FA79614992000A4412685F499B00A6
S31508001E400B441A60FB7901335C4A9B001344D3EDBB
S31508001E50007A97ED027A77EE277AC7ED027AFB7950
S31508001E600133FB71C7E7564B5B6A07EE903AF8EE0B
S31508001E70677A9FED547A77EE677A17EE900AFEF73F
S31508001E8055FB47A3D3E90023FEF7A4FB03460C46FC
S31508001E901846214644A3D3E90023FEF7C5FC0346AA
S31508001EA00C461846214642A3D3E90023FEF792FBC7
S31508001EB003460C4618462146FEF746FE02463E4BAA
S31508001EC01A604FF080435B6A07EE903AF8EE677A3D
S31508001ED09FED3C7A77EEC77A17EE900AFEF726FB57
S31508001EE02FA3D3E90023FEF775FB03460C461846D5
S31508001EF021462DA3D3E90023FEF796FC03460C469C
S31508001F00184621462AA3D3E90023FEF763FB0346B6
S31508001F100C4618462146FEF717FE0246274B1A605E
S31508001F204FF0804347F6FA725A62254B47F6FA7223
S31508001F305A62214BD3ED007A97ED037A77EE277A2A
S31508001F40C7ED037A1C4BD3ED007A97ED027A77EE4C
S31508001F50277AC7ED027A97ED037ADFED1B6AC7EE9B
S31508001F60267A1A4BC3ED007A97ED027ADFED166AE8
S31508001F70C7EE267A164BC3ED007A144B93ED007A1A
S31508001F80134BD3ED007A37EE277AF0EE006AC7EEE8
S31508001F90267A104BC3ED007A00BF1437BD4690BDB4
S31508001FA05D8940F50F22593FFCA9F1D24D62503F99
S31508001FB079E9263108AC7C3F40090020080A002050
S31508001FC00004004000F4FF4600004842D008002004
S31508001FD0CC080020D408002080B400AF044B1B684E
S31508001FE007EE903AB0EE670ABD465DF8047B704787
S31508001FF0D408002080B584B000AF03460A46FB71BA
S315080020001346BB71FB79042B23D801A252F823F09F
S3150800201025200008252000082F2000083B2000085E
S3150800202047200008144BFB6004237B8111E0134B07
S31508002030FB604FF400637B810BE0104BFB604FF4B1
S3150800204080637B8105E00D4BFB604FF480537B81F9
S3150800205000BFBB79002B05D07B891946F86803F0C9
S31508002060B3F904E07B891946F86803F0BDF900BFA7
S315080020701037BD4680BD00BF000C02400008024074
S3150800208080B584B000AF0346FB71FB79042B26D8D4
S3150800209001A252F823F000BFAD200008B7200008BF
S315080020A0C1200008CB200008D52000081E4BBB60C5
S315080020B00F23FB7313E01C4BBB600B23FB730EE073
S315080020C0194BBB600823FB7309E0174BBB600A2357
S315080020D0FB7304E0144BBB600E23FB7300BF0221A5
S315080020E0B86803F09FF8F97B00230122B86802F06C
S315080020F07BFFB86803F042F80221B86803F078F865
S315080021000346002B0CBF01230023DBB2002B00D0B3
S31508002110F2E7B86803F042F803461B119BB218466B
S315080021201037BD4680BD00BF0020014080B582B093
S3150800213000AF0346FB71FB7901211846FFF75AFFEA
S3150800214000BF0837BD4680BD80B582B000AF0346E4
S31508002150FB71FB7900211846FFF74CFF00BF0837D3
S31508002160BD4680BD80B500AF0020FFF7EDFF01201A
S31508002170FFF7EAFF0220FFF7E7FF0320FFF7E4FF78
S3150800218000BF80BDB0B485B000AF03460A46FB71F8
S315080021901346BB800023FB8100237B737B7B0133C3
S315080021A0132B29DCFA797B7B581CF9797C7B444D07
S315080021B00B469B000B449B00234435F813404049CB
S315080021C013469B0013449B000344224621F8132020
S315080021D0FA797B7B591C3A4813469B0013449B00AB
S315080021E00B4430F813309AB2FB8913449BB2FB8137
S315080021F07B7B01337B73D1E7FA79314913469B0020
S315080022001344DB000B44BA881A80FA89BB88134446
S315080022109BB2FB81FB79042B4DD801A252F823F01F
S31508002220352200084F220008692200088322000888
S315080022309D220008B7F90E30224A82FB0312D210FB
S31508002240DB17D31A9BB21BB21F4A136033E0B7F9E8
S315080022500E301C4A82FB0312D210DB17D31A9BB22C
S315080022601BB21A4A136026E0B7F90E30154A82FBEC
S315080022700312D210DB17D31A9BB21BB2144A13608F
S3150800228019E0B7F90E300F4A82FB0312D210DB179A
S31508002290D31A9BB21BB20F4A13600CE0B7F90E3083
S315080022A0084A82FB0312D210DB17D31A9BB21BB261
S315080022B0094A136000BF00BF1437BD46B0BC70475B
S315080022C0D00A002067666666D8080020DC08002069
S315080022D0E0080020E4080020E808002090B589B04E
S315080022E000AF0346FB71FFF73DFF0020FFF7C8FE6E
S315080022F003469BB21BB21946002000F025F9FB796C
S31508002300002B0CD00020FFF711FF0023FB61FB69AF
S31508002310B3F57A7F03DAFB690133FB61F7E700203F
S31508002320FFF7AEFE03461C46002000F0D1F8034630
S315080023309BB2E31A9BB29BB21BB219460020FFF769
S3150800234021FF0020FFF700FF0021012000F0FCF824
S315080023500120FFF795FE03469BB21BB219460120E2
S3150800236000F0F2F8FB79002B0CD00120FFF7DEFE17
S315080023700023BB61BB69B3F57A7F03DABB69013316
S31508002380BB61F7E70120FFF77BFE03461C460120E9
S3150800239000F09EF803469BB2E31A9BB29BB21BB2AF
S315080023A019460120FFF7EEFE0120FFF7CDFE0220B9
S315080023B0FFF766FE03469BB21BB21946022000F0E1
S315080023C0C3F8FB79002B0CD00220FFF7AFFE0023E1
S315080023D07B617B69B3F5FA6F03DA7B6901337B614D
S315080023E0F7E70220FFF74CFE03461C46022000F0E2
S315080023F06FF803469BB2E31A9BB29BB21BB219460F
S315080024000220FFF7BFFE0220FFF79EFE0320FFF71C
S3150800241037FE03469BB21BB21946032000F094F818
S31508002420FB79002B0CD00320FFF780FE00233B61CD
S315080024303B69B3F57A7F03DA3B6901333B61F7E71A
S315080024400320FFF71DFE03461C46032000F040F854
S3150800245003469BB2E31A9BB29BB21BB219460320F2
S31508002460FFF790FE0320FFF76FFE0420FFF708FE34
S3150800247003469BB21BB21946042000F065F8FB79A7
S31508002480002B0CD00420FFF751FE0023FB60FB68ED
S31508002490B3F57A7F03DAFB680133FB60F7E70420BC
S315080024A0FFF7EEFD03461C46042000F011F803462C
S315080024B09BB2E31A9BB29BB21BB219460420FFF7E4
S315080024C061FE0420FFF740FE00BF2437BD4690BDDD
S315080024D080B483B000AF0346FB71FB79042B21D887
S315080024E001A252F823F000BFFD24000805250008C4
S315080024F00D250008152500081D2500080D4B1B682D
S315080025009BB210E00C4B1B689BB20CE00B4B1B6894
S315080025109BB208E00A4B1B689BB204E0094B1B6898
S315080025209BB200E000231BB218460C37BD465DF887
S31508002530047B7047EC080020F0080020F40800200F
S31508002540F8080020FC08002080B483B000AF0346DA
S315080025500A46FB711346BB80FB79042B25D801A2DA
S3150800256052F823F079250008832500088D250008F0
S3150800257097250008A1250008B7F904300E4A13600C
S3150800258013E0B7F904300D4A13600EE0B7F90430CA
S315080025900B4A136009E0B7F904300A4A136004E0ED
S315080025A0B7F90430084A136000BF00BF0C37BD46B0
S315080025B05DF8047B704700BFEC080020F008002097
S315080025C0F4080020F8080020FC08002080B483B036
S315080025D000AF0346FB71FB79042B21D801A252F800
S315080025E023F000BFF925000801260008092600087F
S315080025F011260008192600080D4B1B689BB210E02F
S315080026000C4B1B689BB20CE00B4B1B689BB208E09B
S315080026100A4B1B689BB204E0094B1B689BB200E09F
S3150800262000231BB218460C37BD465DF8047B70477D
S31508002630D8080020DC080020E0080020E408002074
S31508002640E808002090B583B000AF0346FB71FB791C
S31508002650012B2BD0022B15D0002B3BD10020FFF7E6
S31508002660B5FF03461C46002001F00CFE03469C42BB
S31508002670ACBF01230023DBB2002B01D001232AE0E3
S31508002680002328E00320FFF7A1FF03461C4603208A
S3150800269001F0F8FD03469C42ACBF01230023DBB2E0
S315080026A0002B01D0012316E0002314E00420FFF7D5
S315080026B08DFF03461C46042001F0E4FD03469C42B8
S315080026C0ACBF01230023DBB2002B01D0012302E0BB
S315080026D0002300E0002318460C37BD4690BD00BF16
S315080026E080B483B000AF0346FB71FB79012B1DD084
S315080026F0022B35D0002B4DD12B4BD3ED007A9FED15
S315080027002B7A27EE877A284BD3ED017ADFED286AF4
S3150800271067EEA67A37EE277A234BD3ED027ADFEDFA
S31508002720256A67EEA67A77EE277A35E0224BD3ED4F
S31508002730007A9FED227A27EE877A1F4BD3ED017A2E
S31508002740DFED1F6A67EEA67A37EE277A1A4BD3EDC6
S31508002750027ADFED186A67EEA67A77EE277A1BE02B
S31508002760184BD3ED007AB7EE007A27EE877A154B29
S31508002770D3ED017ADFED146A67EEA67A37EE277A8B
S31508002780104BD3ED027ADFED0B6A67EEA67A77EE89
S31508002790277A01E0DFED077AB0EE670A0C37BD4607
S315080027A05DF8047B704700BF040900200000204242
S315080027B00000D842000000001C09002000009643D3
S315080027C000007A44100900200AD7233C00000000C4
S315080027D0B0B52DED028B84B000AF4FF00003FB605F
S315080027E04FF00003BB60BA4B1B687B6001F028FE04
S315080027F0B0EE408AFFF7F0FBF0EE407A78EE677AA3
S31508002800B34BC3ED007AB24B5B681846FDF78EFEF4
S3150800281004460D46AE4B1B681846FDF787FEAAA36D
S31508002820D3E90023FDF7D6FE02460B462046294685
S31508002830FDF71EFD03460C4618462146FEF784F9A9
S315080028400246A34B5A60A34B1B687B6001F0F8FD58
S31508002850B0EE407AF4EE007AB4EEE77AF1EE10FACA
S3150800286094BF01230023DBB2002B05D04FF00003F1
S31508002870BB604FF00003FB6000F0ACFA0346002B88
S3150800288001D0FEF7C7FE00237B800020FFF7DAFEA3
S315080028900346002B59D00020FFF798FE002001F0D0
S315080028A0C5FC0020FFF792FE03469CB2002001F00B
S315080028B0BDFC03469BB2E31A9BB29BB27B80B7F979
S315080028C002300A2B40F3838000F084FA0346002B7B
S315080028D002D00220FEF706FD002001F0A7FC044600
S315080028E00020FFF773FE0346E31A1846FDF7FCFDC2
S315080028F003460C4618462146FEF726F9034607EE18
S31508002900903AF1EE677AC7ED037A0220FFF79AFE4E
S315080029100346002B0FD0032001F088FC0446032051
S31508002920FFF754FE0346E31A07EE903AF8EE677A85
S31508002930C7ED027A4BE04FF00003BB60D7ED037A90
S3150800294077EEA77AC7ED037A41E04FF00003FB6004
S315080029500220FFF777FE0346002B32D00120FFF74F
S3150800296035FE012001F062FC0120FFF72FFE034629
S315080029709CB2012001F05AFC03469BB2E31A9BB2B3
S315080029809BB27B80B7F902300A2B20DD032001F0C9
S315080029904DFC04460320FFF719FE0346E31A5B00C5
S315080029A007EE903AF8EE677AC7ED027AD7ED027A23
S315080029B0F5EEC07AF1EE10FA09DD4FF00003BB60C0
S315080029C005E04FF00003BB604FF00003FB6097ED96
S315080029D0037AD7ED027A77EE677AF1EE677A3D4B9E
S315080029E0C3ED007A3B4B5B681846FDF79FFD04462E
S315080029F00D46384B1B681846FDF798FD32A3D3E9F8
S31508002A000023FDF7E7FD02460B4620462946FDF75B
S31508002A102FFC03460C4618462146FEF795F8024653
S31508002A202C4B5A602C4B1B687B6001F027FDB0EEDF
S31508002A30408AFFF7C7F9F0EE407A78EE677A264BB8
S31508002A40C3ED007A244B5B681846FDF76FFD044614
S31508002A500D46214B1B681846FDF768FD1AA3D3E9F6
S31508002A600023FDF7B7FD02460B4620462946FDF72B
S31508002A70FFFB03460C4618462146FEF765F8024654
S31508002A80154B5A60134BD3ED007AF5EE407AF1EE0A
S31508002A9010FA06D000F09EF90346002B01D0012358
S31508002AA000E00023002B04D00B4B4FF000025A60C5
S31508002AB003E0084B4FF000025A6000BF1037BD46CE
S31508002AC0BDEC028BB0BD00BFFCA9F1D24D62503FF0
S31508002AD01C090020100900200409002080B500AF59
S31508002AE00120FFF7FDFDF0EE407AB0EE670A80BDE3
S31508002AF080B52DED028B00AF0D4B1B78002B0CD04B
S31508002B000020FFF7EDFDB0EE408A0220FFF7E8FD52
S31508002B10F0EE407A78EE677A04E00020FFF7E0FDF1
S31508002B20F0EE407AB0EE670ABD46BDEC028B80BD7A
S31508002B302909002080B400AF034B01221A7000BF98
S31508002B40BD465DF8047B70472909002080B400AFB4
S31508002B50034B01221A7000BFBD465DF8047B70471F
S31508002B602809002080B52DED028B82B000AF034600
S31508002B70FB7197F90730002B0AD1FFF7AFFFB0EECC
S31508002B80408AFFF7B5FFF0EE407A78EE677A09E0FB
S31508002B90FFF7A4FFB0EE408AFFF7AAFFF0EE407AEF
S31508002BA078EE277AB0EE670A0837BD46BDEC028B89
S31508002BB080BD00BF00000000B0B52DED028B84B0CB
S31508002BC000AF0346FB7197F90730002B18D101F0C7
S31508002BD037FCB0EE408A01F051FCB0EE407ADFEDEA
S31508002BE0487A67EE277AF0EE006A87EEA67ADFED76
S31508002BF0456AC7EE267A78EE677AC7ED037A17E054
S31508002C0001F01EFCB0EE408A01F038FCB0EE407AC6
S31508002C10DFED3B7A67EE277AF0EE006A87EEA67A52
S31508002C20DFED386AC7EE267A78EE277AC7ED037A9B
S31508002C30F868FDF77BFC2EA3D3E90023FDF7F4FD26
S31508002C4003460C46184621464FF000022E4BFDF768
S31508002C50C1FC03460C46184621464FF000022B4B92
S31508002C60FDF7E2FD03460C46184621464FF00002E2
S31508002C70274BFDF7AFFC03460C46184621464FF096
S31508002C800002244BFDF7D0FD03460C4618462146A4
S31508002C9019A3D3E90023FDF7C7FD03460C462546CD
S31508002CA01C46FEF7F5FA10EE103A1846FDF73EFCFC
S31508002CB002460B4620462946FDF7B6FD03460C4656
S31508002CC0184621464FF00002134BFDF783FC0346D6
S31508002CD00C4618462146FDF737FF034607EE903A9D
S31508002CE0B0EE670A1037BD46BDEC028BB0BD00BF1B
S31508002CF0DFB035A7070F073F3333333333D36B4082
S31508002D000000304200007A4400804440000022401F
S31508002D1000001640000012400000594080B582B0FD
S31508002D2000AF00F04BF80346002B3FD0214B1B7831
S31508002D30002B03D1204B1B78002B37D04FF0000314
S31508002D407B604FF000033B601A4B1B78002B09D0C1
S31508002D500020FFF731FF87ED010A0220FFF72CFF5D
S31508002D6087ED000A144B1B78002B15D00020FFF7BF
S31508002D70F9FEB0EE407AD7ED017A77EE877AC7ED9D
S31508002D80017A0220FFF7EEFEB0EE407AD7ED007A20
S31508002D9077EE877AC7ED007A97ED010A0120FEF7EC
S31508002DA0DFFC97ED000A0020FEF7DAFC00BF0837C3
S31508002DB0BD4680BD2A0900200800002080B400AF67
S31508002DC0034B1B781846BD465DF8047B704700BF69
S31508002DD02809002080B400AF034B1B781846BD466F
S31508002DE05DF8047B704700BF2909002080B400AF56
S31508002DF0144B4FF000021A60124B4FF000025A6053
S31508002E00104B4FF000029A600F4B4FF000021A6009
S31508002E100D4B4FF000025A600B4B4FF000029A60C0
S31508002E200A4B4FF000021A60084B4FF000025A6036
S31508002E30064B4FF000029A6000BFBD465DF8047B62
S31508002E40704700BF04090020100900201C09002053
S31508002E5080B483B000AF03463960FB7197F9073039
S31508002E60002B0BDA0D49FB7903F00F03043B3A6894
S31508002E70D2B21201D2B20B441A7609E0084997F980
S31508002E8007303A68D2B21201D2B20B4483F8002353
S31508002E9000BF0C37BD465DF8047B704700ED00E0C7
S31508002EA000E100E080B582B000AF78607B68013B46
S31508002EB0B3F1807F01D301230FE00A4A7B68013B07
S31508002EC053600F214FF0FF30FFF7C2FF054B00227A
S31508002ED09A60044B07221A60002318460837BD4635
S31508002EE080BD00BF10E000E080B500AF00F00EF82E
S31508002EF000F024F800F0F8F800F05EF900F0A2F906
S31508002F0000F008FA00F0D4FA00BF80BD80B584B09E
S31508002F1000AF01F07BFE3B46184602F0BFFA7B681D
S31508002F20054AA2FB03239B091846FFF7BBFF00BF10
S31508002F301037BD4680BD00BFD34D621080B582B044
S31508002F4000AF634A624B1B6823F0847323F4803313
S31508002F5013600121012002F04BFB0121022002F03F
S31508002F6047FB0121042002F043FB0121082002F05F
S31508002F703FFB0121802002F03BFB3B46184602F04E
S31508002F80EFF949F210033B6002237B7101233B7181
S31508002F900023BB710023FB713B4619464D4802F0DE
S31508002FA051F94FF480433B603B4619464A4802F0C4
S31508002FB049F94FF480433B6000233B710123FB71C1
S31508002FC03B461946434802F03DF93B46184602F08F
S31508002FD0C7F94DF60C433B6002237B7101233B7115
S31508002FE00023BB710023FB713B4619463B4802F0A0
S31508002FF029F90421394802F0E7F90821374802F08F
S31508003000E3F94FF48061354802F0DEF94FF40061C8
S31508003010324802F0D9F94FF48051304802F0D4F919
S315080030204FF480412D4802F0CFF94FF400412B4868
S3150800303002F0CAF93B46184602F092F903233B60B0
S3150800304002237B7101233B710023BB710023FB71B3
S315080030503B461946224802F0F5F80121204802F0BD
S31508003060B3F902211E4802F0AFF93B46184602F0B2
S3150800307077F94FF4E0533B6002237B7101233B71E0
S315080030800023BB710023FB713B461946134802F027
S31508003090D9F804233B603B461946124802F0D2F899
S315080030A04FF480610D4802F09FF94FF400610B4818
S315080030B002F09AF94FF48051084802F095F9042174
S315080030C0084802F091F900BF0837BD4680BD00BF29
S315080030D00038024000040240000002400008024096
S315080030E0001C0240000C024080B58CB000AF0121E4
S315080030F0022002F07DFA0121042002F079FA07F194
S315080031002803184602F02CF9032387F82C300023ED
S3150800311087F82F30022387F82D300323BB6207F187
S3150800312028031946214802F08DF83323BB6207F1BC
S31508003130280319461E4802F085F800211D4801F0AB
S3150800314037FF01214FF4807002F092FA01F0A4FED5
S3150800315000233B604FF480337B600023BB604FF451
S315080031607063FB603B46184601F0FAFE00233B619C
S3150800317000233B7500237B750023BB6100233B625C
S31508003180092387F8243007F110031946094801F086
S3150800319091FE0121074801F00BFF0021054802F0C6
S315080031A00BF800BF3037BD4680BD00BF00040240A3
S315080031B0000802400020014080B586B000AF01211A
S315080031C0102002F055FA0121012002F011FA072217
S315080031D009211A4802F018F907220A21174802F0AD
S315080031E013F94FF4C0633B6102237B7502233B75D9
S315080031F007F110031946114802F024F84FF4E13399
S315080032003B600023BB800023FB8000233B81002317
S31508003210BB810C237B813B461946094802F06EFDAB
S31508003220012240F22551064802F056FE01210448C3
S3150800323002F020FE00BF1837BD4680BD00000240E0
S315080032400010014080B588B000AF01214FF48050CE
S3150800325002F00EFA0121012002F0CAF907F118035B
S31508003260184602F07DF81023BB6101233B77032340
S315080032707B770023BB770023FB7707F118031946F2
S31508003280224801F0DFFF02233B77E023BB6107F109
S31508003290180319461D4801F0D5FF10211B4802F0F6
S315080032A093F805220521194802F0AEF805220621F1
S315080032B0164802F0A9F805220721144802F0A4F8D6
S315080032C00023BB804FF48273FB8000233B810023DD
S315080032D07B810023BB814FF44073FB8110233B8223
S315080032E000237B820723BB823B1D1946084802F050
S315080032F0FFF90121064802F03FFA1021034802F0BF
S3150800330063F800BF2037BD4680BD00BF00000240FD
S315080033100030014080B58AB000AF0121012002F0DB
S3150800332067F90121022002F063F904233B620323B3
S3150800333087F82530012387F82430002387F82630BC
S31508003340012387F8273007F120031946534801F06F
S3150800335079FF0421514802F047F80121042002F0C0
S3150800336067F90121082002F063F903233B6202236F
S3150800337087F82430022387F82530002387F826307B
S31508003380002387F8273007F120031946434801F040
S3150800339059FFC0233B6207F120031946404801F054
S315080033A051FF40F2EB43BB610023BB820023BB8382
S315080033B00023FB820023BB7707F11403194639481B
S315080033C002F034FA07F114031946374802F02EFAC8
S315080033D060233B800023BB8101237B800023BB60E5
S315080033E03B4619462F4802F0DBFA08212D4802F021
S315080033F0D9FB3B4619462B4802F04CFB08212948C5
S3150800340002F0ECFB3B461946274802F0C9FA0821A8
S31508003410254802F0C7FB3B461946234802F03AFB0B
S315080034200821214802F0DAFB01214FF0804002F022
S3150800343077FA01214FF0804002F0EEFB01211B488C
S3150800344002F06EFA0121194802F0E6FB0222062173
S31508003450134801F0D9FF02220721114801F0D4FFD1
S31508003460022200210D4801F0CFFF022201210B485C
S3150800347001F0CAFF01210B4802F052FA01210A485D
S3150800348002F04EFA0121074802F06AFA01210648BD
S3150800349002F066FA00BF2837BD4680BD000002402C
S315080034A00004024000080040000C004000040040F0
S315080034B080B586B000AF0121022002F099F80121FB
S315080034C0042002F095F80121012002F0B1F801214B
S315080034D0022002F0ADF802220621394801F094FFD5
S315080034E002220721364801F08FFF01220F213548B5
S315080034F001F08AFF01220321334801F085FF07F115
S315080035001003184601F02CFFC0233B6102233B75CC
S3150800351002237B750023BB750023FB7507F1100397
S315080035201946274801F08EFE4FF400433B6107F128
S3150800353010031946234801F085FE08233B6107F16D
S3150800354010031946204801F07DFE4FF6FE73BB6056
S315080035500023BB800023BB810023FB800023BB73B1
S315080035603B1D19464FF0804002F060F93B1D194695
S31508003570164802F05BF94FF6FF714FF0804002F0F3
S31508003580C1F90023002203214FF0804002F06AFBB4
S3150800359001214FF0804002F0E3F94FF6FF710B4826
S315080035A002F0B0F9002300220321084802F05AFB72
S315080035B00121064802F0D4F900BF1837BD4680BD80
S315080035C000080240000002400004024000040040D7
S315080035D0F0B587B002AF0023FB81B7F90E30632B35
S315080035E01CDC0023FB80FB889BB21BB242F20F72E5
S315080035F09342D4BF01230023DBB2002B08D0FB88FB
S315080036009BB29BB29BB201339BB29BB2FB80EAE7AB
S31508003610FB899BB201339BB2FB81DEE7FFF764FCB3
S3150800362000F0A8FEFDF734FE10EE103A1846FCF737
S315080036307DFF03460C461A462346A24801F066FA61
S31508003640FDF7E8FFFDF724FEB0EE407AF1EE007ACA
S31508003650B4EEE77AF1EE10FA4CBF01230023DBB291
S31508003660002B1AD0FEF704F84FF4FA7001F0AAFB03
S31508003670FDF7D0FF4FF4FA7001F0A4FB4FF4804138
S31508003680914801F087FE0346002B0CBF0123002357
S31508003690DBB2002B00D1E5E700BF0020FEF796FF5E
S315080036A003461946894801F031FA0120FEF78EFFD4
S315080036B003461946864801F029FA0220FEF786FFD6
S315080036C003461946834801F021FA0320FEF77EFFD8
S315080036D003461946804801F019FA0420FEF776FFDA
S315080036E0034619467D4801F011FA7D4801F00EFAA5
S315080036F0642001F067FB0420FEF768FF03461846BE
S31508003700FCF702FF04460D46042000F0BBFD034605
S315080037101846FCF7F9FE4FF00002724BFCF75AFF09
S3150800372002460B4611461A4601231E4613460A460A
S3150800373020462946FDF7DEF90346002B01D1002372
S315080037401E46F3B2002B00D1A7E700BFFEF7A2FA88
S315080037504FF47A710320FDF7DFFF0420FEF736FFEA
S3150800376003461846FCF7D0FE04460D46042000F032
S3150800377089FD03461846FCF7C7FE4FF00002594B71
S31508003780FCF728FF02460B4611461A4601231E4639
S3150800379013460A4620462946FDF78EF90346002BAE
S315080037A001D100231E46F3B2002B05D00122642165
S315080037B00820FDF78BFFD0E700F014FC4A4800F01C
S315080037C0D1FC494800F090FCFEF7C8F8FFF7BEF9AF
S315080037D09FED460A00F0E8FD9FED440A00F020FE42
S315080037E09FED420A00F0FEFD9FED400A00F036FE0E
S315080037F0FFF7FCFA9FED3D0A00F064FE00F04CFE70
S315080038000820FDF76FFD0021002000F06BFE012067
S3150800381000F08AFE4FF4FA710320FDF77DFFFFF7EB
S3150800382089F9334B334A1A600020DFED300A9FEDE1
S31508003830320A00F07FFF0520FDF754FD4FF47A7039
S3150800384001F0C0FAFEF762F8FDF7E4FE4FF4804196
S315080038501D4801F09FFD0346012B0CBF01230023E1
S31508003860DBB2002B00D0F1E70023BB60BB68B3F5E1
S31508003870FA6F21DA1E4ABB689B0013441B68184678
S31508003880FCF754FE05460E46194ABB6803F51C5359
S3150800389010339B0013441B681846FCF747FE034683
S315080038A00C46CDE900342A463346144801F02EF971
S315080038B0BB680133BB60D9E7012318461437BD46F8
S315080038C0F0BD00BF889C000800040240949C0008D4
S315080038D0A09C0008AC9C0008B89C0008C49C000882
S315080038E0D09C00080000F83F444701200000000073
S315080038F09C0B0020000080BFEC51383FD49C000888
S3150800390080B500AF4FF48041364801F05DFD364B77
S315080039101B680133344A136000F038FD0120FEF7B6
S31508003920DDFCFEF7D7F9FEF717FAFEF7F9F9FEF709
S3150800393057FA00F0ADFEFEF74BFFFFF7EFF9FEF77B
S3150800394029F80346002B45D0284B1B889BB2002B31
S315080039500CBF01230023DBB2002B11D0244BD3ED7F
S31508003960007ABFEE007AF4EE477AF1EE10FA31D11A
S315080039701E4B1B889BB201339AB21C4B1A8029E056
S315080039801A4B1B889BB242F20F72934294BF0123D3
S315080039900023DBB2002B1DD0144B1B889BB21846A4
S315080039A0144B1A68124983000B441A600F4B1B8884
S315080039B09BB218460F4B5A680D4900F51C53103335
S315080039C09B000B441A60094B1B889BB201339AB2C1
S315080039D0064B1A804FF48041024801F005FD00BFEE
S315080039E080BD00BF00000240980B00201C44012047
S315080039F09C0B00201009002080B485B000AF7860C9
S31508003A000B46FB701346BB70BB78002B02D0012314
S31508003A10FB7301E00023FB73FB781F2B00F2848104
S31508003A2001A252F823F000BFA93A0008BD3A0008DF
S31508003A30D13A0008E53A0008F93A00080D3B0008B3
S31508003A40213B0008353B0008493B00085D3B000860
S31508003A50713B0008853B0008993B0008AD3B000810
S31508003A60C13B0008D53B0008E93B0008FD3B0008C0
S31508003A70113C0008253C0008393C00084D3C00086C
S31508003A80613C0008753C0008893C00089D3C00081C
S31508003A90B13C0008C53C0008D93C0008ED3C0008CC
S31508003AA0013D0008153D0008FB7B03F00103D9B270
S31508003AB07A68137861F30003137035E1FB7B03F032
S31508003AC00103D9B27A68137861F3410313702BE1C5
S31508003AD0FB7B03F00103D9B27A68137861F382039A
S31508003AE0137021E1FB7B03F00103D9B27A681378DE
S31508003AF061F3C303137017E1FB7B03F00103D9B22B
S31508003B007A68137861F3041313700DE1FB7B03F0F5
S31508003B100103D9B27A68137861F34513137003E188
S31508003B20FB7B03F00103D9B27A68137861F3861335
S31508003B301370F9E0FB7B03F00103D9B27A681378B6
S31508003B4061F3C7131370EFE0FB7B03F00103D9B2EF
S31508003B507A68537861F300035370E5E0FB7B03F062
S31508003B600103D9B27A68537861F341035370DBE0F5
S31508003B70FB7B03F00103D9B27A68537861F38203B9
S31508003B805370D1E0FB7B03F00103D9B27A6853780E
S31508003B9061F3C3035370C7E0FB7B03F00103D9B29B
S31508003BA07A68537861F304135370BDE0FB7B03F026
S31508003BB00103D9B27A68537861F345135370B3E0B9
S31508003BC0FB7B03F00103D9B27A68537861F3861355
S31508003BD05370A9E0FB7B03F00103D9B27A685378E6
S31508003BE061F3C71353709FE0FB7B03F00103D9B25F
S31508003BF07A68937861F30003937095E0FB7B03F092
S31508003C000103D9B27A68937861F3410393708BE024
S31508003C10FB7B03F00103D9B27A68937861F38203D8
S31508003C20937081E0FB7B03F00103D9B27A6893783D
S31508003C3061F3C303937077E0FB7B03F00103D9B20A
S31508003C407A68937861F3041393706DE0FB7B03F055
S31508003C500103D9B27A68937861F34513937063E0E8
S31508003C60FB7B03F00103D9B27A68937861F3861374
S31508003C70937059E0FB7B03F00103D9B27A68937815
S31508003C8061F3C71393704FE0FB7B03F00103D9B2CE
S31508003C907A68D37861F30003D37045E0FB7B03F0C1
S31508003CA00103D9B27A68D37861F34103D3703BE054
S31508003CB0FB7B03F00103D9B27A68D37861F38203F8
S31508003CC0D37031E0FB7B03F00103D9B27A68D3786D
S31508003CD061F3C303D37027E0FB7B03F00103D9B27A
S31508003CE07A68D37861F30413D3701DE0FB7B03F085
S31508003CF00103D9B27A68D37861F34513D37013E018
S31508003D00FB7B03F00103D9B27A68D37861F3861393
S31508003D10D37009E0FB7B03F00103D9B27A68D37844
S31508003D2061F3C713D37000BF00BF1437BD465DF8F3
S31508003D30047B704780B584B000AF0346FB710B4621
S31508003D40BB7113467B71FB79FB73BB79BB737B79BC
S31508003D50002B02D07B79022B24D17B79002B08D04B
S31508003D607B79022B05D1FB79002B44D0FB79013BEB
S31508003D70FB73FB7B0F2B09D8BB7B9B00214A1344A3
S31508003D80F97B01221846FFF737FE37E000F0B2FC50
S31508003D901D4800F0BBFE1D4800F0B8FE1C4800F0A8
S31508003DA0B5FE2BE07B79012B02D07B79032B25D13D
S31508003DB07B79012B08D07B79032B05D1BB79002BA6
S31508003DC01BD0BB79013BBB73BB7B0F2B09D8FB7B95
S31508003DD09B00104A1344B97B01221846FFF70CFED4
S31508003DE00CE0094800F092FE0B4800F08FFE0848E8
S31508003DF000F08CFE02E000BF00E000BF1037BD46B1
S31508003E0080BD00BFA0440120E09C0008F09C00088B
S31508003E10389D0008E0440120549D000880B584B010
S31508003E2000AF0346FB710B46BB7113467B71FB79EA
S31508003E30FB73BB79BB737B79002B02D07B79022B92
S31508003E4022D17B79002B08D07B79022B05D1FB790F
S31508003E50002B42D0FB79013BFB73FB7B0F2B09D868
S31508003E60BB7B9B00204A1344F97B01221846FFF7C7
S31508003E70C3FD35E01D4800F049FE1D4800F046FE2A
S31508003E801C4800F043FE2BE07B79012B02D07B799E
S31508003E90032B25D17B79012B08D07B79032B05D100
S31508003EA0BB79002B1BD0BB79013BBB73BB7B0F2BAC
S31508003EB009D8FB7B9B00104A1344B97B012218469C
S31508003EC0FFF79AFD0CE0094800F020FE0B4800F0C9
S31508003ED01DFE084800F01AFE02E000BF00E000BF21
S31508003EE01037BD4680BD00BF20440120E09C000875
S31508003EF0EC9E00082C9F000860440120449F00089F
S31508003F0080B584B000AF0346FB710B46BB71134600
S31508003F107B71FB79FB73BB79BB737B79002B02D072
S31508003F207B79022B22D17B79002B08D07B79022B57
S31508003F3005D1FB79002B42D0FB79013BFB73FB7B58
S31508003F400F2B09D8BB7B9B00204A1344F97B002220
S31508003F501846FFF751FD35E01D4800F0D7FD1D480E
S31508003F6000F0D4FD1C4800F0D1FD2BE07B79012B35
S31508003F7002D07B79032B25D17B79012B08D07B795D
S31508003F80032B05D1BB79002B1BD0BB79013BBB7337
S31508003F90BB7B0F2B09D8FB7B9B00104A1344B97BCC
S31508003FA000221846FFF728FD0CE0094800F0AEFD90
S31508003FB00B4800F0ABFD084800F0A8FD02E000BF82
S31508003FC000E000BF1037BD4680BD00BF2044012079
S31508003FD0E09C0008EC9E0008849F000860440120CD
S31508003FE0449F000880B582B000AF00237B607B68E1
S31508003FF00F2B17DC384A7B68002142F82310374A12
S315080040007B68002142F82310354A7B68002142F874
S315080040102310344A7B68002142F823107B68013359
S315080040207B60E4E700233B603B680F2B3BDC3B6887
S31508004030DBB2022219460020FFF7F0FE3B68DBB22E
S31508004040022219460020FFF775FE3B68DBB2002204
S3150800405019460F20FFF7E2FE3B68DBB2002219463D
S315080040600F20FFF767FE3B68DBB2032200211846E4
S31508004070FFF7D4FE3B68DBB2032200211846FFF7A0
S3150800408059FE3B68DBB201220F211846FFF7C6FE30
S315080040903B68DBB201220F211846FFF74BFE3B684F
S315080040A001333B60C0E7002200210020FFF7B6FE7F
S315080040B0002200210020FFF73DFE012200210020FA
S315080040C0FFF71EFF012200210020FFF733FE00BF85
S315080040D00837BD4680BD00BF20440120604401204A
S315080040E0A0440120E044012080B485B000AF786088
S315080040F00023FB60FB680F2B26DC7B68FA6853F805
S3150800410022201449FB6841F823207B68FA6810329C
S3150800411053F822201049FB6841F823207B68FA6887
S31508004120203253F822200D49FB6841F823207B688A
S31508004130FA68303253F822200949FB6841F82320EF
S31508004140FB680133FB60D5E700BF1437BD465DF851
S31508004150047B70472044012060440120A0440120CC
S31508004160E044012080B485B000AF78600023FB608E
S31508004170FB680F2B26DC164AFB6852F823107B686F
S31508004180FA6843F82210134AFB6852F823107B6832
S31508004190FA68103243F822100F4AFB6852F82310C7
S315080041A07B68FA68203243F822100C4AFB6852F8FA
S315080041B023107B68FA68303243F82210FB68013313
S315080041C0FB60D5E700BF1437BD465DF8047B704732
S315080041D02044012060440120A0440120E04401203D
S315080041E080B582B000AF0346FB71FB79042B09D971
S315080041F000F080FAFB7919460A4800F087FC4FF070
S31508004200000307E0FA79084913465B0013449B004C
S315080042100B441B6807EE903AB0EE670A0837BD46AE
S3150800422080BD00BF30A20008B4A0000880B483B0E7
S3150800423000AF0346FB71FB79042B1BD801A252F889
S3150800424023F000BF594200085F4200086542000893
S315080042506B420008714200084FF4C8730BE04FF434
S315080042602A7308E042F2107305E04FF4967302E0F1
S31508004270002300E0002318460C37BD465DF8047B92
S31508004280704700BF80B483B000AF0346FB71FB796B
S31508004290042B1AD801A252F823F000BFB142000835
S315080042A0B7420008BD420008C1420008C5420008DE
S315080042B04FF4B9730AE04FF4167307E0002305E0DC
S315080042C0FA2303E040F2523300E000231BB21846FB
S315080042D00C37BD465DF8047B704700BF80B582B0D9
S315080042E000AF0346FB71FB79042B09D900F002FAEB
S315080042F0FB7919460A4800F009FC4FF0000308E06C
S31508004300FA79084913465B0013449B000B440433AF
S315080043101B6807EE903AB0EE670A0837BD4680BDBF
S3150800432064A20008B4A0000880B582B000AF0346B6
S31508004330FB71FB79042B09D900F0DCF9FB791946E6
S315080043400A4800F0E3FB4FF0000308E0FA79084951
S3150800435013465B0013449B000B4408331B6807EEA7
S31508004360903AB0EE670A0837BD4680BD9CA20008A1
S31508004370B4A0000880B400AF034B00221A6000BF47
S31508004380BD465DF8047B70474047012080B400AF06
S31508004390044B1B680133034A136000BFBD465DF832
S315080043A0047B70474047012080B483B000AF87ED97
S315080043B0010A044A7B68136000BF0C37BD465DF8E6
S315080043C0047B70472447012080B400AF044B1B6868
S315080043D007EE903AB0EE670ABD465DF8047B704773
S315080043E02447012080B483B000AF87ED010A044A50
S315080043F07B68136000BF0C37BD465DF8047B7047C9
S315080044002847012080B400AF044B1B6807EE903A9A
S31508004410B0EE670ABD465DF8047B70472847012061
S3150800442080B483B000AF87ED010A044A7B68136045
S3150800443000BF0C37BD465DF8047B70472C4701204A
S3150800444080B400AF044B1B6807EE903AB0EE670ADB
S31508004450BD465DF8047B70472C47012080B483B0C5
S3150800446000AF87ED010A044A7B68136000BF0C376A
S31508004470BD465DF8047B70473047012080B400AF25
S31508004480044B1B6807EE903AB0EE670ABD465DF826
S31508004490047B70473047012080B500AFFDF72CFC40
S315080044A0FFF768FF00BF80BD80B400AF044B1B68F0
S315080044B007EE903AB0EE670ABD465DF8047B704792
S315080044C03C47012080B483B000AF87ED010A044A57
S315080044D07B68136000BF0C37BD465DF8047B7047E8
S315080044E03C47012080B483B000AF03460A46FB71FF
S315080044F01346BB71FB7903F00F03D9B2094A137847
S3150800450061F303031370BB7903F00F03D9B2054AAD
S31508004510137861F30303137000BF0C37BD465DF8CB
S31508004520047B70474448012080B483B000AF03463B
S31508004530FB71044AFB79137000BF0C37BD465DF862
S31508004540047B704745480120B0B500AFFFF778FFF8
S3150800455010EE103A1846FBF7E9FF04460D46FFF73A
S3150800456033FF10EE103A1846FBF7E0FF1EA3D3E917
S315080045700023FCF72FF802460B4620462946FBF790
S3150800458077FE03460C4618462146FCF7DDFA034635
S3150800459000EE103AFFF744FFFFF770FF10EE103AEF
S315080045A01846FBF7C3FF04460D46FFF72BFF10EE30
S315080045B0103A1846FBF7BAFF0BA3D3E90023FCF71A
S315080045C009F802460B4620462946FBF751FE0346E4
S315080045D00C4618462146FCF7B7FA034600EE103A91
S315080045E0FFF73CFF00BFB0BDFCA9F1D24D62503FBA
S315080045F0B0B500AFFFF724FF10EE103A1846FBF7E8
S3150800460095FF1FA3D3E90023FBF7E4FF03460C46F7
S3150800461025461C461C4B1B681846FBF787FF224697
S315080046202B46FBF725FE03460C4618462146FCF7A3
S315080046308BFA0246144B1A60FFF702FF10EE103A87
S315080046401846FBF773FF0EA3D3E90023FBF7C2FF57
S3150800465003460C4625461C460C4B1B681846FBF7BA
S3150800466065FF22462B46FBF703FE03460C46184613
S315080046702146FCF769FA0246044B1A6000BFB0BD32
S31508004680FCA9F1D24D62503F3C4701203847012032
S31508004690B0B500AFFFF758FFFFF7AAFFFFF7EEFE2A
S315080046A010EE103A1846FBF741FF10A3D3E9002392
S315080046B0FBF790FF03460C4625461C460A4B1B682B
S315080046C01846FBF733FF22462B46FBF7D1FD034678
S315080046D00C4618462146FCF737FA0246024B1A6082
S315080046E000BFB0BDAFF3008034470120FCA9F1D26A
S315080046F04D62503F80B500AF4FF480410C4800F042
S3150800470049FE0346012B0CBF01230023DBB2002B15
S315080047100CD0FCF7ADFF4FF4FA7000F053FBFCF732
S3150800472079FF4FF4FA7000F04DFBE5E700BF80BD56
S315080047300004024080B52DED028B88B000AF87EDEE
S31508004740030AC7ED020A0346FB71FB791846FFF711
S31508004750C5FD87ED070AFB791846FFF741FDF0EE20
S31508004760407AF5EEC07AF1EE10FA08D5FB791846CC
S31508004770FFF736FDF0EE407AF1EE677A05E0FB7951
S315080047801846FFF72DFDF0EE407AC7ED067AFB795D
S315080047901846FFF7C9FDF0EE407AF5EEC07AF1EE5D
S315080047A010FA08D5FB791846FFF7BEFDF0EE407AF9
S315080047B0F1EE677A05E0FB791846FFF7B5FDF0EEEE
S315080047C0407AC7ED057AFFF73BFEB0EE408AFFF761
S315080047D037FEF0EE407A28EE277AD7ED026AD7ED53
S315080047E0027A66EEA77A77EE677AF5EEC07AF1EE88
S315080047F010FA14D5FFF724FEB0EE408AFFF720FE24
S31508004800F0EE407A28EE277AD7ED026AD7ED027ADB
S3150800481066EEA77A77EE677AF1EE677A11E0FFF728
S315080048200FFEB0EE408AFFF70BFEF0EE407A28EE58
S31508004830277AD7ED026AD7ED027A66EEA77A77EE7F
S31508004840677A97ED057A77EE076A87EEA67A87ED97
S31508004850047A97ED060AFFF7A7FDFFF7F1FDB0EE1C
S31508004860407AD7ED077AB4EEE77AF1EE10FA4CBF44
S3150800487001230023DBB2002B5BD0FFF7E1FDB0EE8E
S31508004880408AFFF7DDFDF0EE407A28EE277AD7ED6D
S31508004890026AD7ED027A66EEA77A77EE677AF5EEC0
S315080048A0C07AF1EE10FA14D5FFF7CAFDB0EE408AC9
S315080048B0FFF7C6FDF0EE407A28EE277AD7ED026AB2
S315080048C0D7ED027A66EEA77A77EE677AF1EE677A1F
S315080048D011E0FFF7B5FDB0EE408AFFF7B1FDF0EE47
S315080048E0407A28EE277AD7ED026AD7ED027A66EE85
S315080048F0A77A77EE677A97ED057A77EE076A87EEF5
S31508004900A67A87ED047AFFF7CFFDB0EE407AD7EDA9
S31508004910037A37EEC77AD7ED047AB4EEE77AF1EE82
S3150800492010FA94BF01230023DBB2002B00D194E7D1
S3150800493000BF9FED5A0AFFF737FDFFF781FDB0EE7E
S31508004940408AFFF77DFDF0EE407A28EE277AD7ED0C
S31508004950026AD7ED027A66EEA77A77EE677AF5EEFF
S31508004960C07AF1EE10FA14D5FFF76AFDB0EE408A68
S31508004970FFF766FDF0EE407A28EE277AD7ED026A51
S31508004980D7ED027A66EEA77A77EE677AF1EE677A5E
S3150800499011E0FFF755FDB0EE408AFFF751FDF0EE46
S315080049A0407A28EE277AD7ED026AD7ED027A66EEC4
S315080049B0A77A77EE677A97ED057A77EE076A87EE34
S315080049C0A67A87ED047AFFF76FFDB0EE407AD7ED49
S315080049D0037A37EEC77AD7ED047AB4EEE77AF1EEC2
S315080049E010FA94BF01230023DBB2002B00D1A4E701
S315080049F000BFD7ED057AF1EE677AB0EE670AFFF7E2
S31508004A00D3FCFFF71DFDB0EE407AD7ED027AB4EE7F
S31508004A10E77AF1EE10FACCBF01230023DBB2002BB4
S31508004A2011D0FFF741FDB0EE407AD7ED037AB4EE28
S31508004A30E77AF1EE10FACCBF01230023DBB2002B94
S31508004A4000D1DEE700BF9FED150AFFF7ADFC97ED35
S31508004A50020AFFF7E5FCD7ED027AF5EEC07AF1EE29
S31508004A6010FA10DDFFF720FDB0EE407AD7ED037A95
S31508004A70B4EEE77AF1EE10FA4CBF01230023DBB25D
S31508004A80002B00D0EEE79FED050AFFF71BFD00BFE0
S31508004A902037BD46BDEC028B80BD00BF000000007C
S31508004AA080B582B000AF0346FB71FB799BB219460D
S31508004AB0074801F0FFF900BF8021054801F054FAC4
S31508004AC00346002BF8D000BF0837BD4680BD00BF9F
S31508004AD00010014080B584B000AF78600B467B803B
S31508004AE00023FB8109E0FB897A6813441B78184682
S31508004AF0FFF7D6FFFB890133FB81FA89B7F9023044
S31508004B009A42F0DB00BF1037BD4680BD0FB480B5B2
S31508004B1082B000AF07F114033B603A683969094867
S31508004B2001F0D4FA78607B689BB21BB21946054837
S31508004B30FFF7D0FF7B6818460837BD46BDE88040BA
S31508004B4004B070474C48012080B400AF00BFBD4692
S31508004B505DF8047B704700BF80B400AFFEE700BF76
S31508004B6080B400AFFEE700BF80B400AFFEE700BF29
S31508004B7080B400AFFEE700BF80B400AF00BFBD46FB
S31508004B805DF8047B704700BF80B400AF00BFBD4628
S31508004B905DF8047B704700BF80B400AF00BFBD4618
S31508004BA05DF8047B704700BF80B500AFFEF7A8FE2E
S31508004BB000BF80BD80B584B000AF7860114B1B681C
S31508004BC0002B02D10F4B104A1A600E4B1B68FB6074
S31508004BD00C4B1A687B6813446A46934207D901F05E
S31508004BE0DFF902460C2313604FF0FF3306E0054B4E
S31508004BF01A687B681344034A1360FB681846103723
S31508004C00BD4680BDB4480120804C012080B500AF68
S31508004C10164A164BD3F8883043F47003C2F8883026
S31508004C20134A134B1B6843F001031360104B002211
S31508004C309A600F4A0E4B1B6823F0847323F4803363
S31508004C4013600B4B0B4A5A60094A094B1B6823F43D
S31508004C5080231360064B0022DA6000F00DF8034B40
S31508004C604FF000629A6000BF80BD00BF00ED00E013
S31508004C70003802401030002480B400AF234A234B8A
S31508004C801B6C43F080531364214A214B1B6843F481
S31508004C90404313601D4A1D4B9B6893601B4A1B4B80
S31508004CA09B6843F400439360184A184B9B6843F487
S31508004CB0A0539360154B174A5A60144A134B1B6846
S31508004CC043F08073136000BF104B1B6803F000733A
S31508004CD0002BF9D0104B40F205621A600B4A0B4BB9
S31508004CE09B6823F003039360084A084B9B6843F0CC
S31508004CF00203936000BF054B9B6803F00C03082B67
S31508004D00F9D100BFBD465DF8047B70470038024004
S31508004D100070004010540007003C024000000000EC
S31508004D2090B583B000AF87ED010A7868FBF7FEFB04
S31508004D300EA3D3E90023FBF74DFC03460C461846A1
S31508004D4021464FF00002084BFBF76EFD03460C4662
S31508004D5018462146FBF7F8FE034607EE903AB0EEF2
S31508004D60670A0C37BD4690BD008066406F1283C047
S31508004D70CA21094080B483B000AF7860044A7B68D2
S31508004D80136000BF0C37BD465DF8047B704700BF53
S31508004D90B848012080B400AF034B00221A6000BF58
S31508004DA0BD465DF8047B7047B848012080B400AF63
S31508004DB0034B1B681846BD465DF8047B704700BF69
S31508004DC0B848012080B584B000AF78600023FB6046
S31508004DD01A4B1B681846FFF7CDFFFFF7E7FF01469A
S31508004DE07A68174B9B1A99428CBF01230023DBB2C2
S31508004DF0002B07D0FFF7CEFF104B00221A607B6806
S31508004E00FB6005E0FFF7D2FF02467B681344FB60B0
S31508004E10FFF7CCFF0246FB689A4234BF0123002302
S31508004E20DBB2002B05D0054B1B681846FFF7A2FF1F
S31508004E30EEE700BF1037BD4680BD00BF980B0020C7
S31508004E400084D717DFF834D0002103E00C4B5B58F9
S31508004E50435004310B480C4B42189A42F6D30B4A7E
S31508004E6002E0002342F8043B094B9A42F9D3FFF7C4
S31508004E70CDFE01F09BF8FEF7ABFB70470000022061
S31508004E80A4A400080000002094080020940800202C
S31508004E90804C0120FEE7000080B500AF01214FF4E9
S31508004EA0807000F005FC00214FF4807000F000FCD3
S31508004EB000BF80BD80B485B000AF7860396000233C
S31508004EC0FB600023FB727B685B68FB60FB6823F072
S31508004ED0407323F48073FB603B681B791A023B68B6
S31508004EE01B681343FA681343FB607B68FA685A60C9
S31508004EF07B689B68FB60FA68184B1340FB603B684D
S31508004F001A693B68DB681A433B689B681A433B6827
S31508004F105B795B001343FA681343FB607B68FA68A6
S31508004F209A607B68DB6AFB60FB6823F47003FB60AE
S31508004F303B681B7D013BDAB2FB7A1343FB72FB7AB3
S31508004F401B05FA681343FB607B68FA68DA6200BFE0
S31508004F501437BD465DF8047B704700BFFDF7FFC0F8
S31508004F6080B485B000AF78600023FB600E4B5B68A9
S31508004F70FB60FA680D4B1340FB607B681A687B6818
S31508004F805B681A437B689B681A437B68DB68134334
S31508004F90FA681343FB60044AFB68536000BF143782
S31508004FA0BD465DF8047B704700230140E030FCFFF6
S31508004FB080B483B000AF78600B46FB70FB78002B9B
S31508004FC006D07B689B6843F001027B689A6005E01F
S31508004FD07B689B6823F001027B689A6000BF0C37E8
S31508004FE0BD465DF8047B704780B485B000AF786035
S31508004FF0084611461A460346FB700B46BB70134615
S315080050007B700023FB600023BB60FB78092B23D948
S315080050107B68DB68FB60FB78A3F10A0213465B003A
S315080050201344072202FA03F3BB60BB68DB43FA6842
S315080050301340FB607978FB78A3F10A0213465B00FC
S31508005040134401FA03F3BB60FA68BB681343FB60B9
S315080050507B68FA68DA601EE07B681B69FB60FA7891
S3150800506013465B001344072202FA03F3BB60BB68CE
S31508005070DB43FA681340FB607978FA7813465B00DD
S31508005080134401FA03F3BB60FA68BB681343FB6079
S315080050907B68FA681A61BB78062B21D87B685B6B3C
S315080050A0FB60BB785A1E13469B0013441F2202FA64
S315080050B003F3BB60BB68DB43FA681340FB60F9780F
S315080050C0BB785A1E13469B00134401FA03F3BB60D0
S315080050D0FA68BB681343FB607B68FA685A6347E063
S315080050E0BB780C2B21D87B681B6BFB60BB78DA1F5F
S315080050F013469B0013441F2202FA03F3BB60BB68E6
S31508005100DB43FA681340FB60F978BB78DA1F13466D
S315080051109B00134401FA03F3BB60FA68BB681343A8
S31508005120FB607B68FA681A6322E07B68DB6AFB60CF
S31508005130BB78A3F10D0213469B0013441F2202FA03
S3150800514003F3BB60BB68DB43FA681340FB60F9787E
S31508005150BB78A3F10D0213469B00134401FA03F32F
S31508005160BB60FA68BB681343FB607B68FA68DA625F
S3150800517000BF1437BD465DF8047B704780B483B022
S3150800518000AF78607B689B6843F080427B689A60D2
S3150800519000BF0C37BD465DF8047B704780B483B00A
S315080051A000AF78607B68DB6C9BB218460C37BD464F
S315080051B05DF8047B704700BF80B483B000AF7860A9
S315080051C00B46FB70FB78002B06D07B689B6843F484
S315080051D080727B689A6005E07B689B6823F480721E
S315080051E07B689A6000BF0C37BD465DF8047B704744
S315080051F080B485B000AF78600B46FB700023FB7364
S315080052007B681A68FB781340002B02D00123FB73D6
S3150800521001E00023FB73FB7B18461437BD465DF897
S31508005220047B704780B483B000AF78600B46FB7090
S31508005230FB78DA437B681A6000BF0C37BD465DF819
S31508005240047B704780B487B000AF7860396000236C
S315080052507B6100233B610023FB6000237B6176E0D2
S3150800526001227B6902FA03F33B613B681A683B69D2
S315080052701340FB60FA683B699A4265D17B681A68F5
S315080052807B695B00032101FA03F3DB431A407B6861
S315080052901A607B681A683B681B7919467B695B004C
S315080052A001FA03F31A437B681A603B681B79012BE2
S315080052B003D03B681B79022B2ED17B689A687B69E1
S315080052C05B00032101FA03F3DB431A407B689A600B
S315080052D07B689A683B685B7919467B695B0001FACB
S315080052E003F31A437B689A607B685A687B699BB2AA
S315080052F0012101FA03F3DB431A407B685A607B6895
S315080053005A683B689B7919467B699BB201FA03F395
S315080053109BB21A437B685A607B68DA687B699BB2E2
S315080053205B00032101FA03F3DB431A407B68DA606A
S315080053307B68DA683B68DB7919467B695B0001FAAA
S3150800534003F31A437B68DA607B6901337B617B6907
S315080053500F2B85D900BF1C37BD465DF8047B704707
S3150800536080B483B000AF78607B684FF6FF721A602E
S315080053707B6800221A717B6800225A717B680022BA
S315080053809A717B680022DA7100BF0C37BD465DF85A
S31508005390047B704780B485B000AF78600B467B808D
S315080053A00023FB737B681A697B881340002B02D0A5
S315080053B00123FB7301E00023FB73FB7B18461437BC
S315080053C0BD465DF8047B704780B483B000AF786053
S315080053D00B467B807B687A881A8300BF0C37BD46EC
S315080053E05DF8047B704700BF80B483B000AF786077
S315080053F00B467B807B687A885A8300BF0C37BD468C
S315080054005DF8047B704700BF80B485B000AF786054
S315080054100B467B8013467B700023FB600023BB6032
S315080054207A787B8803F007039B0002FA03F3FB6094
S315080054307B88DB089BB218467B88DB089BB21A463A
S315080054407B68083253F822207B8803F007039B0009
S315080054500F2101FA03F3DB4302EA03017B6800F13B
S31508005460080243F822107B88DB089BB21A467B6841
S31508005470083253F82220FB681343BB607B88DB089D
S315080054809BB21A467B680832B96843F8221000BFF7
S315080054901437BD465DF8047B704700BF80B489B0F9
S315080054A000AF78600023BB6100237B610023FB61AA
S315080054B002233B610023FB600223BB60484B9B68C9
S315080054C003F00C03BB61BB69042B07D0082B09D07A
S315080054D0002B3FD17B68434A1A603FE07B68424A0B
S315080054E01A603BE03E4B5B6803F480039B0DFB6050
S315080054F03B4B5B6803F03F03BB60FB68002B0DD09A
S31508005500394ABB68B2FBF3F2354B596847F6C073A4
S315080055100B409B0903FB02F3FB610CE0314ABB68B5
S31508005520B2FBF3F22E4B596847F6C0730B409B0942
S3150800553003FB02F3FB612A4B5B6803F440331B0C45
