S010000068616C666D6F7573652E6D6F74AD
S3150800000000000220051F0008FD1B00080D1C000843
S31508000010151C00081D1C0008251C0008000000000F
S315080000200000000000000000000000002D1C000871
S315080000303D1C0008000000004D1C00085D1C00085F
S31508000040551F0008551F0008551F0008551F0008B2
S31508000050551F0008551F0008551F0008551F0008A2
S31508000060551F0008551F0008551F0008551F000892
S31508000070551F0008551F0008551F0008551F000882
S31508000080551F0008551F0008551F0008551F000872
S31508000090551F0008551F0008551F0008551F000862
S315080000A0551F0008551F0008551F0008551F000852
S315080000B0551F0008551F0008551F0008551F000842
S315080000C0551F0008551F0008551F0008551F000832
S315080000D0551F0008551F0008551F0008551F000822
S315080000E0551F0008551F0008551F0008551F000812
S315080000F0551F0008551F0008551F0008551F000802
S31508000100551F0008551F0008551F0008551F0008F1
S31508000110551F0008551F0008551F0008551F0008E1
S31508000120551F0008551F0008551F0008551F0008D1
S31508000130551F00080000000000000000551F0008B9
S31508000140551F0008551F0008551F0008551F0008B1
S31508000150551F0008551F0008551F0008551F0008A1
S31508000160551F0008551F0008551F0008551F000891
S31508000170551F0008551F0008000000000000000079
S30D08000180551F0008551F000871
S315080001C0044B05481B1A062B02D9044B03B11847E2
S315080001D0704700BF87080020840800200000000040
S315080001E005490648091A891001EBD171491002D050
S315080001F0034B03B118477047840800208408002081
S315080002000000000010B5064C237843B9FFF7D8FF65
S31508000210044B13B10448AFF300800123237010BDCB
S3150800022084080020000000003467000808B5084B61
S315080002301BB108490848AFF300800848036813B99A
S31508000240BDE80840CCE7064B002BF9D09847F7E7FE
S315080002500000000088080020346700088408002091
S315080002600000000081F0004102E000BF83F0004377
S3150800027030B54FEA41044FEA430594EA050F08BF33
S3150800028090EA020F1FBF54EA000C55EA020C7FEAF7
S31508000290645C7FEA655C00F0E2804FEA5454D4EB74
S315080002A05555B8BF6D420CDD2C4480EA020281EA3E
S315080002B0030382EA000083EA010180EA020281EA76
S315080002C00303362D88BF30BD11F0004F4FEA0131C8
S315080002D04FF4801C4CEA113102D0404261EB4101D7
S315080002E013F0004F4FEA03334CEA133302D052425D
S315080002F063EB430394EA050F00F0A780A4F1010419
S31508000300D5F1200E0DDB02FA0EFC22FA05F2801852
S3150800031041F1000103FA0EF2801843FA05F3594138
S315080003200EE0A5F120050EF1200E012A03FA0EFCB7
S3150800033028BF4CF0020C43FA05F3C01851EBE371E1
S3150800034001F0004507D54FF0000EDCF1000C7EEBFE
S3150800035000006EEB0101B1F5801F1BD3B1F5001F3C
S315080003600CD349085FEA30004FEA3C0C04F101045B
S315080003704FEA445212F5800F80F09A80BCF1004F84
S3150800038008BF5FEA500C50F1000041EB045141EA06
S31508000390050130BD5FEA4C0C404141EB010111F407
S315080003A0801FA4F10104E9D191F0000F04BF0146B2
S315080003B00020B1FA81F308BF2033A3F10B03B3F190
S315080003C020020CDA0C3208DD02F1140CC2F10C0220
S315080003D001FA0CF021FA02F10CE002F11402D8BF7E
S315080003E0C2F1200C01FA02F120FA0CFCDCBF41EA4A
S315080003F00C019040E41AA2BF01EB0451294330BD19
S315080004006FEA04041F3C1CDA0C340EDC04F11404F5
S31508000410C4F1200220FA04F001FA02F340EA0300CC
S3150800042021FA04F345EA030130BDC4F10C04C4F112
S31508000430200220FA02F001FA04F340EA03002946F2
S3150800044030BD21FA04F0294630BD94F0000F83F43C
S31508000450801306BF81F480110134013D4EE77FEA1F
S31508000460645C18BF7FEA655C29D094EA050F08BF6B
S3150800047090EA020F05D054EA000C04BF194610464C
S3150800048030BD91EA030F1EBF0021002030BD5FEA90
S31508000490545C05D14000494128BF41F0004130BDB8
S315080004A014F580043CBF01F5801130BD01F000450C
S315080004B045F0FE4141F470014FF0000030BD7FEA7F
S315080004C0645C1ABF194610467FEA655C1CBF0B467A
S315080004D0024650EA013406BF52EA033591EA030F91
S315080004E041F4002130BD00BF90F0000F04BF002189
S315080004F0704730B54FF4806404F132044FF00005BC
S315080005004FF0000150E700BF90F0000F04BF002134
S31508000510704730B54FF4806404F1320410F000459A
S3150800052048BF40424FF000013EE700BF42004FEA95
S31508000530E2014FEA31014FEA02701FBF12F07F4312
S3150800054093F07F4F81F06051704792F0000F14BF0F
S3150800055093F07F4F704730B54FF4607401F0004553
S3150800056021F0004120E700BF50EA010208BF7047AA
S3150800057030B54FF000050AE050EA010208BF70479F
S3150800058030B511F0004502D5404261EB41014FF408
S31508000590806404F132045FEA915C3FF4DCAE4FF00C
S315080005A003025FEADC0C18BF03325FEADC0C18BFF3
S315080005B0033202EBDC02C2F1200300FA03FC20FA44
S315080005C002F001FA03FE40EA0E0021FA02F1144491
S315080005D0C1E600BF70B54FF0FF0C4CF4E06C1CEAA6
S315080005E011541DBF1CEA135594EA0C0F95EA0C0F1B
S315080005F000F0DEF82C4481EA030621EA4C5123EA8E
S315080006004C5350EA013518BF52EA033541F48011BC
S3150800061043F4801338D0A0FB02CE4FF00005E1FB6F
S3150800062002E506F00042E0FB03E54FF00006E1FBB9
S3150800063003569CF0000F18BF4EF0010EA4F1FF04FC
S31508000640B6F5007F64F5407404D25FEA4E0E6D413C
S3150800065046EB060642EAC62141EA55514FEAC5204D
S3150800066040EA5E504FEACE2EB4F1FD0C88BFBCF5C9
S31508000670E06F1ED8BEF1004F08BF5FEA500E50F17A
S31508000680000041EB045170BD06F0004646EA010140
S3150800069040EA020081EA0301B4EB5C04C2BFD4EB72
S315080006A00C0541EA045170BD41F480114FF0000E6B
S315080006B0013C00F3AB8014F1360FDEBF002001F0D9
S315080006C0004170BDC4F10004203C35DA0C341BDC53
S315080006D004F11404C4F1200500FA05F320FA04F025
S315080006E001FA05F240EA020001F0004221F0004159
S315080006F010EBD37021FA04F642EB06015EEA430ECC
S3150800070008BF20EAD37070BDC4F10C04C4F12005FB
S3150800071000FA04F320FA05F001FA04F240EA0200AE
S3150800072001F0004110EBD37041F100015EEA430E7F
S3150800073008BF20EAD37070BDC4F1200500FA05F29F
S315080007404EEA020E20FA04F301FA05F243EA02031E
S3150800075021FA04F001F0004121FA04F220EA02002D
S3150800076000EBD3705EEA430E08BF20EAD37070BD73
S3150800077094F0000F0FD101F00046400041EB010153
S3150800078011F4801F08BF013CF7D041EA060195F035
S31508000790000F18BF704703F00046520043EB0303EF
S315080007A013F4801F08BF013DF7D043EA06037047DC
S315080007B094EA0C0F0CEA135518BF95EA0C0F0CD0E7
S315080007C050EA410618BF52EA4306D1D181EA03012D
S315080007D001F000414FF0000070BD50EA410606BF27
S315080007E01046194652EA430619D094EA0C0F02D16C
S315080007F050EA013613D195EA0C0F05D152EA0336B1
S315080008001CBF104619460AD181EA030101F00041CE
S3150800081041F0FE4141F470014FF0000070BD41F017
S31508000820FE4141F4780170BD70B54FF0FF0C4CF4F1
S31508000830E06C1CEA11541DBF1CEA135594EA0C0F10
S3150800084095EA0C0F00F0A7F8A4EB050481EA030E5D
S3150800085052EA03354FEA013100F088804FEA033344
S315080008604FF0805545EA131343EA12634FEA022212
S3150800087045EA111545EA10654FEA00260EF00041D3
S315080008809D4208BF964244F1FD0404F5407402D225
S315080008905B084FEA3202B61A65EB03055B084FEAB6
S315080008A032024FF480104FF4002CB6EB020E75EBB3
S315080008B0030E22BFB61A754640EA0C005B084FEADB
S315080008C03202B6EB020E75EB030E22BFB61A754658
S315080008D040EA5C005B084FEA3202B6EB020E75EBA3
S315080008E0030E22BFB61A754640EA9C005B084FEA1B
S315080008F03202B6EB020E75EB030E22BFB61A754628
S3150800090040EADC0055EA060E18D04FEA051545EA16
S3150800091016754FEA06164FEAC30343EA52734FEABF
S31508000920C2025FEA1C1CC0D111F4801F0BD141EA38
S3150800093000014FF000004FF0004CB6E711F4801F9D
S3150800094004BF01430020B4F1FD0C88BFBCF5E06F7D
S315080009503FF6AFAEB5EB030C04BFB6EB020C5FEA8D
S31508000960500C50F1000041EB045170BD0EF0004EE2
S315080009704EEA113114EB5C04C2BFD4EB0C0541EA14
S31508000980045170BD41F480114FF0000E013C90E611
S3150800099045EA060E8DE60CEA135594EA0C0F08BFD5
S315080009A095EA0C0F3FF43BAF94EA0C0F0AD150EAD4
S315080009B001347FF434AF95EA0C0F7FF425AF104667
S315080009C019462CE795EA0C0F06D152EA03353FF48F
S315080009D0FDAE1046194622E750EA410618BF52EA0C
S315080009E043067FF4C5AE50EA41047FF40DAF52EAE0
S315080009F043057FF4EBAE12E74FF0FF3C06E000BF7D
S31508000A004FF0010C02E000BF4FF0010C4DF804CD89
S31508000A104FEA410C7FEA6C5C4FEA430C18BF7FEA49
S31508000A206C5C1BD001B050EA410C0CBF52EA430C77
S31508000A3091EA030F02BF90EA020F0020704710F1F7
S31508000A40000F91EA030F58BF994208BF90422CBF86
S31508000A50D8176FEAE37040F0010070474FEA410C7F
S31508000A607FEA6C5C02D150EA013C07D14FEA430C9D
S31508000A707FEA6C5CD6D152EA033CD3D05DF8040B0E
S31508000A80704700BF8446104662468C461946634640
S31508000A9000E000BF01B5FFF7B7FF002848BF10F117
S31508000AA0000F01BD4DF808EDFFF7F4FF0CBF01205C
S31508000AB000205DF808FB00BF4DF808EDFFF7EAFFD8
S31508000AC034BF012000205DF808FB00BF4DF808ED93
S31508000AD0FFF7E0FF94BF012000205DF808FB00BF88
S31508000AE04DF808EDFFF7CEFF94BF012000205DF812
S31508000AF008FB00BF4DF808EDFFF7C4FF34BF01201F
S31508000B0000205DF808FB00BF0000000000000000A0
S31508000B1001F0FF01102A2BDB10F0070F08D010F8A0
S31508000B20013B013A8B422DD010F0070F42B3F6D1A4
S31508000B30F0B441EA012141EA014122F007047FF0BD
S31508000B4000070023F0E80256083C85EA010586EA14
S31508000B50010685FA47F5A3FA87F586FA47F6A5FA50
S31508000B6087F68EB9EED1F0BC01F0FF0102F007025C
S31508000B7032B110F8013B013A83EA010313B1F8D107
S31508000B800020704701387047002D06BF35460338E8
S31508000B90073815F0010F07D1013015F4807F02BF21
S31508000BA0013015F4C03F0130F0BC0138704700BF72
S31508000BB0844641EA000313F003036DD1403A41D35A
S31508000BC051F8043B40F8043B51F8043B40F8043B19
S31508000BD051F8043B40F8043B51F8043B40F8043B09
S31508000BE051F8043B40F8043B51F8043B40F8043BF9
S31508000BF051F8043B40F8043B51F8043B40F8043BE9
S31508000C0051F8043B40F8043B51F8043B40F8043BD8
S31508000C1051F8043B40F8043B51F8043B40F8043BC8
S31508000C2051F8043B40F8043B51F8043B40F8043BB8
S31508000C3051F8043B40F8043B51F8043B40F8043BA8
S31508000C40403ABDD2303211D351F8043B40F8043B48
S31508000C5051F8043B40F8043B51F8043B40F8043B88
S31508000C6051F8043B40F8043B103AEDD20C3205D358
S31508000C7051F8043B40F8043B043AF9D2043208D050
S31508000C80D2071CBF11F8013B00F8013B01D30B88C2
S31508000C9003806046704700BF082A13D38B078DD0A0
S31508000CA010F003038AD0C3F10403D21ADB071CBF72
S31508000CB011F8013B00F8013B80D331F8023B20F8DC
S31508000CC0023B7BE7043AD9D3013A11F8013B00F815
S31508000CD0013BF9D20B7803704B7843708B7883709D
S31508000CE06046704700000000000000000000000099
S31508000CF000000000000000000000000000000000E6
S31508000D0090F800F06DE9024520F007016FF0000C3D
S31508000D1010F0070491F820F040F049804FF00004E5
S31508000D206FF00700D1E9002391F840F000F10800C0
S31508000D3082FA4CF2A4FA8CF283FA4CF3A2FA8CF3F8
S31508000D404BBBD1E9022382FA4CF200F10800A4FA5F
S31508000D508CF283FA4CF3A2FA8CF3E3B9D1E90423B3
S31508000D6082FA4CF200F10800A4FA8CF283FA4CF3EA
S31508000D70A2FA8CF37BB9D1E9062301F1200182FAA4
S31508000D804CF200F10800A4FA8CF283FA4CF3A2FAAA
S31508000D908CF3002BC6D0002A04BF04301A4612BAB8
S31508000DA0B2FA82F2FDE8024500EBD2007047D1E9BB
S31508000DB0002304F00305C4F100004FEAC50514F04A
S31508000DC0040F91F840F00CFA05F562EA05021CBF1B
S31508000DD063EA050362464FF00004A9E74FEA4102B9
S31508000DE012F5001215D211D56FF47873B3EB62526F
S31508000DF012D94FEAC12343F0004343EA505311F096
S31508000E00004F23FA02F018BF404270474FF0000027
S31508000E10704750EA013005D111F0004008BF6FF065
S31508000E20004070474FF00000704700BF53B94AB9F9
S31508000E30002908BF00281CBF4FF0FF314FF0FF30D4
S31508000E4000F07EB9ADF1080C6DE904CE00F006F8A5
S31508000E50DDF804E0DDE9022304B070472DE9F04728
S31508000E608C460E460446089D002B50D18A421746EA
S31508000E706CD9B2FA82FEBEF1000F0BD0CEF1200477
S31508000E8020FA04F401FA0EF644EA060C02FA0EF702
S31508000E9000FA0EF44FEA1749220CBCFBF9F01FFAC8
S31508000EA087F809FB10C642EA064600FB08F3B34278
S31508000EB009D9F61900F1FF3280F02281B34240F2D7
S31508000EC01F8102383E44F61AA2B2B6FBF9F309FBB3
S31508000ED0136642EA064403FB08F8A04509D9E41953
S31508000EE003F1FF3280F00A81A04540F20781023BF8
S31508000EF03C44C8EB040443EA00400021002D62D0BC
S31508000F0024FA0EF400232C606B60BDE8F0878B4250
S31508000F1007D9002D55D0002185E841000846BDE8CF
S31508000F20F087B3FA83F1002940F09080B34202D3E8
S31508000F30824200F2F880841A66EB03060120B44662
S31508000F40002D40D085E81010BDE8F08712B90127BA
S31508000F50B7FBF2F7B7FA87FEBEF1000F35D1F31BE0
S31508000F604FEA17481FFA87FC0121B3FBF8F0220C59
S31508000F7008FB103642EA06460CFB00F3B34207D9D3
S31508000F80F61900F1FF3202D2B34200F2CE801046C3
S31508000F90F61AA2B2B6FBF8F308FB136642EA064451
S31508000FA00CFB03FCA44507D9E41903F1FF3202D26E
S31508000FB0A44500F2B5801346CCEB040443EA00408E
S31508000FC09CE729462846BDE8F087CEF1200106FAB7
S31508000FD00EF307FA0EF720FA01F94FEA1748CE4042
S31508000FE049EA0309B6FBF8FA4FEA194408FB1A66F8
S31508000FF01FFA87FC44EA06430AFB0CF29A4200FAF7
S315080010000EF40AD9DB190AF1FF3180F087809A427B
S3150800101040F28480AAF1020A3B449B1A1FFA89F916
S31508001020B3FBF8F108FB113349EA034301FB0CF65D
S315080010309E4207D9DB1901F1FF326BD29E4269D96C
S3150800104002393B449B1B41EA0A418EE7C1F1200E57
S3150800105022FA0EF48B40234320FA0EF706FA01F41F
S315080010604FEA134C26FA0EF63C43B6FBFCF9270C5E
S315080010700CFB19661FFA83F847EA064609FB08F7C8
S31508001080B74202FA01F200FA01FA08D9F61809F18C
S31508001090FF3041D2B7423FD9A9F102091E44F61BD7
S315080010A0A0B2B6FBFCF40CFB146640EA064704FB48
S315080010B008F8B84507D9FF1804F1FF3028D2B84513
S315080010C026D9023C1F4444EA0940C8EB0707A0FB9F
S315080010D002894F4544464E4614D329D065B3BAEB28
S315080010E0040367EB060707FA0EFECB40CF404EEA2D
S315080010F0030385E888000021BDE8F0871346F8E673
S315080011001046E0E6B8EB020469EB03060138E5E7AA
S315080011100446D8E7114695E78146C0E78A467CE744
S31508001120023B3C4448E708460AE702383E442FE7B4
S31508001130C245E7D33E46D1E72946BDE8F08700BF5A
S31508001140704700BF80B582B000AF0346FB71FB79DC
S31508001150092B02D900F08EF982E1FB79092B00F2FE
S315080011607F8101A252F823F091110008D9110008D5
S315080011702112000869120008B1120008F9120008C5
S315080011804113000889130008D11300081914000830
S315080011901021B54801F0AEF84FF48051B24801F07D
S315080011A0B9F80421B14801F0B5F80821AF4801F0B3
S315080011B0B1F84FF48041AD4801F0ACF84FF4004166
S315080011C0AA4801F0A7F80121A94801F0A3F80221CD
S315080011D0A74801F09FF843E11021A34801F08AF8D7
S315080011E04FF48051A04801F095F804219F4801F07A
S315080011F081F808219D4801F08DF84FF480419B48FD
S3150800120001F078F84FF40041984801F073F801218D
S31508001210974801F06FF80221954801F07BF81FE125
S315080012201021914801F076F84FF480518E4801F06C
S3150800123061F804218D4801F06DF808218B4801F00A
S3150800124069F84FF48041894801F064F84FF4004189
S31508001250864801F04FF80121854801F05BF8022124
S31508001260834801F057F8FBE010217F4801F052F857
S315080012704FF480517C4801F04DF804217B4801F079
S3150800128049F80821794801F045F84FF48041774834
S3150800129001F030F84FF40041744801F02BF80121B1
S315080012A0734801F037F80221714801F033F8D7E0A6
S315080012B010216D4801F02EF84FF480516A4801F06C
S315080012C029F80421694801F015F80821674801F052
S315080012D021F84FF48041654801F00CF84FF40041BD
S315080012E0624801F017F80121614801F003F802216C
S315080012F05F4801F00FF8B3E010215B4801F00AF8E7
S315080013004FF48051584801F005F80421574801F078
S3150800131001F80821554800F0FDFF4FF48041534875
S3150800132000F0E8FF4FF40041504800F0F3FF0121B8
S315080013304F4800F0EFFF02214D4800F0DBFF8FE039
S315080013401021494800F0E6FF4FF48051464800F066
S31508001350E1FF0421454800F0DDFF0821434800F07D
S31508001360D9FF4FF48041414800F0D4FF4FF40041C3
S315080013703E4800F0CFFF01213D4800F0CBFF022197
S315080013803B4800F0B7FF6BE01021374800F0B2FF8A
S315080013904FF48051344800F0BDFF0421334800F073
S315080013A0A9FF0821314800F0B5FF4FF480412F48C6
S315080013B000F0A0FF4FF400412C4800F0ABFF0121DC
S315080013C02B4800F0A7FF0221294800F0A3FF47E0B9
S315080013D01021254800F09EFF4FF48051224800F066
S315080013E099FF0421214800F095FF08211F4800F0C5
S315080013F091FF4FF480411D4800F08CFF4FF40041E7
S315080014001A4800F087FF0121194800F083FF0221DE
S31508001410174800F07FFF23E01021134800F07AFFF9
S315080014204FF48051104800F075FF04210F4800F072
S3150800143071FF08210D4800F06DFF4FF480410B48FD
S3150800144000F058FF4FF40041084800F063FF0121FF
S31508001450074800F05FFF0221054800F05BFF00BF68
S315080014600837BD4680BD00BF0004024000080240A0
S31508001470001C024080B500AF1021124800F04AFF58
S315080014804FF480510F4800F035FF04210E4800F054
S3150800149041FF08210C4800F03DFF4FF480410A48FF
S315080014A000F038FF4FF40041074800F033FF0121F0
S315080014B0064800F02FFF0221044800F01BFF00BF7A
S315080014C080BD00BF0004024000080240001C024024
S315080014D080B584B000AF03460A46FB711346BB804D
S315080014E0FB79FB60FB68002B0CDDFB68DBB218465A
S315080014F0FFF728FEBB88184600F0C4FCFB68013BD2
S31508001500FB60EFE70020FFF71DFE00BF1037BD4662
S3150800151080BD00BF80B483B000AF03463960FB715D
S3150800152097F90730002B0BDA0D49FB7903F00F0307
S31508001530043B3A68D2B21201D2B20B441A7609E0D9
S31508001540084997F907303A68D2B21201D2B20B4469
S3150800155083F8002300BF0C37BD465DF8047B70474F
S3150800156000ED00E000E100E080B582B000AF7860F1
S315080015707B68013BB3F1807F01D301230FE00A4A60
S315080015807B68013B53600F214FF0FF30FFF7C2FF26
S31508001590054B00229A60044B07221A60002318465E
S315080015A00837BD4680BD00BF10E000E080B500AF3B
S315080015B000F00AF800F04CF800F0D2F800F038F91C
S315080015C000F08EF900BF80BD80B588B000AF00F08E
S315080015D07FFB07F11003184600F0F6FE7B691A4AEE
S315080015E0A2FB03239B091846FFF7BEFF18233B738C
S315080015F003237B730023BB730123FB7307F10C03DF
S31508001600184600F0A9FC01214FF4803000F0A6FF2F
S3150800161040F2A3137B6009233B8000233B81002310
S315080016207B803B461946094801F076F801210748B0
S3150800163001F002F901220121044801F0D9F800BF9E
S315080016402037BD4680BD00BFD34D62100040014023
S3150800165080B582B000AF3E4A3D4B1B6823F08473C9
S3150800166023F4803313600121022000F057FF3B4624
S31508001670184600F025FE49F210033B6002237B71F1
S3150800168001233B710023BB710023FB713B461946BE
S31508001690304800F087FD0121042000F03FFF3B465B
S315080016A0184600F00DFE4DF60C433B6002237B7195
S315080016B001233B710023BB710023FB713B4619468E
S315080016C0254800F06FFD0421234800F013FE082189
S315080016D0214800F00FFE4FF480611F4800F00AFE13
S315080016E04FF400611C4800F005FE4FF480511A487B
S315080016F000F000FE4FF48041174800F0FBFD4FF460
S315080017000041154800F0F6FD0121802000F006FF93
S315080017103B46184600F0D4FD03233B6002237B7149
S3150800172001233B710023BB710023FB713B4619461D
S315080017300A4800F037FD0121084800F0DBFD0221C8
S31508001740064800F0D7FD00BF0837BD4680BD00BF7C
S31508001750003802400004024000080240001C024013
S3150800176080B58CB000AF0121022000F0D7FE012120
S31508001770042000F0D3FE07F12803184600F0A0FD68
S31508001780032387F82C30002387F82F30022387F8A5
S315080017902D300323BB6207F128031946214800F0C0
S315080017A001FD3323BB6207F1280319461E4800F0E2
S315080017B0F9FC00211D4800F0BDFC01214FF48070A2
S315080017C000F0CCFE00F02AFC00233B604FF4803387
S315080017D07B600023BB604FF47063FB603B46184692
S315080017E000F080FC00233B6100233B7500237B75DA
S315080017F00023BB614FF400633B62092387F824305A
S3150800180007F110031946094800F016FC012107489C
S3150800181000F090FC0021054800F0A8FC00BF303716
S31508001820BD4680BD00040240000802400020014079
S3150800183080B586B000AF0121012000F06FFE0121BE
S31508001840102000F08BFE07F11003184600F038FD53
S3150800185007220921204800F06DFD4FF400733B6113
S3150800186002237B7502233B7507F1100319461A48B4
S3150800187000F098FC07F11003184600F021FD072236
S315080018800A21154800F056FD4FF480633B61022398
S315080018907B7500233B7507F1100319460E4800F0C7
S315080018A081FC4FF416533B600023FB800023BB8169
S315080018B00C237B8100233B810023FB803B46194692
S315080018C0064800F0CBFF0121044801F083F800BF69
S315080018D01837BD4680BD00BF000002400010014019
S315080018E080B588B000AF01214FF4805000F036FE75
S315080018F00121012000F012FE07F11803184600F036
S31508001900DFFC4FF40043BB6101233B7703237B775E
S315080019100023BB770023FB7707F1180319462248F3
S3150800192000F040FC02233B77E023BB6107F1180374
S3150800193019461D4800F036FC10211B4800F0DAFC59
S3150800194005220521184800F0F5FC0522062116484F
S3150800195000F0F0FC05220721134800F0EBFC0023F9
S31508001960BB804FF48273FB8000233B8102237B817B
S315080019700023BB814FF44073FB8110233B82002375
S315080019807B820723BB823B1D1946084800F026FECA
S315080019900121064800F066FE1021034800F0AAFC63
S315080019A000BF2037BD4680BD000002400030014020
S315080019B080B582B000AFFFF7F9FD1021624800F04C
S315080019C099FC0520FFF7BEFB4FF4FA710320FFF7D9
S315080019D07FFD10215C4800F09DFC02215B4800F069
S315080019E07FFE0346002B0CBF01230023DBB2002B2E
S315080019F000D0F2E76B21554800F062FE01215348FA
S31508001A0000F06EFE0346002B0CBF01230023DBB259
S31508001A10002B00D0F2E74D4800F044FE02214B4867
S31508001A2000F05EFE0346002B0CBF01230023DBB249
S31508001A30002B00D0F2E70021444800F041FE0121C6
S31508001A40424800F04DFE0346002B0CBF012300233D
S31508001A50DBB2002B00D0F2E73C4800F023FE02215F
S31508001A603A4800F03DFE0346002B0CBF0123002335
S31508001A70DBB2002B00D0F2E71021334800F03AFC25
S31508001A801021314800F046FC0221304800F028FEBB
S31508001A900346002B0CBF01230023DBB2002B00D02A
S31508001AA0F2E7F521294800F00BFE0121274800F04E
S31508001AB017FE0346002B0CBF01230023DBB2002BC5
S31508001AC000D0F2E7214800F0EDFD0346FB80022135
S31508001AD01E4800F005FE0346002B0CBF0123002319
S31508001AE0DBB2002B00D0F2E70021184800F0E8FD31
S31508001AF00121164800F0F4FD0346002B0CBF012314
S31508001B000023DBB2002B00D0F2E7104800F0CAFD34
S31508001B100346FB8002210D4800F0E2FD0346002B38
S31508001B200CBF01230023DBB2002B00D0F2E7102103
S31508001B30054800F0DFFBFB881946054800F040F829
S31508001B40642000F09FF9F6E70000024000300140EB
S31508001B505467000880B582B000AF0346FB71FB7975
S31508001B609BB21946074800F055FF00BF802105487B
S31508001B7000F062FF0346002BF8D000BF0837BD46C9
S31508001B8080BD00BF0010014080B584B000AF78600A
S31508001B900B467B800023FB8109E0FB897A681344A6
S31508001BA01B781846FFF7D6FFFB890133FB81FA89B4
S31508001BB0B7F902309A42F0DB00BF1037BD4680BD48
S31508001BC00FB480B582B000AF07F114033B603A68E2
S31508001BD03969094800F0E2FF78607B689BB21BB25E
S31508001BE019460548FFF7D0FF7B6818460837BD46F3
S31508001BF0BDE8804004B07047A008002080B400AF5C
S31508001C0000BFBD465DF8047B704700BF80B400AFD7
S31508001C10FEE700BF80B400AFFEE700BF80B400AFA8
S31508001C20FEE700BF80B400AFFEE700BF80B400AF98
S31508001C3000BFBD465DF8047B704700BF80B400AFA7
S31508001C4000BFBD465DF8047B704700BF80B400AF97
S31508001C5000BFBD465DF8047B704700BF80B400AF87
S31508001C60044B1B680133034A136000BFBD465DF889
S31508001C70047B70470409002080B584B000AF786003
S31508001C80114B1B68002B02D10F4B104A1A600E4BE2
S31508001C901B68FB600C4B1A687B6813446A469342C0
S31508001CA007D900F0E5FE02460C2313604FF0FF3318
S31508001CB006E0054B1A687B681344034A1360FB6801
S31508001CC018461037BD4680BD0C090020D80C0020E8
S31508001CD080B500AF164A164BD3F8883043F4700324
S31508001CE0C2F88830134A134B1B6843F0010313608C
S31508001CF0104B00229A600F4A0E4B1B6823F0847320
S31508001D0023F4803313600B4B0B4A5A60094A094B7C
S31508001D101B6823F480231360064B0022DA6000F068
S31508001D200DF8034B4FF000629A6000BF80BD00BFFC
S31508001D3000ED00E0003802401030002480B483B083
S31508001D4000AF00237B6000233B60364A354B1B6897
S31508001D5043F480331360334B1B6803F400333B6052
S31508001D607B6801337B603B68002B03D17B68B3F546
S31508001D70A04FF0D12B4B1B6803F40033002B02D085
S31508001D8001233B6001E000233B603B68012B42D105
S31508001D90244A244B1B6C43F080531364224A224B7B
S31508001DA01B6843F4404313601E4A1E4B9B689360AE
S31508001DB01C4A1C4B9B6843F400439360194A194B11
S31508001DC09B6843F4A0539360164B184A5A60154A09
S31508001DD0144B1B6843F08073136000BF114B1B68DC
S31508001DE003F00073002BF9D0114B40F205721A600C
S31508001DF00C4A0C4B9B6823F003039360094A094B72
S31508001E009B6843F00203936000BF064B9B6803F090
S31508001E100C03082BF9D100BF0C37BD465DF8047BCF
S31508001E20704700BF00380240007000401954400750
S31508001E30003C024080B483B000AF7860044A7B68F7
S31508001E40136000BF0C37BD465DF8047B704700BFC2
S31508001E501009002080B400AF034B00221A6000BFAF
S31508001E60BD465DF8047B70471009002080B400AFBA
S31508001E70034B1B681846BD465DF8047B704700BFD8
S31508001E801009002080B584B000AF78600023FB609D
S31508001E901A4B1B681846FFF7CDFFFFF7E7FF014609
S31508001EA07A68174B9B1A99428CBF01230023DBB231
S31508001EB0002B07D0FFF7CEFF104B00221A607B6875
S31508001EC0FB6005E0FFF7D2FF02467B681344FB6020
S31508001ED0FFF7CCFF0246FB689A4234BF0123002372
S31508001EE0DBB2002B05D0054B1B681846FFF7A2FF8F
S31508001EF0EEE700BF1037BD4680BD00BF04090020CD
S31508001F0000286BEEDFF834D0002103E00C4B5B5859
S31508001F10435004310B480C4B42189A42F6D30B4AED
S31508001F2002E0002342F8043B094B9A42F9D3FFF733
S31508001F30CFFE00F0A3FDFFF73BFD7047000002202F
S31508001F40F4680008000000208408002084080020A7
S31508001F50D80C0020FEE7000080B485B000AF78609A
S31508001F600023FB730023BB730F237B737B68DB782B
S31508001F70002B38D0274BDB68DB4303F4E0631B0AEE
S31508001F80FB73FB7BC3F10403BB737A7BFB7B42FACF
S31508001F9003F37B737B685B781A46BB7B02FA03F311
S31508001FA0FB737B689A787B7B1340DAB2FB7B13431F
S31508001FB0FB73FB7B1B01FB73174A7B681B78134477
S31508001FC0FA7B83F80023144A7B681B785B09DBB22B
S31508001FD018467B681B7803F01F03012101FA03F3F7
S31508001FE042F820300FE00C497B681B785B09DBB2AE
S31508001FF018467B681B7803F01F0301229A4000F1FC
S31508002000200341F8232000BF1437BD465DF8047B42
S31508002010704700BF00ED00E000E100E080B500AFCA
S3150800202001214FF4807000F0B9FA00214FF4807056
S3150800203000F0B4FA00BF80BD80B485B000AF786008
S3150800204039600023FB600023FB727B685B68FB60DA
S31508002050FB6823F0407323F48073FB603B681B79AD
S315080020601A023B681B681343FA681343FB607B68D4
S31508002070FA685A607B689B68FB60FA68184B1340DD
S31508002080FB603B681A693B68DB681A433B689B68D8
S315080020901A433B685B795B001343FA681343FB609A
S315080020A07B68FA689A607B68DB6AFB60FB6823F4E6
S315080020B07003FB603B681B7D013BDAB2FB7A134376
S315080020C0FB72FB7A1B05FA681343FB607B68FA68A8
S315080020D0DA6200BF1437BD465DF8047B704700BF5F
S315080020E0FDF7FFC080B485B000AF78600023FB60C1
S315080020F00E4B5B68FB60FA680D4B1340FB607B6810
S315080021001A687B685B681A437B689B681A437B6816
S31508002110DB681343FA681343FB60044AFB685360A1
S3150800212000BF1437BD465DF8047B704700230140A5
S31508002130E030FCFF80B483B000AF78600B46FB70DC
S31508002140FB78002B06D07B689B6843F001027B680E
S315080021509A6005E07B689B6823F001027B689A60B9
S3150800216000BF0C37BD465DF8047B704780B483B06A
S3150800217000AF78600B46FB70FB78002B06D07B68B7
S315080021809B6843F480727B689A6005E07B689B686D
S3150800219023F480727B689A6000BF0C37BD465DF8F1
S315080021A0047B704780B487B000AF7860396000233D
S315080021B07B6100233B610023FB6000237B6176E0A3
S315080021C001227B6902FA03F33B613B681A683B69A3
S315080021D01340FB60FA683B699A4265D17B681A68C6
S315080021E07B695B00032101FA03F3DB431A407B6832
S315080021F01A607B681A683B681B7919467B695B001D
S3150800220001FA03F31A437B681A603B681B79012BB2
S3150800221003D03B681B79022B2ED17B689A687B69B1
S315080022205B00032101FA03F3DB431A407B689A60DB
S315080022307B689A683B685B7919467B695B0001FA9B
S3150800224003F31A437B689A607B685A687B699BB27A
S31508002250012101FA03F3DB431A407B685A607B6865
S315080022605A683B689B7919467B699BB201FA03F366
S315080022709BB21A437B685A607B68DA687B699BB2B3
S315080022805B00032101FA03F3DB431A407B68DA603B
S315080022907B68DA683B68DB7919467B695B0001FA7B
S315080022A003F31A437B68DA607B6901337B617B69D8
S315080022B00F2B85D900BF1C37BD465DF8047B7047D8
S315080022C080B483B000AF78607B684FF6FF721A60FF
S315080022D07B6800221A717B6800225A717B6800228B
S315080022E09A717B680022DA7100BF0C37BD465DF82B
S315080022F0047B704780B483B000AF78600B467B8060
S315080023007B687A881A8300BF0C37BD465DF8047B64
S31508002310704700BF80B483B000AF78600B467B80FF
S315080023207B687A885A8300BF0C37BD465DF8047B04
S31508002330704700BF80B485B000AF78600B467B80DD
S3150800234013467B700023FB600023BB607A787B888A
S3150800235003F007039B0002FA03F3FB607B88DB08A4
S315080023609BB218467B88DB089BB21A467B68083204
S3150800237053F822207B8803F007039B000F2101FAFC
S3150800238003F3DB4302EA03017B6800F1080243F822
S3150800239022107B88DB089BB21A467B68083253F802
S315080023A02220FB681343BB607B88DB089BB21A4676
S315080023B07B680832B96843F8221000BF1437BD4657
S315080023C05DF8047B704700BF80B489B000AF7860C1
S315080023D00023BB6100237B610023FB6102233B6171
S315080023E00023FB600223BB60484B9B6803F00C0389
S315080023F0BB61BB69042B07D0082B09D0002B3FD142
S315080024007B68434A1A603FE07B68424A1A603BE0B1
S315080024103E4B5B6803F480039B0DFB603B4B5B689C
S3150800242003F03F03BB60FB68002B0DD0394ABB683D
S31508002430B2FBF3F2354B596847F6C0730B409B095C
S3150800244003FB02F3FB610CE0314ABB68B2FBF3F213
S315080024502E4B596847F6C0730B409B0903FB02F3E2
S31508002460FB612A4B5B6803F440331B0C01335B00AA
S315080024703B61FA693B69B2FBF3F27B681A6003E0D9
S315080024807B68234A1A6000BF204B9B6803F0F00361
S31508002490BB61BB691B09BB611F4ABB6913441B7837
S315080024A0DBB27B617B681A687B69DA407B685A60B5
S315080024B0164B9B6803F4E053BB61BB699B0ABB617F
S315080024C0154ABB6913441B78DBB27B617B685A6883
S315080024D07B69DA407B689A600C4B9B6803F460431F
S315080024E0BB61BB695B0BBB610B4ABB6913441B78B9
S315080024F0DBB27B617B685A687B69DA407B68DA60A5
S3150800250000BF2437BD465DF8047B7047003802409B
S315080025100024F40040787D010000002080B483B0D8
S3150800252000AF78600B46FB70FB78002B06D00A4993
S31508002530094B1A6B7B6813430B6306E00649064B87
S315080025401A6B7B68DB4313400B6300BF0C37BD4631
S315080025505DF8047B704700BF0038024080B483B042
S3150800256000AF78600B46FB70FB78002B06D00A4953
S31508002570094B5A6C7B6813434B6406E00649064BC5
S315080025805A6C7B68DB4313404B6400BF0C37BD466F
S315080025905DF8047B704700BF0038024080B483B002
S315080025A000AF78600B46FB70FB78002B06D00A4913
S315080025B0094B5A6A7B6813434B6206E00649064B89
S315080025C05A6A7B68DB4313404B6200BF0C37BD4633
S315080025D05DF8047B704700BF0038024080B485B0C0
S315080025E000AF786039600023FB817B681B88FB811C
S315080025F0FB8903F44153FB813B681A883B685B8877
S3150800260013439AB23B689B8813439AB23B68DB88AC
S3150800261013439AB23B681B8913439AB23B685B899A
S3150800262013439AB23B689B8913439AB23B68DB898A
S3150800263013439AB2FB891343FB817B68FA891A8094
S315080026407B689B8B9BB223F400639AB27B689A8360
S315080026503B681A8A7B681A8200BF1437BD465DF844
S31508002660047B704780B483B000AF78600B46FB707C
S31508002670FB78002B08D07B681B889BB243F040038D
S315080026809AB27B681A8007E07B681B889BB223F0A6
S3150800269040039AB27B681A8000BF0C37BD465DF8C6
S315080026A0047B704780B483B000AF78607B689B89F1
S315080026B09BB218460C37BD465DF8047B704700BFD1
S315080026C080B483B000AF78600B467B807B687A88DD
S315080026D09A8100BF0C37BD465DF8047B704700BF82
S315080026E080B485B000AF78600B467B800023FB730F
S315080026F07B681B899AB27B8813409BB2002B02D059
S315080027000123FB7301E00023FB73FB7B1846143798
S31508002710BD465DF8047B704780B485B000AF78602D
S3150800272039600023FB817B681B88FB817B68294A0B
S31508002730934213D07B68284A93420FD07B68B3F143
S31508002740804F0BD07B68254A934207D07B68244A82
S31508002750934203D07B68234A934208D1FB8923F02E
S315080027607003FB813B685A88FB891343FB817B68AE
S315080027701D4A93420CD07B681C4A934208D0FB89B9
S3150800278023F44073FB813B681A89FB891343FB8159
S315080027907B68FA891A803B685A687B68DA623B6804
S315080027A01A887B681A857B680A4A934203D07B6835
S315080027B0094A934204D13B689B7A9AB27B681A8687
S315080027C07B6801229A8200BF1437BD465DF8047BF8
S315080027D0704700BF000001400004014000040040AB
S315080027E000080040000C00400010004000140040A3
S315080027F080B483B000AF78600B467B8013467B704D
S315080028007B78002B08D07B689B899AB27B88134318
S315080028109AB27B689A8109E07B689B899AB27B8821
S31508002820DB439BB213409AB27B689A8100BF0C3790
S31508002830BD465DF8047B704780B483B000AF78600E
S315080028400B467B807B88DB439AB27B681A8200BF83
S315080028500C37BD465DF8047B704700BF80B58AB06B
S3150800286000AF7860396000237B6200233B62002357
S31508002870FB610023BB617B681B8A9BB27B627B6A18
S3150800288023F440537B623B68DB881A467B6A134312
S315080028907B627B6A9AB27B681A827B689B899BB249
S315080028A07B627B6A23F4B05323F00C037B623B689C
S315080028B09A883B681B8913439AB23B685B89134322
S315080028C09BB21A467B6A13437B627B6A9AB27B6821
S315080028D09A817B689B8A9BB27B627B6A23F44073EE
S315080028E07B623B689B891A467B6A13437B627B6AD9
S315080028F09AB27B689A8207F108031846FFF764FDC7
S315080029007B68314A934203D07B68304A934202D1AE
S315080029107B693B6201E03B693B627B689B899BB2B2
S315080029209BB21BB2002B0CDA3A6A13469B0013447F
S315080029309A001A443B681B685B00B2FBF3F3FB6121
S315080029400BE03A6A13469B0013449A001A443B6804
S315080029501B689B00B2FBF3F3FB61FB691C4AA2FBF5
S3150800296003235B091B017B627B6A1B09642202FB4A
S3150800297003F3FA69D31ABB617B689B899BB29BB246
S315080029801BB2002B0CDABB69DB003233104AA2FB00
S3150800299003235B0903F007037A6A13437B620BE0A0
S315080029A0BB691B0132330A4AA2FB03235B0903F006
S315080029B00F037A6A13437B627B6A9AB27B681A8131
S315080029C000BF2837BD4680BD0010014000140140F5
S315080029D01F85EB5180B483B000AF78600B46FB705F
S315080029E0FB78002B08D07B689B899BB243F4005385
S315080029F09AB27B689A8107E07B689B899BB223F42D
S31508002A0000539AB27B689A8100BF0C37BD465DF8C1
S31508002A10047B704780B483B000AF78600B467B8038
S31508002A207B88C3F308039AB27B689A8000BF0C3789
S31508002A30BD465DF8047B704780B485B000AF78600A
S31508002A400B467B800023FB737B681B889AB27B88C6
S31508002A5013409BB2002B02D00123FB7301E0002335
S31508002A60FB73FB7B18461437BD465DF8047B70473D
S31508002A70014B1868704700BF3804002070B50F4E28
S31508002A800F4D761BB61018BF002405D0013455F833
S31508002A90043B9847A642F9D10A4E0B4D761B03F024
S31508002AA049FEB61018BF002406D0013455F8043B79
S31508002AB09847A642F9D170BD70BD00BFE868000806
S31508002AC0E8680008F0680008E868000870B4840739
S31508002AD046D0541E002A41D0CDB2034602E0621EFB
S31508002AE0E4B3144603F8015B9A07F8D1032C2ED9F0
S31508002AF0CDB245EA05250F2C45EA054519D903F156
S31508002B0010022646103E0F2E42F8105C42F80C5C66
S31508002B1042F8085C42F8045C02F11002F2D8A4F10B
S31508002B20100222F00F0204F00F041032032C134493
S31508002B300DD91E462246043A032A46F8045BFAD8FB
S31508002B40221F22F003020432134404F003042CB1BA
S31508002B50C9B21C4403F8011BA342FBD170BC7047E1
S31508002B6014460346C2E700BFF0B59BB00D466FF0AA
S31508002B7000444FF402774FF6FF76694600950495B0
S31508002B80ADF80C7002940594ADF80E6000F038F8B4
S31508002B90009B00221A701BB0F0BD00BF10B4044C95
S31508002BA013460A46014620685DF8044BFFF7DCBF6A
S31508002BB038040020024B13B1024800F005B87047EC
S31508002BC000000000D52B0008002301461A461846C7
S31508002BD001F064BB38B5074D074C2C1BA41005D073
S31508002BE0013C55F8043D9847002CF9D1BDE838401A
S31508002BF003F0A6BDF4680008F068000800000000AD
S31508002C002DE9F04FBDB00C46049192460A93069002
S31508002C1002F044FB036811931846FEF771F8A3897E
S31508002C2012901D0603D52369002B01F036819FED0E
S31508002C30A47B00238DED0E7B109321932093139391
S31508002C4007932CAB1F9399469AF800305446EBB17C
S31508002C50252B02D11AE0252B03D014F8013F002BAF
S31508002C60F9D1CAEB04058DB1209B219AC9F800A0B9
S31508002C7001332A44072BC9F804502192209300F304
S31508002C80A68009F10809079B2B4407932378002B94
S31508002C9000F0A68000231A468DF85F30194608937F
S31508002CA003934FF0FF3B637804F1010A5D460AF18E
S31508002CB0010AA3F12000582800F21F84DFE810F06B
S31508002CC08B031D041D0493031D041D041D041D040C
S31508002CD01D041D049A03A8031D045D00E2001D04DB
S31508002CE006010D010D010D010D010D010D010D016D
S31508002CF00D010D011D041D041D041D041D041D04E4
S31508002D001D041D041D041D041D0185021D048502E4
S31508002D101D041D041D041D04C0021D041D04C70254
S31508002D201D041D041D041D041D04FA021D041D04B2
S31508002D3028031D041D041D041D041D041D041D0473
S31508002D401D041D041D0469037C0385028502850292
S31508002D5084037C031D041D04F2031D04FD03A30064
S31508002D606400AD031D04B4031D04D5031D041D042E
S31508002D70DD0308980A9340420890039B43F0040336
S31508002D8003939AF8003092E70A98AB460021046844
S31508002D908DF85F10071D0398302378228B458DF830
S31508002DA060304FF000058DF8612040F00203C0F254
S31508002DB0C18320F0800343F00203039354EA05031A
S31508002DC00A9700F08D830F460C923F48D1E21FAA5E
S31508002DD00499069803F074F848B90DF1B00952E75A
S31508002DE0219B23B1069804991FAA03F069F8049B4E
S31508002DF09B8913F0400F079B18BF4FF0FF33184607
S31508002E003DB0BDE8F08F0C93AB46002A41F02D8209
S31508002E10039A12F0200300F028820A9F073727F04A
S31508002E200703002703F10801BB450A91D3E90045CA
S31508002E308DF85F70C0F2D58622F08003039354EABA
S31508002E40050300F06F832CAEE20842EA4572E908F2
S31508002E5004F007030D461446303354EA050206F813
S31508002E60013DF1D1039AD10740F18C80302B00F057
S31508002E7089803022731E06F8012C2CAAD21A0992D0
S31508002E801E4682E09AF800302A2B0AF1010401F066
S31508002E90AD81A3F13000092898BF002501F2F8801A
S31508002EA014F8013B05EB850500EB4505A3F1300059
S31508002EB00928F5D945EAE575A246FAE6AFF3008092
S31508002EC0000000000000000098670008039B43F01C
S31508002ED0800303939AF80030E9E6A3F13000002353
S31508002EE01C461AF8013B04EB840400EB4404A3F1E6
S31508002EF030000928F5D90894DBE60C93AB46002A7E
S31508002F0041F0BB81039B43F010030393039B9C068C
S31508002F1040F121850A9F073727F00707D7E90023DD
S31508002F2007F108010A9114461D46002A73F10003A9
S31508002F30C0F24E85BBF1000F9DF85F70C0F229857F
S31508002F40039B23F08003039354EA050300F0D6811C
S31508002F50002D08BF0A2CC0F0D6812CAE2046294683
S31508002F600A220023FDF762FF303206F8012D2046BB
S31508002F70294600230A22FDF759FF04460D4654EA5E
S31508002F800503EBD12CAB9B1B0993099B5B45B8BF8B
S31508002F905B46059300230D9317B1059B01330593F3
S31508002FA0039B13F002030B9302D0059B0233059390
S31508002FB0039B13F0840840F0CA82089B059A9D1A61
S31508002FC0002D40F3C482102D2199209AB54F23DD98
S31508002FD048461024C146B046069E04E0103D102D12
S31508002FE000F1080015DD01321031072A21912092DF
S31508002FF007604460F2DD1FAA0499304602F060FFBC
S3150800300000287FF4F4AE103D102D2199209A2CA8A3
S31508003010E9DC4646C846814601326C18072A2194DF
S315080030202092C9F80070C9F8045000F320849DF86E
S315080030305F7009F1080977B1209B013301340DF15E
S315080030405F010122072B2194209389E8060000F3EB
S31508003050978309F108090B9B6BB1209B0133023456
S3150800306018A90222072B2194209389E8060000F369
S31508003070938309F10809B8F1800F00F0D482099BFF
S31508003080C3EB0B07002F3ADD102F209BDFF82082B9
S3150800309028DD41462246B0464FF0100B069D049C9B
S315080030A00E4604E0103F102F09F1080916DD01331A
S315080030B01032072B2192209389E84008F2DD1FAAD7
S315080030C02146284602F0FCFE00287FF490AE103F09
S315080030D0102F219A209B0DF1B009E8DC14463246E0
S315080030E04646904601333C44072B21942093C9F861
S315080030F00080C9F8047000F3378309F10809039BB7
S31508003100DA0500F12682209B0999C9F80060013387
S315080031100C44072B2194C9F80410209300F30E835E
S3150800312009F10809039B59073FD5089B059A9D1A7B
S31508003130002D3ADD102D209B5A4F23DD1026DDF891
S315080031401880DDF810B004E0103D102D09F10809CB
S3150800315018DD01331034072B21942093C9F8007029
S31508003160C9F80460F0DD1FAA5946404602F0A8FED9
S3150800317000287FF43CAE103D102D219C209B0DF1BC
S31508003180B009E6DC01332C44072B21942093C9F8B7
S315080031900070C9F8045008DD1FAA0499069802F0C1
S315080031A08FFE00287FF423AE219C079B089A059979
S315080031B08A42ACBF9B185B180793002C40F0CA8262
S315080031C0002320930DF1B0093EE50C93AB46002A87
S315080031D041F04F80039B0A9F1A0707F1070740F142
S315080031E0C78427F0070393ED007B8DED0E7B03F173
S315080031F008020A92DDE90E4545EC104B02F020FE66
S31508003200012840F09B840022002320462946FDF72A
S3150800321053FC002840F0D9869DF85F700399224E2A
S31508003220224B21F0800103910C9903224FF0000BE9
S3150800323005924729D8BF1E460992CDF834B0ABE6A9
S31508003240039B43F0080303939AF800302FE50C9389
S31508003250AB46002A41F00380039B43F01003039317
S31508003260039A12F020037FF4D8AD039911F01002E7
S3150800327000F0A5840A988DF85F30BBF1000F04684A
S3150800328000F104074FF00005C0F2AA840A4622F0AE
S315080032908002039254EA05020A9700F043811F460A
S315080032A0D1E500BF646700087867000874670008FE
S315080032B0B86700080C93AB46002A40F0CC87039BFE
S315080032C043F010030393039A12F0200300F02883B7
S315080032D00A9F073727F00703002703F10801BB45B4
S315080032E00A91D3E900458DF85F70C0F2528322F047
S315080032F08003039354EA05037FF42AAEBBF1000F5B
S3150800330000F0F58000243CAE303406F8414D39E62D
S315080033100C93AB46002A40F09A87039BAF489D065C
S3150800332040F1B5800A9F073727F00703D3E9004520
S3150800333003F108020A92039A12F0010700F0388294
S3150800334054EA050300F087849DF830208DF8612043
S315080033500027039A8DF85F703023BB458DF86030DF
S3150800336042F00203C0F22E8622F0800343F00203E5
S3150800337003932CAE230904F00F0143EA05732A09C7
S315080033801C461546435C06F8013D54EA0503F1D18F
S31508003390F8E50A990C930A688DF8882000230A46EE
S315080033A01F468DF85F30043201230593BB460D97FF
S315080033B00A92099322AEF3E50C93AB46002A3FF432
S315080033C0A5AD8DF85F10A1E5039B43F04003039379
S315080033D09AF800306BE49AF8003000297FF467AC5D
S315080033E00122202163E4039B43F0010303939AF827
S315080033F000305CE40A9C2368089318460028234694
S3150800340003F10403FFF6B5AC0A939AF800304EE4CC
S315080034109AF8003001222B2149E4039B43F020034C
S3150800342003939AF8003042E40A9A0C93166800242B
S315080034308DF85F40171D002E00F0AB85002DC0F2F9
S3150800344067852A4621463046FDF762FB002800F0CC
S31508003450DB85831B0993A34623EAE3730A9705933F
S31508003460CDF834B09DF85F7096E50C93AB46002A0C
S315080034703FF429AF8DF85F1025E70C93AB46002A79
S3150800348040F00387039B56489D063FF54BAF039BC9
S31508003490DC0640F1C0830A9A1346043314680A937B
S315080034A0002548E79AF800306C2B00F05284039800
S315080034B040F010000390FFF7FABB002A40F0E186BF
S315080034C0039B9B0640F190830A9A07991368CD17C8
S315080034D00846043229460A92C3E90001FFF7B4BB3D
S315080034E03F480C92BBF1000F40F073815F464FF0E6
S315080034F0000BCDF824B02CAE47E50C93002A40F01B
S31508003500A2860C9A002A3FF46BAC002301211F46C1
S3150800351005918DF888208DF85F309B460D930991AB
S3150800352022AE3DE5BBF1000F00F06E8600270024B1
S31508003530002588E42A4803930C9254EA05030A975F
S315080035404FF000077FF415AF0024002511E7219CF2
S3150800355071E50C9B652B40F3A98000220023DDE969
S315080035600E01FDF79FFA002800F03581209B1D4AC1
S31508003570C9F80020013301340122072B2194209336
S31508003580C9F8042000F3728309F10809199B109AF7
S31508003590934203DB039BDB077FF5C4AD209B12999F
S315080035A0119AC9F8002001330C44072B2194C9F855
S315080035B00410209300F3D78309F10809109B5D1EB8
S315080035C0002D7FF7AFAD102D209BDFF81C8040F350
S315080035D0E6811026069FDDF810B00DE08467000826
S315080035E098670008B4670008B867000809F1080971
S315080035F0103D102D40F3D38101331034072B21944D
S315080036002093C9F80080C9F80460EFDD1FAA59465F
S31508003610384602F055FC00287FF4E9AB219C209B34
S315080036200DF1B009E4E7089B059A9F1A002F7FF76A
S3150800363026AD102F209BDFF8548729DD40464A46E1
S315080036402146B0461025069CDDF81090064604E093
S31508003650103F102F02F1080215DD01331031072B38
S315080036602191209316605560F2DD1FAA494620462F
S3150800367002F026FC00287FF4BAAB103F102F2199E0
S31508003680209B2CAAE9DC914632460C4646469046D3
S3150800369001333C44072B21942093C9F80080C9F8CC
S315080036A0047000F33E8209F10809E8E4109B209DA6
S315080036B0012B40F30B82013501340123072D219498
S315080036C02095C9F80060C9F8043000F3108209F1A2
S315080036D00809129A119BC9F8003001351444072DC0
S315080036E021942095C9F8042000F30E8209F10809EF
S315080036F000230022DDE90E01FDF7D4F9109B00280E
S3150800370040F0C480013B013501361C44072D209545
S315080037102194C9F80060C9F8043000F3F48009F16F
S315080037200809139AC9F80420013514441BAB072D60
S3150800373021942095C9F800307FF7F2AC1FAA0499A6
S31508003740069802F0BDFB00287FF451AB219C0DF1D1
S31508003750B009E7E41FAA0499069802F0B1FB00280D
S315080037603FF42EADFFF743BB1FAA0499069802F053
S31508003770A7FB00287FF43BAB219C0DF1B009BEE402
S315080037801FAA0499069802F09BFB00287FF42FAB2A
S31508003790219C0DF1B0095EE41FAA0499069802F06F
S315080037A08FFB00287FF423AB219C0DF1B00962E45E
S315080037B0BBF1000F8DF85F70C0F2648222F08003BF
S315080037C0039354EA05037FF4D4ADBBF1000F3FF42D
S315080037D08DAE0027B8E6199D002D40F355820D9B46
S315080037E0109A9342A8BF1346002B1D460DDD209B59
S315080037F0C9F8006001332C44072B2194C9F80450FA
S31508003800209300F38D8309F108090D9B002DA8BFAD
S315080038105B1B002B1D4640F3F780102D209BDFF81D
S315080038206C8540F30A8241462246B0461027DDF8E9
S3150800383018B0049C0E4605E009F10809103D102D44
S3150800384040F3F78101331032072B2192209389E840
S31508003850C000F1DD1FAA2146584602F031FB0028B8
S315080038607FF4C5AA219A209B0DF1B009E6E71FAAA5
S315080038700499069802F024FB00287FF4B8AA9DF85C
S315080038805F70219C0DF1B009FFF7D5BB5E1E002EB7
S315080038907FF747AF102EDFF8F48429DDCDF824A092
S315080038A01027C246DDF818B0DDF8108004E0103E97
S315080038B0102E09F1080918DD01351034072D219459
S315080038C02095C9F800A0C9F80470F0DD1FAA414682
S315080038D0584602F0F5FA00287FF489AA103E102E01
S315080038E0219C209D0DF1B009E6DCD046DDF824A028
S315080038F0C9F8008001353444072D21942095C9F86C
S3150800390004607FF70CAF1FAA0499069802F0D8FA4C
S3150800391000287FF46CAA219C209D0DF1B00900E7D0
S31508003920039911F0100200F02E810A988DF85F3085
S31508003930BBF1000F046800F104074FF0000526DB11
S315080039400A4622F08002039254EA05020A971F46A5
S315080039507FF4FEAAD2E4039BD8062CD4039B59060F
S3150800396029D50A99B1F900400431E51722462B46B4
S315080039700A91FFF7DABA0A998DF85F30BBF1000FA2
S315080039800C6801F104074FF0000580F2E0810A9700
S315080039901F4654EA05037FF4DBAAB4E4B8460133AC
S315080039A02C44072B21942093C9F80080C9F80450A9
S315080039B07FF7B6ABC2E60A9A146813460433E517CE
S315080039C022460A93002A2B4673F10003BFF6B2AAD1
S315080039D064424FF02D0765EB4505BBF1000F8DF8E6
S315080039E05F70FFF6B5AA039B23F080030393FFF7E6
S315080039F0AFBA1FAA0499069802F062FA00287FF463
S31508003A00F6A9219C0DF1B0090D9A199B3244174667
S31508003A10109A934249DB039AD50746D410990E4467
S31508003A20F51BCB1A9D42A8BF1D46002D2E460DDD5F
S31508003A30209AC9F8007001322C44072A2194C9F843
S31508003A400450209200F3968209F10809002EACBFB3
S31508003A509D1B1D46002D7FF765AB102D209BDFF8BB
S31508003A602C839CDD47461026DDF810B0DDF818805B
S31508003A7004E009F10809103D102D8FDD01331034DB
S31508003A80072B21942093C9F80070C9F80460F0DD6B
S31508003A901FAA5946404602F013FA00287FF4A7A940
S31508003AA0219C209B0DF1B009E5E7209A12981199FF
S31508003AB0C9F8001001320444072A2194C9F8040001
S31508003AC0209200F34A8209F10809A7E7039BD80761
S31508003AD03FF5F1AD013501340123072D21942095D9
S31508003AE0C9F80060C9F804307FF719AE0BE71FAABA
S31508003AF00499069802F0E4F900287FF478A9219C35
S31508003B00209D0DF1B009E4E51FAA0499069802F074
S31508003B10D7F900287FF46BA9219C209D0DF1B009E7
S31508003B20E6E51FAA0499069802F0CAF900287FF468
S31508003B305EA9219C0DF1B009FFF7A1BA9DED0E0B08
S31508003B4002F07EF9002840F0238103998C4E8D4BB4
S31508003B509DF85F700D9021F0800103910C99032266
S31508003B60834605924729D8BF1E460992FFF714BA1D
S31508003B7027F0070797ED007B07F108038DED0E7B0D
S31508003B800A93FFF737BB039911F040033FF4F3AEEE
S31508003B900A988DF85F20BBF1000F048800F104072E
S31508003BA04FF00005C0F2988121F08003039354EA90
S31508003BB005030A9717467FF4CBA9FFF79FBB03991E
S31508003BC011F0400300F0B4800A988DF85F20BBF12D
S31508003BD0000F048800F104074FF0000580F25281B7
S31508003BE00A970027FFF72FB9039BDF060BD4039B21
S31508003BF05E0608D50A9A136804320A92BDF81C2094
S31508003C001A80FFF721B80A9A136804320A92079AAB
S31508003C101A60FFF719B80A9A039B13F0400F134668
S31508003C2003F104030CBF146814880A930025FFF7F0
S31508003C3082BB144632464646904601332C44072B2F
S31508003C4021942093C9F80080C9F804503FF7D1AEF3
S31508003C5009F10809D8E60027BB458DF85F70FFF61D
S31508003C6073AC039B23F0800303933BE41FAA0499D8
S31508003C70069802F025F900287FF4B9A8219C0DF1D1
S31508003C80B00983E40A9F58E4209B3F4AC9F80020FC
S31508003C90013301340122072B21942093C9F804200B
S31508003CA000F30A8109F108092DB9109B1BB9039B7A
S31508003CB0DF077FF537AA209B1299119AC9F80020C9
S31508003CC001330C44072B2194C9F80410209300F300
S31508003CD0D18109F108096D42002D40F30C81102DA0
S31508003CE0DFF8A88040F32C8141462246B0461027CB
S31508003CF0DDF818B0049C0E4605E009F10809103DE8
S31508003D00102D40F3198101331032072B219220938D
S31508003D1089E8C000F1DD1FAA2146584602F0D0F80E
S31508003D2000287FF464A8219A209B0DF1B009E6E7E4
S31508003D300A998DF85F30BBF1000F0C6801F1040792
S31508003D404FF00005FFF64CAF039AFFF7A0BA039AA7
S31508003D50F7E5039B43F0200303930AF1010A9AF857
S31508003D600030FEF7A4BF1FAA0499069802F0A8F827
S31508003D7000287FF43CA8219C0DF1B0091EE400BF81
S31508003D80806700087C670008B4670008B867000801
S31508003D900C9BBBF1FF3F23F0200700F09A80472FCA
S31508003DA004D1BBF1000F08BF4FF0010B0F9B039A1C
S31508003DB0002B42F480720B92C0F284819DED0E7B3B
S31508003DC08DED147B4FF000080C9B662B00F0648188
S31508003DD0462B00F09C81452F0CBF0BF101055D4673
S31508003DE01DAA1AAB019200932A4619AB02219DED32
S31508003DF0140B069800F038FB0C9B672B064600F060
S31508003E00FB800C9B472B00F0E580741900220023E9
S31508003E10DDE91401FCF746FE002840F0F3801D9BFF
S31508003E209C4206D930215A1C1D9219701D9B9C4232
S31508003E30F9D89B1B472F109300F0D7800C9B652B56
S31508003E4040F311820C9B662B199B0D9300F052814F
S31508003E500D9A10998A42C0F23E81039BD90700F158
S31508003E60A28122EAE273099267220C92B8F1000F46
S31508003E7040F09E8005930B9B0393C3469DF85F70A5
S31508003E80FFF78AB821F08003039354EA05030A97DB
S31508003E903FF448AB1746FEF7D6BF4021069801F017
S31508003EA001FA049A10601061002800F0C581049A8E
S31508003EB040235361FEF7BBBE1FAA0499069801F07A
S31508003EC0FFFF00287EF493AF199D219C0DF1B009E0
S31508003ED0EAE64FF0060B69E70A97174659E51FAA5F
S31508003EE00499069801F0ECFF00287EF480AF219C27
S31508003EF0209B0DF1B0091099C9F8006001330C44F4
S31508003F00072B21942093C9F804107FF709A915E413
S31508003F103046FCF7F5FEA34603460990FFF79CBA20
S31508003F201FAA0499069801F0CBFF00287EF45FAF1C
S31508003F30219C0DF1B00968E414463246464690467F
S31508003F4001332C44072B21942093C9F80080C9F823
S31508003F500450C4DC09F10809CDE71FAA049906989C
S31508003F6001F0AEFF00287EF442AF199B219C0DF1AB
S31508003F70B00953E51FAA0499069801F0A1FF002885
S31508003F807EF435AF199B109A219CD31A0DF1B0090E
S31508003F905CE5062D2B4628BF0623099323EAE3731F
S31508003FA0B3460A970D9637460593BA4EFEF7F4BF01
S31508003FB02D2705930B9B03938DF85F704FF0000B2D
S31508003FC0FEF7EBBF0393FFF7D4B92D278DF85F7083
S31508003FD0FFF724B9039BDB0700F1A7801D9B472F3A
S31508003FE0A3EB0603109340F03E81199BDD1C16DBFC
S31508003FF09B4514DB0D932BE7039BDA073FF505AFCB
S315080040001D9B16E7234614E725EAE5730A970593E9
S31508004010099583460D909DF85F70FEF7BDBF0C9A13
S31508004020023A0C92013B002B9DF830201993B8BF39
S315080040305B428DF86C20B4BF2D222B22092B8DF8FC
S315080040406D2078DC303330228DF86F308DF86E2095
S315080040501CAB1BAA9B1A109A1393012A13440993A3
S3150800406040F3BA80099B0022013309930D9223EA93
S31508004070E373FBE61FAA0499069801F021FF0028BE
S315080040807EF4B5AE199D219C209B0DF1B00922E660
S31508004090A2460025FEF70DBE1DAA1AAB0192009393
S315080040A05A4619AB03219DED140B069800F0DCF96E
S315080040B05D46064600EB0B043378302B66D0199D17
S315080040C02C44A3E6DDE90E1202F100431491159380
S315080040D04FF02D0878E60D9B002BD8BFC3F10205DB
S315080040E0109BC8BF0125EB18672209930C9223EA97
S315080040F0E373BBE6002B66DDBBF1000F5BD1039AC9
S31508004100D40758D41A46099223EAE373AEE61DAAE1
S315080041101AAB019200935A4619AB03219DED140B75
S31508004120069800F0A1F95D4606460C9B462B06EB61
S315080041300504C1D06AE60DF17B042046564A82FB87
S315080041400321DA17C2EBA10202EB8201A3EB4103BA
S3150800415003F13001092A134600F8011DEEDC024678
S315080041603033DBB202F8013D944262D90DF16E019B
S31508004170024601E012F8013B01F8013B9442F9D1ED
S31508004180631C1B1A0DF16E02134462E7002200231A
S31508004190DDE91401FCF786FC002890D1C5F101057C
S315080041A019952C4432E60D9B6722013309930C922C
S315080041B023EAE3735AE60D9B0BF101052B44099399
S315080041C023EAE37352E6BBF1000F2CD1039BD80711
S315080041D029D40123099349E6039B13F001037FF4CD
S315080041E041AF0D93099B23EAE3733FE60A989AF8D1
S315080041F0013005680430002D0A90A246BEF657AD78
S315080042004FF0FF35FEF753BD039BDB075F4605D529
S315080042103CAE302306F8413DFEF7B4BECDF824B0D7
S315080042202CAEFEF7B2BE0BF10203099323EAE37341
S315080042301CE60DF16E030CE7069A0C2313604FF08B
S31508004240FF30FEF7DDBD8DF85F10FFF75AB98DF820
S315080042505F10FFF762B88DF85F10FFF730B88DF87A
S315080042605F10FEF7F9BF199BDCE68DF85F10FEF7C5
S31508004270CFBD8DF85F10FEF7ADBF8DF85F10FEF766
S3150800428041BE8DF85F10FFF71BB98DF85F10FFF779
S31508004290F9B800BFAC670008676666662DE9F0479F
S315080042A0254C2568D5F848410646884692469946DB
S315080042B0C4B360681F2817DC431C76B104EB80057D
S315080042C00122C5F888A0D4F8881182401143022E2D
S315080042D0C4F88811C5F808911ED00230636044F806
S315080042E020800020BDE8F087144B03B34FF4C87054
S315080042F0AFF300800446D0B1D5F84831002780E8EE
S315080043008800C5F8484138460123C4F88871C4F8BE
S315080043108C71002EE1D0D1E7D4F88C110A43C4F889
S315080043208C21DAE705F5A674C5F84841C1E74FF0D0
S31508004330FF30BDE8F08700BF606700080000000096
S3150800434002690B69934200F38D802DE9F04F03F162
S31508004350FF3801F1140700F1140B57F828205BF811
S3150800436028304FEA880483B00132B3FBF2F90BEB2D
S315080043700403009407EB040A0193B9F1000F39D03E
S315080043800025BC46DE462B465CF8046BDEF80020AA
S31508004390B4B209FB0455360C2C0C09FB0644ADB225
S315080043A05B1BA6B213FA82F3C6EB124606EB23464C
S315080043B09BB243EA0643E2454EF8043B4FEA1445EE
S315080043C04FEA2643E0D2009B5BF8033093B9019C81
S315080043D0231F9B450CD254F8043C4BB9A4F108039F
S315080043E002E01A68043B1AB99B4508F1FF38F8D36E
S315080043F0C0F81080044601F019FC00282EDB09F1EC
S3150800440001095D46002357F8041B28688AB29A1AE0
S31508004410090C12FA80F2C1EB104303EB224391B266
S3150800442041EA0341BA4545F8041B4FEA2343EAD259
S315080044305BF828200BEB880382B91A1F93450BD229
S3150800444053F8042C42B9083B02E01A68043B1AB92F
S315080044509B4508F1FF38F8D3C4F81080484603B0E6
S31508004460BDE8F08F002070472DE9F04F57EC106B30
S315080044709BB0046C249D009181460592039310EE2F
S3150800448010AABB4654B1426C626001239340A360F4
S31508004490214601F0E9F90023C9F84030BBF1000FC5
S315080044A05C4634DB00232B60A14B1A46234093421B
S315080044B016D00022002350465946FCF7F3FA564612
S315080044C05F46804648B3039A01231360259B002B59
S315080044D000F0BE809748186001381BB0BDE8F08F21
S315080044E0039A42F20F731360BAF1000F00F09A8034
S315080044F09148259B002BF0D0C378002B00F0AA80AA
S3150800450000F10803259A13601BB0BDE8F08F01235C
S315080045102BF000442B60A346C6E718AA19A947EC56
S31508004520106B484601F02EFC250D0A9040F083805A
S31508004530189D199E2E4406F23243202B40F388829A
S31508004540C3F1400306F212409C402AFA00F02043C9
S31508004550FBF7CAFF0123741EA1F1F8710F9300221D
S31508004560764BFBF783FE6CA3D3E90023FCF732F8FE
S315080045706BA3D3E90023FBF77BFE064620460F46CE
S31508004580FBF7C2FF68A3D3E90023FCF723F802462A
S315080045900B4630463946FBF76BFE06460F46FCF7D8
S315080045A01DFC00220490002330463946FCF784FAA5
S315080045B0002840F02882049E162E00F22182604BC5
S315080045C003EBC603D3E9000152465B46FCF792FAB1
S315080045D0002800F04282731E049300230D932D1BBE
S315080045E0B5F1010800F12A8200230793049B002BEA
S315080045F0C0F21B8298440C9300230693009B092B58
S315080046002AD8052B40F34486043B00930026009BDA
S31508004610023B032B00F22386DFE813F02B03240268
S3150800462036035004444B474AC4F31300002814BF0A
S31508004630184610465DE7CBF3130343F07F51A5F206
S31508004640FF345046CDF83C8041F44011189D86E76A
S315080046503D4842E7C31C55E70021C9F844104846BF
S315080046600C46009101F0DAF84FF0FF3308930E93E9
S3150800467001230990C9F8400005940B93199B002B58
S31508004680C0F2D080049A0E2A00F3CC802C4B03EBA0
S31508004690C20393ED007B059B002B8DED007BC0F2DA
S315080046A0FE8256465F46DDE900AB304652465B461B
S315080046B03946FCF7B9F8FCF791FB0446FBF724FFEB
S315080046C052465B46FBF786FF0B460246394630469E
S315080046D0FBF7CCFD099D04F130032B70089B012BD9
S315080046E006460F4605F1010561D00022174BFBF778
S315080046F071FF0022002306460F46FCF7D3F900286F
S315080047007DD1CDF81490DDF820A0DDF824B0DDE9E0
S31508004710008928E0AFF3008061436F63A787D23F23
S31508004720B3C8608B288AC63FFB799F501344D33F92
S315080047300000F07FB5670008D46700080000F83F5E
S31508004740F0670008C8670008B4670008000024403E
S31508004750FBF740FF0022002306460F46FCF7A2F9A6
S31508004760002840F0AE8342464B4630463946FCF7B1
S315080047705BF8FCF733FB0446FBF7C6FE42464B469E
S31508004780FBF728FF02460B4630463946FBF76EFD17
S3150800479004F1300E05F801EBCBEB050ED6450646BF
S315080047A00F464FF00002AE4BD2D1DDF814903246D8
S315080047B03B4630463946FBF75BFD06460F46024642
S315080047C00B46DDE90001FCF777F940B932463B466E
S315080047D0DDE90001FCF766F988B1E3070FD515F89E
S315080047E0014C099A6B1E04E09A4200F0FC8313F808
S315080047F0014D392C03F10105F6D001341C700A99D4
S31508004800484601F031F80022049B2A70039A0133C6
S315080048101360259B002B00F09B8309981D601BB035
S31508004820BDE8F08F0B9A002A00F00E81009A012A43
S3150800483040F35782089B069A5F1EBA42C0F28B83E2
S31508004840D71B089B002BC0F28084079D089B079AFC
S3150800485001211A4448460792984401F09DF80646F5
S3150800486065B1B8F1000F09DD4545079A2B46A8BF83
S315080048704346D21A0792ED1AC3EB0808069B002B8B
S3150800488040F3F5820B9A002A00F00282002F00F00E
S31508004890FF8131463A46484601F020F90A9A014610
S315080048A00646484601F082F80A990446484600F04A
S315080048B0DBFF069BDB1B069340F0E9810121484696
S315080048C001F06AF80C9B0690002B00F01582014651
S315080048D01A46484601F002F9009B0690012B40F360
S315080048E0F3820027069A136902EB8303186901F01D
S315080048F005F8C0F12000404410F01F0000F0FA81CE
S31508004900C0F12003042B40F3BD84C0F11C00079BB3
S315080049100344079305448044079B002B05DD214685
S315080049201A46484601F02AF90446B8F1000F05DD93
S3150800493042460699484601F021F906900D9B002B40
S3150800494040F07A82089B002B40F393820B9B002B46
S3150800495040F0F481DDF824B0089FDDF818805D4644
S3150800496002E000F08BFF044641462046FFF7E8FCCC
S3150800497000F1300A05F801ABCBEB0503BB424FF05B
S315080049800A024FF0000321464846EADB099B089ACB
S31508004990012AACBF9B1801331D464FF0000B214678
S315080049A00122484601F0EAF806990A9001F03EF914
S315080049B0002840F3058315F8012C09996B1E04E0BD
S315080049C08B4200F0748213F8012D392A03F1010590
S315080049D0F6D001321A700699484600F045FF002EB7
S315080049E03FF40DAFBBF1000F05D0B34503D05946D0
S315080049F0484600F039FF3146484600F035FFFEE6E6
S31508004A0001230D93EBE5DDF810804046FBF77CFDAE
S31508004A1002460B4630463946FCF744F800287FF430
S31508004A20CAAD08F1FF330493C5E5079A049BD21A69
S31508004A305B420693002307920C93DFE5C8F1000357
S31508004A4007934FF00008D1E5069F079D0B9E07E7E1
S31508004A50C3F120040AFA04F07AE50D90BFE500BF19
S31508004A600000244000230B93049B059A13440E93DD
S31508004A700133002B089340F37D82089C25460021CC
S31508004A80172DC9F844100BD9012204235B0003F142
S31508004A901400A842114602F10102F7D9C9F84410D8
S31508004AA0484600F0BBFE0E2C0990C9F840003FF6B8
S31508004AB0E5AD002E3FF4E2AD04990029CDE910AB2F
S31508004AC040F39A82904B01F00F020E1103EBC203DA
S31508004AD0F006D3E9004540F146828C4B50465946CC
S31508004AE0D3E90823FBF7A0FECDE9120106F00F066D
S31508004AF04FF0030A86B1854FF10709D520462946A6
S31508004B00D7E90023FBF766FD0AF1010A04460D46BC
S31508004B10761007F10807EFD122462B46DDE9120188
S31508004B20FBF782FE06460F460D9B43B10022784BE3
S31508004B3030463946FBF7C0FF002840F01A83504636
S31508004B40FBF7E2FC32463B46FBF744FD714B00227D
S31508004B50FBF78EFB089B0446A1F15075002B00F06D
S31508004B60DB81049B1693089B12930B9B002B00F08A
S31508004B709482129A644B684903EBC20353E90223F1
S31508004B800020FBF751FE22462B46FBF76FFB8246B9
S31508004B908B4630463946FCF721F90446FBF7B4FC48
S31508004BA002460B4630463946FBF760FB3034099D12
S31508004BB0E4B206460F462C7002460B465046594646
S31508004BC00135FBF797FF002850D132463B460020B7
S31508004BD04F49FBF74BFB02460B4650465946FBF737
S31508004BE089FF002840F00883129A012A40F3F781CA
S31508004BF0129B099ACDF84880134498460DE0002088
S31508004C004349FBF733FB52465B46FBF755FF002843
S31508004C1040F0F282454500F0E081504659460022B0
S31508004C203E4BFBF7D7FC00223C4B82468B46304670
S31508004C303946FBF7CFFC0F460646FCF7CFF8044685
S31508004C40FBF762FC02460B4630463946FBF70EFB7D
S31508004C503034E4B252465B4605F8014B06460F4629
S31508004C60FBF72AFF32463B460028C8D0169B04931A
S31508004C70C5E500230B93059B002B40F380811D4659
S31508004C801C460E930893FAE601230B93F3E70A945E
S31508004C90069A0A99484600F021FF04460EE6089B44
S31508004CA0002B3FF7FEAC40F04F8100221C4BDDE99C
S31508004CB00001FBF78FFC5B465246FBF711FF089B8A
S31508004CC006931E46002800F0EA80059B099DDB43F3
S31508004CD004930699484600F0C7FD002E3FF48FADB1
S31508004CE089E60F9A002A00F0388203F23343069FBA
S31508004CF0079DACE51C200AE6009B012B40F3808249
S31508004D000C9F0120F7E500BFF0670008B8680008A7
S31508004D100000F03F00001C400000E03F0000244077
S31508004D2000001440314600230A22484600F0A6FD3A
S31508004D300E9B002B064640F38D820893002D05DD59
S31508004D4031462A46484600F019FF0646002F40F02D
S31508004D507C81B046089B099A013BD31808930AF050
S31508004D6001030A931746DDF818B020465946FFF79F
S31508004D70E7FA31460546204600F058FF42465946AE
S31508004D808246484600F074FFC268834605F1300340
S31508004D90002A49D101462046079300F047FF5946A5
S31508004DA00590484600F060FD059A079B2AB90099C8
S31508004DB019B90A99002900F03582BAF1000FC0F234
S31508004DC0E38005D1009919B90A99002900F0DC8019
S31508004DD0002A00F34E81089A3B7007F1010A9742B0
S31508004DE0554600F05281214600230A22484600F023
S31508004DF045FD4645044631464FF000034FF00A028A
S31508004E0048460BD000F03AFD4146064600230A22E2
S31508004E10484600F033FD57468046A4E700F02EFDCD
S31508004E205746064680469EE701464846059300F0E3
S31508004E301BFD0122059BC0E70699204600F0F6FEF9
S31508004E400028BFF67FAD2146049C0023013C0A22B8
S31508004E504846049400F012FD0B9B0446002B7FF491
S31508004E6061AF0E9B002B40F3ED81089372E50A9C17
S31508004E7024E5009B022B7FF769AD089B002B40F0C9
S31508004E809D8106990522484600F0F8FC01460690E1
S31508004E90204600F0CBFE00280A947FF716AF049A46
S31508004EA009993123013204920B704D1C11E7049ABB
S31508004EB001320492099A312313708CE501230B936E
S31508004EC0D2E5DDF814909AE4BAF1000F7FF409AD43
S31508004ED0CBF31303002B40F03E812BF000473F0D28
S31508004EE03F052FB1079B0133079308F101080127F6
S31508004EF00C9B0120002B3FF4FEACF3E45046FBF775
S31508004F0003FB32463B46FBF765FB0022BF4BFBF72C
S31508004F10AFF90446A1F15075304639460022BC4B1C
S31508004F20FBF7A4F922462B4606460F46FBF7E2FD99
S31508004F30002840F0AE80224605F100433046394647
S31508004F40FBF7BAFD00284AD0002306931E46BCE6A6
S31508004F500998FFF7C2BA069B0C9A0697FB1A1A44D9
S31508004F600C9200276DE49DED107B4FF0020A8DED43
S31508004F70127BBFE51C460021C9F8441090E50124C0
S31508004F800E9408940594F6E7002A9A4611DD214600
S31508004F900122484600F0F2FD0699044600F046FE56
S31508004FA0002840F34881BAF1390F00F0098105F16C
S31508004FB0310AB34687F800A07D1C46460A940AE5DE
S31508004FC004D11AF0010F01D0F5E4154615F8013C95
S31508004FD0302B05F1FF32F8D0FDE4DDF84880DDE935
S31508004FE010ABFFF74BBB099930220A70049A15F8E3
S31508004FF0014C0132049200E4049B5C42002C00F050
S31508005000B380844B04F00F0203EBC203D3E90023F9
S31508005010DDE91001FBF7DEFA241106460F4600F01B
S3150800502016817D4D4FF0020AE20709D5304639460A
S31508005030D5E90023FBF7CEFA0AF1010A06460F4620
S31508005040641005F10805EFD16EE57168484600F071
S31508005050E5FB33699A1C0546920006F10C010C30F3
S31508005060FBF7A6FD29460122484600F087FD804643
S3150800507070E6392B00F0A48003F1010AB34687F8DD
S3150800508000A07D1C46460A94A5E4B3469A464646C1
S3150800509085E4002306931E4601E7129B5D495A1EC6
S315080050A001EBC2012B461792D1E900012246FBF714
S315080050B091FACDE9140139463046FBF78FFE0446CE
S315080050C0FBF722FA0B46024639463046FBF7CEF87E
S315080050D0129B0F4609993034012B06460C7001F1D4
S315080050E0010520D0129B099A13449A46AB46002222
S315080050F04A4B30463946FBF76DFA0F460646FBF72C
S315080051006DFE0446FBF700FA303402460B4630467D
S315080051103946FBF7ABF80BF8014BDA4506460F465E
S31508005120E5D1179B1D4400223D4BDDE91401FBF731
S315080051309FF832463B46FBF7BFFC002848D0169B33
S31508005140049315F8014CFFF74CBB079B089A9D1A68
S315080051500023FFF77CBB0027CAE6189B069F079D1E
S31508005160C3F13603FFF773BBDDE910674FF0020A98
S31508005170DAE4089B002B3FF4C1AE0E9B002B7FF7A9
S315080051802EAF0022254B30463946FBF723FA064652
S315080051900F460AF10100FBF7B7F932463B46FBF723
S315080051A019FA0022194BFBF763F8049A0E9B12931F
S315080051B0013A0446A1F150751692D6E40A9484E59C
S315080051C03922B3460A9446463A707D1CFFF7F5BB6A
S315080051D0DDE9142300201249FBF748F832463B461E
S315080051E0FBF788FC08B9FAE6154615F8013C302B9A
S315080051F005F1FF32F8D039E5169B0493FFF7F1BAAB
S31508005200BAF1000F7FF47CAD62E600BF00001C40D7
S3150800521000001440F0670008B86800080000244041
S315080052200000E03F392BD3469A46C9D0BBF1000FA0
S315080052303FF7BDAEBDE67FF4BCAE1AF0010F3FF4F2
S31508005240B8AEB0E6009B022B25DC0E9B0DE64FF0B0
S31508005250020A69E4009B022B1DDC0E9B6DE5002407
S31508005260C9F844402146484600F0D8FA4FF0FF33C3
S3150800527008930E93012309900594C9F840000B93EF
S31508005280FFF7FCB93FF448ABC0F13C00FFF73FBB62
S315080052900126FFF7BCB90E9B0893EEE50048704758
S315080052A03C0400202DE9F04F01F10B05162D83B0C3
S315080052B0064640F29F8035F0070500F1BF80A942F7
S315080052C000F2BC8000F0A6FAB5F5FC7FC0F09C821F
S315080052D06B0A00F0BA80042B00F28381A80900F15A
S315080052E0390E4FEA4E033830C44F07EB8303A3F158
S315080052F008015C68A14207D1ACE0002A80F2AC80C4
S31508005300E468A14200F0A680636823F003035A1BF1
S315080053100F2AF2DDB9493C6901F1080E744500F01F
S31508005320B381636823F003035A1B0F2A00F399819C
S31508005330002AC1F814E0C1F810E080F29E80B3F5A7
S31508005340007F80F06781DB0803F1010C01229B10C6
S3150800535002FA03F34A6851F83C80C4F8088001EB66
S31508005360CC091A43A9F10803E3604A6041F83C40B6
S31508005370C8F80C40831001249C40944200F28A80AD
S31508005380144206D120F003006400144200F1040020
S31508005390FAD007EBC009CC468046DCF80C108C45E1
S315080053A007D173E1002A80F28181C9688C4500F033
S315080053B06D814B6823F003035A1B0F2AF2DD0C4656
S315080053C0D1F80CC054F8088F4B1945F001054D600B
S315080053D042F00101C8F80CC03046CCF808807B6161
S315080053E03B61C3F80CE0C3F808E059609A5000F036
S315080053F013FA1FE0102921D800F00CFA102506230D
S3150800540002207E4F07EB8303A3F108025C689442EF
S3150800541000F045816368E168A56823F00303234427
S3150800542030465A68E96042F001028D605A6000F021
S31508005430F3F90834204603B0BDE8F08F00240C23A6
S315080054402046336003B0BDE8F08F80234FF0400E4E
S315080054503F2049E770465DE72344E1685A68A56836
S3150800546042F00102E96030468D605A6000F0D4F9D6
S315080054700834204603B0BDE8F08F234430465A6806
S3150800548042F001025A6000F0C7F90834204603B01A
S31508005490BDE8F08FBC68636823F00308A84504D309
S315080054A0C5EB08030F2B00F38C80554BDFF8609192
S315080054B01A68D9F8003001332A4404EB080A00F0C8
S315080054C0608102F580520F3222F47F6222F00F02C9
S315080054D011463046019200F0E1FCB0F1FF3F8346E9
S315080054E0019A00F05881824500F2FC80454B196804
S315080054F0DA451144196000F05381D9F80000DFF845
S3150800550010E101301BBFCAEB0B0A5144CEF800B0BC
S3150800551019601BF0070100F01781C1F10800C1F5F9
S315080055208051834408315A44C2F30B02C2EB010985
S3150800553049463046019300F0B1FC431C019B00F03C
