S010000068616C666D6F7573652E6D6F74AD
S3150800000000000220ED530008F150000801510008D5
S315080000100951000811510008195100080000000094
S315080000200000000000000000000000002151000848
S3150800003031510008000000004151000851510008E4
S315080000403D5400083D5400083D5400083D5400083E
S315080000503D5400083D5400083D5400083D5400082E
S315080000603D5400083D5400083D5400083D5400081E
S315080000703D5400083D5400083D5400083D5400080E
S315080000803D5400083D5400083D5400083D540008FE
S315080000903D5400083D5400083D5400083D540008EE
S315080000A03D5400083D5400083D5400083D540008DE
S315080000B03D5400083D5400083D5400083D540008CE
S315080000C03D5400083D5400083D5400083D540008BE
S315080000D03D5400083D5400083D5400083D540008AE
S315080000E03D5400083D5400083D5400083D5400089E
S315080000F03D5400083D5400083D5400083D5400088E
S315080001003D5400083D5400083D5400083D5400087D
S315080001103D5400083D5400083D5400083D5400086D
S315080001203D5400083D5400083D5400083D5400085D
S315080001303D54000800000000000000003D5400087F
S315080001403D5400083D5400083D5400083D5400083D
S315080001503D5400083D5400083D5400083D5400082D
S315080001603D5400083D5400083D5400083D5400081D
S315080001703D5400083D54000800000000000000003F
S30D080001803D5400083D54000837
S315080001C0044B05481B1A062B02D9044B03B11847E2
S315080001D0704700BFA7080020A40800200000000000
S315080001E005490648091A891001EBD171491002D050
S315080001F0034B03B118477047A4080020A408002041
S315080002000000000010B5064C237843B9FFF7D8FF65
S31508000210044B13B10448AFF300800123237010BDCB
S31508000220A4080020000000000CA2000808B5084B2E
S315080002301BB108490848AFF300800848036813B99A
S31508000240BDE80840CCE7064B002BF9D09847F7E7FE
S3150800025000000000A80800200CA20008A40800203E
S315080002600000000081F0004102E000BF83F0004377
S3150800027030B54FEA41044FEA430594EA050F08BF33
S3150800028090EA020F1FBF54EA000C55EA020C7FEAF7
S31508000290645C7FEA655C00F0E2804FEA5454D4EB74
S315080002A05555B8BF6D420CDD2C4480EA020281EA3E
S315080002B0030382EA000083EA010180EA020281EA76
S315080002C00303362D88BF30BD11F0004F4FEA0131C8
S315080002D04FF4801C4CEA113102D0404261EB4101D7
S315080002E013F0004F4FEA03334CEA133302D052425D
S315080002F063EB430394EA050F00F0A780A4F1010419
S31508000300D5F1200E0DDB02FA0EFC22FA05F2801852
S3150800031041F1000103FA0EF2801843FA05F3594138
S315080003200EE0A5F120050EF1200E012A03FA0EFCB7
S3150800033028BF4CF0020C43FA05F3C01851EBE371E1
S3150800034001F0004507D54FF0000EDCF1000C7EEBFE
S3150800035000006EEB0101B1F5801F1BD3B1F5001F3C
S315080003600CD349085FEA30004FEA3C0C04F101045B
S315080003704FEA445212F5800F80F09A80BCF1004F84
S3150800038008BF5FEA500C50F1000041EB045141EA06
S31508000390050130BD5FEA4C0C404141EB010111F407
S315080003A0801FA4F10104E9D191F0000F04BF0146B2
S315080003B00020B1FA81F308BF2033A3F10B03B3F190
S315080003C020020CDA0C3208DD02F1140CC2F10C0220
S315080003D001FA0CF021FA02F10CE002F11402D8BF7E
S315080003E0C2F1200C01FA02F120FA0CFCDCBF41EA4A
S315080003F00C019040E41AA2BF01EB0451294330BD19
S315080004006FEA04041F3C1CDA0C340EDC04F11404F5
S31508000410C4F1200220FA04F001FA02F340EA0300CC
S3150800042021FA04F345EA030130BDC4F10C04C4F112
S31508000430200220FA02F001FA04F340EA03002946F2
S3150800044030BD21FA04F0294630BD94F0000F83F43C
S31508000450801306BF81F480110134013D4EE77FEA1F
S31508000460645C18BF7FEA655C29D094EA050F08BF6B
S3150800047090EA020F05D054EA000C04BF194610464C
S3150800048030BD91EA030F1EBF0021002030BD5FEA90
S31508000490545C05D14000494128BF41F0004130BDB8
S315080004A014F580043CBF01F5801130BD01F000450C
S315080004B045F0FE4141F470014FF0000030BD7FEA7F
S315080004C0645C1ABF194610467FEA655C1CBF0B467A
S315080004D0024650EA013406BF52EA033591EA030F91
S315080004E041F4002130BD00BF90F0000F04BF002189
S315080004F0704730B54FF4806404F132044FF00005BC
S315080005004FF0000150E700BF90F0000F04BF002134
S31508000510704730B54FF4806404F1320410F000459A
S3150800052048BF40424FF000013EE700BF42004FEA95
S31508000530E2014FEA31014FEA02701FBF12F07F4312
S3150800054093F07F4F81F06051704792F0000F14BF0F
S3150800055093F07F4F704730B54FF4607401F0004553
S3150800056021F0004120E700BF50EA010208BF7047AA
S3150800057030B54FF000050AE050EA010208BF70479F
S3150800058030B511F0004502D5404261EB41014FF408
S31508000590806404F132045FEA915C3FF4DCAE4FF00C
S315080005A003025FEADC0C18BF03325FEADC0C18BFF3
S315080005B0033202EBDC02C2F1200300FA03FC20FA44
S315080005C002F001FA03FE40EA0E0021FA02F1144491
S315080005D0C1E600BF70B54FF0FF0C4CF4E06C1CEAA6
S315080005E011541DBF1CEA135594EA0C0F95EA0C0F1B
S315080005F000F0DEF82C4481EA030621EA4C5123EA8E
S315080006004C5350EA013518BF52EA033541F48011BC
S3150800061043F4801338D0A0FB02CE4FF00005E1FB6F
S3150800062002E506F00042E0FB03E54FF00006E1FBB9
S3150800063003569CF0000F18BF4EF0010EA4F1FF04FC
S31508000640B6F5007F64F5407404D25FEA4E0E6D413C
S3150800065046EB060642EAC62141EA55514FEAC5204D
S3150800066040EA5E504FEACE2EB4F1FD0C88BFBCF5C9
S31508000670E06F1ED8BEF1004F08BF5FEA500E50F17A
S31508000680000041EB045170BD06F0004646EA010140
S3150800069040EA020081EA0301B4EB5C04C2BFD4EB72
S315080006A00C0541EA045170BD41F480114FF0000E6B
S315080006B0013C00F3AB8014F1360FDEBF002001F0D9
S315080006C0004170BDC4F10004203C35DA0C341BDC53
S315080006D004F11404C4F1200500FA05F320FA04F025
S315080006E001FA05F240EA020001F0004221F0004159
S315080006F010EBD37021FA04F642EB06015EEA430ECC
S3150800070008BF20EAD37070BDC4F10C04C4F12005FB
S3150800071000FA04F320FA05F001FA04F240EA0200AE
S3150800072001F0004110EBD37041F100015EEA430E7F
S3150800073008BF20EAD37070BDC4F1200500FA05F29F
S315080007404EEA020E20FA04F301FA05F243EA02031E
S3150800075021FA04F001F0004121FA04F220EA02002D
S3150800076000EBD3705EEA430E08BF20EAD37070BD73
S3150800077094F0000F0FD101F00046400041EB010153
S3150800078011F4801F08BF013CF7D041EA060195F035
S31508000790000F18BF704703F00046520043EB0303EF
S315080007A013F4801F08BF013DF7D043EA06037047DC
S315080007B094EA0C0F0CEA135518BF95EA0C0F0CD0E7
S315080007C050EA410618BF52EA4306D1D181EA03012D
S315080007D001F000414FF0000070BD50EA410606BF27
S315080007E01046194652EA430619D094EA0C0F02D16C
S315080007F050EA013613D195EA0C0F05D152EA0336B1
S315080008001CBF104619460AD181EA030101F00041CE
S3150800081041F0FE4141F470014FF0000070BD41F017
S31508000820FE4141F4780170BD70B54FF0FF0C4CF4F1
S31508000830E06C1CEA11541DBF1CEA135594EA0C0F10
S3150800084095EA0C0F00F0A7F8A4EB050481EA030E5D
S3150800085052EA03354FEA013100F088804FEA033344
S315080008604FF0805545EA131343EA12634FEA022212
S3150800087045EA111545EA10654FEA00260EF00041D3
S315080008809D4208BF964244F1FD0404F5407402D225
S315080008905B084FEA3202B61A65EB03055B084FEAB6
S315080008A032024FF480104FF4002CB6EB020E75EBB3
S315080008B0030E22BFB61A754640EA0C005B084FEADB
S315080008C03202B6EB020E75EB030E22BFB61A754658
S315080008D040EA5C005B084FEA3202B6EB020E75EBA3
S315080008E0030E22BFB61A754640EA9C005B084FEA1B
S315080008F03202B6EB020E75EB030E22BFB61A754628
S3150800090040EADC0055EA060E18D04FEA051545EA16
S3150800091016754FEA06164FEAC30343EA52734FEABF
S31508000920C2025FEA1C1CC0D111F4801F0BD141EA38
S3150800093000014FF000004FF0004CB6E711F4801F9D
S3150800094004BF01430020B4F1FD0C88BFBCF5E06F7D
S315080009503FF6AFAEB5EB030C04BFB6EB020C5FEA8D
S31508000960500C50F1000041EB045170BD0EF0004EE2
S315080009704EEA113114EB5C04C2BFD4EB0C0541EA14
S31508000980045170BD41F480114FF0000E013C90E611
S3150800099045EA060E8DE60CEA135594EA0C0F08BFD5
S315080009A095EA0C0F3FF43BAF94EA0C0F0AD150EAD4
S315080009B001347FF434AF95EA0C0F7FF425AF104667
S315080009C019462CE795EA0C0F06D152EA03353FF48F
S315080009D0FDAE1046194622E750EA410618BF52EA0C
S315080009E043067FF4C5AE50EA41047FF40DAF52EAE0
S315080009F043057FF4EBAE12E74FF0FF3C06E000BF7D
S31508000A004FF0010C02E000BF4FF0010C4DF804CD89
S31508000A104FEA410C7FEA6C5C4FEA430C18BF7FEA49
S31508000A206C5C1BD001B050EA410C0CBF52EA430C77
S31508000A3091EA030F02BF90EA020F0020704710F1F7
S31508000A40000F91EA030F58BF994208BF90422CBF86
S31508000A50D8176FEAE37040F0010070474FEA410C7F
S31508000A607FEA6C5C02D150EA013C07D14FEA430C9D
S31508000A707FEA6C5CD6D152EA033CD3D05DF8040B0E
S31508000A80704700BF8446104662468C461946634640
S31508000A9000E000BF01B5FFF7B7FF002848BF10F117
S31508000AA0000F01BD4DF808EDFFF7F4FF0CBF01205C
S31508000AB000205DF808FB00BF4DF808EDFFF7EAFFD8
S31508000AC034BF012000205DF808FB00BF4DF808ED93
S31508000AD0FFF7E0FF94BF012000205DF808FB00BF88
S31508000AE04DF808EDFFF7CEFF94BF012000205DF812
S31508000AF008FB00BF4DF808EDFFF7C4FF34BF01201F
S31508000B0000205DF808FB00BF4A0011D212F500125A
S31508000B1011D20DD56FF47873B3EB62520ED44FEA47
S31508000B20C12343F0004343EA505323FA02F07047C7
S31508000B304FF00000704750EA013002D14FF0FF3005
S31508000B4070474FF0000070474FEA4102B2F1E043A8
S31508000B5024BFB3F5001CDCF1FE5C0DD901F0004C96
S31508000B604FEAC0024CEA5070B2F1004F40EB8300E6
S31508000B7008BF20F00100704711F0804F21D113F112
S31508000B803872BCBF01F00040704741F480114FEA4B
S31508000B905252C2F11802C2F1200C10FA0CF320FAD4
S31508000BA002F018BF40F001004FEAC1234FEAD323F1
S31508000BB003FA0CFC40EA0C0023FA02F34FEA43035B
S31508000BC0CCE77FEA625307D150EA01331EBF4FF0E4
S31508000BD0FE4040F44000704701F0004040F0FE40FF
S31508000BE040F40000704700BF00000000000000004D
S31508000BF001F0FF01102A2BDB10F0070F08D010F8C0
S31508000C00013B013A8B422DD010F0070F42B3F6D1C3
S31508000C10F0B441EA012141EA014122F007047FF0DC
S31508000C2000070023F0E80256083C85EA010586EA33
S31508000C30010685FA47F5A3FA87F586FA47F6A5FA6F
S31508000C4087F68EB9EED1F0BC01F0FF0102F007027B
S31508000C5032B110F8013B013A83EA010313B1F8D126
S31508000C600020704701387047002D06BF3546033807
S31508000C70073815F0010F07D1013015F4807F02BF40
S31508000C80013015F4C03F0130F0BC0138704700BF91
S31508000C90844641EA000313F003036DD1403A41D379
S31508000CA051F8043B40F8043B51F8043B40F8043B38
S31508000CB051F8043B40F8043B51F8043B40F8043B28
S31508000CC051F8043B40F8043B51F8043B40F8043B18
S31508000CD051F8043B40F8043B51F8043B40F8043B08
S31508000CE051F8043B40F8043B51F8043B40F8043BF8
S31508000CF051F8043B40F8043B51F8043B40F8043BE8
S31508000D0051F8043B40F8043B51F8043B40F8043BD7
S31508000D1051F8043B40F8043B51F8043B40F8043BC7
S31508000D20403ABDD2303211D351F8043B40F8043B67
S31508000D3051F8043B40F8043B51F8043B40F8043BA7
S31508000D4051F8043B40F8043B103AEDD20C3205D377
S31508000D5051F8043B40F8043B043AF9D2043208D06F
S31508000D60D2071CBF11F8013B00F8013B01D30B88E1
S31508000D7003806046704700BF082A13D38B078DD0BF
S31508000D8010F003038AD0C3F10403D21ADB071CBF91
S31508000D9011F8013B00F8013B80D331F8023B20F8FB
S31508000DA0023B7BE7043AD9D3013A11F8013B00F834
S31508000DB0013BF9D20B7803704B7843708B788370BC
S31508000DC060467047000000000000000000000000B8
S31508000DD00000000000000000000000000000000005
S31508000DE000000000000000000000000000000000F5
S31508000DF000000000000000000000000000000000E5
S31508000E0090F800F06DE9024520F007016FF0000C3C
S31508000E1010F0070491F820F040F049804FF00004E4
S31508000E206FF00700D1E9002391F840F000F10800BF
S31508000E3082FA4CF2A4FA8CF283FA4CF3A2FA8CF3F7
S31508000E404BBBD1E9022382FA4CF200F10800A4FA5E
S31508000E508CF283FA4CF3A2FA8CF3E3B9D1E90423B2
S31508000E6082FA4CF200F10800A4FA8CF283FA4CF3E9
S31508000E70A2FA8CF37BB9D1E9062301F1200182FAA3
S31508000E804CF200F10800A4FA8CF283FA4CF3A2FAA9
S31508000E908CF3002BC6D0002A04BF04301A4612BAB7
S31508000EA0B2FA82F2FDE8024500EBD2007047D1E9BA
S31508000EB0002304F00305C4F100004FEAC50514F049
S31508000EC0040F91F840F00CFA05F562EA05021CBF1A
S31508000ED063EA050362464FF00004A9E74FEA4102B8
S31508000EE012F5001215D211D56FF47873B3EB62526E
S31508000EF012D94FEAC12343F0004343EA505311F095
S31508000F00004F23FA02F018BF404270474FF0000026
S31508000F10704750EA013005D111F0004008BF6FF064
S31508000F20004070474FF00000704700BF53B94AB9F8
S31508000F30002908BF00281CBF4FF0FF314FF0FF30D3
S31508000F4000F07EB9ADF1080C6DE904CE00F006F8A4
S31508000F50DDF804E0DDE9022304B070472DE9F04727
S31508000F608C460E460446089D002B50D18A421746E9
S31508000F706CD9B2FA82FEBEF1000F0BD0CEF1200476
S31508000F8020FA04F401FA0EF644EA060C02FA0EF701
S31508000F9000FA0EF44FEA1749220CBCFBF9F01FFAC7
S31508000FA087F809FB10C642EA064600FB08F3B34277
S31508000FB009D9F61900F1FF3280F02281B34240F2D6
S31508000FC01F8102383E44F61AA2B2B6FBF9F309FBB2
S31508000FD0136642EA064403FB08F8A04509D9E41952
S31508000FE003F1FF3280F00A81A04540F20781023BF7
S31508000FF03C44C8EB040443EA00400021002D62D0BB
S3150800100024FA0EF400232C606B60BDE8F0878B424F
S3150800101007D9002D55D0002185E841000846BDE8CE
S31508001020F087B3FA83F1002940F09080B34202D3E7
S31508001030824200F2F880841A66EB03060120B44661
S31508001040002D40D085E81010BDE8F08712B90127B9
S31508001050B7FBF2F7B7FA87FEBEF1000F35D1F31BDF
S315080010604FEA17481FFA87FC0121B3FBF8F0220C58
S3150800107008FB103642EA06460CFB00F3B34207D9D2
S31508001080F61900F1FF3202D2B34200F2CE801046C2
S31508001090F61AA2B2B6FBF8F308FB136642EA064450
S315080010A00CFB03FCA44507D9E41903F1FF3202D26D
S315080010B0A44500F2B5801346CCEB040443EA00408D
S315080010C09CE729462846BDE8F087CEF1200106FAB6
S315080010D00EF307FA0EF720FA01F94FEA1748CE4041
S315080010E049EA0309B6FBF8FA4FEA194408FB1A66F7
S315080010F01FFA87FC44EA06430AFB0CF29A4200FAF6
S315080011000EF40AD9DB190AF1FF3180F087809A427A
S3150800111040F28480AAF1020A3B449B1A1FFA89F915
S31508001120B3FBF8F108FB113349EA034301FB0CF65C
S315080011309E4207D9DB1901F1FF326BD29E4269D96B
S3150800114002393B449B1B41EA0A418EE7C1F1200E56
S3150800115022FA0EF48B40234320FA0EF706FA01F41E
S315080011604FEA134C26FA0EF63C43B6FBFCF9270C5D
S315080011700CFB19661FFA83F847EA064609FB08F7C7
S31508001180B74202FA01F200FA01FA08D9F61809F18B
S31508001190FF3041D2B7423FD9A9F102091E44F61BD6
S315080011A0A0B2B6FBFCF40CFB146640EA064704FB47
S315080011B008F8B84507D9FF1804F1FF3028D2B84512
S315080011C026D9023C1F4444EA0940C8EB0707A0FB9E
S315080011D002894F4544464E4614D329D065B3BAEB27
S315080011E0040367EB060707FA0EFECB40CF404EEA2C
S315080011F0030385E888000021BDE8F0871346F8E672
S315080012001046E0E6B8EB020469EB03060138E5E7A9
S315080012100446D8E7114695E78146C0E78A467CE743
S31508001220023B3C4448E708460AE702383E442FE7B3
S31508001230C245E7D33E46D1E72946BDE8F08700BF59
S31508001240704700BF80B500AF0221104804F0BEFA0F
S315080012500023012209210D4804F09AF90B4804F0ED
S3150800126061FA0221094804F097FA0346002B0CBFDD
S3150800127001230023DBB2002B00D0F2E7034804F079
S3150800128061FA03461B119BB2184680BD0020014037
S3150800129080B582B000AF4FF000037B604FF48053F7
S315080012A03B60FFF7CFFF034607EE903AF8EEE77A82
S315080012B09FED0B7A67EE876A3B6807EE903AB8EEC1
S315080012C0677AC6EE877A77EEA77AC7ED017A7B68E2
S315080012D007EE903AB0EE670A0837BD4680BD00BFF4
S315080012E03333534080B582B000AF0346FB71FB79B8
S315080012F0022B14D0032B07D0002B00D019E00121B4
S315080013000E4804F045FB14E04FF480410C4804F005
S315080013103FFB4FF400410A4804F03AFB09E04FF45A
S315080013208051084804F034FB0221044804F030FBDD
S3150800133000BF00BF0837BD4680BD00BF001C024085
S31508001340000802400004024080B582B000AF0346A0
S31508001350FB71FB79092B02D900F0BCF982E1FB7914
S31508001360092B00F27F8101A252F823F09513000899
S31508001370DD130008251400086D140008B5140008CC
S31508001380FD140008451500088D150008D515000838
S315080013901D1600081021B54804F0EAFA4FF48051EA
S315080013A0B24804F0F5FA0421B14804F0F1FA08212C
S315080013B0AF4804F0EDFA4FF48041AD4804F0E8FA7E
S315080013C04FF40041AA4804F0E3FA0121A94804F0C1
S315080013D0DFFA0221A74804F0DBFA43E11021A3480B
S315080013E004F0C6FA4FF48051A04804F0D1FA04215B
S315080013F09F4804F0BDFA08219D4804F0C9FA4FF445
S3150800140080419B4804F0B4FA4FF40041984804F030
S31508001410AFFA0121974804F0ABFA0221954804F087
S31508001420B7FA1FE11021914804F0B2FA4FF480513F
S315080014308E4804F09DFA04218D4804F0A9FA082183
S315080014408B4804F0A5FA4FF48041894804F0A0FAC5
S315080014504FF40041864804F08BFA0121854804F0D0
S3150800146097FA0221834804F093FAFBE010217F489B
S3150800147004F08EFA4FF480517C4804F089FA04216E
S315080014807B4804F085FA0821794804F081FA4FF47C
S315080014908041774804F06CFA4FF40041744804F030
S315080014A067FA0121734804F073FA0221714804F0BF
S315080014B06FFAD7E010216D4804F06AFA4FF48051AC
S315080014C06A4804F065FA0421694804F051FA0821CB
S315080014D0674804F05DFA4FF48041654804F048FA1D
S315080014E04FF40041624804F053FA0121614804F0C0
S315080014F03FFA02215F4804F04BFAB3E010215B483B
S3150800150004F046FA4FF48051584804F041FA042191
S31508001510574804F03DFA0821554804F039FA4FF4C3
S315080015208041534804F024FA4FF40041504804F02F
S315080015302FFA01214F4804F02BFA02214D4804F0F6
S3150800154017FA8FE01021494804F022FA4FF4805127
S31508001550464804F01DFA0421454804F019FA082102
S31508001560434804F015FA4FF48041414804F010FA54
S315080015704FF400413E4804F00BFA01213D4804F0BF
S3150800158007FA02213B4804F0F3F96BE010213748CB
S3150800159004F0EEF94FF48051344804F0F9F90421C7
S315080015A0334804F0E5F90821314804F0F1F94FF41D
S315080015B080412F4804F0DCF94FF400412C4804F030
S315080015C0E7F901212B4804F0E3F90221294804F040
S315080015D0DFF947E01021254804F0DAF94FF4805185
S315080015E0224804F0D5F90421214804F0D1F908214C
S315080015F01F4804F0CDF94FF480411D4804F0C8F99E
S315080016004FF400411A4804F0C3F90121194804F0BF
S31508001610BFF90221174804F0BBF923E0102113484B
S3150800162004F0B6F94FF48051104804F0B1F90421DA
S315080016300F4804F0ADF908210D4804F0A9F94FF454
S3150800164080410B4804F094F94FF40041084804F02F
S315080016509FF90121074804F09BF90221054804F087
S3150800166097F900BF0837BD4680BD00BF0004024099
S3150800167000080240001C024080B500AF1021124845
S3150800168004F076F94FF480510F4804F071F90421FB
S315080016900E4804F06DF908210C4804F069F94FF476
S315080016A080410A4804F064F94FF40041074804F001
S315080016B05FF90121064804F05BF90221044804F0A9
S315080016C057F900BF80BD00BF000402400008024071
S315080016D0001C024080B500AF1021124804F058F9EA
S315080016E04FF480510F4804F043F904210E4804F0E2
S315080016F04FF908210C4804F04BF94FF480410A4889
S3150800170004F046F94FF40041074804F041F9012175
S31508001710064804F03DF90221044804F029F900BFFF
S3150800172080BD00BF0004024000080240001C0240C1
S3150800173080B584B000AF03460A46FB711346BB80EA
S31508001740FB79FB60FB68002B0CDDFB68DBB21846F7
S31508001750FFF7FAFDBB88184603F008FEFB68013B55
S31508001760FB60EFE70020FFF7EFFD00BF1037BD462F
S3150800177080BD00BF0000000090B587B000AF0346EB
S3150800178087ED020AFB730023FB82D7ED027AF5EE9A
S31508001790C07AF1EE10FA0AD5D7ED027AF1EE677A39
S315080017A0FDEEE77AC7ED017ABB889BB207E0D7ED75
S315080017B0027AFDEEE77AC7ED017ABB889BB2FB8217
S315080017C0D7ED027A9FED507AF4EEC77AF1EE10FA69
S315080017D001DD6423FB824D4B60221A804B4B0022AD
S315080017E09A814A4B01225A80494B1B881A46B7F9F7
S315080017F0163003FB02F31846FEF786FE40A3D3E92C
S315080018000023FEF7E7FE03460C4618462146FFF777
S315080018107BF902463D4B9A60FB7B012B34D1D7ED11
S31508001820027AF5EE407AF1EE10FA0BD1374B002228
S315080018309A603649374804F087FB3449354804F03E
S31508001840FDFB1DE0D7ED027AF5EEC07AF1EE10FA4F
S315080018500BDD2E492F4804F077FB2C4B00229A60AB
S315080018602A492C4804F0EAFB0AE02849294804F0EA
S31508001870E5FB264B00229A602449264804F064FBBF
S31508001880FB8ADAB2244B1A70FB7B002B34D1D7EDD6
S31508001890027AF5EE407AF1EE10FA0BD11B4B0022D4
S315080018A09A601A491D4804F04FFB18491B4804F072
S315080018B0C5FB1DE0D7ED027AF5EEC07AF1EE10FA17
S315080018C00BDD1249154804F03FFB104B00229A60C5
S315080018D00E49124804F0B2FB0AE00C490F4804F01E
S315080018E0ADFB0A4B00229A6008490C4804F02CFB11
S315080018F0FB8ADAB20A4B1A7000BF1C37BD4690BD88
S315080019007B14AE47E17A843F0000C842A80A00204B
S3150800191028A2000800080040C0080020000C00406B
S31508001920C108002080B500AF04210D4804F030F846
S3150800193000210C4804F0E8FA00210B4804F0E4FA08
S315080019409FED0A0A0020FFF717FF9FED080A0120FE
S31508001950FFF712FF064B00221A7000BF80BD00BFBA
S315080019600000024000080040000C00400000000093
S31508001970C208002080B500AF0421084803F0F8FF2C
S315080019800121074804F0C0FA0121064804F0BCFA10
S31508001990054B01221A7000BF80BD00BF000002403F
S315080019A000080040000C0040C208002080B400AFC8
S315080019B0034B1B781846BD465DF8047B704700BF8D
S315080019C0C208002080B584B000AF0346FB80002320
S315080019D07B81FB8843F080033B81404B1B681021C9
S315080019E0184603F0D5FF3E4B1B680221184604F043
S315080019F0D5F90346002B0CBF01230023DBB2002BCD
S31508001A0000D0F0E7364B1B683A891146184604F0B1
S31508001A10B5F9334B1B680121184604F0BFF9034694
S31508001A20002B0CBF01230023DBB2002B00D0F0E70C
S31508001A302B4B1B68184604F093F903467B81284B09
S31508001A401B680221184604F0A9F90346002B0CBFAF
S31508001A5001230023DBB2002B00D0F0E7204B1B68E4
S31508001A600021184604F08AF91D4B1B680121184607
S31508001A7004F094F90346002B0CBF01230023DBB2C4
S31508001A80002B00D0F0E7164B1B68184604F068F9DF
S31508001A9003467B81124B1B680221184604F07EF927
S31508001AA00346002B0CBF01230023DBB2002B00D01A
S31508001AB0F0E70A4B1B681021184603F059FF00236C
S31508001AC0FB60FB68042B03DCFB680133FB60F8E76B
S31508001AD07B8918461037BD4680BD00BF040000202C
S31508001AE00000002080B584B000AF03460A46FB809C
S31508001AF01346BB803D4B1B681021184603F048FF70
S31508001B003B4B1B680221184604F048F90346002B94
S31508001B100CBF01230023DBB2002B00D0F0E7344BC7
S31508001B201B68FA881146184604F028F9304B1B68DA
S31508001B300121184604F032F90346002B0CBF012395
S31508001B400023DBB2002B00D0F0E7294B1B681846B0
S31508001B5004F006F9264B1B680221184604F01EF904
S31508001B600346002B0CBF01230023DBB2002B00D059
S31508001B70F0E71F4B1B68BA881146184604F0FEF8B2
S31508001B801B4B1B680121184604F008F90346002B75
S31508001B900CBF01230023DBB2002B00D0F0E7144B67
S31508001BA01B68184604F0DCF8114B1B68022118461E
S31508001BB004F0F4F80346002B0CBF01230023DBB224
S31508001BC0002B00D0F0E7094B1B681021184603F0DC
S31508001BD0CFFE0023FB60FB68092B03DCFB6801339F
S31508001BE0FB60F8E700BF1037BD4680BD0400002043
S31508001BF00000002090B585B000AF03460A46FB7189
S31508001C001346BB7100237B810023FB810023BB8124
S31508001C10FB79002B02D0032B18D02FE0BB79012BC0
S31508001C2009D0022B0CD0002B00D029E04323FB81DE
S31508001C304423BB8109E04523FB814623BB8104E09D
S31508001C404723FB814823BB8100BF19E0BB79012BE1
S31508001C5009D0022B0CD0002B00D011E03B23FB81CE
S31508001C603C23BB8109E03D23FB813E23BB8104E085
S31508001C703F23FB814023BB8100BF01E07B890FE046
S31508001C80FB891846FFF79EFE03461B029CB2BB89DA
S31508001C901846FFF797FE034623449BB27B817B8950
S31508001CA01BB218461437BD4690BD00BF80B500AFBD
S31508001CB000216B20FFF716FFEE216C20FFF712FFBD
S31508001CC010216A20FFF70EFF06216820FFF70AFF9A
S31508001CD000211A20FFF706FF18211B20FFF702FF35
S31508001CE018211C20FFF7FEFE00BF80BD0000000083
S31508001CF090B583B000AF4FF000037B600023FB7004
S31508001D00FB780133132B1ADCFB78FA7801322E495B
S31508001D1092000A4412682C499B000B441A60FB780F
S31508001D20294A9B001344D3ED007A97ED017A77EEA2
S31508001D30277AC7ED017AFB780133FB70E0E70121CA
S31508001D400320FFF757FF034607EE903AF8EEE77AC7
S31508001D501D4BC3ED137A1C4BD3ED137A97ED017A1D
S31508001D6077EE277AC7ED017A97ED017AF3EE046AE2
S31508001D70C7EE267A154BC3ED007A144B93ED007A1D
S31508001D80134BD3ED007A77EE677A9FED127AC7EE9A
S31508001D90876A16EE900AFEF7C9FB09A3D3E9002362
S31508001DA0FEF742FD03460C4618462146FEF7CCFED2
S31508001DB00246094B1A6000BF0C37BD4690BD00BFEE
S31508001DC09A99999999992340BC0A0020C408002039
S31508001DD0C808002000000045CC08002080B582B065
S31508001DE000AF4FF000037B6000233B60F7EE006A0C
S31508001DF09FED167AC6EE877AFDEEE77A17EE902AF9
S31508001E003B689A4210DD00F023F8B0EE407AD7ED31
S31508001E10017A77EE877AC7ED017A012003F0A6FAF0
S31508001E203B6801333B60E1E73B68013307EE903AD4
S31508001E30F8EEE77A97ED017AC7EE276AF0EE667A4A
S31508001E40B0EE670A0837BD4680BD00BF6F12833AF9
S31508001E5080B400AF044B1B6807EE903AB0EE670AF1
S31508001E60BD465DF8047B7047C408002080B500AF06
S31508001E70FFF7B4FFF0EE407A024BC3ED007A00BFDD
S31508001E8080BD00BFC808002080B400AF044B1B68A3
S31508001E9007EE903AB0EE670ABD465DF8047B7047D8
S31508001EA0CC08002080B500AF02210020FFF7A2FE73
S31508001EB003469BB25B429BB29AB2044B1A8000F06F
S31508001EC083F800F065F800BF80BD00BFD008002089
S31508001ED080B400AF034B1B881BB21846BD465DF89D
S31508001EE0047B7047D008002080B582B000AF00237D
S31508001EF07B6000233B60F0EE006A9FED137AC6EE26
S31508001F00877AFDEEE77A17EE902A3B689A420DDD4E
S31508001F10FFF7DEFF03461A467B6813447B60012001
S31508001F2003F024FA3B6801333B60E4E73B6801337E
S31508001F307A6892FBF3F307EE903AF8EEE77AB0EE9A
S31508001F40670A0837BD4680BD6F12833A80B500AF71
S31508001F50FFF7CAFFF0EE407A024BC3ED007A00BFE6
S31508001F6080BD00BFDC08002080B400AF064B4FF0F0
S31508001F7000021A60054B4FF000021A6000BFBD460A
S31508001F805DF8047B704700BFD4080020D8080020FD
S31508001F9080B400AF094BD3ED007A9FED097A27EE9E
S31508001FA0877A084BD3ED007A77EE277A054BC3ED8F
S31508001FB0007A00BFBD465DF8047B7047E008002044
S31508001FC06F12833AD808002098B500AF164B1B88C5
S31508001FD01BB207EE903AB8EEE77A144BD3ED007AC7
S31508001FE077EE677A17EE900AFEF7A0FA0CA3D3E904
S31508001FF00023FEF719FC03460C4618462146FEF751
S31508002000A3FD034600EE103A03F05EF9F0EE407ABF
S31508002010074BC3ED007A00BF98BD00BFAFF3008041
S315080020206666666666663040D0080020DC080020D2
S31508002030E008002080B400AF044B1B6807EE903A16
S31508002040B0EE670ABD465DF8047B7047E0080020DD
S3150800205090B585B000AF4FF00003FB604FF000036A
S31508002060BB600023FB71FB790133132B31DCFB7951
S31508002070FA7901326C4992000A4412686A499B004F
S315080020800B441A60FB79684A9B001344D3ED007A27
S3150800209097ED037A77EE277AC7ED037AFB79FA7913
S315080020A00132624992000A44126860499B000B4457
S315080020B01A60FB795D4A9B001344D3ED007A97EDCD
S315080020C0027A77EE277AC7ED027AFB790133FB713C
S315080020D0C9E7574B5B6A07EE903AF8EE677A9FEDC9
S315080020E0557A77EE677A17EE900AFEF71FFA48A335
S315080020F0D3E90023FEF76EFA03460C461846214636
S3150800210045A3D3E90023FEF78FFB03460C46184682
S31508002110214643A3D3E90023FEF75CFA03460C469F
S3150800212018462146FEF710FD02463F4BDA644FF08B
S3150800213080435B6A07EE903AF8EE677A9FED3D7A40
S3150800214077EEC77A17EE900AFEF7F0F930A3D3E9CF
S315080021500023FEF73FFA03460C46184621462EA3EF
S31508002160D3E90023FEF760FB03460C4618462146D2
S315080021702BA3D3E90023FEF72DFA03460C4618468F
S315080021802146FEF7E1FC0246284BDA644FF080430D
S3150800219047F6FA725A62264B47F6FA725A62224B89
S315080021A0D3ED137A97ED037A77EE277AC7ED037A9C
S315080021B01D4BD3ED137A97ED027A77EE277AC7EDA2
S315080021C0027A97ED037AF3EE046AC7EE267A1A4B7B
S315080021D0C3ED007A97ED027AF3EE046AC7EE267A23
S315080021E0164BC3ED007A144B93ED007A134BD3EDDF
S315080021F0007A37EE277AF0EE006AC7EE267A104B99
S31508002200C3ED007A00BF1437BD4690BDAFF300801A
S315080022105D8940F50F22593FFCA9F1D24D62503F26
S3150800222032E6AE25E4837E3F0C0B00205C0B0020D3
S315080022300004004000F4FF46EC080020E8080020EF
S31508002240F008002080B500AFFFF71EFEB0EE407A1A
S31508002250F3EE047A67EE277A9FED077A67EE877AB8
S31508002260F0EE006A87EEA67A044BD3ED007A77EE95
S31508002270277AB0EE670A80BD6F12833AF00800200D
S3150800228080B584B000AF03460A46FB711346BB719E
S31508002290FB79042B23D801A252F823F0B1220008B7
S315080022A0B1220008BB220008C7220008D322000872
S315080022B0144BFB6004237B8111E0134BFB604FF446
S315080022C000637B810BE0104BFB604FF480637B81DE
S315080022D005E00D4BFB604FF480537B8100BFBB7953
S315080022E0002B05D07B891946F86803F041FB04E00A
S315080022F07B891946F86803F04BFB00BF1037BD46CB
S3150800230080BD00BF000C02400008024080B584B0C2
S3150800231000AF0346FB71FB79042B26D801A252F8BD
S3150800232023F000BF39230008432300084D23000883
S3150800233057230008612300081E4BBB600F23FB735D
S3150800234013E01C4BBB600B23FB730EE0194BBB6001
S315080023500823FB7309E0174BBB600A23FB7304E0F1
S31508002360144BBB600E23FB7300BF0221B86803F051
S315080023702DFAF97B00230122B86803F009F9B86839
S3150800238003F0D0F90221B86803F006FA0346002BD9
S315080023900CBF01230023DBB2002B00D0F2E7B8689C
S315080023A003F0D0F903461B119BB218461037BD46F9
S315080023B080BD00BF0020014080B582B000AF034653
S315080023C0FB71FB7901211846FFF75AFF00BF083752
S315080023D0BD4680BD80B582B000AF0346FB71FB7970
S315080023E000211846FFF74CFF00BF0837BD4680BDE1
S315080023F080B500AF0020FFF7EDFF0120FFF7EAFFE9
S315080024000220FFF7E7FF0320FFF7E4FF00BF80BDC8
S31508002410B0B586B000AF03460A46FB711346BB80CB
S315080024200023FB824FF000033B610023FB73FB7B19
S315080024300133092B00F38580FA79F87BF979FB7B60
S315080024405C1C824D0B469B000B445B00234435F80D
S3150800245013407E4913469B0013445B0003442246FF
S3150800246021F81320FA79F97B784813469B00134420
S315080024705B000B4430F813309AB2FB8A13449BB2C4
S31508002480FB82FB7B0133092B57DCFA79F87BF97958
S31508002490FB7B5C1C6E4D0B469B000B445B00234488
S315080024A035F813406A4913469B0013445B000344FE
S315080024B0224621F81320FA79F87BF979FB7B5C1C14
S315080024C0644D0B469B000B445B0023449B002B4446
S315080024D01968604C13469B0013445B0003449B0039
S315080024E023441960FA79F87BF979FB7B5C1C5A4D11
S315080024F00B469B000B445B002B4423441C7856492F
S3150800250013469B0013445B000B44034422461A708F
S31508002510FA79F97B4E4813469B0013445B000B443B
S3150800252030F813301BB207EE903AF8EEE77A97EDDB
S31508002530047A77EE277AC7ED047AFB7B0133FB73BF
S3150800254075E7FA79414913469B0013449B000B44EF
S315080025501233BA881A80FA8ABB8813449BB2FB8264
S31508002560B7F916303D4A82FB03129210DB17D31ACD
S31508002570BB81FA79364913469B0013449B000B44EA
S315080025801233BA891A80B7F90C3007EE903AF8EE8A
S31508002590E77A97ED047A77EE277AC7ED047AFA791F
S315080025A0D7ED047AF2EE046A87EEA67AB7F90C300C
S315080025B007EE903AF8EEE77A77EE677A25491346FA
S315080025C09B001344DB000B442433C3ED007AFC79EB
S315080025D0FB79184600F008FA034619461E4A2346B0
S315080025E09B0023445B00134409330A461A70FB799F
S315080025F0042B26D801A252F823F000BF11260008A2
S315080026001B260008252600082F260008392600085C
S31508002610B7F90C30124A136013E0B7F90C30114AB7
S3150800262013600EE0B7F90C300F4A136009E0B7F9EA
S315080026300C300E4A136004E0B7F90C300C4A1360EC
S3150800264000BF00BF1837BD46B0BD00BFAC0B0020A9
S31508002650F408002058090020200A002067666666EC
S31508002660540A0020580A00205C0A0020600A00204C
S31508002670640A002090B587B000AF0346FB71FFF7E8
S31508002680B7FE0020FFF742FE03469BB21BB219466F
S31508002690002000F011F90120FFF738FE03469BB22F
S315080026A01BB21946012000F007F90220FFF72EFE9B
S315080026B003469BB21BB21946022000F0FDF8032020
S315080026C0FFF724FE03469BB21BB21946032000F00F
S315080026D0F3F80420FFF71AFE03469BB21BB219460D
S315080026E0042000F0E9F8FB79002B0FD00020FFF753
S315080026F063FE0120FFF760FE00237B617B69B3F56B
S31508002700FA6F03DA7B6901337B61F7E70020FFF78D
S31508002710FDFD03461C46002000F092F803469BB2D6
S31508002720E31A9BB29BB21BB219460020FFF770FE54
S315080027300120FFF7EBFD03461C46012000F080F858
S3150800274003469BB2E31A9BB29BB21BB21946012001
S31508002750FFF75EFE0020FFF73DFEFB79002B0CD04D
S315080027600220FFF729FE00233B613B69B3F57A7F18
S3150800277003DA3B6901333B61F7E70220FFF7C6FD41
S3150800278003461C46022000F05BF803469BB2E31A98
S315080027909BB29BB21BB219460220FFF739FE0220F4
S315080027A0FFF718FEFB79002B0CD00320FFF704FE79
S315080027B00023FB60FB68B3F57A7F03DAFB68013315
S315080027C0FB60F7E70320FFF7A1FD03461C4603203D
S315080027D000F036F803469BB2E31A9BB29BB21BB2D3
S315080027E019460320FFF714FE0320FFF7F3FDFB79D4
S315080027F0002B0CD00420FFF7DFFD0023BB60BB686D
S31508002800B3F57A7F03DABB680133BB60F7E70420C8
S31508002810FFF77CFD03461C46042000F011F803462A
S315080028209BB2E31A9BB29BB21BB219460420FFF770
S31508002830EFFD0420FFF7CEFD00BF1C37BD4690BD57
S3150800284080B483B000AF0346FB71FB79042B21D813
S3150800285001A252F823F000BF6D2800087528000869
S315080028607D280008852800088D2800080D4B1B6860
S315080028709BB210E00C4B1B689BB20CE00B4B1B6821
S315080028809BB208E00A4B1B689BB204E0094B1B6825
S315080028909BB200E000231BB218460C37BD465DF814
S315080028A0047B7047680A00206C0A0020700A002022
S315080028B0740A0020780A002080B483B000AF03466B
S315080028C00A46FB711346BB80FB79042B25D801A267
S315080028D052F823F0E9280008F3280008FD28000824
S315080028E00729000811290008B7F904300E4A1360B1
S315080028F013E0B7F904300D4A13600EE0B7F9043057
S315080029000B4A136009E0B7F904300A4A136004E079
S31508002910B7F90430084A136000BF00BF0C37BD463C
S315080029205DF8047B704700BF680A00206C0A002027
S31508002930700A0020740A0020780A002080B483B048
S3150800294000AF0346FB71FB79042B21D801A252F88C
S3150800295023F000BF692900087129000879290008B1
S3150800296081290008892900080D4B1B689BB210E0D5
S315080029700C4B1B689BB20CE00B4B1B689BB208E028
S315080029800A4B1B689BB204E0094B1B689BB200E02C
S3150800299000231BB218460C37BD465DF8047B70470A
S315080029A0540A0020580A00205C0A0020600A002009
S315080029B0640A002090B583B000AF0346FB71FB792B
S315080029C01846FFF7BBFF03461C46FB79184601F07D
S315080029D051FE03469C42ACBF01230023DBB21846D6
S315080029E00C37BD4690BD00BF80B485B000AF034626
S315080029F0FB710023FB730023BB73BB7B092B1FD81A
S31508002A00FA79B97B124813469B0013445B000B44C2
S31508002A109B000344D3ED007AF5EEC07AF1EE10FA86
S31508002A2005D5FB7BDBB2013BDBB2FB7304E0FB7B2A
S31508002A30DBB20133DBB2FB73BB7B0133BB73DCE771
S31508002A40FB7B18461437BD465DF8047B704700BF0C
S31508002A505809002090B583B000AF0346FB71FB7997
S31508002A601846FFF7C1FF03465B421846FDF74CFDC3
S31508002A7001231C464FF00002084BFEF71DF80346DB
S31508002A80002B01D100231C46E3B2002B01D0002302
S31508002A9000E0012318460C37BD4690BD00002240D1
S31508002AA080B483B000AF0346FB71FB79012B1DD0C0
S31508002AB0022B35D0002B4DD12B4BD3ED007AB3EE3C
S31508002AC00E7A27EE877A284BD3ED017ADFED276A4F
S31508002AD067EEA67A37EE277A234BD3ED027ADFED37
S31508002AE0246A67EEA67A77EE277A35E0214BD3ED8E
S31508002AF0007A9FED217A27EE877A1E4BD3ED017A6D
S31508002B00DFED1E6A67EEA67A37EE277A194BD3ED04
S31508002B10027ADFED176A67EEA67A77EE277A1BE068
S31508002B20174BD3ED007A9FED177A27EE877A144B69
S31508002B30D3ED017ADFED0E6A67EEA67A37EE277ACD
S31508002B400F4BD3ED027ADFED0A6A67EEA67A77EEC7
S31508002B50277A01E0DFED067AB0EE670A0C37BD4644
S31508002B605DF8047B704700BF800A0020000016430A
S31508002B7000000000980A00200000FA430080D444B0
S31508002B808C0A0020CDCCCC3DB0B52DED028B86B09D
S31508002B9000AF4FF000037B614FF000033B61B24B7F
S31508002BA01B68FB6001F030FEB0EE408AFFF74AFB77
S31508002BB0F0EE407A78EE677AAB4BC3ED007AAA4B13
S31508002BC05B681846FDF7B2FC04460D46A64B1B6823
S31508002BD01846FDF7ABFCA2A3D3E90023FDF7FAFCE0
S31508002BE002460B4620462946FDF742FB03460C469D
S31508002BF018462146FDF7A8FF02469B4B5A609B4B99
S31508002C001B68FB604FF000033B604FF00003BB609E
S31508002C104FF000037B600020FFF7CCFE0346002B35
S31508002C2006D000F0BBFA0346002B01D0012300E0D2
S31508002C300023002B47D0002001F0F2FC07EE900A93
S31508002C40F8EE677AC7ED027A0020FFF777FE0346AB
S31508002C5007EE903AF8EEE77AC7ED017A97ED017A32
S31508002C60D7ED027A77EE677AC7ED007AD7ED007A64
S31508002C70F5EEC07AF1EE10FA0CD5D7ED007ABBEE78
S31508002C800E7AF4EEC77AF1EE10FA4CBF0123002350
S31508002C90DBB20BE0D7ED007AB3EE0E7AF4EEC77A24
S31508002CA0F1EE10FACCBF01230023DBB2002B01D0D2
S31508002CB03B687B610020FFF7CDFE0346002B02D060
S31508002CC04FF000037B610120FFF774FE0346002BDB
S31508002CD006D000F063FA0346002B01D0012300E07A
S31508002CE00023002B4CD0012001F09AFC07EE900A35
S31508002CF0F8EE677AC7ED027A0120FFF71FFE034652
S31508002D0007EE903AF8EEE77AC7ED017A97ED017A81
S31508002D10D7ED027A77EE677AC7ED007AFEF7ACFC54
S31508002D20D7ED007AF5EEC07AF1EE10FA0CD5D7EDAC
S31508002D30007ABBEE0E7AF4EEC77AF1EE10FA4CBFC3
S31508002D4001230023DBB20BE0D7ED007AB3EE0E7A4F
S31508002D50F4EEC77AF1EE10FACCBF01230023DBB2FA
S31508002D60002B01D03B683B610120FFF773FE034649
S31508002D70002B05D04FF000037B610320FEF7B2FA63
S31508002D8001F042FDB0EE407AF4EE007AB4EEE77A4E
S31508002D90F1EE10FA4CBF01230023DBB2002B05D05D
S31508002DA04FF000033B614FF000037B6197ED057A16
S31508002DB0D7ED047A77EE677A2C4BC3ED007A2C4B65
S31508002DC01B68FB6001F03EFDB0EE408AFFF732F962
S31508002DD0F0EE407A78EE677A254BC3ED007A244BFD
S31508002DE05B681846FDF7A2FB04460D46204B1B6898
S31508002DF01846FDF79BFB1AA3D3E90023FDF7EAFB68
S31508002E0002460B4620462946FDF732FA03460C468B
S31508002E1018462146FDF798FE0246154B5A60134B95
S31508002E20D3ED007AF5EE407AF1EE10FA06D000F00E
S31508002E30B5F90346002B01D0012300E00023002B3F
S31508002E4004D00B4B4FF000025A6003E0074B4FF0DB
S31508002E5000025A6000BF1837BD46BDEC028BB0BDF4
S31508002E60FCA9F1D24D62503F980A00208C0A002036
S31508002E70800A002080B500AF0120FFF711FEF0EEB2
S31508002E80407AB0EE670A80BD80B52DED028B00AFA3
S31508002E900D4B1B78002B0CD00020FFF701FEB0EE7F
S31508002EA0408A0220FFF7FCFDF0EE407A78EE677A5A
S31508002EB004E00020FFF7F4FDF0EE407AB0EE670A72
S31508002EC0BD46BDEC028B80BDA50A002080B400AFCC
S31508002ED0034B01221A7000BFBD465DF8047B70479C
S31508002EE0A50A002080B400AF034B00221A7000BF69
S31508002EF0BD465DF8047B7047A50A002080B400AF84
S31508002F00034B01221A7000BFBD465DF8047B70476B
S31508002F10A40A002080B400AF034B00221A7000BF39
S31508002F20BD465DF8047B7047A40A002080B52DEDE8
S31508002F30028B82B000AF0346FB7197F90730002B6E
S31508002F400AD1FFF797FFB0EE408AFFF79DFFF0EE34
S31508002F50407A78EE677A09E0FFF78CFFB0EE408A90
S31508002F60FFF792FFF0EE407A78EE277AB0EE670A1E
S31508002F700837BD46BDEC028B80BD00BF00000000CF
S31508002F80B0B52DED028B84B000AF0346FB7197F9FF
S31508002F900730002B18D101F037FCB0EE408A01F05B
S31508002FA051FCB0EE407ADFED487A67EE277AF0EE0C
S31508002FB0006A87EEA67ADFED456AC7EE267A78EECE
S31508002FC0677AC7ED037A17E001F01EFCB0EE408A77
S31508002FD001F038FCB0EE407ADFED3B7A67EE277AEF
S31508002FE0F0EE006A87EEA67ADFED386AC7EE267A33
S31508002FF078EE277AC7ED037AF868FDF797FA2EA3D5
S31508003000D3E90023FDF710FC03460C461846214673
S315080030104FF000022E4BFDF7DDFA03460C46184624
S3150800302021464FF000022B4BFDF7FEFB03460C46EC
S31508003030184621464FF00002274BFDF7CBFA034608
S315080030400C46184621464FF00002244BFDF7ECFBD0
S3150800305003460C461846214619A3D3E90023FDF773
S31508003060E3FB03460C4625461C46FEF711F910EE0F
S31508003070103A1846FDF75AFA02460B4620462946E4
S31508003080FDF7D2FB03460C46184621464FF00002D0
S31508003090134BFDF79FFA03460C4618462146FDF7E3
S315080030A053FD034607EE903AB0EE670A1037BD4661
S315080030B0BDEC028BB0BD00BFF5E9D0A8828A083FF7
S315080030C03333333333D36B400000304200007A4445
S315080030D000804440000022400000164000001240D4
S315080030E00000594080B582B000AF00F04BF80346A7
S315080030F0002B3FD0214B1B78002B03D1204B1B788C
S31508003100002B37D04FF000037B604FF000033B6085
S315080031101A4B1B78002B09D00020FFF731FF87EDEB
S31508003120010A0220FFF72CFF87ED000A144B1B78D3
S31508003130002B15D00020FFF7F9FEB0EE407AD7ED48
S31508003140017A77EE877AC7ED017A0220FFF7EEFE5D
S31508003150B0EE407AD7ED007A77EE877AC7ED007A37
S3150800316097ED010A0120FEF707FB97ED000A0020FC
S31508003170FEF702FB00BF0837BD4680BDA60A002041
S315080031800800002080B400AF034B1B781846BD46E4
S315080031905DF8047B704700BFA40A002080B400AF26
S315080031A0034B1B781846BD465DF8047B704700BF85
S315080031B0A50A002080B500AF002000F009F802201B
S315080031C000F006F8012000F003F800BF80BD00BF3C
S315080031D080B483B000AF0346FB71FB79032B33D869
S315080031E001A252F823F000BFF93100082D32000879
S315080031F01332000847320008164B4FF000021A60D7
S31508003200144B4FF000025A60124B4FF000029A60BE
S315080032101AE0114B4FF000021A600F4B4FF00002F4
S315080032205A600D4B4FF000029A600DE00B4B4FF0C1
S3150800323000021A60094B4FF000025A60074B4FF024
S3150800324000029A6000E000BF00BF0C37BD465DF87B
S31508003250047B7047800A00208C0A0020980A002008
S3150800326080B483B000AF03463960FB7197F9073025
S31508003270002B0BDA0D49FB7903F00F03043B3A6880
S31508003280D2B21201D2B20B441A7609E0084997F96C
S3150800329007303A68D2B21201D2B20B4483F800233F
S315080032A000BF0C37BD465DF8047B704700ED00E0B3
S315080032B000E100E080B582B000AF78607B68013B32
S315080032C0B3F1807F01D301230FE00A4A7B68013BF3
S315080032D053600F214FF0FF30FFF7C2FF054B002266
S315080032E09A60044B07221A60002318460837BD4621
S315080032F080BD00BF10E000E080B500AF00F00EF81A
S3150800330000F024F800F0F8F800F05EF900F0A2F9F1
S3150800331000F008FA00F0D4FA00BF80BD80B584B08A
S3150800332000AF01F047FF3B46184602F08BFB7B686F
S31508003330054AA2FB03239B091846FFF7BBFF00BFFC
S315080033401037BD4680BD00BFD34D621080B582B030
S3150800335000AF634A624B1B6823F0847323F48033FF
S3150800336013600121012002F017FC0121022002F05E
S3150800337013FC0121042002F00FFC0121082002F0B1
S315080033800BFC0121802002F007FC3B46184602F0A0
S31508003390BBFA49F210033B6002237B7101233B71A0
S315080033A00023BB710023FB713B4619464D4802F0CA
S315080033B01DFA4FF480433B603B4619464A4802F0E3
S315080033C015FA4FF480433B6000233B710123FB71E0
S315080033D03B461946434802F009FA3B46184602F0AE
S315080033E093FA4DF60C433B6002237B7101233B7134
S315080033F00023BB710023FB713B4619463B4802F08C
S31508003400F5F90421394802F0B3FA0821374802F0E1
S31508003410AFFA4FF48061354802F0AAFA4FF400611A
S31508003420324802F0A5FA4FF48051304802F0A0FA6B
S315080034304FF480412D4802F09BFA4FF400412B4887
S3150800344002F096FA3B46184602F05EFA03233B6002
S3150800345002237B7101233B710023BB710023FB719F
S315080034603B461946224802F0C1F90121204802F0DC
S315080034707FFA02211E4802F07BFA3B46184602F004
S3150800348043FA4FF4E0533B6002237B7101233B71FF
S315080034900023BB710023FB713B461946134802F013
S315080034A0A5F904233B603B461946124802F09EF9EB
S315080034B04FF480610D4802F06BFA4FF400610B4837
S315080034C002F066FA4FF48051084802F061FA0421C6
S315080034D0084802F05DFA00BF0837BD4680BD00BF48
S315080034E00038024000040240000002400008024082
S315080034F0001C0240000C024080B58CB000AF0121D0
S31508003500022002F049FB0121042002F045FB07F1E5
S315080035102803184602F0F8F9032387F82C3000230D
S3150800352087F82F30022387F82D300323BB6207F173
S3150800353028031946214802F059F93323BB6207F1DB
S31508003540280319461E4802F051F900211D4802F0C9
S3150800355003F801214FF4807002F05EFB01F070FF62
S3150800356000233B604FF480337B600023BB604FF43D
S315080035707063FB603B46184601F0C6FF00233B61BB
S3150800358000233B7500237B750023BB6100233B6248
S31508003590092387F8243007F110031946094801F072
S315080035A05DFF0121074801F0D7FF0021054802F019
S315080035B0D7F800BF3037BD4680BD00BF00040240C3
S315080035C0000802400020014080B586B000AF012106
S315080035D0102002F021FB0121012002F0DDFA07226A
S315080035E009211A4802F0E4F907220A21174802F0CD
S315080035F0DFF94FF4C0633B6102237B7502233B75F9
S3150800360007F110031946114802F0F0F84FF4E133B8
S315080036103B600023BB800023FB8000233B81002303
S31508003620BB810C237B813B461946094802F03AFECA
S31508003630012240F22551064802F022FF01210448E2
S3150800364002F0ECFE00BF1837BD4680BD0000024000
S315080036500010014080B588B000AF01214FF48050BA
S3150800366002F0DAFA0121012002F096FA07F11803AE
S31508003670184602F049F91023BB6101233B7703235F
S315080036807B770023BB770023FB7707F118031946DE
S31508003690224802F0ABF802233B77E023BB6107F12F
S315080036A0180319461D4802F0A1F810211B4802F01C
S315080036B05FF905220521194802F07AF90522062143
S315080036C0164802F075F905220721144802F070F928
S315080036D00023BB804FF48273FB8000233B810023C9
S315080036E07B810023BB814FF44073FB8110233B820F
S315080036F000237B820723BB823B1D1946084802F03C
S31508003700CBFA0121064802F00BFB1021034802F010
S315080037102FF900BF2037BD4680BD00BF000002401C
S315080037200030014080B58AB000AF0121012002F0C7
S3150800373033FA0121022002F02FFA04233B62032305
S3150800374087F82530012387F82430002387F82630A8
S31508003750012387F8273007F120031946534802F05A
S3150800376045F80421514802F013F90121042002F01A
S3150800377033FA0121082002F02FFA03233B620223C1
S3150800378087F82430022387F82530002387F8263067
S31508003790002387F8273007F120031946434802F02B
S315080037A025F8C0233B6207F120031946404802F07A
S315080037B01DF840F2EB43BB610023BB820023BB83A9
S315080037C00023FB820023BB7707F114031946394807
S315080037D002F000FB07F114031946374802F0FAFA1B
S315080037E060233B800023BB8101237B800023BB60D1
S315080037F03B4619462F4802F0A7FB08212D4802F040
S31508003800A5FC3B4619462B4802F018FC0821294816
S3150800381002F0B8FC3B461946274802F095FB0821FA
S31508003820254802F093FC3B461946234802F006FC5D
S315080038300821214802F0A6FC01214FF0804002F041
S3150800384043FB01214FF0804002F0BAFC01211B48DE
S3150800385002F03AFB0121194802F0B2FC02220621C5
S31508003860134802F0A5F802220721114802F0A0F831
S31508003870022200210D4802F09BF8022201210B4882
S3150800388002F096F801210B4802F01EFB01210A48B6
S3150800389002F01AFB0121074802F036FB012106480F
S315080038A002F032FB00BF2837BD4680BD000002404B
S315080038B00004024000080040000C004000040040DC
S315080038C080B586B000AF0121022002F065F901211A
S315080038D0042002F061F90121012002F07DF901219D
S315080038E0022002F079F902220621394802F060F82E
S315080038F002220721364802F05BF801220F213548DB
S3150800390002F056F801220321334802F051F807F174
S315080039101003184601F0F8FFC0233B6102233B75EC
S3150800392002237B750023BB750023FB7507F1100383
S315080039301946274801F05AFF4FF400433B6107F147
S3150800394010031946234801F051FF08233B6107F18C
S3150800395010031946204801F049FF4FF6FE73BB6075
S315080039600023BB800023BB810023FB800023BB739D
S315080039703B1D19464FF0804002F02CFA3B1D1946B4
S31508003980164802F027FA4FF6FF714FF0804002F012
S315080039908DFA0023002203214FF0804002F036FC06
S315080039A001214FF0804002F0AFFA4FF6FF710B4845
S315080039B002F07CFA002300220321084802F026FCC4
S315080039C00121064802F0A0FA00BF1837BD4680BD9F
S315080039D000080240000002400004024000040040C3
S315080039E0F0B587B002AF0023FB81B7F90E30632B21
S315080039F01CDC0023FB80FB889BB21BB242F20F72D1
S31508003A009342D4BF01230023DBB2002B08D0FB88E6
S31508003A109BB29BB29BB201339BB29BB2FB80EAE797
S31508003A20FB899BB201339BB2FB81DEE7FFF764FC9F
S31508003A3000F094FEFDF72CFC10EE103A1846FCF741
S31508003A4075FD03460C461A462346914801F032FB9B
S31508003A50FDF712FEFDF71CFCB0EE407AF1EE007A97
S31508003A60B4EEE77AF1EE10FA4CBF01230023DBB27D
S31508003A70002B1AD0FDF72EFE4FF4FA7001F076FCF3
S31508003A80FDF7FAFD4FF4FA7001F070FC4FF480412F
S31508003A90804801F053FF0346002B0CBF0123002387
S31508003AA0DBB2002B00D1E5E700BFFEF7FFF87A4B43
S31508003AB01B681846FCF73AFD03460C461A46234689
S31508003AC0764801F0F7FA744B5B681846FCF72EFD4A
S31508003AD003460C461A462346714801F0EBFA0020C5
S31508003AE0FEF72CFF034619466E4801F0E3FA01205B
S31508003AF0FEF724FF034619466B4801F0DBFA02205D
S31508003B00FEF71CFF03461946684801F0D3FA03205E
S31508003B10FEF714FF03461946654801F0CBFA042060
S31508003B20FEF70CFF03461946624801F0C3FA6248DD
S31508003B3001F0C0FA642001F019FC0420FEF7FEFE2D
S31508003B4003461846FCF7E0FC04460D46042000F040
S31508003B5091FD03461846FCF7D7FC4FF00002574B79
S31508003B60FCF738FD02460B4611461A4601231E4647
S31508003B7013460A4620462946FCF7BCFF0346002B97
S31508003B8001D100231E46F3B2002B00D18FE700BFF8
S31508003B904FF47A710320FDF7CBFDFDF76DFD00F0BC
S31508003BA01BFC474800F0D8FC454800F097FC00216C
S31508003BB0002000F07BFE012000F09AFE012000F0B4
S31508003BC097FE4FF4FA710320FDF7B2FD012101209B
S31508003BD000F090FF3B4B3C4A1A609FED3C1A0020D0
S31508003BE0F5EE000A9FED3A0A01F092F90020DFEDA2
S31508003BF0390A9FED390A00F0D5FF4FF47A7001F0C3
S31508003C00B5FB0520FDF7A0FB4FF47A7001F0AEFB7B
S31508003C10FDF788FEFDF730FD4FF480411D4801F0A1
S31508003C208DFE0346012B0CBF01230023DBB2002BBC
S31508003C3000D0F1E70023BB60BB68B3F5FA6F21DA61
S31508003C40204ABB689B0013441B681846FCF76EFCA9
S31508003C5005460E461B4ABB6803F51C5310339B00EA
S31508003C6013441B681846FCF761FC03460C46CDE96D
S31508003C7000342A463346194801F01CFABB6801335A
S31508003C80BB60D9E7012318461437BD46F0BD00BF0F
S31508003C9030A20008000402400C0000203CA20008E4
S31508003CA048A2000854A2000860A200086CA20008F6
S31508003CB078A2000884A2000890A200080000F83F35
S31508003CC0BC4E0120140C0020000080BF295CCF3EAA
S31508003CD06666E63E00000000EC51383D94A20008F6
S31508003CE098B500AF4FF480413C4801F041FE3C4B8B
S31508003CF01B6801333A4A136000F03CFD0120FEF7C9
S31508003D00B9FCFEF7CFF8FDF7F3FFFEF7A1F900F0CF
S31508003D10BFFEFEF739FFFFF7E5F9FDF747FE034655
S31508003D20002B54D02F4B1B889BB2002B0CBF0123B2
S31508003D300023DBB2002B11D02B4BD3ED007ABFEE5C
S31508003D40007AF4EE477AF1EE10FA40D1254B1B883B
S31508003D509BB201339AB2234B1A8038E0214B1B8859
S31508003D609BB242F20F72934294BF01230023DBB247
S31508003D70002B2CD01B4B1B889BB21C4600F078FDF1
S31508003D80F0EE407A184AA3001344C3ED007A154BA7
S31508003D901B889BB21C460020FEF7D0FD034607EEA3
S31508003DA0903AF8EEE77A104A04F51C5310339B0054
S31508003DB01344C3ED007A0B4B1B889BB201339AB2AE
S31508003DC0084B1A804FF48041044801F0E1FD4FF496
S31508003DD08041024801F0DCFD00BF98BD00000240AA
S31508003DE0100C002094440120140C002080B485B0E7
S31508003DF000AF78600B46FB701346BB70BB78002B90
S31508003E0002D00123FB7301E00023FB73FB781F2B11
S31508003E1000F2848101A252F823F000BF9D3E0008FB
S31508003E20B13E0008C53E0008D93E0008ED3E000830
S31508003E30013F0008153F0008293F00083D3F0008DC
S31508003E40513F0008653F0008793F00088D3F00088C
S31508003E50A13F0008B53F0008C93F0008DD3F00083C
S31508003E60F13F000805400008194000082D400008E9
S31508003E704140000855400008694000087D40000898
S31508003E8091400008A5400008B9400008CD40000848
S31508003E90E1400008F540000809410008FB7B03F0F3
S31508003EA00103D9B27A68137861F30003137035E118
S31508003EB0FB7B03F00103D9B27A68137861F34103F7
S31508003EC013702BE1FB7B03F00103D9B27A681378F0
S31508003ED061F38203137021E1FB7B03F00103D9B27E
S31508003EE07A68137861F3C303137017E1FB7B03F059
S31508003EF00103D9B27A68137861F3041313700DE1DC
S31508003F00FB7B03F00103D9B27A68137861F3451392
S31508003F10137003E1FB7B03F00103D9B27A681378C7
S31508003F2061F386131370F9E0FB7B03F00103D9B242
S31508003F307A68137861F3C7131370EFE0FB7B03F01D
S31508003F400103D9B27A68537861F300035370E5E048
S31508003F50FB7B03F00103D9B27A68537861F3410316
S31508003F605370DBE0FB7B03F00103D9B27A68537820
S31508003F7061F382035370D1E0FB7B03F00103D9B2EE
S31508003F807A68537861F3C3035370C7E0FB7B03F089
S31508003F900103D9B27A68537861F304135370BDE00C
S31508003FA0FB7B03F00103D9B27A68537861F34513B2
S31508003FB05370B3E0FB7B03F00103D9B27A685378F8
S31508003FC061F386135370A9E0FB7B03F00103D9B2B2
S31508003FD07A68537861F3C71353709FE0FB7B03F04D
S31508003FE00103D9B27A68937861F30003937095E078
S31508003FF0FB7B03F00103D9B27A68937861F3410336
S3150800400093708BE0FB7B03F00103D9B27A6893784F
S3150800401061F38203937081E0FB7B03F00103D9B25D
S315080040207A68937861F3C303937077E0FB7B03F0B8
S315080040300103D9B27A68937861F3041393706DE03B
S31508004040FB7B03F00103D9B27A68937861F34513D1
S31508004050937063E0FB7B03F00103D9B27A68937827
S3150800406061F38613937059E0FB7B03F00103D9B221
S315080040707A68937861F3C71393704FE0FB7B03F07C
S315080040800103D9B27A68D37861F30003D37045E0A7
S31508004090FB7B03F00103D9B27A68D37861F3410355
S315080040A0D3703BE0FB7B03F00103D9B27A68D3787F
S315080040B061F38203D37031E0FB7B03F00103D9B2CD
S315080040C07A68D37861F3C303D37027E0FB7B03F0E8
S315080040D00103D9B27A68D37861F30413D3701DE06B
S315080040E0FB7B03F00103D9B27A68D37861F34513F1
S315080040F0D37013E0FB7B03F00103D9B27A68D37857
S3150800410061F38613D37009E0FB7B03F00103D9B290
S315080041107A68D37861F3C713D37000BF00BF14372A
S31508004120BD465DF8047B704780B584B000AF034692
S31508004130FB710B46BB7113467B71FB79FB73BB792D
S31508004140BB737B79002B02D07B79022B24D17B7938
S31508004150002B08D07B79022B05D1FB79002B44D0A4
S31508004160FB79013BFB73FB7B1F2B09D8BB7B9B00B1
S31508004170214A1344F97B01221846FFF737FE37E038
S3150800418000F0F0FC1D4800F095FF1D4800F092FF76
S315080041901C4800F08FFF2BE07B79012B02D07B793E
S315080041A0032B25D17B79012B08D07B79032B05D1ED
S315080041B0BB79002B1BD0BB79013BBB73BB7B1F2B89
S315080041C009D8FB7B9B00104A1344B97B0122184689
S315080041D0FFF70CFE0CE0094800F06CFF0B4800F0F6
S315080041E069FF084800F066FF02E000BF00E000BF74
S315080041F01037BD4680BD00BF98450120A0A2000823
S31508004200B0A20008F8A200081846012014A3000866
S3150800421080B584B000AF0346FB710B46BB711346ED
S315080042207B71FB79FB73BB79BB737B79002B02D05F
S315080042307B79022B22D17B79002B08D07B79022B44
S3150800424005D1FB79002B42D0FB79013BFB73FB7B45
S315080042501F2B09D8BB7B9B00204A1344F97B0122FC
S315080042601846FFF7C3FD35E01D4800F023FF1D483B
S3150800427000F020FF1C4800F01DFF2BE07B79012B86
S3150800428002D07B79032B25D17B79012B08D07B794A
S31508004290032B05D1BB79002B1BD0BB79013BBB7324
S315080042A0BB7B1F2B09D8FB7B9B00104A1344B97BA9
S315080042B001221846FFF79AFD0CE0094800F0FAFEBD
S315080042C00B4800F0F7FE084800F0F4FE02E000BFD5
S315080042D000E000BF1037BD4680BD00BF98440120EE
S315080042E0A0A20008ACA40008ECA400081845012008
S315080042F004A5000880B584B000AF0346FB710B46E1
S31508004300BB7113467B71FB79FB73BB79BB737B79F6
S31508004310002B02D07B79022B22D17B79002B08D087
S315080043207B79022B05D1FB79002B42D0FB79013B27
S31508004330FB73FB7B1F2B09D8BB7B9B00204A1344CE
S31508004340F97B00221846FFF751FD35E01D4800F0BD
S31508004350B1FE1D4800F0AEFE1C4800F0ABFE2BE097
S315080043607B79012B02D07B79032B25D17B79012B15
S3150800437008D07B79032B05D1BB79002B1BD0BB79E1
S31508004380013BBB73BB7B1F2B09D8FB7B9B00104AE9
S315080043901344B97B00221846FFF728FD0CE00948AC
S315080043A000F088FE0B4800F085FE084800F082FE03
S315080043B002E000BF00E000BF1037BD4680BD00BF69
S315080043C098440120A0A20008ACA4000844A500084F
S315080043D01845012004A5000880B582B000AF002367
S315080043E07B607B681F2B17DC384A7B68002142F804
S315080043F02310374A7B68002142F82310354A7B6828
S31508004400002142F82310344A7B68002142F8231021
S315080044107B6801337B60E4E700233B603B681F2B26
S315080044203BDC3B68DBB2022219460020FFF7F0FEB0
S315080044303B68DBB2022219460020FFF775FE3B688F
S31508004440DBB2002219461F20FFF7E2FE3B68DBB20B
S31508004450002219461F20FFF767FE3B68DBB20322DE
S3150800446000211846FFF7D4FE3B68DBB20322002181
S315080044701846FFF759FE3B68DBB201221F21184692
S31508004480FFF7C6FE3B68DBB201221F211846FFF77D
S315080044904BFE3B6801333B60C0E700220021002049
S315080044A0FFF7B6FE002200210020FFF73DFE01229D
S315080044B000210020FFF71EFF012200210020FFF740
S315080044C033FE00BF0837BD4680BD00BF98440120B3
S315080044D018450120984501201846012080B485B06A
S315080044E000AF78600023FB60FB681F2B26DC7B6827
S315080044F0FA6853F822201449FB6841F823207B68A0
S31508004500FA68203253F822201049FB6841F8232024
S315080045107B68FA68403253F822200D49FB6841F857
S3150800452023207B68FA68603253F822200949FB6821
S3150800453041F82320FB680133FB60D5E700BF143739
S31508004540BD465DF8047B7047984401201845012054
S31508004550984501201846012080B485B000AF7860E0
S315080045600023FB60FB681F2B26DC164AFB6852F803
S3150800457023107B68FA6843F82210134AFB6852F83E
S3150800458023107B68FA68203243F822100F4AFB682A
S3150800459052F823107B68FA68403243F822100C4A16
S315080045A0FB6852F823107B68FA68603243F82210D9
S315080045B0FB680133FB60D5E700BF1437BD465DF8DD
S315080045C0047B70479844012018450120984501202E
S315080045D01846012080B582B000AF0346FB71FB790F
S315080045E0042B09D900F0BEFAFB7919460A4800F0EF
S315080045F061FD4FF0000307E0FA79084913465B00AE
S3150800460013449B000B441B6807EE903AB0EE670A0A
S315080046100837BD4680BD00BFB4BF000878A60008AD
S3150800462080B483B000AF0346FB71FB79042B1AD81C
S3150800463001A252F823F000BF4D4600085346000871
S31508004640594600085D460008634600084FF49B7308
S315080046500AE04FF48C7307E0002305E04FF461731A
S3150800466002E0002300E0002318460C37BD465DF83B
S31508004670047B704780B483B000AF0346FB71FB79B7
S31508004680042B17D801A252F823F000BFA146000850
S31508004690A5460008A9460008AD460008B146000828
S315080046A0462308E0502306E0002304E0822302E0C4
S315080046B0E62300E000231BB218460C37BD465DF81A
S315080046C0047B704780B582B000AF0346FB71FB7967
S315080046D0042B09D900F046FAFB7919460A4800F076
S315080046E0E9FC4FF0000308E0FA79084913465B0035
S315080046F013449B000B4404331B6807EE903AB0EE54
S31508004700670A0837BD4680BDE8BF000878A60008D6
S3150800471080B582B000AF0346FB71FB79042B09D93B
S3150800472000F020FAFB7919460A4800F0C3FC4FF05E
S31508004730000308E0FA79084913465B0013449B0016
S315080047400B4408331B6807EE903AB0EE670A083741
S31508004750BD4680BD20C0000878A6000880B400AF1A
S31508004760034B00221A6000BFBD465DF8047B704704
S31508004770B84E012080B400AF044B1B680133034ACE
S31508004780136000BFBD465DF8047B7047B84E012034
S3150800479080B483B000AF87ED010A044A7B681360D2
S315080047A000BF0C37BD465DF8047B70479C4E012060
S315080047B080B400AF044B1B6807EE903AB0EE670A68
S315080047C0BD465DF8047B70479C4E012080B400AF5F
S315080047D0044B1B6807EE903AB0EE670ABD465DF8D3
S315080047E0047B7047A04E012080B483B000AF87EDEC
S315080047F0010A044A7B68136000BF0C37BD465DF8A2
S31508004800047B7047A44E012080B400AF044B1B689C
S3150800481007EE903AB0EE670ABD465DF8047B70472E
S31508004820A44E012080B483B000AF87ED010A044A84
S315080048307B68136000BF0C37BD465DF8047B704784
S31508004840A84E012080B400AF044B1B6807EE903ACF
S31508004850B0EE670ABD465DF8047B7047A84E012096
S3150800486080B500AFFDF780FBFFF778FF00BF80BD7E
S3150800487080B400AF044B1B6807EE903AB0EE670AA7
S31508004880BD465DF8047B7047B44E012080B483B002
S3150800489000AF87ED010A044A7B68136000BF0C3736
S315080048A0BD465DF8047B7047B44E012080B483B0E2
S315080048B000AF03460A46FB711346BB71BB7903F08A
S315080048C00F03D9B2094A137861F307131370FB79FA
S315080048D003F00F03D9B2054A137861F30303137083
S315080048E000BF0C37BD465DF8047B7047BC500120FD
S315080048F080B483B000AF0346FB71044AFB7913709A
S3150800490000BF0C37BD465DF8047B7047BD500120DB
S3150800491080B400AF034B1B781846BD465DF8047B90
S31508004920704700BFBE50012080B483B000AF034675
S31508004930FB71044AFB79137000BF0C37BD465DF85E
S31508004940047B7047BE500120B0B500AFFFF75CFF8F
S3150800495010EE103A1846FBF7E9FD04460D46FFF738
S3150800496027FF10EE103A1846FBF7E0FD1EA3D3E921
S315080049700023FBF72FFE02460B4620462946FBF787
S3150800498077FC03460C4618462146FCF7DDF8034635
S3150800499000EE103AFFF728FFFFF754FF10EE103A23
S315080049A01846FBF7C3FD04460D46FFF70FFF10EE4A
S315080049B0103A1846FBF7BAFD0BA3D3E90023FBF719
S315080049C009FE02460B4620462946FBF751FC0346DC
S315080049D00C4618462146FCF7B7F8034600EE103A8F
S315080049E0FFF720FF00BFB0BDFCA9F1D24D62503FD2
S315080049F0B0B500AFFFF708FF10EE103A1846FBF700
S31508004A0095FD1FA3D3E90023FBF7E4FD03460C46F7
S31508004A1025461C461C4B1B681846FBF787FD224695
S31508004A202B46FBF725FC03460C4618462146FCF7A1
S31508004A308BF80246144B1A60FFF7E6FE10EE103AA2
S31508004A401846FBF773FD0EA3D3E90023FBF7C2FD57
S31508004A5003460C4625461C460C4B1B681846FBF7B6
S31508004A6065FD22462B46FBF703FC03460C46184613
S31508004A702146FCF769F80246044B1A6000BFB0BD30
S31508004A80FCA9F1D24D62503FB44E0120B04E012030
S31508004A90B0B500AFFFF758FFFFF7AAFFFFF7D2FE42
S31508004AA010EE103A1846FBF741FD10A3D3E9002390
S31508004AB0FBF790FD03460C4625461C460A4B1B6829
S31508004AC01846FBF733FD22462B46FBF7D1FB034678
S31508004AD00C4618462146FCF737F80246024B1A6080
S31508004AE000BFB0BDAFF30080AC4E0120FCA9F1D2E7
S31508004AF04D62503F80B582B000AF03460A46FB714F
S31508004B001346BB71FCF70EFFFEF7ECF9FEF702FA47
S31508004B100020FFF709FFFDF7A9F9FDF717FAFFF7D8
S31508004B209FFE9FED0F0AFFF7B1FE9FED0D0AFFF7F7
S31508004B305BFE9FED0B0AFFF775FEFEF73BFBFB7965
S31508004B40002B01D0FEF7DAF9BB79002B01D0FEF76E
S31508004B50BDF9FCF70FFF00BF0837BD4680BD00BF93
S31508004B600000000080B500AF4FF480410C4800F00B
S31508004B70E5FE0346012B0CBF01230023DBB2002B05
S31508004B800CD0FCF7A7FD4FF4FA7000F0EFFBFCF72A
S31508004B9073FD4FF4FA7000F0E9FBE5E700BF80BD4E
S31508004BA00004024080B52DED028B88B000AF87ED7A
S31508004BB0030AC7ED020A0346FB71FB791846FFF79D
S31508004BC081FD87ED070AFB791846FFF703FDF0EE2E
S31508004BD0407AF5EEC07AF1EE10FA08D5FB79184658
S31508004BE0FFF7F8FCF0EE407AF1EE677A05E0FB791C
S31508004BF01846FFF7EFFCF0EE407AC7ED067AFB7928
S31508004C001846FFF785FDF0EE407AF5EEC07AF1EE2C
S31508004C1010FA08D5FB791846FFF77AFDF0EE407AC8
S31508004C20F1EE677A05E0FB791846FFF771FDF0EEBD
S31508004C30407AC7ED057AFFF7E7FDB0EE408AFFF741
S31508004C40E3FDF0EE407A28EE277AD7ED026AD7ED33
S31508004C50027A66EEA77A77EE677AF5EEC07AF1EE13
S31508004C6010FA14D5FFF7D0FDB0EE408AFFF7CCFD59
S31508004C70F0EE407A28EE277AD7ED026AD7ED027A67
S31508004C8066EEA77A77EE677AF1EE677A11E0FFF7B4
S31508004C90BBFDB0EE408AFFF7B7FDF0EE407A28EE8E
S31508004CA0277AD7ED026AD7ED027A66EEA77A77EE0B
S31508004CB0677A97ED057A77EE076A87EEA67A87ED23
S31508004CC0047A97ED060AFFF763FDFFF79DFDB0EE40
S31508004CD0407AD7ED077AB4EEE77AF1EE10FA4CBFD0
S31508004CE001230023DBB2002B5BD0FFF78DFDB0EE6E
S31508004CF0408AFFF789FDF0EE407A28EE277AD7ED4D
S31508004D00026AD7ED027A66EEA77A77EE677AF5EE4B
S31508004D10C07AF1EE10FA14D5FFF776FDB0EE408AA8
S31508004D20FFF772FDF0EE407A28EE277AD7ED026A91
S31508004D30D7ED027A66EEA77A77EE677AF1EE677AAA
S31508004D4011E0FFF761FDB0EE408AFFF75DFDF0EE7A
S31508004D50407A28EE277AD7ED026AD7ED027A66EE10
S31508004D60A77A77EE677A97ED057A77EE076A87EE80
S31508004D70A67A87ED047AFFF77BFDB0EE407AD7ED89
S31508004D80037A37EEC77AD7ED047AB4EEE77AF1EE0E
S31508004D9010FA94BF01230023DBB2002B00D194E75D
S31508004DA000BF9FED5A0AFFF7F3FCFFF72DFDB0EEA3
S31508004DB0408AFFF729FDF0EE407A28EE277AD7EDEC
S31508004DC0026AD7ED027A66EEA77A77EE677AF5EE8B
S31508004DD0C07AF1EE10FA14D5FFF716FDB0EE408A48
S31508004DE0FFF712FDF0EE407A28EE277AD7ED026A31
S31508004DF0D7ED027A66EEA77A77EE677AF1EE677AEA
S31508004E0011E0FFF701FDB0EE408AFFF7FDFCF0EE7A
S31508004E10407A28EE277AD7ED026AD7ED027A66EE4F
S31508004E20A77A77EE677A97ED057A77EE076A87EEBF
S31508004E30A67A87ED047AFFF71BFDB0EE407AD7ED28
S31508004E40037A37EEC77AD7ED047AB4EEE77AF1EE4D
S31508004E5010FA94BF01230023DBB2002B00D1A4E78C
S31508004E6000BFD7ED057AF1EE677AB0EE670AFFF76D
S31508004E708FFCFFF7C9FCB0EE407AD7ED027AB4EEA4
S31508004E80E77AF1EE10FACCBF01230023DBB2002B40
S31508004E9011D0FFF7EDFCB0EE407AD7ED037AB4EE09
S31508004EA0E77AF1EE10FACCBF01230023DBB2002B20
S31508004EB000D1DEE700BF9FED150AFFF769FC97ED05
S31508004EC0020AFFF791FCD7ED027AF5EEC07AF1EE09
S31508004ED010FA10DDFFF7CCFCB0EE407AD7ED037A76
S31508004EE0B4EEE77AF1EE10FA4CBF01230023DBB2E9
S31508004EF0002B00D0EEE79FED050AFFF7C7FC00BFC1
S31508004F002037BD46BDEC028B80BD00BF0000000007
S31508004F1090B589B000AF87ED030AC7ED020A0346CC
S31508004F2087ED001AFB713B68FB610123FB760020C5
S31508004F30FFF7A0FB03461C460020FFF79BFB034632
S31508004F402344DA0F13445B109BB23B820120FFF720
S31508004F5091FB03461C460120FFF78CFB03462344BE
S31508004F60DA0F13445B109BB27B8297ED037AD7ED79
S31508004F70007A77EE677AFB791846D7ED020AB0EE23
S31508004F80670AFFF70FFEFFF773FCB0EE407AD7ED1E
S31508004F90077AB4EEE77AF1EE10FA4CBF0123002344
S31508004FA0DBB2002B42D0FFF7B3FC0346002B42D1FD
S31508004FB0FB7E002BE7D00120FDF7FCFC0346002B07
S31508004FC016D00120FDF7BAFC03461A467B8A1BB2A7
S31508004FD09A42B4BF01230023DBB2002B08D0184B3A
S31508004FE05B68FB619FED170AFFF750FC0023FB7611
S31508004FF00020FDF7DFFC0346002BC4D00020FDF798
S315080050009DFC03461A463B8A1BB29A42B4BF01234B
S315080050100023DBB2002BB6D0094B1B68FB619FED62
S31508005020090AFFF733FC0023FB76ACE79FED050A78
S31508005030FFF72CFC00E000BF2437BD4690BD00BF3B
S315080050400C0000200000000080B582B000AF0346C7
S31508005050FB71FB799BB21946074801F0FFF900BFBF
S315080050608021054801F054FA0346002BF8D000BF0A
S315080050700837BD4680BD00BF0010014080B584B02A
S3150800508000AF78600B467B800023FB8109E0FB8933
S315080050907A6813441B781846FFF7D6FFFB89013355
S315080050A0FB81FA89B7F902309A42F0DB00BF103764
S315080050B0BD4680BD0FB480B582B000AF07F11403BA
S315080050C03B603A683969094801F0D4FA78607B6828
S315080050D09BB21BB219460548FFF7D0FF7B681846F6
S315080050E00837BD46BDE8804004B07047C45001206B
S315080050F080B400AF00BFBD465DF8047B704700BFB3
S3150800510080B400AFFEE700BF80B400AFFEE700BF83
S3150800511080B400AFFEE700BF80B400AFFEE700BF73
S3150800512080B400AF00BFBD465DF8047B704700BF82
S3150800513080B400AF00BFBD465DF8047B704700BF72
S3150800514080B400AF00BFBD465DF8047B704700BF62
S3150800515080B500AFFEF7C4FD00BF80BD80B584B042
S3150800516000AF7860114B1B68002B02D10F4B104A19
S315080051701A600E4B1B68FB600C4B1A687B6813445D
S315080051806A46934207D901F0DFF902460C231360F9
S315080051904FF0FF3306E0054B1A687B681344034A51
S315080051A01360FB6818461037BD4680BD2C51012098
S315080051B0F854012080B500AF164A164BD3F888304C
S315080051C043F47003C2F88830134A134B1B6843F044
S315080051D001031360104B00229A600F4A0E4B1B689E
S315080051E023F0847323F4803313600B4B0B4A5A6005
S315080051F0094A094B1B6823F480231360064B0022D7
S31508005200DA6000F00DF8034B4FF000629A6000BFB9
S3150800521080BD00BF00ED00E00038024010300024D9
S3150800522080B400AF234A234B1B6C43F080531364AE
S31508005230214A214B1B6843F4404313601D4A1D4B0A
S315080052409B6893601B4A1B4B9B6843F4004393601F
S31508005250184A184B9B6843F4A0539360154B174A9A
S315080052605A60144A134B1B6843F08073136000BFDF
S31508005270104B1B6803F00073002BF9D0104B40F25B
S3150800528005621A600B4A0B4B9B6823F00303936075
S31508005290084A084B9B6843F00203936000BF054B1E
S315080052A09B6803F00C03082BF9D100BFBD465DF8D7
S315080052B0047B704700380240007000401054000715
S315080052C0003C02400000000090B583B000AF87EDB7
S315080052D0010A7868FBF72AF90EA3D3E90023FBF73E
S315080052E079F903460C46184621464FF00002084B4A
S315080052F0FBF79AFA03460C4618462146FBF724FCA8
S31508005300034607EE903AB0EE670A0C37BD4690BDE5
S31508005310008066406F1283C0CA21094080B483B0FA
S3150800532000AF7860044A7B68136000BF0C37BD463F
S315080053305DF8047B704700BF3051012080B400AF90
S31508005340034B00221A6000BFBD465DF8047B704718
S315080053503051012080B400AF034B1B681846BD4688
S315080053605DF8047B704700BF3051012080B584B0DA
S3150800537000AF78600023FB601A4B1B681846FFF7DE
S31508005380CDFFFFF7E7FF01467A68174B9B1A99424C
S315080053908CBF01230023DBB2002B07D0FFF7CEFF1B
S315080053A0104B00221A607B68FB6005E0FFF7D2FF0E
S315080053B002467B681344FB60FFF7CCFF0246FB6896
S315080053C09A4234BF01230023DBB2002B05D0054BDC
S315080053D01B681846FFF7A2FFEEE700BF1037BD4669
S315080053E080BD00BF100C00200084D717DFF834D02A
S315080053F0002103E00C4B5B58435004310B480C4B1F
S3150800540042189A42F6D30B4A02E0002342F8043BBC
S31508005410094B9A42F9D3FFF7CDFE01F09BF8FEF748
S31508005420DFFA7047000002202CC2000800000020A6
S31508005430A4080020A4080020F8540120FEE7000074
S3150800544080B500AF01214FF4807000F005FC002103
S315080054504FF4807000F000FC00BF80BD80B485B0BA
S3150800546000AF786039600023FB600023FB727B681D
S315080054705B68FB60FB6823F0407323F48073FB6072
S315080054803B681B791A023B681B681343FA68134387
S31508005490FB607B68FA685A607B689B68FB60FA6801
S315080054A0184B1340FB603B681A693B68DB681A4374
S315080054B03B689B681A433B685B795B001343FA6851
S315080054C01343FB607B68FA689A607B68DB6AFB605B
S315080054D0FB6823F47003FB603B681B7D013BDAB273
S315080054E0FB7A1343FB72FB7A1B05FA681343FB60CE
S315080054F07B68FA68DA6200BF1437BD465DF8047B3C
S31508005500704700BFFDF7FFC080B485B000AF786074
S315080055100023FB600E4B5B68FB60FA680D4B13407B
S31508005520FB607B681A687B685B681A437B689B68C4
S315080055301A437B68DB681343FA681343FB60044A23
